{
  "address": "0x01579DE93F75FC18a339cE019FB812a17374D293",
  "abi": [
    {
      "inputs": [
        {
          "internalType": "address",
          "name": "owner_",
          "type": "address"
        },
        {
          "internalType": "address",
          "name": "ethmx_",
          "type": "address"
        },
        {
          "internalType": "address",
          "name": "ethtx_",
          "type": "address"
        },
        {
          "internalType": "address",
          "name": "ethtxAMM_",
          "type": "address"
        },
        {
          "internalType": "address",
          "name": "wethAddr_",
          "type": "address"
        },
        {
          "internalType": "uint256",
          "name": "mintGasPrice_",
          "type": "uint256"
        },
        {
          "internalType": "uint128",
          "name": "roiNumerator",
          "type": "uint128"
        },
        {
          "internalType": "uint128",
          "name": "roiDenominator",
          "type": "uint128"
        },
        {
          "internalType": "uint256",
          "name": "earlyThreshold_",
          "type": "uint256"
        }
      ],
      "stateMutability": "nonpayable",
      "type": "constructor"
    },
    {
      "anonymous": false,
      "inputs": [
        {
          "indexed": true,
          "internalType": "address",
          "name": "author",
          "type": "address"
        },
        {
          "indexed": true,
          "internalType": "address",
          "name": "addr",
          "type": "address"
        }
      ],
      "name": "EthtxAMMAddressSet",
      "type": "event"
    },
    {
      "anonymous": false,
      "inputs": [
        {
          "indexed": true,
          "internalType": "address",
          "name": "author",
          "type": "address"
        },
        {
          "indexed": true,
          "internalType": "address",
          "name": "addr",
          "type": "address"
        }
      ],
      "name": "EthtxAddressSet",
      "type": "event"
    },
    {
      "anonymous": false,
      "inputs": [
        {
          "indexed": true,
          "internalType": "address",
          "name": "author",
          "type": "address"
        },
        {
          "indexed": false,
          "internalType": "uint256",
          "name": "value",
          "type": "uint256"
        }
      ],
      "name": "MintGasPriceSet",
      "type": "event"
    },
    {
      "anonymous": false,
      "inputs": [
        {
          "indexed": true,
          "internalType": "address",
          "name": "previousOwner",
          "type": "address"
        },
        {
          "indexed": true,
          "internalType": "address",
          "name": "newOwner",
          "type": "address"
        }
      ],
      "name": "OwnershipTransferred",
      "type": "event"
    },
    {
      "anonymous": false,
      "inputs": [
        {
          "indexed": false,
          "internalType": "address",
          "name": "account",
          "type": "address"
        }
      ],
      "name": "Paused",
      "type": "event"
    },
    {
      "anonymous": false,
      "inputs": [
        {
          "indexed": true,
          "internalType": "address",
          "name": "author",
          "type": "address"
        },
        {
          "indexed": true,
          "internalType": "address",
          "name": "token",
          "type": "address"
        },
        {
          "indexed": true,
          "internalType": "address",
          "name": "to",
          "type": "address"
        },
        {
          "indexed": false,
          "internalType": "uint256",
          "name": "amount",
          "type": "uint256"
        }
      ],
      "name": "Recovered",
      "type": "event"
    },
    {
      "anonymous": false,
      "inputs": [
        {
          "indexed": true,
          "internalType": "address",
          "name": "author",
          "type": "address"
        },
        {
          "indexed": false,
          "internalType": "uint128",
          "name": "numerator",
          "type": "uint128"
        },
        {
          "indexed": false,
          "internalType": "uint128",
          "name": "denominator",
          "type": "uint128"
        }
      ],
      "name": "RoiSet",
      "type": "event"
    },
    {
      "anonymous": false,
      "inputs": [
        {
          "indexed": false,
          "internalType": "address",
          "name": "account",
          "type": "address"
        }
      ],
      "name": "Unpaused",
      "type": "event"
    },
    {
      "inputs": [],
      "name": "earlyThreshold",
      "outputs": [
        {
          "internalType": "uint256",
          "name": "",
          "type": "uint256"
        }
      ],
      "stateMutability": "view",
      "type": "function"
    },
    {
      "inputs": [],
      "name": "ethmx",
      "outputs": [
        {
          "internalType": "address",
          "name": "",
          "type": "address"
        }
      ],
      "stateMutability": "view",
      "type": "function"
    },
    {
      "inputs": [
        {
          "internalType": "uint256",
          "name": "amountETHIn",
          "type": "uint256"
        }
      ],
      "name": "ethmxFromEth",
      "outputs": [
        {
          "internalType": "uint256",
          "name": "",
          "type": "uint256"
        }
      ],
      "stateMutability": "view",
      "type": "function"
    },
    {
      "inputs": [
        {
          "internalType": "uint256",
          "name": "amountETHtxIn",
          "type": "uint256"
        }
      ],
      "name": "ethmxFromEthtx",
      "outputs": [
        {
          "internalType": "uint256",
          "name": "",
          "type": "uint256"
        }
      ],
      "stateMutability": "view",
      "type": "function"
    },
    {
      "inputs": [],
      "name": "ethtx",
      "outputs": [
        {
          "internalType": "address",
          "name": "",
          "type": "address"
        }
      ],
      "stateMutability": "view",
      "type": "function"
    },
    {
      "inputs": [],
      "name": "ethtxAMM",
      "outputs": [
        {
          "internalType": "address",
          "name": "",
          "type": "address"
        }
      ],
      "stateMutability": "view",
      "type": "function"
    },
    {
      "inputs": [
        {
          "internalType": "uint256",
          "name": "amountETHIn",
          "type": "uint256"
        }
      ],
      "name": "ethtxFromEth",
      "outputs": [
        {
          "internalType": "uint256",
          "name": "",
          "type": "uint256"
        }
      ],
      "stateMutability": "view",
      "type": "function"
    },
    {
      "inputs": [],
      "name": "mint",
      "outputs": [],
      "stateMutability": "payable",
      "type": "function"
    },
    {
      "inputs": [],
      "name": "mintGasPrice",
      "outputs": [
        {
          "internalType": "uint256",
          "name": "",
          "type": "uint256"
        }
      ],
      "stateMutability": "view",
      "type": "function"
    },
    {
      "inputs": [
        {
          "internalType": "uint256",
          "name": "amount",
          "type": "uint256"
        }
      ],
      "name": "mintWithETHtx",
      "outputs": [],
      "stateMutability": "nonpayable",
      "type": "function"
    },
    {
      "inputs": [
        {
          "internalType": "uint256",
          "name": "amount",
          "type": "uint256"
        }
      ],
      "name": "mintWithWETH",
      "outputs": [],
      "stateMutability": "nonpayable",
      "type": "function"
    },
    {
      "inputs": [],
      "name": "owner",
      "outputs": [
        {
          "internalType": "address",
          "name": "",
          "type": "address"
        }
      ],
      "stateMutability": "view",
      "type": "function"
    },
    {
      "inputs": [],
      "name": "pause",
      "outputs": [],
      "stateMutability": "nonpayable",
      "type": "function"
    },
    {
      "inputs": [],
      "name": "paused",
      "outputs": [
        {
          "internalType": "bool",
          "name": "",
          "type": "bool"
        }
      ],
      "stateMutability": "view",
      "type": "function"
    },
    {
      "inputs": [
        {
          "internalType": "address",
          "name": "token",
          "type": "address"
        },
        {
          "internalType": "address",
          "name": "to",
          "type": "address"
        },
        {
          "internalType": "uint256",
          "name": "amount",
          "type": "uint256"
        }
      ],
      "name": "recoverERC20",
      "outputs": [],
      "stateMutability": "nonpayable",
      "type": "function"
    },
    {
      "inputs": [],
      "name": "renounceOwnership",
      "outputs": [],
      "stateMutability": "nonpayable",
      "type": "function"
    },
    {
      "inputs": [],
      "name": "roi",
      "outputs": [
        {
          "internalType": "uint128",
          "name": "",
          "type": "uint128"
        },
        {
          "internalType": "uint128",
          "name": "",
          "type": "uint128"
        }
      ],
      "stateMutability": "view",
      "type": "function"
    },
    {
      "inputs": [
        {
          "internalType": "address",
          "name": "addr",
          "type": "address"
        }
      ],
      "name": "setEthtxAMMAddress",
      "outputs": [],
      "stateMutability": "nonpayable",
      "type": "function"
    },
    {
      "inputs": [
        {
          "internalType": "address",
          "name": "addr",
          "type": "address"
        }
      ],
      "name": "setEthtxAddress",
      "outputs": [],
      "stateMutability": "nonpayable",
      "type": "function"
    },
    {
      "inputs": [
        {
          "internalType": "uint256",
          "name": "value",
          "type": "uint256"
        }
      ],
      "name": "setMintGasPrice",
      "outputs": [],
      "stateMutability": "nonpayable",
      "type": "function"
    },
    {
      "inputs": [
        {
          "internalType": "uint128",
          "name": "numerator",
          "type": "uint128"
        },
        {
          "internalType": "uint128",
          "name": "denominator",
          "type": "uint128"
        }
      ],
      "name": "setRoi",
      "outputs": [],
      "stateMutability": "nonpayable",
      "type": "function"
    },
    {
      "inputs": [],
      "name": "totalGiven",
      "outputs": [
        {
          "internalType": "uint256",
          "name": "",
          "type": "uint256"
        }
      ],
      "stateMutability": "view",
      "type": "function"
    },
    {
      "inputs": [
        {
          "internalType": "address",
          "name": "newOwner",
          "type": "address"
        }
      ],
      "name": "transferOwnership",
      "outputs": [],
      "stateMutability": "nonpayable",
      "type": "function"
    },
    {
      "inputs": [],
      "name": "unpause",
      "outputs": [],
      "stateMutability": "nonpayable",
      "type": "function"
    },
    {
      "inputs": [],
      "name": "weth",
      "outputs": [
        {
          "internalType": "address",
          "name": "",
          "type": "address"
        }
      ],
      "stateMutability": "view",
      "type": "function"
    }
  ],
  "args": [
    "0x5757Dd711EaE80e181E07CdbCe43359Ac1048394",
    "0xB63258927FDa968B19907AA92E43e88D96ef3290",
    "0xDc456AC4e0C1D88f0f32b9B116BEBBd678D4b81D",
    "0xb18b8832E462D3d344DCb36c158584E3f8e28733",
    "0x706f8Bf6ff5352F61F3e6D554232BeD01d679938",
    "1800000000000",
    5,
    1,
    "1000000000000000000000"
  ],
  "solcInputHash": "d866fd3a9c665c3159ffcb94310e6171",
  "bytecode": "0x60e06040523480156200001157600080fd5b5060405162001f1d38038062001f1d83398181016040526101208110156200003857600080fd5b508051602082015160408301516060840151608085015160a086015160c087015160e0880151610100909801519697959694959394929391929091906000620000806200014f565b600080546001600160a01b0319166001600160a01b03831690811782556040519293509160008051602062001efd833981519152908290a3506000805460ff60a01b19169055620000d18762000153565b620000dc866200020f565b620000e784620002cb565b620000f3838362000379565b60808190526001600160601b0319606089811b821660a05286901b1660c0526200011c62000469565b6001600160a01b0316896001600160a01b0316146200014057620001408962000478565b50505050505050505062000565565b3390565b6200015d6200014f565b6000546001600160a01b03908116911614620001af576040805162461bcd60e51b8152602060048201819052602482015260008051602062001edd833981519152604482015290519081900360640190fd5b600180546001600160a01b0319166001600160a01b038316908117909155620001d76200014f565b6001600160a01b03167ff9f4b296b0c32540acafb6c8937812d833013c92ebdc4c2ac0d9910132a1a26d60405160405180910390a350565b620002196200014f565b6000546001600160a01b039081169116146200026b576040805162461bcd60e51b8152602060048201819052602482015260008051602062001edd833981519152604482015290519081900360640190fd5b600280546001600160a01b0319166001600160a01b038316908117909155620002936200014f565b6001600160a01b03167f6b280d88a71e3350b4e6b92556f8413347439e6bca3e3d9b21e93182d033d08760405160405180910390a350565b620002d56200014f565b6000546001600160a01b0390811691161462000327576040805162461bcd60e51b8152602060048201819052602482015260008051602062001edd833981519152604482015290519081900360640190fd5b6003819055620003366200014f565b6001600160a01b03167fb1ecd7e4230a9a3df1f119a3db9886f8bcc33ee9b72eb26a35ef00ebc0adbf45826040518082815260200191505060405180910390a250565b620003836200014f565b6000546001600160a01b03908116911614620003d5576040805162461bcd60e51b8152602060048201819052602482015260008051602062001edd833981519152604482015290519081900360640190fd5b600580546001600160801b03838116600160801b028186166001600160801b031990931692909217161790556200040b6200014f565b6001600160a01b03167f9fbc9dca732fccb175ef424ad70935ed495bd5919432440754adcc7e41408000838360405180836001600160801b03168152602001826001600160801b031681526020019250505060405180910390a25050565b6000546001600160a01b031690565b620004826200014f565b6000546001600160a01b03908116911614620004d4576040805162461bcd60e51b8152602060048201819052602482015260008051602062001edd833981519152604482015290519081900360640190fd5b6001600160a01b0381166200051b5760405162461bcd60e51b815260040180806020018281038252602681526020018062001eb76026913960400191505060405180910390fd5b600080546040516001600160a01b038085169392169160008051602062001efd83398151915291a3600080546001600160a01b0319166001600160a01b0392909216919091179055565b60805160a05160601c60c05160601c61191f62000598600039806108bb5250806111d1525080611004525061191f6000f3fe6080604052600436106101665760003560e01c8063715018a6116100d1578063b4f0afb61161008a578063ea03798e11610064578063ea03798e14610483578063f14744b1146104ad578063f2fde38b146104c2578063fa750d58146104f557610166565b8063b4f0afb614610408578063c301e5951461043b578063e54923de1461046e57610166565b8063715018a6146103605780638456cb59146103755780638da5cb5b1461038a578063902dd1861461039f578063982b489a146103b45780639e5094dd146103de57610166565b80633fc8cef3116101235780633fc8cef3146102445780634afdd0e7146102755780635c975abb146102b957806363fb53e8146102e25780636aec2fae1461030c5780636fa968d71461033657610166565b80630edacbcc1461016b5780631171bda9146101a85780631249c58b146101eb57806314b85427146101f357806315aad0bc1461021a5780633f4ba83a1461022f575b600080fd5b34801561017757600080fd5b506101a66004803603604081101561018e57600080fd5b506001600160801b038135811691602001351661050a565b005b3480156101b457600080fd5b506101a6600480360360608110156101cb57600080fd5b506001600160a01b038135811691602081013590911690604001356105fd565b6101a66106ca565b3480156101ff57600080fd5b5061020861084b565b60408051918252519081900360200190f35b34801561022657600080fd5b50610208610851565b34801561023b57600080fd5b506101a6610857565b34801561025057600080fd5b506102596108b9565b604080516001600160a01b039092168252519081900360200190f35b34801561028157600080fd5b5061028a6108dd565b60405180836001600160801b03168152602001826001600160801b031681526020019250505060405180910390f35b3480156102c557600080fd5b506102ce6108f8565b604080519115158252519081900360200190f35b3480156102ee57600080fd5b506101a66004803603602081101561030557600080fd5b5035610908565b34801561031857600080fd5b506102086004803603602081101561032f57600080fd5b5035610a35565b34801561034257600080fd5b506101a66004803603602081101561035957600080fd5b5035610ac1565b34801561036c57600080fd5b506101a6610c58565b34801561038157600080fd5b506101a6610cfa565b34801561039657600080fd5b50610259610d5a565b3480156103ab57600080fd5b50610259610d69565b3480156103c057600080fd5b506101a6600480360360208110156103d757600080fd5b5035610d78565b3480156103ea57600080fd5b506102086004803603602081101561040157600080fd5b5035610e20565b34801561041457600080fd5b506101a66004803603602081101561042b57600080fd5b50356001600160a01b0316610e96565b34801561044757600080fd5b506101a66004803603602081101561045e57600080fd5b50356001600160a01b0316610f4c565b34801561047a57600080fd5b50610208611002565b34801561048f57600080fd5b50610208600480360360208110156104a657600080fd5b5035611026565b3480156104b957600080fd5b506102596110c8565b3480156104ce57600080fd5b506101a6600480360360208110156104e557600080fd5b50356001600160a01b03166110d7565b34801561050157600080fd5b506102596111cf565b6105126111f3565b6000546001600160a01b03908116911614610562576040805162461bcd60e51b815260206004820181905260248201526000805160206118a0833981519152604482015290519081900360640190fd5b600580546001600160801b03838116600160801b028186166fffffffffffffffffffffffffffffffff19909316929092171617905561059f6111f3565b6001600160a01b03167f9fbc9dca732fccb175ef424ad70935ed495bd5919432440754adcc7e41408000838360405180836001600160801b03168152602001826001600160801b031681526020019250505060405180910390a25050565b6106056111f3565b6000546001600160a01b03908116911614610655576040805162461bcd60e51b815260206004820181905260248201526000805160206118a0833981519152604482015290519081900360640190fd5b6106696001600160a01b03841683836111f7565b816001600160a01b0316836001600160a01b03166106856111f3565b6001600160a01b03167ffa6e44909e1c69606f847ee93c3339a424b53b345ed377c38ab410d32e7f70a7846040518082815260200191505060405180910390a4505050565b600054600160a01b900460ff161561071c576040805162461bcd60e51b815260206004820152601060248201526f14185d5cd8589b194e881c185d5cd95960821b604482015290519081900360640190fd5b346107256108b9565b6001600160a01b031663d0e30db0826040518263ffffffff1660e01b81526004016000604051808303818588803b15801561075f57600080fd5b505af1158015610773573d6000803e3d6000fd5b505050505061079c6107836110c8565b8261078c6108b9565b6001600160a01b031691906111f7565b6107a4610d69565b6001600160a01b03166340c10f196107ba6110c8565b6107c384611026565b6040518363ffffffff1660e01b815260040180836001600160a01b0316815260200182815260200192505050600060405180830381600087803b15801561080957600080fd5b505af115801561081d573d6000803e3d6000fd5b50505050600061082c82610e20565b905061083f6108396111f3565b82611249565b50600480549091019055565b60035490565b60045490565b61085f6111f3565b6000546001600160a01b039081169116146108af576040805162461bcd60e51b815260206004820181905260248201526000805160206118a0833981519152604482015290519081900360640190fd5b6108b76112c3565b565b7f000000000000000000000000000000000000000000000000000000000000000090565b6005546001600160801b0380821691600160801b9004169091565b600054600160a01b900460ff1690565b600054600160a01b900460ff161561095a576040805162461bcd60e51b815260206004820152601060248201526f14185d5cd8589b194e881c185d5cd95960821b604482015290519081900360640190fd5b60006109646111f3565b905061098c816109726110c8565b8461097b6108b9565b6001600160a01b031692919061136b565b610994610d69565b6001600160a01b03166340c10f196109aa6110c8565b6109b385611026565b6040518363ffffffff1660e01b815260040180836001600160a01b0316815260200182815260200192505050600060405180830381600087803b1580156109f957600080fd5b505af1158015610a0d573d6000803e3d6000fd5b505050506000610a1c83610e20565b9050610a288282611249565b5050600480549091019055565b600080610a406110c8565b6001600160a01b031663313a7972846040518263ffffffff1660e01b81526004018082815260200191505060206040518083038186803b158015610a8357600080fd5b505afa158015610a97573d6000803e3d6000fd5b505050506040513d6020811015610aad57600080fd5b50519050610aba816113cb565b9392505050565b600054600160a01b900460ff1615610b13576040805162461bcd60e51b815260206004820152601060248201526f14185d5cd8589b194e881c185d5cd95960821b604482015290519081900360640190fd5b610b1b6110c8565b6001600160a01b031663575a9d166040518163ffffffff1660e01b815260040160206040518083038186803b158015610b5357600080fd5b505afa158015610b67573d6000803e3d6000fd5b505050506040513d6020811015610b7d57600080fd5b5051610bba5760405162461bcd60e51b81526004018080602001828103825260378152602001806118486037913960400191505060405180910390fd5b6000610bc46111f3565b9050610bce610d69565b6001600160a01b0316639dc29fac82846040518363ffffffff1660e01b815260040180836001600160a01b0316815260200182815260200192505050600060405180830381600087803b158015610c2457600080fd5b505af1158015610c38573d6000803e3d6000fd5b505050506000610c4783610a35565b9050610c538282611249565b505050565b610c606111f3565b6000546001600160a01b03908116911614610cb0576040805162461bcd60e51b815260206004820181905260248201526000805160206118a0833981519152604482015290519081900360640190fd5b600080546040516001600160a01b03909116907f8be0079c531659141344cd1fd0a4f28419497f9722a3daafe3b4186f6b6457e0908390a3600080546001600160a01b0319169055565b610d026111f3565b6000546001600160a01b03908116911614610d52576040805162461bcd60e51b815260206004820181905260248201526000805160206118a0833981519152604482015290519081900360640190fd5b6108b761140b565b6000546001600160a01b031690565b6001546001600160a01b031690565b610d806111f3565b6000546001600160a01b03908116911614610dd0576040805162461bcd60e51b815260206004820181905260248201526000805160206118a0833981519152604482015290519081900360640190fd5b6003819055610ddd6111f3565b6001600160a01b03167fb1ecd7e4230a9a3df1f119a3db9886f8bcc33ee9b72eb26a35ef00ebc0adbf45826040518082815260200191505060405180910390a250565b600080610e2b610851565b90506000610e37611002565b905080821015610e855781810380851015610e6f57816002026002860a8685600202020181610e6257fe5b0485600202039450610e83565b8160020281820281610e7d57fe5b04850194505b505b610e8e846113cb565b949350505050565b610e9e6111f3565b6000546001600160a01b03908116911614610eee576040805162461bcd60e51b815260206004820181905260248201526000805160206118a0833981519152604482015290519081900360640190fd5b600280546001600160a01b0319166001600160a01b038316908117909155610f146111f3565b6001600160a01b03167f6b280d88a71e3350b4e6b92556f8413347439e6bca3e3d9b21e93182d033d08760405160405180910390a350565b610f546111f3565b6000546001600160a01b03908116911614610fa4576040805162461bcd60e51b815260206004820181905260248201526000805160206118a0833981519152604482015290519081900360640190fd5b600180546001600160a01b0319166001600160a01b038316908117909155610fca6111f3565b6001600160a01b03167ff9f4b296b0c32540acafb6c8937812d833013c92ebdc4c2ac0d9910132a1a26d60405160405180910390a350565b7f000000000000000000000000000000000000000000000000000000000000000090565b60008061103b83670de0b6b3a7640000611499565b905060006110bc61104a6110c8565b6001600160a01b031663546146e36040518163ffffffff1660e01b815260040160206040518083038186803b15801561108257600080fd5b505afa158015611096573d6000803e3d6000fd5b505050506040513d60208110156110ac57600080fd5b50516110b661084b565b90611499565b9050610e8e82826114fb565b6002546001600160a01b031690565b6110df6111f3565b6000546001600160a01b0390811691161461112f576040805162461bcd60e51b815260206004820181905260248201526000805160206118a0833981519152604482015290519081900360640190fd5b6001600160a01b0381166111745760405162461bcd60e51b81526004018080602001828103825260268152602001806118226026913960400191505060405180910390fd5b600080546040516001600160a01b03808516939216917f8be0079c531659141344cd1fd0a4f28419497f9722a3daafe3b4186f6b6457e091a3600080546001600160a01b0319166001600160a01b0392909216919091179055565b7f000000000000000000000000000000000000000000000000000000000000000090565b3390565b604080516001600160a01b038416602482015260448082018490528251808303909101815260649091019091526020810180516001600160e01b031663a9059cbb60e01b179052610c5390849061153d565b6112516111cf565b6001600160a01b031663449a52f883836040518363ffffffff1660e01b815260040180836001600160a01b0316815260200182815260200192505050600060405180830381600087803b1580156112a757600080fd5b505af11580156112bb573d6000803e3d6000fd5b505050505050565b600054600160a01b900460ff16611318576040805162461bcd60e51b815260206004820152601460248201527314185d5cd8589b194e881b9bdd081c185d5cd95960621b604482015290519081900360640190fd5b6000805460ff60a01b191690557f5db9ee0a495bf2e6ff9c91a7834c1ba4fdd244a5e8aa4e537bd38aeae4b073aa61134e6111f3565b604080516001600160a01b039092168252519081900360200190a1565b604080516001600160a01b0380861660248301528416604482015260648082018490528251808303909101815260849091019091526020810180516001600160e01b03166323b872dd60e01b1790526113c590859061153d565b50505050565b60008060006113d86108dd565b91509150610e8e816001600160801b0316611405846001600160801b03168761149990919063ffffffff16565b906114fb565b600054600160a01b900460ff161561145d576040805162461bcd60e51b815260206004820152601060248201526f14185d5cd8589b194e881c185d5cd95960821b604482015290519081900360640190fd5b6000805460ff60a01b1916600160a01b1790557f62e78cea01bee320cd4e420270b5ea74000d11b0c9f74754ebdbfc544b05a25861134e6111f3565b6000826114a8575060006114f5565b828202828482816114b557fe5b04146114f25760405162461bcd60e51b815260040180806020018281038252602181526020018061187f6021913960400191505060405180910390fd5b90505b92915050565b60006114f283836040518060400160405280601a81526020017f536166654d6174683a206469766973696f6e206279207a65726f0000000000008152506115ee565b6000611592826040518060400160405280602081526020017f5361666545524332303a206c6f772d6c6576656c2063616c6c206661696c6564815250856001600160a01b03166116909092919063ffffffff16565b805190915015610c53578080602001905160208110156115b157600080fd5b5051610c535760405162461bcd60e51b815260040180806020018281038252602a8152602001806118c0602a913960400191505060405180910390fd5b6000818361167a5760405162461bcd60e51b81526004018080602001828103825283818151815260200191508051906020019080838360005b8381101561163f578181015183820152602001611627565b50505050905090810190601f16801561166c5780820380516001836020036101000a031916815260200191505b509250505060405180910390fd5b50600083858161168657fe5b0495945050505050565b6060610e8e8484600085856116a4856117b5565b6116f5576040805162461bcd60e51b815260206004820152601d60248201527f416464726573733a2063616c6c20746f206e6f6e2d636f6e7472616374000000604482015290519081900360640190fd5b600080866001600160a01b031685876040518082805190602001908083835b602083106117335780518252601f199092019160209182019101611714565b6001836020036101000a03801982511681845116808217855250505050505090500191505060006040518083038185875af1925050503d8060008114611795576040519150601f19603f3d011682016040523d82523d6000602084013e61179a565b606091505b50915091506117aa8282866117bb565b979650505050505050565b3b151590565b606083156117ca575081610aba565b8251156117da5782518084602001fd5b60405162461bcd60e51b815260206004820181815284516024840152845185939192839260440191908501908083836000831561163f57818101518382015260200161162756fe4f776e61626c653a206e6577206f776e657220697320746865207a65726f20616464726573734554486d784d696e7465723a2063616e206f6e6c79206275726e20455448747820696620756e646572636f6c6c61746572616c697a6564536166654d6174683a206d756c7469706c69636174696f6e206f766572666c6f774f776e61626c653a2063616c6c6572206973206e6f7420746865206f776e65725361666545524332303a204552433230206f7065726174696f6e20646964206e6f742073756363656564a2646970667358221220d83beb38e27c8ad1a521d1c0f6d2fc730378852be36a39df635af6d3f7cfcbbc64736f6c634300070600334f776e61626c653a206e6577206f776e657220697320746865207a65726f20616464726573734f776e61626c653a2063616c6c6572206973206e6f7420746865206f776e65728be0079c531659141344cd1fd0a4f28419497f9722a3daafe3b4186f6b6457e0",
  "devdoc": {
    "kind": "dev",
    "methods": {
      "owner()": {
        "details": "Returns the address of the current owner."
      },
      "paused()": {
        "details": "Returns true if the contract is paused, and false otherwise."
      },
      "renounceOwnership()": {
        "details": "Leaves the contract without owner. It will not be possible to call `onlyOwner` functions anymore. Can only be called by the current owner. NOTE: Renouncing ownership will leave the contract without an owner, thereby removing any functionality that is only available to the owner."
      },
      "transferOwnership(address)": {
        "details": "Transfers ownership of the contract to a new account (`newOwner`). Can only be called by the current owner."
      }
    },
    "version": 1
  },
  "userdoc": {
    "kind": "user",
    "methods": {},
    "version": 1
  },
  "storageLayout": {
    "storage": [
      {
        "astId": 912,
        "contract": "contracts/exchanges/ETHmxMinter.sol:ETHmxMinter",
        "label": "_owner",
        "offset": 0,
        "slot": "0",
        "type": "t_address"
      },
      {
        "astId": 2953,
        "contract": "contracts/exchanges/ETHmxMinter.sol:ETHmxMinter",
        "label": "_paused",
        "offset": 20,
        "slot": "0",
        "type": "t_bool"
      },
      {
        "astId": 3404,
        "contract": "contracts/exchanges/ETHmxMinter.sol:ETHmxMinter",
        "label": "_ethtx",
        "offset": 0,
        "slot": "1",
        "type": "t_address"
      },
      {
        "astId": 3406,
        "contract": "contracts/exchanges/ETHmxMinter.sol:ETHmxMinter",
        "label": "_ethtxAMM",
        "offset": 0,
        "slot": "2",
        "type": "t_address"
      },
      {
        "astId": 3408,
        "contract": "contracts/exchanges/ETHmxMinter.sol:ETHmxMinter",
        "label": "_mintGasPrice",
        "offset": 0,
        "slot": "3",
        "type": "t_uint256"
      },
      {
        "astId": 3410,
        "contract": "contracts/exchanges/ETHmxMinter.sol:ETHmxMinter",
        "label": "_totalGiven",
        "offset": 0,
        "slot": "4",
        "type": "t_uint256"
      },
      {
        "astId": 3412,
        "contract": "contracts/exchanges/ETHmxMinter.sol:ETHmxMinter",
        "label": "_roiNum",
        "offset": 0,
        "slot": "5",
        "type": "t_uint128"
      },
      {
        "astId": 3414,
        "contract": "contracts/exchanges/ETHmxMinter.sol:ETHmxMinter",
        "label": "_roiDen",
        "offset": 16,
        "slot": "5",
        "type": "t_uint128"
      }
    ],
    "types": {
      "t_address": {
        "encoding": "inplace",
        "label": "address",
        "numberOfBytes": "20"
      },
      "t_bool": {
        "encoding": "inplace",
        "label": "bool",
        "numberOfBytes": "1"
      },
      "t_uint128": {
        "encoding": "inplace",
        "label": "uint128",
        "numberOfBytes": "16"
      },
      "t_uint256": {
        "encoding": "inplace",
        "label": "uint256",
        "numberOfBytes": "32"
      }
    }
  }
}