{
  "address": "0xEEc0cEA93b6FbAb163099942EE9650d4fe28b886",
  "abi": [
    {
      "inputs": [
        {
          "internalType": "address",
          "name": "owner_",
          "type": "address"
        },
        {
          "internalType": "address",
          "name": "ethmxAddr_",
          "type": "address"
        },
        {
          "internalType": "address",
          "name": "wethAddr_",
          "type": "address"
        },
        {
          "internalType": "uint256",
          "name": "accrualUpdateInterval_",
          "type": "uint256"
        }
      ],
      "stateMutability": "nonpayable",
      "type": "constructor"
    },
    {
      "anonymous": false,
      "inputs": [
        {
          "indexed": true,
          "internalType": "address",
          "name": "author",
          "type": "address"
        },
        {
          "indexed": false,
          "internalType": "uint256",
          "name": "interval",
          "type": "uint256"
        }
      ],
      "name": "AccrualUpdateIntervalSet",
      "type": "event"
    },
    {
      "anonymous": false,
      "inputs": [
        {
          "indexed": true,
          "internalType": "address",
          "name": "author",
          "type": "address"
        },
        {
          "indexed": false,
          "internalType": "uint256",
          "name": "accruedRewards",
          "type": "uint256"
        }
      ],
      "name": "AccrualUpdated",
      "type": "event"
    },
    {
      "anonymous": false,
      "inputs": [
        {
          "indexed": true,
          "internalType": "address",
          "name": "previousOwner",
          "type": "address"
        },
        {
          "indexed": true,
          "internalType": "address",
          "name": "newOwner",
          "type": "address"
        }
      ],
      "name": "OwnershipTransferred",
      "type": "event"
    },
    {
      "anonymous": false,
      "inputs": [
        {
          "indexed": false,
          "internalType": "address",
          "name": "account",
          "type": "address"
        }
      ],
      "name": "Paused",
      "type": "event"
    },
    {
      "anonymous": false,
      "inputs": [
        {
          "indexed": true,
          "internalType": "address",
          "name": "author",
          "type": "address"
        },
        {
          "indexed": true,
          "internalType": "address",
          "name": "to",
          "type": "address"
        },
        {
          "indexed": false,
          "internalType": "uint256",
          "name": "amount",
          "type": "uint256"
        }
      ],
      "name": "RecoveredUnredeemableRewards",
      "type": "event"
    },
    {
      "anonymous": false,
      "inputs": [
        {
          "indexed": true,
          "internalType": "address",
          "name": "author",
          "type": "address"
        },
        {
          "indexed": true,
          "internalType": "address",
          "name": "to",
          "type": "address"
        },
        {
          "indexed": false,
          "internalType": "uint256",
          "name": "amount",
          "type": "uint256"
        }
      ],
      "name": "RecoveredUnstaked",
      "type": "event"
    },
    {
      "anonymous": false,
      "inputs": [
        {
          "indexed": true,
          "internalType": "address",
          "name": "author",
          "type": "address"
        },
        {
          "indexed": true,
          "internalType": "address",
          "name": "token",
          "type": "address"
        },
        {
          "indexed": true,
          "internalType": "address",
          "name": "to",
          "type": "address"
        },
        {
          "indexed": false,
          "internalType": "uint256",
          "name": "amount",
          "type": "uint256"
        }
      ],
      "name": "RecoveredUnsupported",
      "type": "event"
    },
    {
      "anonymous": false,
      "inputs": [
        {
          "indexed": true,
          "internalType": "address",
          "name": "to",
          "type": "address"
        },
        {
          "indexed": false,
          "internalType": "uint256",
          "name": "amount",
          "type": "uint256"
        }
      ],
      "name": "RewardPaid",
      "type": "event"
    },
    {
      "anonymous": false,
      "inputs": [
        {
          "indexed": true,
          "internalType": "address",
          "name": "account",
          "type": "address"
        },
        {
          "indexed": false,
          "internalType": "uint256",
          "name": "amount",
          "type": "uint256"
        }
      ],
      "name": "Staked",
      "type": "event"
    },
    {
      "anonymous": false,
      "inputs": [
        {
          "indexed": false,
          "internalType": "address",
          "name": "account",
          "type": "address"
        }
      ],
      "name": "Unpaused",
      "type": "event"
    },
    {
      "anonymous": false,
      "inputs": [
        {
          "indexed": true,
          "internalType": "address",
          "name": "account",
          "type": "address"
        },
        {
          "indexed": false,
          "internalType": "uint256",
          "name": "amount",
          "type": "uint256"
        }
      ],
      "name": "Unstaked",
      "type": "event"
    },
    {
      "inputs": [],
      "name": "accrualUpdateInterval",
      "outputs": [
        {
          "internalType": "uint256",
          "name": "",
          "type": "uint256"
        }
      ],
      "stateMutability": "view",
      "type": "function"
    },
    {
      "inputs": [],
      "name": "accruedRewardsPerToken",
      "outputs": [
        {
          "internalType": "uint256",
          "name": "",
          "type": "uint256"
        }
      ],
      "stateMutability": "view",
      "type": "function"
    },
    {
      "inputs": [
        {
          "internalType": "address",
          "name": "account",
          "type": "address"
        }
      ],
      "name": "accruedRewardsPerTokenLast",
      "outputs": [
        {
          "internalType": "uint256",
          "name": "",
          "type": "uint256"
        }
      ],
      "stateMutability": "view",
      "type": "function"
    },
    {
      "inputs": [],
      "name": "ethmxAddr",
      "outputs": [
        {
          "internalType": "address",
          "name": "",
          "type": "address"
        }
      ],
      "stateMutability": "view",
      "type": "function"
    },
    {
      "inputs": [],
      "name": "exit",
      "outputs": [],
      "stateMutability": "nonpayable",
      "type": "function"
    },
    {
      "inputs": [],
      "name": "lastAccrualUpdate",
      "outputs": [
        {
          "internalType": "uint256",
          "name": "",
          "type": "uint256"
        }
      ],
      "stateMutability": "view",
      "type": "function"
    },
    {
      "inputs": [
        {
          "internalType": "address",
          "name": "account",
          "type": "address"
        }
      ],
      "name": "lastRewardsBalanceOf",
      "outputs": [
        {
          "internalType": "uint256",
          "name": "",
          "type": "uint256"
        }
      ],
      "stateMutability": "view",
      "type": "function"
    },
    {
      "inputs": [],
      "name": "lastTotalRewardsAccrued",
      "outputs": [
        {
          "internalType": "uint256",
          "name": "",
          "type": "uint256"
        }
      ],
      "stateMutability": "view",
      "type": "function"
    },
    {
      "inputs": [],
      "name": "owner",
      "outputs": [
        {
          "internalType": "address",
          "name": "",
          "type": "address"
        }
      ],
      "stateMutability": "view",
      "type": "function"
    },
    {
      "inputs": [],
      "name": "pause",
      "outputs": [],
      "stateMutability": "nonpayable",
      "type": "function"
    },
    {
      "inputs": [],
      "name": "paused",
      "outputs": [
        {
          "internalType": "bool",
          "name": "",
          "type": "bool"
        }
      ],
      "stateMutability": "view",
      "type": "function"
    },
    {
      "inputs": [],
      "name": "readyForUpdate",
      "outputs": [
        {
          "internalType": "bool",
          "name": "",
          "type": "bool"
        }
      ],
      "stateMutability": "view",
      "type": "function"
    },
    {
      "inputs": [
        {
          "internalType": "address",
          "name": "to",
          "type": "address"
        },
        {
          "internalType": "uint256",
          "name": "amount",
          "type": "uint256"
        }
      ],
      "name": "recoverUnredeemableRewards",
      "outputs": [],
      "stateMutability": "nonpayable",
      "type": "function"
    },
    {
      "inputs": [
        {
          "internalType": "address",
          "name": "to",
          "type": "address"
        },
        {
          "internalType": "uint256",
          "name": "amount",
          "type": "uint256"
        }
      ],
      "name": "recoverUnstaked",
      "outputs": [],
      "stateMutability": "nonpayable",
      "type": "function"
    },
    {
      "inputs": [
        {
          "internalType": "address",
          "name": "token",
          "type": "address"
        },
        {
          "internalType": "address",
          "name": "to",
          "type": "address"
        },
        {
          "internalType": "uint256",
          "name": "amount",
          "type": "uint256"
        }
      ],
      "name": "recoverUnsupportedERC20",
      "outputs": [],
      "stateMutability": "nonpayable",
      "type": "function"
    },
    {
      "inputs": [],
      "name": "redeemAllRewards",
      "outputs": [],
      "stateMutability": "nonpayable",
      "type": "function"
    },
    {
      "inputs": [
        {
          "internalType": "uint256",
          "name": "amount",
          "type": "uint256"
        }
      ],
      "name": "redeemReward",
      "outputs": [],
      "stateMutability": "nonpayable",
      "type": "function"
    },
    {
      "inputs": [],
      "name": "renounceOwnership",
      "outputs": [],
      "stateMutability": "nonpayable",
      "type": "function"
    },
    {
      "inputs": [
        {
          "internalType": "address",
          "name": "account",
          "type": "address"
        }
      ],
      "name": "rewardsBalanceOf",
      "outputs": [
        {
          "internalType": "uint256",
          "name": "",
          "type": "uint256"
        }
      ],
      "stateMutability": "view",
      "type": "function"
    },
    {
      "inputs": [
        {
          "internalType": "uint256",
          "name": "interval",
          "type": "uint256"
        }
      ],
      "name": "setAccrualUpdateInterval",
      "outputs": [],
      "stateMutability": "nonpayable",
      "type": "function"
    },
    {
      "inputs": [
        {
          "internalType": "uint256",
          "name": "amount",
          "type": "uint256"
        }
      ],
      "name": "stake",
      "outputs": [],
      "stateMutability": "nonpayable",
      "type": "function"
    },
    {
      "inputs": [
        {
          "internalType": "address",
          "name": "account",
          "type": "address"
        }
      ],
      "name": "stakedBalanceOf",
      "outputs": [
        {
          "internalType": "uint256",
          "name": "",
          "type": "uint256"
        }
      ],
      "stateMutability": "view",
      "type": "function"
    },
    {
      "inputs": [],
      "name": "totalRewardsAccrued",
      "outputs": [
        {
          "internalType": "uint256",
          "name": "",
          "type": "uint256"
        }
      ],
      "stateMutability": "view",
      "type": "function"
    },
    {
      "inputs": [],
      "name": "totalRewardsRedeemed",
      "outputs": [
        {
          "internalType": "uint256",
          "name": "",
          "type": "uint256"
        }
      ],
      "stateMutability": "view",
      "type": "function"
    },
    {
      "inputs": [],
      "name": "totalStaked",
      "outputs": [
        {
          "internalType": "uint256",
          "name": "",
          "type": "uint256"
        }
      ],
      "stateMutability": "view",
      "type": "function"
    },
    {
      "inputs": [
        {
          "internalType": "address",
          "name": "newOwner",
          "type": "address"
        }
      ],
      "name": "transferOwnership",
      "outputs": [],
      "stateMutability": "nonpayable",
      "type": "function"
    },
    {
      "inputs": [],
      "name": "unpause",
      "outputs": [],
      "stateMutability": "nonpayable",
      "type": "function"
    },
    {
      "inputs": [],
      "name": "unredeemableRewards",
      "outputs": [
        {
          "internalType": "uint256",
          "name": "",
          "type": "uint256"
        }
      ],
      "stateMutability": "view",
      "type": "function"
    },
    {
      "inputs": [
        {
          "internalType": "uint256",
          "name": "amount",
          "type": "uint256"
        }
      ],
      "name": "unstake",
      "outputs": [],
      "stateMutability": "nonpayable",
      "type": "function"
    },
    {
      "inputs": [],
      "name": "unstakeAll",
      "outputs": [],
      "stateMutability": "nonpayable",
      "type": "function"
    },
    {
      "inputs": [],
      "name": "updateAccrual",
      "outputs": [],
      "stateMutability": "nonpayable",
      "type": "function"
    },
    {
      "inputs": [],
      "name": "updateReward",
      "outputs": [],
      "stateMutability": "nonpayable",
      "type": "function"
    },
    {
      "inputs": [],
      "name": "wethAddr",
      "outputs": [
        {
          "internalType": "address",
          "name": "",
          "type": "address"
        }
      ],
      "stateMutability": "view",
      "type": "function"
    }
  ],
  "transactionHash": "0x2f53c2f11c505df33fb5720e6c1705f0357d15987feeafc307ab0e87814b0a11",
  "args": [
    "0x5757Dd711EaE80e181E07CdbCe43359Ac1048394",
    "0xB63258927FDa968B19907AA92E43e88D96ef3290",
    "0x706f8Bf6ff5352F61F3e6D554232BeD01d679938",
    86400
  ],
  "solcInputHash": "d866fd3a9c665c3159ffcb94310e6171",
  "bytecode": "0x60c06040523480156200001157600080fd5b50604051620025d3380380620025d3833981810160405260808110156200003757600080fd5b508051602082015160408301516060909301519192909160006200005a6200012c565b600080546001600160a01b0319166001600160a01b038316908117825560405192935091600080516020620025b3833981519152908290a3506000805460ff60a01b191681556001600160601b0319606085811b821660805284901b1660a0526001805480820182559082527fb10e2d527612073b26eecdfd717e6a320cf44b4afac2b0732d9fcbe2b7fa0cf60155620000f48162000130565b620000fe620001dd565b6001600160a01b0316846001600160a01b03161462000122576200012284620001ec565b50505050620002d9565b3390565b6200013a6200012c565b6000546001600160a01b039081169116146200018c576040805162461bcd60e51b8152602060048201819052602482015260008051602062002593833981519152604482015290519081900360640190fd5b60048190556200019b6200012c565b6001600160a01b03167e4b735c73896be679585edaa8f0c947a38d34100bb0088d0b41c28953a2df50826040518082815260200191505060405180910390a250565b6000546001600160a01b031690565b620001f66200012c565b6000546001600160a01b0390811691161462000248576040805162461bcd60e51b8152602060048201819052602482015260008051602062002593833981519152604482015290519081900360640190fd5b6001600160a01b0381166200028f5760405162461bcd60e51b81526004018080602001828103825260268152602001806200256d6026913960400191505060405180910390fd5b600080546040516001600160a01b0380851693921691600080516020620025b383398151915291a3600080546001600160a01b0319166001600160a01b0392909216919091179055565b60805160601c60a05160601c6122386200033560003980610a555280610bc85280610d50528061198f5280611add525080610cdf5280610f5b5280610fc85280611072528061115d52806115b15280611ca652506122386000f3fe608060405234801561001057600080fd5b50600436106101fb5760003560e01c80638456cb591161011a578063be4c86f2116100ad578063e1b52ffa1161007c578063e1b52ffa14610448578063e7a203691461046e578063e9fad8ee14610476578063f2fde38b1461047e578063f36c0a72146104a4576101fb565b8063be4c86f2146103e6578063bfb0efab14610412578063c42ac2261461041a578063d8aa0aa514610440576101fb565b806395a1297a116100e957806395a1297a146103b1578063a694fc3a146103b9578063ad3133bb146103d6578063bd2e9c4e146103de576101fb565b80638456cb5914610363578063860c19f31461036b57806386a86d41146103735780638da5cb5b146103a9576101fb565b80635530429b116101925780637d5aa5f4116101615780637d5aa5f4146103275780637f86ce301461034b578063817b1cd214610353578063832d40f21461035b576101fb565b80635530429b146102cf5780635c975abb146102fb578063715018a61461031757806375f22f3a1461031f576101fb565b806335322f37116101ce57806335322f371461029a5780633ad66127146102a25780633f4ba83a146102aa57806351a71b17146102b2576101fb565b80631482436614610200578063167653911461021f5780632e17de781461025757806333dc41c714610274575b600080fd5b61021d6004803603602081101561021657600080fd5b50356104ac565b005b6102456004803603602081101561023557600080fd5b50356001600160a01b0316610553565b60408051918252519081900360200190f35b61021d6004803603602081101561026d57600080fd5b5035610572565b6102456004803603602081101561028a57600080fd5b50356001600160a01b031661064f565b61021d6107f6565b61021d610832565b61021d6108a6565b61021d600480360360208110156102c857600080fd5b5035610908565b61021d600480360360408110156102e557600080fd5b506001600160a01b038135169060200135610982565b610303610ada565b604080519115158252519081900360200190f35b61021d610aeb565b61021d610b8d565b61032f610bc6565b604080516001600160a01b039092168252519081900360200190f35b610245610bea565b610245610c06565b610245610c0c565b61021d610c12565b610245610c72565b61021d6004803603606081101561038957600080fd5b506001600160a01b03813581169160208101359091169060400135610c85565b61032f610e34565b610245610e43565b61021d600480360360208110156103cf57600080fd5b5035610e49565b61032f610fc6565b610245610fea565b61021d600480360360408110156103fc57600080fd5b506001600160a01b038135169060200135611010565b6103036111db565b6102456004803603602081101561043057600080fd5b50356001600160a01b0316611200565b61024561123a565b6102456004803603602081101561045e57600080fd5b50356001600160a01b0316611240565b61024561125b565b61021d611261565b61021d6004803603602081101561049457600080fd5b50356001600160a01b0316611275565b61021d61136d565b6104b461137d565b6000546001600160a01b03908116911614610504576040805162461bcd60e51b815260206004820181905260248201526000805160206120dc833981519152604482015290519081900360640190fd5b600481905561051161137d565b6001600160a01b03167e4b735c73896be679585edaa8f0c947a38d34100bb0088d0b41c28953a2df50826040518082815260200191505060405180910390a250565b6001600160a01b0381166000908152600860205260409020545b919050565b806105ae5760405162461bcd60e51b81526004018080602001828103825260218152602001806121856021913960400191505060405180910390fd5b60006105b861137d565b6001600160a01b0381166000908152600860205260409020549091508211156106125760405162461bcd60e51b8152600401808060200182810382526035815260200180611ff16035913960400191505060405180910390fd5b61061b81611381565b6001600160a01b03811660009081526008602052604090205480831115610640578092505b61064a828461156b565b505050565b6001600160a01b0381166000908152600560209081526040808320546008909252822054806106805750905061056d565b600060018054806020026020016040519081016040528092919081815260200182805480156106ce57602002820191906000526020600020905b8154815260200190600101908083116106ba575b50508351939450600092508491505060001983018381106106eb57fe5b60200260200101519050600060026000896001600160a01b03166001600160a01b03168152602001908152602001600020549050600084828151811061072d57fe5b6020026020010151830390508060001415610751578697505050505050505061056d565b6000600183015b858110156107e75786600182038151811061076f57fe5b602002602001015187828151811061078357fe5b60200260200101510392506ec097ce7bc90715b34b9f100000000083106107b2578789019850600097506107e7565b6ec097ce7bc90715b34b9f10000000006107cc898561161b565b816107d357fe5b049889019897889003979150600101610758565b50969998505050505050505050565b600061080061137d565b905061080b81611381565b6001600160a01b03811660009081526008602052604090205461082f90829061156b565b50565b600061085b6003546040518060600160405280603581526020016120fc6035913942919061167d565b905060045481101561089e5760405162461bcd60e51b81526004018080602001828103825260288152602001806120936028913960400191505060405180910390fd5b61082f611719565b6108ae61137d565b6000546001600160a01b039081169116146108fe576040805162461bcd60e51b815260206004820181905260248201526000805160206120dc833981519152604482015290519081900360640190fd5b6109066118b9565b565b600061091261137d565b905061091d81611381565b6001600160a01b0381166000908152600560205260409020548211156109745760405162461bcd60e51b81526004018080602001828103825260348152602001806121316034913960400191505060405180910390fd5b61097e8183611961565b5050565b61098a61137d565b6000546001600160a01b039081169116146109da576040805162461bcd60e51b815260206004820181905260248201526000805160206120dc833981519152604482015290519081900360640190fd5b60008052600560205260008051602061216583398151915254811115610a315760405162461bcd60e51b8152600401808060200182810382526037815260200180611fba6037913960400191505060405180910390fd5b60008052600560205260008051602061216583398151915280548290039055610a847f00000000000000000000000000000000000000000000000000000000000000006001600160a01b031683836119f9565b816001600160a01b0316610a9661137d565b6001600160a01b03167fe4cedce8a9da6a4cd7794b1b6bbba077e9cb7bba00eeb3b7152926cd378f023c836040518082815260200191505060405180910390a35050565b600054600160a01b900460ff165b90565b610af361137d565b6000546001600160a01b03908116911614610b43576040805162461bcd60e51b815260206004820181905260248201526000805160206120dc833981519152604482015290519081900360640190fd5b600080546040516001600160a01b03909116907f8be0079c531659141344cd1fd0a4f28419497f9722a3daafe3b4186f6b6457e0908390a3600080546001600160a01b0319169055565b6000610b9761137d565b9050610ba281611381565b6001600160a01b03811660009081526005602052604090205461082f908290611961565b7f000000000000000000000000000000000000000000000000000000000000000081565b6000805260056020526000805160206121658339815191525490565b60095490565b60045490565b610c1a61137d565b6000546001600160a01b03908116911614610c6a576040805162461bcd60e51b815260206004820181905260248201526000805160206120dc833981519152604482015290519081900360640190fd5b610906611a4b565b6000600754610c7f611ad9565b01905090565b610c8d61137d565b6000546001600160a01b03908116911614610cdd576040805162461bcd60e51b815260206004820181905260248201526000805160206120dc833981519152604482015290519081900360640190fd5b7f00000000000000000000000000000000000000000000000000000000000000006001600160a01b0316836001600160a01b03161415610d4e5760405162461bcd60e51b8152600401808060200182810382526022815260200180611f986022913960400191505060405180910390fd5b7f00000000000000000000000000000000000000000000000000000000000000006001600160a01b0316836001600160a01b03161415610dbf5760405162461bcd60e51b81526004018080602001828103825260218152602001806120726021913960400191505060405180910390fd5b610dd36001600160a01b03841683836119f9565b816001600160a01b0316836001600160a01b0316610def61137d565b6001600160a01b03167feaf4cea276efdcae93a52ca2f4bfdd952992169289bf655b1870a4b20bdae7d6846040518082815260200191505060405180910390a4505050565b6000546001600160a01b031690565b60075490565b600054600160a01b900460ff1615610e9b576040805162461bcd60e51b815260206004820152601060248201526f14185d5cd8589b194e881c185d5cd95960821b604482015290519081900360640190fd5b80610eed576040805162461bcd60e51b815260206004820152601f60248201527f4554486d78526577617264733a2063616e6e6f74207374616b65207a65726f00604482015290519081900360640190fd5b6000610ef761137d565b9050610f0281611381565b6001600160a01b038116600090815260086020526040902054610f259083611b79565b6001600160a01b038216600090815260086020526040902055600954610f4b9083611b79565b600955610f836001600160a01b037f000000000000000000000000000000000000000000000000000000000000000016823085611bd3565b6040805183815290516001600160a01b038316917f9e71bc8eea02a63969f509818f2dafb9254532904319f9dbda79b67bd34a5f3d919081900360200190a25050565b7f000000000000000000000000000000000000000000000000000000000000000081565b6001805460009190600019810190811061100057fe5b9060005260206000200154905090565b61101861137d565b6000546001600160a01b03908116911614611068576040805162461bcd60e51b815260206004820181905260248201526000805160206120dc833981519152604482015290519081900360640190fd5b600061110f6009547f00000000000000000000000000000000000000000000000000000000000000006001600160a01b03166370a08231306040518263ffffffff1660e01b815260040180826001600160a01b0316815260200191505060206040518083038186803b1580156110dd57600080fd5b505afa1580156110f1573d6000803e3d6000fd5b505050506040513d602081101561110757600080fd5b505190611c33565b9050808211156111505760405162461bcd60e51b81526004018080602001828103825260338152602001806121a66033913960400191505060405180910390fd5b6111846001600160a01b037f00000000000000000000000000000000000000000000000000000000000000001684846119f9565b826001600160a01b031661119661137d565b6001600160a01b03167f53061b1554d64699da405094f2b9eb0b116d63ed32e1371be0e49988b1ae4ef8846040518082815260200191505060405180910390a3505050565b60004260035411156111ef57506000610ae8565b506003546004544291909103101590565b6001600160a01b03811660009081526002602052604081205460018054909190811061122857fe5b90600052602060002001549050919050565b60035490565b6001600160a01b031660009081526005602052604090205490565b60065490565b600061126b61137d565b9050610ba26107f6565b61127d61137d565b6000546001600160a01b039081169116146112cd576040805162461bcd60e51b815260206004820181905260248201526000805160206120dc833981519152604482015290519081900360640190fd5b6001600160a01b0381166113125760405162461bcd60e51b81526004018080602001828103825260268152602001806120266026913960400191505060405180910390fd5b600080546040516001600160a01b03808516939216917f8be0079c531659141344cd1fd0a4f28419497f9722a3daafe3b4186f6b6457e091a3600080546001600160a01b0319166001600160a01b0392909216919091179055565b61090661137861137d565b611381565b3390565b600060018054806020026020016040519081016040528092919081815260200182805480156113cf57602002820191906000526020600020905b8154815260200190600101908083116113bb575b50508351939450600092508491505060001983018381106113ec57fe5b60200260200101519050600060026000866001600160a01b03166001600160a01b03168152602001908152602001600020549050600084828151811061142e57fe5b6020908102919091018101516001600160a01b038816600090815260088352604080822054600290945290206000198701905584039150801580611470575081155b156114805750505050505061082f565b600080600185015b878110156115165788600182038151811061149f57fe5b60200260200101518982815181106114b357fe5b60200260200101510394506ec097ce7bc90715b34b9f100000000085106114e1576000939190910190611516565b6ec097ce7bc90715b34b9f10000000006114fb858761161b565b8161150257fe5b049384900393925090820190600101611488565b506001600160a01b038916600090815260086020908152604080832086905560059091529020546115479082611b79565b6001600160a01b038a16600090815260056020526040902055505050505050505050565b806115755761097e565b6001600160a01b0382166000908152600860205260409020805482900390556009546115a19082611c33565b6009556115d86001600160a01b037f00000000000000000000000000000000000000000000000000000000000000001683836119f9565b6040805182815290516001600160a01b038416917f0f5bb82176feb1b5e747e28471aa92156a04d9f3ab9f45f28e2d704232b93f75919081900360200190a25050565b60008261162a57506000611677565b8282028284828161163757fe5b04146116745760405162461bcd60e51b81526004018080602001828103825260218152602001806120bb6021913960400191505060405180910390fd5b90505b92915050565b6000818484111561170c5760405162461bcd60e51b81526004018080602001828103825283818151815260200191508051906020019080838360005b838110156116d15781810151838201526020016116b9565b50505050905090810190601f1680156116fe5780820380516001836020036101000a031916815260200191505b509250505060405180910390fd5b50508183035b9392505050565b6000611723610c72565b600654909150810380611737575050610906565b600954808210156117bb57600061174c610fea565b905081611768846ec097ce7bc90715b34b9f100000000061161b565b8161176f57fe5b600180548082018255600091909152919004919091017fb10e2d527612073b26eecdfd717e6a320cf44b4afac2b0732d9fcbe2b7fa0cf69091018190556117b583611c75565b50611863565b60008052600560205260008051602061216583398151915254818303906117e29082611b79565b60008052600560205260008051602061216583398151915255811561186157600061180b610fea565b6001805480820182556000919091526ec097ce7bc90715b34b9f10000000009091017fb10e2d527612073b26eecdfd717e6a320cf44b4afac2b0732d9fcbe2b7fa0cf6909101819055905061185f83611c75565b505b505b60068390554260035561187461137d565b6001600160a01b03167fcc40b32ccae09bbf703954e57f794bd4be4f1aa1098eba7871af6c47ad89ae77846040518082815260200191505060405180910390a2505050565b600054600160a01b900460ff1661190e576040805162461bcd60e51b815260206004820152601460248201527314185d5cd8589b194e881b9bdd081c185d5cd95960621b604482015290519081900360640190fd5b6000805460ff60a01b191690557f5db9ee0a495bf2e6ff9c91a7834c1ba4fdd244a5e8aa4e537bd38aeae4b073aa61194461137d565b604080516001600160a01b039092168252519081900360200190a1565b6001600160a01b0380831660009081526005602052604090208054839003905560078054830190556119b6907f00000000000000000000000000000000000000000000000000000000000000001683836119f9565b6040805182815290516001600160a01b038416917fe2403640ba68fed3a2f88b7557551d1993f84b99bb10ff833f0cf8db0c5e0486919081900360200190a25050565b604080516001600160a01b038416602482015260448082018490528251808303909101815260649091019091526020810180516001600160e01b031663a9059cbb60e01b17905261064a908490611d08565b600054600160a01b900460ff1615611a9d576040805162461bcd60e51b815260206004820152601060248201526f14185d5cd8589b194e881c185d5cd95960821b604482015290519081900360640190fd5b6000805460ff60a01b1916600160a01b1790557f62e78cea01bee320cd4e420270b5ea74000d11b0c9f74754ebdbfc544b05a25861194461137d565b60007f00000000000000000000000000000000000000000000000000000000000000006001600160a01b03166370a08231306040518263ffffffff1660e01b815260040180826001600160a01b0316815260200191505060206040518083038186803b158015611b4857600080fd5b505afa158015611b5c573d6000803e3d6000fd5b505050506040513d6020811015611b7257600080fd5b5051905090565b600082820183811015611674576040805162461bcd60e51b815260206004820152601b60248201527f536166654d6174683a206164646974696f6e206f766572666c6f770000000000604482015290519081900360640190fd5b604080516001600160a01b0380861660248301528416604482015260648082018490528251808303909101815260849091019091526020810180516001600160e01b03166323b872dd60e01b179052611c2d908590611d08565b50505050565b600061167483836040518060400160405280601e81526020017f536166654d6174683a207375627472616374696f6e206f766572666c6f77000081525061167d565b600954611c829082611c33565b60095560408051630852cd8d60e31b81526004810183905290516001600160a01b037f000000000000000000000000000000000000000000000000000000000000000016916342966c6891602480830192600092919082900301818387803b158015611ced57600080fd5b505af1158015611d01573d6000803e3d6000fd5b5050505050565b6000611d5d826040518060400160405280602081526020017f5361666545524332303a206c6f772d6c6576656c2063616c6c206661696c6564815250856001600160a01b0316611db99092919063ffffffff16565b80519091501561064a57808060200190516020811015611d7c57600080fd5b505161064a5760405162461bcd60e51b815260040180806020018281038252602a8152602001806121d9602a913960400191505060405180910390fd5b6060611dc88484600085611dd0565b949350505050565b606082471015611e115760405162461bcd60e51b815260040180806020018281038252602681526020018061204c6026913960400191505060405180910390fd5b611e1a85611f2b565b611e6b576040805162461bcd60e51b815260206004820152601d60248201527f416464726573733a2063616c6c20746f206e6f6e2d636f6e7472616374000000604482015290519081900360640190fd5b600080866001600160a01b031685876040518082805190602001908083835b60208310611ea95780518252601f199092019160209182019101611e8a565b6001836020036101000a03801982511681845116808217855250505050505090500191505060006040518083038185875af1925050503d8060008114611f0b576040519150601f19603f3d011682016040523d82523d6000602084013e611f10565b606091505b5091509150611f20828286611f31565b979650505050505050565b3b151590565b60608315611f40575081611712565b825115611f505782518084602001fd5b60405162461bcd60e51b81526020600482018181528451602484015284518593919283926044019190850190808383600083156116d15781810151838201526020016116b956fe4554486d78526577617264733a2063616e6e6f74207265636f766572204554486d784554486d78526577617264733a207265636f7665727920616d6f756e742067726561746572207468616e20756e72656465656d61626c654554486d78526577617264733a2063616e6e6f7420756e7374616b65206d6f7265207468616e207374616b65642062616c616e63654f776e61626c653a206e6577206f776e657220697320746865207a65726f2061646472657373416464726573733a20696e73756666696369656e742062616c616e636520666f722063616c6c4554486d78526577617264733a2063616e6e6f74207265636f76657220574554484554486d78526577617264733a20746f6f20736f6f6e20746f20757064617465206163637275616c536166654d6174683a206d756c7469706c69636174696f6e206f766572666c6f774f776e61626c653a2063616c6c6572206973206e6f7420746865206f776e65724554486d78526577617264733a20626c6f636b206973206f6c646572207468616e206c617374206163637275616c207570646174654554486d78526577617264733a2063616e6e6f742072656465656d206d6f72652072657761726473207468616e206561726e656405b8ccbb9d4d8fb16ea74ce3c29a41f1b461fbdaff4714a0d9a8eb05499746bc4554486d78526577617264733a2063616e6e6f7420756e7374616b65207a65726f4554486d78526577617264733a207265636f7665727920616d6f756e742067726561746572207468616e20756e7374616b65645361666545524332303a204552433230206f7065726174696f6e20646964206e6f742073756363656564a2646970667358221220a2731eab1c16b343fa9929ffde1738e68107109b068712368bab1719f48faeb264736f6c634300070600334f776e61626c653a206e6577206f776e657220697320746865207a65726f20616464726573734f776e61626c653a2063616c6c6572206973206e6f7420746865206f776e65728be0079c531659141344cd1fd0a4f28419497f9722a3daafe3b4186f6b6457e0",
  "devdoc": {
    "kind": "dev",
    "methods": {
      "owner()": {
        "details": "Returns the address of the current owner."
      },
      "paused()": {
        "details": "Returns true if the contract is paused, and false otherwise."
      },
      "renounceOwnership()": {
        "details": "Leaves the contract without owner. It will not be possible to call `onlyOwner` functions anymore. Can only be called by the current owner. NOTE: Renouncing ownership will leave the contract without an owner, thereby removing any functionality that is only available to the owner."
      },
      "transferOwnership(address)": {
        "details": "Transfers ownership of the contract to a new account (`newOwner`). Can only be called by the current owner."
      }
    },
    "version": 1
  },
  "userdoc": {
    "kind": "user",
    "methods": {},
    "version": 1
  },
  "storageLayout": {
    "storage": [
      {
        "astId": 912,
        "contract": "contracts/rewards/ETHmxRewards.sol:ETHmxRewards",
        "label": "_owner",
        "offset": 0,
        "slot": "0",
        "type": "t_address"
      },
      {
        "astId": 2953,
        "contract": "contracts/rewards/ETHmxRewards.sol:ETHmxRewards",
        "label": "_paused",
        "offset": 20,
        "slot": "0",
        "type": "t_bool"
      },
      {
        "astId": 6451,
        "contract": "contracts/rewards/ETHmxRewards.sol:ETHmxRewards",
        "label": "_arptSnapshots",
        "offset": 0,
        "slot": "1",
        "type": "t_array(t_uint256)dyn_storage"
      },
      {
        "astId": 6455,
        "contract": "contracts/rewards/ETHmxRewards.sol:ETHmxRewards",
        "label": "_arptLastIdx",
        "offset": 0,
        "slot": "2",
        "type": "t_mapping(t_address,t_uint256)"
      },
      {
        "astId": 6457,
        "contract": "contracts/rewards/ETHmxRewards.sol:ETHmxRewards",
        "label": "_lastAccrualUpdate",
        "offset": 0,
        "slot": "3",
        "type": "t_uint256"
      },
      {
        "astId": 6459,
        "contract": "contracts/rewards/ETHmxRewards.sol:ETHmxRewards",
        "label": "_accrualUpdateInterval",
        "offset": 0,
        "slot": "4",
        "type": "t_uint256"
      },
      {
        "astId": 6463,
        "contract": "contracts/rewards/ETHmxRewards.sol:ETHmxRewards",
        "label": "_rewardsFor",
        "offset": 0,
        "slot": "5",
        "type": "t_mapping(t_address,t_uint256)"
      },
      {
        "astId": 6465,
        "contract": "contracts/rewards/ETHmxRewards.sol:ETHmxRewards",
        "label": "_lastTotalRewardsAccrued",
        "offset": 0,
        "slot": "6",
        "type": "t_uint256"
      },
      {
        "astId": 6467,
        "contract": "contracts/rewards/ETHmxRewards.sol:ETHmxRewards",
        "label": "_totalRewardsRedeemed",
        "offset": 0,
        "slot": "7",
        "type": "t_uint256"
      },
      {
        "astId": 6471,
        "contract": "contracts/rewards/ETHmxRewards.sol:ETHmxRewards",
        "label": "_stakedFor",
        "offset": 0,
        "slot": "8",
        "type": "t_mapping(t_address,t_uint256)"
      },
      {
        "astId": 6473,
        "contract": "contracts/rewards/ETHmxRewards.sol:ETHmxRewards",
        "label": "_totalStaked",
        "offset": 0,
        "slot": "9",
        "type": "t_uint256"
      }
    ],
    "types": {
      "t_address": {
        "encoding": "inplace",
        "label": "address",
        "numberOfBytes": "20"
      },
      "t_array(t_uint256)dyn_storage": {
        "base": "t_uint256",
        "encoding": "dynamic_array",
        "label": "uint256[]",
        "numberOfBytes": "32"
      },
      "t_bool": {
        "encoding": "inplace",
        "label": "bool",
        "numberOfBytes": "1"
      },
      "t_mapping(t_address,t_uint256)": {
        "encoding": "mapping",
        "key": "t_address",
        "label": "mapping(address => uint256)",
        "numberOfBytes": "32",
        "value": "t_uint256"
      },
      "t_uint256": {
        "encoding": "inplace",
        "label": "uint256",
        "numberOfBytes": "32"
      }
    }
  }
}