{
  "address": "0x34509225372404bffe306DF5791998A21172E564",
  "abi": [
    {
      "inputs": [
        {
          "internalType": "address",
          "name": "owner_",
          "type": "address"
        }
      ],
      "stateMutability": "nonpayable",
      "type": "constructor"
    },
    {
      "anonymous": false,
      "inputs": [
        {
          "indexed": true,
          "internalType": "address",
          "name": "author",
          "type": "address"
        },
        {
          "indexed": false,
          "internalType": "uint256",
          "name": "value",
          "type": "uint256"
        }
      ],
      "name": "EarlyThresholdSet",
      "type": "event"
    },
    {
      "anonymous": false,
      "inputs": [
        {
          "indexed": true,
          "internalType": "address",
          "name": "author",
          "type": "address"
        },
        {
          "indexed": true,
          "internalType": "address",
          "name": "addr",
          "type": "address"
        }
      ],
      "name": "EthmxSet",
      "type": "event"
    },
    {
      "anonymous": false,
      "inputs": [
        {
          "indexed": true,
          "internalType": "address",
          "name": "author",
          "type": "address"
        },
        {
          "indexed": true,
          "internalType": "address",
          "name": "addr",
          "type": "address"
        }
      ],
      "name": "EthtxAMMSet",
      "type": "event"
    },
    {
      "anonymous": false,
      "inputs": [
        {
          "indexed": true,
          "internalType": "address",
          "name": "author",
          "type": "address"
        },
        {
          "indexed": true,
          "internalType": "address",
          "name": "addr",
          "type": "address"
        }
      ],
      "name": "EthtxSet",
      "type": "event"
    },
    {
      "anonymous": false,
      "inputs": [
        {
          "indexed": true,
          "internalType": "address",
          "name": "author",
          "type": "address"
        },
        {
          "indexed": true,
          "internalType": "address",
          "name": "account",
          "type": "address"
        }
      ],
      "name": "LpAdded",
      "type": "event"
    },
    {
      "anonymous": false,
      "inputs": [
        {
          "indexed": true,
          "internalType": "address",
          "name": "author",
          "type": "address"
        },
        {
          "indexed": true,
          "internalType": "address",
          "name": "account",
          "type": "address"
        }
      ],
      "name": "LpRecipientSet",
      "type": "event"
    },
    {
      "anonymous": false,
      "inputs": [
        {
          "indexed": true,
          "internalType": "address",
          "name": "author",
          "type": "address"
        },
        {
          "indexed": true,
          "internalType": "address",
          "name": "account",
          "type": "address"
        }
      ],
      "name": "LpRemoved",
      "type": "event"
    },
    {
      "anonymous": false,
      "inputs": [
        {
          "indexed": true,
          "internalType": "address",
          "name": "author",
          "type": "address"
        },
        {
          "indexed": false,
          "internalType": "uint128",
          "name": "numerator",
          "type": "uint128"
        },
        {
          "indexed": false,
          "internalType": "uint128",
          "name": "denominator",
          "type": "uint128"
        }
      ],
      "name": "LpShareSet",
      "type": "event"
    },
    {
      "anonymous": false,
      "inputs": [
        {
          "indexed": true,
          "internalType": "address",
          "name": "author",
          "type": "address"
        },
        {
          "indexed": false,
          "internalType": "uint256",
          "name": "value",
          "type": "uint256"
        }
      ],
      "name": "MintGasPriceSet",
      "type": "event"
    },
    {
      "anonymous": false,
      "inputs": [
        {
          "indexed": true,
          "internalType": "address",
          "name": "previousOwner",
          "type": "address"
        },
        {
          "indexed": true,
          "internalType": "address",
          "name": "newOwner",
          "type": "address"
        }
      ],
      "name": "OwnershipTransferred",
      "type": "event"
    },
    {
      "anonymous": false,
      "inputs": [
        {
          "indexed": false,
          "internalType": "address",
          "name": "account",
          "type": "address"
        }
      ],
      "name": "Paused",
      "type": "event"
    },
    {
      "anonymous": false,
      "inputs": [
        {
          "indexed": true,
          "internalType": "address",
          "name": "author",
          "type": "address"
        },
        {
          "indexed": true,
          "internalType": "address",
          "name": "token",
          "type": "address"
        },
        {
          "indexed": true,
          "internalType": "address",
          "name": "to",
          "type": "address"
        },
        {
          "indexed": false,
          "internalType": "uint256",
          "name": "amount",
          "type": "uint256"
        }
      ],
      "name": "Recovered",
      "type": "event"
    },
    {
      "anonymous": false,
      "inputs": [
        {
          "indexed": true,
          "internalType": "address",
          "name": "author",
          "type": "address"
        },
        {
          "indexed": false,
          "internalType": "uint128",
          "name": "numerator",
          "type": "uint128"
        },
        {
          "indexed": false,
          "internalType": "uint128",
          "name": "denominator",
          "type": "uint128"
        }
      ],
      "name": "RoiSet",
      "type": "event"
    },
    {
      "anonymous": false,
      "inputs": [
        {
          "indexed": false,
          "internalType": "address",
          "name": "account",
          "type": "address"
        }
      ],
      "name": "Unpaused",
      "type": "event"
    },
    {
      "anonymous": false,
      "inputs": [
        {
          "indexed": true,
          "internalType": "address",
          "name": "author",
          "type": "address"
        },
        {
          "indexed": true,
          "internalType": "address",
          "name": "addr",
          "type": "address"
        }
      ],
      "name": "WethSet",
      "type": "event"
    },
    {
      "inputs": [
        {
          "internalType": "address",
          "name": "pool",
          "type": "address"
        }
      ],
      "name": "addLp",
      "outputs": [],
      "stateMutability": "nonpayable",
      "type": "function"
    },
    {
      "inputs": [],
      "name": "earlyThreshold",
      "outputs": [
        {
          "internalType": "uint256",
          "name": "",
          "type": "uint256"
        }
      ],
      "stateMutability": "view",
      "type": "function"
    },
    {
      "inputs": [],
      "name": "ethmx",
      "outputs": [
        {
          "internalType": "address",
          "name": "",
          "type": "address"
        }
      ],
      "stateMutability": "view",
      "type": "function"
    },
    {
      "inputs": [
        {
          "internalType": "uint256",
          "name": "amountETHIn",
          "type": "uint256"
        }
      ],
      "name": "ethmxFromEth",
      "outputs": [
        {
          "internalType": "uint256",
          "name": "",
          "type": "uint256"
        }
      ],
      "stateMutability": "view",
      "type": "function"
    },
    {
      "inputs": [
        {
          "internalType": "uint256",
          "name": "amountETHtxIn",
          "type": "uint256"
        }
      ],
      "name": "ethmxFromEthtx",
      "outputs": [
        {
          "internalType": "uint256",
          "name": "",
          "type": "uint256"
        }
      ],
      "stateMutability": "view",
      "type": "function"
    },
    {
      "inputs": [],
      "name": "ethtx",
      "outputs": [
        {
          "internalType": "address",
          "name": "",
          "type": "address"
        }
      ],
      "stateMutability": "view",
      "type": "function"
    },
    {
      "inputs": [],
      "name": "ethtxAMM",
      "outputs": [
        {
          "internalType": "address",
          "name": "",
          "type": "address"
        }
      ],
      "stateMutability": "view",
      "type": "function"
    },
    {
      "inputs": [
        {
          "internalType": "uint256",
          "name": "amountETHIn",
          "type": "uint256"
        }
      ],
      "name": "ethtxFromEth",
      "outputs": [
        {
          "internalType": "uint256",
          "name": "",
          "type": "uint256"
        }
      ],
      "stateMutability": "view",
      "type": "function"
    },
    {
      "inputs": [
        {
          "internalType": "address",
          "name": "owner_",
          "type": "address"
        }
      ],
      "name": "init",
      "outputs": [],
      "stateMutability": "nonpayable",
      "type": "function"
    },
    {
      "inputs": [
        {
          "internalType": "uint256",
          "name": "index",
          "type": "uint256"
        }
      ],
      "name": "liquidityPoolsAt",
      "outputs": [
        {
          "internalType": "address",
          "name": "",
          "type": "address"
        }
      ],
      "stateMutability": "view",
      "type": "function"
    },
    {
      "inputs": [],
      "name": "lpRecipient",
      "outputs": [
        {
          "internalType": "address",
          "name": "",
          "type": "address"
        }
      ],
      "stateMutability": "view",
      "type": "function"
    },
    {
      "inputs": [],
      "name": "lpShare",
      "outputs": [
        {
          "internalType": "uint128",
          "name": "numerator",
          "type": "uint128"
        },
        {
          "internalType": "uint128",
          "name": "denominator",
          "type": "uint128"
        }
      ],
      "stateMutability": "view",
      "type": "function"
    },
    {
      "inputs": [],
      "name": "mint",
      "outputs": [],
      "stateMutability": "payable",
      "type": "function"
    },
    {
      "inputs": [],
      "name": "mintGasPrice",
      "outputs": [
        {
          "internalType": "uint256",
          "name": "",
          "type": "uint256"
        }
      ],
      "stateMutability": "view",
      "type": "function"
    },
    {
      "inputs": [
        {
          "internalType": "uint256",
          "name": "amount",
          "type": "uint256"
        }
      ],
      "name": "mintWithETHtx",
      "outputs": [],
      "stateMutability": "nonpayable",
      "type": "function"
    },
    {
      "inputs": [
        {
          "internalType": "uint256",
          "name": "amount",
          "type": "uint256"
        }
      ],
      "name": "mintWithWETH",
      "outputs": [],
      "stateMutability": "nonpayable",
      "type": "function"
    },
    {
      "inputs": [],
      "name": "numLiquidityPools",
      "outputs": [
        {
          "internalType": "uint256",
          "name": "",
          "type": "uint256"
        }
      ],
      "stateMutability": "view",
      "type": "function"
    },
    {
      "inputs": [],
      "name": "owner",
      "outputs": [
        {
          "internalType": "address",
          "name": "",
          "type": "address"
        }
      ],
      "stateMutability": "view",
      "type": "function"
    },
    {
      "inputs": [],
      "name": "pause",
      "outputs": [],
      "stateMutability": "nonpayable",
      "type": "function"
    },
    {
      "inputs": [],
      "name": "paused",
      "outputs": [
        {
          "internalType": "bool",
          "name": "",
          "type": "bool"
        }
      ],
      "stateMutability": "view",
      "type": "function"
    },
    {
      "inputs": [
        {
          "components": [
            {
              "internalType": "address",
              "name": "ethmx",
              "type": "address"
            },
            {
              "internalType": "address",
              "name": "ethtx",
              "type": "address"
            },
            {
              "internalType": "address",
              "name": "ethtxAMM",
              "type": "address"
            },
            {
              "internalType": "address",
              "name": "weth",
              "type": "address"
            },
            {
              "internalType": "uint256",
              "name": "mintGasPrice",
              "type": "uint256"
            },
            {
              "internalType": "uint128",
              "name": "roiNumerator",
              "type": "uint128"
            },
            {
              "internalType": "uint128",
              "name": "roiDenominator",
              "type": "uint128"
            },
            {
              "internalType": "uint256",
              "name": "earlyThreshold",
              "type": "uint256"
            },
            {
              "internalType": "uint128",
              "name": "lpShareNumerator",
              "type": "uint128"
            },
            {
              "internalType": "uint128",
              "name": "lpShareDenominator",
              "type": "uint128"
            },
            {
              "internalType": "address[]",
              "name": "lps",
              "type": "address[]"
            },
            {
              "internalType": "address",
              "name": "lpRecipient",
              "type": "address"
            }
          ],
          "internalType": "struct ETHmxMinter.ETHmxMinterArgs",
          "name": "_args",
          "type": "tuple"
        }
      ],
      "name": "postInit",
      "outputs": [],
      "stateMutability": "nonpayable",
      "type": "function"
    },
    {
      "inputs": [
        {
          "internalType": "address",
          "name": "token",
          "type": "address"
        },
        {
          "internalType": "address",
          "name": "to",
          "type": "address"
        },
        {
          "internalType": "uint256",
          "name": "amount",
          "type": "uint256"
        }
      ],
      "name": "recoverERC20",
      "outputs": [],
      "stateMutability": "nonpayable",
      "type": "function"
    },
    {
      "inputs": [
        {
          "internalType": "address",
          "name": "pool",
          "type": "address"
        }
      ],
      "name": "removeLp",
      "outputs": [],
      "stateMutability": "nonpayable",
      "type": "function"
    },
    {
      "inputs": [],
      "name": "renounceOwnership",
      "outputs": [],
      "stateMutability": "nonpayable",
      "type": "function"
    },
    {
      "inputs": [],
      "name": "roi",
      "outputs": [
        {
          "internalType": "uint128",
          "name": "",
          "type": "uint128"
        },
        {
          "internalType": "uint128",
          "name": "",
          "type": "uint128"
        }
      ],
      "stateMutability": "view",
      "type": "function"
    },
    {
      "inputs": [
        {
          "internalType": "uint256",
          "name": "value",
          "type": "uint256"
        }
      ],
      "name": "setEarlyThreshold",
      "outputs": [],
      "stateMutability": "nonpayable",
      "type": "function"
    },
    {
      "inputs": [
        {
          "internalType": "address",
          "name": "addr",
          "type": "address"
        }
      ],
      "name": "setEthmx",
      "outputs": [],
      "stateMutability": "nonpayable",
      "type": "function"
    },
    {
      "inputs": [
        {
          "internalType": "address",
          "name": "addr",
          "type": "address"
        }
      ],
      "name": "setEthtx",
      "outputs": [],
      "stateMutability": "nonpayable",
      "type": "function"
    },
    {
      "inputs": [
        {
          "internalType": "address",
          "name": "addr",
          "type": "address"
        }
      ],
      "name": "setEthtxAMM",
      "outputs": [],
      "stateMutability": "nonpayable",
      "type": "function"
    },
    {
      "inputs": [
        {
          "internalType": "address",
          "name": "account",
          "type": "address"
        }
      ],
      "name": "setLpRecipient",
      "outputs": [],
      "stateMutability": "nonpayable",
      "type": "function"
    },
    {
      "inputs": [
        {
          "internalType": "uint128",
          "name": "numerator",
          "type": "uint128"
        },
        {
          "internalType": "uint128",
          "name": "denominator",
          "type": "uint128"
        }
      ],
      "name": "setLpShare",
      "outputs": [],
      "stateMutability": "nonpayable",
      "type": "function"
    },
    {
      "inputs": [
        {
          "internalType": "uint256",
          "name": "value",
          "type": "uint256"
        }
      ],
      "name": "setMintGasPrice",
      "outputs": [],
      "stateMutability": "nonpayable",
      "type": "function"
    },
    {
      "inputs": [
        {
          "internalType": "uint128",
          "name": "numerator",
          "type": "uint128"
        },
        {
          "internalType": "uint128",
          "name": "denominator",
          "type": "uint128"
        }
      ],
      "name": "setRoi",
      "outputs": [],
      "stateMutability": "nonpayable",
      "type": "function"
    },
    {
      "inputs": [
        {
          "internalType": "address",
          "name": "addr",
          "type": "address"
        }
      ],
      "name": "setWeth",
      "outputs": [],
      "stateMutability": "nonpayable",
      "type": "function"
    },
    {
      "inputs": [],
      "name": "totalGiven",
      "outputs": [
        {
          "internalType": "uint256",
          "name": "",
          "type": "uint256"
        }
      ],
      "stateMutability": "view",
      "type": "function"
    },
    {
      "inputs": [
        {
          "internalType": "address",
          "name": "newOwner",
          "type": "address"
        }
      ],
      "name": "transferOwnership",
      "outputs": [],
      "stateMutability": "nonpayable",
      "type": "function"
    },
    {
      "inputs": [],
      "name": "unpause",
      "outputs": [],
      "stateMutability": "nonpayable",
      "type": "function"
    },
    {
      "inputs": [],
      "name": "weth",
      "outputs": [
        {
          "internalType": "address",
          "name": "",
          "type": "address"
        }
      ],
      "stateMutability": "view",
      "type": "function"
    }
  ],
  "transactionHash": "0x6a35a266b82fc5329bb7f5a48f32d57196cd8aff0beb032c1f77c0e2683e3f5b",
  "args": [
    "0x5757Dd711EaE80e181E07CdbCe43359Ac1048394"
  ],
  "solcInputHash": "dce8ce70f69a6af015380cad047f4734",
  "bytecode": "0x60806040523480156200001157600080fd5b50604051620036f7380380620036f7833981016040819052620000349162000384565b6200003f8162000046565b50620003b4565b600054610100900460ff16806200006257506200006262000110565b8062000071575060005460ff16155b620000ae5760405162461bcd60e51b815260040180806020018281038252602e815260200180620036c9602e913960400191505060405180910390fd5b600054610100900460ff16158015620000da576000805460ff1961ff0019909116610100171660011790555b620000e46200012e565b620000ef82620001d8565b620000f9620002cb565b80156200010c576000805461ff00191690555b5050565b600062000128306200037e60201b62001e091760201c565b15905090565b600054610100900460ff16806200014a57506200014a62000110565b8062000159575060005460ff16155b620001965760405162461bcd60e51b815260040180806020018281038252602e815260200180620036c9602e913960400191505060405180910390fd5b600054610100900460ff16158015620001c2576000805460ff1961ff0019909116610100171660011790555b8015620001d5576000805461ff00191690555b50565b600054610100900460ff1680620001f45750620001f462000110565b8062000203575060005460ff16155b620002405760405162461bcd60e51b815260040180806020018281038252602e815260200180620036c9602e913960400191505060405180910390fd5b600054610100900460ff161580156200026c576000805460ff1961ff0019909116610100171660011790555b603380546001600160a01b0319166001600160a01b0384169081179091556040516000907f8be0079c531659141344cd1fd0a4f28419497f9722a3daafe3b4186f6b6457e0908290a380156200010c576000805461ff00191690555050565b600054610100900460ff1680620002e75750620002e762000110565b80620002f6575060005460ff16155b620003335760405162461bcd60e51b815260040180806020018281038252602e815260200180620036c9602e913960400191505060405180910390fd5b600054610100900460ff161580156200035f576000805460ff1961ff0019909116610100171660011790555b6065805460ff191690558015620001d5576000805461ff001916905550565b3b151590565b60006020828403121562000396578081fd5b81516001600160a01b0381168114620003ad578182fd5b9392505050565b61330580620003c46000396000f3fe6080604052600436106102255760003560e01c8063715018a611610123578063b9e05c6a116100ab578063ed16de8a1161006f578063ed16de8a146105d8578063f14744b1146105f8578063f2fde38b1461060d578063fa750d581461062d578063fa8c076f1461064257610225565b8063b9e05c6a1461054e578063c30270101461056e578063e54923de1461058e578063ea03798e146105a3578063ebc38ab0146105c357610225565b8063902dd186116100f2578063902dd186146104b9578063982b489a146104ce5780639e5094dd146104ee578063b6011eb71461050e578063b8d1452f1461052e57610225565b8063715018a61461045a5780637a9f241b1461046f5780638456cb591461048f5780638da5cb5b146104a457610225565b806320a639f3116101b15780634afdd0e7116101755780634afdd0e7146103b55780635c975abb146103d857806363fb53e8146103fa5780636aec2fae1461041a5780636fa968d71461043a57610225565b806320a639f3146103345780633f4ba83a146103545780633fc8cef31461036957806343b86a011461038b578063452e68dd146103a057610225565b80631249c58b116101f85780631249c58b146102ac57806314b85427146102b457806315aad0bc146102df57806316268f58146102f457806319ab453c1461031457610225565b806306f200031461022a5780630ce09be31461024c5780630edacbcc1461026c5780631171bda91461028c575b600080fd5b34801561023657600080fd5b5061024a610245366004612d89565b610662565b005b34801561025857600080fd5b5061024a610267366004612f35565b610744565b34801561027857600080fd5b5061024a610287366004612f03565b6107f6565b34801561029857600080fd5b5061024a6102a7366004612da3565b6108d2565b61024a6109a9565b3480156102c057600080fd5b506102c9610aa8565b6040516102d6919061319b565b60405180910390f35b3480156102eb57600080fd5b506102c9610aae565b34801561030057600080fd5b5061024a61030f366004612f03565b610ab4565b34801561032057600080fd5b5061024a61032f366004612d89565b610bb5565b34801561034057600080fd5b5061024a61034f366004612d89565b610c71565b34801561036057600080fd5b5061024a610d31565b34801561037557600080fd5b5061037e610d9d565b6040516102d69190612f92565b34801561039757600080fd5b506102c9610dac565b3480156103ac57600080fd5b5061037e610dbd565b3480156103c157600080fd5b506103ca610dcc565b6040516102d6929190613181565b3480156103e457600080fd5b506103ed610de7565b6040516102d69190613008565b34801561040657600080fd5b5061024a610415366004612f35565b610df0565b34801561042657600080fd5b506102c9610435366004612f35565b610ea5565b34801561044657600080fd5b5061024a610455366004612f35565b610f34565b34801561046657600080fd5b5061024a61113d565b34801561047b57600080fd5b5061024a61048a366004612d89565b6111e9565b34801561049b57600080fd5b5061024a6112c2565b3480156104b057600080fd5b5061037e61132c565b3480156104c557600080fd5b5061037e61133b565b3480156104da57600080fd5b5061024a6104e9366004612f35565b61134a565b3480156104fa57600080fd5b506102c9610509366004612f35565b6113f1565b34801561051a57600080fd5b5061024a610529366004612dde565b611467565b34801561053a57600080fd5b5061024a610549366004612d89565b611906565b34801561055a57600080fd5b5061024a610569366004612d89565b6119c6565b34801561057a57600080fd5b5061024a610589366004612d89565b611a86565b34801561059a57600080fd5b506102c9611b46565b3480156105af57600080fd5b506102c96105be366004612f35565b611b4c565b3480156105cf57600080fd5b506103ca611bfa565b3480156105e457600080fd5b5061037e6105f3366004612f35565b611c15565b34801561060457600080fd5b5061037e611c28565b34801561061957600080fd5b5061024a610628366004612d89565b611c37565b34801561063957600080fd5b5061037e611d3a565b34801561064e57600080fd5b5061024a61065d366004612d89565b611d49565b61066a611e0f565b6001600160a01b031661067b61132c565b6001600160a01b0316146106c4576040805162461bcd60e51b81526020600482018190526024820152600080516020613286833981519152604482015290519081900360640190fd5b60006106d160a083611e13565b9050806106f95760405162461bcd60e51b81526004016106f090613138565b60405180910390fd5b816001600160a01b031661070b611e0f565b6001600160a01b03167f10d3462c762984834f677549645de34dbf6a2e4473787fb985137faf5c2937b960405160405180910390a35050565b61074c611e0f565b6001600160a01b031661075d61132c565b6001600160a01b0316146107a6576040805162461bcd60e51b81526020600482018190526024820152600080516020613286833981519152604482015290519081900360640190fd5b60978190556107b3611e0f565b6001600160a01b03167f361626183c5f5ef278563ce854e06c79c3606bf38a242ae50729199cf58e06e7826040516107eb919061319b565b60405180910390a250565b6107fe611e0f565b6001600160a01b031661080f61132c565b6001600160a01b031614610858576040805162461bcd60e51b81526020600482018190526024820152600080516020613286833981519152604482015290519081900360640190fd5b609c80546001600160801b03838116600160801b028186166001600160801b0319909316929092171617905561088c611e0f565b6001600160a01b03167f9fbc9dca732fccb175ef424ad70935ed495bd5919432440754adcc7e4140800083836040516108c6929190613181565b60405180910390a25050565b6108da611e0f565b6001600160a01b03166108eb61132c565b6001600160a01b031614610934576040805162461bcd60e51b81526020600482018190526024820152600080516020613286833981519152604482015290519081900360640190fd5b6109486001600160a01b0384168383611e2f565b816001600160a01b0316836001600160a01b0316610964611e0f565b6001600160a01b03167ffa6e44909e1c69606f847ee93c3339a424b53b345ed377c38ab410d32e7f70a78460405161099c919061319b565b60405180910390a4505050565b6109b1610de7565b156109f6576040805162461bcd60e51b815260206004820152601060248201526f14185d5cd8589b194e881c185d5cd95960821b604482015290519081900360640190fd5b3480610a145760405162461bcd60e51b81526004016106f0906130a8565b6000610a1e610d9d565b9050806001600160a01b031663d0e30db0836040518263ffffffff1660e01b81526004016000604051808303818588803b158015610a5b57600080fd5b505af1158015610a6f573d6000803e3d6000fd5b5050505050610a7d82611e86565b6000610a88836113f1565b9050610a9b610a95611e0f565b82611f69565b5050609d80549091019055565b609b5490565b609d5490565b610abc611e0f565b6001600160a01b0316610acd61132c565b6001600160a01b031614610b16576040805162461bcd60e51b81526020600482018190526024820152600080516020613286833981519152604482015290519081900360640190fd5b816001600160801b0316816001600160801b031611610b475760405162461bcd60e51b81526004016106f090613064565b609f80546001600160801b03838116600160801b028186166001600160801b03199093169290921716179055610b7b611e0f565b6001600160a01b03167fd6391f223f7285c7743c00ee068693030a4a8d7542474aab8256e054a8fc2a2483836040516108c6929190613181565b600054610100900460ff1680610bce5750610bce611fcc565b80610bdc575060005460ff16155b610c175760405162461bcd60e51b815260040180806020018281038252602e815260200180613237602e913960400191505060405180910390fd5b600054610100900460ff16158015610c42576000805460ff1961ff0019909116610100171660011790555b610c4a611fdd565b610c538261207f565b610c5b61216a565b8015610c6d576000805461ff00191690555b5050565b610c79611e0f565b6001600160a01b0316610c8a61132c565b6001600160a01b031614610cd3576040805162461bcd60e51b81526020600482018190526024820152600080516020613286833981519152604482015290519081900360640190fd5b609a80546001600160a01b0319166001600160a01b038316908117909155610cf9611e0f565b6001600160a01b03167f8539add575762117a99618f95a6bba75a43ab0a1709316da144c41dad05187e360405160405180910390a350565b610d39611e0f565b6001600160a01b0316610d4a61132c565b6001600160a01b031614610d93576040805162461bcd60e51b81526020600482018190526024820152600080516020613286833981519152604482015290519081900360640190fd5b610d9b612215565b565b609e546001600160a01b031690565b6000610db860a06122b5565b905090565b60a2546001600160a01b031690565b609c546001600160801b0380821691600160801b9004169091565b60655460ff1690565b610df8610de7565b15610e3d576040805162461bcd60e51b815260206004820152601060248201526f14185d5cd8589b194e881c185d5cd95960821b604482015290519081900360640190fd5b80610e5a5760405162461bcd60e51b81526004016106f0906130a8565b6000610e64611e0f565b9050610e85813084610e74610d9d565b6001600160a01b03169291906122c0565b610e8e82611e86565b6000610e99836113f1565b9050610a9b8282611f69565b600080610eb0611c28565b6001600160a01b031663313a7972846040518263ffffffff1660e01b8152600401610edb919061319b565b60206040518083038186803b158015610ef357600080fd5b505afa158015610f07573d6000803e3d6000fd5b505050506040513d601f19601f82011682018060405250810190610f2b9190612f4d565b9150505b919050565b610f3c610de7565b15610f81576040805162461bcd60e51b815260206004820152601060248201526f14185d5cd8589b194e881c185d5cd95960821b604482015290519081900360640190fd5b80610f9e5760405162461bcd60e51b81526004016106f0906130a8565b6000610fa8611c28565b90506000816001600160a01b031663313a7972846040518263ffffffff1660e01b8152600401610fd8919061319b565b60206040518083038186803b158015610ff057600080fd5b505afa158015611004573d6000803e3d6000fd5b505050506040513d601f19601f820116820180604052508101906110289190612f4d565b905080826001600160a01b031663977507c46040518163ffffffff1660e01b815260040160206040518083038186803b15801561106457600080fd5b505afa158015611078573d6000803e3d6000fd5b505050506040513d601f19601f8201168201806040525081019061109c9190612f4d565b10156110ba5760405162461bcd60e51b81526004016106f090613013565b60006110c4611e0f565b90506110ce61133b565b6001600160a01b0316639dc29fac82866040518363ffffffff1660e01b81526004016110fb929190612fef565b600060405180830381600087803b15801561111557600080fd5b505af1158015611129573d6000803e3d6000fd5b505050506111378183611f69565b50505050565b611145611e0f565b6001600160a01b031661115661132c565b6001600160a01b03161461119f576040805162461bcd60e51b81526020600482018190526024820152600080516020613286833981519152604482015290519081900360640190fd5b6033546040516000916001600160a01b0316907f8be0079c531659141344cd1fd0a4f28419497f9722a3daafe3b4186f6b6457e0908390a3603380546001600160a01b0319169055565b6111f1611e0f565b6001600160a01b031661120261132c565b6001600160a01b03161461124b576040805162461bcd60e51b81526020600482018190526024820152600080516020613286833981519152604482015290519081900360640190fd5b600061125860a08361231a565b9050806112775760405162461bcd60e51b81526004016106f0906130f1565b816001600160a01b0316611289611e0f565b6001600160a01b03167f7476fa20123a46ab0692895c298878d1265d37a204f912e0f12acd6bd73a5c8e60405160405180910390a35050565b6112ca611e0f565b6001600160a01b03166112db61132c565b6001600160a01b031614611324576040805162461bcd60e51b81526020600482018190526024820152600080516020613286833981519152604482015290519081900360640190fd5b610d9b61232f565b6033546001600160a01b031690565b6099546001600160a01b031690565b611352611e0f565b6001600160a01b031661136361132c565b6001600160a01b0316146113ac576040805162461bcd60e51b81526020600482018190526024820152600080516020613286833981519152604482015290519081900360640190fd5b609b8190556113b9611e0f565b6001600160a01b03167fb1ecd7e4230a9a3df1f119a3db9886f8bcc33ee9b72eb26a35ef00ebc0adbf45826040516107eb919061319b565b6000806113fc610aae565b90506000611408611b46565b905080821015611456578181038085101561144057816002026002860a868560020202018161143357fe5b0485600202039450611454565b816002028182028161144e57fe5b04850194505b505b61145f846123b2565b949350505050565b61146f611e0f565b6001600160a01b031661148061132c565b6001600160a01b0316146114c9576040805162461bcd60e51b81526020600482018190526024820152600080516020613286833981519152604482015290519081900360640190fd5b60006114d3611e0f565b60e083015160978190556040519192506001600160a01b038316917f361626183c5f5ef278563ce854e06c79c3606bf38a242ae50729199cf58e06e7916115199161319b565b60405180910390a28151609880546001600160a01b0319166001600160a01b0392831690811790915560405190918316907f850cd0e1dc6449ad3cec82204139b7f56dfccbb15cfc97018391e1ceeb1fed2890600090a36020820151609980546001600160a01b0319166001600160a01b0392831690811790915560405190918316907fdbf8baa510d0cc960f9bd90d5ef0c247e25196790bd4e15b4bbe0e095d0de3a890600090a3604082810151609a80546001600160a01b0319166001600160a01b039283169081179091559151908316907f8539add575762117a99618f95a6bba75a43ab0a1709316da144c41dad05187e390600090a36060820151609e80546001600160a01b0319166001600160a01b0392831690811790915560405190918316907fad62520892a45ad185d5f7ee902397e0ec2b3e32966a740cfab8e4db8cc60f0990600090a36080820151609b8190556040516001600160a01b038316917fb1ecd7e4230a9a3df1f119a3db9886f8bcc33ee9b72eb26a35ef00ebc0adbf45916116a9919061319b565b60405180910390a260a0820151609c805460c08501516001600160801b03818116600160801b028186166001600160801b03199094169390931716919091179091556040516001600160a01b038416927f9fbc9dca732fccb175ef424ad70935ed495bd5919432440754adcc7e414080009261172492613181565b60405180910390a2610100820151609f80546101208501516001600160801b03818116600160801b028186166001600160801b03199094169390931716919091179091556040516001600160a01b038416927fd6391f223f7285c7743c00ee068693030a4a8d7542474aab8256e054a8fc2a24926117a192613181565b60405180910390a260005b6117b660a06122b5565b8110156118215760006117ca60a0836123f2565b90506117d760a08261231a565b50806001600160a01b0316836001600160a01b03167f7476fa20123a46ab0692895c298878d1265d37a204f912e0f12acd6bd73a5c8e60405160405180910390a3506001016117ac565b5060005b826101400151518110156118ae576000836101400151828151811061184657fe5b602002602001015190506118648160a0611e1390919063ffffffff16565b50806001600160a01b0316836001600160a01b03167f10d3462c762984834f677549645de34dbf6a2e4473787fb985137faf5c2937b960405160405180910390a350600101611825565b5061016082015160a280546001600160a01b0319166001600160a01b0392831690811790915560405190918316907f741f5aed950b48656cdef9192aa78f2eef7397985bce1bd294a52bbd9d8d5c5a90600090a35050565b61190e611e0f565b6001600160a01b031661191f61132c565b6001600160a01b031614611968576040805162461bcd60e51b81526020600482018190526024820152600080516020613286833981519152604482015290519081900360640190fd5b609e80546001600160a01b0319166001600160a01b03831690811790915561198e611e0f565b6001600160a01b03167fad62520892a45ad185d5f7ee902397e0ec2b3e32966a740cfab8e4db8cc60f0960405160405180910390a350565b6119ce611e0f565b6001600160a01b03166119df61132c565b6001600160a01b031614611a28576040805162461bcd60e51b81526020600482018190526024820152600080516020613286833981519152604482015290519081900360640190fd5b60a280546001600160a01b0319166001600160a01b038316908117909155611a4e611e0f565b6001600160a01b03167f741f5aed950b48656cdef9192aa78f2eef7397985bce1bd294a52bbd9d8d5c5a60405160405180910390a350565b611a8e611e0f565b6001600160a01b0316611a9f61132c565b6001600160a01b031614611ae8576040805162461bcd60e51b81526020600482018190526024820152600080516020613286833981519152604482015290519081900360640190fd5b609880546001600160a01b0319166001600160a01b038316908117909155611b0e611e0f565b6001600160a01b03167f850cd0e1dc6449ad3cec82204139b7f56dfccbb15cfc97018391e1ceeb1fed2860405160405180910390a350565b60975490565b600080611b6183670de0b6b3a76400006123fe565b90506000611bee611b70611c28565b6001600160a01b031663546146e36040518163ffffffff1660e01b815260040160206040518083038186803b158015611ba857600080fd5b505afa158015611bbc573d6000803e3d6000fd5b505050506040513d601f19601f82011682018060405250810190611be09190612f4d565b611be8610aa8565b906123fe565b905061145f8282612457565b609f546001600160801b0380821692600160801b9092041690565b6000611c2260a0836123f2565b92915050565b609a546001600160a01b031690565b611c3f611e0f565b6001600160a01b0316611c5061132c565b6001600160a01b031614611c99576040805162461bcd60e51b81526020600482018190526024820152600080516020613286833981519152604482015290519081900360640190fd5b6001600160a01b038116611cde5760405162461bcd60e51b81526004018080602001828103825260268152602001806131eb6026913960400191505060405180910390fd5b6033546040516001600160a01b038084169216907f8be0079c531659141344cd1fd0a4f28419497f9722a3daafe3b4186f6b6457e090600090a3603380546001600160a01b0319166001600160a01b0392909216919091179055565b6098546001600160a01b031690565b611d51611e0f565b6001600160a01b0316611d6261132c565b6001600160a01b031614611dab576040805162461bcd60e51b81526020600482018190526024820152600080516020613286833981519152604482015290519081900360640190fd5b609980546001600160a01b0319166001600160a01b038316908117909155611dd1611e0f565b6001600160a01b03167fdbf8baa510d0cc960f9bd90d5ef0c247e25196790bd4e15b4bbe0e095d0de3a860405160405180910390a350565b3b151590565b3390565b6000611e28836001600160a01b0384166124be565b9392505050565b604080516001600160a01b038416602482015260448082018490528251808303909101815260649091019091526020810180516001600160e01b031663a9059cbb60e01b179052611e81908490612508565b505050565b6000611e9182611b4c565b90506000611e9d61133b565b6040516340c10f1960e01b81529091506001600160a01b038216906340c10f1990611ece9030908690600401612fef565b600060405180830381600087803b158015611ee857600080fd5b505af1158015611efc573d6000803e3d6000fd5b50505050600080611f0c846125b9565b915091506000611f1a611c28565b9050611f4281611f2a88856127e2565b611f32610d9d565b6001600160a01b03169190611e2f565b611f6181611f5087866127e2565b6001600160a01b0387169190611e2f565b505050505050565b611f71611d3a565b6001600160a01b031663449a52f883836040518363ffffffff1660e01b8152600401611f9e929190612fef565b600060405180830381600087803b158015611fb857600080fd5b505af1158015611f61573d6000803e3d6000fd5b6000611fd730611e09565b15905090565b600054610100900460ff1680611ff65750611ff6611fcc565b80612004575060005460ff16155b61203f5760405162461bcd60e51b815260040180806020018281038252602e815260200180613237602e913960400191505060405180910390fd5b600054610100900460ff1615801561206a576000805460ff1961ff0019909116610100171660011790555b801561207c576000805461ff00191690555b50565b600054610100900460ff16806120985750612098611fcc565b806120a6575060005460ff16155b6120e15760405162461bcd60e51b815260040180806020018281038252602e815260200180613237602e913960400191505060405180910390fd5b600054610100900460ff1615801561210c576000805460ff1961ff0019909116610100171660011790555b603380546001600160a01b0319166001600160a01b0384169081179091556040516000907f8be0079c531659141344cd1fd0a4f28419497f9722a3daafe3b4186f6b6457e0908290a38015610c6d576000805461ff00191690555050565b600054610100900460ff16806121835750612183611fcc565b80612191575060005460ff16155b6121cc5760405162461bcd60e51b815260040180806020018281038252602e815260200180613237602e913960400191505060405180910390fd5b600054610100900460ff161580156121f7576000805460ff1961ff0019909116610100171660011790555b6065805460ff19169055801561207c576000805461ff001916905550565b61221d610de7565b612265576040805162461bcd60e51b815260206004820152601460248201527314185d5cd8589b194e881b9bdd081c185d5cd95960621b604482015290519081900360640190fd5b6065805460ff191690557f5db9ee0a495bf2e6ff9c91a7834c1ba4fdd244a5e8aa4e537bd38aeae4b073aa612298611e0f565b604080516001600160a01b039092168252519081900360200190a1565b6000611c228261283f565b604080516001600160a01b0380861660248301528416604482015260648082018490528251808303909101815260849091019091526020810180516001600160e01b03166323b872dd60e01b179052611137908590612508565b6000611e28836001600160a01b038416612843565b612337610de7565b1561237c576040805162461bcd60e51b815260206004820152601060248201526f14185d5cd8589b194e881c185d5cd95960821b604482015290519081900360640190fd5b6065805460ff191660011790557f62e78cea01bee320cd4e420270b5ea74000d11b0c9f74754ebdbfc544b05a258612298611e0f565b60008060006123bf610dcc565b9150915061145f816001600160801b03166123ec846001600160801b0316876123fe90919063ffffffff16565b90612457565b6000611e288383612909565b60008261240d57506000611c22565b8282028284828161241a57fe5b0414611e285760405162461bcd60e51b81526004018080602001828103825260218152602001806132656021913960400191505060405180910390fd5b60008082116124ad576040805162461bcd60e51b815260206004820152601a60248201527f536166654d6174683a206469766973696f6e206279207a65726f000000000000604482015290519081900360640190fd5b8183816124b657fe5b049392505050565b60006124ca838361296d565b61250057508154600181810184556000848152602080822090930184905584548482528286019093526040902091909155611c22565b506000611c22565b600061255d826040518060400160405280602081526020017f5361666545524332303a206c6f772d6c6576656c2063616c6c206661696c6564815250856001600160a01b03166129859092919063ffffffff16565b805190915015611e815780806020019051602081101561257c57600080fd5b5051611e815760405162461bcd60e51b815260040180806020018281038252602a8152602001806132a6602a913960400191505060405180910390fd5b60008060006125c860a06122b5565b9050806125dc5760008092509250506127dd565b6000806125e7611bfa565b6001600160801b031691506001600160801b03169150816000141561261557600080945094505050506127dd565b6000612627846123ec84818b886123fe565b90506000612633611c28565b6001600160a01b031663313a7972836040518263ffffffff1660e01b815260040161265e919061319b565b60206040518083038186803b15801561267657600080fd5b505afa15801561268a573d6000803e3d6000fd5b505050506040513d601f19601f820116820180604052508101906126ae9190612f4d565b905060006126ba61133b565b905060006126c6610d9d565b905060006126d2610dbd565b905060005b888110156127d35760006126ec60a0836123f2565b90506127026001600160a01b0386168289612994565b6127166001600160a01b0385168288612994565b600080826001600160a01b031663e8e3370088888c8c6000808c426040518963ffffffff1660e01b8152600401612754989796959493929190612fa6565b606060405180830381600087803b15801561276e57600080fd5b505af1158015612782573d6000803e3d6000fd5b505050506040513d601f19601f820116820180604052508101906127a69190612f65565b5090925090506127b68e83612a7f565b9d506127c28d82612a7f565b9c5050600190920191506126d79050565b5050505050505050505b915091565b600082821115612839576040805162461bcd60e51b815260206004820152601e60248201527f536166654d6174683a207375627472616374696f6e206f766572666c6f770000604482015290519081900360640190fd5b50900390565b5490565b600081815260018301602052604081205480156128ff578354600019808301919081019060009087908390811061287657fe5b906000526020600020015490508087600001848154811061289357fe5b6000918252602080832090910192909255828152600189810190925260409020908401905586548790806128c357fe5b60019003818190600052602060002001600090559055866001016000878152602001908152602001600020600090556001945050505050611c22565b6000915050611c22565b8154600090821061294b5760405162461bcd60e51b81526004018080602001828103825260228152602001806131c96022913960400191505060405180910390fd5b82600001828154811061295a57fe5b9060005260206000200154905092915050565b60009081526001919091016020526040902054151590565b606061145f8484600085612ad9565b6000612a2a82856001600160a01b031663dd62ed3e30876040518363ffffffff1660e01b815260040180836001600160a01b03168152602001826001600160a01b031681526020019250505060206040518083038186803b1580156129f857600080fd5b505afa158015612a0c573d6000803e3d6000fd5b505050506040513d6020811015612a2257600080fd5b505190612a7f565b604080516001600160a01b038616602482015260448082018490528251808303909101815260649091019091526020810180516001600160e01b031663095ea7b360e01b179052909150611137908590612508565b600082820183811015611e28576040805162461bcd60e51b815260206004820152601b60248201527f536166654d6174683a206164646974696f6e206f766572666c6f770000000000604482015290519081900360640190fd5b606082471015612b1a5760405162461bcd60e51b81526004018080602001828103825260268152602001806132116026913960400191505060405180910390fd5b612b2385611e09565b612b74576040805162461bcd60e51b815260206004820152601d60248201527f416464726573733a2063616c6c20746f206e6f6e2d636f6e7472616374000000604482015290519081900360640190fd5b600080866001600160a01b031685876040518082805190602001908083835b60208310612bb25780518252601f199092019160209182019101612b93565b6001836020036101000a03801982511681845116808217855250505050505090500191505060006040518083038185875af1925050503d8060008114612c14576040519150601f19603f3d011682016040523d82523d6000602084013e612c19565b606091505b5091509150612c29828286612c34565b979650505050505050565b60608315612c43575081611e28565b825115612c535782518084602001fd5b8160405162461bcd60e51b81526004018080602001828103825283818151815260200191508051906020019080838360005b83811015612c9d578181015183820152602001612c85565b50505050905090810190601f168015612cca5780820380516001836020036101000a031916815260200191505b509250505060405180910390fd5b80356001600160a01b0381168114610f2f57600080fd5b600082601f830112612cff578081fd5b8135602067ffffffffffffffff821115612d1557fe5b808202612d238282016131a4565b838152828101908684018388018501891015612d3d578687fd5b8693505b85841015612d6657612d5281612cd8565b835260019390930192918401918401612d41565b50979650505050505050565b80356001600160801b0381168114610f2f57600080fd5b600060208284031215612d9a578081fd5b611e2882612cd8565b600080600060608486031215612db7578182fd5b612dc084612cd8565b9250612dce60208501612cd8565b9150604084013590509250925092565b600060208284031215612def578081fd5b813567ffffffffffffffff80821115612e06578283fd5b8184019150610180808387031215612e1c578384fd5b612e25816131a4565b9050612e3083612cd8565b8152612e3e60208401612cd8565b6020820152612e4f60408401612cd8565b6040820152612e6060608401612cd8565b606082015260808301356080820152612e7b60a08401612d72565b60a0820152612e8c60c08401612d72565b60c082015260e083013560e0820152610100612ea9818501612d72565b90820152610120612ebb848201612d72565b908201526101408381013583811115612ed2578586fd5b612ede88828701612cef565b8284015250506101609150612ef4828401612cd8565b91810191909152949350505050565b60008060408385031215612f15578182fd5b612f1e83612d72565b9150612f2c60208401612d72565b90509250929050565b600060208284031215612f46578081fd5b5035919050565b600060208284031215612f5e578081fd5b5051919050565b600080600060608486031215612f79578283fd5b8351925060208401519150604084015190509250925092565b6001600160a01b0391909116815260200190565b6001600160a01b039889168152968816602088015260408701959095526060860193909352608085019190915260a084015290921660c082015260e08101919091526101000190565b6001600160a01b03929092168252602082015260400190565b901515815260200190565b60208082526031908201527f4554486d784d696e7465723a2045544874782076616c7565206275726e7420656040820152701e18d959591cc8115512081b9959591959607a1b606082015260800190565b60208082526024908201527f4554486d784d696e7465723a2063616e6e6f7420736574206c705368617265206040820152633e3d203160e01b606082015260800190565b60208082526029908201527f4554486d784d696e7465723a2063616e6e6f74206d696e742077697468207a656040820152681c9bc8185b5bdd5b9d60ba1b606082015260800190565b60208082526027908201527f4554486d784d696e7465723a206c697175696469747920706f6f6c206e6f74206040820152661c1c995cd95b9d60ca1b606082015260800190565b60208082526029908201527f4554486d784d696e7465723a206c697175696469747920706f6f6c20616c726560408201526818591e48185919195960ba1b606082015260800190565b6001600160801b0392831681529116602082015260400190565b90815260200190565b60405181810167ffffffffffffffff811182821017156131c057fe5b60405291905056fe456e756d657261626c655365743a20696e646578206f7574206f6620626f756e64734f776e61626c653a206e6577206f776e657220697320746865207a65726f2061646472657373416464726573733a20696e73756666696369656e742062616c616e636520666f722063616c6c496e697469616c697a61626c653a20636f6e747261637420697320616c726561647920696e697469616c697a6564536166654d6174683a206d756c7469706c69636174696f6e206f766572666c6f774f776e61626c653a2063616c6c6572206973206e6f7420746865206f776e65725361666545524332303a204552433230206f7065726174696f6e20646964206e6f742073756363656564a264697066735822122008811a6521ab19abb90660648c76fdef8771fc3829bfdc86391558575deaed3d64736f6c63430007060033496e697469616c697a61626c653a20636f6e747261637420697320616c726561647920696e697469616c697a6564",
  "devdoc": {
    "kind": "dev",
    "methods": {
      "owner()": {
        "details": "Returns the address of the current owner."
      },
      "paused()": {
        "details": "Returns true if the contract is paused, and false otherwise."
      },
      "renounceOwnership()": {
        "details": "Leaves the contract without owner. It will not be possible to call `onlyOwner` functions anymore. Can only be called by the current owner. NOTE: Renouncing ownership will leave the contract without an owner, thereby removing any functionality that is only available to the owner."
      },
      "transferOwnership(address)": {
        "details": "Transfers ownership of the contract to a new account (`newOwner`). Can only be called by the current owner."
      }
    },
    "version": 1
  },
  "userdoc": {
    "kind": "user",
    "methods": {},
    "version": 1
  },
  "storageLayout": {
    "storage": [
      {
        "astId": 6,
        "contract": "contracts/exchanges/ETHmxMinter/ETHmxMinter.sol:ETHmxMinter",
        "label": "_initialized",
        "offset": 0,
        "slot": "0",
        "type": "t_bool"
      },
      {
        "astId": 9,
        "contract": "contracts/exchanges/ETHmxMinter/ETHmxMinter.sol:ETHmxMinter",
        "label": "_initializing",
        "offset": 1,
        "slot": "0",
        "type": "t_bool"
      },
      {
        "astId": 353,
        "contract": "contracts/exchanges/ETHmxMinter/ETHmxMinter.sol:ETHmxMinter",
        "label": "__gap",
        "offset": 0,
        "slot": "1",
        "type": "t_array(t_uint256)50_storage"
      },
      {
        "astId": 3458,
        "contract": "contracts/exchanges/ETHmxMinter/ETHmxMinter.sol:ETHmxMinter",
        "label": "_owner",
        "offset": 0,
        "slot": "51",
        "type": "t_address"
      },
      {
        "astId": 3577,
        "contract": "contracts/exchanges/ETHmxMinter/ETHmxMinter.sol:ETHmxMinter",
        "label": "__gap",
        "offset": 0,
        "slot": "52",
        "type": "t_array(t_uint256)49_storage"
      },
      {
        "astId": 375,
        "contract": "contracts/exchanges/ETHmxMinter/ETHmxMinter.sol:ETHmxMinter",
        "label": "_paused",
        "offset": 0,
        "slot": "101",
        "type": "t_bool"
      },
      {
        "astId": 466,
        "contract": "contracts/exchanges/ETHmxMinter/ETHmxMinter.sol:ETHmxMinter",
        "label": "__gap",
        "offset": 0,
        "slot": "102",
        "type": "t_array(t_uint256)49_storage"
      },
      {
        "astId": 4858,
        "contract": "contracts/exchanges/ETHmxMinter/ETHmxMinter.sol:ETHmxMinter",
        "label": "_earlyThreshold",
        "offset": 0,
        "slot": "151",
        "type": "t_uint256"
      },
      {
        "astId": 4860,
        "contract": "contracts/exchanges/ETHmxMinter/ETHmxMinter.sol:ETHmxMinter",
        "label": "_ethmx",
        "offset": 0,
        "slot": "152",
        "type": "t_address"
      },
      {
        "astId": 4862,
        "contract": "contracts/exchanges/ETHmxMinter/ETHmxMinter.sol:ETHmxMinter",
        "label": "_ethtx",
        "offset": 0,
        "slot": "153",
        "type": "t_address"
      },
      {
        "astId": 4864,
        "contract": "contracts/exchanges/ETHmxMinter/ETHmxMinter.sol:ETHmxMinter",
        "label": "_ethtxAMM",
        "offset": 0,
        "slot": "154",
        "type": "t_address"
      },
      {
        "astId": 4866,
        "contract": "contracts/exchanges/ETHmxMinter/ETHmxMinter.sol:ETHmxMinter",
        "label": "_mintGasPrice",
        "offset": 0,
        "slot": "155",
        "type": "t_uint256"
      },
      {
        "astId": 4868,
        "contract": "contracts/exchanges/ETHmxMinter/ETHmxMinter.sol:ETHmxMinter",
        "label": "_roiNum",
        "offset": 0,
        "slot": "156",
        "type": "t_uint128"
      },
      {
        "astId": 4870,
        "contract": "contracts/exchanges/ETHmxMinter/ETHmxMinter.sol:ETHmxMinter",
        "label": "_roiDen",
        "offset": 16,
        "slot": "156",
        "type": "t_uint128"
      },
      {
        "astId": 4872,
        "contract": "contracts/exchanges/ETHmxMinter/ETHmxMinter.sol:ETHmxMinter",
        "label": "_totalGiven",
        "offset": 0,
        "slot": "157",
        "type": "t_uint256"
      },
      {
        "astId": 4874,
        "contract": "contracts/exchanges/ETHmxMinter/ETHmxMinter.sol:ETHmxMinter",
        "label": "_weth",
        "offset": 0,
        "slot": "158",
        "type": "t_address"
      },
      {
        "astId": 4876,
        "contract": "contracts/exchanges/ETHmxMinter/ETHmxMinter.sol:ETHmxMinter",
        "label": "_lpShareNum",
        "offset": 0,
        "slot": "159",
        "type": "t_uint128"
      },
      {
        "astId": 4878,
        "contract": "contracts/exchanges/ETHmxMinter/ETHmxMinter.sol:ETHmxMinter",
        "label": "_lpShareDen",
        "offset": 16,
        "slot": "159",
        "type": "t_uint128"
      },
      {
        "astId": 4880,
        "contract": "contracts/exchanges/ETHmxMinter/ETHmxMinter.sol:ETHmxMinter",
        "label": "_lps",
        "offset": 0,
        "slot": "160",
        "type": "t_struct(AddressSet)2680_storage"
      },
      {
        "astId": 4882,
        "contract": "contracts/exchanges/ETHmxMinter/ETHmxMinter.sol:ETHmxMinter",
        "label": "_lpRecipient",
        "offset": 0,
        "slot": "162",
        "type": "t_address"
      },
      {
        "astId": 4886,
        "contract": "contracts/exchanges/ETHmxMinter/ETHmxMinter.sol:ETHmxMinter",
        "label": "__gap",
        "offset": 0,
        "slot": "163",
        "type": "t_array(t_uint256)37_storage"
      }
    ],
    "types": {
      "t_address": {
        "encoding": "inplace",
        "label": "address",
        "numberOfBytes": "20"
      },
      "t_array(t_bytes32)dyn_storage": {
        "base": "t_bytes32",
        "encoding": "dynamic_array",
        "label": "bytes32[]",
        "numberOfBytes": "32"
      },
      "t_array(t_uint256)37_storage": {
        "base": "t_uint256",
        "encoding": "inplace",
        "label": "uint256[37]",
        "numberOfBytes": "1184"
      },
      "t_array(t_uint256)49_storage": {
        "base": "t_uint256",
        "encoding": "inplace",
        "label": "uint256[49]",
        "numberOfBytes": "1568"
      },
      "t_array(t_uint256)50_storage": {
        "base": "t_uint256",
        "encoding": "inplace",
        "label": "uint256[50]",
        "numberOfBytes": "1600"
      },
      "t_bool": {
        "encoding": "inplace",
        "label": "bool",
        "numberOfBytes": "1"
      },
      "t_bytes32": {
        "encoding": "inplace",
        "label": "bytes32",
        "numberOfBytes": "32"
      },
      "t_mapping(t_bytes32,t_uint256)": {
        "encoding": "mapping",
        "key": "t_bytes32",
        "label": "mapping(bytes32 => uint256)",
        "numberOfBytes": "32",
        "value": "t_uint256"
      },
      "t_struct(AddressSet)2680_storage": {
        "encoding": "inplace",
        "label": "struct EnumerableSet.AddressSet",
        "members": [
          {
            "astId": 2679,
            "contract": "contracts/exchanges/ETHmxMinter/ETHmxMinter.sol:ETHmxMinter",
            "label": "_inner",
            "offset": 0,
            "slot": "0",
            "type": "t_struct(Set)2415_storage"
          }
        ],
        "numberOfBytes": "64"
      },
      "t_struct(Set)2415_storage": {
        "encoding": "inplace",
        "label": "struct EnumerableSet.Set",
        "members": [
          {
            "astId": 2410,
            "contract": "contracts/exchanges/ETHmxMinter/ETHmxMinter.sol:ETHmxMinter",
            "label": "_values",
            "offset": 0,
            "slot": "0",
            "type": "t_array(t_bytes32)dyn_storage"
          },
          {
            "astId": 2414,
            "contract": "contracts/exchanges/ETHmxMinter/ETHmxMinter.sol:ETHmxMinter",
            "label": "_indexes",
            "offset": 0,
            "slot": "1",
            "type": "t_mapping(t_bytes32,t_uint256)"
          }
        ],
        "numberOfBytes": "64"
      },
      "t_uint128": {
        "encoding": "inplace",
        "label": "uint128",
        "numberOfBytes": "16"
      },
      "t_uint256": {
        "encoding": "inplace",
        "label": "uint256",
        "numberOfBytes": "32"
      }
    }
  }
}