{
  "address": "0x5feed99e10F4F52d6C125D9F42a3a05E43a1F164",
  "abi": [
    {
      "inputs": [
        {
          "internalType": "address",
          "name": "owner_",
          "type": "address"
        },
        {
          "internalType": "address",
          "name": "ethmx_",
          "type": "address"
        },
        {
          "internalType": "address",
          "name": "ethtx_",
          "type": "address"
        },
        {
          "internalType": "address",
          "name": "ethtxAMM_",
          "type": "address"
        },
        {
          "internalType": "address",
          "name": "wethAddr_",
          "type": "address"
        },
        {
          "internalType": "uint256",
          "name": "mintGasPrice_",
          "type": "uint256"
        },
        {
          "internalType": "uint128",
          "name": "roiNumerator",
          "type": "uint128"
        },
        {
          "internalType": "uint128",
          "name": "roiDenominator",
          "type": "uint128"
        },
        {
          "internalType": "uint256",
          "name": "earlyThreshold_",
          "type": "uint256"
        }
      ],
      "stateMutability": "nonpayable",
      "type": "constructor"
    },
    {
      "anonymous": false,
      "inputs": [
        {
          "indexed": true,
          "internalType": "address",
          "name": "author",
          "type": "address"
        },
        {
          "indexed": false,
          "internalType": "uint256",
          "name": "value",
          "type": "uint256"
        }
      ],
      "name": "EarlyThresholdSet",
      "type": "event"
    },
    {
      "anonymous": false,
      "inputs": [
        {
          "indexed": true,
          "internalType": "address",
          "name": "author",
          "type": "address"
        },
        {
          "indexed": true,
          "internalType": "address",
          "name": "addr",
          "type": "address"
        }
      ],
      "name": "EthmxAddressSet",
      "type": "event"
    },
    {
      "anonymous": false,
      "inputs": [
        {
          "indexed": true,
          "internalType": "address",
          "name": "author",
          "type": "address"
        },
        {
          "indexed": true,
          "internalType": "address",
          "name": "addr",
          "type": "address"
        }
      ],
      "name": "EthtxAMMAddressSet",
      "type": "event"
    },
    {
      "anonymous": false,
      "inputs": [
        {
          "indexed": true,
          "internalType": "address",
          "name": "author",
          "type": "address"
        },
        {
          "indexed": true,
          "internalType": "address",
          "name": "addr",
          "type": "address"
        }
      ],
      "name": "EthtxAddressSet",
      "type": "event"
    },
    {
      "anonymous": false,
      "inputs": [
        {
          "indexed": true,
          "internalType": "address",
          "name": "author",
          "type": "address"
        },
        {
          "indexed": false,
          "internalType": "uint256",
          "name": "value",
          "type": "uint256"
        }
      ],
      "name": "MintGasPriceSet",
      "type": "event"
    },
    {
      "anonymous": false,
      "inputs": [
        {
          "indexed": true,
          "internalType": "address",
          "name": "previousOwner",
          "type": "address"
        },
        {
          "indexed": true,
          "internalType": "address",
          "name": "newOwner",
          "type": "address"
        }
      ],
      "name": "OwnershipTransferred",
      "type": "event"
    },
    {
      "anonymous": false,
      "inputs": [
        {
          "indexed": false,
          "internalType": "address",
          "name": "account",
          "type": "address"
        }
      ],
      "name": "Paused",
      "type": "event"
    },
    {
      "anonymous": false,
      "inputs": [
        {
          "indexed": true,
          "internalType": "address",
          "name": "author",
          "type": "address"
        },
        {
          "indexed": true,
          "internalType": "address",
          "name": "token",
          "type": "address"
        },
        {
          "indexed": true,
          "internalType": "address",
          "name": "to",
          "type": "address"
        },
        {
          "indexed": false,
          "internalType": "uint256",
          "name": "amount",
          "type": "uint256"
        }
      ],
      "name": "Recovered",
      "type": "event"
    },
    {
      "anonymous": false,
      "inputs": [
        {
          "indexed": true,
          "internalType": "address",
          "name": "author",
          "type": "address"
        },
        {
          "indexed": false,
          "internalType": "uint128",
          "name": "numerator",
          "type": "uint128"
        },
        {
          "indexed": false,
          "internalType": "uint128",
          "name": "denominator",
          "type": "uint128"
        }
      ],
      "name": "RoiSet",
      "type": "event"
    },
    {
      "anonymous": false,
      "inputs": [
        {
          "indexed": false,
          "internalType": "address",
          "name": "account",
          "type": "address"
        }
      ],
      "name": "Unpaused",
      "type": "event"
    },
    {
      "anonymous": false,
      "inputs": [
        {
          "indexed": true,
          "internalType": "address",
          "name": "author",
          "type": "address"
        },
        {
          "indexed": true,
          "internalType": "address",
          "name": "addr",
          "type": "address"
        }
      ],
      "name": "WethAddressSet",
      "type": "event"
    },
    {
      "inputs": [],
      "name": "earlyThreshold",
      "outputs": [
        {
          "internalType": "uint256",
          "name": "",
          "type": "uint256"
        }
      ],
      "stateMutability": "view",
      "type": "function"
    },
    {
      "inputs": [],
      "name": "ethmx",
      "outputs": [
        {
          "internalType": "address",
          "name": "",
          "type": "address"
        }
      ],
      "stateMutability": "view",
      "type": "function"
    },
    {
      "inputs": [
        {
          "internalType": "uint256",
          "name": "amountETHIn",
          "type": "uint256"
        }
      ],
      "name": "ethmxFromEth",
      "outputs": [
        {
          "internalType": "uint256",
          "name": "",
          "type": "uint256"
        }
      ],
      "stateMutability": "view",
      "type": "function"
    },
    {
      "inputs": [
        {
          "internalType": "uint256",
          "name": "amountETHtxIn",
          "type": "uint256"
        }
      ],
      "name": "ethmxFromEthtx",
      "outputs": [
        {
          "internalType": "uint256",
          "name": "",
          "type": "uint256"
        }
      ],
      "stateMutability": "view",
      "type": "function"
    },
    {
      "inputs": [],
      "name": "ethtx",
      "outputs": [
        {
          "internalType": "address",
          "name": "",
          "type": "address"
        }
      ],
      "stateMutability": "view",
      "type": "function"
    },
    {
      "inputs": [],
      "name": "ethtxAMM",
      "outputs": [
        {
          "internalType": "address",
          "name": "",
          "type": "address"
        }
      ],
      "stateMutability": "view",
      "type": "function"
    },
    {
      "inputs": [
        {
          "internalType": "uint256",
          "name": "amountETHIn",
          "type": "uint256"
        }
      ],
      "name": "ethtxFromEth",
      "outputs": [
        {
          "internalType": "uint256",
          "name": "",
          "type": "uint256"
        }
      ],
      "stateMutability": "view",
      "type": "function"
    },
    {
      "inputs": [],
      "name": "mint",
      "outputs": [],
      "stateMutability": "payable",
      "type": "function"
    },
    {
      "inputs": [],
      "name": "mintGasPrice",
      "outputs": [
        {
          "internalType": "uint256",
          "name": "",
          "type": "uint256"
        }
      ],
      "stateMutability": "view",
      "type": "function"
    },
    {
      "inputs": [
        {
          "internalType": "uint256",
          "name": "amount",
          "type": "uint256"
        }
      ],
      "name": "mintWithETHtx",
      "outputs": [],
      "stateMutability": "nonpayable",
      "type": "function"
    },
    {
      "inputs": [
        {
          "internalType": "uint256",
          "name": "amount",
          "type": "uint256"
        }
      ],
      "name": "mintWithWETH",
      "outputs": [],
      "stateMutability": "nonpayable",
      "type": "function"
    },
    {
      "inputs": [],
      "name": "owner",
      "outputs": [
        {
          "internalType": "address",
          "name": "",
          "type": "address"
        }
      ],
      "stateMutability": "view",
      "type": "function"
    },
    {
      "inputs": [],
      "name": "pause",
      "outputs": [],
      "stateMutability": "nonpayable",
      "type": "function"
    },
    {
      "inputs": [],
      "name": "paused",
      "outputs": [
        {
          "internalType": "bool",
          "name": "",
          "type": "bool"
        }
      ],
      "stateMutability": "view",
      "type": "function"
    },
    {
      "inputs": [
        {
          "internalType": "address",
          "name": "token",
          "type": "address"
        },
        {
          "internalType": "address",
          "name": "to",
          "type": "address"
        },
        {
          "internalType": "uint256",
          "name": "amount",
          "type": "uint256"
        }
      ],
      "name": "recoverERC20",
      "outputs": [],
      "stateMutability": "nonpayable",
      "type": "function"
    },
    {
      "inputs": [],
      "name": "renounceOwnership",
      "outputs": [],
      "stateMutability": "nonpayable",
      "type": "function"
    },
    {
      "inputs": [],
      "name": "roi",
      "outputs": [
        {
          "internalType": "uint128",
          "name": "",
          "type": "uint128"
        },
        {
          "internalType": "uint128",
          "name": "",
          "type": "uint128"
        }
      ],
      "stateMutability": "view",
      "type": "function"
    },
    {
      "inputs": [
        {
          "internalType": "uint256",
          "name": "value",
          "type": "uint256"
        }
      ],
      "name": "setEarlyThreshold",
      "outputs": [],
      "stateMutability": "nonpayable",
      "type": "function"
    },
    {
      "inputs": [
        {
          "internalType": "address",
          "name": "addr",
          "type": "address"
        }
      ],
      "name": "setEthmxAddress",
      "outputs": [],
      "stateMutability": "nonpayable",
      "type": "function"
    },
    {
      "inputs": [
        {
          "internalType": "address",
          "name": "addr",
          "type": "address"
        }
      ],
      "name": "setEthtxAMMAddress",
      "outputs": [],
      "stateMutability": "nonpayable",
      "type": "function"
    },
    {
      "inputs": [
        {
          "internalType": "address",
          "name": "addr",
          "type": "address"
        }
      ],
      "name": "setEthtxAddress",
      "outputs": [],
      "stateMutability": "nonpayable",
      "type": "function"
    },
    {
      "inputs": [
        {
          "internalType": "uint256",
          "name": "value",
          "type": "uint256"
        }
      ],
      "name": "setMintGasPrice",
      "outputs": [],
      "stateMutability": "nonpayable",
      "type": "function"
    },
    {
      "inputs": [
        {
          "internalType": "uint128",
          "name": "numerator",
          "type": "uint128"
        },
        {
          "internalType": "uint128",
          "name": "denominator",
          "type": "uint128"
        }
      ],
      "name": "setRoi",
      "outputs": [],
      "stateMutability": "nonpayable",
      "type": "function"
    },
    {
      "inputs": [
        {
          "internalType": "address",
          "name": "addr",
          "type": "address"
        }
      ],
      "name": "setWethAddress",
      "outputs": [],
      "stateMutability": "nonpayable",
      "type": "function"
    },
    {
      "inputs": [],
      "name": "totalGiven",
      "outputs": [
        {
          "internalType": "uint256",
          "name": "",
          "type": "uint256"
        }
      ],
      "stateMutability": "view",
      "type": "function"
    },
    {
      "inputs": [
        {
          "internalType": "address",
          "name": "newOwner",
          "type": "address"
        }
      ],
      "name": "transferOwnership",
      "outputs": [],
      "stateMutability": "nonpayable",
      "type": "function"
    },
    {
      "inputs": [],
      "name": "unpause",
      "outputs": [],
      "stateMutability": "nonpayable",
      "type": "function"
    },
    {
      "inputs": [],
      "name": "weth",
      "outputs": [
        {
          "internalType": "address",
          "name": "",
          "type": "address"
        }
      ],
      "stateMutability": "view",
      "type": "function"
    }
  ],
  "transactionHash": "0xfb50551cf2f732e45b9f5d2cca1e7abc4e92098cef05d5e2c054f7d312e86552",
  "args": [
    "0x5757Dd711EaE80e181E07CdbCe43359Ac1048394",
    "0xB63258927FDa968B19907AA92E43e88D96ef3290",
    "0xDc456AC4e0C1D88f0f32b9B116BEBBd678D4b81D",
    "0xb18b8832E462D3d344DCb36c158584E3f8e28733",
    "0xc778417E063141139Fce010982780140Aa0cD5Ab",
    "1000000000000",
    5,
    1,
    "1000000000000000000000"
  ],
  "solcInputHash": "5215b7c7bb7eaf379b141b0cd04d3a3c",
  "bytecode": "0x60806040523480156200001157600080fd5b50604051620023cf380380620023cf83398181016040526101208110156200003857600080fd5b508051602082015160408301516060840151608085015160a086015160c087015160e08801516101009098015196979596949593949293919290919060006200008062000151565b600080546001600160a01b0319166001600160a01b038316908117825560405192935091600080516020620023af833981519152908290a3506000805460ff60a01b19169055620000d18162000155565b620000dc8862000203565b620000e787620002bf565b620000f2866200037b565b620000fd8462000437565b620001098383620004e5565b6200011485620005d5565b6200011e62000691565b6001600160a01b0316896001600160a01b03161462000142576200014289620006a0565b5050505050505050506200078d565b3390565b6200015f62000151565b6000546001600160a01b03908116911614620001b1576040805162461bcd60e51b815260206004820181905260248201526000805160206200238f833981519152604482015290519081900360640190fd5b6001819055620001c062000151565b6001600160a01b03167f361626183c5f5ef278563ce854e06c79c3606bf38a242ae50729199cf58e06e7826040518082815260200191505060405180910390a250565b6200020d62000151565b6000546001600160a01b039081169116146200025f576040805162461bcd60e51b815260206004820181905260248201526000805160206200238f833981519152604482015290519081900360640190fd5b600280546001600160a01b0319166001600160a01b0383169081179091556200028762000151565b6001600160a01b03167f0ac46a0cbcde0e415f1af475b936c026f691219f577f7ffc28ad809761d787b660405160405180910390a350565b620002c962000151565b6000546001600160a01b039081169116146200031b576040805162461bcd60e51b815260206004820181905260248201526000805160206200238f833981519152604482015290519081900360640190fd5b600380546001600160a01b0319166001600160a01b0383169081179091556200034362000151565b6001600160a01b03167ff9f4b296b0c32540acafb6c8937812d833013c92ebdc4c2ac0d9910132a1a26d60405160405180910390a350565b6200038562000151565b6000546001600160a01b03908116911614620003d7576040805162461bcd60e51b815260206004820181905260248201526000805160206200238f833981519152604482015290519081900360640190fd5b600480546001600160a01b0319166001600160a01b038316908117909155620003ff62000151565b6001600160a01b03167f6b280d88a71e3350b4e6b92556f8413347439e6bca3e3d9b21e93182d033d08760405160405180910390a350565b6200044162000151565b6000546001600160a01b0390811691161462000493576040805162461bcd60e51b815260206004820181905260248201526000805160206200238f833981519152604482015290519081900360640190fd5b6005819055620004a262000151565b6001600160a01b03167fb1ecd7e4230a9a3df1f119a3db9886f8bcc33ee9b72eb26a35ef00ebc0adbf45826040518082815260200191505060405180910390a250565b620004ef62000151565b6000546001600160a01b0390811691161462000541576040805162461bcd60e51b815260206004820181905260248201526000805160206200238f833981519152604482015290519081900360640190fd5b600780546001600160801b03838116600160801b028186166001600160801b031990931692909217161790556200057762000151565b6001600160a01b03167f9fbc9dca732fccb175ef424ad70935ed495bd5919432440754adcc7e41408000838360405180836001600160801b03168152602001826001600160801b031681526020019250505060405180910390a25050565b620005df62000151565b6000546001600160a01b0390811691161462000631576040805162461bcd60e51b815260206004820181905260248201526000805160206200238f833981519152604482015290519081900360640190fd5b600880546001600160a01b0319166001600160a01b0383169081179091556200065962000151565b6001600160a01b03167f5a9fee097e5327c0cf46c740ffe28280bb735994808fd66d29c98c59f60e94ab60405160405180910390a350565b6000546001600160a01b031690565b620006aa62000151565b6000546001600160a01b03908116911614620006fc576040805162461bcd60e51b815260206004820181905260248201526000805160206200238f833981519152604482015290519081900360640190fd5b6001600160a01b038116620007435760405162461bcd60e51b8152600401808060200182810382526026815260200180620023696026913960400191505060405180910390fd5b600080546040516001600160a01b0380851693921691600080516020620023af83398151915291a3600080546001600160a01b0319166001600160a01b0392909216919091179055565b611bcc806200079d6000396000f3fe6080604052600436106101b75760003560e01c80638456cb59116100ec578063c301e5951161008a578063f14744b111610064578063f14744b11461055b578063f2fde38b14610570578063f8d0cd1d146105a3578063fa750d58146105d6576101b7565b8063c301e595146104e9578063e54923de1461051c578063ea03798e14610531576101b7565b8063982b489a116100c6578063982b489a1461042f5780639e5094dd14610459578063a96e242314610483578063b4f0afb6146104b6576101b7565b80638456cb59146103f05780638da5cb5b14610405578063902dd1861461041a576101b7565b80633fc8cef31161015957806363fb53e81161013357806363fb53e81461035d5780636aec2fae146103875780636fa968d7146103b1578063715018a6146103db576101b7565b80633fc8cef3146102bf5780634afdd0e7146102f05780635c975abb14610334576101b7565b80631249c58b116101955780631249c58b1461026657806314b854271461026e57806315aad0bc146102955780633f4ba83a146102aa576101b7565b80630ce09be3146101bc5780630edacbcc146101e85780631171bda914610223575b600080fd5b3480156101c857600080fd5b506101e6600480360360208110156101df57600080fd5b50356105eb565b005b3480156101f457600080fd5b506101e66004803603604081101561020b57600080fd5b506001600160801b0381358116916020013516610693565b34801561022f57600080fd5b506101e66004803603606081101561024657600080fd5b506001600160a01b03813581169160208101359091169060400135610786565b6101e6610853565b34801561027a57600080fd5b506102836109d4565b60408051918252519081900360200190f35b3480156102a157600080fd5b506102836109da565b3480156102b657600080fd5b506101e66109e0565b3480156102cb57600080fd5b506102d4610a42565b604080516001600160a01b039092168252519081900360200190f35b3480156102fc57600080fd5b50610305610a51565b60405180836001600160801b03168152602001826001600160801b031681526020019250505060405180910390f35b34801561034057600080fd5b50610349610a6c565b604080519115158252519081900360200190f35b34801561036957600080fd5b506101e66004803603602081101561038057600080fd5b5035610a7c565b34801561039357600080fd5b50610283600480360360208110156103aa57600080fd5b5035610ba9565b3480156103bd57600080fd5b506101e6600480360360208110156103d457600080fd5b5035610c35565b3480156103e757600080fd5b506101e6610dcc565b3480156103fc57600080fd5b506101e6610e6e565b34801561041157600080fd5b506102d4610ece565b34801561042657600080fd5b506102d4610edd565b34801561043b57600080fd5b506101e66004803603602081101561045257600080fd5b5035610eec565b34801561046557600080fd5b506102836004803603602081101561047c57600080fd5b5035610f94565b34801561048f57600080fd5b506101e6600480360360208110156104a657600080fd5b50356001600160a01b031661100a565b3480156104c257600080fd5b506101e6600480360360208110156104d957600080fd5b50356001600160a01b03166110c0565b3480156104f557600080fd5b506101e66004803603602081101561050c57600080fd5b50356001600160a01b0316611176565b34801561052857600080fd5b5061028361122c565b34801561053d57600080fd5b506102836004803603602081101561055457600080fd5b5035611232565b34801561056757600080fd5b506102d46112d4565b34801561057c57600080fd5b506101e66004803603602081101561059357600080fd5b50356001600160a01b03166112e3565b3480156105af57600080fd5b506101e6600480360360208110156105c657600080fd5b50356001600160a01b03166113db565b3480156105e257600080fd5b506102d4611491565b6105f36114a0565b6000546001600160a01b03908116911614610643576040805162461bcd60e51b81526020600482018190526024820152600080516020611b4d833981519152604482015290519081900360640190fd5b60018190556106506114a0565b6001600160a01b03167f361626183c5f5ef278563ce854e06c79c3606bf38a242ae50729199cf58e06e7826040518082815260200191505060405180910390a250565b61069b6114a0565b6000546001600160a01b039081169116146106eb576040805162461bcd60e51b81526020600482018190526024820152600080516020611b4d833981519152604482015290519081900360640190fd5b600780546001600160801b03838116600160801b028186166fffffffffffffffffffffffffffffffff1990931692909217161790556107286114a0565b6001600160a01b03167f9fbc9dca732fccb175ef424ad70935ed495bd5919432440754adcc7e41408000838360405180836001600160801b03168152602001826001600160801b031681526020019250505060405180910390a25050565b61078e6114a0565b6000546001600160a01b039081169116146107de576040805162461bcd60e51b81526020600482018190526024820152600080516020611b4d833981519152604482015290519081900360640190fd5b6107f26001600160a01b03841683836114a4565b816001600160a01b0316836001600160a01b031661080e6114a0565b6001600160a01b03167ffa6e44909e1c69606f847ee93c3339a424b53b345ed377c38ab410d32e7f70a7846040518082815260200191505060405180910390a4505050565b600054600160a01b900460ff16156108a5576040805162461bcd60e51b815260206004820152601060248201526f14185d5cd8589b194e881c185d5cd95960821b604482015290519081900360640190fd5b346108ae610a42565b6001600160a01b031663d0e30db0826040518263ffffffff1660e01b81526004016000604051808303818588803b1580156108e857600080fd5b505af11580156108fc573d6000803e3d6000fd5b505050505061092561090c6112d4565b82610915610a42565b6001600160a01b031691906114a4565b61092d610edd565b6001600160a01b03166340c10f196109436112d4565b61094c84611232565b6040518363ffffffff1660e01b815260040180836001600160a01b0316815260200182815260200192505050600060405180830381600087803b15801561099257600080fd5b505af11580156109a6573d6000803e3d6000fd5b5050505060006109b582610f94565b90506109c86109c26114a0565b826114f6565b50600680549091019055565b60055490565b60065490565b6109e86114a0565b6000546001600160a01b03908116911614610a38576040805162461bcd60e51b81526020600482018190526024820152600080516020611b4d833981519152604482015290519081900360640190fd5b610a40611570565b565b6008546001600160a01b031690565b6007546001600160801b0380821691600160801b9004169091565b600054600160a01b900460ff1690565b600054600160a01b900460ff1615610ace576040805162461bcd60e51b815260206004820152601060248201526f14185d5cd8589b194e881c185d5cd95960821b604482015290519081900360640190fd5b6000610ad86114a0565b9050610b0081610ae66112d4565b84610aef610a42565b6001600160a01b0316929190611618565b610b08610edd565b6001600160a01b03166340c10f19610b1e6112d4565b610b2785611232565b6040518363ffffffff1660e01b815260040180836001600160a01b0316815260200182815260200192505050600060405180830381600087803b158015610b6d57600080fd5b505af1158015610b81573d6000803e3d6000fd5b505050506000610b9083610f94565b9050610b9c82826114f6565b5050600680549091019055565b600080610bb46112d4565b6001600160a01b031663313a7972846040518263ffffffff1660e01b81526004018082815260200191505060206040518083038186803b158015610bf757600080fd5b505afa158015610c0b573d6000803e3d6000fd5b505050506040513d6020811015610c2157600080fd5b50519050610c2e81611678565b9392505050565b600054600160a01b900460ff1615610c87576040805162461bcd60e51b815260206004820152601060248201526f14185d5cd8589b194e881c185d5cd95960821b604482015290519081900360640190fd5b610c8f6112d4565b6001600160a01b031663575a9d166040518163ffffffff1660e01b815260040160206040518083038186803b158015610cc757600080fd5b505afa158015610cdb573d6000803e3d6000fd5b505050506040513d6020811015610cf157600080fd5b5051610d2e5760405162461bcd60e51b8152600401808060200182810382526037815260200180611af56037913960400191505060405180910390fd5b6000610d386114a0565b9050610d42610edd565b6001600160a01b0316639dc29fac82846040518363ffffffff1660e01b815260040180836001600160a01b0316815260200182815260200192505050600060405180830381600087803b158015610d9857600080fd5b505af1158015610dac573d6000803e3d6000fd5b505050506000610dbb83610ba9565b9050610dc782826114f6565b505050565b610dd46114a0565b6000546001600160a01b03908116911614610e24576040805162461bcd60e51b81526020600482018190526024820152600080516020611b4d833981519152604482015290519081900360640190fd5b600080546040516001600160a01b03909116907f8be0079c531659141344cd1fd0a4f28419497f9722a3daafe3b4186f6b6457e0908390a3600080546001600160a01b0319169055565b610e766114a0565b6000546001600160a01b03908116911614610ec6576040805162461bcd60e51b81526020600482018190526024820152600080516020611b4d833981519152604482015290519081900360640190fd5b610a406116b8565b6000546001600160a01b031690565b6003546001600160a01b031690565b610ef46114a0565b6000546001600160a01b03908116911614610f44576040805162461bcd60e51b81526020600482018190526024820152600080516020611b4d833981519152604482015290519081900360640190fd5b6005819055610f516114a0565b6001600160a01b03167fb1ecd7e4230a9a3df1f119a3db9886f8bcc33ee9b72eb26a35ef00ebc0adbf45826040518082815260200191505060405180910390a250565b600080610f9f6109da565b90506000610fab61122c565b905080821015610ff95781810380851015610fe357816002026002860a8685600202020181610fd657fe5b0485600202039450610ff7565b8160020281820281610ff157fe5b04850194505b505b61100284611678565b949350505050565b6110126114a0565b6000546001600160a01b03908116911614611062576040805162461bcd60e51b81526020600482018190526024820152600080516020611b4d833981519152604482015290519081900360640190fd5b600880546001600160a01b0319166001600160a01b0383169081179091556110886114a0565b6001600160a01b03167f5a9fee097e5327c0cf46c740ffe28280bb735994808fd66d29c98c59f60e94ab60405160405180910390a350565b6110c86114a0565b6000546001600160a01b03908116911614611118576040805162461bcd60e51b81526020600482018190526024820152600080516020611b4d833981519152604482015290519081900360640190fd5b600480546001600160a01b0319166001600160a01b03831690811790915561113e6114a0565b6001600160a01b03167f6b280d88a71e3350b4e6b92556f8413347439e6bca3e3d9b21e93182d033d08760405160405180910390a350565b61117e6114a0565b6000546001600160a01b039081169116146111ce576040805162461bcd60e51b81526020600482018190526024820152600080516020611b4d833981519152604482015290519081900360640190fd5b600380546001600160a01b0319166001600160a01b0383169081179091556111f46114a0565b6001600160a01b03167ff9f4b296b0c32540acafb6c8937812d833013c92ebdc4c2ac0d9910132a1a26d60405160405180910390a350565b60015490565b60008061124783670de0b6b3a7640000611746565b905060006112c86112566112d4565b6001600160a01b031663546146e36040518163ffffffff1660e01b815260040160206040518083038186803b15801561128e57600080fd5b505afa1580156112a2573d6000803e3d6000fd5b505050506040513d60208110156112b857600080fd5b50516112c26109d4565b90611746565b905061100282826117a8565b6004546001600160a01b031690565b6112eb6114a0565b6000546001600160a01b0390811691161461133b576040805162461bcd60e51b81526020600482018190526024820152600080516020611b4d833981519152604482015290519081900360640190fd5b6001600160a01b0381166113805760405162461bcd60e51b8152600401808060200182810382526026815260200180611acf6026913960400191505060405180910390fd5b600080546040516001600160a01b03808516939216917f8be0079c531659141344cd1fd0a4f28419497f9722a3daafe3b4186f6b6457e091a3600080546001600160a01b0319166001600160a01b0392909216919091179055565b6113e36114a0565b6000546001600160a01b03908116911614611433576040805162461bcd60e51b81526020600482018190526024820152600080516020611b4d833981519152604482015290519081900360640190fd5b600280546001600160a01b0319166001600160a01b0383169081179091556114596114a0565b6001600160a01b03167f0ac46a0cbcde0e415f1af475b936c026f691219f577f7ffc28ad809761d787b660405160405180910390a350565b6002546001600160a01b031690565b3390565b604080516001600160a01b038416602482015260448082018490528251808303909101815260649091019091526020810180516001600160e01b031663a9059cbb60e01b179052610dc79084906117ea565b6114fe611491565b6001600160a01b031663449a52f883836040518363ffffffff1660e01b815260040180836001600160a01b0316815260200182815260200192505050600060405180830381600087803b15801561155457600080fd5b505af1158015611568573d6000803e3d6000fd5b505050505050565b600054600160a01b900460ff166115c5576040805162461bcd60e51b815260206004820152601460248201527314185d5cd8589b194e881b9bdd081c185d5cd95960621b604482015290519081900360640190fd5b6000805460ff60a01b191690557f5db9ee0a495bf2e6ff9c91a7834c1ba4fdd244a5e8aa4e537bd38aeae4b073aa6115fb6114a0565b604080516001600160a01b039092168252519081900360200190a1565b604080516001600160a01b0380861660248301528416604482015260648082018490528251808303909101815260849091019091526020810180516001600160e01b03166323b872dd60e01b1790526116729085906117ea565b50505050565b6000806000611685610a51565b91509150611002816001600160801b03166116b2846001600160801b03168761174690919063ffffffff16565b906117a8565b600054600160a01b900460ff161561170a576040805162461bcd60e51b815260206004820152601060248201526f14185d5cd8589b194e881c185d5cd95960821b604482015290519081900360640190fd5b6000805460ff60a01b1916600160a01b1790557f62e78cea01bee320cd4e420270b5ea74000d11b0c9f74754ebdbfc544b05a2586115fb6114a0565b600082611755575060006117a2565b8282028284828161176257fe5b041461179f5760405162461bcd60e51b8152600401808060200182810382526021815260200180611b2c6021913960400191505060405180910390fd5b90505b92915050565b600061179f83836040518060400160405280601a81526020017f536166654d6174683a206469766973696f6e206279207a65726f00000000000081525061189b565b600061183f826040518060400160405280602081526020017f5361666545524332303a206c6f772d6c6576656c2063616c6c206661696c6564815250856001600160a01b031661193d9092919063ffffffff16565b805190915015610dc75780806020019051602081101561185e57600080fd5b5051610dc75760405162461bcd60e51b815260040180806020018281038252602a815260200180611b6d602a913960400191505060405180910390fd5b600081836119275760405162461bcd60e51b81526004018080602001828103825283818151815260200191508051906020019080838360005b838110156118ec5781810151838201526020016118d4565b50505050905090810190601f1680156119195780820380516001836020036101000a031916815260200191505b509250505060405180910390fd5b50600083858161193357fe5b0495945050505050565b606061100284846000858561195185611a62565b6119a2576040805162461bcd60e51b815260206004820152601d60248201527f416464726573733a2063616c6c20746f206e6f6e2d636f6e7472616374000000604482015290519081900360640190fd5b600080866001600160a01b031685876040518082805190602001908083835b602083106119e05780518252601f1990920191602091820191016119c1565b6001836020036101000a03801982511681845116808217855250505050505090500191505060006040518083038185875af1925050503d8060008114611a42576040519150601f19603f3d011682016040523d82523d6000602084013e611a47565b606091505b5091509150611a57828286611a68565b979650505050505050565b3b151590565b60608315611a77575081610c2e565b825115611a875782518084602001fd5b60405162461bcd60e51b81526020600482018181528451602484015284518593919283926044019190850190808383600083156118ec5781810151838201526020016118d456fe4f776e61626c653a206e6577206f776e657220697320746865207a65726f20616464726573734554486d784d696e7465723a2063616e206f6e6c79206275726e20455448747820696620756e646572636f6c6c61746572616c697a6564536166654d6174683a206d756c7469706c69636174696f6e206f766572666c6f774f776e61626c653a2063616c6c6572206973206e6f7420746865206f776e65725361666545524332303a204552433230206f7065726174696f6e20646964206e6f742073756363656564a2646970667358221220f1224d64640df7aae942a5a845776253e236dfc4b030cabc28cff976cbdce4e964736f6c634300070600334f776e61626c653a206e6577206f776e657220697320746865207a65726f20616464726573734f776e61626c653a2063616c6c6572206973206e6f7420746865206f776e65728be0079c531659141344cd1fd0a4f28419497f9722a3daafe3b4186f6b6457e0",
  "devdoc": {
    "kind": "dev",
    "methods": {
      "owner()": {
        "details": "Returns the address of the current owner."
      },
      "paused()": {
        "details": "Returns true if the contract is paused, and false otherwise."
      },
      "renounceOwnership()": {
        "details": "Leaves the contract without owner. It will not be possible to call `onlyOwner` functions anymore. Can only be called by the current owner. NOTE: Renouncing ownership will leave the contract without an owner, thereby removing any functionality that is only available to the owner."
      },
      "transferOwnership(address)": {
        "details": "Transfers ownership of the contract to a new account (`newOwner`). Can only be called by the current owner."
      }
    },
    "version": 1
  },
  "userdoc": {
    "kind": "user",
    "methods": {},
    "version": 1
  },
  "storageLayout": {
    "storage": [
      {
        "astId": 912,
        "contract": "contracts/exchanges/ETHmxMinter.sol:ETHmxMinter",
        "label": "_owner",
        "offset": 0,
        "slot": "0",
        "type": "t_address"
      },
      {
        "astId": 2953,
        "contract": "contracts/exchanges/ETHmxMinter.sol:ETHmxMinter",
        "label": "_paused",
        "offset": 20,
        "slot": "0",
        "type": "t_bool"
      },
      {
        "astId": 3404,
        "contract": "contracts/exchanges/ETHmxMinter.sol:ETHmxMinter",
        "label": "_earlyThreshold",
        "offset": 0,
        "slot": "1",
        "type": "t_uint256"
      },
      {
        "astId": 3406,
        "contract": "contracts/exchanges/ETHmxMinter.sol:ETHmxMinter",
        "label": "_ethmx",
        "offset": 0,
        "slot": "2",
        "type": "t_address"
      },
      {
        "astId": 3408,
        "contract": "contracts/exchanges/ETHmxMinter.sol:ETHmxMinter",
        "label": "_ethtx",
        "offset": 0,
        "slot": "3",
        "type": "t_address"
      },
      {
        "astId": 3410,
        "contract": "contracts/exchanges/ETHmxMinter.sol:ETHmxMinter",
        "label": "_ethtxAMM",
        "offset": 0,
        "slot": "4",
        "type": "t_address"
      },
      {
        "astId": 3412,
        "contract": "contracts/exchanges/ETHmxMinter.sol:ETHmxMinter",
        "label": "_mintGasPrice",
        "offset": 0,
        "slot": "5",
        "type": "t_uint256"
      },
      {
        "astId": 3414,
        "contract": "contracts/exchanges/ETHmxMinter.sol:ETHmxMinter",
        "label": "_totalGiven",
        "offset": 0,
        "slot": "6",
        "type": "t_uint256"
      },
      {
        "astId": 3416,
        "contract": "contracts/exchanges/ETHmxMinter.sol:ETHmxMinter",
        "label": "_roiNum",
        "offset": 0,
        "slot": "7",
        "type": "t_uint128"
      },
      {
        "astId": 3418,
        "contract": "contracts/exchanges/ETHmxMinter.sol:ETHmxMinter",
        "label": "_roiDen",
        "offset": 16,
        "slot": "7",
        "type": "t_uint128"
      },
      {
        "astId": 3420,
        "contract": "contracts/exchanges/ETHmxMinter.sol:ETHmxMinter",
        "label": "_weth",
        "offset": 0,
        "slot": "8",
        "type": "t_address"
      }
    ],
    "types": {
      "t_address": {
        "encoding": "inplace",
        "label": "address",
        "numberOfBytes": "20"
      },
      "t_bool": {
        "encoding": "inplace",
        "label": "bool",
        "numberOfBytes": "1"
      },
      "t_uint128": {
        "encoding": "inplace",
        "label": "uint128",
        "numberOfBytes": "16"
      },
      "t_uint256": {
        "encoding": "inplace",
        "label": "uint256",
        "numberOfBytes": "32"
      }
    }
  }
}