{
  "address": "0xFe2052875Db787CCb92bC1A65868Dcc0fb5cBeE0",
  "abi": [
    {
      "inputs": [
        {
          "internalType": "address",
          "name": "owner_",
          "type": "address"
        }
      ],
      "stateMutability": "nonpayable",
      "type": "constructor"
    },
    {
      "anonymous": false,
      "inputs": [
        {
          "indexed": true,
          "internalType": "address",
          "name": "author",
          "type": "address"
        },
        {
          "indexed": false,
          "internalType": "uint256",
          "name": "interval",
          "type": "uint256"
        }
      ],
      "name": "AccrualUpdateIntervalSet",
      "type": "event"
    },
    {
      "anonymous": false,
      "inputs": [
        {
          "indexed": true,
          "internalType": "address",
          "name": "author",
          "type": "address"
        },
        {
          "indexed": false,
          "internalType": "uint256",
          "name": "accruedRewards",
          "type": "uint256"
        }
      ],
      "name": "AccrualUpdated",
      "type": "event"
    },
    {
      "anonymous": false,
      "inputs": [
        {
          "indexed": true,
          "internalType": "address",
          "name": "author",
          "type": "address"
        },
        {
          "indexed": true,
          "internalType": "address",
          "name": "account",
          "type": "address"
        }
      ],
      "name": "ETHmxSet",
      "type": "event"
    },
    {
      "anonymous": false,
      "inputs": [
        {
          "indexed": true,
          "internalType": "address",
          "name": "previousOwner",
          "type": "address"
        },
        {
          "indexed": true,
          "internalType": "address",
          "name": "newOwner",
          "type": "address"
        }
      ],
      "name": "OwnershipTransferred",
      "type": "event"
    },
    {
      "anonymous": false,
      "inputs": [
        {
          "indexed": false,
          "internalType": "address",
          "name": "account",
          "type": "address"
        }
      ],
      "name": "Paused",
      "type": "event"
    },
    {
      "anonymous": false,
      "inputs": [
        {
          "indexed": true,
          "internalType": "address",
          "name": "author",
          "type": "address"
        },
        {
          "indexed": true,
          "internalType": "address",
          "name": "to",
          "type": "address"
        },
        {
          "indexed": false,
          "internalType": "uint256",
          "name": "amount",
          "type": "uint256"
        }
      ],
      "name": "RecoveredUnredeemableRewards",
      "type": "event"
    },
    {
      "anonymous": false,
      "inputs": [
        {
          "indexed": true,
          "internalType": "address",
          "name": "author",
          "type": "address"
        },
        {
          "indexed": true,
          "internalType": "address",
          "name": "to",
          "type": "address"
        },
        {
          "indexed": false,
          "internalType": "uint256",
          "name": "amount",
          "type": "uint256"
        }
      ],
      "name": "RecoveredUnstaked",
      "type": "event"
    },
    {
      "anonymous": false,
      "inputs": [
        {
          "indexed": true,
          "internalType": "address",
          "name": "author",
          "type": "address"
        },
        {
          "indexed": true,
          "internalType": "address",
          "name": "token",
          "type": "address"
        },
        {
          "indexed": true,
          "internalType": "address",
          "name": "to",
          "type": "address"
        },
        {
          "indexed": false,
          "internalType": "uint256",
          "name": "amount",
          "type": "uint256"
        }
      ],
      "name": "RecoveredUnsupported",
      "type": "event"
    },
    {
      "anonymous": false,
      "inputs": [
        {
          "indexed": true,
          "internalType": "address",
          "name": "to",
          "type": "address"
        },
        {
          "indexed": false,
          "internalType": "uint256",
          "name": "amount",
          "type": "uint256"
        }
      ],
      "name": "RewardPaid",
      "type": "event"
    },
    {
      "anonymous": false,
      "inputs": [
        {
          "indexed": true,
          "internalType": "address",
          "name": "account",
          "type": "address"
        },
        {
          "indexed": false,
          "internalType": "uint256",
          "name": "amount",
          "type": "uint256"
        }
      ],
      "name": "Staked",
      "type": "event"
    },
    {
      "anonymous": false,
      "inputs": [
        {
          "indexed": false,
          "internalType": "address",
          "name": "account",
          "type": "address"
        }
      ],
      "name": "Unpaused",
      "type": "event"
    },
    {
      "anonymous": false,
      "inputs": [
        {
          "indexed": true,
          "internalType": "address",
          "name": "account",
          "type": "address"
        },
        {
          "indexed": false,
          "internalType": "uint256",
          "name": "amount",
          "type": "uint256"
        }
      ],
      "name": "Unstaked",
      "type": "event"
    },
    {
      "anonymous": false,
      "inputs": [
        {
          "indexed": true,
          "internalType": "address",
          "name": "author",
          "type": "address"
        },
        {
          "indexed": true,
          "internalType": "address",
          "name": "account",
          "type": "address"
        }
      ],
      "name": "WETHSet",
      "type": "event"
    },
    {
      "inputs": [],
      "name": "accrualUpdateInterval",
      "outputs": [
        {
          "internalType": "uint256",
          "name": "",
          "type": "uint256"
        }
      ],
      "stateMutability": "view",
      "type": "function"
    },
    {
      "inputs": [],
      "name": "accruedRewardsPerToken",
      "outputs": [
        {
          "internalType": "uint256",
          "name": "",
          "type": "uint256"
        }
      ],
      "stateMutability": "view",
      "type": "function"
    },
    {
      "inputs": [
        {
          "internalType": "address",
          "name": "account",
          "type": "address"
        }
      ],
      "name": "accruedRewardsPerTokenLast",
      "outputs": [
        {
          "internalType": "uint256",
          "name": "",
          "type": "uint256"
        }
      ],
      "stateMutability": "view",
      "type": "function"
    },
    {
      "inputs": [],
      "name": "ethmx",
      "outputs": [
        {
          "internalType": "address",
          "name": "",
          "type": "address"
        }
      ],
      "stateMutability": "view",
      "type": "function"
    },
    {
      "inputs": [],
      "name": "exit",
      "outputs": [],
      "stateMutability": "nonpayable",
      "type": "function"
    },
    {
      "inputs": [
        {
          "internalType": "address",
          "name": "owner_",
          "type": "address"
        }
      ],
      "name": "init",
      "outputs": [],
      "stateMutability": "nonpayable",
      "type": "function"
    },
    {
      "inputs": [],
      "name": "lastAccrualUpdate",
      "outputs": [
        {
          "internalType": "uint256",
          "name": "",
          "type": "uint256"
        }
      ],
      "stateMutability": "view",
      "type": "function"
    },
    {
      "inputs": [
        {
          "internalType": "address",
          "name": "account",
          "type": "address"
        }
      ],
      "name": "lastRewardsBalanceOf",
      "outputs": [
        {
          "internalType": "uint256",
          "name": "",
          "type": "uint256"
        }
      ],
      "stateMutability": "view",
      "type": "function"
    },
    {
      "inputs": [
        {
          "internalType": "address",
          "name": "account",
          "type": "address"
        }
      ],
      "name": "lastStakedBalanceOf",
      "outputs": [
        {
          "internalType": "uint256",
          "name": "",
          "type": "uint256"
        }
      ],
      "stateMutability": "view",
      "type": "function"
    },
    {
      "inputs": [],
      "name": "lastTotalRewardsAccrued",
      "outputs": [
        {
          "internalType": "uint256",
          "name": "",
          "type": "uint256"
        }
      ],
      "stateMutability": "view",
      "type": "function"
    },
    {
      "inputs": [],
      "name": "owner",
      "outputs": [
        {
          "internalType": "address",
          "name": "",
          "type": "address"
        }
      ],
      "stateMutability": "view",
      "type": "function"
    },
    {
      "inputs": [],
      "name": "pause",
      "outputs": [],
      "stateMutability": "nonpayable",
      "type": "function"
    },
    {
      "inputs": [],
      "name": "paused",
      "outputs": [
        {
          "internalType": "bool",
          "name": "",
          "type": "bool"
        }
      ],
      "stateMutability": "view",
      "type": "function"
    },
    {
      "inputs": [
        {
          "components": [
            {
              "internalType": "address",
              "name": "ethmx",
              "type": "address"
            },
            {
              "internalType": "address",
              "name": "weth",
              "type": "address"
            },
            {
              "internalType": "uint256",
              "name": "accrualUpdateInterval",
              "type": "uint256"
            }
          ],
          "internalType": "struct ETHmxRewards.ETHmxRewardsArgs",
          "name": "_args",
          "type": "tuple"
        }
      ],
      "name": "postInit",
      "outputs": [],
      "stateMutability": "nonpayable",
      "type": "function"
    },
    {
      "inputs": [],
      "name": "readyForUpdate",
      "outputs": [
        {
          "internalType": "bool",
          "name": "",
          "type": "bool"
        }
      ],
      "stateMutability": "view",
      "type": "function"
    },
    {
      "inputs": [
        {
          "internalType": "address",
          "name": "to",
          "type": "address"
        },
        {
          "internalType": "uint256",
          "name": "amount",
          "type": "uint256"
        }
      ],
      "name": "recoverUnredeemableRewards",
      "outputs": [],
      "stateMutability": "nonpayable",
      "type": "function"
    },
    {
      "inputs": [
        {
          "internalType": "address",
          "name": "to",
          "type": "address"
        },
        {
          "internalType": "uint256",
          "name": "amount",
          "type": "uint256"
        }
      ],
      "name": "recoverUnstaked",
      "outputs": [],
      "stateMutability": "nonpayable",
      "type": "function"
    },
    {
      "inputs": [
        {
          "internalType": "address",
          "name": "token",
          "type": "address"
        },
        {
          "internalType": "address",
          "name": "to",
          "type": "address"
        },
        {
          "internalType": "uint256",
          "name": "amount",
          "type": "uint256"
        }
      ],
      "name": "recoverUnsupportedERC20",
      "outputs": [],
      "stateMutability": "nonpayable",
      "type": "function"
    },
    {
      "inputs": [],
      "name": "redeemAllRewards",
      "outputs": [],
      "stateMutability": "nonpayable",
      "type": "function"
    },
    {
      "inputs": [
        {
          "internalType": "uint256",
          "name": "amount",
          "type": "uint256"
        }
      ],
      "name": "redeemReward",
      "outputs": [],
      "stateMutability": "nonpayable",
      "type": "function"
    },
    {
      "inputs": [],
      "name": "renounceOwnership",
      "outputs": [],
      "stateMutability": "nonpayable",
      "type": "function"
    },
    {
      "inputs": [
        {
          "internalType": "address",
          "name": "account",
          "type": "address"
        }
      ],
      "name": "rewardsBalanceOf",
      "outputs": [
        {
          "internalType": "uint256",
          "name": "",
          "type": "uint256"
        }
      ],
      "stateMutability": "view",
      "type": "function"
    },
    {
      "inputs": [
        {
          "internalType": "uint256",
          "name": "interval",
          "type": "uint256"
        }
      ],
      "name": "setAccrualUpdateInterval",
      "outputs": [],
      "stateMutability": "nonpayable",
      "type": "function"
    },
    {
      "inputs": [
        {
          "internalType": "address",
          "name": "account",
          "type": "address"
        }
      ],
      "name": "setEthmx",
      "outputs": [],
      "stateMutability": "nonpayable",
      "type": "function"
    },
    {
      "inputs": [
        {
          "internalType": "address",
          "name": "account",
          "type": "address"
        }
      ],
      "name": "setWeth",
      "outputs": [],
      "stateMutability": "nonpayable",
      "type": "function"
    },
    {
      "inputs": [
        {
          "internalType": "uint256",
          "name": "amount",
          "type": "uint256"
        }
      ],
      "name": "stake",
      "outputs": [],
      "stateMutability": "nonpayable",
      "type": "function"
    },
    {
      "inputs": [
        {
          "internalType": "address",
          "name": "account",
          "type": "address"
        }
      ],
      "name": "stakedBalanceOf",
      "outputs": [
        {
          "internalType": "uint256",
          "name": "",
          "type": "uint256"
        }
      ],
      "stateMutability": "view",
      "type": "function"
    },
    {
      "inputs": [],
      "name": "totalRewardsAccrued",
      "outputs": [
        {
          "internalType": "uint256",
          "name": "",
          "type": "uint256"
        }
      ],
      "stateMutability": "view",
      "type": "function"
    },
    {
      "inputs": [],
      "name": "totalRewardsRedeemed",
      "outputs": [
        {
          "internalType": "uint256",
          "name": "",
          "type": "uint256"
        }
      ],
      "stateMutability": "view",
      "type": "function"
    },
    {
      "inputs": [],
      "name": "totalStaked",
      "outputs": [
        {
          "internalType": "uint256",
          "name": "",
          "type": "uint256"
        }
      ],
      "stateMutability": "view",
      "type": "function"
    },
    {
      "inputs": [
        {
          "internalType": "address",
          "name": "newOwner",
          "type": "address"
        }
      ],
      "name": "transferOwnership",
      "outputs": [],
      "stateMutability": "nonpayable",
      "type": "function"
    },
    {
      "inputs": [],
      "name": "unpause",
      "outputs": [],
      "stateMutability": "nonpayable",
      "type": "function"
    },
    {
      "inputs": [],
      "name": "unredeemableRewards",
      "outputs": [
        {
          "internalType": "uint256",
          "name": "",
          "type": "uint256"
        }
      ],
      "stateMutability": "view",
      "type": "function"
    },
    {
      "inputs": [
        {
          "internalType": "uint256",
          "name": "amount",
          "type": "uint256"
        }
      ],
      "name": "unstake",
      "outputs": [],
      "stateMutability": "nonpayable",
      "type": "function"
    },
    {
      "inputs": [],
      "name": "unstakeAll",
      "outputs": [],
      "stateMutability": "nonpayable",
      "type": "function"
    },
    {
      "inputs": [],
      "name": "updateAccrual",
      "outputs": [],
      "stateMutability": "nonpayable",
      "type": "function"
    },
    {
      "inputs": [],
      "name": "updateReward",
      "outputs": [],
      "stateMutability": "nonpayable",
      "type": "function"
    },
    {
      "inputs": [],
      "name": "weth",
      "outputs": [
        {
          "internalType": "address",
          "name": "",
          "type": "address"
        }
      ],
      "stateMutability": "view",
      "type": "function"
    }
  ],
  "transactionHash": "0x4e7abe6d8641808b66864c9c5b862ce0652e4f696d63641c0e20543d98ea0488",
  "args": [
    "0x5757Dd711EaE80e181E07CdbCe43359Ac1048394"
  ],
  "solcInputHash": "dce8ce70f69a6af015380cad047f4734",
  "bytecode": "0x60806040523480156200001157600080fd5b5060405162002e8438038062002e848339810160408190526200003491620003b6565b6200003f8162000046565b50620003e6565b600054610100900460ff16806200006257506200006262000142565b8062000071575060005460ff16155b620000ae5760405162461bcd60e51b815260040180806020018281038252602e81526020018062002e56602e913960400191505060405180910390fd5b600054610100900460ff16158015620000da576000805460ff1961ff0019909116610100171660011790555b620000e462000160565b620000ef826200020a565b620000f9620002fd565b6099805460018101825560009182527f72a152ddfb8e864297c917af52ea6c1c68aead0fee1a62673fcc7e0c94979d00015580156200013e576000805461ff00191690555b5050565b60006200015a30620003b060201b620016f61760201c565b15905090565b600054610100900460ff16806200017c57506200017c62000142565b806200018b575060005460ff16155b620001c85760405162461bcd60e51b815260040180806020018281038252602e81526020018062002e56602e913960400191505060405180910390fd5b600054610100900460ff16158015620001f4576000805460ff1961ff0019909116610100171660011790555b801562000207576000805461ff00191690555b50565b600054610100900460ff16806200022657506200022662000142565b8062000235575060005460ff16155b620002725760405162461bcd60e51b815260040180806020018281038252602e81526020018062002e56602e913960400191505060405180910390fd5b600054610100900460ff161580156200029e576000805460ff1961ff0019909116610100171660011790555b603380546001600160a01b0319166001600160a01b0384169081179091556040516000907f8be0079c531659141344cd1fd0a4f28419497f9722a3daafe3b4186f6b6457e0908290a380156200013e576000805461ff00191690555050565b600054610100900460ff16806200031957506200031962000142565b8062000328575060005460ff16155b620003655760405162461bcd60e51b815260040180806020018281038252602e81526020018062002e56602e913960400191505060405180910390fd5b600054610100900460ff1615801562000391576000805460ff1961ff0019909116610100171660011790555b6065805460ff19169055801562000207576000805461ff001916905550565b3b151590565b600060208284031215620003c8578081fd5b81516001600160a01b0381168114620003df578182fd5b9392505050565b612a6080620003f66000396000f3fe608060405234801561001057600080fd5b50600436106102325760003560e01c80638456cb5911610130578063bfb0efab116100b8578063e7a203691161007c578063e7a2036914610421578063e9fad8ee14610429578063f2fde38b14610431578063f36c0a7214610444578063fa750d581461044c57610232565b8063bfb0efab146103d8578063c3027010146103e0578063c42ac226146103f3578063d8aa0aa514610406578063e1b52ffa1461040e57610232565b806395a1297a116100ff57806395a1297a1461038f578063a694fc3a14610397578063b8d1452f146103aa578063bd2e9c4e146103bd578063be4c86f2146103c557610232565b80638456cb5914610364578063860c19f31461036c57806386a86d41146103745780638da5cb5b1461038757610232565b806345e83ea9116101be578063715018a611610182578063715018a61461033c57806375f22f3a146103445780637f86ce301461034c578063817b1cd214610354578063832d40f21461035c57610232565b806345e83ea9146102db5780634fa2741d146102ee57806351a71b17146103015780635530429b146103145780635c975abb1461032757610232565b806333dc41c71161020557806333dc41c71461029b57806335322f37146102ae5780633ad66127146102b65780633f4ba83a146102be5780633fc8cef3146102c657610232565b80631482436614610237578063167653911461024c57806319ab453c146102755780632e17de7814610288575b600080fd5b61024a6102453660046125c7565b610454565b005b61025f61025a3660046124e8565b610505565b60405161026c91906128e7565b60405180910390f35b61024a6102833660046124e8565b610698565b61024a6102963660046125c7565b610786565b61025f6102a93660046124e8565b61082e565b61024a6109d3565b61024a610a0f565b61024a610a64565b6102ce610ad0565b60405161026c91906125f7565b61024a6102e9366004612566565b610ae0565b61025f6102fc3660046124e8565b610c3f565b61024a61030f3660046125c7565b610c5a565b61024a61032236600461253d565b610cce565b61032f610dfa565b60405161026c919061260b565b61024a610e03565b61024a610eaf565b61025f610ee8565b61025f610f04565b61025f610f0a565b61024a610f10565b61025f610f7a565b61024a610382366004612502565b610f8d565b6102ce6110d6565b61025f6110e5565b61024a6103a53660046125c7565b6110eb565b61024a6103b83660046124e8565b61120e565b61025f6112ce565b61024a6103d336600461253d565b6112f4565b61032f61147a565b61024a6103ee3660046124e8565b61149f565b61025f6104013660046124e8565b61155f565b61025f611599565b61025f61041c3660046124e8565b61159f565b61025f6115ba565b61024a6115c0565b61024a61043f3660046124e8565b6115d4565b61024a6116d7565b6102ce6116e7565b61045c6116fc565b6001600160a01b031661046d6110d6565b6001600160a01b0316146104b6576040805162461bcd60e51b815260206004820181905260248201526000805160206129ac833981519152604482015290519081900360640190fd5b609c8190556104c36116fc565b6001600160a01b03167e4b735c73896be679585edaa8f0c947a38d34100bb0088d0b41c28953a2df50826040516104fa91906128e7565b60405180910390a250565b6001600160a01b038116600090815260a060205260408120548061052d576000915050610693565b6000609980548060200260200160405190810160405280929190818152602001828054801561057b57602002820191906000526020600020905b815481526020019060010190808311610567575b505083519394506000925084915050600019830183811061059857fe5b602002602001015190506000609a6000886001600160a01b03166001600160a01b0316815260200190815260200160002054905060008482815181106105da57fe5b60200260200101518303905080600014156105fd57859650505050505050610693565b6000600183015b858110156106885786600182038151811061061b57fe5b602002602001015187828151811061062f57fe5b60200260200101510392506a0c097ce7bc90715b34b9f160241b83106106585760009750610688565b6a0c097ce7bc90715b34b9f160241b6106718985611700565b8161067857fe5b0497889003979150600101610604565b509596505050505050505b919050565b600054610100900460ff16806106b157506106b1611762565b806106bf575060005460ff16155b6106fa5760405162461bcd60e51b815260040180806020018281038252602e81526020018061295d602e913960400191505060405180910390fd5b600054610100900460ff16158015610725576000805460ff1961ff0019909116610100171660011790555b61072d611773565b61073682611814565b61073e6118ff565b6099805460018101825560009182527f72a152ddfb8e864297c917af52ea6c1c68aead0fee1a62673fcc7e0c94979d0001558015610782576000805461ff00191690555b5050565b806107ac5760405162461bcd60e51b81526004016107a390612853565b60405180910390fd5b60006107b66116fc565b6001600160a01b038116600090815260a060205260409020549091508211156107f15760405162461bcd60e51b81526004016107a3906126b5565b6107fa816119aa565b6001600160a01b038116600090815260a060205260409020548083111561081f578092505b6108298284611b92565b505050565b6001600160a01b0381166000908152609d602090815260408083205460a09092528220548061085f57509050610693565b600060998054806020026020016040519081016040528092919081815260200182805480156108ad57602002820191906000526020600020905b815481526020019060010190808311610899575b50508351939450600092508491505060001983018381106108ca57fe5b602002602001015190506000609a6000896001600160a01b03166001600160a01b03168152602001908152602001600020549050600084828151811061090c57fe5b60200260200101518303905080600014156109305786975050505050505050610693565b6000600183015b858110156109c45786600182038151811061094e57fe5b602002602001015187828151811061096257fe5b60200260200101510392506a0c097ce7bc90715b34b9f160241b8310610990578789019850600097506109c4565b6a0c097ce7bc90715b34b9f160241b6109a98985611700565b816109b057fe5b049889019897889003979150600101610937565b50969998505050505050505050565b60006109dd6116fc565b90506109e8816119aa565b6001600160a01b038116600090815260a06020526040902054610a0c908290611b92565b50565b6000610a38609b546040518060600160405280603581526020016129cc60359139429190611c11565b9050609c54811015610a5c5760405162461bcd60e51b81526004016107a3906127b7565b610a0c611cad565b610a6c6116fc565b6001600160a01b0316610a7d6110d6565b6001600160a01b031614610ac6576040805162461bcd60e51b815260206004820181905260248201526000805160206129ac833981519152604482015290519081900360640190fd5b610ace611e4d565b565b6098546001600160a01b03165b90565b610ae86116fc565b6001600160a01b0316610af96110d6565b6001600160a01b031614610b42576040805162461bcd60e51b815260206004820181905260248201526000805160206129ac833981519152604482015290519081900360640190fd5b6000610b4c6116fc565b8251609780546001600160a01b0319166001600160a01b0392831690811790915560405192935091908316907f6a6385201509d23863582a062d6a56319bdf8ada59b6ce3239bbd1d22250fe2190600090a36020820151609880546001600160a01b0319166001600160a01b0392831690811790915560405190918316907f9cfa0588ff5ff3789d20735024d004bfb8db496d5117712e136adbfe97af41d790600090a3604080830151609c81905590516001600160a01b038316917e4b735c73896be679585edaa8f0c947a38d34100bb0088d0b41c28953a2df5091610c3391906128e7565b60405180910390a25050565b6001600160a01b0316600090815260a0602052604090205490565b80610c775760405162461bcd60e51b81526004016107a390612741565b6000610c816116fc565b9050610c8c816119aa565b6001600160a01b0381166000908152609d6020526040902054821115610cc45760405162461bcd60e51b81526004016107a3906127ff565b6107828183611eed565b610cd66116fc565b6001600160a01b0316610ce76110d6565b6001600160a01b031614610d30576040805162461bcd60e51b815260206004820181905260248201526000805160206129ac833981519152604482015290519081900360640190fd5b60008052609d60205260008051602061291783398151915254811115610d685760405162461bcd60e51b81526004016107a390612658565b60008052609d60205260008051602061291783398151915280548290039055610da48282610d94610ad0565b6001600160a01b03169190611f5a565b816001600160a01b0316610db66116fc565b6001600160a01b03167fe4cedce8a9da6a4cd7794b1b6bbba077e9cb7bba00eeb3b7152926cd378f023c83604051610dee91906128e7565b60405180910390a35050565b60655460ff1690565b610e0b6116fc565b6001600160a01b0316610e1c6110d6565b6001600160a01b031614610e65576040805162461bcd60e51b815260206004820181905260248201526000805160206129ac833981519152604482015290519081900360640190fd5b6033546040516000916001600160a01b0316907f8be0079c531659141344cd1fd0a4f28419497f9722a3daafe3b4186f6b6457e0908390a3603380546001600160a01b0319169055565b6000610eb96116fc565b9050610ec4816119aa565b6001600160a01b0381166000908152609d6020526040902054610a0c908290611eed565b60008052609d6020526000805160206129178339815191525490565b60a15490565b609c5490565b610f186116fc565b6001600160a01b0316610f296110d6565b6001600160a01b031614610f72576040805162461bcd60e51b815260206004820181905260248201526000805160206129ac833981519152604482015290519081900360640190fd5b610ace611fac565b6000609f54610f8761202f565b01905090565b610f956116fc565b6001600160a01b0316610fa66110d6565b6001600160a01b031614610fef576040805162461bcd60e51b815260206004820181905260248201526000805160206129ac833981519152604482015290519081900360640190fd5b610ff76116e7565b6001600160a01b0316836001600160a01b031614156110285760405162461bcd60e51b81526004016107a390612616565b611030610ad0565b6001600160a01b0316836001600160a01b031614156110615760405162461bcd60e51b81526004016107a390612776565b6110756001600160a01b0384168383611f5a565b816001600160a01b0316836001600160a01b03166110916116fc565b6001600160a01b03167feaf4cea276efdcae93a52ca2f4bfdd952992169289bf655b1870a4b20bdae7d6846040516110c991906128e7565b60405180910390a4505050565b6033546001600160a01b031690565b609f5490565b6110f3610dfa565b15611138576040805162461bcd60e51b815260206004820152601060248201526f14185d5cd8589b194e881c185d5cd95960821b604482015290519081900360640190fd5b806111555760405162461bcd60e51b81526004016107a39061270a565b600061115f6116fc565b905061116a816119aa565b6001600160a01b038116600090815260a0602052604090205461118d90836120b9565b6001600160a01b038216600090815260a0602052604090205560a1546111b390836120b9565b60a1556111d58130846111c46116e7565b6001600160a01b0316929190612113565b806001600160a01b03167f9e71bc8eea02a63969f509818f2dafb9254532904319f9dbda79b67bd34a5f3d83604051610c3391906128e7565b6112166116fc565b6001600160a01b03166112276110d6565b6001600160a01b031614611270576040805162461bcd60e51b815260206004820181905260248201526000805160206129ac833981519152604482015290519081900360640190fd5b609880546001600160a01b0319166001600160a01b0383169081179091556112966116fc565b6001600160a01b03167f9cfa0588ff5ff3789d20735024d004bfb8db496d5117712e136adbfe97af41d760405160405180910390a350565b609980546000919060001981019081106112e457fe5b9060005260206000200154905090565b6112fc6116fc565b6001600160a01b031661130d6110d6565b6001600160a01b031614611356576040805162461bcd60e51b815260206004820181905260248201526000805160206129ac833981519152604482015290519081900360640190fd5b60006113606116e7565b905060006113ec60a154836001600160a01b03166370a08231306040518263ffffffff1660e01b815260040161139691906125f7565b60206040518083038186803b1580156113ae57600080fd5b505afa1580156113c2573d6000803e3d6000fd5b505050506040513d601f19601f820116820180604052508101906113e691906125df565b90612173565b90508083111561140e5760405162461bcd60e51b81526004016107a390612894565b6114226001600160a01b0383168585611f5a565b836001600160a01b03166114346116fc565b6001600160a01b03167f53061b1554d64699da405094f2b9eb0b116d63ed32e1371be0e49988b1ae4ef88560405161146c91906128e7565b60405180910390a350505050565b600042609b54111561148e57506000610add565b50609b54609c544291909103101590565b6114a76116fc565b6001600160a01b03166114b86110d6565b6001600160a01b031614611501576040805162461bcd60e51b815260206004820181905260248201526000805160206129ac833981519152604482015290519081900360640190fd5b609780546001600160a01b0319166001600160a01b0383169081179091556115276116fc565b6001600160a01b03167f6a6385201509d23863582a062d6a56319bdf8ada59b6ce3239bbd1d22250fe2160405160405180910390a350565b6001600160a01b0381166000908152609a602052604081205460998054909190811061158757fe5b90600052602060002001549050919050565b609b5490565b6001600160a01b03166000908152609d602052604090205490565b609e5490565b60006115ca6116fc565b9050610ec46109d3565b6115dc6116fc565b6001600160a01b03166115ed6110d6565b6001600160a01b031614611636576040805162461bcd60e51b815260206004820181905260248201526000805160206129ac833981519152604482015290519081900360640190fd5b6001600160a01b03811661167b5760405162461bcd60e51b81526004018080602001828103825260268152602001806128f16026913960400191505060405180910390fd5b6033546040516001600160a01b038084169216907f8be0079c531659141344cd1fd0a4f28419497f9722a3daafe3b4186f6b6457e090600090a3603380546001600160a01b0319166001600160a01b0392909216919091179055565b610ace6116e26116fc565b6119aa565b6097546001600160a01b031690565b3b151590565b3390565b60008261170f5750600061175c565b8282028284828161171c57fe5b04146117595760405162461bcd60e51b815260040180806020018281038252602181526020018061298b6021913960400191505060405180910390fd5b90505b92915050565b600061176d306116f6565b15905090565b600054610100900460ff168061178c575061178c611762565b8061179a575060005460ff16155b6117d55760405162461bcd60e51b815260040180806020018281038252602e81526020018061295d602e913960400191505060405180910390fd5b600054610100900460ff16158015611800576000805460ff1961ff0019909116610100171660011790555b8015610a0c576000805461ff001916905550565b600054610100900460ff168061182d575061182d611762565b8061183b575060005460ff16155b6118765760405162461bcd60e51b815260040180806020018281038252602e81526020018061295d602e913960400191505060405180910390fd5b600054610100900460ff161580156118a1576000805460ff1961ff0019909116610100171660011790555b603380546001600160a01b0319166001600160a01b0384169081179091556040516000907f8be0079c531659141344cd1fd0a4f28419497f9722a3daafe3b4186f6b6457e0908290a38015610782576000805461ff00191690555050565b600054610100900460ff16806119185750611918611762565b80611926575060005460ff16155b6119615760405162461bcd60e51b815260040180806020018281038252602e81526020018061295d602e913960400191505060405180910390fd5b600054610100900460ff1615801561198c576000805460ff1961ff0019909116610100171660011790555b6065805460ff191690558015610a0c576000805461ff001916905550565b600060998054806020026020016040519081016040528092919081815260200182805480156119f857602002820191906000526020600020905b8154815260200190600101908083116119e4575b5050835193945060009250849150506000198301838110611a1557fe5b602002602001015190506000609a6000866001600160a01b03166001600160a01b031681526020019081526020016000205490506000848281518110611a5757fe5b6020908102919091018101516001600160a01b038816600090815260a08352604080822054609a90945290206000198701905584039150801580611a99575081155b15611aa957505050505050610a0c565b600080600185015b87811015611b3d57886001820381518110611ac857fe5b6020026020010151898281518110611adc57fe5b60200260200101510394506a0c097ce7bc90715b34b9f160241b8510611b09576000939190910190611b3d565b6a0c097ce7bc90715b34b9f160241b611b228587611700565b81611b2957fe5b049384900393925090820190600101611ab1565b506001600160a01b038916600090815260a060209081526040808320869055609d909152902054611b6e90826120b9565b6001600160a01b038a166000908152609d6020526040902055505050505050505050565b80611b9c57610782565b6001600160a01b038216600090815260a0602052604090208054829003905560a154611bc89082612173565b60a155611bd88282610d946116e7565b816001600160a01b03167f0f5bb82176feb1b5e747e28471aa92156a04d9f3ab9f45f28e2d704232b93f7582604051610c3391906128e7565b60008184841115611ca05760405162461bcd60e51b81526004018080602001828103825283818151815260200191508051906020019080838360005b83811015611c65578181015183820152602001611c4d565b50505050905090810190601f168015611c925780820380516001836020036101000a031916815260200191505b509250505060405180910390fd5b50508183035b9392505050565b6000611cb7610f7a565b609e54909150810380611ccb575050610ace565b60a15480821015611d4f576000611ce06112ce565b905081611cfb846a0c097ce7bc90715b34b9f160241b611700565b81611d0257fe5b60998054600181018255600091909152919004919091017f72a152ddfb8e864297c917af52ea6c1c68aead0fee1a62673fcc7e0c94979d00909101819055611d49836121d0565b50611df7565b60008052609d6020526000805160206129178339815191525481830390611d7690826120b9565b60008052609d602052600080516020612917833981519152558115611df5576000611d9f6112ce565b609980546001810182556000919091526a0c097ce7bc90715b34b9f160241b9091017f72a152ddfb8e864297c917af52ea6c1c68aead0fee1a62673fcc7e0c94979d009091018190559050611df3836121d0565b505b505b609e83905542609b55611e086116fc565b6001600160a01b03167fcc40b32ccae09bbf703954e57f794bd4be4f1aa1098eba7871af6c47ad89ae7784604051611e4091906128e7565b60405180910390a2505050565b611e55610dfa565b611e9d576040805162461bcd60e51b815260206004820152601460248201527314185d5cd8589b194e881b9bdd081c185d5cd95960621b604482015290519081900360640190fd5b6065805460ff191690557f5db9ee0a495bf2e6ff9c91a7834c1ba4fdd244a5e8aa4e537bd38aeae4b073aa611ed06116fc565b604080516001600160a01b039092168252519081900360200190a1565b6001600160a01b0382166000908152609d6020526040902080548290039055609f805482019055611f218282610d94610ad0565b816001600160a01b03167fe2403640ba68fed3a2f88b7557551d1993f84b99bb10ff833f0cf8db0c5e048682604051610c3391906128e7565b604080516001600160a01b038416602482015260448082018490528251808303909101815260649091019091526020810180516001600160e01b031663a9059cbb60e01b179052610829908490612248565b611fb4610dfa565b15611ff9576040805162461bcd60e51b815260206004820152601060248201526f14185d5cd8589b194e881c185d5cd95960821b604482015290519081900360640190fd5b6065805460ff191660011790557f62e78cea01bee320cd4e420270b5ea74000d11b0c9f74754ebdbfc544b05a258611ed06116fc565b6000612039610ad0565b6001600160a01b03166370a08231306040518263ffffffff1660e01b815260040161206491906125f7565b60206040518083038186803b15801561207c57600080fd5b505afa158015612090573d6000803e3d6000fd5b505050506040513d601f19601f820116820180604052508101906120b491906125df565b905090565b600082820183811015611759576040805162461bcd60e51b815260206004820152601b60248201527f536166654d6174683a206164646974696f6e206f766572666c6f770000000000604482015290519081900360640190fd5b604080516001600160a01b0380861660248301528416604482015260648082018490528251808303909101815260849091019091526020810180516001600160e01b03166323b872dd60e01b17905261216d908590612248565b50505050565b6000828211156121ca576040805162461bcd60e51b815260206004820152601e60248201527f536166654d6174683a207375627472616374696f6e206f766572666c6f770000604482015290519081900360640190fd5b50900390565b60a1546121dd9082612173565b60a1556121e86116e7565b6001600160a01b03166342966c68826040518263ffffffff1660e01b815260040161221391906128e7565b600060405180830381600087803b15801561222d57600080fd5b505af1158015612241573d6000803e3d6000fd5b5050505050565b600061229d826040518060400160405280602081526020017f5361666545524332303a206c6f772d6c6576656c2063616c6c206661696c6564815250856001600160a01b03166122f99092919063ffffffff16565b805190915015610829578080602001905160208110156122bc57600080fd5b50516108295760405162461bcd60e51b815260040180806020018281038252602a815260200180612a01602a913960400191505060405180910390fd5b60606123088484600085612310565b949350505050565b6060824710156123515760405162461bcd60e51b81526004018080602001828103825260268152602001806129376026913960400191505060405180910390fd5b61235a856116f6565b6123ab576040805162461bcd60e51b815260206004820152601d60248201527f416464726573733a2063616c6c20746f206e6f6e2d636f6e7472616374000000604482015290519081900360640190fd5b600080866001600160a01b031685876040518082805190602001908083835b602083106123e95780518252601f1990920191602091820191016123ca565b6001836020036101000a03801982511681845116808217855250505050505090500191505060006040518083038185875af1925050503d806000811461244b576040519150601f19603f3d011682016040523d82523d6000602084013e612450565b606091505b509150915061246082828661246b565b979650505050505050565b6060831561247a575081611ca6565b82511561248a5782518084602001fd5b60405162461bcd60e51b8152602060048201818152845160248401528451859391928392604401919085019080838360008315611c65578181015183820152602001611c4d565b80356001600160a01b038116811461069357600080fd5b6000602082840312156124f9578081fd5b611ca6826124d1565b600080600060608486031215612516578182fd5b61251f846124d1565b925061252d602085016124d1565b9150604084013590509250925092565b6000806040838503121561254f578182fd5b612558836124d1565b946020939093013593505050565b600060608284031215612577578081fd5b6040516060810181811067ffffffffffffffff8211171561259457fe5b6040526125a0836124d1565b81526125ae602084016124d1565b6020820152604083013560408201528091505092915050565b6000602082840312156125d8578081fd5b5035919050565b6000602082840312156125f0578081fd5b5051919050565b6001600160a01b0391909116815260200190565b901515815260200190565b60208082526022908201527f4554486d78526577617264733a2063616e6e6f74207265636f766572204554486040820152610daf60f31b606082015260800190565b60208082526037908201527f4554486d78526577617264733a207265636f7665727920616d6f756e7420677260408201527f6561746572207468616e20756e72656465656d61626c65000000000000000000606082015260800190565b60208082526035908201527f4554486d78526577617264733a2063616e6e6f7420756e7374616b65206d6f7260408201527465207468616e207374616b65642062616c616e636560581b606082015260800190565b6020808252601f908201527f4554486d78526577617264733a2063616e6e6f74207374616b65207a65726f00604082015260600190565b6020808252818101527f4554486d78526577617264733a2063616e6e6f742072656465656d207a65726f604082015260600190565b60208082526021908201527f4554486d78526577617264733a2063616e6e6f74207265636f766572205745546040820152600960fb1b606082015260800190565b60208082526028908201527f4554486d78526577617264733a20746f6f20736f6f6e20746f20757064617465604082015267081858d8dc9d585b60c21b606082015260800190565b60208082526034908201527f4554486d78526577617264733a2063616e6e6f742072656465656d206d6f7265604082015273081c995dd85c991cc81d1a185b8819585c9b995960621b606082015260800190565b60208082526021908201527f4554486d78526577617264733a2063616e6e6f7420756e7374616b65207a65726040820152606f60f81b606082015260800190565b60208082526033908201527f4554486d78526577617264733a207265636f7665727920616d6f756e7420677260408201527219585d195c881d1a185b881d5b9cdd185ad959606a1b606082015260800190565b9081526020019056fe4f776e61626c653a206e6577206f776e657220697320746865207a65726f2061646472657373c5dc36ae4e7617e4c4d23ddfcde33c79e9ed64c300aed766a9288a6b9b31f63d416464726573733a20696e73756666696369656e742062616c616e636520666f722063616c6c496e697469616c697a61626c653a20636f6e747261637420697320616c726561647920696e697469616c697a6564536166654d6174683a206d756c7469706c69636174696f6e206f766572666c6f774f776e61626c653a2063616c6c6572206973206e6f7420746865206f776e65724554486d78526577617264733a20626c6f636b206973206f6c646572207468616e206c617374206163637275616c207570646174655361666545524332303a204552433230206f7065726174696f6e20646964206e6f742073756363656564a26469706673582212201458ae5efc11932e4dd5a4be9c9b14df37ff2244a9ee3661e6ff6d61ed5aa54364736f6c63430007060033496e697469616c697a61626c653a20636f6e747261637420697320616c726561647920696e697469616c697a6564",
  "devdoc": {
    "kind": "dev",
    "methods": {
      "owner()": {
        "details": "Returns the address of the current owner."
      },
      "paused()": {
        "details": "Returns true if the contract is paused, and false otherwise."
      },
      "renounceOwnership()": {
        "details": "Leaves the contract without owner. It will not be possible to call `onlyOwner` functions anymore. Can only be called by the current owner. NOTE: Renouncing ownership will leave the contract without an owner, thereby removing any functionality that is only available to the owner."
      },
      "transferOwnership(address)": {
        "details": "Transfers ownership of the contract to a new account (`newOwner`). Can only be called by the current owner."
      }
    },
    "version": 1
  },
  "userdoc": {
    "kind": "user",
    "methods": {},
    "version": 1
  },
  "storageLayout": {
    "storage": [
      {
        "astId": 6,
        "contract": "contracts/rewards/ETHmxRewards/ETHmxRewards.sol:ETHmxRewards",
        "label": "_initialized",
        "offset": 0,
        "slot": "0",
        "type": "t_bool"
      },
      {
        "astId": 9,
        "contract": "contracts/rewards/ETHmxRewards/ETHmxRewards.sol:ETHmxRewards",
        "label": "_initializing",
        "offset": 1,
        "slot": "0",
        "type": "t_bool"
      },
      {
        "astId": 353,
        "contract": "contracts/rewards/ETHmxRewards/ETHmxRewards.sol:ETHmxRewards",
        "label": "__gap",
        "offset": 0,
        "slot": "1",
        "type": "t_array(t_uint256)50_storage"
      },
      {
        "astId": 3458,
        "contract": "contracts/rewards/ETHmxRewards/ETHmxRewards.sol:ETHmxRewards",
        "label": "_owner",
        "offset": 0,
        "slot": "51",
        "type": "t_address"
      },
      {
        "astId": 3577,
        "contract": "contracts/rewards/ETHmxRewards/ETHmxRewards.sol:ETHmxRewards",
        "label": "__gap",
        "offset": 0,
        "slot": "52",
        "type": "t_array(t_uint256)49_storage"
      },
      {
        "astId": 375,
        "contract": "contracts/rewards/ETHmxRewards/ETHmxRewards.sol:ETHmxRewards",
        "label": "_paused",
        "offset": 0,
        "slot": "101",
        "type": "t_bool"
      },
      {
        "astId": 466,
        "contract": "contracts/rewards/ETHmxRewards/ETHmxRewards.sol:ETHmxRewards",
        "label": "__gap",
        "offset": 0,
        "slot": "102",
        "type": "t_array(t_uint256)49_storage"
      },
      {
        "astId": 8919,
        "contract": "contracts/rewards/ETHmxRewards/ETHmxRewards.sol:ETHmxRewards",
        "label": "_ethmx",
        "offset": 0,
        "slot": "151",
        "type": "t_address"
      },
      {
        "astId": 8921,
        "contract": "contracts/rewards/ETHmxRewards/ETHmxRewards.sol:ETHmxRewards",
        "label": "_weth",
        "offset": 0,
        "slot": "152",
        "type": "t_address"
      },
      {
        "astId": 8924,
        "contract": "contracts/rewards/ETHmxRewards/ETHmxRewards.sol:ETHmxRewards",
        "label": "_arptSnapshots",
        "offset": 0,
        "slot": "153",
        "type": "t_array(t_uint256)dyn_storage"
      },
      {
        "astId": 8928,
        "contract": "contracts/rewards/ETHmxRewards/ETHmxRewards.sol:ETHmxRewards",
        "label": "_arptLastIdx",
        "offset": 0,
        "slot": "154",
        "type": "t_mapping(t_address,t_uint256)"
      },
      {
        "astId": 8930,
        "contract": "contracts/rewards/ETHmxRewards/ETHmxRewards.sol:ETHmxRewards",
        "label": "_lastAccrualUpdate",
        "offset": 0,
        "slot": "155",
        "type": "t_uint256"
      },
      {
        "astId": 8932,
        "contract": "contracts/rewards/ETHmxRewards/ETHmxRewards.sol:ETHmxRewards",
        "label": "_accrualUpdateInterval",
        "offset": 0,
        "slot": "156",
        "type": "t_uint256"
      },
      {
        "astId": 8936,
        "contract": "contracts/rewards/ETHmxRewards/ETHmxRewards.sol:ETHmxRewards",
        "label": "_rewardsFor",
        "offset": 0,
        "slot": "157",
        "type": "t_mapping(t_address,t_uint256)"
      },
      {
        "astId": 8938,
        "contract": "contracts/rewards/ETHmxRewards/ETHmxRewards.sol:ETHmxRewards",
        "label": "_lastTotalRewardsAccrued",
        "offset": 0,
        "slot": "158",
        "type": "t_uint256"
      },
      {
        "astId": 8940,
        "contract": "contracts/rewards/ETHmxRewards/ETHmxRewards.sol:ETHmxRewards",
        "label": "_totalRewardsRedeemed",
        "offset": 0,
        "slot": "159",
        "type": "t_uint256"
      },
      {
        "astId": 8944,
        "contract": "contracts/rewards/ETHmxRewards/ETHmxRewards.sol:ETHmxRewards",
        "label": "_stakedFor",
        "offset": 0,
        "slot": "160",
        "type": "t_mapping(t_address,t_uint256)"
      },
      {
        "astId": 8946,
        "contract": "contracts/rewards/ETHmxRewards/ETHmxRewards.sol:ETHmxRewards",
        "label": "_totalStaked",
        "offset": 0,
        "slot": "161",
        "type": "t_uint256"
      },
      {
        "astId": 8950,
        "contract": "contracts/rewards/ETHmxRewards/ETHmxRewards.sol:ETHmxRewards",
        "label": "__gap",
        "offset": 0,
        "slot": "162",
        "type": "t_array(t_uint256)39_storage"
      }
    ],
    "types": {
      "t_address": {
        "encoding": "inplace",
        "label": "address",
        "numberOfBytes": "20"
      },
      "t_array(t_uint256)39_storage": {
        "base": "t_uint256",
        "encoding": "inplace",
        "label": "uint256[39]",
        "numberOfBytes": "1248"
      },
      "t_array(t_uint256)49_storage": {
        "base": "t_uint256",
        "encoding": "inplace",
        "label": "uint256[49]",
        "numberOfBytes": "1568"
      },
      "t_array(t_uint256)50_storage": {
        "base": "t_uint256",
        "encoding": "inplace",
        "label": "uint256[50]",
        "numberOfBytes": "1600"
      },
      "t_array(t_uint256)dyn_storage": {
        "base": "t_uint256",
        "encoding": "dynamic_array",
        "label": "uint256[]",
        "numberOfBytes": "32"
      },
      "t_bool": {
        "encoding": "inplace",
        "label": "bool",
        "numberOfBytes": "1"
      },
      "t_mapping(t_address,t_uint256)": {
        "encoding": "mapping",
        "key": "t_address",
        "label": "mapping(address => uint256)",
        "numberOfBytes": "32",
        "value": "t_uint256"
      },
      "t_uint256": {
        "encoding": "inplace",
        "label": "uint256",
        "numberOfBytes": "32"
      }
    }
  }
}