{
  "address": "0x4D19Cb7b562c355568Fb945912f816A09882C98e",
  "abi": [
    {
      "inputs": [
        {
          "internalType": "address",
          "name": "owner_",
          "type": "address"
        },
        {
          "internalType": "address",
          "name": "feeLogic_",
          "type": "address"
        },
        {
          "internalType": "address",
          "name": "minter_",
          "type": "address"
        }
      ],
      "stateMutability": "nonpayable",
      "type": "constructor"
    },
    {
      "anonymous": false,
      "inputs": [
        {
          "indexed": true,
          "internalType": "address",
          "name": "owner",
          "type": "address"
        },
        {
          "indexed": true,
          "internalType": "address",
          "name": "spender",
          "type": "address"
        },
        {
          "indexed": false,
          "internalType": "uint256",
          "name": "value",
          "type": "uint256"
        }
      ],
      "name": "Approval",
      "type": "event"
    },
    {
      "anonymous": false,
      "inputs": [
        {
          "indexed": true,
          "internalType": "address",
          "name": "author",
          "type": "address"
        },
        {
          "indexed": true,
          "internalType": "address",
          "name": "account",
          "type": "address"
        }
      ],
      "name": "FeeLogicSet",
      "type": "event"
    },
    {
      "anonymous": false,
      "inputs": [
        {
          "indexed": true,
          "internalType": "address",
          "name": "author",
          "type": "address"
        },
        {
          "indexed": true,
          "internalType": "address",
          "name": "account",
          "type": "address"
        }
      ],
      "name": "MinterSet",
      "type": "event"
    },
    {
      "anonymous": false,
      "inputs": [
        {
          "indexed": true,
          "internalType": "address",
          "name": "previousOwner",
          "type": "address"
        },
        {
          "indexed": true,
          "internalType": "address",
          "name": "newOwner",
          "type": "address"
        }
      ],
      "name": "OwnershipTransferred",
      "type": "event"
    },
    {
      "anonymous": false,
      "inputs": [
        {
          "indexed": false,
          "internalType": "address",
          "name": "account",
          "type": "address"
        }
      ],
      "name": "Paused",
      "type": "event"
    },
    {
      "anonymous": false,
      "inputs": [
        {
          "indexed": true,
          "internalType": "address",
          "name": "author",
          "type": "address"
        },
        {
          "indexed": true,
          "internalType": "address",
          "name": "token",
          "type": "address"
        },
        {
          "indexed": true,
          "internalType": "address",
          "name": "to",
          "type": "address"
        },
        {
          "indexed": false,
          "internalType": "uint256",
          "name": "amount",
          "type": "uint256"
        }
      ],
      "name": "Recovered",
      "type": "event"
    },
    {
      "anonymous": false,
      "inputs": [
        {
          "indexed": true,
          "internalType": "address",
          "name": "from",
          "type": "address"
        },
        {
          "indexed": true,
          "internalType": "address",
          "name": "to",
          "type": "address"
        },
        {
          "indexed": false,
          "internalType": "uint256",
          "name": "value",
          "type": "uint256"
        }
      ],
      "name": "Transfer",
      "type": "event"
    },
    {
      "anonymous": false,
      "inputs": [
        {
          "indexed": false,
          "internalType": "address",
          "name": "account",
          "type": "address"
        }
      ],
      "name": "Unpaused",
      "type": "event"
    },
    {
      "inputs": [
        {
          "internalType": "address",
          "name": "owner",
          "type": "address"
        },
        {
          "internalType": "address",
          "name": "spender",
          "type": "address"
        }
      ],
      "name": "allowance",
      "outputs": [
        {
          "internalType": "uint256",
          "name": "",
          "type": "uint256"
        }
      ],
      "stateMutability": "view",
      "type": "function"
    },
    {
      "inputs": [
        {
          "internalType": "address",
          "name": "spender",
          "type": "address"
        },
        {
          "internalType": "uint256",
          "name": "amount",
          "type": "uint256"
        }
      ],
      "name": "approve",
      "outputs": [
        {
          "internalType": "bool",
          "name": "",
          "type": "bool"
        }
      ],
      "stateMutability": "nonpayable",
      "type": "function"
    },
    {
      "inputs": [
        {
          "internalType": "address",
          "name": "account",
          "type": "address"
        }
      ],
      "name": "balanceOf",
      "outputs": [
        {
          "internalType": "uint256",
          "name": "",
          "type": "uint256"
        }
      ],
      "stateMutability": "view",
      "type": "function"
    },
    {
      "inputs": [
        {
          "internalType": "address",
          "name": "account",
          "type": "address"
        },
        {
          "internalType": "uint256",
          "name": "amount",
          "type": "uint256"
        }
      ],
      "name": "burn",
      "outputs": [],
      "stateMutability": "nonpayable",
      "type": "function"
    },
    {
      "inputs": [],
      "name": "decimals",
      "outputs": [
        {
          "internalType": "uint8",
          "name": "",
          "type": "uint8"
        }
      ],
      "stateMutability": "view",
      "type": "function"
    },
    {
      "inputs": [
        {
          "internalType": "address",
          "name": "spender",
          "type": "address"
        },
        {
          "internalType": "uint256",
          "name": "subtractedValue",
          "type": "uint256"
        }
      ],
      "name": "decreaseAllowance",
      "outputs": [
        {
          "internalType": "bool",
          "name": "",
          "type": "bool"
        }
      ],
      "stateMutability": "nonpayable",
      "type": "function"
    },
    {
      "inputs": [],
      "name": "feeLogic",
      "outputs": [
        {
          "internalType": "address",
          "name": "",
          "type": "address"
        }
      ],
      "stateMutability": "view",
      "type": "function"
    },
    {
      "inputs": [
        {
          "internalType": "address",
          "name": "spender",
          "type": "address"
        },
        {
          "internalType": "uint256",
          "name": "addedValue",
          "type": "uint256"
        }
      ],
      "name": "increaseAllowance",
      "outputs": [
        {
          "internalType": "bool",
          "name": "",
          "type": "bool"
        }
      ],
      "stateMutability": "nonpayable",
      "type": "function"
    },
    {
      "inputs": [
        {
          "internalType": "address",
          "name": "owner_",
          "type": "address"
        },
        {
          "internalType": "address",
          "name": "feeLogic_",
          "type": "address"
        },
        {
          "internalType": "address",
          "name": "minter_",
          "type": "address"
        }
      ],
      "name": "init",
      "outputs": [],
      "stateMutability": "nonpayable",
      "type": "function"
    },
    {
      "inputs": [
        {
          "internalType": "address",
          "name": "account",
          "type": "address"
        },
        {
          "internalType": "uint256",
          "name": "amount",
          "type": "uint256"
        }
      ],
      "name": "mint",
      "outputs": [],
      "stateMutability": "nonpayable",
      "type": "function"
    },
    {
      "inputs": [],
      "name": "minter",
      "outputs": [
        {
          "internalType": "address",
          "name": "",
          "type": "address"
        }
      ],
      "stateMutability": "view",
      "type": "function"
    },
    {
      "inputs": [],
      "name": "name",
      "outputs": [
        {
          "internalType": "string",
          "name": "",
          "type": "string"
        }
      ],
      "stateMutability": "view",
      "type": "function"
    },
    {
      "inputs": [],
      "name": "owner",
      "outputs": [
        {
          "internalType": "address",
          "name": "",
          "type": "address"
        }
      ],
      "stateMutability": "view",
      "type": "function"
    },
    {
      "inputs": [],
      "name": "pause",
      "outputs": [],
      "stateMutability": "nonpayable",
      "type": "function"
    },
    {
      "inputs": [],
      "name": "paused",
      "outputs": [
        {
          "internalType": "bool",
          "name": "",
          "type": "bool"
        }
      ],
      "stateMutability": "view",
      "type": "function"
    },
    {
      "inputs": [
        {
          "internalType": "address",
          "name": "token",
          "type": "address"
        },
        {
          "internalType": "address",
          "name": "to",
          "type": "address"
        },
        {
          "internalType": "uint256",
          "name": "amount",
          "type": "uint256"
        }
      ],
      "name": "recoverERC20",
      "outputs": [],
      "stateMutability": "nonpayable",
      "type": "function"
    },
    {
      "inputs": [],
      "name": "renounceOwnership",
      "outputs": [],
      "stateMutability": "nonpayable",
      "type": "function"
    },
    {
      "inputs": [
        {
          "internalType": "address",
          "name": "account",
          "type": "address"
        }
      ],
      "name": "setFeeLogic",
      "outputs": [],
      "stateMutability": "nonpayable",
      "type": "function"
    },
    {
      "inputs": [
        {
          "internalType": "address",
          "name": "account",
          "type": "address"
        }
      ],
      "name": "setMinter",
      "outputs": [],
      "stateMutability": "nonpayable",
      "type": "function"
    },
    {
      "inputs": [],
      "name": "symbol",
      "outputs": [
        {
          "internalType": "string",
          "name": "",
          "type": "string"
        }
      ],
      "stateMutability": "view",
      "type": "function"
    },
    {
      "inputs": [],
      "name": "totalSupply",
      "outputs": [
        {
          "internalType": "uint256",
          "name": "",
          "type": "uint256"
        }
      ],
      "stateMutability": "view",
      "type": "function"
    },
    {
      "inputs": [
        {
          "internalType": "address",
          "name": "recipient",
          "type": "address"
        },
        {
          "internalType": "uint256",
          "name": "amount",
          "type": "uint256"
        }
      ],
      "name": "transfer",
      "outputs": [
        {
          "internalType": "bool",
          "name": "",
          "type": "bool"
        }
      ],
      "stateMutability": "nonpayable",
      "type": "function"
    },
    {
      "inputs": [
        {
          "internalType": "address",
          "name": "sender",
          "type": "address"
        },
        {
          "internalType": "address",
          "name": "recipient",
          "type": "address"
        },
        {
          "internalType": "uint256",
          "name": "amount",
          "type": "uint256"
        }
      ],
      "name": "transferFrom",
      "outputs": [
        {
          "internalType": "bool",
          "name": "",
          "type": "bool"
        }
      ],
      "stateMutability": "nonpayable",
      "type": "function"
    },
    {
      "inputs": [
        {
          "internalType": "address",
          "name": "newOwner",
          "type": "address"
        }
      ],
      "name": "transferOwnership",
      "outputs": [],
      "stateMutability": "nonpayable",
      "type": "function"
    },
    {
      "inputs": [],
      "name": "unpause",
      "outputs": [],
      "stateMutability": "nonpayable",
      "type": "function"
    }
  ],
  "transactionHash": "0x0b3aadbc918e549a5181fe7f3eea03cd58959788ecfeb2305debe55c960e14b2",
  "args": [
    "0x5757Dd711EaE80e181E07CdbCe43359Ac1048394",
    "0x5ff01Fdf3a100bb7c39384d4715E250B7daD1D36",
    "0x0000000000000000000000000000000000000000"
  ],
  "solcInputHash": "d866fd3a9c665c3159ffcb94310e6171",
  "bytecode": "0x60806040523480156200001157600080fd5b506040516200284a3803806200284a833981810160405260608110156200003757600080fd5b5080516020820151604090920151909190620000558383836200005e565b505050620006cc565b600054610100900460ff16806200007a57506200007a6200016d565b8062000089575060005460ff16155b620000c65760405162461bcd60e51b815260040180806020018281038252602e815260200180620027dc602e913960400191505060405180910390fd5b600054610100900460ff16158015620000f2576000805460ff1961ff0019909116610100171660011790555b620000fc6200018b565b6200010662000235565b6200011062000327565b6200011b83620003da565b6200012682620004f1565b62000130620005b9565b6001600160a01b0316846001600160a01b03161462000154576200015484620005c8565b801562000167576000805461ff00191690555b50505050565b60006200018530620006c260201b62000fba1760201c565b15905090565b600054610100900460ff1680620001a75750620001a76200016d565b80620001b6575060005460ff16155b620001f35760405162461bcd60e51b815260040180806020018281038252602e815260200180620027dc602e913960400191505060405180910390fd5b600054610100900460ff161580156200021f576000805460ff1961ff0019909116610100171660011790555b801562000232576000805461ff00191690555b50565b600054610100900460ff1680620002515750620002516200016d565b8062000260575060005460ff16155b6200029d5760405162461bcd60e51b815260040180806020018281038252602e815260200180620027dc602e913960400191505060405180910390fd5b600054610100900460ff16158015620002c9576000805460ff1961ff0019909116610100171660011790555b6000620002d5620006c8565b603380546001600160a01b0319166001600160a01b038316908117909155604051919250906000906000805160206200282a833981519152908290a350801562000232576000805461ff001916905550565b600054610100900460ff1680620003435750620003436200016d565b8062000352575060005460ff16155b6200038f5760405162461bcd60e51b815260040180806020018281038252602e815260200180620027dc602e913960400191505060405180910390fd5b600054610100900460ff16158015620003bb576000805460ff1961ff0019909116610100171660011790555b6065805460ff19169055801562000232576000805461ff001916905550565b600054610100900460ff1680620003f65750620003f66200016d565b8062000405575060005460ff16155b620004425760405162461bcd60e51b815260040180806020018281038252602e815260200180620027dc602e913960400191505060405180910390fd5b600054610100900460ff161580156200046e576000805460ff1961ff0019909116610100171660011790555b6001600160a01b038216620004b55760405162461bcd60e51b8152600401808060200182810382526021815260200180620027bb6021913960400191505060405180910390fd5b620004bf6200018b565b60c980546001600160a01b0319166001600160a01b0384161790558015620004ed576000805461ff00191690555b5050565b620004fb620006c8565b6001600160a01b03166200050e620005b9565b6001600160a01b03161462000559576040805162461bcd60e51b815260206004820181905260248201526000805160206200280a833981519152604482015290519081900360640190fd5b60fb80546001600160a01b0319166001600160a01b03831690811790915562000581620006c8565b6001600160a01b03167f02b23d62d8f733974f8cb13eb804b20135521322b70997c991fc01406632389f60405160405180910390a350565b6033546001600160a01b031690565b620005d2620006c8565b6001600160a01b0316620005e5620005b9565b6001600160a01b03161462000630576040805162461bcd60e51b815260206004820181905260248201526000805160206200280a833981519152604482015290519081900360640190fd5b6001600160a01b038116620006775760405162461bcd60e51b8152600401808060200182810382526026815260200180620027956026913960400191505060405180910390fd5b6033546040516001600160a01b038084169216906000805160206200282a83398151915290600090a3603380546001600160a01b0319166001600160a01b0392909216919091179055565b3b151590565b3390565b6120b980620006dc6000396000f3fe608060405234801561001057600080fd5b50600436106101735760003560e01c80635028db1a116100de57806395d89b4111610097578063a9059cbb11610071578063a9059cbb1461046b578063dd62ed3e14610497578063f2fde38b146104c5578063fca3b5aa146104eb57610173565b806395d89b411461040b5780639dc29fac14610413578063a457c2d71461043f57610173565b80635028db1a146103bd5780635c975abb146103c557806370a08231146103cd578063715018a6146103f35780638456cb59146103fb5780638da5cb5b1461040357610173565b806323b872dd1161013057806323b872dd146102e3578063313ce5671461031957806339509351146103375780633c85e454146103635780633f4ba83a1461038957806340c10f191461039157610173565b806306fdde031461017857806307546172146101f5578063095ea7b3146102195780631171bda91461025957806318160ddd14610291578063184b9559146102ab575b600080fd5b610180610511565b6040805160208082528351818301528351919283929083019185019080838360005b838110156101ba5781810151838201526020016101a2565b50505050905090810190601f1680156101e75780820380516001836020036101000a031916815260200191505b509250505060405180910390f35b6101fd61053f565b604080516001600160a01b039092168252519081900360200190f35b6102456004803603604081101561022f57600080fd5b506001600160a01b03813516906020013561054e565b604080519115158252519081900360200190f35b61028f6004803603606081101561026f57600080fd5b506001600160a01b0381358116916020810135909116906040013561056b565b005b610299610642565b60408051918252519081900360200190f35b61028f600480360360608110156102c157600080fd5b506001600160a01b038135811691602081013582169160409091013516610648565b610245600480360360608110156102f957600080fd5b506001600160a01b03813581169160208101359091169060400135610740565b6103216107c8565b6040805160ff9092168252519081900360200190f35b6102456004803603604081101561034d57600080fd5b506001600160a01b0381351690602001356107cd565b61028f6004803603602081101561037957600080fd5b50356001600160a01b031661081b565b61028f610936565b61028f600480360360408110156103a757600080fd5b506001600160a01b0381351690602001356109f2565b6101fd610ac1565b610245610ad0565b610299600480360360208110156103e357600080fd5b50356001600160a01b0316610ad9565b61028f610af4565b61028f610ba0565b6101fd610c57565b610180610c66565b61028f6004803603604081101561042957600080fd5b506001600160a01b038135169060200135610c85565b6102456004803603604081101561045557600080fd5b506001600160a01b038135169060200135610d50565b6102456004803603604081101561048157600080fd5b506001600160a01b038135169060200135610db8565b610299600480360360408110156104ad57600080fd5b506001600160a01b0381358116916020013516610dcc565b61028f600480360360208110156104db57600080fd5b50356001600160a01b0316610df7565b61028f6004803603602081101561050157600080fd5b50356001600160a01b0316610efa565b60408051808201909152601481527322ba3432b932bab6902a3930b739b0b1ba34b7b760611b602082015290565b60fb546001600160a01b031690565b600061056261055b610fc0565b8484610fc4565b50600192915050565b610573610fc0565b6001600160a01b0316610584610c57565b6001600160a01b0316146105cd576040805162461bcd60e51b81526020600482018190526024820152600080516020611f8b833981519152604482015290519081900360640190fd5b6105e16001600160a01b03841683836110b0565b816001600160a01b0316836001600160a01b03166105fd610fc0565b6001600160a01b03167ffa6e44909e1c69606f847ee93c3339a424b53b345ed377c38ab410d32e7f70a7846040518082815260200191505060405180910390a4505050565b60995490565b600054610100900460ff16806106615750610661611107565b8061066f575060005460ff16155b6106aa5760405162461bcd60e51b815260040180806020018281038252602e815260200180611f35602e913960400191505060405180910390fd5b600054610100900460ff161580156106d5576000805460ff1961ff0019909116610100171660011790555b6106dd611118565b6106e56111ba565b6106ed6112b3565b6106f68361135e565b6106ff82610efa565b610707610c57565b6001600160a01b0316846001600160a01b0316146107285761072884610df7565b801561073a576000805461ff00191690555b50505050565b600061074d848484611468565b6107bd84610759610fc0565b6107b885604051806060016040528060288152602001611f63602891396001600160a01b038a16600090815260986020526040812090610797610fc0565b6001600160a01b031681526020810191909152604001600020549190611791565b610fc4565b5060015b9392505050565b601290565b60006105626107da610fc0565b846107b885609860006107eb610fc0565b6001600160a01b03908116825260208083019390935260409182016000908120918c168152925290205490611828565b610823610fc0565b6001600160a01b0316610834610c57565b6001600160a01b03161461087d576040805162461bcd60e51b81526020600482018190526024820152600080516020611f8b833981519152604482015290519081900360640190fd5b6001600160a01b0381166108d8576040805162461bcd60e51b815260206004820152601c60248201527f45544874783a206665654c6f676963207a65726f206164647265737300000000604482015290519081900360640190fd5b60c980546001600160a01b0319166001600160a01b0383169081179091556108fe610fc0565b6001600160a01b03167f62ed5f17e3b035a1692f4d2872793f3ad5394aa811ef5e7d770965e1c14a162b60405160405180910390a350565b61093e610fc0565b6001600160a01b031661094f610c57565b6001600160a01b031614610998576040805162461bcd60e51b81526020600482018190526024820152600080516020611f8b833981519152604482015290519081900360640190fd5b6109a0610ad0565b6109e8576040805162461bcd60e51b815260206004820152601460248201527314185d5cd8589b194e881b9bdd081c185d5cd95960621b604482015290519081900360640190fd5b6109f0611882565b565b6109fa61053f565b6001600160a01b0316610a0b610fc0565b6001600160a01b031614610a66576040805162461bcd60e51b815260206004820152601f60248201527f45544874783a2063616c6c6572206973206e6f7420746865206d696e74657200604482015290519081900360640190fd5b610a6e610ad0565b15610ab3576040805162461bcd60e51b815260206004820152601060248201526f14185d5cd8589b194e881c185d5cd95960821b604482015290519081900360640190fd5b610abd8282611922565b5050565b60c9546001600160a01b031690565b60655460ff1690565b6001600160a01b031660009081526097602052604090205490565b610afc610fc0565b6001600160a01b0316610b0d610c57565b6001600160a01b031614610b56576040805162461bcd60e51b81526020600482018190526024820152600080516020611f8b833981519152604482015290519081900360640190fd5b6033546040516000916001600160a01b0316907f8be0079c531659141344cd1fd0a4f28419497f9722a3daafe3b4186f6b6457e0908390a3603380546001600160a01b0319169055565b610ba8610fc0565b6001600160a01b0316610bb9610c57565b6001600160a01b031614610c02576040805162461bcd60e51b81526020600482018190526024820152600080516020611f8b833981519152604482015290519081900360640190fd5b610c0a610ad0565b15610c4f576040805162461bcd60e51b815260206004820152601060248201526f14185d5cd8589b194e881c185d5cd95960821b604482015290519081900360640190fd5b6109f0611a02565b6033546001600160a01b031690565b60408051808201909152600581526408aa890e8f60db1b602082015290565b610c8d61053f565b6001600160a01b0316610c9e610fc0565b6001600160a01b031614610cf9576040805162461bcd60e51b815260206004820152601f60248201527f45544874783a2063616c6c6572206973206e6f7420746865206d696e74657200604482015290519081900360640190fd5b610d01610ad0565b15610d46576040805162461bcd60e51b815260206004820152601060248201526f14185d5cd8589b194e881c185d5cd95960821b604482015290519081900360640190fd5b610abd8282611a85565b6000610562610d5d610fc0565b846107b88560405180606001604052806025815260200161205f6025913960986000610d87610fc0565b6001600160a01b03908116825260208083019390935260409182016000908120918d16815292529020549190611791565b6000610562610dc5610fc0565b8484611468565b6001600160a01b03918216600090815260986020908152604080832093909416825291909152205490565b610dff610fc0565b6001600160a01b0316610e10610c57565b6001600160a01b031614610e59576040805162461bcd60e51b81526020600482018190526024820152600080516020611f8b833981519152604482015290519081900360640190fd5b6001600160a01b038116610e9e5760405162461bcd60e51b8152600401808060200182810382526026815260200180611e806026913960400191505060405180910390fd5b6033546040516001600160a01b038084169216907f8be0079c531659141344cd1fd0a4f28419497f9722a3daafe3b4186f6b6457e090600090a3603380546001600160a01b0319166001600160a01b0392909216919091179055565b610f02610fc0565b6001600160a01b0316610f13610c57565b6001600160a01b031614610f5c576040805162461bcd60e51b81526020600482018190526024820152600080516020611f8b833981519152604482015290519081900360640190fd5b60fb80546001600160a01b0319166001600160a01b038316908117909155610f82610fc0565b6001600160a01b03167f02b23d62d8f733974f8cb13eb804b20135521322b70997c991fc01406632389f60405160405180910390a350565b3b151590565b3390565b6001600160a01b0383166110095760405162461bcd60e51b81526004018080602001828103825260248152602001806120116024913960400191505060405180910390fd5b6001600160a01b03821661104e5760405162461bcd60e51b8152600401808060200182810382526022815260200180611ea66022913960400191505060405180910390fd5b6001600160a01b03808416600081815260986020908152604080832094871680845294825291829020859055815185815291517f8c5be1e5ebec7d5bd14f71427d1e84f3dd0314c0f7b2291e5b200ac8c7c3b9259281900390910190a3505050565b604080516001600160a01b038416602482015260448082018490528251808303909101815260649091019091526020810180516001600160e01b031663a9059cbb60e01b179052611102908490611b6f565b505050565b600061111230610fba565b15905090565b600054610100900460ff16806111315750611131611107565b8061113f575060005460ff16155b61117a5760405162461bcd60e51b815260040180806020018281038252602e815260200180611f35602e913960400191505060405180910390fd5b600054610100900460ff161580156111a5576000805460ff1961ff0019909116610100171660011790555b80156111b7576000805461ff00191690555b50565b600054610100900460ff16806111d357506111d3611107565b806111e1575060005460ff16155b61121c5760405162461bcd60e51b815260040180806020018281038252602e815260200180611f35602e913960400191505060405180910390fd5b600054610100900460ff16158015611247576000805460ff1961ff0019909116610100171660011790555b6000611251610fc0565b603380546001600160a01b0319166001600160a01b038316908117909155604051919250906000907f8be0079c531659141344cd1fd0a4f28419497f9722a3daafe3b4186f6b6457e0908290a35080156111b7576000805461ff001916905550565b600054610100900460ff16806112cc57506112cc611107565b806112da575060005460ff16155b6113155760405162461bcd60e51b815260040180806020018281038252602e815260200180611f35602e913960400191505060405180910390fd5b600054610100900460ff16158015611340576000805460ff1961ff0019909116610100171660011790555b6065805460ff1916905580156111b7576000805461ff001916905550565b600054610100900460ff16806113775750611377611107565b80611385575060005460ff16155b6113c05760405162461bcd60e51b815260040180806020018281038252602e815260200180611f35602e913960400191505060405180910390fd5b600054610100900460ff161580156113eb576000805460ff1961ff0019909116610100171660011790555b6001600160a01b0382166114305760405162461bcd60e51b8152600401808060200182810382526021815260200180611eee6021913960400191505060405180910390fd5b611438611118565b60c980546001600160a01b0319166001600160a01b0384161790558015610abd576000805461ff00191690555050565b6001600160a01b0383166114ad5760405162461bcd60e51b8152600401808060200182810382526025815260200180611fec6025913960400191505060405180910390fd5b6001600160a01b0382166114f25760405162461bcd60e51b8152600401808060200182810382526023815260200180611e3b6023913960400191505060405180910390fd5b6114fd838383611102565b61153a81604051806060016040528060268152602001611ec8602691396001600160a01b0386166000908152609760205260409020549190611791565b6001600160a01b0380851660008181526097602090815260408083209590955560c9548551632f8e517960e21b81526004810194909452878516602485015260448401879052945194909316939092849263be3945e49260648083019392829003018186803b1580156115ac57600080fd5b505afa1580156115c0573d6000803e3d6000fd5b505050506040513d60208110156115d657600080fd5b5051905060006115e68483611c20565b6001600160a01b03861660009081526097602052604090205490915061160c9082611828565b6001600160a01b0380871660008181526097602090815260409182902094909455805185815290519193928a1692600080516020611fab83398151915292918290030190a38115611789576000836001600160a01b03166366d003ac6040518163ffffffff1660e01b815260040160206040518083038186803b15801561169257600080fd5b505afa1580156116a6573d6000803e3d6000fd5b505050506040513d60208110156116bc57600080fd5b50516001600160a01b0381166000908152609760205260409020549091506116e49084611828565b6001600160a01b0380831660008181526097602090815260409182902094909455805187815290519193928b1692600080516020611fab83398151915292918290030190a3836001600160a01b03166398d078b4846040518263ffffffff1660e01b815260040180828152602001915050600060405180830381600087803b15801561176f57600080fd5b505af1158015611783573d6000803e3d6000fd5b50505050505b505050505050565b600081848411156118205760405162461bcd60e51b81526004018080602001828103825283818151815260200191508051906020019080838360005b838110156117e55781810151838201526020016117cd565b50505050905090810190601f1680156118125780820380516001836020036101000a031916815260200191505b509250505060405180910390fd5b505050900390565b6000828201838110156107c1576040805162461bcd60e51b815260206004820152601b60248201527f536166654d6174683a206164646974696f6e206f766572666c6f770000000000604482015290519081900360640190fd5b61188a610ad0565b6118d2576040805162461bcd60e51b815260206004820152601460248201527314185d5cd8589b194e881b9bdd081c185d5cd95960621b604482015290519081900360640190fd5b6065805460ff191690557f5db9ee0a495bf2e6ff9c91a7834c1ba4fdd244a5e8aa4e537bd38aeae4b073aa611905610fc0565b604080516001600160a01b039092168252519081900360200190a1565b6001600160a01b03821661197d576040805162461bcd60e51b815260206004820152601f60248201527f45524332303a206d696e7420746f20746865207a65726f206164647265737300604482015290519081900360640190fd5b61198960008383611102565b6099546119969082611828565b6099556001600160a01b0382166000908152609760205260409020546119bc9082611828565b6001600160a01b0383166000818152609760209081526040808320949094558351858152935192939192600080516020611fab8339815191529281900390910190a35050565b611a0a610ad0565b15611a4f576040805162461bcd60e51b815260206004820152601060248201526f14185d5cd8589b194e881c185d5cd95960821b604482015290519081900360640190fd5b6065805460ff191660011790557f62e78cea01bee320cd4e420270b5ea74000d11b0c9f74754ebdbfc544b05a258611905610fc0565b6001600160a01b038216611aca5760405162461bcd60e51b8152600401808060200182810382526021815260200180611fcb6021913960400191505060405180910390fd5b611ad682600083611102565b611b1381604051806060016040528060228152602001611e5e602291396001600160a01b0385166000908152609760205260409020549190611791565b6001600160a01b038316600090815260976020526040902055609954611b399082611c20565b6099556040805182815290516000916001600160a01b03851691600080516020611fab8339815191529181900360200190a35050565b6000611bc4826040518060400160405280602081526020017f5361666545524332303a206c6f772d6c6576656c2063616c6c206661696c6564815250856001600160a01b0316611c629092919063ffffffff16565b80519091501561110257808060200190516020811015611be357600080fd5b50516111025760405162461bcd60e51b815260040180806020018281038252602a815260200180612035602a913960400191505060405180910390fd5b60006107c183836040518060400160405280601e81526020017f536166654d6174683a207375627472616374696f6e206f766572666c6f770000815250611791565b6060611c718484600085611c79565b949350505050565b606082471015611cba5760405162461bcd60e51b8152600401808060200182810382526026815260200180611f0f6026913960400191505060405180910390fd5b611cc385610fba565b611d14576040805162461bcd60e51b815260206004820152601d60248201527f416464726573733a2063616c6c20746f206e6f6e2d636f6e7472616374000000604482015290519081900360640190fd5b600080866001600160a01b031685876040518082805190602001908083835b60208310611d525780518252601f199092019160209182019101611d33565b6001836020036101000a03801982511681845116808217855250505050505090500191505060006040518083038185875af1925050503d8060008114611db4576040519150601f19603f3d011682016040523d82523d6000602084013e611db9565b606091505b5091509150611dc9828286611dd4565b979650505050505050565b60608315611de35750816107c1565b825115611df35782518084602001fd5b60405162461bcd60e51b81526020600482018181528451602484015284518593919283926044019190850190808383600083156117e55781810151838201526020016117cd56fe45524332303a207472616e7366657220746f20746865207a65726f206164647265737345524332303a206275726e20616d6f756e7420657863656564732062616c616e63654f776e61626c653a206e6577206f776e657220697320746865207a65726f206164647265737345524332303a20617070726f766520746f20746865207a65726f206164647265737345524332303a207472616e7366657220616d6f756e7420657863656564732062616c616e6365455243323054784665653a206665654c6f676963207a65726f2061646472657373416464726573733a20696e73756666696369656e742062616c616e636520666f722063616c6c496e697469616c697a61626c653a20636f6e747261637420697320616c726561647920696e697469616c697a656445524332303a207472616e7366657220616d6f756e74206578636565647320616c6c6f77616e63654f776e61626c653a2063616c6c6572206973206e6f7420746865206f776e6572ddf252ad1be2c89b69c2b068fc378daa952ba7f163c4a11628f55a4df523b3ef45524332303a206275726e2066726f6d20746865207a65726f206164647265737345524332303a207472616e736665722066726f6d20746865207a65726f206164647265737345524332303a20617070726f76652066726f6d20746865207a65726f20616464726573735361666545524332303a204552433230206f7065726174696f6e20646964206e6f74207375636365656445524332303a2064656372656173656420616c6c6f77616e63652062656c6f77207a65726fa264697066735822122040f8b16cbd585a500135c8b321307be8c4935211bb9528c64a7dacb257f2ad7064736f6c634300070600334f776e61626c653a206e6577206f776e657220697320746865207a65726f2061646472657373455243323054784665653a206665654c6f676963207a65726f2061646472657373496e697469616c697a61626c653a20636f6e747261637420697320616c726561647920696e697469616c697a65644f776e61626c653a2063616c6c6572206973206e6f7420746865206f776e65728be0079c531659141344cd1fd0a4f28419497f9722a3daafe3b4186f6b6457e0",
  "devdoc": {
    "kind": "dev",
    "methods": {
      "allowance(address,address)": {
        "details": "See {IERC20-allowance}."
      },
      "approve(address,uint256)": {
        "details": "See {IERC20-approve}. Requirements: - `spender` cannot be the zero address."
      },
      "balanceOf(address)": {
        "details": "See {IERC20-balanceOf}."
      },
      "decimals()": {
        "details": "Returns the number of decimals used to get its user representation. For example, if `decimals` equals `2`, a balance of `505` tokens should be displayed to a user as `5,05` (`505 / 10 ** 2`). Tokens usually opt for a value of 18, imitating the relationship between Ether and Wei. This is the value {ERC20} uses, unless this function is overridden; NOTE: This information is only used for _display_ purposes: it in no way affects any of the arithmetic of the contract, including {IERC20-balanceOf} and {IERC20-transfer}."
      },
      "decreaseAllowance(address,uint256)": {
        "details": "Atomically decreases the allowance granted to `spender` by the caller. This is an alternative to {approve} that can be used as a mitigation for problems described in {IERC20-approve}. Emits an {Approval} event indicating the updated allowance. Requirements: - `spender` cannot be the zero address. - `spender` must have allowance for the caller of at least `subtractedValue`."
      },
      "feeLogic()": {
        "details": "Returns the feeLogic handler address."
      },
      "increaseAllowance(address,uint256)": {
        "details": "Atomically increases the allowance granted to `spender` by the caller. This is an alternative to {approve} that can be used as a mitigation for problems described in {IERC20-approve}. Emits an {Approval} event indicating the updated allowance. Requirements: - `spender` cannot be the zero address."
      },
      "name()": {
        "details": "Returns the name of the token. Overload it to change."
      },
      "owner()": {
        "details": "Returns the address of the current owner."
      },
      "paused()": {
        "details": "Returns true if the contract is paused, and false otherwise."
      },
      "renounceOwnership()": {
        "details": "Leaves the contract without owner. It will not be possible to call `onlyOwner` functions anymore. Can only be called by the current owner. NOTE: Renouncing ownership will leave the contract without an owner, thereby removing any functionality that is only available to the owner."
      },
      "symbol()": {
        "details": "Returns the symbol of the token, usually a shorter version of the name. Overload it to change."
      },
      "totalSupply()": {
        "details": "See {IERC20-totalSupply}."
      },
      "transfer(address,uint256)": {
        "details": "See {IERC20-transfer}. Requirements: - `recipient` cannot be the zero address. - the caller must have a balance of at least `amount`."
      },
      "transferFrom(address,address,uint256)": {
        "details": "See {IERC20-transferFrom}. Emits an {Approval} event indicating the updated allowance. This is not required by the EIP. See the note at the beginning of {ERC20}. Requirements: - `sender` and `recipient` cannot be the zero address. - `sender` must have a balance of at least `amount`. - the caller must have allowance for ``sender``'s tokens of at least `amount`."
      },
      "transferOwnership(address)": {
        "details": "Transfers ownership of the contract to a new account (`newOwner`). Can only be called by the current owner."
      }
    },
    "version": 1
  },
  "userdoc": {
    "kind": "user",
    "methods": {},
    "version": 1
  },
  "storageLayout": {
    "storage": [
      {
        "astId": 137,
        "contract": "contracts/tokens/ETHtx.sol:ETHtx",
        "label": "_initialized",
        "offset": 0,
        "slot": "0",
        "type": "t_bool"
      },
      {
        "astId": 140,
        "contract": "contracts/tokens/ETHtx.sol:ETHtx",
        "label": "_initializing",
        "offset": 1,
        "slot": "0",
        "type": "t_bool"
      },
      {
        "astId": 484,
        "contract": "contracts/tokens/ETHtx.sol:ETHtx",
        "label": "__gap",
        "offset": 0,
        "slot": "1",
        "type": "t_array(t_uint256)50_storage"
      },
      {
        "astId": 10,
        "contract": "contracts/tokens/ETHtx.sol:ETHtx",
        "label": "_owner",
        "offset": 0,
        "slot": "51",
        "type": "t_address"
      },
      {
        "astId": 129,
        "contract": "contracts/tokens/ETHtx.sol:ETHtx",
        "label": "__gap",
        "offset": 0,
        "slot": "52",
        "type": "t_array(t_uint256)49_storage"
      },
      {
        "astId": 506,
        "contract": "contracts/tokens/ETHtx.sol:ETHtx",
        "label": "_paused",
        "offset": 0,
        "slot": "101",
        "type": "t_bool"
      },
      {
        "astId": 597,
        "contract": "contracts/tokens/ETHtx.sol:ETHtx",
        "label": "__gap",
        "offset": 0,
        "slot": "102",
        "type": "t_array(t_uint256)49_storage"
      },
      {
        "astId": 21019,
        "contract": "contracts/tokens/ETHtx.sol:ETHtx",
        "label": "_balances",
        "offset": 0,
        "slot": "151",
        "type": "t_mapping(t_address,t_uint256)"
      },
      {
        "astId": 21025,
        "contract": "contracts/tokens/ETHtx.sol:ETHtx",
        "label": "_allowances",
        "offset": 0,
        "slot": "152",
        "type": "t_mapping(t_address,t_mapping(t_address,t_uint256))"
      },
      {
        "astId": 21027,
        "contract": "contracts/tokens/ETHtx.sol:ETHtx",
        "label": "_totalSupply",
        "offset": 0,
        "slot": "153",
        "type": "t_uint256"
      },
      {
        "astId": 21490,
        "contract": "contracts/tokens/ETHtx.sol:ETHtx",
        "label": "__gap",
        "offset": 0,
        "slot": "154",
        "type": "t_array(t_uint256)47_storage"
      },
      {
        "astId": 21680,
        "contract": "contracts/tokens/ETHtx.sol:ETHtx",
        "label": "_feeLogic",
        "offset": 0,
        "slot": "201",
        "type": "t_address"
      },
      {
        "astId": 21857,
        "contract": "contracts/tokens/ETHtx.sol:ETHtx",
        "label": "__gap",
        "offset": 0,
        "slot": "202",
        "type": "t_array(t_uint256)49_storage"
      },
      {
        "astId": 22101,
        "contract": "contracts/tokens/ETHtx.sol:ETHtx",
        "label": "_minter",
        "offset": 0,
        "slot": "251",
        "type": "t_address"
      }
    ],
    "types": {
      "t_address": {
        "encoding": "inplace",
        "label": "address",
        "numberOfBytes": "20"
      },
      "t_array(t_uint256)47_storage": {
        "base": "t_uint256",
        "encoding": "inplace",
        "label": "uint256[47]",
        "numberOfBytes": "1504"
      },
      "t_array(t_uint256)49_storage": {
        "base": "t_uint256",
        "encoding": "inplace",
        "label": "uint256[49]",
        "numberOfBytes": "1568"
      },
      "t_array(t_uint256)50_storage": {
        "base": "t_uint256",
        "encoding": "inplace",
        "label": "uint256[50]",
        "numberOfBytes": "1600"
      },
      "t_bool": {
        "encoding": "inplace",
        "label": "bool",
        "numberOfBytes": "1"
      },
      "t_mapping(t_address,t_mapping(t_address,t_uint256))": {
        "encoding": "mapping",
        "key": "t_address",
        "label": "mapping(address => mapping(address => uint256))",
        "numberOfBytes": "32",
        "value": "t_mapping(t_address,t_uint256)"
      },
      "t_mapping(t_address,t_uint256)": {
        "encoding": "mapping",
        "key": "t_address",
        "label": "mapping(address => uint256)",
        "numberOfBytes": "32",
        "value": "t_uint256"
      },
      "t_uint256": {
        "encoding": "inplace",
        "label": "uint256",
        "numberOfBytes": "32"
      }
    }
  }
}