{
  "address": "0x91044cc03571b5E32a16f3c68B9ed908de4Ae645",
  "abi": [
    {
      "inputs": [
        {
          "internalType": "address",
          "name": "owner_",
          "type": "address"
        },
        {
          "internalType": "address",
          "name": "defaultRecipient_",
          "type": "address"
        },
        {
          "internalType": "address",
          "name": "rewardsToken_",
          "type": "address"
        }
      ],
      "stateMutability": "nonpayable",
      "type": "constructor"
    },
    {
      "anonymous": false,
      "inputs": [
        {
          "indexed": true,
          "internalType": "address",
          "name": "author",
          "type": "address"
        },
        {
          "indexed": true,
          "internalType": "address",
          "name": "account",
          "type": "address"
        }
      ],
      "name": "DefaultRecipientSet",
      "type": "event"
    },
    {
      "anonymous": false,
      "inputs": [
        {
          "indexed": true,
          "internalType": "address",
          "name": "author",
          "type": "address"
        },
        {
          "indexed": true,
          "internalType": "address",
          "name": "addr",
          "type": "address"
        }
      ],
      "name": "EthmxRewardsAddressSet",
      "type": "event"
    },
    {
      "anonymous": false,
      "inputs": [
        {
          "indexed": true,
          "internalType": "address",
          "name": "author",
          "type": "address"
        },
        {
          "indexed": true,
          "internalType": "address",
          "name": "addr",
          "type": "address"
        }
      ],
      "name": "EthtxAMMAddressSet",
      "type": "event"
    },
    {
      "anonymous": false,
      "inputs": [
        {
          "indexed": true,
          "internalType": "address",
          "name": "author",
          "type": "address"
        },
        {
          "indexed": true,
          "internalType": "address",
          "name": "addr",
          "type": "address"
        }
      ],
      "name": "EthtxAddressSet",
      "type": "event"
    },
    {
      "anonymous": false,
      "inputs": [
        {
          "indexed": true,
          "internalType": "address",
          "name": "author",
          "type": "address"
        },
        {
          "indexed": true,
          "internalType": "address",
          "name": "addr",
          "type": "address"
        }
      ],
      "name": "LPRewardsAddressSet",
      "type": "event"
    },
    {
      "anonymous": false,
      "inputs": [
        {
          "indexed": true,
          "internalType": "address",
          "name": "previousOwner",
          "type": "address"
        },
        {
          "indexed": true,
          "internalType": "address",
          "name": "newOwner",
          "type": "address"
        }
      ],
      "name": "OwnershipTransferred",
      "type": "event"
    },
    {
      "anonymous": false,
      "inputs": [
        {
          "indexed": true,
          "internalType": "address",
          "name": "author",
          "type": "address"
        },
        {
          "indexed": true,
          "internalType": "address",
          "name": "token",
          "type": "address"
        },
        {
          "indexed": true,
          "internalType": "address",
          "name": "to",
          "type": "address"
        },
        {
          "indexed": false,
          "internalType": "uint256",
          "name": "amount",
          "type": "uint256"
        }
      ],
      "name": "RecoveredUnsupported",
      "type": "event"
    },
    {
      "anonymous": false,
      "inputs": [
        {
          "indexed": true,
          "internalType": "address",
          "name": "author",
          "type": "address"
        },
        {
          "indexed": true,
          "internalType": "address",
          "name": "to",
          "type": "address"
        },
        {
          "indexed": false,
          "internalType": "uint256",
          "name": "amount",
          "type": "uint256"
        }
      ],
      "name": "RewardsSent",
      "type": "event"
    },
    {
      "anonymous": false,
      "inputs": [
        {
          "indexed": true,
          "internalType": "address",
          "name": "author",
          "type": "address"
        },
        {
          "indexed": true,
          "internalType": "address",
          "name": "account",
          "type": "address"
        }
      ],
      "name": "SharesActivated",
      "type": "event"
    },
    {
      "anonymous": false,
      "inputs": [
        {
          "indexed": true,
          "internalType": "address",
          "name": "author",
          "type": "address"
        },
        {
          "indexed": true,
          "internalType": "address",
          "name": "account",
          "type": "address"
        },
        {
          "indexed": false,
          "internalType": "uint128",
          "name": "amount",
          "type": "uint128"
        }
      ],
      "name": "SharesAdded",
      "type": "event"
    },
    {
      "anonymous": false,
      "inputs": [
        {
          "indexed": true,
          "internalType": "address",
          "name": "author",
          "type": "address"
        },
        {
          "indexed": true,
          "internalType": "address",
          "name": "account",
          "type": "address"
        }
      ],
      "name": "SharesDeactivated",
      "type": "event"
    },
    {
      "anonymous": false,
      "inputs": [
        {
          "indexed": true,
          "internalType": "address",
          "name": "author",
          "type": "address"
        },
        {
          "indexed": true,
          "internalType": "address",
          "name": "account",
          "type": "address"
        },
        {
          "indexed": false,
          "internalType": "uint128",
          "name": "amount",
          "type": "uint128"
        }
      ],
      "name": "SharesRemoved",
      "type": "event"
    },
    {
      "anonymous": false,
      "inputs": [
        {
          "indexed": true,
          "internalType": "address",
          "name": "author",
          "type": "address"
        },
        {
          "indexed": true,
          "internalType": "address",
          "name": "account",
          "type": "address"
        },
        {
          "indexed": false,
          "internalType": "uint128",
          "name": "value",
          "type": "uint128"
        },
        {
          "indexed": false,
          "internalType": "bool",
          "name": "isActive",
          "type": "bool"
        }
      ],
      "name": "SharesSet",
      "type": "event"
    },
    {
      "inputs": [],
      "name": "activateShares",
      "outputs": [],
      "stateMutability": "nonpayable",
      "type": "function"
    },
    {
      "inputs": [
        {
          "internalType": "address",
          "name": "account",
          "type": "address"
        }
      ],
      "name": "activateSharesFor",
      "outputs": [],
      "stateMutability": "nonpayable",
      "type": "function"
    },
    {
      "inputs": [
        {
          "internalType": "address",
          "name": "account",
          "type": "address"
        },
        {
          "internalType": "uint128",
          "name": "amount",
          "type": "uint128"
        }
      ],
      "name": "addShares",
      "outputs": [],
      "stateMutability": "nonpayable",
      "type": "function"
    },
    {
      "inputs": [],
      "name": "convertETHtx",
      "outputs": [],
      "stateMutability": "nonpayable",
      "type": "function"
    },
    {
      "inputs": [],
      "name": "deactivateShares",
      "outputs": [],
      "stateMutability": "nonpayable",
      "type": "function"
    },
    {
      "inputs": [
        {
          "internalType": "address",
          "name": "account",
          "type": "address"
        }
      ],
      "name": "deactivateSharesFor",
      "outputs": [],
      "stateMutability": "nonpayable",
      "type": "function"
    },
    {
      "inputs": [],
      "name": "defaultRecipient",
      "outputs": [
        {
          "internalType": "address",
          "name": "",
          "type": "address"
        }
      ],
      "stateMutability": "view",
      "type": "function"
    },
    {
      "inputs": [],
      "name": "distributeRewards",
      "outputs": [
        {
          "internalType": "uint256",
          "name": "",
          "type": "uint256"
        }
      ],
      "stateMutability": "nonpayable",
      "type": "function"
    },
    {
      "inputs": [],
      "name": "ethmxRewards",
      "outputs": [
        {
          "internalType": "address",
          "name": "",
          "type": "address"
        }
      ],
      "stateMutability": "view",
      "type": "function"
    },
    {
      "inputs": [],
      "name": "ethtx",
      "outputs": [
        {
          "internalType": "address",
          "name": "",
          "type": "address"
        }
      ],
      "stateMutability": "view",
      "type": "function"
    },
    {
      "inputs": [],
      "name": "ethtxAMM",
      "outputs": [
        {
          "internalType": "address",
          "name": "",
          "type": "address"
        }
      ],
      "stateMutability": "view",
      "type": "function"
    },
    {
      "inputs": [],
      "name": "lpRewards",
      "outputs": [
        {
          "internalType": "address",
          "name": "",
          "type": "address"
        }
      ],
      "stateMutability": "view",
      "type": "function"
    },
    {
      "inputs": [],
      "name": "notifyRecipients",
      "outputs": [],
      "stateMutability": "nonpayable",
      "type": "function"
    },
    {
      "inputs": [],
      "name": "owner",
      "outputs": [
        {
          "internalType": "address",
          "name": "",
          "type": "address"
        }
      ],
      "stateMutability": "view",
      "type": "function"
    },
    {
      "inputs": [
        {
          "internalType": "address",
          "name": "token",
          "type": "address"
        },
        {
          "internalType": "address",
          "name": "to",
          "type": "address"
        },
        {
          "internalType": "uint256",
          "name": "amount",
          "type": "uint256"
        }
      ],
      "name": "recoverUnsupportedERC20",
      "outputs": [],
      "stateMutability": "nonpayable",
      "type": "function"
    },
    {
      "inputs": [
        {
          "internalType": "address",
          "name": "account",
          "type": "address"
        },
        {
          "internalType": "uint128",
          "name": "amount",
          "type": "uint128"
        }
      ],
      "name": "removeShares",
      "outputs": [],
      "stateMutability": "nonpayable",
      "type": "function"
    },
    {
      "inputs": [],
      "name": "renounceOwnership",
      "outputs": [],
      "stateMutability": "nonpayable",
      "type": "function"
    },
    {
      "inputs": [],
      "name": "rewardsToken",
      "outputs": [
        {
          "internalType": "address",
          "name": "",
          "type": "address"
        }
      ],
      "stateMutability": "view",
      "type": "function"
    },
    {
      "inputs": [],
      "name": "sendRewards",
      "outputs": [
        {
          "internalType": "uint256",
          "name": "",
          "type": "uint256"
        }
      ],
      "stateMutability": "nonpayable",
      "type": "function"
    },
    {
      "inputs": [
        {
          "internalType": "address",
          "name": "account",
          "type": "address"
        }
      ],
      "name": "setDefaultRecipient",
      "outputs": [],
      "stateMutability": "nonpayable",
      "type": "function"
    },
    {
      "inputs": [
        {
          "internalType": "address",
          "name": "addr",
          "type": "address"
        }
      ],
      "name": "setEthmxRewardsAddress",
      "outputs": [],
      "stateMutability": "nonpayable",
      "type": "function"
    },
    {
      "inputs": [
        {
          "internalType": "address",
          "name": "addr",
          "type": "address"
        }
      ],
      "name": "setEthtxAMMAddress",
      "outputs": [],
      "stateMutability": "nonpayable",
      "type": "function"
    },
    {
      "inputs": [
        {
          "internalType": "address",
          "name": "addr",
          "type": "address"
        }
      ],
      "name": "setEthtxAddress",
      "outputs": [],
      "stateMutability": "nonpayable",
      "type": "function"
    },
    {
      "inputs": [
        {
          "internalType": "address",
          "name": "addr",
          "type": "address"
        }
      ],
      "name": "setLPRewardsAddress",
      "outputs": [],
      "stateMutability": "nonpayable",
      "type": "function"
    },
    {
      "inputs": [
        {
          "internalType": "address",
          "name": "account",
          "type": "address"
        },
        {
          "internalType": "uint128",
          "name": "value",
          "type": "uint128"
        },
        {
          "internalType": "bool",
          "name": "isActive",
          "type": "bool"
        }
      ],
      "name": "setShares",
      "outputs": [],
      "stateMutability": "nonpayable",
      "type": "function"
    },
    {
      "inputs": [
        {
          "internalType": "address",
          "name": "account",
          "type": "address"
        }
      ],
      "name": "sharesFor",
      "outputs": [
        {
          "internalType": "uint128",
          "name": "active",
          "type": "uint128"
        },
        {
          "internalType": "uint128",
          "name": "total",
          "type": "uint128"
        }
      ],
      "stateMutability": "view",
      "type": "function"
    },
    {
      "inputs": [],
      "name": "totalRewardsAccrued",
      "outputs": [
        {
          "internalType": "uint256",
          "name": "",
          "type": "uint256"
        }
      ],
      "stateMutability": "view",
      "type": "function"
    },
    {
      "inputs": [],
      "name": "totalRewardsRedeemed",
      "outputs": [
        {
          "internalType": "uint256",
          "name": "",
          "type": "uint256"
        }
      ],
      "stateMutability": "view",
      "type": "function"
    },
    {
      "inputs": [],
      "name": "totalShares",
      "outputs": [
        {
          "internalType": "uint256",
          "name": "total",
          "type": "uint256"
        }
      ],
      "stateMutability": "view",
      "type": "function"
    },
    {
      "inputs": [
        {
          "internalType": "address",
          "name": "newOwner",
          "type": "address"
        }
      ],
      "name": "transferOwnership",
      "outputs": [],
      "stateMutability": "nonpayable",
      "type": "function"
    }
  ],
  "transactionHash": "0x4d9e74dba39c1670aa5262836df1c6576a42e660fbdde68a1b1e17550212ea4f",
  "args": [
    "0x5757Dd711EaE80e181E07CdbCe43359Ac1048394",
    "0xEEc0cEA93b6FbAb163099942EE9650d4fe28b886",
    "0x706f8Bf6ff5352F61F3e6D554232BeD01d679938"
  ],
  "solcInputHash": "d866fd3a9c665c3159ffcb94310e6171",
  "bytecode": "0x60a06040523480156200001157600080fd5b506040516200319e3803806200319e833981810160405260608110156200003757600080fd5b50805160208201516040909201519091908181600062000056620000e6565b600080546001600160a01b0319166001600160a01b03831690811782556040519293509160008051602062003129833981519152908290a3506001600160601b0319606082901b16608052620000ac82620000ea565b50620000b9905062000376565b6001600160a01b0316836001600160a01b031614620000dd57620000dd8362000385565b50505062000888565b3390565b620000f4620000e6565b6000546001600160a01b0390811691161462000146576040805162461bcd60e51b8152602060048201819052602482015260008051602062003109833981519152604482015290519081900360640190fd5b6001600160a01b0381166200018d5760405162461bcd60e51b815260040180806020018281038252602a81526020018062003174602a913960400191505060405180910390fd5b6001600160a01b038116301415620001d75760405162461bcd60e51b815260040180806020018281038252602b81526020018062003149602b913960400191505060405180910390fd5b620001e28162000472565b6001546001600160a01b0316600090815260056020526040902080546001600160801b03600160801b8204811691161115620002b55780546001600160801b03600160801b820481168183169081039081900382166001600160801b03199093169290921783556001600160a01b03841660009081526005602090815260409091208054909262000298926200028792821691861690620018c662000594821b17901c565b620005f860201b620019291760201c565b81546001600160801b0319166001600160801b0391909116179055505b8054600160801b90046001600160801b0316620002f457600154620002f2906003906001600160a01b031662000642602090811b6200196d17901c565b505b600180546001600160a01b0319166001600160a01b0384161790556200032860038362000659602090811b6200198217901c565b506001600160a01b0382166200033d620000e6565b6001600160a01b03167f825991f9f9f950375f4d3f04c94283f5f7ea10aa441c6d43cb0e4c7bdce517bf60405160405180910390a35050565b6000546001600160a01b031690565b6200038f620000e6565b6000546001600160a01b03908116911614620003e1576040805162461bcd60e51b8152602060048201819052602482015260008051602062003109833981519152604482015290519081900360640190fd5b6001600160a01b038116620004285760405162461bcd60e51b8152600401808060200182810382526026815260200180620030bc6026913960400191505060405180910390fd5b600080546040516001600160a01b03808516939216916000805160206200312983398151915291a3600080546001600160a01b0319166001600160a01b0392909216919091179055565b6001600160a01b03811660009081526005602052604090208054600160801b90046001600160801b03161580620004b2575080546001600160801b031615155b15620004bf575062000591565b6001546001600160a01b0316600090815260056020908152604090912082546001600160801b031981166001600160801b03600160801b92839004811691909117808655835493946200052a946200028794908416939204909116906200199762000670821b17901c565b81546001600160801b0319166001600160801b03919091161781556001600160a01b03831662000559620000e6565b6001600160a01b03167f40b03d881bb709e31f47030e8d2981dfe8ba639a47b9d36367953e8e754a086060405160405180910390a350505b50565b600082820183811015620005ef576040805162461bcd60e51b815260206004820152601b60248201527f536166654d6174683a206164646974696f6e206f766572666c6f770000000000604482015290519081900360640190fd5b90505b92915050565b6000600160801b82106200063e5760405162461bcd60e51b8152600401808060200182810382526027815260200180620030e26027913960400191505060405180910390fd5b5090565b6000620005ef836001600160a01b038416620006ba565b6000620005ef836001600160a01b03841662000786565b6000620005ef83836040518060400160405280601e81526020017f536166654d6174683a207375627472616374696f6e206f766572666c6f770000815250620007d560201b60201c565b600081815260018301602052604081205480156200077b5783546000198083019190810190600090879083908110620006ef57fe5b90600052602060002001549050808760000184815481106200070d57fe5b6000918252602080832090910192909255828152600189810190925260409020908401905586548790806200073e57fe5b60019003818190600052602060002001600090559055866001016000878152602001908152602001600020600090556001945050505050620005f2565b6000915050620005f2565b600062000794838362000870565b620007cc57508154600181810184556000848152602080822090930184905584548482528286019093526040902091909155620005f2565b506000620005f2565b60008184841115620008685760405162461bcd60e51b81526004018080602001828103825283818151815260200191508051906020019080838360005b838110156200082c57818101518382015260200162000812565b50505050905090810190601f1680156200085a5780820380516001836020036101000a031916815260200191505b509250505060405180910390fd5b505050900390565b60009081526001919091016020526040902054151590565b60805160601c612807620008b560003980610de052806115855280611d225280611f4752506128076000f3fe608060405234801561001057600080fd5b50600436106101da5760003560e01c80638da5cb5b11610104578063b4f0afb6116100a2578063e0a9da6a11610071578063e0a9da6a1461048e578063f14744b1146104c3578063f2fde38b146104cb578063fd144310146104f1576101da565b8063b4f0afb614610414578063c301e5951461043a578063cbc6027614610460578063d1af0c7d14610486576101da565b806391387b15116100de57806391387b15146103c757806395a1297a146103cf57806395cb1b1e146103d7578063b1ebd5d6146103df576101da565b80638da5cb5b146103915780638ed6f26214610399578063902dd186146103bf576101da565b80634f7a6c3c1161017c5780636fd1bc831161014b5780636fd1bc8314610343578063715018a61461034b578063860c19f31461035357806386a86d411461035b576101da565b80634f7a6c3c146102835780636c7a0068146102a95780636eb854c8146102e65780636f4a2cd01461033b576101da565b80630c762141116101b85780630c762141146102155780632d2815531461021d5780633a98ef39146102435780634e84544d1461025d576101da565b806303e4397f146101df57806304c2861b146101e95780630b5e8df9146101f1575b600080fd5b6101e76104f9565b005b6101e761050b565b6101f961051b565b604080516001600160a01b039092168252519081900360200190f35b6101f961052b565b6101e76004803603602081101561023357600080fd5b50356001600160a01b031661053a565b61024b61059e565b60408051918252519081900360200190f35b6101e76004803603602081101561027357600080fd5b50356001600160a01b03166105fd565b6101e76004803603602081101561029957600080fd5b50356001600160a01b03166106b3565b6101e7600480360360608110156102bf57600080fd5b506001600160a01b03813516906001600160801b03602082013516906040013515156108fa565b61030c600480360360208110156102fc57600080fd5b50356001600160a01b0316610c68565b60405180836001600160801b03168152602001826001600160801b031681526020019250505060405180910390f35b61024b610c98565b6101e7610cc1565b6101e7610cd1565b61024b610d73565b6101e76004803603606081101561037157600080fd5b506001600160a01b03813581169160208101359091169060400135610d86565b6101f9610ec4565b6101e7600480360360208110156103af57600080fd5b50356001600160a01b0316610ed3565b6101f9610f34565b6101e7610f43565b61024b61106a565b61024b611070565b6101e7600480360360408110156103f557600080fd5b5080356001600160a01b031690602001356001600160801b03166110d8565b6101e76004803603602081101561042a57600080fd5b50356001600160a01b0316611361565b6101e76004803603602081101561045057600080fd5b50356001600160a01b0316611417565b6101e76004803603602081101561047657600080fd5b50356001600160a01b03166114cd565b6101f9611583565b6101e7600480360360408110156104a457600080fd5b5080356001600160a01b031690602001356001600160801b03166115a7565b6101f96117b0565b6101e7600480360360208110156104e157600080fd5b50356001600160a01b03166117bf565b6101f96118b7565b6105096105046119d9565b6119dd565b565b6105096105166119d9565b611ad8565b6001546001600160a01b03165b90565b6009546001600160a01b031690565b6105426119d9565b6000546001600160a01b03908116911614610592576040805162461bcd60e51b81526020600482018190526024820152600080516020612733833981519152604482015290519081900360640190fd5b61059b81611ad8565b50565b6000805b6105ac6003611bdf565b8110156105f957600560006105c2600384611bea565b6001600160a01b03168152602081019190915260400160002054600160801b90046001600160801b031691909101906001016105a2565b5090565b6106056119d9565b6000546001600160a01b03908116911614610655576040805162461bcd60e51b81526020600482018190526024820152600080516020612733833981519152604482015290519081900360640190fd5b600680546001600160a01b0319166001600160a01b03831690811790915561067b6119d9565b6001600160a01b03167f913d9a69e403f9beaf246057172211793b96d95f3469f37e35c9cbebada8d22860405160405180910390a350565b6106bb6119d9565b6000546001600160a01b0390811691161461070b576040805162461bcd60e51b81526020600482018190526024820152600080516020612733833981519152604482015290519081900360640190fd5b6001600160a01b0381166107505760405162461bcd60e51b815260040180806020018281038252602a8152602001806127a8602a913960400191505060405180910390fd5b6001600160a01b0381163014156107985760405162461bcd60e51b815260040180806020018281038252602b815260200180612753602b913960400191505060405180910390fd5b6107a181611ad8565b6001546001600160a01b0316600090815260056020526040902080546001600160801b03600160801b82048116911611156108585780546001600160801b03600160801b820481168183169081039081900382166001600160801b03199093169290921783556001600160a01b03841660009081526005602052604090208054909161083b91610836919081169085166118c6565b611929565b81546001600160801b0319166001600160801b0391909116179055505b8054600160801b90046001600160801b031661088857600154610886906003906001600160a01b031661196d565b505b600180546001600160a01b0319166001600160a01b0384161790556108ae600383611982565b50816001600160a01b03166108c16119d9565b6001600160a01b03167f825991f9f9f950375f4d3f04c94283f5f7ea10aa441c6d43cb0e4c7bdce517bf60405160405180910390a35050565b6109026119d9565b6000546001600160a01b03908116911614610952576040805162461bcd60e51b81526020600482018190526024820152600080516020612733833981519152604482015290519081900360640190fd5b6001600160a01b0383166109975760405162461bcd60e51b81526004018080602001828103825260328152602001806125ff6032913960400191505060405180910390fd5b6001600160a01b0383163014156109df5760405162461bcd60e51b815260040180806020018281038252603b81526020018061254c603b913960400191505060405180910390fd5b6001546001600160a01b03908116600081815260056020526040902090918516821415610acc578054610a3790610836906001600160801b0380881691610a319181811691600160801b900416611997565b906118c6565b81546001600160801b0319166001600160801b03918216178116600160801b918616919091021781556001600160a01b038516610a726119d9565b6001600160a01b03167f4de46491e6981c5a2286f73b7825775a2141c4927704f3ba93a109c6cd9487ef868660405180836001600160801b0316815260200182151581526020019250505060405180910390a35050610c63565b6001600160a01b03851660009081526005602052604090208054600160801b90046001600160801b031615801590610b0c575080546001600160801b0316155b15610b525780548254610b3691610836916001600160801b0390811691600160801b900416611997565b82546001600160801b0319166001600160801b03919091161782555b83610ba25780546001600160801b03191681558154610b8290610836906001600160801b039081169088166118c6565b82546001600160801b0319166001600160801b0391909116178255610bbc565b80546001600160801b0319166001600160801b0386161781555b80546001600160801b03808716600160801b81029190921617825515610bed57610be7600387611982565b50610bfa565b610bf860038761196d565b505b856001600160a01b0316610c0c6119d9565b6001600160a01b03167f4de46491e6981c5a2286f73b7825775a2141c4927704f3ba93a109c6cd9487ef878760405180836001600160801b0316815260200182151581526020019250505060405180910390a35050505b505050565b6001600160a01b03166000908152600560205260409020546001600160801b0380821692600160801b9092041690565b6000610ca2610f43565b6000610cac611070565b90508015610cbc57610cbc610cc1565b905090565b610cc9611bf6565b610509611cc2565b610cd96119d9565b6000546001600160a01b03908116911614610d29576040805162461bcd60e51b81526020600482018190526024820152600080516020612733833981519152604482015290519081900360640190fd5b600080546040516001600160a01b03909116907f8be0079c531659141344cd1fd0a4f28419497f9722a3daafe3b4186f6b6457e0908390a3600080546001600160a01b0319169055565b6000600254610d80611d1e565b01905090565b610d8e6119d9565b6000546001600160a01b03908116911614610dde576040805162461bcd60e51b81526020600482018190526024820152600080516020612733833981519152604482015290519081900360640190fd5b7f00000000000000000000000000000000000000000000000000000000000000006001600160a01b0316836001600160a01b03161415610e4f5760405162461bcd60e51b815260040180806020018281038252602c815260200180612587602c913960400191505060405180910390fd5b610e636001600160a01b0384168383611dbe565b816001600160a01b0316836001600160a01b0316610e7f6119d9565b6001600160a01b03167feaf4cea276efdcae93a52ca2f4bfdd952992169289bf655b1870a4b20bdae7d6846040518082815260200191505060405180910390a4505050565b6000546001600160a01b031690565b610edb6119d9565b6000546001600160a01b03908116911614610f2b576040805162461bcd60e51b81526020600482018190526024820152600080516020612733833981519152604482015290519081900360640190fd5b61059b816119dd565b6007546001600160a01b031690565b6000610f4d610f34565b90506000816001600160a01b03166370a08231306040518263ffffffff1660e01b815260040180826001600160a01b0316815260200191505060206040518083038186803b158015610f9e57600080fd5b505afa158015610fb2573d6000803e3d6000fd5b505050506040513d6020811015610fc857600080fd5b5051905080610fd8575050610509565b6000610fe26117b0565b9050610ff86001600160a01b0384168284611e10565b60408051637cbc237360e01b815260048101849052610e1042016024820181905291516001600160a01b03841691637cbc237391604480830192600092919082900301818387803b15801561104c57600080fd5b505af1158015611060573d6000803e3d6000fd5b5050505050505050565b60025490565b60008061107b611d1e565b90508061108c576000915050610528565b600061109661059e565b905060005b6110a56003611bdf565b8110156110c9576110c16110ba600383611bea565b8385611efb565b60010161109b565b50506002805482019055905090565b6110e06119d9565b6000546001600160a01b03908116911614611130576040805162461bcd60e51b81526020600482018190526024820152600080516020612733833981519152604482015290519081900360640190fd5b6001600160a01b0382166111755760405162461bcd60e51b81526004018080602001828103825260318152602001806126a76031913960400191505060405180910390fd5b6001600160a01b0382163014156111bd5760405162461bcd60e51b815260040180806020018281038252603a8152602001806126f9603a913960400191505060405180910390fd5b6001600160801b0381166112025760405162461bcd60e51b81526004018080602001828103825260268152602001806125b36026913960400191505060405180910390fd5b6001600160a01b038216600090815260056020526040902080546001600160801b0316611280576001546001600160a01b03166000908152600560205260409020805461126090610836906001600160801b039081169086166118c6565b81546001600160801b0319166001600160801b03919091161790556112b9565b805461129d90610836906001600160801b039081169085166118c6565b81546001600160801b0319166001600160801b03919091161781555b80546112dd9061083690600160801b90046001600160801b039081169085166118c6565b81546001600160801b03918216600160801b029116178155611300600384611982565b50826001600160a01b03166113136119d9565b6001600160a01b03167fb0526516c002a40f095ce404988798881dbee27cd25699cd9decde3702993da78460405180826001600160801b0316815260200191505060405180910390a3505050565b6113696119d9565b6000546001600160a01b039081169116146113b9576040805162461bcd60e51b81526020600482018190526024820152600080516020612733833981519152604482015290519081900360640190fd5b600880546001600160a01b0319166001600160a01b0383169081179091556113df6119d9565b6001600160a01b03167f6b280d88a71e3350b4e6b92556f8413347439e6bca3e3d9b21e93182d033d08760405160405180910390a350565b61141f6119d9565b6000546001600160a01b0390811691161461146f576040805162461bcd60e51b81526020600482018190526024820152600080516020612733833981519152604482015290519081900360640190fd5b600780546001600160a01b0319166001600160a01b0383169081179091556114956119d9565b6001600160a01b03167ff9f4b296b0c32540acafb6c8937812d833013c92ebdc4c2ac0d9910132a1a26d60405160405180910390a350565b6114d56119d9565b6000546001600160a01b03908116911614611525576040805162461bcd60e51b81526020600482018190526024820152600080516020612733833981519152604482015290519081900360640190fd5b600980546001600160a01b0319166001600160a01b03831690811790915561154b6119d9565b6001600160a01b03167fc5d389b63caae09f667aec538ad0d98aab524b8f6896cc6125f65898e92d134360405160405180910390a350565b7f000000000000000000000000000000000000000000000000000000000000000081565b6115af6119d9565b6000546001600160a01b039081169116146115ff576040805162461bcd60e51b81526020600482018190526024820152600080516020612733833981519152604482015290519081900360640190fd5b6001600160801b0381166116445760405162461bcd60e51b81526004018080602001828103825260298152602001806126316029913960400191505060405180910390fd5b6001600160a01b038216600090815260056020526040902080546001600160801b03166116c2576001546001600160a01b0316600090815260056020526040902080546116a290610836906001600160801b03908116908616611997565b81546001600160801b0319166001600160801b03919091161790556116fb565b80546116df90610836906001600160801b03908116908516611997565b81546001600160801b0319166001600160801b03919091161781555b805461171f9061083690600160801b90046001600160801b03908116908516611997565b81546001600160801b03908116600160801b92821683021780845591909104166117505761174e60038461196d565b505b826001600160a01b03166117626119d9565b6001600160a01b03167f5fb77bf2c7b86e2345c2fc7c204ec8d8c378d00526c58afbb2a61d3350b2df5c8460405180826001600160801b0316815260200191505060405180910390a3505050565b6008546001600160a01b031690565b6117c76119d9565b6000546001600160a01b03908116911614611817576040805162461bcd60e51b81526020600482018190526024820152600080516020612733833981519152604482015290519081900360640190fd5b6001600160a01b03811661185c5760405162461bcd60e51b81526004018080602001828103825260268152602001806125d96026913960400191505060405180910390fd5b600080546040516001600160a01b03808516939216917f8be0079c531659141344cd1fd0a4f28419497f9722a3daafe3b4186f6b6457e091a3600080546001600160a01b0319166001600160a01b0392909216919091179055565b6006546001600160a01b031690565b600082820183811015611920576040805162461bcd60e51b815260206004820152601b60248201527f536166654d6174683a206164646974696f6e206f766572666c6f770000000000604482015290519081900360640190fd5b90505b92915050565b6000600160801b82106105f95760405162461bcd60e51b815260040180806020018281038252602781526020018061265a6027913960400191505060405180910390fd5b6000611920836001600160a01b038416611f6e565b6000611920836001600160a01b038416612034565b600061192083836040518060400160405280601e81526020017f536166654d6174683a207375627472616374696f6e206f766572666c6f77000081525061207e565b3390565b6001546001600160a01b03828116911614156119f85761059b565b6001600160a01b038116600090815260056020526040902080546001600160801b0316611a25575061059b565b6001546001600160a01b0316600090815260056020526040902081546001600160801b0319168083558154611a7191610836916001600160801b0390811691600160801b9004166118c6565b81546001600160801b0319166001600160801b03919091161781556001600160a01b038316611a9e6119d9565b6001600160a01b03167f3fbaeb975b6f6e0cc02bfd572112307889d79b6d7154796814aff3e145df5dde60405160405180910390a3505050565b6001600160a01b03811660009081526005602052604090208054600160801b90046001600160801b03161580611b17575080546001600160801b031615155b15611b22575061059b565b6001546001600160a01b0316600090815260056020526040902081546001600160801b031981166001600160801b03600160801b928390048116919091178085558354611b789361083693918216920416611997565b81546001600160801b0319166001600160801b03919091161781556001600160a01b038316611ba56119d9565b6001600160a01b03167f40b03d881bb709e31f47030e8d2981dfe8ba639a47b9d36367953e8e754a086060405160405180910390a3505050565b60006119238261211a565b6000611920838361211e565b6000611c006118b7565b9050806001600160a01b031663bfb0efab6040518163ffffffff1660e01b815260040160206040518083038186803b158015611c3b57600080fd5b505afa158015611c4f573d6000803e3d6000fd5b505050506040513d6020811015611c6557600080fd5b50511561059b57806001600160a01b0316633ad661276040518163ffffffff1660e01b8152600401600060405180830381600087803b158015611ca757600080fd5b505af1158015611cbb573d6000803e3d6000fd5b5050505050565b611cca61052b565b6001600160a01b0316633ad661276040518163ffffffff1660e01b8152600401600060405180830381600087803b158015611d0457600080fd5b505af1158015611d18573d6000803e3d6000fd5b50505050565b60007f00000000000000000000000000000000000000000000000000000000000000006001600160a01b03166370a08231306040518263ffffffff1660e01b815260040180826001600160a01b0316815260200191505060206040518083038186803b158015611d8d57600080fd5b505afa158015611da1573d6000803e3d6000fd5b505050506040513d6020811015611db757600080fd5b5051905090565b604080516001600160a01b038416602482015260448082018490528251808303909101815260649091019091526020810180516001600160e01b031663a9059cbb60e01b179052610c63908490612182565b6000611ea682856001600160a01b031663dd62ed3e30876040518363ffffffff1660e01b815260040180836001600160a01b03168152602001826001600160a01b031681526020019250505060206040518083038186803b158015611e7457600080fd5b505afa158015611e88573d6000803e3d6000fd5b505050506040513d6020811015611e9e57600080fd5b5051906118c6565b604080516001600160a01b038616602482015260448082018490528251808303909101815260649091019091526020810180516001600160e01b031663095ea7b360e01b179052909150611d18908590612182565b6001600160a01b03831660009081526005602052604081208054909190611f38908590611f329086906001600160801b0316612233565b9061228c565b9050611cbb6001600160a01b037f0000000000000000000000000000000000000000000000000000000000000000168683611dbe565b6000818152600183016020526040812054801561202a5783546000198083019190810190600090879083908110611fa157fe5b9060005260206000200154905080876000018481548110611fbe57fe5b600091825260208083209091019290925582815260018981019092526040902090840190558654879080611fee57fe5b60019003818190600052602060002001600090559055866001016000878152602001908152602001600020600090556001945050505050611923565b6000915050611923565b600061204083836122ce565b61207657508154600181810184556000848152602080822090930184905584548482528286019093526040902091909155611923565b506000611923565b6000818484111561210d5760405162461bcd60e51b81526004018080602001828103825283818151815260200191508051906020019080838360005b838110156120d25781810151838201526020016120ba565b50505050905090810190601f1680156120ff5780820380516001836020036101000a031916815260200191505b509250505060405180910390fd5b50508183035b9392505050565b5490565b815460009082106121605760405162461bcd60e51b815260040180806020018281038252602281526020018061252a6022913960400191505060405180910390fd5b82600001828154811061216f57fe5b9060005260206000200154905092915050565b60006121d7826040518060400160405280602081526020017f5361666545524332303a206c6f772d6c6576656c2063616c6c206661696c6564815250856001600160a01b03166122e69092919063ffffffff16565b805190915015610c63578080602001905160208110156121f657600080fd5b5051610c635760405162461bcd60e51b815260040180806020018281038252602a81526020018061277e602a913960400191505060405180910390fd5b60008261224257506000611923565b8282028284828161224f57fe5b04146119205760405162461bcd60e51b81526004018080602001828103825260218152602001806126d86021913960400191505060405180910390fd5b600061192083836040518060400160405280601a81526020017f536166654d6174683a206469766973696f6e206279207a65726f0000000000008152506122fd565b60009081526001919091016020526040902054151590565b60606122f58484600085612362565b949350505050565b6000818361234c5760405162461bcd60e51b81526020600482018181528351602484015283519092839260449091019190850190808383600083156120d25781810151838201526020016120ba565b50600083858161235857fe5b0495945050505050565b6060824710156123a35760405162461bcd60e51b81526004018080602001828103825260268152602001806126816026913960400191505060405180910390fd5b6123ac856124bd565b6123fd576040805162461bcd60e51b815260206004820152601d60248201527f416464726573733a2063616c6c20746f206e6f6e2d636f6e7472616374000000604482015290519081900360640190fd5b600080866001600160a01b031685876040518082805190602001908083835b6020831061243b5780518252601f19909201916020918201910161241c565b6001836020036101000a03801982511681845116808217855250505050505090500191505060006040518083038185875af1925050503d806000811461249d576040519150601f19603f3d011682016040523d82523d6000602084013e6124a2565b606091505b50915091506124b28282866124c3565b979650505050505050565b3b151590565b606083156124d2575081612113565b8251156124e25782518084602001fd5b60405162461bcd60e51b81526020600482018181528451602484015284518593919283926044019190850190808383600083156120d25781810151838201526020016120ba56fe456e756d657261626c655365743a20696e646578206f7574206f6620626f756e6473526577617264734d616e616765723a2063616e6e6f74207365742073686172657320666f72207468697320636f6e74726163742061646472657373526577617264734d616e616765723a2063616e6e6f74207265636f766572207265776172647320746f6b656e526577617264734d616e616765723a2063616e6e6f7420616464207a65726f207368617265734f776e61626c653a206e6577206f776e657220697320746865207a65726f2061646472657373526577617264734d616e616765723a2063616e6e6f74207365742073686172657320666f72207a65726f2061646472657373526577617264734d616e616765723a2063616e6e6f742072656d6f7665207a65726f2073686172657353616665436173743a2076616c756520646f65736e27742066697420696e203132382062697473416464726573733a20696e73756666696369656e742062616c616e636520666f722063616c6c526577617264734d616e616765723a2063616e6e6f74206164642073686172657320746f207a65726f2061646472657373536166654d6174683a206d756c7469706c69636174696f6e206f766572666c6f77526577617264734d616e616765723a2063616e6e6f74206164642073686172657320746f207468697320636f6e747261637420616464726573734f776e61626c653a2063616c6c6572206973206e6f7420746865206f776e6572526577617264734d616e616765723a2063616e6e6f742073657420746f207468697320636f6e74726163745361666545524332303a204552433230206f7065726174696f6e20646964206e6f742073756363656564526577617264734d616e616765723a2063616e6e6f742073657420746f207a65726f2061646472657373a26469706673582212204f1fca99c990537803e401460ecc4194bd0d367f7074bab3ff250821be18f86a64736f6c634300070600334f776e61626c653a206e6577206f776e657220697320746865207a65726f206164647265737353616665436173743a2076616c756520646f65736e27742066697420696e2031323820626974734f776e61626c653a2063616c6c6572206973206e6f7420746865206f776e65728be0079c531659141344cd1fd0a4f28419497f9722a3daafe3b4186f6b6457e0526577617264734d616e616765723a2063616e6e6f742073657420746f207468697320636f6e7472616374526577617264734d616e616765723a2063616e6e6f742073657420746f207a65726f2061646472657373",
  "devdoc": {
    "kind": "dev",
    "methods": {
      "owner()": {
        "details": "Returns the address of the current owner."
      },
      "renounceOwnership()": {
        "details": "Leaves the contract without owner. It will not be possible to call `onlyOwner` functions anymore. Can only be called by the current owner. NOTE: Renouncing ownership will leave the contract without an owner, thereby removing any functionality that is only available to the owner."
      },
      "transferOwnership(address)": {
        "details": "Transfers ownership of the contract to a new account (`newOwner`). Can only be called by the current owner."
      }
    },
    "version": 1
  },
  "userdoc": {
    "kind": "user",
    "methods": {},
    "version": 1
  },
  "storageLayout": {
    "storage": [
      {
        "astId": 912,
        "contract": "contracts/rewards/ETHtxRewardsManager.sol:ETHtxRewardsManager",
        "label": "_owner",
        "offset": 0,
        "slot": "0",
        "type": "t_address"
      },
      {
        "astId": 13067,
        "contract": "contracts/rewards/ETHtxRewardsManager.sol:ETHtxRewardsManager",
        "label": "_defaultRecipient",
        "offset": 0,
        "slot": "1",
        "type": "t_address"
      },
      {
        "astId": 13069,
        "contract": "contracts/rewards/ETHtxRewardsManager.sol:ETHtxRewardsManager",
        "label": "_totalRewardsRedeemed",
        "offset": 0,
        "slot": "2",
        "type": "t_uint256"
      },
      {
        "astId": 13071,
        "contract": "contracts/rewards/ETHtxRewardsManager.sol:ETHtxRewardsManager",
        "label": "_recipients",
        "offset": 0,
        "slot": "3",
        "type": "t_struct(AddressSet)2731_storage"
      },
      {
        "astId": 13075,
        "contract": "contracts/rewards/ETHtxRewardsManager.sol:ETHtxRewardsManager",
        "label": "_shares",
        "offset": 0,
        "slot": "5",
        "type": "t_mapping(t_address,t_struct(Shares)13062_storage)"
      },
      {
        "astId": 7610,
        "contract": "contracts/rewards/ETHtxRewardsManager.sol:ETHtxRewardsManager",
        "label": "_ethmxRewards",
        "offset": 0,
        "slot": "6",
        "type": "t_address"
      },
      {
        "astId": 7612,
        "contract": "contracts/rewards/ETHtxRewardsManager.sol:ETHtxRewardsManager",
        "label": "_ethtx",
        "offset": 0,
        "slot": "7",
        "type": "t_address"
      },
      {
        "astId": 7614,
        "contract": "contracts/rewards/ETHtxRewardsManager.sol:ETHtxRewardsManager",
        "label": "_ethtxAMM",
        "offset": 0,
        "slot": "8",
        "type": "t_address"
      },
      {
        "astId": 7616,
        "contract": "contracts/rewards/ETHtxRewardsManager.sol:ETHtxRewardsManager",
        "label": "_lpRewards",
        "offset": 0,
        "slot": "9",
        "type": "t_address"
      }
    ],
    "types": {
      "t_address": {
        "encoding": "inplace",
        "label": "address",
        "numberOfBytes": "20"
      },
      "t_array(t_bytes32)dyn_storage": {
        "base": "t_bytes32",
        "encoding": "dynamic_array",
        "label": "bytes32[]",
        "numberOfBytes": "32"
      },
      "t_bytes32": {
        "encoding": "inplace",
        "label": "bytes32",
        "numberOfBytes": "32"
      },
      "t_mapping(t_address,t_struct(Shares)13062_storage)": {
        "encoding": "mapping",
        "key": "t_address",
        "label": "mapping(address => struct RewardsManager.Shares)",
        "numberOfBytes": "32",
        "value": "t_struct(Shares)13062_storage"
      },
      "t_mapping(t_bytes32,t_uint256)": {
        "encoding": "mapping",
        "key": "t_bytes32",
        "label": "mapping(bytes32 => uint256)",
        "numberOfBytes": "32",
        "value": "t_uint256"
      },
      "t_struct(AddressSet)2731_storage": {
        "encoding": "inplace",
        "label": "struct EnumerableSet.AddressSet",
        "members": [
          {
            "astId": 2730,
            "contract": "contracts/rewards/ETHtxRewardsManager.sol:ETHtxRewardsManager",
            "label": "_inner",
            "offset": 0,
            "slot": "0",
            "type": "t_struct(Set)2466_storage"
          }
        ],
        "numberOfBytes": "64"
      },
      "t_struct(Set)2466_storage": {
        "encoding": "inplace",
        "label": "struct EnumerableSet.Set",
        "members": [
          {
            "astId": 2461,
            "contract": "contracts/rewards/ETHtxRewardsManager.sol:ETHtxRewardsManager",
            "label": "_values",
            "offset": 0,
            "slot": "0",
            "type": "t_array(t_bytes32)dyn_storage"
          },
          {
            "astId": 2465,
            "contract": "contracts/rewards/ETHtxRewardsManager.sol:ETHtxRewardsManager",
            "label": "_indexes",
            "offset": 0,
            "slot": "1",
            "type": "t_mapping(t_bytes32,t_uint256)"
          }
        ],
        "numberOfBytes": "64"
      },
      "t_struct(Shares)13062_storage": {
        "encoding": "inplace",
        "label": "struct RewardsManager.Shares",
        "members": [
          {
            "astId": 13059,
            "contract": "contracts/rewards/ETHtxRewardsManager.sol:ETHtxRewardsManager",
            "label": "active",
            "offset": 0,
            "slot": "0",
            "type": "t_uint128"
          },
          {
            "astId": 13061,
            "contract": "contracts/rewards/ETHtxRewardsManager.sol:ETHtxRewardsManager",
            "label": "total",
            "offset": 16,
            "slot": "0",
            "type": "t_uint128"
          }
        ],
        "numberOfBytes": "32"
      },
      "t_uint128": {
        "encoding": "inplace",
        "label": "uint128",
        "numberOfBytes": "16"
      },
      "t_uint256": {
        "encoding": "inplace",
        "label": "uint256",
        "numberOfBytes": "32"
      }
    }
  }
}