{
  "address": "0x5F78eDAc2e0c60e86F04bC93cc9852851Aed752b",
  "abi": [
    {
      "inputs": [
        {
          "internalType": "address",
          "name": "owner_",
          "type": "address"
        },
        {
          "internalType": "address",
          "name": "ethtx_",
          "type": "address"
        },
        {
          "internalType": "address",
          "name": "gasOracle_",
          "type": "address"
        },
        {
          "internalType": "address",
          "name": "weth_",
          "type": "address"
        },
        {
          "internalType": "uint128",
          "name": "targetCRatioNum_",
          "type": "uint128"
        },
        {
          "internalType": "uint128",
          "name": "targetCRatioDen_",
          "type": "uint128"
        }
      ],
      "stateMutability": "nonpayable",
      "type": "constructor"
    },
    {
      "anonymous": false,
      "inputs": [
        {
          "indexed": true,
          "internalType": "address",
          "name": "author",
          "type": "address"
        },
        {
          "indexed": true,
          "internalType": "address",
          "name": "account",
          "type": "address"
        }
      ],
      "name": "ETHtxSet",
      "type": "event"
    },
    {
      "anonymous": false,
      "inputs": [
        {
          "indexed": true,
          "internalType": "address",
          "name": "author",
          "type": "address"
        },
        {
          "indexed": true,
          "internalType": "address",
          "name": "account",
          "type": "address"
        }
      ],
      "name": "GasOracleSet",
      "type": "event"
    },
    {
      "anonymous": false,
      "inputs": [
        {
          "indexed": true,
          "internalType": "address",
          "name": "previousOwner",
          "type": "address"
        },
        {
          "indexed": true,
          "internalType": "address",
          "name": "newOwner",
          "type": "address"
        }
      ],
      "name": "OwnershipTransferred",
      "type": "event"
    },
    {
      "anonymous": false,
      "inputs": [
        {
          "indexed": false,
          "internalType": "address",
          "name": "account",
          "type": "address"
        }
      ],
      "name": "Paused",
      "type": "event"
    },
    {
      "anonymous": false,
      "inputs": [
        {
          "indexed": true,
          "internalType": "address",
          "name": "author",
          "type": "address"
        },
        {
          "indexed": true,
          "internalType": "address",
          "name": "token",
          "type": "address"
        },
        {
          "indexed": true,
          "internalType": "address",
          "name": "to",
          "type": "address"
        },
        {
          "indexed": false,
          "internalType": "uint256",
          "name": "amount",
          "type": "uint256"
        }
      ],
      "name": "RecoveredUnsupported",
      "type": "event"
    },
    {
      "anonymous": false,
      "inputs": [
        {
          "indexed": true,
          "internalType": "address",
          "name": "author",
          "type": "address"
        },
        {
          "indexed": false,
          "internalType": "uint128",
          "name": "numerator",
          "type": "uint128"
        },
        {
          "indexed": false,
          "internalType": "uint128",
          "name": "denominator",
          "type": "uint128"
        }
      ],
      "name": "TargetCRatioSet",
      "type": "event"
    },
    {
      "anonymous": false,
      "inputs": [
        {
          "indexed": false,
          "internalType": "address",
          "name": "account",
          "type": "address"
        }
      ],
      "name": "Unpaused",
      "type": "event"
    },
    {
      "anonymous": false,
      "inputs": [
        {
          "indexed": true,
          "internalType": "address",
          "name": "author",
          "type": "address"
        },
        {
          "indexed": true,
          "internalType": "address",
          "name": "account",
          "type": "address"
        }
      ],
      "name": "WETHSet",
      "type": "event"
    },
    {
      "inputs": [
        {
          "internalType": "uint256",
          "name": "deadline",
          "type": "uint256"
        }
      ],
      "name": "buy",
      "outputs": [],
      "stateMutability": "payable",
      "type": "function"
    },
    {
      "inputs": [
        {
          "internalType": "uint256",
          "name": "amountOut",
          "type": "uint256"
        },
        {
          "internalType": "uint256",
          "name": "deadline",
          "type": "uint256"
        }
      ],
      "name": "buyExact",
      "outputs": [],
      "stateMutability": "payable",
      "type": "function"
    },
    {
      "inputs": [
        {
          "internalType": "uint256",
          "name": "amountInMax",
          "type": "uint256"
        },
        {
          "internalType": "uint256",
          "name": "amountOut",
          "type": "uint256"
        },
        {
          "internalType": "uint256",
          "name": "deadline",
          "type": "uint256"
        }
      ],
      "name": "buyExactWithWETH",
      "outputs": [],
      "stateMutability": "nonpayable",
      "type": "function"
    },
    {
      "inputs": [
        {
          "internalType": "uint256",
          "name": "amountOutMin",
          "type": "uint256"
        },
        {
          "internalType": "uint256",
          "name": "deadline",
          "type": "uint256"
        }
      ],
      "name": "buyWithExactETH",
      "outputs": [],
      "stateMutability": "payable",
      "type": "function"
    },
    {
      "inputs": [
        {
          "internalType": "uint256",
          "name": "amountIn",
          "type": "uint256"
        },
        {
          "internalType": "uint256",
          "name": "amountOutMin",
          "type": "uint256"
        },
        {
          "internalType": "uint256",
          "name": "deadline",
          "type": "uint256"
        }
      ],
      "name": "buyWithExactWETH",
      "outputs": [],
      "stateMutability": "nonpayable",
      "type": "function"
    },
    {
      "inputs": [
        {
          "internalType": "uint256",
          "name": "amountIn",
          "type": "uint256"
        },
        {
          "internalType": "uint256",
          "name": "deadline",
          "type": "uint256"
        }
      ],
      "name": "buyWithWETH",
      "outputs": [],
      "stateMutability": "nonpayable",
      "type": "function"
    },
    {
      "inputs": [],
      "name": "cRatio",
      "outputs": [
        {
          "internalType": "uint256",
          "name": "numerator",
          "type": "uint256"
        },
        {
          "internalType": "uint256",
          "name": "denominator",
          "type": "uint256"
        }
      ],
      "stateMutability": "view",
      "type": "function"
    },
    {
      "inputs": [],
      "name": "cRatioBelowTarget",
      "outputs": [
        {
          "internalType": "bool",
          "name": "",
          "type": "bool"
        }
      ],
      "stateMutability": "view",
      "type": "function"
    },
    {
      "inputs": [
        {
          "internalType": "uint256",
          "name": "amountETHtxOut",
          "type": "uint256"
        }
      ],
      "name": "ethForEthtx",
      "outputs": [
        {
          "internalType": "uint256",
          "name": "",
          "type": "uint256"
        }
      ],
      "stateMutability": "view",
      "type": "function"
    },
    {
      "inputs": [
        {
          "internalType": "uint256",
          "name": "amountETHtxIn",
          "type": "uint256"
        }
      ],
      "name": "ethFromEthtxAtRedemption",
      "outputs": [
        {
          "internalType": "uint256",
          "name": "",
          "type": "uint256"
        }
      ],
      "stateMutability": "view",
      "type": "function"
    },
    {
      "inputs": [],
      "name": "ethSupply",
      "outputs": [
        {
          "internalType": "uint256",
          "name": "",
          "type": "uint256"
        }
      ],
      "stateMutability": "view",
      "type": "function"
    },
    {
      "inputs": [],
      "name": "ethtx",
      "outputs": [
        {
          "internalType": "address",
          "name": "",
          "type": "address"
        }
      ],
      "stateMutability": "view",
      "type": "function"
    },
    {
      "inputs": [],
      "name": "ethtxAvailable",
      "outputs": [
        {
          "internalType": "uint256",
          "name": "",
          "type": "uint256"
        }
      ],
      "stateMutability": "view",
      "type": "function"
    },
    {
      "inputs": [
        {
          "internalType": "uint256",
          "name": "amountETHOut",
          "type": "uint256"
        }
      ],
      "name": "ethtxForEthAtRedemption",
      "outputs": [
        {
          "internalType": "uint256",
          "name": "",
          "type": "uint256"
        }
      ],
      "stateMutability": "view",
      "type": "function"
    },
    {
      "inputs": [
        {
          "internalType": "uint256",
          "name": "amountETHIn",
          "type": "uint256"
        }
      ],
      "name": "ethtxFromEth",
      "outputs": [
        {
          "internalType": "uint256",
          "name": "",
          "type": "uint256"
        }
      ],
      "stateMutability": "view",
      "type": "function"
    },
    {
      "inputs": [],
      "name": "ethtxOutstanding",
      "outputs": [
        {
          "internalType": "uint256",
          "name": "",
          "type": "uint256"
        }
      ],
      "stateMutability": "view",
      "type": "function"
    },
    {
      "inputs": [],
      "name": "feeLogic",
      "outputs": [
        {
          "internalType": "address",
          "name": "",
          "type": "address"
        }
      ],
      "stateMutability": "view",
      "type": "function"
    },
    {
      "inputs": [],
      "name": "gasOracle",
      "outputs": [
        {
          "internalType": "address",
          "name": "",
          "type": "address"
        }
      ],
      "stateMutability": "view",
      "type": "function"
    },
    {
      "inputs": [],
      "name": "gasPerETHtx",
      "outputs": [
        {
          "internalType": "uint256",
          "name": "",
          "type": "uint256"
        }
      ],
      "stateMutability": "pure",
      "type": "function"
    },
    {
      "inputs": [],
      "name": "gasPrice",
      "outputs": [
        {
          "internalType": "uint256",
          "name": "",
          "type": "uint256"
        }
      ],
      "stateMutability": "view",
      "type": "function"
    },
    {
      "inputs": [],
      "name": "gasPriceAtRedemption",
      "outputs": [
        {
          "internalType": "uint256",
          "name": "",
          "type": "uint256"
        }
      ],
      "stateMutability": "view",
      "type": "function"
    },
    {
      "inputs": [
        {
          "internalType": "address",
          "name": "owner_",
          "type": "address"
        },
        {
          "internalType": "address",
          "name": "ethtx_",
          "type": "address"
        },
        {
          "internalType": "address",
          "name": "gasOracle_",
          "type": "address"
        },
        {
          "internalType": "address",
          "name": "weth_",
          "type": "address"
        },
        {
          "internalType": "uint128",
          "name": "targetCRatioNum_",
          "type": "uint128"
        },
        {
          "internalType": "uint128",
          "name": "targetCRatioDen_",
          "type": "uint128"
        }
      ],
      "name": "init",
      "outputs": [],
      "stateMutability": "nonpayable",
      "type": "function"
    },
    {
      "inputs": [],
      "name": "maxGasPrice",
      "outputs": [
        {
          "internalType": "uint256",
          "name": "",
          "type": "uint256"
        }
      ],
      "stateMutability": "view",
      "type": "function"
    },
    {
      "inputs": [],
      "name": "owner",
      "outputs": [
        {
          "internalType": "address",
          "name": "",
          "type": "address"
        }
      ],
      "stateMutability": "view",
      "type": "function"
    },
    {
      "inputs": [],
      "name": "pause",
      "outputs": [],
      "stateMutability": "nonpayable",
      "type": "function"
    },
    {
      "inputs": [],
      "name": "paused",
      "outputs": [
        {
          "internalType": "bool",
          "name": "",
          "type": "bool"
        }
      ],
      "stateMutability": "view",
      "type": "function"
    },
    {
      "inputs": [
        {
          "internalType": "address",
          "name": "token",
          "type": "address"
        },
        {
          "internalType": "address",
          "name": "to",
          "type": "address"
        },
        {
          "internalType": "uint256",
          "name": "amount",
          "type": "uint256"
        }
      ],
      "name": "recoverUnsupportedERC20",
      "outputs": [],
      "stateMutability": "nonpayable",
      "type": "function"
    },
    {
      "inputs": [
        {
          "internalType": "uint256",
          "name": "amountIn",
          "type": "uint256"
        },
        {
          "internalType": "uint256",
          "name": "deadline",
          "type": "uint256"
        }
      ],
      "name": "redeem",
      "outputs": [],
      "stateMutability": "nonpayable",
      "type": "function"
    },
    {
      "inputs": [
        {
          "internalType": "uint256",
          "name": "amountInMax",
          "type": "uint256"
        },
        {
          "internalType": "uint256",
          "name": "amountOut",
          "type": "uint256"
        },
        {
          "internalType": "uint256",
          "name": "deadline",
          "type": "uint256"
        }
      ],
      "name": "redeemExact",
      "outputs": [],
      "stateMutability": "nonpayable",
      "type": "function"
    },
    {
      "inputs": [
        {
          "internalType": "uint256",
          "name": "amountIn",
          "type": "uint256"
        },
        {
          "internalType": "uint256",
          "name": "amountOutMin",
          "type": "uint256"
        },
        {
          "internalType": "uint256",
          "name": "deadline",
          "type": "uint256"
        }
      ],
      "name": "redeemWithExact",
      "outputs": [],
      "stateMutability": "nonpayable",
      "type": "function"
    },
    {
      "inputs": [],
      "name": "renounceOwnership",
      "outputs": [],
      "stateMutability": "nonpayable",
      "type": "function"
    },
    {
      "inputs": [
        {
          "internalType": "address",
          "name": "account",
          "type": "address"
        }
      ],
      "name": "setEthtx",
      "outputs": [],
      "stateMutability": "nonpayable",
      "type": "function"
    },
    {
      "inputs": [
        {
          "internalType": "address",
          "name": "account",
          "type": "address"
        }
      ],
      "name": "setGasOracle",
      "outputs": [],
      "stateMutability": "nonpayable",
      "type": "function"
    },
    {
      "inputs": [
        {
          "internalType": "uint128",
          "name": "numerator",
          "type": "uint128"
        },
        {
          "internalType": "uint128",
          "name": "denominator",
          "type": "uint128"
        }
      ],
      "name": "setTargetCRatio",
      "outputs": [],
      "stateMutability": "nonpayable",
      "type": "function"
    },
    {
      "inputs": [
        {
          "internalType": "address",
          "name": "account",
          "type": "address"
        }
      ],
      "name": "setWETH",
      "outputs": [],
      "stateMutability": "nonpayable",
      "type": "function"
    },
    {
      "inputs": [],
      "name": "targetCRatio",
      "outputs": [
        {
          "internalType": "uint128",
          "name": "numerator",
          "type": "uint128"
        },
        {
          "internalType": "uint128",
          "name": "denominator",
          "type": "uint128"
        }
      ],
      "stateMutability": "view",
      "type": "function"
    },
    {
      "inputs": [
        {
          "internalType": "address",
          "name": "newOwner",
          "type": "address"
        }
      ],
      "name": "transferOwnership",
      "outputs": [],
      "stateMutability": "nonpayable",
      "type": "function"
    },
    {
      "inputs": [],
      "name": "unpause",
      "outputs": [],
      "stateMutability": "nonpayable",
      "type": "function"
    },
    {
      "inputs": [],
      "name": "weth",
      "outputs": [
        {
          "internalType": "address",
          "name": "",
          "type": "address"
        }
      ],
      "stateMutability": "view",
      "type": "function"
    },
    {
      "stateMutability": "payable",
      "type": "receive"
    }
  ],
  "transactionHash": "0x19d48377304158d0fdba384f5e000c44615a76f94c89056584eab95fe17df8e6",
  "args": [
    "0x5757Dd711EaE80e181E07CdbCe43359Ac1048394",
    "0xDc456AC4e0C1D88f0f32b9B116BEBBd678D4b81D",
    "0xBCd972676e53b75D2f04778d0b97206A62206Cc9",
    "0x706f8Bf6ff5352F61F3e6D554232BeD01d679938",
    2,
    1
  ],
  "solcInputHash": "d866fd3a9c665c3159ffcb94310e6171",
  "bytecode": "0x60806040523480156200001157600080fd5b5060405162003d7c38038062003d7c833981810160405260c08110156200003757600080fd5b508051602082015160408301516060840151608085015160a09095015193949293919290916200006c86868686868662000078565b50505050505062000a17565b600054610100900460ff168062000094575062000094620001a1565b80620000a3575060005460ff16155b620000e05760405162461bcd60e51b815260040180806020018281038252602e81526020018062003ce4602e913960400191505060405180910390fd5b600054610100900460ff161580156200010c576000805460ff1961ff0019909116610100171660011790555b62000116620001bf565b6200012062000269565b6200012a6200035b565b62000135866200040e565b620001408562000532565b6200014c838362000656565b6200015784620007e0565b6200016162000904565b6001600160a01b0316876001600160a01b0316146200018557620001858762000913565b801562000198576000805461ff00191690555b50505050505050565b6000620001b93062000a0d60201b6200247a1760201c565b15905090565b600054610100900460ff1680620001db5750620001db620001a1565b80620001ea575060005460ff16155b620002275760405162461bcd60e51b815260040180806020018281038252602e81526020018062003ce4602e913960400191505060405180910390fd5b600054610100900460ff1615801562000253576000805460ff1961ff0019909116610100171660011790555b801562000266576000805461ff00191690555b50565b600054610100900460ff168062000285575062000285620001a1565b8062000294575060005460ff16155b620002d15760405162461bcd60e51b815260040180806020018281038252602e81526020018062003ce4602e913960400191505060405180910390fd5b600054610100900460ff16158015620002fd576000805460ff1961ff0019909116610100171660011790555b60006200030962000a13565b603380546001600160a01b0319166001600160a01b0383169081179091556040519192509060009060008051602062003d32833981519152908290a350801562000266576000805461ff001916905550565b600054610100900460ff168062000377575062000377620001a1565b8062000386575060005460ff16155b620003c35760405162461bcd60e51b815260040180806020018281038252602e81526020018062003ce4602e913960400191505060405180910390fd5b600054610100900460ff16158015620003ef576000805460ff1961ff0019909116610100171660011790555b6065805460ff19169055801562000266576000805461ff001916905550565b6200041862000a13565b6001600160a01b03166200042b62000904565b6001600160a01b03161462000476576040805162461bcd60e51b8152602060048201819052602482015260008051602062003d12833981519152604482015290519081900360640190fd5b6001600160a01b038116620004d2576040805162461bcd60e51b815260206004820152601c60248201527f4554487478414d4d3a204554487478207a65726f206164647265737300000000604482015290519081900360640190fd5b609980546001600160a01b0319166001600160a01b038316908117909155620004fa62000a13565b6001600160a01b03167f771296b6c631391f79de88226814060fdb511864a4e620f8085f4534f20b5f8460405160405180910390a350565b6200053c62000a13565b6001600160a01b03166200054f62000904565b6001600160a01b0316146200059a576040805162461bcd60e51b8152602060048201819052602482015260008051602062003d12833981519152604482015290519081900360640190fd5b6001600160a01b038116620005f6576040805162461bcd60e51b815260206004820181905260248201527f4554487478414d4d3a206761734f7261636c65207a65726f2061646472657373604482015290519081900360640190fd5b609780546001600160a01b0319166001600160a01b0383169081179091556200061e62000a13565b6001600160a01b03167f580c76d0bfa674377787c86b7e4910624b8de2f31c4f8284196ac7ce68a3a57b60405160405180910390a350565b6200066062000a13565b6001600160a01b03166200067362000904565b6001600160a01b031614620006be576040805162461bcd60e51b8152602060048201819052602482015260008051602062003d12833981519152604482015290519081900360640190fd5b6001600160801b038216620007055760405162461bcd60e51b815260040180806020018281038252602881526020018062003cbc6028913960400191505060405180910390fd5b6001600160801b0381166200074c5760405162461bcd60e51b815260040180806020018281038252602a81526020018062003d52602a913960400191505060405180910390fd5b609880546001600160801b03838116600160801b028186166001600160801b031990931692909217161790556200078262000a13565b6001600160a01b03167f9af9b815b340cc536d9c60d950fdae6e7d2932ec908595257787b6a7f4dec372838360405180836001600160801b03168152602001826001600160801b031681526020019250505060405180910390a25050565b620007ea62000a13565b6001600160a01b0316620007fd62000904565b6001600160a01b03161462000848576040805162461bcd60e51b8152602060048201819052602482015260008051602062003d12833981519152604482015290519081900360640190fd5b6001600160a01b038116620008a4576040805162461bcd60e51b815260206004820152601b60248201527f4554487478414d4d3a2057455448207a65726f20616464726573730000000000604482015290519081900360640190fd5b609a80546001600160a01b0319166001600160a01b038316908117909155620008cc62000a13565b6001600160a01b03167f9cfa0588ff5ff3789d20735024d004bfb8db496d5117712e136adbfe97af41d760405160405180910390a350565b6033546001600160a01b031690565b6200091d62000a13565b6001600160a01b03166200093062000904565b6001600160a01b0316146200097b576040805162461bcd60e51b8152602060048201819052602482015260008051602062003d12833981519152604482015290519081900360640190fd5b6001600160a01b038116620009c25760405162461bcd60e51b815260040180806020018281038252602681526020018062003c966026913960400191505060405180910390fd5b6033546040516001600160a01b0380841692169060008051602062003d3283398151915290600090a3603380546001600160a01b0319166001600160a01b0392909216919091179055565b3b151590565b3390565b61326f8062000a276000396000f3fe6080604052600436106102345760003560e01c80636bdb33661161012e578063a05d674f116100ab578063d96a094a1161006f578063d96a094a146107e5578063ea03798e14610802578063f2fde38b1461082c578063fa8c076f1461085f578063fe173b971461089257610296565b8063a05d674f1461070e578063a87b815214610723578063b41ac64b14610756578063c28f18211461078c578063d4995e3f146107af57610296565b80638456cb59116100f25780638456cb591461067757806386a86d411461068c5780638da5cb5b146106cf5780638f365b69146106e4578063902dd186146106f957610296565b80636bdb33661461058e57806370251eb4146105c4578063715018a6146105ee5780637cbc237314610603578063805f751a1461063357610296565b80634d6a3cfb116101bc5780635c975abb116101805780635c975abb1461049c5780635d62a8dd146104b157806365ac74db146104c657806368efb513146104f45780636b2075d71461052a57610296565b80634d6a3cfb146104015780635028db1a14610416578063546146e31461042b578063575a9d16146104405780635b769f3c1461046957610296565b80633de39c11116102035780633de39c111461034c5780633f4ba83a146103615780633fc8cef31461037657806345ef1a93146103a75780634a193c8a146103d157610296565b8063146252cb1461029b57806322f7af25146102c2578063313a7972146102ff5780633d9475501461032957610296565b36610296576102416108a7565b6001600160a01b031663d0e30db0346040518263ffffffff1660e01b81526004016000604051808303818588803b15801561027b57600080fd5b505af115801561028f573d6000803e3d6000fd5b5050505050005b600080fd5b3480156102a757600080fd5b506102b06108b7565b60408051918252519081900360200190f35b3480156102ce57600080fd5b506102fd600480360360408110156102e557600080fd5b506001600160801b038135811691602001351661093e565b005b34801561030b57600080fd5b506102b06004803603602081101561032257600080fd5b5035610ac5565b6102fd6004803603604081101561033f57600080fd5b5080359060200135610ae9565b34801561035857600080fd5b506102b0610c5d565b34801561036d57600080fd5b506102fd610cf0565b34801561038257600080fd5b5061038b6108a7565b604080516001600160a01b039092168252519081900360200190f35b3480156103b357600080fd5b506102b0600480360360208110156103ca57600080fd5b5035610dac565b3480156103dd57600080fd5b506102fd600480360360408110156103f457600080fd5b5080359060200135610e6c565b34801561040d57600080fd5b506102b0610f89565b34801561042257600080fd5b5061038b610f93565b34801561043757600080fd5b506102b0610fd5565b34801561044c57600080fd5b50610455610fdb565b604080519115158252519081900360200190f35b34801561047557600080fd5b506102fd6004803603602081101561048c57600080fd5b50356001600160a01b0316611065565b3480156104a857600080fd5b50610455611180565b3480156104bd57600080fd5b5061038b611189565b3480156104d257600080fd5b506104db611198565b6040805192835260208301919091528051918290030190f35b34801561050057600080fd5b506102fd6004803603606081101561051757600080fd5b50803590602081013590604001356111bb565b34801561053657600080fd5b506102fd600480360360c081101561054d57600080fd5b506001600160a01b038135811691602081013582169160408201358116916060810135909116906001600160801b03608082013581169160a0013516611327565b34801561059a57600080fd5b506102fd600480360360608110156105b157600080fd5b5080359060208101359060400135611435565b3480156105d057600080fd5b506102b0600480360360208110156105e757600080fd5b503561159f565b3480156105fa57600080fd5b506102fd611665565b34801561060f57600080fd5b506102fd6004803603604081101561062657600080fd5b5080359060200135611711565b34801561063f57600080fd5b50610648611826565b60405180836001600160801b03168152602001826001600160801b031681526020019250505060405180910390f35b34801561068357600080fd5b506102fd611841565b34801561069857600080fd5b506102fd600480360360608110156106af57600080fd5b506001600160a01b038135811691602081013590911690604001356118f8565b3480156106db57600080fd5b5061038b611aab565b3480156106f057600080fd5b506102b0611aba565b34801561070557600080fd5b5061038b611b3e565b34801561071a57600080fd5b506102b0611b4d565b34801561072f57600080fd5b506102fd6004803603602081101561074657600080fd5b50356001600160a01b0316611b78565b34801561076257600080fd5b506102fd6004803603606081101561077957600080fd5b5080359060208101359060400135611c93565b6102fd600480360360408110156107a257600080fd5b5080359060200135611dfd565b3480156107bb57600080fd5b506102fd600480360360608110156107d257600080fd5b5080359060208101359060400135611f8c565b6102fd600480360360208110156107fb57600080fd5b50356120f8565b34801561080e57600080fd5b506102b06004803603602081101561082557600080fd5b5035612207565b34801561083857600080fd5b506102fd6004803603602081101561084f57600080fd5b50356001600160a01b031661221a565b34801561086b57600080fd5b506102fd6004803603602081101561088257600080fd5b50356001600160a01b031661231d565b34801561089e57600080fd5b506102b0612438565b609a546001600160a01b03165b90565b60006108c1611b3e565b6001600160a01b03166370a08231306040518263ffffffff1660e01b815260040180826001600160a01b0316815260200191505060206040518083038186803b15801561090d57600080fd5b505afa158015610921573d6000803e3d6000fd5b505050506040513d602081101561093757600080fd5b5051905090565b610946612480565b6001600160a01b0316610957611aab565b6001600160a01b0316146109a0576040805162461bcd60e51b81526020600482018190526024820152600080516020613185833981519152604482015290519081900360640190fd5b6001600160801b0382166109e55760405162461bcd60e51b81526004018080602001828103825260288152602001806130ae6028913960400191505060405180910390fd5b6001600160801b038116610a2a5760405162461bcd60e51b815260040180806020018281038252602a8152602001806131c5602a913960400191505060405180910390fd5b609880546001600160801b03838116600160801b028186166fffffffffffffffffffffffffffffffff199093169290921716179055610a67612480565b6001600160a01b03167f9af9b815b340cc536d9c60d950fdae6e7d2932ec908595257787b6a7f4dec372838360405180836001600160801b03168152602001826001600160801b031681526020019250505060405180910390a25050565b6000610ae36001610add610ad7612438565b85612484565b906124a7565b92915050565b8042811015610b33576040805162461bcd60e51b81526020600482015260116024820152701155121d1e1053534e88195e1c1a5c9959607a1b604482015290519081900360640190fd5b610b3b611189565b6001600160a01b0316639e2437146040518163ffffffff1660e01b815260040160206040518083038186803b158015610b7357600080fd5b505afa158015610b87573d6000803e3d6000fd5b505050506040513d6020811015610b9d57600080fd5b505115610bdf576040805162461bcd60e51b815260206004820152601f60248201526000805160206131a5833981519152604482015290519081900360640190fd5b346000610beb82612207565b905084811015610c42576040805162461bcd60e51b815260206004820152601d60248201527f4554487478414d4d3a20616d6f756e744f75742062656c6f77206d696e000000604482015290519081900360640190fd5b610c56610c4d612480565b83836000612501565b5050505050565b600080610c68611aba565b905080610c7f57610c77612438565b9150506108b4565b600080610c8a611826565b915091506000610cb7826001600160801b0316610cb1670de0b6b3a7640000610cb1610f89565b90612667565b90506000610cda846001600160801b0316610cb1610cd3610fd5565b8890612667565b9050610ce682826126c0565b9550505050505090565b610cf8612480565b6001600160a01b0316610d09611aab565b6001600160a01b031614610d52576040805162461bcd60e51b81526020600482018190526024820152600080516020613185833981519152604482015290519081900360640190fd5b610d5a611180565b610da2576040805162461bcd60e51b815260206004820152601460248201527314185d5cd8589b194e881b9bdd081c185d5cd95960621b604482015290519081900360640190fd5b610daa612702565b565b600080610dc0610dba611b4d565b846127a2565b90506000610dcc610f93565b6001600160a01b031663063f384f610de2612480565b30856040518463ffffffff1660e01b815260040180846001600160a01b03168152602001836001600160a01b03168152602001828152602001935050505060206040518083038186803b158015610e3857600080fd5b505afa158015610e4c573d6000803e3d6000fd5b505050506040513d6020811015610e6257600080fd5b5051949350505050565b8042811015610eb6576040805162461bcd60e51b81526020600482015260116024820152701155121d1e1053534e88195e1c1a5c9959607a1b604482015290519081900360640190fd5b610ebe611189565b6001600160a01b0316639e2437146040518163ffffffff1660e01b815260040160206040518083038186803b158015610ef657600080fd5b505afa158015610f0a573d6000803e3d6000fd5b505050506040513d6020811015610f2057600080fd5b505115610f62576040805162461bcd60e51b815260206004820152601f60248201526000805160206131a5833981519152604482015290519081900360640190fd5b6000610f6d84612207565b9050610f83610f7a612480565b85836001612501565b50505050565b60006108c16108a7565b6000610f9d611b3e565b6001600160a01b0316635028db1a6040518163ffffffff1660e01b815260040160206040518083038186803b15801561090d57600080fd5b61520890565b6000806000610fe8611198565b915091508060001415611000576000925050506108b4565b60008161101584670de0b6b3a7640000612667565b8161101c57fe5b04905060008061102a611826565b6001600160801b03918216935016905060006110588261105285670de0b6b3a7640000612667565b906126c0565b9093109550505050505090565b61106d612480565b6001600160a01b031661107e611aab565b6001600160a01b0316146110c7576040805162461bcd60e51b81526020600482018190526024820152600080516020613185833981519152604482015290519081900360640190fd5b6001600160a01b038116611122576040805162461bcd60e51b815260206004820152601b60248201527f4554487478414d4d3a2057455448207a65726f20616464726573730000000000604482015290519081900360640190fd5b609a80546001600160a01b0319166001600160a01b038316908117909155611148612480565b6001600160a01b03167f9cfa0588ff5ff3789d20735024d004bfb8db496d5117712e136adbfe97af41d760405160405180910390a350565b60655460ff1690565b6097546001600160a01b031690565b6000806111a3610f89565b91506111b56111b0611aba565b610ac5565b90509091565b8042811015611205576040805162461bcd60e51b81526020600482015260116024820152701155121d1e1053534e88195e1c1a5c9959607a1b604482015290519081900360640190fd5b61120d611189565b6001600160a01b0316639e2437146040518163ffffffff1660e01b815260040160206040518083038186803b15801561124557600080fd5b505afa158015611259573d6000803e3d6000fd5b505050506040513d602081101561126f57600080fd5b5051156112b1576040805162461bcd60e51b815260206004820152601f60248201526000805160206131a5833981519152604482015290519081900360640190fd5b60006112bc84610ac5565b905084811115611313576040805162461bcd60e51b815260206004820152601e60248201527f4554487478414d4d3a20616d6f756e74496e2065786365656473206d61780000604482015290519081900360640190fd5b610c5661131e612480565b82866001612501565b600054610100900460ff16806113405750611340612835565b8061134e575060005460ff16155b6113895760405162461bcd60e51b815260040180806020018281038252602e815260200180613136602e913960400191505060405180910390fd5b600054610100900460ff161580156113b4576000805460ff1961ff0019909116610100171660011790555b6113bc612846565b6113c46128e8565b6113cc6129e1565b6113d58661231d565b6113de85611b78565b6113e8838361093e565b6113f184611065565b6113f9611aab565b6001600160a01b0316876001600160a01b03161461141a5761141a8761221a565b801561142c576000805461ff00191690555b50505050505050565b804281101561147f576040805162461bcd60e51b81526020600482015260116024820152701155121d1e1053534e88195e1c1a5c9959607a1b604482015290519081900360640190fd5b611487611189565b6001600160a01b0316639e2437146040518163ffffffff1660e01b815260040160206040518083038186803b1580156114bf57600080fd5b505afa1580156114d3573d6000803e3d6000fd5b505050506040513d60208110156114e957600080fd5b50511561152b576040805162461bcd60e51b815260206004820152601f60248201526000805160206131a5833981519152604482015290519081900360640190fd5b600061153684610dac565b90508481111561158d576040805162461bcd60e51b815260206004820152601e60248201527f4554487478414d4d3a20616d6f756e74496e2065786365656473206d61780000604482015290519081900360640190fd5b610c56611598612480565b8286612a8c565b6000806115aa610f93565b6001600160a01b031663be3945e46115c0612480565b30866040518463ffffffff1660e01b815260040180846001600160a01b03168152602001836001600160a01b03168152602001828152602001935050505060206040518083038186803b15801561161657600080fd5b505afa15801561162a573d6000803e3d6000fd5b505050506040513d602081101561164057600080fd5b5051905061165e61164f611b4d565b6116598584612aac565b612484565b9392505050565b61166d612480565b6001600160a01b031661167e611aab565b6001600160a01b0316146116c7576040805162461bcd60e51b81526020600482018190526024820152600080516020613185833981519152604482015290519081900360640190fd5b6033546040516000916001600160a01b0316907f8be0079c531659141344cd1fd0a4f28419497f9722a3daafe3b4186f6b6457e0908390a3603380546001600160a01b0319169055565b804281101561175b576040805162461bcd60e51b81526020600482015260116024820152701155121d1e1053534e88195e1c1a5c9959607a1b604482015290519081900360640190fd5b611763611189565b6001600160a01b0316639e2437146040518163ffffffff1660e01b815260040160206040518083038186803b15801561179b57600080fd5b505afa1580156117af573d6000803e3d6000fd5b505050506040513d60208110156117c557600080fd5b505115611807576040805162461bcd60e51b815260206004820152601f60248201526000805160206131a5833981519152604482015290519081900360640190fd5b60006118128461159f565b9050610f8361181f612480565b8583612a8c565b6098546001600160801b0380821692600160801b9092041690565b611849612480565b6001600160a01b031661185a611aab565b6001600160a01b0316146118a3576040805162461bcd60e51b81526020600482018190526024820152600080516020613185833981519152604482015290519081900360640190fd5b6118ab611180565b156118f0576040805162461bcd60e51b815260206004820152601060248201526f14185d5cd8589b194e881c185d5cd95960821b604482015290519081900360640190fd5b610daa612aee565b611900612480565b6001600160a01b0316611911611aab565b6001600160a01b03161461195a576040805162461bcd60e51b81526020600482018190526024820152600080516020613185833981519152604482015290519081900360640190fd5b6119626108a7565b6001600160a01b0316836001600160a01b031614156119c8576040805162461bcd60e51b815260206004820152601d60248201527f4554487478414d4d3a2063616e6e6f74207265636f7665722057455448000000604482015290519081900360640190fd5b6119d0611b3e565b6001600160a01b0316836001600160a01b03161415611a36576040805162461bcd60e51b815260206004820152601e60248201527f4554487478414d4d3a2063616e6e6f74207265636f7665722045544874780000604482015290519081900360640190fd5b611a4a6001600160a01b0384168383612b71565b816001600160a01b0316836001600160a01b0316611a66612480565b6001600160a01b03167feaf4cea276efdcae93a52ca2f4bfdd952992169289bf655b1870a4b20bdae7d6846040518082815260200191505060405180910390a4505050565b6033546001600160a01b031690565b6000611b39611ac76108b7565b611acf611b3e565b6001600160a01b03166318160ddd6040518163ffffffff1660e01b815260040160206040518083038186803b158015611b0757600080fd5b505afa158015611b1b573d6000803e3d6000fd5b505050506040513d6020811015611b3157600080fd5b505190612aac565b905090565b6099546001600160a01b031690565b600080611b58612438565b90506000611b64610c5d565b905080821115611b72578091505b50905090565b611b80612480565b6001600160a01b0316611b91611aab565b6001600160a01b031614611bda576040805162461bcd60e51b81526020600482018190526024820152600080516020613185833981519152604482015290519081900360640190fd5b6001600160a01b038116611c35576040805162461bcd60e51b815260206004820181905260248201527f4554487478414d4d3a206761734f7261636c65207a65726f2061646472657373604482015290519081900360640190fd5b609780546001600160a01b0319166001600160a01b038316908117909155611c5b612480565b6001600160a01b03167f580c76d0bfa674377787c86b7e4910624b8de2f31c4f8284196ac7ce68a3a57b60405160405180910390a350565b8042811015611cdd576040805162461bcd60e51b81526020600482015260116024820152701155121d1e1053534e88195e1c1a5c9959607a1b604482015290519081900360640190fd5b611ce5611189565b6001600160a01b0316639e2437146040518163ffffffff1660e01b815260040160206040518083038186803b158015611d1d57600080fd5b505afa158015611d31573d6000803e3d6000fd5b505050506040513d6020811015611d4757600080fd5b505115611d89576040805162461bcd60e51b815260206004820152601f60248201526000805160206131a5833981519152604482015290519081900360640190fd5b6000611d948561159f565b905083811015611deb576040805162461bcd60e51b815260206004820152601d60248201527f4554487478414d4d3a20616d6f756e744f75742062656c6f77206d696e000000604482015290519081900360640190fd5b610c56611df6612480565b8683612a8c565b8042811015611e47576040805162461bcd60e51b81526020600482015260116024820152701155121d1e1053534e88195e1c1a5c9959607a1b604482015290519081900360640190fd5b611e4f611189565b6001600160a01b0316639e2437146040518163ffffffff1660e01b815260040160206040518083038186803b158015611e8757600080fd5b505afa158015611e9b573d6000803e3d6000fd5b505050506040513d6020811015611eb157600080fd5b505115611ef3576040805162461bcd60e51b815260206004820152601f60248201526000805160206131a5833981519152604482015290519081900360640190fd5b6000611efd612480565b90506000611f0a85610ac5565b905034811115611f61576040805162461bcd60e51b815260206004820152601e60248201527f4554487478414d4d3a20616d6f756e74496e2065786365656473206d61780000604482015290519081900360640190fd5b611f6e8282876000612501565b80341115610c5657610c566001600160a01b03831634839003612bc3565b8042811015611fd6576040805162461bcd60e51b81526020600482015260116024820152701155121d1e1053534e88195e1c1a5c9959607a1b604482015290519081900360640190fd5b611fde611189565b6001600160a01b0316639e2437146040518163ffffffff1660e01b815260040160206040518083038186803b15801561201657600080fd5b505afa15801561202a573d6000803e3d6000fd5b505050506040513d602081101561204057600080fd5b505115612082576040805162461bcd60e51b815260206004820152601f60248201526000805160206131a5833981519152604482015290519081900360640190fd5b600061208d85612207565b9050838110156120e4576040805162461bcd60e51b815260206004820152601d60248201527f4554487478414d4d3a20616d6f756e744f75742062656c6f77206d696e000000604482015290519081900360640190fd5b610c566120ef612480565b86836001612501565b8042811015612142576040805162461bcd60e51b81526020600482015260116024820152701155121d1e1053534e88195e1c1a5c9959607a1b604482015290519081900360640190fd5b61214a611189565b6001600160a01b0316639e2437146040518163ffffffff1660e01b815260040160206040518083038186803b15801561218257600080fd5b505afa158015612196573d6000803e3d6000fd5b505050506040513d60208110156121ac57600080fd5b5051156121ee576040805162461bcd60e51b815260206004820152601f60248201526000805160206131a5833981519152604482015290519081900360640190fd5b3460006121fa82612207565b9050610f83610c4d612480565b6000610ae3612214612438565b836127a2565b612222612480565b6001600160a01b0316612233611aab565b6001600160a01b03161461227c576040805162461bcd60e51b81526020600482018190526024820152600080516020613185833981519152604482015290519081900360640190fd5b6001600160a01b0381166122c15760405162461bcd60e51b81526004018080602001828103825260268152602001806130886026913960400191505060405180910390fd5b6033546040516001600160a01b038084169216907f8be0079c531659141344cd1fd0a4f28419497f9722a3daafe3b4186f6b6457e090600090a3603380546001600160a01b0319166001600160a01b0392909216919091179055565b612325612480565b6001600160a01b0316612336611aab565b6001600160a01b03161461237f576040805162461bcd60e51b81526020600482018190526024820152600080516020613185833981519152604482015290519081900360640190fd5b6001600160a01b0381166123da576040805162461bcd60e51b815260206004820152601c60248201527f4554487478414d4d3a204554487478207a65726f206164647265737300000000604482015290519081900360640190fd5b609980546001600160a01b0319166001600160a01b038316908117909155612400612480565b6001600160a01b03167f771296b6c631391f79de88226814060fdb511864a4e620f8085f4534f20b5f8460405160405180910390a350565b6000612442611189565b6001600160a01b031663fe173b976040518163ffffffff1660e01b815260040160206040518083038186803b15801561090d57600080fd5b3b151590565b3390565b600061165e670de0b6b3a764000061105261249d610fd5565b610cb18787612667565b60008282018381101561165e576040805162461bcd60e51b815260206004820152601b60248201527f536166654d6174683a206164646974696f6e206f766572666c6f770000000000604482015290519081900360640190fd5b600061250b611b3e565b6001600160a01b03166370a08231306040518263ffffffff1660e01b815260040180826001600160a01b0316815260200191505060206040518083038186803b15801561255757600080fd5b505afa15801561256b573d6000803e3d6000fd5b505050506040513d602081101561258157600080fd5b50519050828110156125c45760405162461bcd60e51b81526004018080602001828103825260218152602001806131ef6021913960400191505060405180910390fd5b81156125ee576125e98530866125d86108a7565b6001600160a01b0316929190612ca8565b61264a565b6125f66108a7565b6001600160a01b031663d0e30db0856040518263ffffffff1660e01b81526004016000604051808303818588803b15801561263057600080fd5b505af1158015612644573d6000803e3d6000fd5b50505050505b610c568584612657611b3e565b6001600160a01b03169190612b71565b60008261267657506000610ae3565b8282028284828161268357fe5b041461165e5760405162461bcd60e51b81526004018080602001828103825260218152602001806131646021913960400191505060405180910390fd5b600061165e83836040518060400160405280601a81526020017f536166654d6174683a206469766973696f6e206279207a65726f000000000000815250612d02565b61270a611180565b612752576040805162461bcd60e51b815260206004820152601460248201527314185d5cd8589b194e881b9bdd081c185d5cd95960621b604482015290519081900360640190fd5b6065805460ff191690557f5db9ee0a495bf2e6ff9c91a7834c1ba4fdd244a5e8aa4e537bd38aeae4b073aa612785612480565b604080516001600160a01b039092168252519081900360200190a1565b6000826127f6576040805162461bcd60e51b815260206004820152601a60248201527f4554487478414d4d3a206761735072696365206973207a65726f000000000000604482015290519081900360640190fd5b600061280a83670de0b6b3a7640000612667565b90506000612820612819610fd5565b8690612667565b905061282c82826126c0565b95945050505050565b60006128403061247a565b15905090565b600054610100900460ff168061285f575061285f612835565b8061286d575060005460ff16155b6128a85760405162461bcd60e51b815260040180806020018281038252602e815260200180613136602e913960400191505060405180910390fd5b600054610100900460ff161580156128d3576000805460ff1961ff0019909116610100171660011790555b80156128e5576000805461ff00191690555b50565b600054610100900460ff16806129015750612901612835565b8061290f575060005460ff16155b61294a5760405162461bcd60e51b815260040180806020018281038252602e815260200180613136602e913960400191505060405180910390fd5b600054610100900460ff16158015612975576000805460ff1961ff0019909116610100171660011790555b600061297f612480565b603380546001600160a01b0319166001600160a01b038316908117909155604051919250906000907f8be0079c531659141344cd1fd0a4f28419497f9722a3daafe3b4186f6b6457e0908290a35080156128e5576000805461ff001916905550565b600054610100900460ff16806129fa57506129fa612835565b80612a08575060005460ff16155b612a435760405162461bcd60e51b815260040180806020018281038252602e815260200180613136602e913960400191505060405180910390fd5b600054610100900460ff16158015612a6e576000805460ff1961ff0019909116610100171660011790555b6065805460ff1916905580156128e5576000805461ff001916905550565b612a9a8330846125d8611b3e565b612aa783826126576108a7565b505050565b600061165e83836040518060400160405280601e81526020017f536166654d6174683a207375627472616374696f6e206f766572666c6f770000815250612da4565b612af6611180565b15612b3b576040805162461bcd60e51b815260206004820152601060248201526f14185d5cd8589b194e881c185d5cd95960821b604482015290519081900360640190fd5b6065805460ff191660011790557f62e78cea01bee320cd4e420270b5ea74000d11b0c9f74754ebdbfc544b05a258612785612480565b604080516001600160a01b038416602482015260448082018490528251808303909101815260649091019091526020810180516001600160e01b031663a9059cbb60e01b179052612aa7908490612dfe565b80471015612c18576040805162461bcd60e51b815260206004820152601d60248201527f416464726573733a20696e73756666696369656e742062616c616e6365000000604482015290519081900360640190fd5b6040516000906001600160a01b0384169083908381818185875af1925050503d8060008114612c63576040519150601f19603f3d011682016040523d82523d6000602084013e612c68565b606091505b5050905080612aa75760405162461bcd60e51b815260040180806020018281038252603a8152602001806130d6603a913960400191505060405180910390fd5b604080516001600160a01b0380861660248301528416604482015260648082018490528251808303909101815260849091019091526020810180516001600160e01b03166323b872dd60e01b179052610f83908590612dfe565b60008183612d8e5760405162461bcd60e51b81526004018080602001828103825283818151815260200191508051906020019080838360005b83811015612d53578181015183820152602001612d3b565b50505050905090810190601f168015612d805780820380516001836020036101000a031916815260200191505b509250505060405180910390fd5b506000838581612d9a57fe5b0495945050505050565b60008184841115612df65760405162461bcd60e51b8152602060048201818152835160248401528351909283926044909101919085019080838360008315612d53578181015183820152602001612d3b565b505050900390565b6000612e53826040518060400160405280602081526020017f5361666545524332303a206c6f772d6c6576656c2063616c6c206661696c6564815250856001600160a01b0316612eaf9092919063ffffffff16565b805190915015612aa757808060200190516020811015612e7257600080fd5b5051612aa75760405162461bcd60e51b815260040180806020018281038252602a815260200180613210602a913960400191505060405180910390fd5b6060612ebe8484600085612ec6565b949350505050565b606082471015612f075760405162461bcd60e51b81526004018080602001828103825260268152602001806131106026913960400191505060405180910390fd5b612f108561247a565b612f61576040805162461bcd60e51b815260206004820152601d60248201527f416464726573733a2063616c6c20746f206e6f6e2d636f6e7472616374000000604482015290519081900360640190fd5b600080866001600160a01b031685876040518082805190602001908083835b60208310612f9f5780518252601f199092019160209182019101612f80565b6001836020036101000a03801982511681845116808217855250505050505090500191505060006040518083038185875af1925050503d8060008114613001576040519150601f19603f3d011682016040523d82523d6000602084013e613006565b606091505b5091509150613016828286613021565b979650505050505050565b6060831561303057508161165e565b8251156130405782518084602001fd5b60405162461bcd60e51b8152602060048201818152845160248401528451859391928392604401919085019080838360008315612d53578181015183820152602001612d3b56fe4f776e61626c653a206e6577206f776e657220697320746865207a65726f20616464726573734554487478414d4d3a2074617267657443526174696f206e756d657261746f72206973207a65726f416464726573733a20756e61626c6520746f2073656e642076616c75652c20726563697069656e74206d61792068617665207265766572746564416464726573733a20696e73756666696369656e742062616c616e636520666f722063616c6c496e697469616c697a61626c653a20636f6e747261637420697320616c726561647920696e697469616c697a6564536166654d6174683a206d756c7469706c69636174696f6e206f766572666c6f774f776e61626c653a2063616c6c6572206973206e6f7420746865206f776e65724554487478414d4d3a20676173207072696365206973206f75746461746564004554487478414d4d3a2074617267657443526174696f2064656e6f6d696e61746f72206973207a65726f4554487478414d4d3a206e6f7420656e6f75676820455448747820746f206275795361666545524332303a204552433230206f7065726174696f6e20646964206e6f742073756363656564a2646970667358221220c6e2ddf39cc9874a4eac137022a6f74cd6b9e20ed657ea5ecb9463b38ce393e264736f6c634300070600334f776e61626c653a206e6577206f776e657220697320746865207a65726f20616464726573734554487478414d4d3a2074617267657443526174696f206e756d657261746f72206973207a65726f496e697469616c697a61626c653a20636f6e747261637420697320616c726561647920696e697469616c697a65644f776e61626c653a2063616c6c6572206973206e6f7420746865206f776e65728be0079c531659141344cd1fd0a4f28419497f9722a3daafe3b4186f6b6457e04554487478414d4d3a2074617267657443526174696f2064656e6f6d696e61746f72206973207a65726f",
  "devdoc": {
    "kind": "dev",
    "methods": {
      "owner()": {
        "details": "Returns the address of the current owner."
      },
      "paused()": {
        "details": "Returns true if the contract is paused, and false otherwise."
      },
      "renounceOwnership()": {
        "details": "Leaves the contract without owner. It will not be possible to call `onlyOwner` functions anymore. Can only be called by the current owner. NOTE: Renouncing ownership will leave the contract without an owner, thereby removing any functionality that is only available to the owner."
      },
      "transferOwnership(address)": {
        "details": "Transfers ownership of the contract to a new account (`newOwner`). Can only be called by the current owner."
      }
    },
    "version": 1
  },
  "userdoc": {
    "kind": "user",
    "methods": {},
    "version": 1
  },
  "storageLayout": {
    "storage": [
      {
        "astId": 137,
        "contract": "contracts/exchanges/ETHtxAMM/ETHtxAMM.sol:ETHtxAMM",
        "label": "_initialized",
        "offset": 0,
        "slot": "0",
        "type": "t_bool"
      },
      {
        "astId": 140,
        "contract": "contracts/exchanges/ETHtxAMM/ETHtxAMM.sol:ETHtxAMM",
        "label": "_initializing",
        "offset": 1,
        "slot": "0",
        "type": "t_bool"
      },
      {
        "astId": 484,
        "contract": "contracts/exchanges/ETHtxAMM/ETHtxAMM.sol:ETHtxAMM",
        "label": "__gap",
        "offset": 0,
        "slot": "1",
        "type": "t_array(t_uint256)50_storage"
      },
      {
        "astId": 10,
        "contract": "contracts/exchanges/ETHtxAMM/ETHtxAMM.sol:ETHtxAMM",
        "label": "_owner",
        "offset": 0,
        "slot": "51",
        "type": "t_address"
      },
      {
        "astId": 129,
        "contract": "contracts/exchanges/ETHtxAMM/ETHtxAMM.sol:ETHtxAMM",
        "label": "__gap",
        "offset": 0,
        "slot": "52",
        "type": "t_array(t_uint256)49_storage"
      },
      {
        "astId": 506,
        "contract": "contracts/exchanges/ETHtxAMM/ETHtxAMM.sol:ETHtxAMM",
        "label": "_paused",
        "offset": 0,
        "slot": "101",
        "type": "t_bool"
      },
      {
        "astId": 597,
        "contract": "contracts/exchanges/ETHtxAMM/ETHtxAMM.sol:ETHtxAMM",
        "label": "__gap",
        "offset": 0,
        "slot": "102",
        "type": "t_array(t_uint256)49_storage"
      },
      {
        "astId": 5261,
        "contract": "contracts/exchanges/ETHtxAMM/ETHtxAMM.sol:ETHtxAMM",
        "label": "_gasOracle",
        "offset": 0,
        "slot": "151",
        "type": "t_address"
      },
      {
        "astId": 5263,
        "contract": "contracts/exchanges/ETHtxAMM/ETHtxAMM.sol:ETHtxAMM",
        "label": "_targetCRatioNum",
        "offset": 0,
        "slot": "152",
        "type": "t_uint128"
      },
      {
        "astId": 5265,
        "contract": "contracts/exchanges/ETHtxAMM/ETHtxAMM.sol:ETHtxAMM",
        "label": "_targetCRatioDen",
        "offset": 16,
        "slot": "152",
        "type": "t_uint128"
      },
      {
        "astId": 5267,
        "contract": "contracts/exchanges/ETHtxAMM/ETHtxAMM.sol:ETHtxAMM",
        "label": "_ethtx",
        "offset": 0,
        "slot": "153",
        "type": "t_address"
      },
      {
        "astId": 5269,
        "contract": "contracts/exchanges/ETHtxAMM/ETHtxAMM.sol:ETHtxAMM",
        "label": "_weth",
        "offset": 0,
        "slot": "154",
        "type": "t_address"
      }
    ],
    "types": {
      "t_address": {
        "encoding": "inplace",
        "label": "address",
        "numberOfBytes": "20"
      },
      "t_array(t_uint256)49_storage": {
        "base": "t_uint256",
        "encoding": "inplace",
        "label": "uint256[49]",
        "numberOfBytes": "1568"
      },
      "t_array(t_uint256)50_storage": {
        "base": "t_uint256",
        "encoding": "inplace",
        "label": "uint256[50]",
        "numberOfBytes": "1600"
      },
      "t_bool": {
        "encoding": "inplace",
        "label": "bool",
        "numberOfBytes": "1"
      },
      "t_uint128": {
        "encoding": "inplace",
        "label": "uint128",
        "numberOfBytes": "16"
      },
      "t_uint256": {
        "encoding": "inplace",
        "label": "uint256",
        "numberOfBytes": "32"
      }
    }
  }
}