{
  "address": "0xf2cD0a3c2247C3f1568507DFfFCB07b891C853A4",
  "abi": [
    {
      "inputs": [
        {
          "internalType": "address",
          "name": "owner_",
          "type": "address"
        }
      ],
      "stateMutability": "nonpayable",
      "type": "constructor"
    },
    {
      "anonymous": false,
      "inputs": [
        {
          "indexed": true,
          "internalType": "address",
          "name": "author",
          "type": "address"
        },
        {
          "indexed": false,
          "internalType": "uint256",
          "name": "amount",
          "type": "uint256"
        }
      ],
      "name": "BurnedETHmx",
      "type": "event"
    },
    {
      "anonymous": false,
      "inputs": [
        {
          "indexed": true,
          "internalType": "address",
          "name": "previousOwner",
          "type": "address"
        },
        {
          "indexed": true,
          "internalType": "address",
          "name": "newOwner",
          "type": "address"
        }
      ],
      "name": "OwnershipTransferred",
      "type": "event"
    },
    {
      "anonymous": false,
      "inputs": [
        {
          "indexed": false,
          "internalType": "address",
          "name": "account",
          "type": "address"
        }
      ],
      "name": "Paused",
      "type": "event"
    },
    {
      "anonymous": false,
      "inputs": [
        {
          "indexed": true,
          "internalType": "address",
          "name": "author",
          "type": "address"
        },
        {
          "indexed": true,
          "internalType": "address",
          "name": "token",
          "type": "address"
        },
        {
          "indexed": true,
          "internalType": "address",
          "name": "to",
          "type": "address"
        },
        {
          "indexed": false,
          "internalType": "uint256",
          "name": "amount",
          "type": "uint256"
        }
      ],
      "name": "RecoveredUnsupported",
      "type": "event"
    },
    {
      "anonymous": false,
      "inputs": [
        {
          "indexed": false,
          "internalType": "address",
          "name": "account",
          "type": "address"
        }
      ],
      "name": "Unpaused",
      "type": "event"
    },
    {
      "inputs": [
        {
          "internalType": "uint256",
          "name": "amount",
          "type": "uint256"
        },
        {
          "internalType": "bool",
          "name": "asWETH",
          "type": "bool"
        }
      ],
      "name": "burnETHmx",
      "outputs": [],
      "stateMutability": "nonpayable",
      "type": "function"
    },
    {
      "inputs": [],
      "name": "ethmx",
      "outputs": [
        {
          "internalType": "address",
          "name": "",
          "type": "address"
        }
      ],
      "stateMutability": "view",
      "type": "function"
    },
    {
      "inputs": [
        {
          "internalType": "address",
          "name": "owner_",
          "type": "address"
        }
      ],
      "name": "init",
      "outputs": [],
      "stateMutability": "nonpayable",
      "type": "function"
    },
    {
      "inputs": [],
      "name": "owner",
      "outputs": [
        {
          "internalType": "address",
          "name": "",
          "type": "address"
        }
      ],
      "stateMutability": "view",
      "type": "function"
    },
    {
      "inputs": [],
      "name": "pause",
      "outputs": [],
      "stateMutability": "nonpayable",
      "type": "function"
    },
    {
      "inputs": [],
      "name": "paused",
      "outputs": [
        {
          "internalType": "bool",
          "name": "",
          "type": "bool"
        }
      ],
      "stateMutability": "view",
      "type": "function"
    },
    {
      "inputs": [
        {
          "components": [
            {
              "internalType": "address",
              "name": "weth",
              "type": "address"
            },
            {
              "internalType": "address",
              "name": "ethmx",
              "type": "address"
            }
          ],
          "internalType": "struct ETHtxAMM.ETHtxAMMArgs",
          "name": "_args",
          "type": "tuple"
        }
      ],
      "name": "postInit",
      "outputs": [],
      "stateMutability": "nonpayable",
      "type": "function"
    },
    {
      "inputs": [
        {
          "internalType": "address",
          "name": "secureVault",
          "type": "address"
        }
      ],
      "name": "postUpgrade",
      "outputs": [],
      "stateMutability": "nonpayable",
      "type": "function"
    },
    {
      "inputs": [
        {
          "internalType": "address",
          "name": "token",
          "type": "address"
        },
        {
          "internalType": "address",
          "name": "to",
          "type": "address"
        },
        {
          "internalType": "uint256",
          "name": "amount",
          "type": "uint256"
        }
      ],
      "name": "recoverUnsupportedERC20",
      "outputs": [],
      "stateMutability": "nonpayable",
      "type": "function"
    },
    {
      "inputs": [],
      "name": "renounceOwnership",
      "outputs": [],
      "stateMutability": "nonpayable",
      "type": "function"
    },
    {
      "inputs": [
        {
          "internalType": "address",
          "name": "newOwner",
          "type": "address"
        }
      ],
      "name": "transferOwnership",
      "outputs": [],
      "stateMutability": "nonpayable",
      "type": "function"
    },
    {
      "inputs": [],
      "name": "unpause",
      "outputs": [],
      "stateMutability": "nonpayable",
      "type": "function"
    },
    {
      "inputs": [],
      "name": "weth",
      "outputs": [
        {
          "internalType": "address",
          "name": "",
          "type": "address"
        }
      ],
      "stateMutability": "view",
      "type": "function"
    },
    {
      "stateMutability": "payable",
      "type": "receive"
    }
  ],
  "transactionHash": "0x41deafa49583355b588f077f7662f68f5128bf9bfc4477239bbe1f2d8e2ab6f4",
  "args": [
    "0x5757Dd711EaE80e181E07CdbCe43359Ac1048394"
  ],
  "solcInputHash": "286176705c3dadb3efa6f1eb3f27a3ef",
  "bytecode": "0x60806040523480156200001157600080fd5b50604051620026d3380380620026d3833981016040819052620000349162000384565b6200003f8162000046565b50620003b4565b600054610100900460ff16806200006257506200006262000110565b8062000071575060005460ff16155b620000ae5760405162461bcd60e51b815260040180806020018281038252602e815260200180620026a5602e913960400191505060405180910390fd5b600054610100900460ff16158015620000da576000805460ff1961ff0019909116610100171660011790555b620000e46200012e565b620000ef82620001d8565b620000f9620002cb565b80156200010c576000805461ff00191690555b5050565b600062000128306200037e60201b620012ca1760201c565b15905090565b600054610100900460ff16806200014a57506200014a62000110565b8062000159575060005460ff16155b620001965760405162461bcd60e51b815260040180806020018281038252602e815260200180620026a5602e913960400191505060405180910390fd5b600054610100900460ff16158015620001c2576000805460ff1961ff0019909116610100171660011790555b8015620001d5576000805461ff00191690555b50565b600054610100900460ff1680620001f45750620001f462000110565b8062000203575060005460ff16155b620002405760405162461bcd60e51b815260040180806020018281038252602e815260200180620026a5602e913960400191505060405180910390fd5b600054610100900460ff161580156200026c576000805460ff1961ff0019909116610100171660011790555b603380546001600160a01b0319166001600160a01b0384169081179091556040516000907f8be0079c531659141344cd1fd0a4f28419497f9722a3daafe3b4186f6b6457e0908290a380156200010c576000805461ff00191690555050565b600054610100900460ff1680620002e75750620002e762000110565b80620002f6575060005460ff16155b620003335760405162461bcd60e51b815260040180806020018281038252602e815260200180620026a5602e913960400191505060405180910390fd5b600054610100900460ff161580156200035f576000805460ff1961ff0019909116610100171660011790555b6065805460ff191690558015620001d5576000805461ff001916905550565b3b151590565b60006020828403121562000396578081fd5b81516001600160a01b0381168114620003ad578182fd5b9392505050565b6122e180620003c46000396000f3fe6080604052600436106100d65760003560e01c806386a86d411161007f578063c79b243011610059578063c79b243014610271578063ca1f7afc14610291578063f2fde38b146102b1578063fa750d58146102d157610169565b806386a86d411461021c5780638da5cb5b1461023c578063bca18f3d1461025157610169565b80635c975abb116100b05780635c975abb146101d0578063715018a6146101f25780638456cb591461020757610169565b806319ab453c1461016e5780633f4ba83a146101905780633fc8cef3146101a557610169565b366101695760006100e56102e6565b90503373ffffffffffffffffffffffffffffffffffffffff821614610166578073ffffffffffffffffffffffffffffffffffffffff1663d0e30db0346040518263ffffffff1660e01b81526004016000604051808303818588803b15801561014c57600080fd5b505af1158015610160573d6000803e3d6000fd5b50505050505b50005b600080fd5b34801561017a57600080fd5b5061018e610189366004611f2a565b610302565b005b34801561019c57600080fd5b5061018e610430565b3480156101b157600080fd5b506101ba6102e6565b6040516101c79190612036565b60405180910390f35b3480156101dc57600080fd5b506101e5610555565b6040516101c79190612088565b3480156101fe57600080fd5b5061018e61055e565b34801561021357600080fd5b5061018e610675565b34801561022857600080fd5b5061018e610237366004611f44565b610799565b34801561024857600080fd5b506101ba610960565b34801561025d57600080fd5b5061018e61026c366004611f9b565b61097c565b34801561027d57600080fd5b5061018e61028c366004611f2a565b610a7e565b34801561029d57600080fd5b5061018e6102ac366004612007565b610ccb565b3480156102bd57600080fd5b5061018e6102cc366004611f2a565b61110c565b3480156102dd57600080fd5b506101ba6112ae565b609a5473ffffffffffffffffffffffffffffffffffffffff1690565b600054610100900460ff168061031b575061031b6112d4565b80610329575060005460ff16155b61037e576040517f08c379a000000000000000000000000000000000000000000000000000000000815260040180806020018281038252602e815260200180612233602e913960400191505060405180910390fd5b600054610100900460ff161580156103e457600080547fffffffffffffffffffffffffffffffffffffffffffffffffffffffffffffff007fffffffffffffffffffffffffffffffffffffffffffffffffffffffffffff00ff909116610100171660011790555b6103ec6112e5565b6103f5826113f9565b6103fd61157b565b801561042c57600080547fffffffffffffffffffffffffffffffffffffffffffffffffffffffffffff00ff1690555b5050565b6104386116b6565b73ffffffffffffffffffffffffffffffffffffffff16610456610960565b73ffffffffffffffffffffffffffffffffffffffff16146104d857604080517f08c379a000000000000000000000000000000000000000000000000000000000815260206004820181905260248201527f4f776e61626c653a2063616c6c6572206973206e6f7420746865206f776e6572604482015290519081900360640190fd5b6104e0610555565b61054b57604080517f08c379a000000000000000000000000000000000000000000000000000000000815260206004820152601460248201527f5061757361626c653a206e6f7420706175736564000000000000000000000000604482015290519081900360640190fd5b6105536116ba565b565b60655460ff1690565b6105666116b6565b73ffffffffffffffffffffffffffffffffffffffff16610584610960565b73ffffffffffffffffffffffffffffffffffffffff161461060657604080517f08c379a000000000000000000000000000000000000000000000000000000000815260206004820181905260248201527f4f776e61626c653a2063616c6c6572206973206e6f7420746865206f776e6572604482015290519081900360640190fd5b60335460405160009173ffffffffffffffffffffffffffffffffffffffff16907f8be0079c531659141344cd1fd0a4f28419497f9722a3daafe3b4186f6b6457e0908390a3603380547fffffffffffffffffffffffff0000000000000000000000000000000000000000169055565b61067d6116b6565b73ffffffffffffffffffffffffffffffffffffffff1661069b610960565b73ffffffffffffffffffffffffffffffffffffffff161461071d57604080517f08c379a000000000000000000000000000000000000000000000000000000000815260206004820181905260248201527f4f776e61626c653a2063616c6c6572206973206e6f7420746865206f776e6572604482015290519081900360640190fd5b610725610555565b1561079157604080517f08c379a000000000000000000000000000000000000000000000000000000000815260206004820152601060248201527f5061757361626c653a2070617573656400000000000000000000000000000000604482015290519081900360640190fd5b6105536117a8565b6107a16116b6565b73ffffffffffffffffffffffffffffffffffffffff166107bf610960565b73ffffffffffffffffffffffffffffffffffffffff161461084157604080517f08c379a000000000000000000000000000000000000000000000000000000000815260206004820181905260248201527f4f776e61626c653a2063616c6c6572206973206e6f7420746865206f776e6572604482015290519081900360640190fd5b6108496102e6565b73ffffffffffffffffffffffffffffffffffffffff168373ffffffffffffffffffffffffffffffffffffffff1614156108b7576040517f08c379a00000000000000000000000000000000000000000000000000000000081526004016108ae9061215e565b60405180910390fd5b6108d873ffffffffffffffffffffffffffffffffffffffff84168383611870565b8173ffffffffffffffffffffffffffffffffffffffff168373ffffffffffffffffffffffffffffffffffffffff1661090e6116b6565b73ffffffffffffffffffffffffffffffffffffffff167feaf4cea276efdcae93a52ca2f4bfdd952992169289bf655b1870a4b20bdae7d6846040516109539190612195565b60405180910390a4505050565b60335473ffffffffffffffffffffffffffffffffffffffff1690565b6109846116b6565b73ffffffffffffffffffffffffffffffffffffffff166109a2610960565b73ffffffffffffffffffffffffffffffffffffffff1614610a2457604080517f08c379a000000000000000000000000000000000000000000000000000000000815260206004820181905260248201527f4f776e61626c653a2063616c6c6572206973206e6f7420746865206f776e6572604482015290519081900360640190fd5b8051609a80547fffffffffffffffffffffffff000000000000000000000000000000000000000090811673ffffffffffffffffffffffffffffffffffffffff93841617909155602090920151609b80549093169116179055565b610a866116b6565b73ffffffffffffffffffffffffffffffffffffffff16610aa4610960565b73ffffffffffffffffffffffffffffffffffffffff1614610b2657604080517f08c379a000000000000000000000000000000000000000000000000000000000815260206004820181905260248201527f4f776e61626c653a2063616c6c6572206973206e6f7420746865206f776e6572604482015290519081900360640190fd5b60985470010000000000000000000000000000000090046fffffffffffffffffffffffffffffffff16610b85576040517f08c379a00000000000000000000000000000000000000000000000000000000081526004016108ae906120ca565b609a546040517f70a0823100000000000000000000000000000000000000000000000000000000815273ffffffffffffffffffffffffffffffffffffffff9091169060009082906370a0823190610be0903090600401612036565b60206040518083038186803b158015610bf857600080fd5b505afa158015610c0c573d6000803e3d6000fd5b505050506040513d601f19601f82011682018060405250810190610c309190611fef565b90506000610c5f600a610c596004610c53609c548761190290919063ffffffff16565b9061197e565b906119f8565b609c54019050610c8673ffffffffffffffffffffffffffffffffffffffff84168583611870565b5050609780547fffffffffffffffffffffffff00000000000000000000000000000000000000009081169091556000609881905560998054909216909155609c555050565b610cd3610555565b15610d3f57604080517f08c379a000000000000000000000000000000000000000000000000000000000815260206004820152601060248201527f5061757361626c653a2070617573656400000000000000000000000000000000604482015290519081900360640190fd5b6000610d496116b6565b90506000610d556112ae565b73ffffffffffffffffffffffffffffffffffffffff166318160ddd6040518163ffffffff1660e01b815260040160206040518083038186803b158015610d9a57600080fd5b505afa158015610dae573d6000803e3d6000fd5b505050506040513d601f19601f82011682018060405250810190610dd29190611fef565b905080610e0b576040517f08c379a00000000000000000000000000000000000000000000000000000000081526004016108ae90612127565b83610e42576040517f08c379a00000000000000000000000000000000000000000000000000000000081526004016108ae90612093565b6000610e4c6102e6565b905060008173ffffffffffffffffffffffffffffffffffffffff166370a08231306040518263ffffffff1660e01b8152600401610e899190612036565b60206040518083038186803b158015610ea157600080fd5b505afa158015610eb5573d6000803e3d6000fd5b505050506040513d601f19601f82011682018060405250810190610ed99190611fef565b90506000610eeb84610c59848a61197e565b9050610ef56112ae565b73ffffffffffffffffffffffffffffffffffffffff166323b872dd86308a6040518463ffffffff1660e01b8152600401610f3193929190612057565b602060405180830381600087803b158015610f4b57600080fd5b505af1158015610f5f573d6000803e3d6000fd5b505050506040513d601f19601f82011682018060405250810190610f839190611f7f565b50610f8c6112ae565b73ffffffffffffffffffffffffffffffffffffffff166342966c68886040518263ffffffff1660e01b8152600401610fc49190612195565b600060405180830381600087803b158015610fde57600080fd5b505af1158015610ff2573d6000803e3d6000fd5b5050505085156110225761101d73ffffffffffffffffffffffffffffffffffffffff84168683611870565b6110b5565b61102a6102e6565b73ffffffffffffffffffffffffffffffffffffffff16632e1a7d4d826040518263ffffffff1660e01b81526004016110629190612195565b600060405180830381600087803b15801561107c57600080fd5b505af1158015611090573d6000803e3d6000fd5b506110b59250505073ffffffffffffffffffffffffffffffffffffffff861682611a79565b8473ffffffffffffffffffffffffffffffffffffffff167f531e96b151122a1b2e097e7e7203d6466dc4446b561bff3725d08edd39e64eb8886040516110fb9190612195565b60405180910390a250505050505050565b6111146116b6565b73ffffffffffffffffffffffffffffffffffffffff16611132610960565b73ffffffffffffffffffffffffffffffffffffffff16146111b457604080517f08c379a000000000000000000000000000000000000000000000000000000000815260206004820181905260248201527f4f776e61626c653a2063616c6c6572206973206e6f7420746865206f776e6572604482015290519081900360640190fd5b73ffffffffffffffffffffffffffffffffffffffff8116611220576040517f08c379a00000000000000000000000000000000000000000000000000000000081526004018080602001828103825260268152602001806121ad6026913960400191505060405180910390fd5b60335460405173ffffffffffffffffffffffffffffffffffffffff8084169216907f8be0079c531659141344cd1fd0a4f28419497f9722a3daafe3b4186f6b6457e090600090a3603380547fffffffffffffffffffffffff00000000000000000000000000000000000000001673ffffffffffffffffffffffffffffffffffffffff92909216919091179055565b609b5473ffffffffffffffffffffffffffffffffffffffff1690565b803b15155b919050565b60006112df306112ca565b15905090565b600054610100900460ff16806112fe57506112fe6112d4565b8061130c575060005460ff16155b611361576040517f08c379a000000000000000000000000000000000000000000000000000000000815260040180806020018281038252602e815260200180612233602e913960400191505060405180910390fd5b600054610100900460ff161580156113c757600080547fffffffffffffffffffffffffffffffffffffffffffffffffffffffffffffff007fffffffffffffffffffffffffffffffffffffffffffffffffffffffffffff00ff909116610100171660011790555b80156113f657600080547fffffffffffffffffffffffffffffffffffffffffffffffffffffffffffff00ff1690555b50565b600054610100900460ff168061141257506114126112d4565b80611420575060005460ff16155b611475576040517f08c379a000000000000000000000000000000000000000000000000000000000815260040180806020018281038252602e815260200180612233602e913960400191505060405180910390fd5b600054610100900460ff161580156114db57600080547fffffffffffffffffffffffffffffffffffffffffffffffffffffffffffffff007fffffffffffffffffffffffffffffffffffffffffffffffffffffffffffff00ff909116610100171660011790555b603380547fffffffffffffffffffffffff00000000000000000000000000000000000000001673ffffffffffffffffffffffffffffffffffffffff84169081179091556040516000907f8be0079c531659141344cd1fd0a4f28419497f9722a3daafe3b4186f6b6457e0908290a3801561042c57600080547fffffffffffffffffffffffffffffffffffffffffffffffffffffffffffff00ff1690555050565b600054610100900460ff168061159457506115946112d4565b806115a2575060005460ff16155b6115f7576040517f08c379a000000000000000000000000000000000000000000000000000000000815260040180806020018281038252602e815260200180612233602e913960400191505060405180910390fd5b600054610100900460ff1615801561165d57600080547fffffffffffffffffffffffffffffffffffffffffffffffffffffffffffffff007fffffffffffffffffffffffffffffffffffffffffffffffffffffffffffff00ff909116610100171660011790555b606580547fffffffffffffffffffffffffffffffffffffffffffffffffffffffffffffff0016905580156113f657600080547fffffffffffffffffffffffffffffffffffffffffffffffffffffffffffff00ff16905550565b3390565b6116c2610555565b61172d57604080517f08c379a000000000000000000000000000000000000000000000000000000000815260206004820152601460248201527f5061757361626c653a206e6f7420706175736564000000000000000000000000604482015290519081900360640190fd5b606580547fffffffffffffffffffffffffffffffffffffffffffffffffffffffffffffff001690557f5db9ee0a495bf2e6ff9c91a7834c1ba4fdd244a5e8aa4e537bd38aeae4b073aa61177e6116b6565b6040805173ffffffffffffffffffffffffffffffffffffffff9092168252519081900360200190a1565b6117b0610555565b1561181c57604080517f08c379a000000000000000000000000000000000000000000000000000000000815260206004820152601060248201527f5061757361626c653a2070617573656400000000000000000000000000000000604482015290519081900360640190fd5b606580547fffffffffffffffffffffffffffffffffffffffffffffffffffffffffffffff001660011790557f62e78cea01bee320cd4e420270b5ea74000d11b0c9f74754ebdbfc544b05a25861177e6116b6565b6040805173ffffffffffffffffffffffffffffffffffffffff8416602482015260448082018490528251808303909101815260649091019091526020810180517bffffffffffffffffffffffffffffffffffffffffffffffffffffffff167fa9059cbb000000000000000000000000000000000000000000000000000000001790526118fd908490611b9f565b505050565b60008282111561197357604080517f08c379a000000000000000000000000000000000000000000000000000000000815260206004820152601e60248201527f536166654d6174683a207375627472616374696f6e206f766572666c6f770000604482015290519081900360640190fd5b508082035b92915050565b60008261198d57506000611978565b8282028284828161199a57fe5b04146119f1576040517f08c379a00000000000000000000000000000000000000000000000000000000081526004018080602001828103825260218152602001806122616021913960400191505060405180910390fd5b9392505050565b6000808211611a6857604080517f08c379a000000000000000000000000000000000000000000000000000000000815260206004820152601a60248201527f536166654d6174683a206469766973696f6e206279207a65726f000000000000604482015290519081900360640190fd5b818381611a7157fe5b049392505050565b80471015611ae857604080517f08c379a000000000000000000000000000000000000000000000000000000000815260206004820152601d60248201527f416464726573733a20696e73756666696369656e742062616c616e6365000000604482015290519081900360640190fd5b60405160009073ffffffffffffffffffffffffffffffffffffffff84169083908381818185875af1925050503d8060008114611b40576040519150601f19603f3d011682016040523d82523d6000602084013e611b45565b606091505b50509050806118fd576040517f08c379a000000000000000000000000000000000000000000000000000000000815260040180806020018281038252603a8152602001806121d3603a913960400191505060405180910390fd5b6000611c01826040518060400160405280602081526020017f5361666545524332303a206c6f772d6c6576656c2063616c6c206661696c65648152508573ffffffffffffffffffffffffffffffffffffffff16611c779092919063ffffffff16565b8051909150156118fd57808060200190516020811015611c2057600080fd5b50516118fd576040517f08c379a000000000000000000000000000000000000000000000000000000000815260040180806020018281038252602a815260200180612282602a913960400191505060405180910390fd5b6060611c868484600085611c8e565b949350505050565b606082471015611ce9576040517f08c379a000000000000000000000000000000000000000000000000000000000815260040180806020018281038252602681526020018061220d6026913960400191505060405180910390fd5b611cf2856112ca565b611d5d57604080517f08c379a000000000000000000000000000000000000000000000000000000000815260206004820152601d60248201527f416464726573733a2063616c6c20746f206e6f6e2d636f6e7472616374000000604482015290519081900360640190fd5b6000808673ffffffffffffffffffffffffffffffffffffffff1685876040518082805190602001908083835b60208310611dc657805182527fffffffffffffffffffffffffffffffffffffffffffffffffffffffffffffffe09092019160209182019101611d89565b6001836020036101000a03801982511681845116808217855250505050505090500191505060006040518083038185875af1925050503d8060008114611e28576040519150601f19603f3d011682016040523d82523d6000602084013e611e2d565b606091505b5091509150611e3d828286611e48565b979650505050505050565b60608315611e575750816119f1565b825115611e675782518084602001fd5b816040517f08c379a00000000000000000000000000000000000000000000000000000000081526004018080602001828103825283818151815260200191508051906020019080838360005b83811015611ecb578181015183820152602001611eb3565b50505050905090810190601f168015611ef85780820380516001836020036101000a031916815260200191505b509250505060405180910390fd5b803573ffffffffffffffffffffffffffffffffffffffff811681146112cf57600080fd5b600060208284031215611f3b578081fd5b6119f182611f06565b600080600060608486031215611f58578182fd5b611f6184611f06565b9250611f6f60208501611f06565b9150604084013590509250925092565b600060208284031215611f90578081fd5b81516119f18161219e565b600060408284031215611fac578081fd5b6040516040810181811067ffffffffffffffff82111715611fc957fe5b604052611fd583611f06565b8152611fe360208401611f06565b60208201529392505050565b600060208284031215612000578081fd5b5051919050565b60008060408385031215612019578182fd5b82359150602083013561202b8161219e565b809150509250929050565b73ffffffffffffffffffffffffffffffffffffffff91909116815260200190565b73ffffffffffffffffffffffffffffffffffffffff9384168152919092166020820152604081019190915260600190565b901515815260200190565b60208082526015908201527f4554487478414d4d3a207a65726f20616d6f756e740000000000000000000000604082015260600190565b60208082526027908201527f4554487478414d4d3a3a706f7374557067726164653a20616c7265616479206560408201527f7865637574656400000000000000000000000000000000000000000000000000606082015260800190565b60208082526019908201527f4554487478414d4d3a206e6f204554486d7820737570706c7900000000000000604082015260600190565b6020808252601d908201527f4554487478414d4d3a2063616e6e6f74207265636f7665722057455448000000604082015260600190565b90815260200190565b80151581146113f657600080fdfe4f776e61626c653a206e6577206f776e657220697320746865207a65726f2061646472657373416464726573733a20756e61626c6520746f2073656e642076616c75652c20726563697069656e74206d61792068617665207265766572746564416464726573733a20696e73756666696369656e742062616c616e636520666f722063616c6c496e697469616c697a61626c653a20636f6e747261637420697320616c726561647920696e697469616c697a6564536166654d6174683a206d756c7469706c69636174696f6e206f766572666c6f775361666545524332303a204552433230206f7065726174696f6e20646964206e6f742073756363656564a2646970667358221220324cfe15e5719e7c12ec0ea2a87515c33d4cce3be680ca2df99f1f5452390a9e64736f6c63430007060033496e697469616c697a61626c653a20636f6e747261637420697320616c726561647920696e697469616c697a6564",
  "devdoc": {
    "kind": "dev",
    "methods": {
      "owner()": {
        "details": "Returns the address of the current owner."
      },
      "paused()": {
        "details": "Returns true if the contract is paused, and false otherwise."
      },
      "renounceOwnership()": {
        "details": "Leaves the contract without owner. It will not be possible to call `onlyOwner` functions anymore. Can only be called by the current owner. NOTE: Renouncing ownership will leave the contract without an owner, thereby removing any functionality that is only available to the owner."
      },
      "transferOwnership(address)": {
        "details": "Transfers ownership of the contract to a new account (`newOwner`). Can only be called by the current owner."
      }
    },
    "version": 1
  },
  "userdoc": {
    "kind": "user",
    "methods": {},
    "version": 1
  },
  "storageLayout": {
    "storage": [
      {
        "astId": 6,
        "contract": "contracts/exchanges/ETHtxAMM/ETHtxAMM.sol:ETHtxAMM",
        "label": "_initialized",
        "offset": 0,
        "slot": "0",
        "type": "t_bool"
      },
      {
        "astId": 9,
        "contract": "contracts/exchanges/ETHtxAMM/ETHtxAMM.sol:ETHtxAMM",
        "label": "_initializing",
        "offset": 1,
        "slot": "0",
        "type": "t_bool"
      },
      {
        "astId": 353,
        "contract": "contracts/exchanges/ETHtxAMM/ETHtxAMM.sol:ETHtxAMM",
        "label": "__gap",
        "offset": 0,
        "slot": "1",
        "type": "t_array(t_uint256)50_storage"
      },
      {
        "astId": 3948,
        "contract": "contracts/exchanges/ETHtxAMM/ETHtxAMM.sol:ETHtxAMM",
        "label": "_owner",
        "offset": 0,
        "slot": "51",
        "type": "t_address"
      },
      {
        "astId": 4067,
        "contract": "contracts/exchanges/ETHtxAMM/ETHtxAMM.sol:ETHtxAMM",
        "label": "__gap",
        "offset": 0,
        "slot": "52",
        "type": "t_array(t_uint256)49_storage"
      },
      {
        "astId": 375,
        "contract": "contracts/exchanges/ETHtxAMM/ETHtxAMM.sol:ETHtxAMM",
        "label": "_paused",
        "offset": 0,
        "slot": "101",
        "type": "t_bool"
      },
      {
        "astId": 466,
        "contract": "contracts/exchanges/ETHtxAMM/ETHtxAMM.sol:ETHtxAMM",
        "label": "__gap",
        "offset": 0,
        "slot": "102",
        "type": "t_array(t_uint256)49_storage"
      },
      {
        "astId": 6873,
        "contract": "contracts/exchanges/ETHtxAMM/ETHtxAMM.sol:ETHtxAMM",
        "label": "_gasOracleDeprecated",
        "offset": 0,
        "slot": "151",
        "type": "t_address"
      },
      {
        "astId": 6875,
        "contract": "contracts/exchanges/ETHtxAMM/ETHtxAMM.sol:ETHtxAMM",
        "label": "_targetCRatioNumDeprecated",
        "offset": 0,
        "slot": "152",
        "type": "t_uint128"
      },
      {
        "astId": 6877,
        "contract": "contracts/exchanges/ETHtxAMM/ETHtxAMM.sol:ETHtxAMM",
        "label": "_targetCRatioDenDeprecated",
        "offset": 16,
        "slot": "152",
        "type": "t_uint128"
      },
      {
        "astId": 6879,
        "contract": "contracts/exchanges/ETHtxAMM/ETHtxAMM.sol:ETHtxAMM",
        "label": "_ethtxDeprecated",
        "offset": 0,
        "slot": "153",
        "type": "t_address"
      },
      {
        "astId": 6881,
        "contract": "contracts/exchanges/ETHtxAMM/ETHtxAMM.sol:ETHtxAMM",
        "label": "_weth",
        "offset": 0,
        "slot": "154",
        "type": "t_address"
      },
      {
        "astId": 6883,
        "contract": "contracts/exchanges/ETHtxAMM/ETHtxAMM.sol:ETHtxAMM",
        "label": "_ethmx",
        "offset": 0,
        "slot": "155",
        "type": "t_address"
      },
      {
        "astId": 6885,
        "contract": "contracts/exchanges/ETHtxAMM/ETHtxAMM.sol:ETHtxAMM",
        "label": "_gethDeprecated",
        "offset": 0,
        "slot": "156",
        "type": "t_uint256"
      },
      {
        "astId": 6889,
        "contract": "contracts/exchanges/ETHtxAMM/ETHtxAMM.sol:ETHtxAMM",
        "label": "__gap",
        "offset": 0,
        "slot": "157",
        "type": "t_array(t_uint256)44_storage"
      }
    ],
    "types": {
      "t_address": {
        "encoding": "inplace",
        "label": "address",
        "numberOfBytes": "20"
      },
      "t_array(t_uint256)44_storage": {
        "base": "t_uint256",
        "encoding": "inplace",
        "label": "uint256[44]",
        "numberOfBytes": "1408"
      },
      "t_array(t_uint256)49_storage": {
        "base": "t_uint256",
        "encoding": "inplace",
        "label": "uint256[49]",
        "numberOfBytes": "1568"
      },
      "t_array(t_uint256)50_storage": {
        "base": "t_uint256",
        "encoding": "inplace",
        "label": "uint256[50]",
        "numberOfBytes": "1600"
      },
      "t_bool": {
        "encoding": "inplace",
        "label": "bool",
        "numberOfBytes": "1"
      },
      "t_uint128": {
        "encoding": "inplace",
        "label": "uint128",
        "numberOfBytes": "16"
      },
      "t_uint256": {
        "encoding": "inplace",
        "label": "uint256",
        "numberOfBytes": "32"
      }
    }
  }
}