{
  "address": "0xF74dde74378719D2C0835aAa555490dAE5E7FA07",
  "abi": [
    {
      "inputs": [
        {
          "internalType": "address",
          "name": "owner_",
          "type": "address"
        }
      ],
      "stateMutability": "nonpayable",
      "type": "constructor"
    },
    {
      "anonymous": false,
      "inputs": [
        {
          "indexed": true,
          "internalType": "address",
          "name": "author",
          "type": "address"
        },
        {
          "indexed": true,
          "internalType": "address",
          "name": "account",
          "type": "address"
        }
      ],
      "name": "DefaultRecipientSet",
      "type": "event"
    },
    {
      "anonymous": false,
      "inputs": [
        {
          "indexed": true,
          "internalType": "address",
          "name": "author",
          "type": "address"
        },
        {
          "indexed": true,
          "internalType": "address",
          "name": "account",
          "type": "address"
        }
      ],
      "name": "EthmxRewardsSet",
      "type": "event"
    },
    {
      "anonymous": false,
      "inputs": [
        {
          "indexed": true,
          "internalType": "address",
          "name": "author",
          "type": "address"
        },
        {
          "indexed": true,
          "internalType": "address",
          "name": "account",
          "type": "address"
        }
      ],
      "name": "EthtxAMMSet",
      "type": "event"
    },
    {
      "anonymous": false,
      "inputs": [
        {
          "indexed": true,
          "internalType": "address",
          "name": "author",
          "type": "address"
        },
        {
          "indexed": true,
          "internalType": "address",
          "name": "account",
          "type": "address"
        }
      ],
      "name": "EthtxSet",
      "type": "event"
    },
    {
      "anonymous": false,
      "inputs": [
        {
          "indexed": true,
          "internalType": "address",
          "name": "author",
          "type": "address"
        },
        {
          "indexed": true,
          "internalType": "address",
          "name": "account",
          "type": "address"
        }
      ],
      "name": "LPRewardsSet",
      "type": "event"
    },
    {
      "anonymous": false,
      "inputs": [
        {
          "indexed": true,
          "internalType": "address",
          "name": "previousOwner",
          "type": "address"
        },
        {
          "indexed": true,
          "internalType": "address",
          "name": "newOwner",
          "type": "address"
        }
      ],
      "name": "OwnershipTransferred",
      "type": "event"
    },
    {
      "anonymous": false,
      "inputs": [
        {
          "indexed": true,
          "internalType": "address",
          "name": "author",
          "type": "address"
        },
        {
          "indexed": true,
          "internalType": "address",
          "name": "token",
          "type": "address"
        },
        {
          "indexed": true,
          "internalType": "address",
          "name": "to",
          "type": "address"
        },
        {
          "indexed": false,
          "internalType": "uint256",
          "name": "amount",
          "type": "uint256"
        }
      ],
      "name": "RecoveredUnsupported",
      "type": "event"
    },
    {
      "anonymous": false,
      "inputs": [
        {
          "indexed": true,
          "internalType": "address",
          "name": "author",
          "type": "address"
        },
        {
          "indexed": true,
          "internalType": "address",
          "name": "to",
          "type": "address"
        },
        {
          "indexed": false,
          "internalType": "uint256",
          "name": "amount",
          "type": "uint256"
        }
      ],
      "name": "RewardsSent",
      "type": "event"
    },
    {
      "anonymous": false,
      "inputs": [
        {
          "indexed": true,
          "internalType": "address",
          "name": "author",
          "type": "address"
        },
        {
          "indexed": true,
          "internalType": "address",
          "name": "token",
          "type": "address"
        }
      ],
      "name": "RewardsTokenSet",
      "type": "event"
    },
    {
      "anonymous": false,
      "inputs": [
        {
          "indexed": true,
          "internalType": "address",
          "name": "author",
          "type": "address"
        },
        {
          "indexed": true,
          "internalType": "address",
          "name": "account",
          "type": "address"
        }
      ],
      "name": "SharesActivated",
      "type": "event"
    },
    {
      "anonymous": false,
      "inputs": [
        {
          "indexed": true,
          "internalType": "address",
          "name": "author",
          "type": "address"
        },
        {
          "indexed": true,
          "internalType": "address",
          "name": "account",
          "type": "address"
        },
        {
          "indexed": false,
          "internalType": "uint128",
          "name": "amount",
          "type": "uint128"
        }
      ],
      "name": "SharesAdded",
      "type": "event"
    },
    {
      "anonymous": false,
      "inputs": [
        {
          "indexed": true,
          "internalType": "address",
          "name": "author",
          "type": "address"
        },
        {
          "indexed": true,
          "internalType": "address",
          "name": "account",
          "type": "address"
        }
      ],
      "name": "SharesDeactivated",
      "type": "event"
    },
    {
      "anonymous": false,
      "inputs": [
        {
          "indexed": true,
          "internalType": "address",
          "name": "author",
          "type": "address"
        },
        {
          "indexed": true,
          "internalType": "address",
          "name": "account",
          "type": "address"
        },
        {
          "indexed": false,
          "internalType": "uint128",
          "name": "amount",
          "type": "uint128"
        }
      ],
      "name": "SharesRemoved",
      "type": "event"
    },
    {
      "anonymous": false,
      "inputs": [
        {
          "indexed": true,
          "internalType": "address",
          "name": "author",
          "type": "address"
        },
        {
          "indexed": true,
          "internalType": "address",
          "name": "account",
          "type": "address"
        },
        {
          "indexed": false,
          "internalType": "uint128",
          "name": "value",
          "type": "uint128"
        },
        {
          "indexed": false,
          "internalType": "bool",
          "name": "isActive",
          "type": "bool"
        }
      ],
      "name": "SharesSet",
      "type": "event"
    },
    {
      "inputs": [],
      "name": "activateShares",
      "outputs": [],
      "stateMutability": "nonpayable",
      "type": "function"
    },
    {
      "inputs": [
        {
          "internalType": "address",
          "name": "account",
          "type": "address"
        }
      ],
      "name": "activateSharesFor",
      "outputs": [],
      "stateMutability": "nonpayable",
      "type": "function"
    },
    {
      "inputs": [
        {
          "internalType": "address",
          "name": "account",
          "type": "address"
        },
        {
          "internalType": "uint128",
          "name": "amount",
          "type": "uint128"
        }
      ],
      "name": "addShares",
      "outputs": [],
      "stateMutability": "nonpayable",
      "type": "function"
    },
    {
      "inputs": [],
      "name": "convertETHtx",
      "outputs": [],
      "stateMutability": "nonpayable",
      "type": "function"
    },
    {
      "inputs": [],
      "name": "deactivateShares",
      "outputs": [],
      "stateMutability": "nonpayable",
      "type": "function"
    },
    {
      "inputs": [
        {
          "internalType": "address",
          "name": "account",
          "type": "address"
        }
      ],
      "name": "deactivateSharesFor",
      "outputs": [],
      "stateMutability": "nonpayable",
      "type": "function"
    },
    {
      "inputs": [],
      "name": "defaultRecipient",
      "outputs": [
        {
          "internalType": "address",
          "name": "",
          "type": "address"
        }
      ],
      "stateMutability": "view",
      "type": "function"
    },
    {
      "inputs": [],
      "name": "distributeRewards",
      "outputs": [
        {
          "internalType": "uint256",
          "name": "",
          "type": "uint256"
        }
      ],
      "stateMutability": "nonpayable",
      "type": "function"
    },
    {
      "inputs": [],
      "name": "ethmxRewards",
      "outputs": [
        {
          "internalType": "address",
          "name": "",
          "type": "address"
        }
      ],
      "stateMutability": "view",
      "type": "function"
    },
    {
      "inputs": [],
      "name": "ethtx",
      "outputs": [
        {
          "internalType": "address",
          "name": "",
          "type": "address"
        }
      ],
      "stateMutability": "view",
      "type": "function"
    },
    {
      "inputs": [],
      "name": "ethtxAMM",
      "outputs": [
        {
          "internalType": "address",
          "name": "",
          "type": "address"
        }
      ],
      "stateMutability": "view",
      "type": "function"
    },
    {
      "inputs": [
        {
          "components": [
            {
              "internalType": "address",
              "name": "defaultRecipient",
              "type": "address"
            },
            {
              "internalType": "address",
              "name": "rewardsToken",
              "type": "address"
            },
            {
              "internalType": "address",
              "name": "ethmxRewards",
              "type": "address"
            },
            {
              "internalType": "address",
              "name": "ethtx",
              "type": "address"
            },
            {
              "internalType": "address",
              "name": "ethtxAMM",
              "type": "address"
            },
            {
              "internalType": "address",
              "name": "lpRewards",
              "type": "address"
            },
            {
              "components": [
                {
                  "internalType": "address",
                  "name": "account",
                  "type": "address"
                },
                {
                  "internalType": "uint128",
                  "name": "value",
                  "type": "uint128"
                },
                {
                  "internalType": "bool",
                  "name": "isActive",
                  "type": "bool"
                }
              ],
              "internalType": "struct IRewardsManager.ShareData[]",
              "name": "shares",
              "type": "tuple[]"
            }
          ],
          "internalType": "struct ETHtxRewardsManager.ETHtxRewardsManagerArgs",
          "name": "_args",
          "type": "tuple"
        }
      ],
      "name": "ethtxRewardsManagerPostInit",
      "outputs": [],
      "stateMutability": "nonpayable",
      "type": "function"
    },
    {
      "inputs": [
        {
          "internalType": "address",
          "name": "owner_",
          "type": "address"
        }
      ],
      "name": "init",
      "outputs": [],
      "stateMutability": "nonpayable",
      "type": "function"
    },
    {
      "inputs": [],
      "name": "lpRewards",
      "outputs": [
        {
          "internalType": "address",
          "name": "",
          "type": "address"
        }
      ],
      "stateMutability": "view",
      "type": "function"
    },
    {
      "inputs": [],
      "name": "notifyRecipients",
      "outputs": [],
      "stateMutability": "nonpayable",
      "type": "function"
    },
    {
      "inputs": [],
      "name": "owner",
      "outputs": [
        {
          "internalType": "address",
          "name": "",
          "type": "address"
        }
      ],
      "stateMutability": "view",
      "type": "function"
    },
    {
      "inputs": [
        {
          "components": [
            {
              "internalType": "address",
              "name": "defaultRecipient",
              "type": "address"
            },
            {
              "internalType": "address",
              "name": "rewardsToken",
              "type": "address"
            },
            {
              "components": [
                {
                  "internalType": "address",
                  "name": "account",
                  "type": "address"
                },
                {
                  "internalType": "uint128",
                  "name": "value",
                  "type": "uint128"
                },
                {
                  "internalType": "bool",
                  "name": "isActive",
                  "type": "bool"
                }
              ],
              "internalType": "struct IRewardsManager.ShareData[]",
              "name": "shares",
              "type": "tuple[]"
            }
          ],
          "internalType": "struct RewardsManager.RewardsManagerArgs",
          "name": "_args",
          "type": "tuple"
        }
      ],
      "name": "postInit",
      "outputs": [],
      "stateMutability": "nonpayable",
      "type": "function"
    },
    {
      "inputs": [
        {
          "internalType": "address",
          "name": "token",
          "type": "address"
        },
        {
          "internalType": "address",
          "name": "to",
          "type": "address"
        },
        {
          "internalType": "uint256",
          "name": "amount",
          "type": "uint256"
        }
      ],
      "name": "recoverUnsupportedERC20",
      "outputs": [],
      "stateMutability": "nonpayable",
      "type": "function"
    },
    {
      "inputs": [
        {
          "internalType": "address",
          "name": "account",
          "type": "address"
        },
        {
          "internalType": "uint128",
          "name": "amount",
          "type": "uint128"
        }
      ],
      "name": "removeShares",
      "outputs": [],
      "stateMutability": "nonpayable",
      "type": "function"
    },
    {
      "inputs": [],
      "name": "renounceOwnership",
      "outputs": [],
      "stateMutability": "nonpayable",
      "type": "function"
    },
    {
      "inputs": [],
      "name": "rewardsToken",
      "outputs": [
        {
          "internalType": "address",
          "name": "",
          "type": "address"
        }
      ],
      "stateMutability": "view",
      "type": "function"
    },
    {
      "inputs": [],
      "name": "sendRewards",
      "outputs": [
        {
          "internalType": "uint256",
          "name": "",
          "type": "uint256"
        }
      ],
      "stateMutability": "nonpayable",
      "type": "function"
    },
    {
      "inputs": [
        {
          "internalType": "address",
          "name": "account",
          "type": "address"
        }
      ],
      "name": "setDefaultRecipient",
      "outputs": [],
      "stateMutability": "nonpayable",
      "type": "function"
    },
    {
      "inputs": [
        {
          "internalType": "address",
          "name": "account",
          "type": "address"
        }
      ],
      "name": "setEthmxRewards",
      "outputs": [],
      "stateMutability": "nonpayable",
      "type": "function"
    },
    {
      "inputs": [
        {
          "internalType": "address",
          "name": "account",
          "type": "address"
        }
      ],
      "name": "setEthtx",
      "outputs": [],
      "stateMutability": "nonpayable",
      "type": "function"
    },
    {
      "inputs": [
        {
          "internalType": "address",
          "name": "account",
          "type": "address"
        }
      ],
      "name": "setEthtxAMM",
      "outputs": [],
      "stateMutability": "nonpayable",
      "type": "function"
    },
    {
      "inputs": [
        {
          "internalType": "address",
          "name": "account",
          "type": "address"
        }
      ],
      "name": "setLPRewards",
      "outputs": [],
      "stateMutability": "nonpayable",
      "type": "function"
    },
    {
      "inputs": [
        {
          "internalType": "address",
          "name": "token",
          "type": "address"
        }
      ],
      "name": "setRewardsToken",
      "outputs": [],
      "stateMutability": "nonpayable",
      "type": "function"
    },
    {
      "inputs": [
        {
          "internalType": "address",
          "name": "account",
          "type": "address"
        },
        {
          "internalType": "uint128",
          "name": "value",
          "type": "uint128"
        },
        {
          "internalType": "bool",
          "name": "isActive",
          "type": "bool"
        }
      ],
      "name": "setShares",
      "outputs": [],
      "stateMutability": "nonpayable",
      "type": "function"
    },
    {
      "inputs": [
        {
          "components": [
            {
              "internalType": "address",
              "name": "account",
              "type": "address"
            },
            {
              "internalType": "uint128",
              "name": "value",
              "type": "uint128"
            },
            {
              "internalType": "bool",
              "name": "isActive",
              "type": "bool"
            }
          ],
          "internalType": "struct IRewardsManager.ShareData[]",
          "name": "batch",
          "type": "tuple[]"
        }
      ],
      "name": "setSharesBatch",
      "outputs": [],
      "stateMutability": "nonpayable",
      "type": "function"
    },
    {
      "inputs": [
        {
          "internalType": "address",
          "name": "account",
          "type": "address"
        }
      ],
      "name": "sharesFor",
      "outputs": [
        {
          "internalType": "uint128",
          "name": "active",
          "type": "uint128"
        },
        {
          "internalType": "uint128",
          "name": "total",
          "type": "uint128"
        }
      ],
      "stateMutability": "view",
      "type": "function"
    },
    {
      "inputs": [],
      "name": "totalRewardsAccrued",
      "outputs": [
        {
          "internalType": "uint256",
          "name": "",
          "type": "uint256"
        }
      ],
      "stateMutability": "view",
      "type": "function"
    },
    {
      "inputs": [],
      "name": "totalRewardsRedeemed",
      "outputs": [
        {
          "internalType": "uint256",
          "name": "",
          "type": "uint256"
        }
      ],
      "stateMutability": "view",
      "type": "function"
    },
    {
      "inputs": [],
      "name": "totalShares",
      "outputs": [
        {
          "internalType": "uint256",
          "name": "total",
          "type": "uint256"
        }
      ],
      "stateMutability": "view",
      "type": "function"
    },
    {
      "inputs": [
        {
          "internalType": "address",
          "name": "newOwner",
          "type": "address"
        }
      ],
      "name": "transferOwnership",
      "outputs": [],
      "stateMutability": "nonpayable",
      "type": "function"
    }
  ],
  "transactionHash": "0x6f4db5a122b8bdde414ca26a57faa918e0f9f75f714bd2c44c08d8af897540bd",
  "args": [
    "0x5757Dd711EaE80e181E07CdbCe43359Ac1048394"
  ],
  "solcInputHash": "dce8ce70f69a6af015380cad047f4734",
  "bytecode": "0x60806040523480156200001157600080fd5b506040516200351a3803806200351a8339810160408190526200003491620002c9565b80620000408162000048565b5050620002f9565b600054610100900460ff16806200006457506200006462000108565b8062000073575060005460ff16155b620000b05760405162461bcd60e51b815260040180806020018281038252602e815260200180620034ec602e913960400191505060405180910390fd5b600054610100900460ff16158015620000dc576000805460ff1961ff0019909116610100171660011790555b620000e662000126565b620000f182620001d0565b801562000104576000805461ff00191690555b5050565b60006200012030620002c360201b62001c181760201c565b15905090565b600054610100900460ff16806200014257506200014262000108565b8062000151575060005460ff16155b6200018e5760405162461bcd60e51b815260040180806020018281038252602e815260200180620034ec602e913960400191505060405180910390fd5b600054610100900460ff16158015620001ba576000805460ff1961ff0019909116610100171660011790555b8015620001cd576000805461ff00191690555b50565b600054610100900460ff1680620001ec5750620001ec62000108565b80620001fb575060005460ff16155b620002385760405162461bcd60e51b815260040180806020018281038252602e815260200180620034ec602e913960400191505060405180910390fd5b600054610100900460ff1615801562000264576000805460ff1961ff0019909116610100171660011790555b603380546001600160a01b0319166001600160a01b0384169081179091556040516000907f8be0079c531659141344cd1fd0a4f28419497f9722a3daafe3b4186f6b6457e0908290a3801562000104576000805461ff00191690555050565b3b151590565b600060208284031215620002db578081fd5b81516001600160a01b0381168114620002f2578182fd5b9392505050565b6131e380620003096000396000f3fe608060405234801561001057600080fd5b50600436106102115760003560e01c806386a86d4111610125578063b1ebd5d6116100ad578063e0a9da6a1161007c578063e0a9da6a146103de578063f14744b1146103f1578063f2fde38b146103f9578063fa8c076f1461040c578063fd1443101461041f57610211565b8063b1ebd5d61461039d578063bb99ba58146103b0578063d1af0c7d146103c3578063de320cc1146103cb57610211565b8063902dd186116100f4578063902dd1861461036a57806391387b151461037257806395a1297a1461037a57806395cb1b1e14610382578063a05d94731461038a57610211565b806386a86d41146103295780638da5cb5b1461033c5780638ed6f262146103445780638f3113db1461035757610211565b80634b0af560116101a85780636f4a2cd0116101775780636f4a2cd0146102f65780636fd1bc83146102fe578063715018a6146103065780637a3c95211461030e578063860c19f31461032157610211565b80634b0af5601461029c5780634f7a6c3c146102af5780636c7a0068146102c25780636eb854c8146102d557610211565b806319ab453c116101e457806319ab453c1461024e57806320a639f3146102615780632d281553146102745780633a98ef391461028757610211565b806303e4397f1461021657806304c2861b146102205780630b5e8df9146102285780630c76214114610246575b600080fd5b61021e610427565b005b61021e610439565b610230610449565b60405161023d9190612d0c565b60405180910390f35b610230610459565b61021e61025c366004612a6c565b610468565b61021e61026f366004612a6c565b61051c565b61021e610282366004612a6c565b6105dc565b61028f61064a565b60405161023d9190613036565b61021e6102aa366004612c59565b6106a9565b61021e6102bd366004612a6c565b610782565b61021e6102d0366004612af3565b61099e565b6102e86102e3366004612a6c565b610cb6565b60405161023d92919061301c565b61028f610ce6565b61021e610d0f565b61021e610d1f565b61021e61031c366004612b39565b610dcb565b61028f610e91565b61021e610337366004612a86565b610ea4565b610230610fa9565b61021e610352366004612a6c565b610fb8565b61021e610365366004612a6c565b611023565b6102306110e3565b61021e6110f2565b61028f61120f565b61028f611215565b61021e610398366004612a6c565b61127d565b61021e6103ab366004612ac1565b61133d565b61021e6103be366004612b88565b61156a565b61023061178a565b61021e6103d9366004612a6c565b611799565b61021e6103ec366004612ac1565b611859565b610230611a37565b61021e610407366004612a6c565b611a46565b61021e61041a366004612a6c565b611b49565b610230611c09565b610437610432611c22565b611c26565b565b610437610444611c22565b611d21565b6066546001600160a01b03165b90565b609b546001600160a01b031690565b600054610100900460ff16806104815750610481611e28565b8061048f575060005460ff16155b6104ca5760405162461bcd60e51b815260040180806020018281038252602e815260200180613115602e913960400191505060405180910390fd5b600054610100900460ff161580156104f5576000805460ff1961ff0019909116610100171660011790555b6104fd611e39565b61050682611eda565b8015610518576000805461ff00191690555b5050565b610524611c22565b6001600160a01b0316610535610fa9565b6001600160a01b03161461057e576040805162461bcd60e51b81526020600482018190526024820152600080516020613164833981519152604482015290519081900360640190fd5b609a80546001600160a01b0319166001600160a01b0383169081179091556105a4611c22565b6001600160a01b03167f8539add575762117a99618f95a6bba75a43ab0a1709316da144c41dad05187e360405160405180910390a350565b6105e4611c22565b6001600160a01b03166105f5610fa9565b6001600160a01b03161461063e576040805162461bcd60e51b81526020600482018190526024820152600080516020613164833981519152604482015290519081900360640190fd5b61064781611d21565b50565b6000805b6106586068611fc5565b8110156106a557606a600061066e606884611fd6565b6001600160a01b03168152602081019190915260400160002054600160801b90046001600160801b0316919091019060010161064e565b5090565b6106b1611c22565b6001600160a01b03166106c2610fa9565b6001600160a01b03161461070b576040805162461bcd60e51b81526020600482018190526024820152600080516020613164833981519152604482015290519081900360640190fd5b6000610715611c22565b6020830151606580546001600160a01b0319166001600160a01b0392831690811790915560405192935091908316907f7d7a6e0febb00fa099988e85a4dcf58c7297875e1bd06fe1e764c71619ee3a2090600090a3815161077590610782565b6105188260400151610dcb565b61078a611c22565b6001600160a01b031661079b610fa9565b6001600160a01b0316146107e4576040805162461bcd60e51b81526020600482018190526024820152600080516020613164833981519152604482015290519081900360640190fd5b6001600160a01b0381166108135760405162461bcd60e51b815260040161080a90612fa3565b60405180910390fd5b6001600160a01b03811630141561083c5760405162461bcd60e51b815260040161080a90612f58565b61084581611d21565b6066546001600160a01b03166000908152606a6020526040902080546001600160801b03600160801b82048116911611156108fc5780546001600160801b03600160801b820481168183169081039081900382166001600160801b03199093169290921783556001600160a01b0384166000908152606a60205260409020805490916108df916108da91908116908516611fe9565b612043565b81546001600160801b0319166001600160801b0391909116179055505b8054600160801b90046001600160801b031661092c5760665461092a906068906001600160a01b0316612087565b505b606680546001600160a01b0319166001600160a01b03841617905561095260688361209c565b50816001600160a01b0316610965611c22565b6001600160a01b03167f825991f9f9f950375f4d3f04c94283f5f7ea10aa441c6d43cb0e4c7bdce517bf60405160405180910390a35050565b6109a6611c22565b6001600160a01b03166109b7610fa9565b6001600160a01b031614610a00576040805162461bcd60e51b81526020600482018190526024820152600080516020613164833981519152604482015290519081900360640190fd5b6001600160a01b038316610a265760405162461bcd60e51b815260040161080a90612e0f565b6001600160a01b038316301415610a4f5760405162461bcd60e51b815260040161080a90612d20565b6066546001600160a01b039081166000818152606a6020526040902090918516821415610b2b578054610aa7906108da906001600160801b0380881691610aa19181811691600160801b9004166120b1565b90611fe9565b81546001600160801b0319166001600160801b03918216178116600160801b918616919091021781556001600160a01b038516610ae2611c22565b6001600160a01b03167f4de46491e6981c5a2286f73b7825775a2141c4927704f3ba93a109c6cd9487ef8686604051610b1c929190613001565b60405180910390a35050610cb1565b6001600160a01b0385166000908152606a602052604090208054600160801b90046001600160801b031615801590610b6b575080546001600160801b0316155b15610bb15780548254610b95916108da916001600160801b0390811691600160801b9004166120b1565b82546001600160801b0319166001600160801b03919091161782555b83610c015780546001600160801b03191681558154610be1906108da906001600160801b03908116908816611fe9565b82546001600160801b0319166001600160801b0391909116178255610c1b565b80546001600160801b0319166001600160801b0386161781555b80546001600160801b03808716600160801b81029190921617825515610c4c57610c4660688761209c565b50610c59565b610c57606887612087565b505b856001600160a01b0316610c6b611c22565b6001600160a01b03167f4de46491e6981c5a2286f73b7825775a2141c4927704f3ba93a109c6cd9487ef8787604051610ca5929190613001565b60405180910390a35050505b505050565b6001600160a01b03166000908152606a60205260409020546001600160801b0380821692600160801b9092041690565b6000610cf06110f2565b6000610cfa611215565b90508015610d0a57610d0a610d0f565b905090565b610d1761210e565b6104376121e6565b610d27611c22565b6001600160a01b0316610d38610fa9565b6001600160a01b031614610d81576040805162461bcd60e51b81526020600482018190526024820152600080516020613164833981519152604482015290519081900360640190fd5b6033546040516000916001600160a01b0316907f8be0079c531659141344cd1fd0a4f28419497f9722a3daafe3b4186f6b6457e0908390a3603380546001600160a01b0319169055565b610dd3611c22565b6001600160a01b0316610de4610fa9565b6001600160a01b031614610e2d576040805162461bcd60e51b81526020600482018190526024820152600080516020613164833981519152604482015290519081900360640190fd5b60005b815181101561051857610e89828281518110610e4857fe5b602002602001015160000151838381518110610e6057fe5b602002602001015160200151848481518110610e7857fe5b60200260200101516040015161099e565b600101610e30565b6000606754610e9e612242565b01905090565b610eac611c22565b6001600160a01b0316610ebd610fa9565b6001600160a01b031614610f06576040805162461bcd60e51b81526020600482018190526024820152600080516020613164833981519152604482015290519081900360640190fd5b6065546001600160a01b0384811691161415610f345760405162461bcd60e51b815260040161080a90612d7d565b610f486001600160a01b03841683836122c3565b816001600160a01b0316836001600160a01b0316610f64611c22565b6001600160a01b03167feaf4cea276efdcae93a52ca2f4bfdd952992169289bf655b1870a4b20bdae7d684604051610f9c9190613036565b60405180910390a4505050565b6033546001600160a01b031690565b610fc0611c22565b6001600160a01b0316610fd1610fa9565b6001600160a01b03161461101a576040805162461bcd60e51b81526020600482018190526024820152600080516020613164833981519152604482015290519081900360640190fd5b61064781611c26565b61102b611c22565b6001600160a01b031661103c610fa9565b6001600160a01b031614611085576040805162461bcd60e51b81526020600482018190526024820152600080516020613164833981519152604482015290519081900360640190fd5b609b80546001600160a01b0319166001600160a01b0383169081179091556110ab611c22565b6001600160a01b03167f235269a97f3db7c81a489bee1ec395b6bdaff5031bd449e6dc8b4ad63c9c40ad60405160405180910390a350565b6099546001600160a01b031690565b60006110fc6110e3565b90506000816001600160a01b03166370a08231306040518263ffffffff1660e01b815260040161112c9190612d0c565b60206040518083038186803b15801561114457600080fd5b505afa158015611158573d6000803e3d6000fd5b505050506040513d601f19601f8201168201806040525081019061117c9190612cf4565b90508061118a575050610437565b6000611194611a37565b90506111aa6001600160a01b0384168284612315565b604051632f417c5760e21b81526001600160a01b0382169063bd05f15c906111d8908590429060040161303f565b600060405180830381600087803b1580156111f257600080fd5b505af1158015611206573d6000803e3d6000fd5b50505050505050565b60675490565b600080611220612242565b905080611231576000915050610456565b600061123b61064a565b905060005b61124a6068611fc5565b81101561126e5761126661125f606883611fd6565b8385612400565b600101611240565b50506067805482019055905090565b611285611c22565b6001600160a01b0316611296610fa9565b6001600160a01b0316146112df576040805162461bcd60e51b81526020600482018190526024820152600080516020613164833981519152604482015290519081900360640190fd5b609880546001600160a01b0319166001600160a01b038316908117909155611305611c22565b6001600160a01b03167fbb9584ffb9a5cc5bce10032c620b1385c0768c39bd81b275e7c10f6b421fa14760405160405180910390a350565b611345611c22565b6001600160a01b0316611356610fa9565b6001600160a01b03161461139f576040805162461bcd60e51b81526020600482018190526024820152600080516020613164833981519152604482015290519081900360640190fd5b6001600160a01b0382166113c55760405162461bcd60e51b815260040161080a90612eaa565b6001600160a01b0382163014156113ee5760405162461bcd60e51b815260040161080a90612efb565b6001600160801b0381166114145760405162461bcd60e51b815260040161080a90612dc9565b6001600160a01b0382166000908152606a6020526040902080546001600160801b0316611492576066546001600160a01b03166000908152606a602052604090208054611472906108da906001600160801b03908116908616611fe9565b81546001600160801b0319166001600160801b03919091161790556114cb565b80546114af906108da906001600160801b03908116908516611fe9565b81546001600160801b0319166001600160801b03919091161781555b80546114ef906108da90600160801b90046001600160801b03908116908516611fe9565b81546001600160801b03918216600160801b02911617815561151260688461209c565b50826001600160a01b0316611525611c22565b6001600160a01b03167fb0526516c002a40f095ce404988798881dbee27cd25699cd9decde3702993da78460405161155d9190612fed565b60405180910390a3505050565b611572611c22565b6001600160a01b0316611583610fa9565b6001600160a01b0316146115cc576040805162461bcd60e51b81526020600482018190526024820152600080516020613164833981519152604482015290519081900360640190fd5b60006115d6611c22565b6020830151606580546001600160a01b0319166001600160a01b0392831690811790915560405192935091908316907f7d7a6e0febb00fa099988e85a4dcf58c7297875e1bd06fe1e764c71619ee3a2090600090a3815161163690610782565b604082810151609880546001600160a01b0319166001600160a01b039283169081179091559151908316907fbb9584ffb9a5cc5bce10032c620b1385c0768c39bd81b275e7c10f6b421fa14790600090a36060820151609980546001600160a01b0319166001600160a01b0392831690811790915560405190918316907fdbf8baa510d0cc960f9bd90d5ef0c247e25196790bd4e15b4bbe0e095d0de3a890600090a36080820151609a80546001600160a01b0319166001600160a01b0392831690811790915560405190918316907f8539add575762117a99618f95a6bba75a43ab0a1709316da144c41dad05187e390600090a360a0820151609b80546001600160a01b0319166001600160a01b0392831690811790915560405190918316907f235269a97f3db7c81a489bee1ec395b6bdaff5031bd449e6dc8b4ad63c9c40ad90600090a36105188260c00151610dcb565b6065546001600160a01b031690565b6117a1611c22565b6001600160a01b03166117b2610fa9565b6001600160a01b0316146117fb576040805162461bcd60e51b81526020600482018190526024820152600080516020613164833981519152604482015290519081900360640190fd5b606580546001600160a01b0319166001600160a01b038316908117909155611821611c22565b6001600160a01b03167f7d7a6e0febb00fa099988e85a4dcf58c7297875e1bd06fe1e764c71619ee3a2060405160405180910390a350565b611861611c22565b6001600160a01b0316611872610fa9565b6001600160a01b0316146118bb576040805162461bcd60e51b81526020600482018190526024820152600080516020613164833981519152604482015290519081900360640190fd5b6001600160801b0381166118e15760405162461bcd60e51b815260040161080a90612e61565b6001600160a01b0382166000908152606a6020526040902080546001600160801b031661195f576066546001600160a01b03166000908152606a60205260409020805461193f906108da906001600160801b039081169086166120b1565b81546001600160801b0319166001600160801b0391909116179055611998565b805461197c906108da906001600160801b039081169085166120b1565b81546001600160801b0319166001600160801b03919091161781555b80546119bc906108da90600160801b90046001600160801b039081169085166120b1565b81546001600160801b03908116600160801b92821683021780845591909104166119ed576119eb606884612087565b505b826001600160a01b03166119ff611c22565b6001600160a01b03167f5fb77bf2c7b86e2345c2fc7c204ec8d8c378d00526c58afbb2a61d3350b2df5c8460405161155d9190612fed565b609a546001600160a01b031690565b611a4e611c22565b6001600160a01b0316611a5f610fa9565b6001600160a01b031614611aa8576040805162461bcd60e51b81526020600482018190526024820152600080516020613164833981519152604482015290519081900360640190fd5b6001600160a01b038116611aed5760405162461bcd60e51b81526004018080602001828103825260268152602001806130a26026913960400191505060405180910390fd5b6033546040516001600160a01b038084169216907f8be0079c531659141344cd1fd0a4f28419497f9722a3daafe3b4186f6b6457e090600090a3603380546001600160a01b0319166001600160a01b0392909216919091179055565b611b51611c22565b6001600160a01b0316611b62610fa9565b6001600160a01b031614611bab576040805162461bcd60e51b81526020600482018190526024820152600080516020613164833981519152604482015290519081900360640190fd5b609980546001600160a01b0319166001600160a01b038316908117909155611bd1611c22565b6001600160a01b03167fdbf8baa510d0cc960f9bd90d5ef0c247e25196790bd4e15b4bbe0e095d0de3a860405160405180910390a350565b6098546001600160a01b031690565b803b15155b919050565b3390565b6066546001600160a01b0382811691161415611c4157610647565b6001600160a01b0381166000908152606a6020526040902080546001600160801b0316611c6e5750610647565b6066546001600160a01b03166000908152606a6020526040902081546001600160801b0319168083558154611cba916108da916001600160801b0390811691600160801b900416611fe9565b81546001600160801b0319166001600160801b03919091161781556001600160a01b038316611ce7611c22565b6001600160a01b03167f3fbaeb975b6f6e0cc02bfd572112307889d79b6d7154796814aff3e145df5dde60405160405180910390a3505050565b6001600160a01b0381166000908152606a602052604090208054600160801b90046001600160801b03161580611d60575080546001600160801b031615155b15611d6b5750610647565b6066546001600160a01b03166000908152606a6020526040902081546001600160801b031981166001600160801b03600160801b928390048116919091178085558354611dc1936108da939182169204166120b1565b81546001600160801b0319166001600160801b03919091161781556001600160a01b038316611dee611c22565b6001600160a01b03167f40b03d881bb709e31f47030e8d2981dfe8ba639a47b9d36367953e8e754a086060405160405180910390a3505050565b6000611e3330611c18565b15905090565b600054610100900460ff1680611e525750611e52611e28565b80611e60575060005460ff16155b611e9b5760405162461bcd60e51b815260040180806020018281038252602e815260200180613115602e913960400191505060405180910390fd5b600054610100900460ff16158015611ec6576000805460ff1961ff0019909116610100171660011790555b8015610647576000805461ff001916905550565b600054610100900460ff1680611ef35750611ef3611e28565b80611f01575060005460ff16155b611f3c5760405162461bcd60e51b815260040180806020018281038252602e815260200180613115602e913960400191505060405180910390fd5b600054610100900460ff16158015611f67576000805460ff1961ff0019909116610100171660011790555b603380546001600160a01b0319166001600160a01b0384169081179091556040516000907f8be0079c531659141344cd1fd0a4f28419497f9722a3daafe3b4186f6b6457e0908290a38015610518576000805461ff00191690555050565b6000611fd082612457565b92915050565b6000611fe2838361245b565b9392505050565b600082820183811015611fe2576040805162461bcd60e51b815260206004820152601b60248201527f536166654d6174683a206164646974696f6e206f766572666c6f770000000000604482015290519081900360640190fd5b6000600160801b82106106a55760405162461bcd60e51b81526004018080602001828103825260278152602001806130c86027913960400191505060405180910390fd5b6000611fe2836001600160a01b0384166124bf565b6000611fe2836001600160a01b038416612585565b600082821115612108576040805162461bcd60e51b815260206004820152601e60248201527f536166654d6174683a207375627472616374696f6e206f766572666c6f770000604482015290519081900360640190fd5b50900390565b6000612118611c09565b9050806001600160a01b031663bfb0efab6040518163ffffffff1660e01b815260040160206040518083038186803b15801561215357600080fd5b505afa158015612167573d6000803e3d6000fd5b505050506040513d601f19601f8201168201806040525081019061218b9190612b6c565b1561064757806001600160a01b0316633ad661276040518163ffffffff1660e01b8152600401600060405180830381600087803b1580156121cb57600080fd5b505af11580156121df573d6000803e3d6000fd5b5050505050565b6121ee610459565b6001600160a01b0316633ad661276040518163ffffffff1660e01b8152600401600060405180830381600087803b15801561222857600080fd5b505af115801561223c573d6000803e3d6000fd5b50505050565b6065546040516370a0823160e01b81526000916001600160a01b0316906370a0823190612273903090600401612d0c565b60206040518083038186803b15801561228b57600080fd5b505afa15801561229f573d6000803e3d6000fd5b505050506040513d601f19601f82011682018060405250810190610d0a9190612cf4565b604080516001600160a01b038416602482015260448082018490528251808303909101815260649091019091526020810180516001600160e01b031663a9059cbb60e01b179052610cb19084906125cf565b60006123ab82856001600160a01b031663dd62ed3e30876040518363ffffffff1660e01b815260040180836001600160a01b03168152602001826001600160a01b031681526020019250505060206040518083038186803b15801561237957600080fd5b505afa15801561238d573d6000803e3d6000fd5b505050506040513d60208110156123a357600080fd5b505190611fe9565b604080516001600160a01b038616602482015260448082018490528251808303909101815260649091019091526020810180516001600160e01b031663095ea7b360e01b17905290915061223c9085906125cf565b6001600160a01b0383166000908152606a60205260408120805490919061243d9085906124379086906001600160801b0316612680565b906126d9565b6065549091506121df906001600160a01b031686836122c3565b5490565b8154600090821061249d5760405162461bcd60e51b81526004018080602001828103825260228152602001806130806022913960400191505060405180910390fd5b8260000182815481106124ac57fe5b9060005260206000200154905092915050565b6000818152600183016020526040812054801561257b57835460001980830191908101906000908790839081106124f257fe5b906000526020600020015490508087600001848154811061250f57fe5b60009182526020808320909101929092558281526001898101909252604090209084019055865487908061253f57fe5b60019003818190600052602060002001600090559055866001016000878152602001908152602001600020600090556001945050505050611fd0565b6000915050611fd0565b60006125918383612740565b6125c757508154600181810184556000848152602080822090930184905584548482528286019093526040902091909155611fd0565b506000611fd0565b6000612624826040518060400160405280602081526020017f5361666545524332303a206c6f772d6c6576656c2063616c6c206661696c6564815250856001600160a01b03166127589092919063ffffffff16565b805190915015610cb15780806020019051602081101561264357600080fd5b5051610cb15760405162461bcd60e51b815260040180806020018281038252602a815260200180613184602a913960400191505060405180910390fd5b60008261268f57506000611fd0565b8282028284828161269c57fe5b0414611fe25760405162461bcd60e51b81526004018080602001828103825260218152602001806131436021913960400191505060405180910390fd5b600080821161272f576040805162461bcd60e51b815260206004820152601a60248201527f536166654d6174683a206469766973696f6e206279207a65726f000000000000604482015290519081900360640190fd5b81838161273857fe5b049392505050565b60009081526001919091016020526040902054151590565b6060612767848460008561276f565b949350505050565b6060824710156127b05760405162461bcd60e51b81526004018080602001828103825260268152602001806130ef6026913960400191505060405180910390fd5b6127b985611c18565b61280a576040805162461bcd60e51b815260206004820152601d60248201527f416464726573733a2063616c6c20746f206e6f6e2d636f6e7472616374000000604482015290519081900360640190fd5b600080866001600160a01b031685876040518082805190602001908083835b602083106128485780518252601f199092019160209182019101612829565b6001836020036101000a03801982511681845116808217855250505050505090500191505060006040518083038185875af1925050503d80600081146128aa576040519150601f19603f3d011682016040523d82523d6000602084013e6128af565b606091505b50915091506128bf8282866128ca565b979650505050505050565b606083156128d9575081611fe2565b8251156128e95782518084602001fd5b8160405162461bcd60e51b81526004018080602001828103825283818151815260200191508051906020019080838360005b8381101561293357818101518382015260200161291b565b50505050905090810190601f1680156129605780820380516001836020036101000a031916815260200191505b509250505060405180910390fd5b80356001600160a01b0381168114611c1d57600080fd5b600082601f830112612995578081fd5b8135602067ffffffffffffffff808311156129ac57fe5b6129b9828385020161304d565b838152828101908684016060808702890186018a10156129d7578788fd5b875b87811015612a465781838c0312156129ef578889fd5b604080518381018181108982111715612a0457fe5b8252612a0f8561296e565b8152612a1c898601612a55565b8982015281850135612a2d81613071565b91810191909152855293860193918101916001016129d9565b50919998505050505050505050565b80356001600160801b0381168114611c1d57600080fd5b600060208284031215612a7d578081fd5b611fe28261296e565b600080600060608486031215612a9a578182fd5b612aa38461296e565b9250612ab16020850161296e565b9150604084013590509250925092565b60008060408385031215612ad3578182fd5b612adc8361296e565b9150612aea60208401612a55565b90509250929050565b600080600060608486031215612b07578283fd5b612b108461296e565b9250612b1e60208501612a55565b91506040840135612b2e81613071565b809150509250925092565b600060208284031215612b4a578081fd5b813567ffffffffffffffff811115612b60578182fd5b61276784828501612985565b600060208284031215612b7d578081fd5b8151611fe281613071565b600060208284031215612b99578081fd5b813567ffffffffffffffff80821115612bb0578283fd5b9083019060e08286031215612bc3578283fd5b612bcd60e061304d565b612bd68361296e565b8152612be46020840161296e565b6020820152612bf56040840161296e565b6040820152612c066060840161296e565b6060820152612c176080840161296e565b6080820152612c2860a0840161296e565b60a082015260c083013582811115612c3e578485fd5b612c4a87828601612985565b60c08301525095945050505050565b600060208284031215612c6a578081fd5b813567ffffffffffffffff80821115612c81578283fd5b9083019060608286031215612c94578283fd5b604051606081018181108382111715612ca957fe5b604052612cb58361296e565b8152612cc36020840161296e565b6020820152604083013582811115612cd9578485fd5b612ce587828601612985565b60408301525095945050505050565b600060208284031215612d05578081fd5b5051919050565b6001600160a01b0391909116815260200190565b6020808252603b908201527f526577617264734d616e616765723a2063616e6e6f742073657420736861726560408201527f7320666f72207468697320636f6e747261637420616464726573730000000000606082015260800190565b6020808252602c908201527f526577617264734d616e616765723a2063616e6e6f74207265636f766572207260408201526b32bbb0b93239903a37b5b2b760a11b606082015260800190565b60208082526026908201527f526577617264734d616e616765723a2063616e6e6f7420616464207a65726f2060408201526573686172657360d01b606082015260800190565b60208082526032908201527f526577617264734d616e616765723a2063616e6e6f74207365742073686172656040820152717320666f72207a65726f206164647265737360701b606082015260800190565b60208082526029908201527f526577617264734d616e616765723a2063616e6e6f742072656d6f7665207a65604082015268726f2073686172657360b81b606082015260800190565b60208082526031908201527f526577617264734d616e616765723a2063616e6e6f74206164642073686172656040820152707320746f207a65726f206164647265737360781b606082015260800190565b6020808252603a908201527f526577617264734d616e616765723a2063616e6e6f742061646420736861726560408201527f7320746f207468697320636f6e74726163742061646472657373000000000000606082015260800190565b6020808252602b908201527f526577617264734d616e616765723a2063616e6e6f742073657420746f20746860408201526a1a5cc818dbdb9d1c9858dd60aa1b606082015260800190565b6020808252602a908201527f526577617264734d616e616765723a2063616e6e6f742073657420746f207a65604082015269726f206164647265737360b01b606082015260800190565b6001600160801b0391909116815260200190565b6001600160801b039290921682521515602082015260400190565b6001600160801b0392831681529116602082015260400190565b90815260200190565b918252602082015260400190565b60405181810167ffffffffffffffff8111828210171561306957fe5b604052919050565b801515811461064757600080fdfe456e756d657261626c655365743a20696e646578206f7574206f6620626f756e64734f776e61626c653a206e6577206f776e657220697320746865207a65726f206164647265737353616665436173743a2076616c756520646f65736e27742066697420696e203132382062697473416464726573733a20696e73756666696369656e742062616c616e636520666f722063616c6c496e697469616c697a61626c653a20636f6e747261637420697320616c726561647920696e697469616c697a6564536166654d6174683a206d756c7469706c69636174696f6e206f766572666c6f774f776e61626c653a2063616c6c6572206973206e6f7420746865206f776e65725361666545524332303a204552433230206f7065726174696f6e20646964206e6f742073756363656564a2646970667358221220251b567ab21383c3bae9b59881a960836f617148a7fecb50f93226ded5917dde64736f6c63430007060033496e697469616c697a61626c653a20636f6e747261637420697320616c726561647920696e697469616c697a6564",
  "devdoc": {
    "kind": "dev",
    "methods": {
      "owner()": {
        "details": "Returns the address of the current owner."
      },
      "renounceOwnership()": {
        "details": "Leaves the contract without owner. It will not be possible to call `onlyOwner` functions anymore. Can only be called by the current owner. NOTE: Renouncing ownership will leave the contract without an owner, thereby removing any functionality that is only available to the owner."
      },
      "transferOwnership(address)": {
        "details": "Transfers ownership of the contract to a new account (`newOwner`). Can only be called by the current owner."
      }
    },
    "version": 1
  },
  "userdoc": {
    "kind": "user",
    "methods": {},
    "version": 1
  },
  "storageLayout": {
    "storage": [
      {
        "astId": 6,
        "contract": "contracts/rewards/ETHtxRewardsManager/ETHtxRewardsManager.sol:ETHtxRewardsManager",
        "label": "_initialized",
        "offset": 0,
        "slot": "0",
        "type": "t_bool"
      },
      {
        "astId": 9,
        "contract": "contracts/rewards/ETHtxRewardsManager/ETHtxRewardsManager.sol:ETHtxRewardsManager",
        "label": "_initializing",
        "offset": 1,
        "slot": "0",
        "type": "t_bool"
      },
      {
        "astId": 353,
        "contract": "contracts/rewards/ETHtxRewardsManager/ETHtxRewardsManager.sol:ETHtxRewardsManager",
        "label": "__gap",
        "offset": 0,
        "slot": "1",
        "type": "t_array(t_uint256)50_storage"
      },
      {
        "astId": 3458,
        "contract": "contracts/rewards/ETHtxRewardsManager/ETHtxRewardsManager.sol:ETHtxRewardsManager",
        "label": "_owner",
        "offset": 0,
        "slot": "51",
        "type": "t_address"
      },
      {
        "astId": 3577,
        "contract": "contracts/rewards/ETHtxRewardsManager/ETHtxRewardsManager.sol:ETHtxRewardsManager",
        "label": "__gap",
        "offset": 0,
        "slot": "52",
        "type": "t_array(t_uint256)49_storage"
      },
      {
        "astId": 16617,
        "contract": "contracts/rewards/ETHtxRewardsManager/ETHtxRewardsManager.sol:ETHtxRewardsManager",
        "label": "_rewardsToken",
        "offset": 0,
        "slot": "101",
        "type": "t_address"
      },
      {
        "astId": 16619,
        "contract": "contracts/rewards/ETHtxRewardsManager/ETHtxRewardsManager.sol:ETHtxRewardsManager",
        "label": "_defaultRecipient",
        "offset": 0,
        "slot": "102",
        "type": "t_address"
      },
      {
        "astId": 16621,
        "contract": "contracts/rewards/ETHtxRewardsManager/ETHtxRewardsManager.sol:ETHtxRewardsManager",
        "label": "_totalRewardsRedeemed",
        "offset": 0,
        "slot": "103",
        "type": "t_uint256"
      },
      {
        "astId": 16623,
        "contract": "contracts/rewards/ETHtxRewardsManager/ETHtxRewardsManager.sol:ETHtxRewardsManager",
        "label": "_recipients",
        "offset": 0,
        "slot": "104",
        "type": "t_struct(AddressSet)2680_storage"
      },
      {
        "astId": 16627,
        "contract": "contracts/rewards/ETHtxRewardsManager/ETHtxRewardsManager.sol:ETHtxRewardsManager",
        "label": "_shares",
        "offset": 0,
        "slot": "106",
        "type": "t_mapping(t_address,t_struct(Shares)16615_storage)"
      },
      {
        "astId": 16631,
        "contract": "contracts/rewards/ETHtxRewardsManager/ETHtxRewardsManager.sol:ETHtxRewardsManager",
        "label": "__gap",
        "offset": 0,
        "slot": "107",
        "type": "t_array(t_uint256)45_storage"
      },
      {
        "astId": 9410,
        "contract": "contracts/rewards/ETHtxRewardsManager/ETHtxRewardsManager.sol:ETHtxRewardsManager",
        "label": "_ethmxRewards",
        "offset": 0,
        "slot": "152",
        "type": "t_address"
      },
      {
        "astId": 9412,
        "contract": "contracts/rewards/ETHtxRewardsManager/ETHtxRewardsManager.sol:ETHtxRewardsManager",
        "label": "_ethtx",
        "offset": 0,
        "slot": "153",
        "type": "t_address"
      },
      {
        "astId": 9414,
        "contract": "contracts/rewards/ETHtxRewardsManager/ETHtxRewardsManager.sol:ETHtxRewardsManager",
        "label": "_ethtxAMM",
        "offset": 0,
        "slot": "154",
        "type": "t_address"
      },
      {
        "astId": 9416,
        "contract": "contracts/rewards/ETHtxRewardsManager/ETHtxRewardsManager.sol:ETHtxRewardsManager",
        "label": "_lpRewards",
        "offset": 0,
        "slot": "155",
        "type": "t_address"
      },
      {
        "astId": 9420,
        "contract": "contracts/rewards/ETHtxRewardsManager/ETHtxRewardsManager.sol:ETHtxRewardsManager",
        "label": "__gap",
        "offset": 0,
        "slot": "156",
        "type": "t_array(t_uint256)46_storage"
      }
    ],
    "types": {
      "t_address": {
        "encoding": "inplace",
        "label": "address",
        "numberOfBytes": "20"
      },
      "t_array(t_bytes32)dyn_storage": {
        "base": "t_bytes32",
        "encoding": "dynamic_array",
        "label": "bytes32[]",
        "numberOfBytes": "32"
      },
      "t_array(t_uint256)45_storage": {
        "base": "t_uint256",
        "encoding": "inplace",
        "label": "uint256[45]",
        "numberOfBytes": "1440"
      },
      "t_array(t_uint256)46_storage": {
        "base": "t_uint256",
        "encoding": "inplace",
        "label": "uint256[46]",
        "numberOfBytes": "1472"
      },
      "t_array(t_uint256)49_storage": {
        "base": "t_uint256",
        "encoding": "inplace",
        "label": "uint256[49]",
        "numberOfBytes": "1568"
      },
      "t_array(t_uint256)50_storage": {
        "base": "t_uint256",
        "encoding": "inplace",
        "label": "uint256[50]",
        "numberOfBytes": "1600"
      },
      "t_bool": {
        "encoding": "inplace",
        "label": "bool",
        "numberOfBytes": "1"
      },
      "t_bytes32": {
        "encoding": "inplace",
        "label": "bytes32",
        "numberOfBytes": "32"
      },
      "t_mapping(t_address,t_struct(Shares)16615_storage)": {
        "encoding": "mapping",
        "key": "t_address",
        "label": "mapping(address => struct RewardsManagerData.Shares)",
        "numberOfBytes": "32",
        "value": "t_struct(Shares)16615_storage"
      },
      "t_mapping(t_bytes32,t_uint256)": {
        "encoding": "mapping",
        "key": "t_bytes32",
        "label": "mapping(bytes32 => uint256)",
        "numberOfBytes": "32",
        "value": "t_uint256"
      },
      "t_struct(AddressSet)2680_storage": {
        "encoding": "inplace",
        "label": "struct EnumerableSet.AddressSet",
        "members": [
          {
            "astId": 2679,
            "contract": "contracts/rewards/ETHtxRewardsManager/ETHtxRewardsManager.sol:ETHtxRewardsManager",
            "label": "_inner",
            "offset": 0,
            "slot": "0",
            "type": "t_struct(Set)2415_storage"
          }
        ],
        "numberOfBytes": "64"
      },
      "t_struct(Set)2415_storage": {
        "encoding": "inplace",
        "label": "struct EnumerableSet.Set",
        "members": [
          {
            "astId": 2410,
            "contract": "contracts/rewards/ETHtxRewardsManager/ETHtxRewardsManager.sol:ETHtxRewardsManager",
            "label": "_values",
            "offset": 0,
            "slot": "0",
            "type": "t_array(t_bytes32)dyn_storage"
          },
          {
            "astId": 2414,
            "contract": "contracts/rewards/ETHtxRewardsManager/ETHtxRewardsManager.sol:ETHtxRewardsManager",
            "label": "_indexes",
            "offset": 0,
            "slot": "1",
            "type": "t_mapping(t_bytes32,t_uint256)"
          }
        ],
        "numberOfBytes": "64"
      },
      "t_struct(Shares)16615_storage": {
        "encoding": "inplace",
        "label": "struct RewardsManagerData.Shares",
        "members": [
          {
            "astId": 16612,
            "contract": "contracts/rewards/ETHtxRewardsManager/ETHtxRewardsManager.sol:ETHtxRewardsManager",
            "label": "active",
            "offset": 0,
            "slot": "0",
            "type": "t_uint128"
          },
          {
            "astId": 16614,
            "contract": "contracts/rewards/ETHtxRewardsManager/ETHtxRewardsManager.sol:ETHtxRewardsManager",
            "label": "total",
            "offset": 16,
            "slot": "0",
            "type": "t_uint128"
          }
        ],
        "numberOfBytes": "32"
      },
      "t_uint128": {
        "encoding": "inplace",
        "label": "uint128",
        "numberOfBytes": "16"
      },
      "t_uint256": {
        "encoding": "inplace",
        "label": "uint256",
        "numberOfBytes": "32"
      }
    }
  }
}