{
  "address": "0x9f2951FDBf5221079Bc510b5dae89050c8bCb455",
  "abi": [
    {
      "inputs": [
        {
          "internalType": "address",
          "name": "owner_",
          "type": "address"
        },
        {
          "internalType": "address",
          "name": "defaultRecipient_",
          "type": "address"
        },
        {
          "internalType": "address",
          "name": "rewardsToken_",
          "type": "address"
        },
        {
          "internalType": "address",
          "name": "ethmxRewards_",
          "type": "address"
        },
        {
          "internalType": "address",
          "name": "ethtx_",
          "type": "address"
        },
        {
          "internalType": "address",
          "name": "ethtxAMM_",
          "type": "address"
        },
        {
          "internalType": "address",
          "name": "lpRewards_",
          "type": "address"
        }
      ],
      "stateMutability": "nonpayable",
      "type": "constructor"
    },
    {
      "anonymous": false,
      "inputs": [
        {
          "indexed": true,
          "internalType": "address",
          "name": "author",
          "type": "address"
        },
        {
          "indexed": true,
          "internalType": "address",
          "name": "account",
          "type": "address"
        }
      ],
      "name": "DefaultRecipientSet",
      "type": "event"
    },
    {
      "anonymous": false,
      "inputs": [
        {
          "indexed": true,
          "internalType": "address",
          "name": "author",
          "type": "address"
        },
        {
          "indexed": true,
          "internalType": "address",
          "name": "addr",
          "type": "address"
        }
      ],
      "name": "EthmxRewardsAddressSet",
      "type": "event"
    },
    {
      "anonymous": false,
      "inputs": [
        {
          "indexed": true,
          "internalType": "address",
          "name": "author",
          "type": "address"
        },
        {
          "indexed": true,
          "internalType": "address",
          "name": "addr",
          "type": "address"
        }
      ],
      "name": "EthtxAMMAddressSet",
      "type": "event"
    },
    {
      "anonymous": false,
      "inputs": [
        {
          "indexed": true,
          "internalType": "address",
          "name": "author",
          "type": "address"
        },
        {
          "indexed": true,
          "internalType": "address",
          "name": "addr",
          "type": "address"
        }
      ],
      "name": "EthtxAddressSet",
      "type": "event"
    },
    {
      "anonymous": false,
      "inputs": [
        {
          "indexed": true,
          "internalType": "address",
          "name": "author",
          "type": "address"
        },
        {
          "indexed": true,
          "internalType": "address",
          "name": "addr",
          "type": "address"
        }
      ],
      "name": "LPRewardsAddressSet",
      "type": "event"
    },
    {
      "anonymous": false,
      "inputs": [
        {
          "indexed": true,
          "internalType": "address",
          "name": "previousOwner",
          "type": "address"
        },
        {
          "indexed": true,
          "internalType": "address",
          "name": "newOwner",
          "type": "address"
        }
      ],
      "name": "OwnershipTransferred",
      "type": "event"
    },
    {
      "anonymous": false,
      "inputs": [
        {
          "indexed": true,
          "internalType": "address",
          "name": "author",
          "type": "address"
        },
        {
          "indexed": true,
          "internalType": "address",
          "name": "token",
          "type": "address"
        },
        {
          "indexed": true,
          "internalType": "address",
          "name": "to",
          "type": "address"
        },
        {
          "indexed": false,
          "internalType": "uint256",
          "name": "amount",
          "type": "uint256"
        }
      ],
      "name": "RecoveredUnsupported",
      "type": "event"
    },
    {
      "anonymous": false,
      "inputs": [
        {
          "indexed": true,
          "internalType": "address",
          "name": "author",
          "type": "address"
        },
        {
          "indexed": true,
          "internalType": "address",
          "name": "to",
          "type": "address"
        },
        {
          "indexed": false,
          "internalType": "uint256",
          "name": "amount",
          "type": "uint256"
        }
      ],
      "name": "RewardsSent",
      "type": "event"
    },
    {
      "anonymous": false,
      "inputs": [
        {
          "indexed": true,
          "internalType": "address",
          "name": "author",
          "type": "address"
        },
        {
          "indexed": true,
          "internalType": "address",
          "name": "token",
          "type": "address"
        }
      ],
      "name": "RewardsTokenSet",
      "type": "event"
    },
    {
      "anonymous": false,
      "inputs": [
        {
          "indexed": true,
          "internalType": "address",
          "name": "author",
          "type": "address"
        },
        {
          "indexed": true,
          "internalType": "address",
          "name": "account",
          "type": "address"
        }
      ],
      "name": "SharesActivated",
      "type": "event"
    },
    {
      "anonymous": false,
      "inputs": [
        {
          "indexed": true,
          "internalType": "address",
          "name": "author",
          "type": "address"
        },
        {
          "indexed": true,
          "internalType": "address",
          "name": "account",
          "type": "address"
        },
        {
          "indexed": false,
          "internalType": "uint128",
          "name": "amount",
          "type": "uint128"
        }
      ],
      "name": "SharesAdded",
      "type": "event"
    },
    {
      "anonymous": false,
      "inputs": [
        {
          "indexed": true,
          "internalType": "address",
          "name": "author",
          "type": "address"
        },
        {
          "indexed": true,
          "internalType": "address",
          "name": "account",
          "type": "address"
        }
      ],
      "name": "SharesDeactivated",
      "type": "event"
    },
    {
      "anonymous": false,
      "inputs": [
        {
          "indexed": true,
          "internalType": "address",
          "name": "author",
          "type": "address"
        },
        {
          "indexed": true,
          "internalType": "address",
          "name": "account",
          "type": "address"
        },
        {
          "indexed": false,
          "internalType": "uint128",
          "name": "amount",
          "type": "uint128"
        }
      ],
      "name": "SharesRemoved",
      "type": "event"
    },
    {
      "anonymous": false,
      "inputs": [
        {
          "indexed": true,
          "internalType": "address",
          "name": "author",
          "type": "address"
        },
        {
          "indexed": true,
          "internalType": "address",
          "name": "account",
          "type": "address"
        },
        {
          "indexed": false,
          "internalType": "uint128",
          "name": "value",
          "type": "uint128"
        },
        {
          "indexed": false,
          "internalType": "bool",
          "name": "isActive",
          "type": "bool"
        }
      ],
      "name": "SharesSet",
      "type": "event"
    },
    {
      "inputs": [],
      "name": "activateShares",
      "outputs": [],
      "stateMutability": "nonpayable",
      "type": "function"
    },
    {
      "inputs": [
        {
          "internalType": "address",
          "name": "account",
          "type": "address"
        }
      ],
      "name": "activateSharesFor",
      "outputs": [],
      "stateMutability": "nonpayable",
      "type": "function"
    },
    {
      "inputs": [
        {
          "internalType": "address",
          "name": "account",
          "type": "address"
        },
        {
          "internalType": "uint128",
          "name": "amount",
          "type": "uint128"
        }
      ],
      "name": "addShares",
      "outputs": [],
      "stateMutability": "nonpayable",
      "type": "function"
    },
    {
      "inputs": [],
      "name": "convertETHtx",
      "outputs": [],
      "stateMutability": "nonpayable",
      "type": "function"
    },
    {
      "inputs": [],
      "name": "deactivateShares",
      "outputs": [],
      "stateMutability": "nonpayable",
      "type": "function"
    },
    {
      "inputs": [
        {
          "internalType": "address",
          "name": "account",
          "type": "address"
        }
      ],
      "name": "deactivateSharesFor",
      "outputs": [],
      "stateMutability": "nonpayable",
      "type": "function"
    },
    {
      "inputs": [],
      "name": "defaultRecipient",
      "outputs": [
        {
          "internalType": "address",
          "name": "",
          "type": "address"
        }
      ],
      "stateMutability": "view",
      "type": "function"
    },
    {
      "inputs": [],
      "name": "distributeRewards",
      "outputs": [
        {
          "internalType": "uint256",
          "name": "",
          "type": "uint256"
        }
      ],
      "stateMutability": "nonpayable",
      "type": "function"
    },
    {
      "inputs": [],
      "name": "ethmxRewards",
      "outputs": [
        {
          "internalType": "address",
          "name": "",
          "type": "address"
        }
      ],
      "stateMutability": "view",
      "type": "function"
    },
    {
      "inputs": [],
      "name": "ethtx",
      "outputs": [
        {
          "internalType": "address",
          "name": "",
          "type": "address"
        }
      ],
      "stateMutability": "view",
      "type": "function"
    },
    {
      "inputs": [],
      "name": "ethtxAMM",
      "outputs": [
        {
          "internalType": "address",
          "name": "",
          "type": "address"
        }
      ],
      "stateMutability": "view",
      "type": "function"
    },
    {
      "inputs": [],
      "name": "lpRewards",
      "outputs": [
        {
          "internalType": "address",
          "name": "",
          "type": "address"
        }
      ],
      "stateMutability": "view",
      "type": "function"
    },
    {
      "inputs": [],
      "name": "notifyRecipients",
      "outputs": [],
      "stateMutability": "nonpayable",
      "type": "function"
    },
    {
      "inputs": [],
      "name": "owner",
      "outputs": [
        {
          "internalType": "address",
          "name": "",
          "type": "address"
        }
      ],
      "stateMutability": "view",
      "type": "function"
    },
    {
      "inputs": [
        {
          "internalType": "address",
          "name": "token",
          "type": "address"
        },
        {
          "internalType": "address",
          "name": "to",
          "type": "address"
        },
        {
          "internalType": "uint256",
          "name": "amount",
          "type": "uint256"
        }
      ],
      "name": "recoverUnsupportedERC20",
      "outputs": [],
      "stateMutability": "nonpayable",
      "type": "function"
    },
    {
      "inputs": [
        {
          "internalType": "address",
          "name": "account",
          "type": "address"
        },
        {
          "internalType": "uint128",
          "name": "amount",
          "type": "uint128"
        }
      ],
      "name": "removeShares",
      "outputs": [],
      "stateMutability": "nonpayable",
      "type": "function"
    },
    {
      "inputs": [],
      "name": "renounceOwnership",
      "outputs": [],
      "stateMutability": "nonpayable",
      "type": "function"
    },
    {
      "inputs": [],
      "name": "rewardsToken",
      "outputs": [
        {
          "internalType": "address",
          "name": "",
          "type": "address"
        }
      ],
      "stateMutability": "view",
      "type": "function"
    },
    {
      "inputs": [],
      "name": "sendRewards",
      "outputs": [
        {
          "internalType": "uint256",
          "name": "",
          "type": "uint256"
        }
      ],
      "stateMutability": "nonpayable",
      "type": "function"
    },
    {
      "inputs": [
        {
          "internalType": "address",
          "name": "account",
          "type": "address"
        }
      ],
      "name": "setDefaultRecipient",
      "outputs": [],
      "stateMutability": "nonpayable",
      "type": "function"
    },
    {
      "inputs": [
        {
          "internalType": "address",
          "name": "addr",
          "type": "address"
        }
      ],
      "name": "setEthmxRewardsAddress",
      "outputs": [],
      "stateMutability": "nonpayable",
      "type": "function"
    },
    {
      "inputs": [
        {
          "internalType": "address",
          "name": "addr",
          "type": "address"
        }
      ],
      "name": "setEthtxAMMAddress",
      "outputs": [],
      "stateMutability": "nonpayable",
      "type": "function"
    },
    {
      "inputs": [
        {
          "internalType": "address",
          "name": "addr",
          "type": "address"
        }
      ],
      "name": "setEthtxAddress",
      "outputs": [],
      "stateMutability": "nonpayable",
      "type": "function"
    },
    {
      "inputs": [
        {
          "internalType": "address",
          "name": "addr",
          "type": "address"
        }
      ],
      "name": "setLPRewardsAddress",
      "outputs": [],
      "stateMutability": "nonpayable",
      "type": "function"
    },
    {
      "inputs": [
        {
          "internalType": "address",
          "name": "token",
          "type": "address"
        }
      ],
      "name": "setRewardsToken",
      "outputs": [],
      "stateMutability": "nonpayable",
      "type": "function"
    },
    {
      "inputs": [
        {
          "internalType": "address",
          "name": "account",
          "type": "address"
        },
        {
          "internalType": "uint128",
          "name": "value",
          "type": "uint128"
        },
        {
          "internalType": "bool",
          "name": "isActive",
          "type": "bool"
        }
      ],
      "name": "setShares",
      "outputs": [],
      "stateMutability": "nonpayable",
      "type": "function"
    },
    {
      "inputs": [
        {
          "internalType": "address",
          "name": "account",
          "type": "address"
        }
      ],
      "name": "sharesFor",
      "outputs": [
        {
          "internalType": "uint128",
          "name": "active",
          "type": "uint128"
        },
        {
          "internalType": "uint128",
          "name": "total",
          "type": "uint128"
        }
      ],
      "stateMutability": "view",
      "type": "function"
    },
    {
      "inputs": [],
      "name": "totalRewardsAccrued",
      "outputs": [
        {
          "internalType": "uint256",
          "name": "",
          "type": "uint256"
        }
      ],
      "stateMutability": "view",
      "type": "function"
    },
    {
      "inputs": [],
      "name": "totalRewardsRedeemed",
      "outputs": [
        {
          "internalType": "uint256",
          "name": "",
          "type": "uint256"
        }
      ],
      "stateMutability": "view",
      "type": "function"
    },
    {
      "inputs": [],
      "name": "totalShares",
      "outputs": [
        {
          "internalType": "uint256",
          "name": "total",
          "type": "uint256"
        }
      ],
      "stateMutability": "view",
      "type": "function"
    },
    {
      "inputs": [
        {
          "internalType": "address",
          "name": "newOwner",
          "type": "address"
        }
      ],
      "name": "transferOwnership",
      "outputs": [],
      "stateMutability": "nonpayable",
      "type": "function"
    }
  ],
  "transactionHash": "0xbe11196696b02419de004c640962e81043251209d671a44e3cf4f06aa3f968bc",
  "args": [
    "0x5757Dd711EaE80e181E07CdbCe43359Ac1048394",
    "0xe5c8964185cFe35aF66C3da5Acae8c87427e3Cf7",
    "0xc778417E063141139Fce010982780140Aa0cD5Ab",
    "0xe5c8964185cFe35aF66C3da5Acae8c87427e3Cf7",
    "0xDc456AC4e0C1D88f0f32b9B116BEBBd678D4b81D",
    "0xb18b8832E462D3d344DCb36c158584E3f8e28733",
    "0x2AAC6811f1aE77e026b734D6E56aD3ca3796885c"
  ],
  "solcInputHash": "5215b7c7bb7eaf379b141b0cd04d3a3c",
  "bytecode": "0x60806040523480156200001157600080fd5b50604051620035e0380380620035e0833981810160405260e08110156200003757600080fd5b508051602082015160408301516060840151608085015160a086015160c090960151949593949293919290919085856000620000726200012b565b600080546001600160a01b0319166001600160a01b0383169081178255604051929350916000805160206200356b833981519152908290a350620000b6816200012f565b620000c182620001eb565b50620000cf90508462000477565b620000da8362000533565b620000e582620005ef565b620000f081620006ab565b620000fa62000767565b6001600160a01b0316876001600160a01b0316146200011e576200011e8762000776565b5050505050505062000c79565b3390565b620001396200012b565b6000546001600160a01b039081169116146200018b576040805162461bcd60e51b815260206004820181905260248201526000805160206200354b833981519152604482015290519081900360640190fd5b600180546001600160a01b0319166001600160a01b038316908117909155620001b36200012b565b6001600160a01b03167f7d7a6e0febb00fa099988e85a4dcf58c7297875e1bd06fe1e764c71619ee3a2060405160405180910390a350565b620001f56200012b565b6000546001600160a01b0390811691161462000247576040805162461bcd60e51b815260206004820181905260248201526000805160206200354b833981519152604482015290519081900360640190fd5b6001600160a01b0381166200028e5760405162461bcd60e51b815260040180806020018281038252602a815260200180620035b6602a913960400191505060405180910390fd5b6001600160a01b038116301415620002d85760405162461bcd60e51b815260040180806020018281038252602b8152602001806200358b602b913960400191505060405180910390fd5b620002e38162000863565b6002546001600160a01b0316600090815260066020526040902080546001600160801b03600160801b8204811691161115620003b65780546001600160801b03600160801b820481168183169081039081900382166001600160801b03199093169290921783556001600160a01b038416600090815260066020908152604090912080549092620003999262000388928216918616906200197462000985821b17901c565b620009e960201b620019d71760201c565b81546001600160801b0319166001600160801b0391909116179055505b8054600160801b90046001600160801b0316620003f557600254620003f3906004906001600160a01b031662000a33602090811b62001a1b17901c565b505b600280546001600160a01b0319166001600160a01b0384161790556200042960048362000a4a602090811b62001a3017901c565b506001600160a01b0382166200043e6200012b565b6001600160a01b03167f825991f9f9f950375f4d3f04c94283f5f7ea10aa441c6d43cb0e4c7bdce517bf60405160405180910390a35050565b620004816200012b565b6000546001600160a01b03908116911614620004d3576040805162461bcd60e51b815260206004820181905260248201526000805160206200354b833981519152604482015290519081900360640190fd5b600780546001600160a01b0319166001600160a01b038316908117909155620004fb6200012b565b6001600160a01b03167f913d9a69e403f9beaf246057172211793b96d95f3469f37e35c9cbebada8d22860405160405180910390a350565b6200053d6200012b565b6000546001600160a01b039081169116146200058f576040805162461bcd60e51b815260206004820181905260248201526000805160206200354b833981519152604482015290519081900360640190fd5b600880546001600160a01b0319166001600160a01b038316908117909155620005b76200012b565b6001600160a01b03167ff9f4b296b0c32540acafb6c8937812d833013c92ebdc4c2ac0d9910132a1a26d60405160405180910390a350565b620005f96200012b565b6000546001600160a01b039081169116146200064b576040805162461bcd60e51b815260206004820181905260248201526000805160206200354b833981519152604482015290519081900360640190fd5b600980546001600160a01b0319166001600160a01b038316908117909155620006736200012b565b6001600160a01b03167f6b280d88a71e3350b4e6b92556f8413347439e6bca3e3d9b21e93182d033d08760405160405180910390a350565b620006b56200012b565b6000546001600160a01b0390811691161462000707576040805162461bcd60e51b815260206004820181905260248201526000805160206200354b833981519152604482015290519081900360640190fd5b600a80546001600160a01b0319166001600160a01b0383169081179091556200072f6200012b565b6001600160a01b03167fc5d389b63caae09f667aec538ad0d98aab524b8f6896cc6125f65898e92d134360405160405180910390a350565b6000546001600160a01b031690565b620007806200012b565b6000546001600160a01b03908116911614620007d2576040805162461bcd60e51b815260206004820181905260248201526000805160206200354b833981519152604482015290519081900360640190fd5b6001600160a01b038116620008195760405162461bcd60e51b8152600401808060200182810382526026815260200180620034fe6026913960400191505060405180910390fd5b600080546040516001600160a01b03808516939216916000805160206200356b83398151915291a3600080546001600160a01b0319166001600160a01b0392909216919091179055565b6001600160a01b03811660009081526006602052604090208054600160801b90046001600160801b03161580620008a3575080546001600160801b031615155b15620008b0575062000982565b6002546001600160a01b0316600090815260066020908152604090912082546001600160801b031981166001600160801b03600160801b92839004811691909117808655835493946200091b9462000388949084169392049091169062001a4562000a61821b17901c565b81546001600160801b0319166001600160801b03919091161781556001600160a01b0383166200094a6200012b565b6001600160a01b03167f40b03d881bb709e31f47030e8d2981dfe8ba639a47b9d36367953e8e754a086060405160405180910390a350505b50565b600082820183811015620009e0576040805162461bcd60e51b815260206004820152601b60248201527f536166654d6174683a206164646974696f6e206f766572666c6f770000000000604482015290519081900360640190fd5b90505b92915050565b6000600160801b821062000a2f5760405162461bcd60e51b8152600401808060200182810382526027815260200180620035246027913960400191505060405180910390fd5b5090565b6000620009e0836001600160a01b03841662000aab565b6000620009e0836001600160a01b03841662000b77565b6000620009e083836040518060400160405280601e81526020017f536166654d6174683a207375627472616374696f6e206f766572666c6f77000081525062000bc660201b60201c565b6000818152600183016020526040812054801562000b6c578354600019808301919081019060009087908390811062000ae057fe5b906000526020600020015490508087600001848154811062000afe57fe5b60009182526020808320909101929092558281526001898101909252604090209084019055865487908062000b2f57fe5b60019003818190600052602060002001600090559055866001016000878152602001908152602001600020600090556001945050505050620009e3565b6000915050620009e3565b600062000b85838362000c61565b62000bbd57508154600181810184556000848152602080822090930184905584548482528286019093526040902091909155620009e3565b506000620009e3565b6000818484111562000c595760405162461bcd60e51b81526004018080602001828103825283818151815260200191508051906020019080838360005b8381101562000c1d57818101518382015260200162000c03565b50505050905090810190601f16801562000c4b5780820380516001836020036101000a031916815260200191505b509250505060405180910390fd5b505050900390565b60009081526001919091016020526040902054151590565b6128758062000c896000396000f3fe608060405234801561001057600080fd5b50600436106101e55760003560e01c80638da5cb5b1161010f578063c301e595116100a2578063e0a9da6a11610071578063e0a9da6a146104bf578063f14744b1146104f4578063f2fde38b146104fc578063fd14431014610522576101e5565b8063c301e59514610445578063cbc602761461046b578063d1af0c7d14610491578063de320cc114610499576101e5565b806395a1297a116100de57806395a1297a146103da57806395cb1b1e146103e2578063b1ebd5d6146103ea578063b4f0afb61461041f576101e5565b80638da5cb5b1461039c5780638ed6f262146103a4578063902dd186146103ca57806391387b15146103d2576101e5565b80634f7a6c3c116101875780636fd1bc83116101565780636fd1bc831461034e578063715018a614610356578063860c19f31461035e57806386a86d4114610366576101e5565b80634f7a6c3c1461028e5780636c7a0068146102b45780636eb854c8146102f15780636f4a2cd014610346576101e5565b80630c762141116101c35780630c762141146102205780632d281553146102285780633a98ef391461024e5780634e84544d14610268576101e5565b806303e4397f146101ea57806304c2861b146101f45780630b5e8df9146101fc575b600080fd5b6101f261052a565b005b6101f261053c565b61020461054c565b604080516001600160a01b039092168252519081900360200190f35b61020461055c565b6101f26004803603602081101561023e57600080fd5b50356001600160a01b031661056b565b6102566105cf565b60408051918252519081900360200190f35b6101f26004803603602081101561027e57600080fd5b50356001600160a01b031661062e565b6101f2600480360360208110156102a457600080fd5b50356001600160a01b03166106e4565b6101f2600480360360608110156102ca57600080fd5b506001600160a01b03813516906001600160801b036020820135169060400135151561092b565b6103176004803603602081101561030757600080fd5b50356001600160a01b0316610c99565b60405180836001600160801b03168152602001826001600160801b031681526020019250505060405180910390f35b610256610cc9565b6101f2610cf2565b6101f2610d02565b610256610da4565b6101f26004803603606081101561037c57600080fd5b506001600160a01b03813581169160208101359091169060400135610db7565b610204610ed1565b6101f2600480360360208110156103ba57600080fd5b50356001600160a01b0316610ee0565b610204610f41565b6101f2610f50565b610256611077565b61025661107d565b6101f26004803603604081101561040057600080fd5b5080356001600160a01b031690602001356001600160801b03166110e5565b6101f26004803603602081101561043557600080fd5b50356001600160a01b031661136e565b6101f26004803603602081101561045b57600080fd5b50356001600160a01b0316611424565b6101f26004803603602081101561048157600080fd5b50356001600160a01b03166114da565b610204611590565b6101f2600480360360208110156104af57600080fd5b50356001600160a01b031661159f565b6101f2600480360360408110156104d557600080fd5b5080356001600160a01b031690602001356001600160801b0316611655565b61020461185e565b6101f26004803603602081101561051257600080fd5b50356001600160a01b031661186d565b610204611965565b61053a610535611a87565b611a8b565b565b61053a610547611a87565b611b86565b6002546001600160a01b03165b90565b600a546001600160a01b031690565b610573611a87565b6000546001600160a01b039081169116146105c3576040805162461bcd60e51b815260206004820181905260248201526000805160206127a1833981519152604482015290519081900360640190fd5b6105cc81611b86565b50565b6000805b6105dd6004611c8d565b81101561062a57600660006105f3600484611c98565b6001600160a01b03168152602081019190915260400160002054600160801b90046001600160801b031691909101906001016105d3565b5090565b610636611a87565b6000546001600160a01b03908116911614610686576040805162461bcd60e51b815260206004820181905260248201526000805160206127a1833981519152604482015290519081900360640190fd5b600780546001600160a01b0319166001600160a01b0383169081179091556106ac611a87565b6001600160a01b03167f913d9a69e403f9beaf246057172211793b96d95f3469f37e35c9cbebada8d22860405160405180910390a350565b6106ec611a87565b6000546001600160a01b0390811691161461073c576040805162461bcd60e51b815260206004820181905260248201526000805160206127a1833981519152604482015290519081900360640190fd5b6001600160a01b0381166107815760405162461bcd60e51b815260040180806020018281038252602a815260200180612816602a913960400191505060405180910390fd5b6001600160a01b0381163014156107c95760405162461bcd60e51b815260040180806020018281038252602b8152602001806127c1602b913960400191505060405180910390fd5b6107d281611b86565b6002546001600160a01b0316600090815260066020526040902080546001600160801b03600160801b82048116911611156108895780546001600160801b03600160801b820481168183169081039081900382166001600160801b03199093169290921783556001600160a01b03841660009081526006602052604090208054909161086c9161086791908116908516611974565b6119d7565b81546001600160801b0319166001600160801b0391909116179055505b8054600160801b90046001600160801b03166108b9576002546108b7906004906001600160a01b0316611a1b565b505b600280546001600160a01b0319166001600160a01b0384161790556108df600483611a30565b50816001600160a01b03166108f2611a87565b6001600160a01b03167f825991f9f9f950375f4d3f04c94283f5f7ea10aa441c6d43cb0e4c7bdce517bf60405160405180910390a35050565b610933611a87565b6000546001600160a01b03908116911614610983576040805162461bcd60e51b815260206004820181905260248201526000805160206127a1833981519152604482015290519081900360640190fd5b6001600160a01b0383166109c85760405162461bcd60e51b815260040180806020018281038252603281526020018061266d6032913960400191505060405180910390fd5b6001600160a01b038316301415610a105760405162461bcd60e51b815260040180806020018281038252603b8152602001806125ba603b913960400191505060405180910390fd5b6002546001600160a01b03908116600081815260066020526040902090918516821415610afd578054610a6890610867906001600160801b0380881691610a629181811691600160801b900416611a45565b90611974565b81546001600160801b0319166001600160801b03918216178116600160801b918616919091021781556001600160a01b038516610aa3611a87565b6001600160a01b03167f4de46491e6981c5a2286f73b7825775a2141c4927704f3ba93a109c6cd9487ef868660405180836001600160801b0316815260200182151581526020019250505060405180910390a35050610c94565b6001600160a01b03851660009081526006602052604090208054600160801b90046001600160801b031615801590610b3d575080546001600160801b0316155b15610b835780548254610b6791610867916001600160801b0390811691600160801b900416611a45565b82546001600160801b0319166001600160801b03919091161782555b83610bd35780546001600160801b03191681558154610bb390610867906001600160801b03908116908816611974565b82546001600160801b0319166001600160801b0391909116178255610bed565b80546001600160801b0319166001600160801b0386161781555b80546001600160801b03808716600160801b81029190921617825515610c1e57610c18600487611a30565b50610c2b565b610c29600487611a1b565b505b856001600160a01b0316610c3d611a87565b6001600160a01b03167f4de46491e6981c5a2286f73b7825775a2141c4927704f3ba93a109c6cd9487ef878760405180836001600160801b0316815260200182151581526020019250505060405180910390a35050505b505050565b6001600160a01b03166000908152600660205260409020546001600160801b0380821692600160801b9092041690565b6000610cd3610f50565b6000610cdd61107d565b90508015610ced57610ced610cf2565b905090565b610cfa611ca4565b61053a611d70565b610d0a611a87565b6000546001600160a01b03908116911614610d5a576040805162461bcd60e51b815260206004820181905260248201526000805160206127a1833981519152604482015290519081900360640190fd5b600080546040516001600160a01b03909116907f8be0079c531659141344cd1fd0a4f28419497f9722a3daafe3b4186f6b6457e0908390a3600080546001600160a01b0319169055565b6000600354610db1611dcc565b01905090565b610dbf611a87565b6000546001600160a01b03908116911614610e0f576040805162461bcd60e51b815260206004820181905260248201526000805160206127a1833981519152604482015290519081900360640190fd5b6001546001600160a01b0384811691161415610e5c5760405162461bcd60e51b815260040180806020018281038252602c8152602001806125f5602c913960400191505060405180910390fd5b610e706001600160a01b0384168383611e48565b816001600160a01b0316836001600160a01b0316610e8c611a87565b6001600160a01b03167feaf4cea276efdcae93a52ca2f4bfdd952992169289bf655b1870a4b20bdae7d6846040518082815260200191505060405180910390a4505050565b6000546001600160a01b031690565b610ee8611a87565b6000546001600160a01b03908116911614610f38576040805162461bcd60e51b815260206004820181905260248201526000805160206127a1833981519152604482015290519081900360640190fd5b6105cc81611a8b565b6008546001600160a01b031690565b6000610f5a610f41565b90506000816001600160a01b03166370a08231306040518263ffffffff1660e01b815260040180826001600160a01b0316815260200191505060206040518083038186803b158015610fab57600080fd5b505afa158015610fbf573d6000803e3d6000fd5b505050506040513d6020811015610fd557600080fd5b5051905080610fe557505061053a565b6000610fef61185e565b90506110056001600160a01b0384168284611e9a565b60408051637cbc237360e01b815260048101849052610e1042016024820181905291516001600160a01b03841691637cbc237391604480830192600092919082900301818387803b15801561105957600080fd5b505af115801561106d573d6000803e3d6000fd5b5050505050505050565b60035490565b600080611088611dcc565b905080611099576000915050610559565b60006110a36105cf565b905060005b6110b26004611c8d565b8110156110d6576110ce6110c7600483611c98565b8385611f85565b6001016110a8565b50506003805482019055905090565b6110ed611a87565b6000546001600160a01b0390811691161461113d576040805162461bcd60e51b815260206004820181905260248201526000805160206127a1833981519152604482015290519081900360640190fd5b6001600160a01b0382166111825760405162461bcd60e51b81526004018080602001828103825260318152602001806127156031913960400191505060405180910390fd5b6001600160a01b0382163014156111ca5760405162461bcd60e51b815260040180806020018281038252603a815260200180612767603a913960400191505060405180910390fd5b6001600160801b03811661120f5760405162461bcd60e51b81526004018080602001828103825260268152602001806126216026913960400191505060405180910390fd5b6001600160a01b038216600090815260066020526040902080546001600160801b031661128d576002546001600160a01b03166000908152600660205260409020805461126d90610867906001600160801b03908116908616611974565b81546001600160801b0319166001600160801b03919091161790556112c6565b80546112aa90610867906001600160801b03908116908516611974565b81546001600160801b0319166001600160801b03919091161781555b80546112ea9061086790600160801b90046001600160801b03908116908516611974565b81546001600160801b03918216600160801b02911617815561130d600484611a30565b50826001600160a01b0316611320611a87565b6001600160a01b03167fb0526516c002a40f095ce404988798881dbee27cd25699cd9decde3702993da78460405180826001600160801b0316815260200191505060405180910390a3505050565b611376611a87565b6000546001600160a01b039081169116146113c6576040805162461bcd60e51b815260206004820181905260248201526000805160206127a1833981519152604482015290519081900360640190fd5b600980546001600160a01b0319166001600160a01b0383169081179091556113ec611a87565b6001600160a01b03167f6b280d88a71e3350b4e6b92556f8413347439e6bca3e3d9b21e93182d033d08760405160405180910390a350565b61142c611a87565b6000546001600160a01b0390811691161461147c576040805162461bcd60e51b815260206004820181905260248201526000805160206127a1833981519152604482015290519081900360640190fd5b600880546001600160a01b0319166001600160a01b0383169081179091556114a2611a87565b6001600160a01b03167ff9f4b296b0c32540acafb6c8937812d833013c92ebdc4c2ac0d9910132a1a26d60405160405180910390a350565b6114e2611a87565b6000546001600160a01b03908116911614611532576040805162461bcd60e51b815260206004820181905260248201526000805160206127a1833981519152604482015290519081900360640190fd5b600a80546001600160a01b0319166001600160a01b038316908117909155611558611a87565b6001600160a01b03167fc5d389b63caae09f667aec538ad0d98aab524b8f6896cc6125f65898e92d134360405160405180910390a350565b6001546001600160a01b031690565b6115a7611a87565b6000546001600160a01b039081169116146115f7576040805162461bcd60e51b815260206004820181905260248201526000805160206127a1833981519152604482015290519081900360640190fd5b600180546001600160a01b0319166001600160a01b03831690811790915561161d611a87565b6001600160a01b03167f7d7a6e0febb00fa099988e85a4dcf58c7297875e1bd06fe1e764c71619ee3a2060405160405180910390a350565b61165d611a87565b6000546001600160a01b039081169116146116ad576040805162461bcd60e51b815260206004820181905260248201526000805160206127a1833981519152604482015290519081900360640190fd5b6001600160801b0381166116f25760405162461bcd60e51b815260040180806020018281038252602981526020018061269f6029913960400191505060405180910390fd5b6001600160a01b038216600090815260066020526040902080546001600160801b0316611770576002546001600160a01b03166000908152600660205260409020805461175090610867906001600160801b03908116908616611a45565b81546001600160801b0319166001600160801b03919091161790556117a9565b805461178d90610867906001600160801b03908116908516611a45565b81546001600160801b0319166001600160801b03919091161781555b80546117cd9061086790600160801b90046001600160801b03908116908516611a45565b81546001600160801b03908116600160801b92821683021780845591909104166117fe576117fc600484611a1b565b505b826001600160a01b0316611810611a87565b6001600160a01b03167f5fb77bf2c7b86e2345c2fc7c204ec8d8c378d00526c58afbb2a61d3350b2df5c8460405180826001600160801b0316815260200191505060405180910390a3505050565b6009546001600160a01b031690565b611875611a87565b6000546001600160a01b039081169116146118c5576040805162461bcd60e51b815260206004820181905260248201526000805160206127a1833981519152604482015290519081900360640190fd5b6001600160a01b03811661190a5760405162461bcd60e51b81526004018080602001828103825260268152602001806126476026913960400191505060405180910390fd5b600080546040516001600160a01b03808516939216917f8be0079c531659141344cd1fd0a4f28419497f9722a3daafe3b4186f6b6457e091a3600080546001600160a01b0319166001600160a01b0392909216919091179055565b6007546001600160a01b031690565b6000828201838110156119ce576040805162461bcd60e51b815260206004820152601b60248201527f536166654d6174683a206164646974696f6e206f766572666c6f770000000000604482015290519081900360640190fd5b90505b92915050565b6000600160801b821061062a5760405162461bcd60e51b81526004018080602001828103825260278152602001806126c86027913960400191505060405180910390fd5b60006119ce836001600160a01b038416611fdc565b60006119ce836001600160a01b0384166120a2565b60006119ce83836040518060400160405280601e81526020017f536166654d6174683a207375627472616374696f6e206f766572666c6f7700008152506120ec565b3390565b6002546001600160a01b0382811691161415611aa6576105cc565b6001600160a01b038116600090815260066020526040902080546001600160801b0316611ad357506105cc565b6002546001600160a01b0316600090815260066020526040902081546001600160801b0319168083558154611b1f91610867916001600160801b0390811691600160801b900416611974565b81546001600160801b0319166001600160801b03919091161781556001600160a01b038316611b4c611a87565b6001600160a01b03167f3fbaeb975b6f6e0cc02bfd572112307889d79b6d7154796814aff3e145df5dde60405160405180910390a3505050565b6001600160a01b03811660009081526006602052604090208054600160801b90046001600160801b03161580611bc5575080546001600160801b031615155b15611bd057506105cc565b6002546001600160a01b0316600090815260066020526040902081546001600160801b031981166001600160801b03600160801b928390048116919091178085558354611c269361086793918216920416611a45565b81546001600160801b0319166001600160801b03919091161781556001600160a01b038316611c53611a87565b6001600160a01b03167f40b03d881bb709e31f47030e8d2981dfe8ba639a47b9d36367953e8e754a086060405160405180910390a3505050565b60006119d182612188565b60006119ce838361218c565b6000611cae611965565b9050806001600160a01b031663bfb0efab6040518163ffffffff1660e01b815260040160206040518083038186803b158015611ce957600080fd5b505afa158015611cfd573d6000803e3d6000fd5b505050506040513d6020811015611d1357600080fd5b5051156105cc57806001600160a01b0316633ad661276040518163ffffffff1660e01b8152600401600060405180830381600087803b158015611d5557600080fd5b505af1158015611d69573d6000803e3d6000fd5b5050505050565b611d7861055c565b6001600160a01b0316633ad661276040518163ffffffff1660e01b8152600401600060405180830381600087803b158015611db257600080fd5b505af1158015611dc6573d6000803e3d6000fd5b50505050565b600154604080516370a0823160e01b815230600482015290516000926001600160a01b0316916370a08231916024808301926020929190829003018186803b158015611e1757600080fd5b505afa158015611e2b573d6000803e3d6000fd5b505050506040513d6020811015611e4157600080fd5b5051905090565b604080516001600160a01b038416602482015260448082018490528251808303909101815260649091019091526020810180516001600160e01b031663a9059cbb60e01b179052610c949084906121f0565b6000611f3082856001600160a01b031663dd62ed3e30876040518363ffffffff1660e01b815260040180836001600160a01b03168152602001826001600160a01b031681526020019250505060206040518083038186803b158015611efe57600080fd5b505afa158015611f12573d6000803e3d6000fd5b505050506040513d6020811015611f2857600080fd5b505190611974565b604080516001600160a01b038616602482015260448082018490528251808303909101815260649091019091526020810180516001600160e01b031663095ea7b360e01b179052909150611dc69085906121f0565b6001600160a01b03831660009081526006602052604081208054909190611fc2908590611fbc9086906001600160801b03166122a1565b906122fa565b600154909150611d69906001600160a01b03168683611e48565b60008181526001830160205260408120548015612098578354600019808301919081019060009087908390811061200f57fe5b906000526020600020015490508087600001848154811061202c57fe5b60009182526020808320909101929092558281526001898101909252604090209084019055865487908061205c57fe5b600190038181906000526020600020016000905590558660010160008781526020019081526020016000206000905560019450505050506119d1565b60009150506119d1565b60006120ae838361233c565b6120e4575081546001818101845560008481526020808220909301849055845484825282860190935260409020919091556119d1565b5060006119d1565b6000818484111561217b5760405162461bcd60e51b81526004018080602001828103825283818151815260200191508051906020019080838360005b83811015612140578181015183820152602001612128565b50505050905090810190601f16801561216d5780820380516001836020036101000a031916815260200191505b509250505060405180910390fd5b50508183035b9392505050565b5490565b815460009082106121ce5760405162461bcd60e51b81526004018080602001828103825260228152602001806125986022913960400191505060405180910390fd5b8260000182815481106121dd57fe5b9060005260206000200154905092915050565b6000612245826040518060400160405280602081526020017f5361666545524332303a206c6f772d6c6576656c2063616c6c206661696c6564815250856001600160a01b03166123549092919063ffffffff16565b805190915015610c945780806020019051602081101561226457600080fd5b5051610c945760405162461bcd60e51b815260040180806020018281038252602a8152602001806127ec602a913960400191505060405180910390fd5b6000826122b0575060006119d1565b828202828482816122bd57fe5b04146119ce5760405162461bcd60e51b81526004018080602001828103825260218152602001806127466021913960400191505060405180910390fd5b60006119ce83836040518060400160405280601a81526020017f536166654d6174683a206469766973696f6e206279207a65726f00000000000081525061236b565b60009081526001919091016020526040902054151590565b606061236384846000856123d0565b949350505050565b600081836123ba5760405162461bcd60e51b8152602060048201818152835160248401528351909283926044909101919085019080838360008315612140578181015183820152602001612128565b5060008385816123c657fe5b0495945050505050565b6060824710156124115760405162461bcd60e51b81526004018080602001828103825260268152602001806126ef6026913960400191505060405180910390fd5b61241a8561252b565b61246b576040805162461bcd60e51b815260206004820152601d60248201527f416464726573733a2063616c6c20746f206e6f6e2d636f6e7472616374000000604482015290519081900360640190fd5b600080866001600160a01b031685876040518082805190602001908083835b602083106124a95780518252601f19909201916020918201910161248a565b6001836020036101000a03801982511681845116808217855250505050505090500191505060006040518083038185875af1925050503d806000811461250b576040519150601f19603f3d011682016040523d82523d6000602084013e612510565b606091505b5091509150612520828286612531565b979650505050505050565b3b151590565b60608315612540575081612181565b8251156125505782518084602001fd5b60405162461bcd60e51b815260206004820181815284516024840152845185939192839260440191908501908083836000831561214057818101518382015260200161212856fe456e756d657261626c655365743a20696e646578206f7574206f6620626f756e6473526577617264734d616e616765723a2063616e6e6f74207365742073686172657320666f72207468697320636f6e74726163742061646472657373526577617264734d616e616765723a2063616e6e6f74207265636f766572207265776172647320746f6b656e526577617264734d616e616765723a2063616e6e6f7420616464207a65726f207368617265734f776e61626c653a206e6577206f776e657220697320746865207a65726f2061646472657373526577617264734d616e616765723a2063616e6e6f74207365742073686172657320666f72207a65726f2061646472657373526577617264734d616e616765723a2063616e6e6f742072656d6f7665207a65726f2073686172657353616665436173743a2076616c756520646f65736e27742066697420696e203132382062697473416464726573733a20696e73756666696369656e742062616c616e636520666f722063616c6c526577617264734d616e616765723a2063616e6e6f74206164642073686172657320746f207a65726f2061646472657373536166654d6174683a206d756c7469706c69636174696f6e206f766572666c6f77526577617264734d616e616765723a2063616e6e6f74206164642073686172657320746f207468697320636f6e747261637420616464726573734f776e61626c653a2063616c6c6572206973206e6f7420746865206f776e6572526577617264734d616e616765723a2063616e6e6f742073657420746f207468697320636f6e74726163745361666545524332303a204552433230206f7065726174696f6e20646964206e6f742073756363656564526577617264734d616e616765723a2063616e6e6f742073657420746f207a65726f2061646472657373a264697066735822122012a610814941fcffb72fabb3aa445fdd0943acfdb4f41d78659b0fd338de8dd864736f6c634300070600334f776e61626c653a206e6577206f776e657220697320746865207a65726f206164647265737353616665436173743a2076616c756520646f65736e27742066697420696e2031323820626974734f776e61626c653a2063616c6c6572206973206e6f7420746865206f776e65728be0079c531659141344cd1fd0a4f28419497f9722a3daafe3b4186f6b6457e0526577617264734d616e616765723a2063616e6e6f742073657420746f207468697320636f6e7472616374526577617264734d616e616765723a2063616e6e6f742073657420746f207a65726f2061646472657373",
  "devdoc": {
    "kind": "dev",
    "methods": {
      "owner()": {
        "details": "Returns the address of the current owner."
      },
      "renounceOwnership()": {
        "details": "Leaves the contract without owner. It will not be possible to call `onlyOwner` functions anymore. Can only be called by the current owner. NOTE: Renouncing ownership will leave the contract without an owner, thereby removing any functionality that is only available to the owner."
      },
      "transferOwnership(address)": {
        "details": "Transfers ownership of the contract to a new account (`newOwner`). Can only be called by the current owner."
      }
    },
    "version": 1
  },
  "userdoc": {
    "kind": "user",
    "methods": {},
    "version": 1
  },
  "storageLayout": {
    "storage": [
      {
        "astId": 912,
        "contract": "contracts/rewards/ETHtxRewardsManager.sol:ETHtxRewardsManager",
        "label": "_owner",
        "offset": 0,
        "slot": "0",
        "type": "t_address"
      },
      {
        "astId": 13271,
        "contract": "contracts/rewards/ETHtxRewardsManager.sol:ETHtxRewardsManager",
        "label": "_rewardsToken",
        "offset": 0,
        "slot": "1",
        "type": "t_address"
      },
      {
        "astId": 13273,
        "contract": "contracts/rewards/ETHtxRewardsManager.sol:ETHtxRewardsManager",
        "label": "_defaultRecipient",
        "offset": 0,
        "slot": "2",
        "type": "t_address"
      },
      {
        "astId": 13275,
        "contract": "contracts/rewards/ETHtxRewardsManager.sol:ETHtxRewardsManager",
        "label": "_totalRewardsRedeemed",
        "offset": 0,
        "slot": "3",
        "type": "t_uint256"
      },
      {
        "astId": 13277,
        "contract": "contracts/rewards/ETHtxRewardsManager.sol:ETHtxRewardsManager",
        "label": "_recipients",
        "offset": 0,
        "slot": "4",
        "type": "t_struct(AddressSet)2731_storage"
      },
      {
        "astId": 13281,
        "contract": "contracts/rewards/ETHtxRewardsManager.sol:ETHtxRewardsManager",
        "label": "_shares",
        "offset": 0,
        "slot": "6",
        "type": "t_mapping(t_address,t_struct(Shares)13269_storage)"
      },
      {
        "astId": 7766,
        "contract": "contracts/rewards/ETHtxRewardsManager.sol:ETHtxRewardsManager",
        "label": "_ethmxRewards",
        "offset": 0,
        "slot": "7",
        "type": "t_address"
      },
      {
        "astId": 7768,
        "contract": "contracts/rewards/ETHtxRewardsManager.sol:ETHtxRewardsManager",
        "label": "_ethtx",
        "offset": 0,
        "slot": "8",
        "type": "t_address"
      },
      {
        "astId": 7770,
        "contract": "contracts/rewards/ETHtxRewardsManager.sol:ETHtxRewardsManager",
        "label": "_ethtxAMM",
        "offset": 0,
        "slot": "9",
        "type": "t_address"
      },
      {
        "astId": 7772,
        "contract": "contracts/rewards/ETHtxRewardsManager.sol:ETHtxRewardsManager",
        "label": "_lpRewards",
        "offset": 0,
        "slot": "10",
        "type": "t_address"
      }
    ],
    "types": {
      "t_address": {
        "encoding": "inplace",
        "label": "address",
        "numberOfBytes": "20"
      },
      "t_array(t_bytes32)dyn_storage": {
        "base": "t_bytes32",
        "encoding": "dynamic_array",
        "label": "bytes32[]",
        "numberOfBytes": "32"
      },
      "t_bytes32": {
        "encoding": "inplace",
        "label": "bytes32",
        "numberOfBytes": "32"
      },
      "t_mapping(t_address,t_struct(Shares)13269_storage)": {
        "encoding": "mapping",
        "key": "t_address",
        "label": "mapping(address => struct RewardsManager.Shares)",
        "numberOfBytes": "32",
        "value": "t_struct(Shares)13269_storage"
      },
      "t_mapping(t_bytes32,t_uint256)": {
        "encoding": "mapping",
        "key": "t_bytes32",
        "label": "mapping(bytes32 => uint256)",
        "numberOfBytes": "32",
        "value": "t_uint256"
      },
      "t_struct(AddressSet)2731_storage": {
        "encoding": "inplace",
        "label": "struct EnumerableSet.AddressSet",
        "members": [
          {
            "astId": 2730,
            "contract": "contracts/rewards/ETHtxRewardsManager.sol:ETHtxRewardsManager",
            "label": "_inner",
            "offset": 0,
            "slot": "0",
            "type": "t_struct(Set)2466_storage"
          }
        ],
        "numberOfBytes": "64"
      },
      "t_struct(Set)2466_storage": {
        "encoding": "inplace",
        "label": "struct EnumerableSet.Set",
        "members": [
          {
            "astId": 2461,
            "contract": "contracts/rewards/ETHtxRewardsManager.sol:ETHtxRewardsManager",
            "label": "_values",
            "offset": 0,
            "slot": "0",
            "type": "t_array(t_bytes32)dyn_storage"
          },
          {
            "astId": 2465,
            "contract": "contracts/rewards/ETHtxRewardsManager.sol:ETHtxRewardsManager",
            "label": "_indexes",
            "offset": 0,
            "slot": "1",
            "type": "t_mapping(t_bytes32,t_uint256)"
          }
        ],
        "numberOfBytes": "64"
      },
      "t_struct(Shares)13269_storage": {
        "encoding": "inplace",
        "label": "struct RewardsManager.Shares",
        "members": [
          {
            "astId": 13266,
            "contract": "contracts/rewards/ETHtxRewardsManager.sol:ETHtxRewardsManager",
            "label": "active",
            "offset": 0,
            "slot": "0",
            "type": "t_uint128"
          },
          {
            "astId": 13268,
            "contract": "contracts/rewards/ETHtxRewardsManager.sol:ETHtxRewardsManager",
            "label": "total",
            "offset": 16,
            "slot": "0",
            "type": "t_uint128"
          }
        ],
        "numberOfBytes": "32"
      },
      "t_uint128": {
        "encoding": "inplace",
        "label": "uint128",
        "numberOfBytes": "16"
      },
      "t_uint256": {
        "encoding": "inplace",
        "label": "uint256",
        "numberOfBytes": "32"
      }
    }
  }
}