{
  "address": "0xD5b1B01a2c95E4eE0275dFd1779f171f701CAD65",
  "abi": [
    {
      "inputs": [
        {
          "internalType": "address",
          "name": "owner_",
          "type": "address"
        }
      ],
      "stateMutability": "nonpayable",
      "type": "constructor"
    },
    {
      "anonymous": false,
      "inputs": [
        {
          "indexed": true,
          "internalType": "address",
          "name": "author",
          "type": "address"
        },
        {
          "indexed": false,
          "internalType": "uint256",
          "name": "amount",
          "type": "uint256"
        }
      ],
      "name": "BurnedETHmx",
      "type": "event"
    },
    {
      "anonymous": false,
      "inputs": [
        {
          "indexed": true,
          "internalType": "address",
          "name": "author",
          "type": "address"
        },
        {
          "indexed": true,
          "internalType": "address",
          "name": "account",
          "type": "address"
        }
      ],
      "name": "ETHmxSet",
      "type": "event"
    },
    {
      "anonymous": false,
      "inputs": [
        {
          "indexed": true,
          "internalType": "address",
          "name": "author",
          "type": "address"
        },
        {
          "indexed": true,
          "internalType": "address",
          "name": "account",
          "type": "address"
        }
      ],
      "name": "ETHtxSet",
      "type": "event"
    },
    {
      "anonymous": false,
      "inputs": [
        {
          "indexed": true,
          "internalType": "address",
          "name": "author",
          "type": "address"
        },
        {
          "indexed": true,
          "internalType": "address",
          "name": "account",
          "type": "address"
        }
      ],
      "name": "GasOracleSet",
      "type": "event"
    },
    {
      "anonymous": false,
      "inputs": [
        {
          "indexed": true,
          "internalType": "address",
          "name": "author",
          "type": "address"
        },
        {
          "indexed": false,
          "internalType": "uint256",
          "name": "amount",
          "type": "uint256"
        }
      ],
      "name": "GethSet",
      "type": "event"
    },
    {
      "anonymous": false,
      "inputs": [
        {
          "indexed": true,
          "internalType": "address",
          "name": "previousOwner",
          "type": "address"
        },
        {
          "indexed": true,
          "internalType": "address",
          "name": "newOwner",
          "type": "address"
        }
      ],
      "name": "OwnershipTransferred",
      "type": "event"
    },
    {
      "anonymous": false,
      "inputs": [
        {
          "indexed": false,
          "internalType": "address",
          "name": "account",
          "type": "address"
        }
      ],
      "name": "Paused",
      "type": "event"
    },
    {
      "anonymous": false,
      "inputs": [
        {
          "indexed": true,
          "internalType": "address",
          "name": "author",
          "type": "address"
        },
        {
          "indexed": true,
          "internalType": "address",
          "name": "token",
          "type": "address"
        },
        {
          "indexed": true,
          "internalType": "address",
          "name": "to",
          "type": "address"
        },
        {
          "indexed": false,
          "internalType": "uint256",
          "name": "amount",
          "type": "uint256"
        }
      ],
      "name": "RecoveredUnsupported",
      "type": "event"
    },
    {
      "anonymous": false,
      "inputs": [
        {
          "indexed": true,
          "internalType": "address",
          "name": "author",
          "type": "address"
        },
        {
          "indexed": false,
          "internalType": "uint128",
          "name": "numerator",
          "type": "uint128"
        },
        {
          "indexed": false,
          "internalType": "uint128",
          "name": "denominator",
          "type": "uint128"
        }
      ],
      "name": "TargetCRatioSet",
      "type": "event"
    },
    {
      "anonymous": false,
      "inputs": [
        {
          "indexed": false,
          "internalType": "address",
          "name": "account",
          "type": "address"
        }
      ],
      "name": "Unpaused",
      "type": "event"
    },
    {
      "anonymous": false,
      "inputs": [
        {
          "indexed": true,
          "internalType": "address",
          "name": "author",
          "type": "address"
        },
        {
          "indexed": true,
          "internalType": "address",
          "name": "account",
          "type": "address"
        }
      ],
      "name": "WETHSet",
      "type": "event"
    },
    {
      "inputs": [
        {
          "internalType": "uint256",
          "name": "amount",
          "type": "uint256"
        },
        {
          "internalType": "bool",
          "name": "asWETH",
          "type": "bool"
        }
      ],
      "name": "burnETHmx",
      "outputs": [],
      "stateMutability": "nonpayable",
      "type": "function"
    },
    {
      "inputs": [],
      "name": "cRatio",
      "outputs": [
        {
          "internalType": "uint256",
          "name": "numerator",
          "type": "uint256"
        },
        {
          "internalType": "uint256",
          "name": "denominator",
          "type": "uint256"
        }
      ],
      "stateMutability": "view",
      "type": "function"
    },
    {
      "inputs": [],
      "name": "cRatioBelowTarget",
      "outputs": [
        {
          "internalType": "bool",
          "name": "",
          "type": "bool"
        }
      ],
      "stateMutability": "view",
      "type": "function"
    },
    {
      "inputs": [],
      "name": "ethNeeded",
      "outputs": [
        {
          "internalType": "uint256",
          "name": "",
          "type": "uint256"
        }
      ],
      "stateMutability": "view",
      "type": "function"
    },
    {
      "inputs": [],
      "name": "ethSupply",
      "outputs": [
        {
          "internalType": "uint256",
          "name": "",
          "type": "uint256"
        }
      ],
      "stateMutability": "view",
      "type": "function"
    },
    {
      "inputs": [],
      "name": "ethSupplyTarget",
      "outputs": [
        {
          "internalType": "uint256",
          "name": "",
          "type": "uint256"
        }
      ],
      "stateMutability": "view",
      "type": "function"
    },
    {
      "inputs": [
        {
          "internalType": "uint256",
          "name": "amountEthtxOut",
          "type": "uint256"
        }
      ],
      "name": "ethToExactEthtx",
      "outputs": [
        {
          "internalType": "uint256",
          "name": "",
          "type": "uint256"
        }
      ],
      "stateMutability": "view",
      "type": "function"
    },
    {
      "inputs": [],
      "name": "ethmx",
      "outputs": [
        {
          "internalType": "address",
          "name": "",
          "type": "address"
        }
      ],
      "stateMutability": "view",
      "type": "function"
    },
    {
      "inputs": [],
      "name": "ethtx",
      "outputs": [
        {
          "internalType": "address",
          "name": "",
          "type": "address"
        }
      ],
      "stateMutability": "view",
      "type": "function"
    },
    {
      "inputs": [],
      "name": "ethtxAvailable",
      "outputs": [
        {
          "internalType": "uint256",
          "name": "",
          "type": "uint256"
        }
      ],
      "stateMutability": "view",
      "type": "function"
    },
    {
      "inputs": [],
      "name": "ethtxOutstanding",
      "outputs": [
        {
          "internalType": "uint256",
          "name": "",
          "type": "uint256"
        }
      ],
      "stateMutability": "view",
      "type": "function"
    },
    {
      "inputs": [
        {
          "internalType": "uint256",
          "name": "amountEthOut",
          "type": "uint256"
        }
      ],
      "name": "ethtxToExactEth",
      "outputs": [
        {
          "internalType": "uint256",
          "name": "",
          "type": "uint256"
        }
      ],
      "stateMutability": "view",
      "type": "function"
    },
    {
      "inputs": [
        {
          "internalType": "uint256",
          "name": "amountEthIn",
          "type": "uint256"
        }
      ],
      "name": "exactEthToEthtx",
      "outputs": [
        {
          "internalType": "uint256",
          "name": "",
          "type": "uint256"
        }
      ],
      "stateMutability": "view",
      "type": "function"
    },
    {
      "inputs": [
        {
          "internalType": "uint256",
          "name": "amountEthtxIn",
          "type": "uint256"
        }
      ],
      "name": "exactEthtxToEth",
      "outputs": [
        {
          "internalType": "uint256",
          "name": "",
          "type": "uint256"
        }
      ],
      "stateMutability": "view",
      "type": "function"
    },
    {
      "inputs": [],
      "name": "feeLogic",
      "outputs": [
        {
          "internalType": "address",
          "name": "",
          "type": "address"
        }
      ],
      "stateMutability": "view",
      "type": "function"
    },
    {
      "inputs": [],
      "name": "gasOracle",
      "outputs": [
        {
          "internalType": "address",
          "name": "",
          "type": "address"
        }
      ],
      "stateMutability": "view",
      "type": "function"
    },
    {
      "inputs": [],
      "name": "gasPerETHtx",
      "outputs": [
        {
          "internalType": "uint256",
          "name": "",
          "type": "uint256"
        }
      ],
      "stateMutability": "pure",
      "type": "function"
    },
    {
      "inputs": [],
      "name": "gasPrice",
      "outputs": [
        {
          "internalType": "uint256",
          "name": "",
          "type": "uint256"
        }
      ],
      "stateMutability": "view",
      "type": "function"
    },
    {
      "inputs": [],
      "name": "gasPriceAtRedemption",
      "outputs": [
        {
          "internalType": "uint256",
          "name": "",
          "type": "uint256"
        }
      ],
      "stateMutability": "view",
      "type": "function"
    },
    {
      "inputs": [],
      "name": "geth",
      "outputs": [
        {
          "internalType": "uint256",
          "name": "",
          "type": "uint256"
        }
      ],
      "stateMutability": "view",
      "type": "function"
    },
    {
      "inputs": [
        {
          "internalType": "address",
          "name": "owner_",
          "type": "address"
        }
      ],
      "name": "init",
      "outputs": [],
      "stateMutability": "nonpayable",
      "type": "function"
    },
    {
      "inputs": [],
      "name": "maxGasPrice",
      "outputs": [
        {
          "internalType": "uint256",
          "name": "",
          "type": "uint256"
        }
      ],
      "stateMutability": "view",
      "type": "function"
    },
    {
      "inputs": [],
      "name": "owner",
      "outputs": [
        {
          "internalType": "address",
          "name": "",
          "type": "address"
        }
      ],
      "stateMutability": "view",
      "type": "function"
    },
    {
      "inputs": [],
      "name": "pause",
      "outputs": [],
      "stateMutability": "nonpayable",
      "type": "function"
    },
    {
      "inputs": [],
      "name": "paused",
      "outputs": [
        {
          "internalType": "bool",
          "name": "",
          "type": "bool"
        }
      ],
      "stateMutability": "view",
      "type": "function"
    },
    {
      "inputs": [
        {
          "components": [
            {
              "internalType": "address",
              "name": "ethtx",
              "type": "address"
            },
            {
              "internalType": "address",
              "name": "gasOracle",
              "type": "address"
            },
            {
              "internalType": "address",
              "name": "weth",
              "type": "address"
            },
            {
              "internalType": "uint128",
              "name": "targetCRatioNum",
              "type": "uint128"
            },
            {
              "internalType": "uint128",
              "name": "targetCRatioDen",
              "type": "uint128"
            },
            {
              "internalType": "address",
              "name": "ethmx",
              "type": "address"
            }
          ],
          "internalType": "struct ETHtxAMM.ETHtxAMMArgs",
          "name": "_args",
          "type": "tuple"
        }
      ],
      "name": "postInit",
      "outputs": [],
      "stateMutability": "nonpayable",
      "type": "function"
    },
    {
      "inputs": [
        {
          "internalType": "address",
          "name": "token",
          "type": "address"
        },
        {
          "internalType": "address",
          "name": "to",
          "type": "address"
        },
        {
          "internalType": "uint256",
          "name": "amount",
          "type": "uint256"
        }
      ],
      "name": "recoverUnsupportedERC20",
      "outputs": [],
      "stateMutability": "nonpayable",
      "type": "function"
    },
    {
      "inputs": [],
      "name": "renounceOwnership",
      "outputs": [],
      "stateMutability": "nonpayable",
      "type": "function"
    },
    {
      "inputs": [
        {
          "internalType": "address",
          "name": "account",
          "type": "address"
        }
      ],
      "name": "setEthmx",
      "outputs": [],
      "stateMutability": "nonpayable",
      "type": "function"
    },
    {
      "inputs": [
        {
          "internalType": "address",
          "name": "account",
          "type": "address"
        }
      ],
      "name": "setEthtx",
      "outputs": [],
      "stateMutability": "nonpayable",
      "type": "function"
    },
    {
      "inputs": [
        {
          "internalType": "address",
          "name": "account",
          "type": "address"
        }
      ],
      "name": "setGasOracle",
      "outputs": [],
      "stateMutability": "nonpayable",
      "type": "function"
    },
    {
      "inputs": [
        {
          "internalType": "uint256",
          "name": "amount",
          "type": "uint256"
        }
      ],
      "name": "setGeth",
      "outputs": [],
      "stateMutability": "nonpayable",
      "type": "function"
    },
    {
      "inputs": [
        {
          "internalType": "uint128",
          "name": "numerator",
          "type": "uint128"
        },
        {
          "internalType": "uint128",
          "name": "denominator",
          "type": "uint128"
        }
      ],
      "name": "setTargetCRatio",
      "outputs": [],
      "stateMutability": "nonpayable",
      "type": "function"
    },
    {
      "inputs": [
        {
          "internalType": "address",
          "name": "account",
          "type": "address"
        }
      ],
      "name": "setWETH",
      "outputs": [],
      "stateMutability": "nonpayable",
      "type": "function"
    },
    {
      "inputs": [
        {
          "internalType": "uint256",
          "name": "deadline",
          "type": "uint256"
        }
      ],
      "name": "swapEthForEthtx",
      "outputs": [],
      "stateMutability": "payable",
      "type": "function"
    },
    {
      "inputs": [
        {
          "internalType": "uint256",
          "name": "amountOut",
          "type": "uint256"
        },
        {
          "internalType": "uint256",
          "name": "deadline",
          "type": "uint256"
        }
      ],
      "name": "swapEthForExactEthtx",
      "outputs": [],
      "stateMutability": "payable",
      "type": "function"
    },
    {
      "inputs": [
        {
          "internalType": "uint256",
          "name": "amountIn",
          "type": "uint256"
        },
        {
          "internalType": "uint256",
          "name": "deadline",
          "type": "uint256"
        },
        {
          "internalType": "bool",
          "name": "asWETH",
          "type": "bool"
        }
      ],
      "name": "swapEthtxForEth",
      "outputs": [],
      "stateMutability": "nonpayable",
      "type": "function"
    },
    {
      "inputs": [
        {
          "internalType": "uint256",
          "name": "amountInMax",
          "type": "uint256"
        },
        {
          "internalType": "uint256",
          "name": "amountOut",
          "type": "uint256"
        },
        {
          "internalType": "uint256",
          "name": "deadline",
          "type": "uint256"
        },
        {
          "internalType": "bool",
          "name": "asWETH",
          "type": "bool"
        }
      ],
      "name": "swapEthtxForExactEth",
      "outputs": [],
      "stateMutability": "nonpayable",
      "type": "function"
    },
    {
      "inputs": [
        {
          "internalType": "uint256",
          "name": "amountOutMin",
          "type": "uint256"
        },
        {
          "internalType": "uint256",
          "name": "deadline",
          "type": "uint256"
        }
      ],
      "name": "swapExactEthForEthtx",
      "outputs": [],
      "stateMutability": "payable",
      "type": "function"
    },
    {
      "inputs": [
        {
          "internalType": "uint256",
          "name": "amountIn",
          "type": "uint256"
        },
        {
          "internalType": "uint256",
          "name": "amountOutMin",
          "type": "uint256"
        },
        {
          "internalType": "uint256",
          "name": "deadline",
          "type": "uint256"
        },
        {
          "internalType": "bool",
          "name": "asWETH",
          "type": "bool"
        }
      ],
      "name": "swapExactEthtxForEth",
      "outputs": [],
      "stateMutability": "nonpayable",
      "type": "function"
    },
    {
      "inputs": [
        {
          "internalType": "uint256",
          "name": "amountIn",
          "type": "uint256"
        },
        {
          "internalType": "uint256",
          "name": "amountOutMin",
          "type": "uint256"
        },
        {
          "internalType": "uint256",
          "name": "deadline",
          "type": "uint256"
        }
      ],
      "name": "swapExactWethForEthtx",
      "outputs": [],
      "stateMutability": "nonpayable",
      "type": "function"
    },
    {
      "inputs": [
        {
          "internalType": "uint256",
          "name": "amountIn",
          "type": "uint256"
        },
        {
          "internalType": "uint256",
          "name": "deadline",
          "type": "uint256"
        }
      ],
      "name": "swapWethForEthtx",
      "outputs": [],
      "stateMutability": "nonpayable",
      "type": "function"
    },
    {
      "inputs": [
        {
          "internalType": "uint256",
          "name": "amountInMax",
          "type": "uint256"
        },
        {
          "internalType": "uint256",
          "name": "amountOut",
          "type": "uint256"
        },
        {
          "internalType": "uint256",
          "name": "deadline",
          "type": "uint256"
        }
      ],
      "name": "swapWethForExactEthtx",
      "outputs": [],
      "stateMutability": "nonpayable",
      "type": "function"
    },
    {
      "inputs": [],
      "name": "targetCRatio",
      "outputs": [
        {
          "internalType": "uint128",
          "name": "numerator",
          "type": "uint128"
        },
        {
          "internalType": "uint128",
          "name": "denominator",
          "type": "uint128"
        }
      ],
      "stateMutability": "view",
      "type": "function"
    },
    {
      "inputs": [
        {
          "internalType": "address",
          "name": "newOwner",
          "type": "address"
        }
      ],
      "name": "transferOwnership",
      "outputs": [],
      "stateMutability": "nonpayable",
      "type": "function"
    },
    {
      "inputs": [],
      "name": "unpause",
      "outputs": [],
      "stateMutability": "nonpayable",
      "type": "function"
    },
    {
      "inputs": [],
      "name": "weth",
      "outputs": [
        {
          "internalType": "address",
          "name": "",
          "type": "address"
        }
      ],
      "stateMutability": "view",
      "type": "function"
    },
    {
      "stateMutability": "payable",
      "type": "receive"
    }
  ],
  "transactionHash": "0x0e4336875bd682d83d932c39fa9dff32b3733dfd21a11db0bf192ca08354d4dd",
  "args": [
    "0x5757Dd711EaE80e181E07CdbCe43359Ac1048394"
  ],
  "solcInputHash": "b70191f391f85f18c2fc36f510769f67",
  "bytecode": "0x60806040523480156200001157600080fd5b5060405162004ef338038062004ef3833981016040819052620000349162000384565b6200003f8162000046565b50620003b4565b600054610100900460ff16806200006257506200006262000110565b8062000071575060005460ff16155b620000ae5760405162461bcd60e51b815260040180806020018281038252602e81526020018062004ec5602e913960400191505060405180910390fd5b600054610100900460ff16158015620000da576000805460ff1961ff0019909116610100171660011790555b620000e46200012e565b620000ef82620001d8565b620000f9620002cb565b80156200010c576000805461ff00191690555b5050565b600062000128306200037e60201b62002e251760201c565b15905090565b600054610100900460ff16806200014a57506200014a62000110565b8062000159575060005460ff16155b620001965760405162461bcd60e51b815260040180806020018281038252602e81526020018062004ec5602e913960400191505060405180910390fd5b600054610100900460ff16158015620001c2576000805460ff1961ff0019909116610100171660011790555b8015620001d5576000805461ff00191690555b50565b600054610100900460ff1680620001f45750620001f462000110565b8062000203575060005460ff16155b620002405760405162461bcd60e51b815260040180806020018281038252602e81526020018062004ec5602e913960400191505060405180910390fd5b600054610100900460ff161580156200026c576000805460ff1961ff0019909116610100171660011790555b603380546001600160a01b0319166001600160a01b0384169081179091556040516000907f8be0079c531659141344cd1fd0a4f28419497f9722a3daafe3b4186f6b6457e0908290a380156200010c576000805461ff00191690555050565b600054610100900460ff1680620002e75750620002e762000110565b80620002f6575060005460ff16155b620003335760405162461bcd60e51b815260040180806020018281038252602e81526020018062004ec5602e913960400191505060405180910390fd5b600054610100900460ff161580156200035f576000805460ff1961ff0019909116610100171660011790555b6065805460ff191690558015620001d5576000805461ff001916905550565b3b151590565b60006020828403121562000396578081fd5b81516001600160a01b0381168114620003ad578182fd5b9392505050565b614b0180620003c46000396000f3fe60806040526004361061030c5760003560e01c806386a86d411161019a578063c3027010116100e1578063e7d29b531161008a578063fa8c076f11610064578063fa8c076f14610864578063fe173b9714610884578063fe724906146108995761039f565b8063e7d29b531461081c578063f2fde38b1461082f578063fa750d581461084f5761039f565b8063db6647a4116100bb578063db6647a4146107bc578063dcbc98dc146107dc578063df32db77146107fc5761039f565b8063c30270101461075c578063ca1f7afc1461077c578063d4d3ad051461079c5761039f565b8063a1caa48e11610143578063b563df2b1161011d578063b563df2b14610707578063bbaebe8814610727578063bc2b3e5f146107475761039f565b8063a1caa48e146106a7578063a2bc9c20146106c7578063a87b8152146106e75761039f565b8063902dd18611610174578063902dd18614610668578063977507c41461067d578063a05d674f146106925761039f565b806386a86d411461061e5780638da5cb5b1461063e5780638f365b69146106535761039f565b80635572f2641161025e578063715018a6116102075780637de77469116101e15780637de77469146105d3578063805f751a146105e65780638456cb59146106095761039f565b8063715018a61461057e57806375de5f951461059357806377dc65be146105b35761039f565b80635c975abb116102385780635c975abb146105315780635d62a8dd1461054657806365ac74db1461055b5761039f565b80635572f264146104cf578063575a9d16146104ef5780635b769f3c146105115761039f565b80633fc8cef3116102c05780634d6a3cfb1161029a5780634d6a3cfb146104905780635028db1a146104a5578063546146e3146104ba5761039f565b80633fc8cef31461043b578063443ad8491461045d57806348f084f01461047d5761039f565b806322f7af25116102f157806322f7af25146103f15780633de39c11146104115780633f4ba83a146104265761039f565b8063146252cb146103a457806319ab453c146103cf5761039f565b3661039f57600061031b6108ae565b90503373ffffffffffffffffffffffffffffffffffffffff82161461039c578073ffffffffffffffffffffffffffffffffffffffff1663d0e30db0346040518263ffffffff1660e01b81526004016000604051808303818588803b15801561038257600080fd5b505af1158015610396573d6000803e3d6000fd5b50505050505b50005b600080fd5b3480156103b057600080fd5b506103b96108cb565b6040516103c691906149ab565b60405180910390f35b3480156103db57600080fd5b506103ef6103ea366004614267565b610962565b005b3480156103fd57600080fd5b506103ef61040c366004614399565b610a90565b34801561041d57600080fd5b506103b9610c88565b34801561043257600080fd5b506103ef610d2d565b34801561044757600080fd5b506104506108ae565b6040516103c691906144ee565b34801561046957600080fd5b506103ef6104783660046142fb565b610e52565b6103ef61048b3660046143cb565b611199565b34801561049c57600080fd5b506103b96111a8565b3480156104b157600080fd5b506104506111b2565b3480156104c657600080fd5b506103b9611239565b3480156104db57600080fd5b506103b96104ea3660046143cb565b61123f565b3480156104fb57600080fd5b5061050461125a565b6040516103c69190614566565b34801561051d57600080fd5b506103ef61052c366004614267565b6112ed565b34801561053d57600080fd5b50610504611472565b34801561055257600080fd5b5061045061147b565b34801561056757600080fd5b50610570611497565b6040516103c69291906149b4565b34801561058a57600080fd5b506103ef6114b5565b34801561059f57600080fd5b506103ef6105ae366004614483565b6115cc565b3480156105bf57600080fd5b506103ef6105ce3660046143cb565b6115df565b6103ef6105e136600461442a565b6116e4565b3480156105f257600080fd5b506105fb611726565b6040516103c6929190614988565b34801561061557600080fd5b506103ef611757565b34801561062a57600080fd5b506103ef61063936600461429f565b61187b565b34801561064a57600080fd5b50610450611aa6565b34801561065f57600080fd5b506103b9611ac2565b34801561067457600080fd5b50610450611b5a565b34801561068957600080fd5b506103b9611b76565b34801561069e57600080fd5b506103b9611bf7565b3480156106b357600080fd5b506103b96106c23660046143cb565b611c22565b3480156106d357600080fd5b506103ef6106e236600461444b565b611c35565b3480156106f357600080fd5b506103ef610702366004614267565b611d8a565b34801561071357600080fd5b506103b96107223660046143cb565b611f0f565b34801561073357600080fd5b506103b96107423660046143cb565b611fca565b34801561075357600080fd5b506103b961208b565b34801561076857600080fd5b506103ef610777366004614267565b6120da565b34801561078857600080fd5b506103ef6107973660046143fb565b61225f565b3480156107a857600080fd5b506103ef6107b73660046144ae565b61274a565b3480156107c857600080fd5b506103ef6107d736600461442a565b6128da565b3480156107e857600080fd5b506103ef6107f7366004614483565b6128e6565b34801561080857600080fd5b506103ef6108173660046144ae565b6128f8565b6103ef61082a36600461442a565b612a80565b34801561083b57600080fd5b506103ef61084a366004614267565b612a8d565b34801561085b57600080fd5b50610450612c2f565b34801561087057600080fd5b506103ef61087f366004614267565b612c4b565b34801561089057600080fd5b506103b9612dd0565b3480156108a557600080fd5b506103b9612e1f565b609a5473ffffffffffffffffffffffffffffffffffffffff165b90565b60006108d5611b5a565b73ffffffffffffffffffffffffffffffffffffffff166370a08231306040518263ffffffff1660e01b815260040161090d91906144ee565b60206040518083038186803b15801561092557600080fd5b505afa158015610939573d6000803e3d6000fd5b505050506040513d601f19601f8201168201806040525081019061095d91906143e3565b905090565b600054610100900460ff168061097b575061097b612e2b565b80610989575060005460ff16155b6109de576040517f08c379a000000000000000000000000000000000000000000000000000000000815260040180806020018281038252602e815260200180614a53602e913960400191505060405180910390fd5b600054610100900460ff16158015610a4457600080547fffffffffffffffffffffffffffffffffffffffffffffffffffffffffffffff007fffffffffffffffffffffffffffffffffffffffffffffffffffffffffffff00ff909116610100171660011790555b610a4c612e3c565b610a5582612f4f565b610a5d6130d1565b8015610a8c57600080547fffffffffffffffffffffffffffffffffffffffffffffffffffffffffffff00ff1690555b5050565b610a9861320c565b73ffffffffffffffffffffffffffffffffffffffff16610ab6611aa6565b73ffffffffffffffffffffffffffffffffffffffff1614610b3857604080517f08c379a000000000000000000000000000000000000000000000000000000000815260206004820181905260248201527f4f776e61626c653a2063616c6c6572206973206e6f7420746865206f776e6572604482015290519081900360640190fd5b6fffffffffffffffffffffffffffffffff8216610b8a576040517f08c379a0000000000000000000000000000000000000000000000000000000008152600401610b8190614682565b60405180910390fd5b6fffffffffffffffffffffffffffffffff8116610bd3576040517f08c379a0000000000000000000000000000000000000000000000000000000008152600401610b8190614818565b609880546fffffffffffffffffffffffffffffffff838116700100000000000000000000000000000000028186167fffffffffffffffffffffffffffffffff000000000000000000000000000000009093169290921716179055610c3561320c565b73ffffffffffffffffffffffffffffffffffffffff167f9af9b815b340cc536d9c60d950fdae6e7d2932ec908595257787b6a7f4dec3728383604051610c7c929190614988565b60405180910390a25050565b600080610c93611ac2565b905080610caa57610ca2612dd0565b9150506108c8565b600080610cb5611726565b915091506000610ceb826fffffffffffffffffffffffffffffffff16610ce5670de0b6b3a7640000610ce56111a8565b90613210565b90506000610d17846fffffffffffffffffffffffffffffffff16610ce5610d10611239565b8890613210565b9050610d23828261328c565b9550505050505090565b610d3561320c565b73ffffffffffffffffffffffffffffffffffffffff16610d53611aa6565b73ffffffffffffffffffffffffffffffffffffffff1614610dd557604080517f08c379a000000000000000000000000000000000000000000000000000000000815260206004820181905260248201527f4f776e61626c653a2063616c6c6572206973206e6f7420746865206f776e6572604482015290519081900360640190fd5b610ddd611472565b610e4857604080517f08c379a000000000000000000000000000000000000000000000000000000000815260206004820152601460248201527f5061757361626c653a206e6f7420706175736564000000000000000000000000604482015290519081900360640190fd5b610e5061330d565b565b610e5a61320c565b73ffffffffffffffffffffffffffffffffffffffff16610e78611aa6565b73ffffffffffffffffffffffffffffffffffffffff1614610efa57604080517f08c379a000000000000000000000000000000000000000000000000000000000815260206004820181905260248201527f4f776e61626c653a2063616c6c6572206973206e6f7420746865206f776e6572604482015290519081900360640190fd5b6000610f0461320c565b8251609980547fffffffffffffffffffffffff00000000000000000000000000000000000000001673ffffffffffffffffffffffffffffffffffffffff92831690811790915560405192935091908316907f771296b6c631391f79de88226814060fdb511864a4e620f8085f4534f20b5f8490600090a36020820151609780547fffffffffffffffffffffffff00000000000000000000000000000000000000001673ffffffffffffffffffffffffffffffffffffffff92831690811790915560405190918316907f580c76d0bfa674377787c86b7e4910624b8de2f31c4f8284196ac7ce68a3a57b90600090a3604082810151609a80547fffffffffffffffffffffffff00000000000000000000000000000000000000001673ffffffffffffffffffffffffffffffffffffffff9283169081179091559151908316907f9cfa0588ff5ff3789d20735024d004bfb8db496d5117712e136adbfe97af41d790600090a360608201516098805460808501516fffffffffffffffffffffffffffffffff818116700100000000000000000000000000000000028186167fffffffffffffffffffffffffffffffff0000000000000000000000000000000090941693909317169190911790915560405173ffffffffffffffffffffffffffffffffffffffff8416927f9af9b815b340cc536d9c60d950fdae6e7d2932ec908595257787b6a7f4dec3729261111692614988565b60405180910390a260a0820151609b80547fffffffffffffffffffffffff00000000000000000000000000000000000000001673ffffffffffffffffffffffffffffffffffffffff92831690811790915560405190918316907f6a6385201509d23863582a062d6a56319bdf8ada59b6ce3239bbd1d22250fe2190600090a35050565b6111a5348260006133fb565b50565b60006108d56108ae565b60006111bc611b5a565b73ffffffffffffffffffffffffffffffffffffffff16635028db1a6040518163ffffffff1660e01b815260040160206040518083038186803b15801561120157600080fd5b505afa158015611215573d6000803e3d6000fd5b505050506040513d601f19601f8201168201806040525081019061095d9190614283565b61520890565b600061125261124c612dd0565b83613549565b90505b919050565b6000806000611267611497565b91509150806000141561127f576000925050506108c8565b60008161129484670de0b6b3a7640000613210565b8161129b57fe5b0490506000806112a9611726565b6fffffffffffffffffffffffffffffffff918216935016905060006112e0826112da85670de0b6b3a7640000613210565b9061328c565b9093109550505050505090565b6112f561320c565b73ffffffffffffffffffffffffffffffffffffffff16611313611aa6565b73ffffffffffffffffffffffffffffffffffffffff161461139557604080517f08c379a000000000000000000000000000000000000000000000000000000000815260206004820181905260248201527f4f776e61626c653a2063616c6c6572206973206e6f7420746865206f776e6572604482015290519081900360640190fd5b73ffffffffffffffffffffffffffffffffffffffff81166113e2576040517f08c379a0000000000000000000000000000000000000000000000000000000008152600401610b81906147aa565b609a80547fffffffffffffffffffffffff00000000000000000000000000000000000000001673ffffffffffffffffffffffffffffffffffffffff831690811790915561142d61320c565b73ffffffffffffffffffffffffffffffffffffffff167f9cfa0588ff5ff3789d20735024d004bfb8db496d5117712e136adbfe97af41d760405160405180910390a350565b60655460ff1690565b60975473ffffffffffffffffffffffffffffffffffffffff1690565b6000806114a26111a8565b91506114af6104ea611ac2565b90509091565b6114bd61320c565b73ffffffffffffffffffffffffffffffffffffffff166114db611aa6565b73ffffffffffffffffffffffffffffffffffffffff161461155d57604080517f08c379a000000000000000000000000000000000000000000000000000000000815260206004820181905260248201527f4f776e61626c653a2063616c6c6572206973206e6f7420746865206f776e6572604482015290519081900360640190fd5b60335460405160009173ffffffffffffffffffffffffffffffffffffffff16907f8be0079c531659141344cd1fd0a4f28419497f9722a3daafe3b4186f6b6457e0908390a3603380547fffffffffffffffffffffffff0000000000000000000000000000000000000000169055565b6115d98383836001613570565b50505050565b6115e761320c565b73ffffffffffffffffffffffffffffffffffffffff16611605611aa6565b73ffffffffffffffffffffffffffffffffffffffff161461168757604080517f08c379a000000000000000000000000000000000000000000000000000000000815260206004820181905260248201527f4f776e61626c653a2063616c6c6572206973206e6f7420746865206f776e6572604482015290519081900360640190fd5b609c81905561169461320c565b73ffffffffffffffffffffffffffffffffffffffff167fa9e9ffa60e6a2a0fe1ca05046c7566300a3e91f76827bc4dceb0fbf939b15878826040516116d991906149ab565b60405180910390a250565b3460006116f382858584613570565b90508082146115d9576115d981830361170a61320c565b73ffffffffffffffffffffffffffffffffffffffff169061370c565b6098546fffffffffffffffffffffffffffffffff808216927001000000000000000000000000000000009092041690565b61175f61320c565b73ffffffffffffffffffffffffffffffffffffffff1661177d611aa6565b73ffffffffffffffffffffffffffffffffffffffff16146117ff57604080517f08c379a000000000000000000000000000000000000000000000000000000000815260206004820181905260248201527f4f776e61626c653a2063616c6c6572206973206e6f7420746865206f776e6572604482015290519081900360640190fd5b611807611472565b1561187357604080517f08c379a000000000000000000000000000000000000000000000000000000000815260206004820152601060248201527f5061757361626c653a2070617573656400000000000000000000000000000000604482015290519081900360640190fd5b610e50613832565b61188361320c565b73ffffffffffffffffffffffffffffffffffffffff166118a1611aa6565b73ffffffffffffffffffffffffffffffffffffffff161461192357604080517f08c379a000000000000000000000000000000000000000000000000000000000815260206004820181905260248201527f4f776e61626c653a2063616c6c6572206973206e6f7420746865206f776e6572604482015290519081900360640190fd5b61192b6108ae565b73ffffffffffffffffffffffffffffffffffffffff168373ffffffffffffffffffffffffffffffffffffffff161415611990576040517f08c379a0000000000000000000000000000000000000000000000000000000008152600401610b81906148ac565b611998611b5a565b73ffffffffffffffffffffffffffffffffffffffff168373ffffffffffffffffffffffffffffffffffffffff1614156119fd576040517f08c379a0000000000000000000000000000000000000000000000000000000008152600401610b81906145df565b611a1e73ffffffffffffffffffffffffffffffffffffffff841683836138fa565b8173ffffffffffffffffffffffffffffffffffffffff168373ffffffffffffffffffffffffffffffffffffffff16611a5461320c565b73ffffffffffffffffffffffffffffffffffffffff167feaf4cea276efdcae93a52ca2f4bfdd952992169289bf655b1870a4b20bdae7d684604051611a9991906149ab565b60405180910390a4505050565b60335473ffffffffffffffffffffffffffffffffffffffff1690565b600061095d611acf6108cb565b611ad7611b5a565b73ffffffffffffffffffffffffffffffffffffffff166318160ddd6040518163ffffffff1660e01b815260040160206040518083038186803b158015611b1c57600080fd5b505afa158015611b30573d6000803e3d6000fd5b505050506040513d601f19601f82011682018060405250810190611b5491906143e3565b90613987565b60995473ffffffffffffffffffffffffffffffffffffffff1690565b6000806000611b83611497565b91509150600080611b92611726565b915091506000611bd3826fffffffffffffffffffffffffffffffff166112da856fffffffffffffffffffffffffffffffff168761321090919063ffffffff16565b905080851115611beb576000955050505050506108c8565b93909303935050505090565b600080611c02612dd0565b90506000611c0e610c88565b905080821115611c1c578091505b50905090565b6000611252611c2f612dd0565b836139fe565b8142811015611c70576040517f08c379a0000000000000000000000000000000000000000000000000000000008152600401610b8190614951565b611c7861147b565b73ffffffffffffffffffffffffffffffffffffffff16639e2437146040518163ffffffff1660e01b815260040160206040518083038186803b158015611cbd57600080fd5b505afa158015611cd1573d6000803e3d6000fd5b505050506040513d601f19601f82011682018060405250810190611cf591906142df565b15611d2c576040517f08c379a0000000000000000000000000000000000000000000000000000000008152600401610b8190614616565b83611d63576040517f08c379a0000000000000000000000000000000000000000000000000000000008152600401610b81906148e3565b6000611d6e85611fca565b9050611d83611d7b61320c565b868386613a5b565b5050505050565b611d9261320c565b73ffffffffffffffffffffffffffffffffffffffff16611db0611aa6565b73ffffffffffffffffffffffffffffffffffffffff1614611e3257604080517f08c379a000000000000000000000000000000000000000000000000000000000815260206004820181905260248201527f4f776e61626c653a2063616c6c6572206973206e6f7420746865206f776e6572604482015290519081900360640190fd5b73ffffffffffffffffffffffffffffffffffffffff8116611e7f576040517f08c379a0000000000000000000000000000000000000000000000000000000008152600401610b819061464d565b609780547fffffffffffffffffffffffff00000000000000000000000000000000000000001673ffffffffffffffffffffffffffffffffffffffff8316908117909155611eca61320c565b73ffffffffffffffffffffffffffffffffffffffff167f580c76d0bfa674377787c86b7e4910624b8de2f31c4f8284196ac7ce68a3a57b60405160405180910390a350565b600080611f23611f1d611bf7565b846139fe565b90506000611f2f6111b2565b73ffffffffffffffffffffffffffffffffffffffff1663063f384f611f5261320c565b30856040518463ffffffff1660e01b8152600401611f729392919061450f565b60206040518083038186803b158015611f8a57600080fd5b505afa158015611f9e573d6000803e3d6000fd5b505050506040513d601f19601f82011682018060405250810190611fc291906143e3565b949350505050565b600080611fd56111b2565b73ffffffffffffffffffffffffffffffffffffffff1663be3945e4611ff861320c565b30866040518463ffffffff1660e01b81526004016120189392919061450f565b60206040518083038186803b15801561203057600080fd5b505afa158015612044573d6000803e3d6000fd5b505050506040513d601f19601f8201168201806040525081019061206891906143e3565b9050612084612075611bf7565b61207f8584613987565b613549565b9392505050565b6000806000612098611726565b915091506120d3816fffffffffffffffffffffffffffffffff166112da846fffffffffffffffffffffffffffffffff16610ce56104ea611ac2565b9250505090565b6120e261320c565b73ffffffffffffffffffffffffffffffffffffffff16612100611aa6565b73ffffffffffffffffffffffffffffffffffffffff161461218257604080517f08c379a000000000000000000000000000000000000000000000000000000000815260206004820181905260248201527f4f776e61626c653a2063616c6c6572206973206e6f7420746865206f776e6572604482015290519081900360640190fd5b73ffffffffffffffffffffffffffffffffffffffff81166121cf576040517f08c379a0000000000000000000000000000000000000000000000000000000008152600401610b8190614571565b609b80547fffffffffffffffffffffffff00000000000000000000000000000000000000001673ffffffffffffffffffffffffffffffffffffffff831690811790915561221a61320c565b73ffffffffffffffffffffffffffffffffffffffff167f6a6385201509d23863582a062d6a56319bdf8ada59b6ce3239bbd1d22250fe2160405160405180910390a350565b612267611472565b156122d357604080517f08c379a000000000000000000000000000000000000000000000000000000000815260206004820152601060248201527f5061757361626c653a2070617573656400000000000000000000000000000000604482015290519081900360640190fd5b60006122dd61320c565b905060006122e9612c2f565b73ffffffffffffffffffffffffffffffffffffffff166318160ddd6040518163ffffffff1660e01b815260040160206040518083038186803b15801561232e57600080fd5b505afa158015612342573d6000803e3d6000fd5b505050506040513d601f19601f8201168201806040525081019061236691906143e3565b90508061239f576040517f08c379a0000000000000000000000000000000000000000000000000000000008152600401610b81906147e1565b836123d6576040517f08c379a0000000000000000000000000000000000000000000000000000000008152600401610b81906146df565b60006123ee826112da87610ce5609c54611b546111a8565b90506000612402600a6112da846006613210565b905061241a6124118383613987565b609c5490613b52565b609c5560006124ac846112da8961242f611b5a565b73ffffffffffffffffffffffffffffffffffffffff166318160ddd6040518163ffffffff1660e01b815260040160206040518083038186803b15801561247457600080fd5b505afa158015612488573d6000803e3d6000fd5b505050506040513d601f19601f82011682018060405250810190610ce591906143e3565b90506124b6612c2f565b73ffffffffffffffffffffffffffffffffffffffff166323b872dd86308a6040518463ffffffff1660e01b81526004016124f29392919061450f565b602060405180830381600087803b15801561250c57600080fd5b505af1158015612520573d6000803e3d6000fd5b505050506040513d601f19601f8201168201806040525081019061254491906142df565b5061254d612c2f565b73ffffffffffffffffffffffffffffffffffffffff166342966c68886040518263ffffffff1660e01b815260040161258591906149ab565b600060405180830381600087803b15801561259f57600080fd5b505af11580156125b3573d6000803e3d6000fd5b505050506125bf611b5a565b73ffffffffffffffffffffffffffffffffffffffff16639dc29fac30836040518363ffffffff1660e01b81526004016125f9929190614540565b600060405180830381600087803b15801561261357600080fd5b505af1158015612627573d6000803e3d6000fd5b5050505085156126605761265b858361263e6108ae565b73ffffffffffffffffffffffffffffffffffffffff1691906138fa565b6126f3565b6126686108ae565b73ffffffffffffffffffffffffffffffffffffffff16632e1a7d4d836040518263ffffffff1660e01b81526004016126a091906149ab565b600060405180830381600087803b1580156126ba57600080fd5b505af11580156126ce573d6000803e3d6000fd5b506126f39250505073ffffffffffffffffffffffffffffffffffffffff86168361370c565b8473ffffffffffffffffffffffffffffffffffffffff167f531e96b151122a1b2e097e7e7203d6466dc4446b561bff3725d08edd39e64eb88860405161273991906149ab565b60405180910390a250505050505050565b8142811015612785576040517f08c379a0000000000000000000000000000000000000000000000000000000008152600401610b8190614951565b61278d61147b565b73ffffffffffffffffffffffffffffffffffffffff16639e2437146040518163ffffffff1660e01b815260040160206040518083038186803b1580156127d257600080fd5b505afa1580156127e6573d6000803e3d6000fd5b505050506040513d601f19601f8201168201806040525081019061280a91906142df565b15612841576040517f08c379a0000000000000000000000000000000000000000000000000000000008152600401610b8190614616565b84612878576040517f08c379a0000000000000000000000000000000000000000000000000000000008152600401610b81906148e3565b600061288385611f0f565b9050858111156128bf576040517f08c379a0000000000000000000000000000000000000000000000000000000008152600401610b81906145a8565b6128d26128ca61320c565b828786613a5b565b505050505050565b610a8c828260016133fb565b6128f38383836001613bc6565b505050565b8142811015612933576040517f08c379a0000000000000000000000000000000000000000000000000000000008152600401610b8190614951565b61293b61147b565b73ffffffffffffffffffffffffffffffffffffffff16639e2437146040518163ffffffff1660e01b815260040160206040518083038186803b15801561298057600080fd5b505afa158015612994573d6000803e3d6000fd5b505050506040513d601f19601f820116820180604052508101906129b891906142df565b156129ef576040517f08c379a0000000000000000000000000000000000000000000000000000000008152600401610b8190614616565b84612a26576040517f08c379a0000000000000000000000000000000000000000000000000000000008152600401610b81906148e3565b6000612a3186611fca565b905084811015612a6d576040517f08c379a0000000000000000000000000000000000000000000000000000000008152600401610b8190614716565b6128d2612a7861320c565b878386613a5b565b610a8c3483836000613bc6565b612a9561320c565b73ffffffffffffffffffffffffffffffffffffffff16612ab3611aa6565b73ffffffffffffffffffffffffffffffffffffffff1614612b3557604080517f08c379a000000000000000000000000000000000000000000000000000000000815260206004820181905260248201527f4f776e61626c653a2063616c6c6572206973206e6f7420746865206f776e6572604482015290519081900360640190fd5b73ffffffffffffffffffffffffffffffffffffffff8116612ba1576040517f08c379a00000000000000000000000000000000000000000000000000000000081526004018080602001828103825260268152602001806149f36026913960400191505060405180910390fd5b60335460405173ffffffffffffffffffffffffffffffffffffffff8084169216907f8be0079c531659141344cd1fd0a4f28419497f9722a3daafe3b4186f6b6457e090600090a3603380547fffffffffffffffffffffffff00000000000000000000000000000000000000001673ffffffffffffffffffffffffffffffffffffffff92909216919091179055565b609b5473ffffffffffffffffffffffffffffffffffffffff1690565b612c5361320c565b73ffffffffffffffffffffffffffffffffffffffff16612c71611aa6565b73ffffffffffffffffffffffffffffffffffffffff1614612cf357604080517f08c379a000000000000000000000000000000000000000000000000000000000815260206004820181905260248201527f4f776e61626c653a2063616c6c6572206973206e6f7420746865206f776e6572604482015290519081900360640190fd5b73ffffffffffffffffffffffffffffffffffffffff8116612d40576040517f08c379a0000000000000000000000000000000000000000000000000000000008152600401610b8190614875565b609980547fffffffffffffffffffffffff00000000000000000000000000000000000000001673ffffffffffffffffffffffffffffffffffffffff8316908117909155612d8b61320c565b73ffffffffffffffffffffffffffffffffffffffff167f771296b6c631391f79de88226814060fdb511864a4e620f8085f4534f20b5f8460405160405180910390a350565b6000612dda61147b565b73ffffffffffffffffffffffffffffffffffffffff1663fe173b976040518163ffffffff1660e01b815260040160206040518083038186803b15801561092557600080fd5b609c5490565b3b151590565b6000612e3630612e25565b15905090565b600054610100900460ff1680612e555750612e55612e2b565b80612e63575060005460ff16155b612eb8576040517f08c379a000000000000000000000000000000000000000000000000000000000815260040180806020018281038252602e815260200180614a53602e913960400191505060405180910390fd5b600054610100900460ff16158015612f1e57600080547fffffffffffffffffffffffffffffffffffffffffffffffffffffffffffffff007fffffffffffffffffffffffffffffffffffffffffffffffffffffffffffff00ff909116610100171660011790555b80156111a557600080547fffffffffffffffffffffffffffffffffffffffffffffffffffffffffffff00ff16905550565b600054610100900460ff1680612f685750612f68612e2b565b80612f76575060005460ff16155b612fcb576040517f08c379a000000000000000000000000000000000000000000000000000000000815260040180806020018281038252602e815260200180614a53602e913960400191505060405180910390fd5b600054610100900460ff1615801561303157600080547fffffffffffffffffffffffffffffffffffffffffffffffffffffffffffffff007fffffffffffffffffffffffffffffffffffffffffffffffffffffffffffff00ff909116610100171660011790555b603380547fffffffffffffffffffffffff00000000000000000000000000000000000000001673ffffffffffffffffffffffffffffffffffffffff84169081179091556040516000907f8be0079c531659141344cd1fd0a4f28419497f9722a3daafe3b4186f6b6457e0908290a38015610a8c57600080547fffffffffffffffffffffffffffffffffffffffffffffffffffffffffffff00ff1690555050565b600054610100900460ff16806130ea57506130ea612e2b565b806130f8575060005460ff16155b61314d576040517f08c379a000000000000000000000000000000000000000000000000000000000815260040180806020018281038252602e815260200180614a53602e913960400191505060405180910390fd5b600054610100900460ff161580156131b357600080547fffffffffffffffffffffffffffffffffffffffffffffffffffffffffffffff007fffffffffffffffffffffffffffffffffffffffffffffffffffffffffffff00ff909116610100171660011790555b606580547fffffffffffffffffffffffffffffffffffffffffffffffffffffffffffffff0016905580156111a557600080547fffffffffffffffffffffffffffffffffffffffffffffffffffffffffffff00ff16905550565b3390565b60008261321f57506000613286565b8282028284828161322c57fe5b0414613283576040517f08c379a0000000000000000000000000000000000000000000000000000000008152600401808060200182810382526021815260200180614a816021913960400191505060405180910390fd5b90505b92915050565b60008082116132fc57604080517f08c379a000000000000000000000000000000000000000000000000000000000815260206004820152601a60248201527f536166654d6174683a206469766973696f6e206279207a65726f000000000000604482015290519081900360640190fd5b81838161330557fe5b049392505050565b613315611472565b61338057604080517f08c379a000000000000000000000000000000000000000000000000000000000815260206004820152601460248201527f5061757361626c653a206e6f7420706175736564000000000000000000000000604482015290519081900360640190fd5b606580547fffffffffffffffffffffffffffffffffffffffffffffffffffffffffffffff001690557f5db9ee0a495bf2e6ff9c91a7834c1ba4fdd244a5e8aa4e537bd38aeae4b073aa6133d161320c565b6040805173ffffffffffffffffffffffffffffffffffffffff9092168252519081900360200190a1565b8142811015613436576040517f08c379a0000000000000000000000000000000000000000000000000000000008152600401610b8190614951565b61343e61147b565b73ffffffffffffffffffffffffffffffffffffffff16639e2437146040518163ffffffff1660e01b815260040160206040518083038186803b15801561348357600080fd5b505afa158015613497573d6000803e3d6000fd5b505050506040513d601f19601f820116820180604052508101906134bb91906142df565b156134f2576040517f08c379a0000000000000000000000000000000000000000000000000000000008152600401610b8190614616565b83613529576040517f08c379a0000000000000000000000000000000000000000000000000000000008152600401610b81906148e3565b600061353485611c22565b9050611d8361354161320c565b868386613d4a565b6000670de0b6b3a764000061356961355f611239565b610ce58686613210565b8161330557fe5b600082428110156135ad576040517f08c379a0000000000000000000000000000000000000000000000000000000008152600401610b8190614951565b6135b561147b565b73ffffffffffffffffffffffffffffffffffffffff16639e2437146040518163ffffffff1660e01b815260040160206040518083038186803b1580156135fa57600080fd5b505afa15801561360e573d6000803e3d6000fd5b505050506040513d601f19601f8201168201806040525081019061363291906142df565b15613669576040517f08c379a0000000000000000000000000000000000000000000000000000000008152600401610b8190614616565b856136a0576040517f08c379a0000000000000000000000000000000000000000000000000000000008152600401610b81906148e3565b6136b460016136ae8761123f565b90613b52565b9150858211156136f0576040517f08c379a0000000000000000000000000000000000000000000000000000000008152600401610b81906145a8565b6137036136fb61320c565b838786613d4a565b50949350505050565b8047101561377b57604080517f08c379a000000000000000000000000000000000000000000000000000000000815260206004820152601d60248201527f416464726573733a20696e73756666696369656e742062616c616e6365000000604482015290519081900360640190fd5b60405160009073ffffffffffffffffffffffffffffffffffffffff84169083908381818185875af1925050503d80600081146137d3576040519150601f19603f3d011682016040523d82523d6000602084013e6137d8565b606091505b50509050806128f3576040517f08c379a000000000000000000000000000000000000000000000000000000000815260040180806020018281038252603a815260200180614a19603a913960400191505060405180910390fd5b61383a611472565b156138a657604080517f08c379a000000000000000000000000000000000000000000000000000000000815260206004820152601060248201527f5061757361626c653a2070617573656400000000000000000000000000000000604482015290519081900360640190fd5b606580547fffffffffffffffffffffffffffffffffffffffffffffffffffffffffffffff001660011790557f62e78cea01bee320cd4e420270b5ea74000d11b0c9f74754ebdbfc544b05a2586133d161320c565b6040805173ffffffffffffffffffffffffffffffffffffffff8416602482015260448082018490528251808303909101815260649091019091526020810180517bffffffffffffffffffffffffffffffffffffffffffffffffffffffff167fa9059cbb000000000000000000000000000000000000000000000000000000001790526128f3908490613ea7565b6000828211156139f857604080517f08c379a000000000000000000000000000000000000000000000000000000000815260206004820152601e60248201527f536166654d6174683a207375627472616374696f6e206f766572666c6f770000604482015290519081900360640190fd5b50900390565b600082613a37576040517f08c379a0000000000000000000000000000000000000000000000000000000008152600401610b819061491a565b613a49613a42611239565b8490613210565b61356983670de0b6b3a7640000613210565b613a87843085613a69611b5a565b73ffffffffffffffffffffffffffffffffffffffff16929190613f7f565b6000613a9583611b546111a8565b905080609c541115613aa757609c8190555b8115613abf57613aba858461263e6108ae565b611d83565b613ac76108ae565b73ffffffffffffffffffffffffffffffffffffffff16632e1a7d4d846040518263ffffffff1660e01b8152600401613aff91906149ab565b600060405180830381600087803b158015613b1957600080fd5b505af1158015613b2d573d6000803e3d6000fd5b50611d839250505073ffffffffffffffffffffffffffffffffffffffff86168461370c565b60008282018381101561328357604080517f08c379a000000000000000000000000000000000000000000000000000000000815260206004820152601b60248201527f536166654d6174683a206164646974696f6e206f766572666c6f770000000000604482015290519081900360640190fd5b8142811015613c01576040517f08c379a0000000000000000000000000000000000000000000000000000000008152600401610b8190614951565b613c0961147b565b73ffffffffffffffffffffffffffffffffffffffff16639e2437146040518163ffffffff1660e01b815260040160206040518083038186803b158015613c4e57600080fd5b505afa158015613c62573d6000803e3d6000fd5b505050506040513d601f19601f82011682018060405250810190613c8691906142df565b15613cbd576040517f08c379a0000000000000000000000000000000000000000000000000000000008152600401610b8190614616565b84613cf4576040517f08c379a0000000000000000000000000000000000000000000000000000000008152600401610b81906148e3565b6000613cff86611c22565b905084811015613d3b576040517f08c379a0000000000000000000000000000000000000000000000000000000008152600401610b8190614716565b6128d2613d4661320c565b8783865b6000613d54611b5a565b73ffffffffffffffffffffffffffffffffffffffff166370a08231306040518263ffffffff1660e01b8152600401613d8c91906144ee565b60206040518083038186803b158015613da457600080fd5b505afa158015613db8573d6000803e3d6000fd5b505050506040513d601f19601f82011682018060405250810190613ddc91906143e3565b905082811015613e18576040517f08c379a0000000000000000000000000000000000000000000000000000000008152600401610b819061474d565b8115613e3157613e2c853086613a696108ae565b613e9a565b613e396108ae565b73ffffffffffffffffffffffffffffffffffffffff1663d0e30db0856040518263ffffffff1660e01b81526004016000604051808303818588803b158015613e8057600080fd5b505af1158015613e94573d6000803e3d6000fd5b50505050505b611d83858461263e611b5a565b6000613f09826040518060400160405280602081526020017f5361666545524332303a206c6f772d6c6576656c2063616c6c206661696c65648152508573ffffffffffffffffffffffffffffffffffffffff166140149092919063ffffffff16565b8051909150156128f357808060200190516020811015613f2857600080fd5b50516128f3576040517f08c379a000000000000000000000000000000000000000000000000000000000815260040180806020018281038252602a815260200180614aa2602a913960400191505060405180910390fd5b6040805173ffffffffffffffffffffffffffffffffffffffff80861660248301528416604482015260648082018490528251808303909101815260849091019091526020810180517bffffffffffffffffffffffffffffffffffffffffffffffffffffffff167f23b872dd000000000000000000000000000000000000000000000000000000001790526115d9908590613ea7565b6060611fc284846000858561402885612e25565b61409357604080517f08c379a000000000000000000000000000000000000000000000000000000000815260206004820152601d60248201527f416464726573733a2063616c6c20746f206e6f6e2d636f6e7472616374000000604482015290519081900360640190fd5b6000808673ffffffffffffffffffffffffffffffffffffffff1685876040518082805190602001908083835b602083106140fc57805182527fffffffffffffffffffffffffffffffffffffffffffffffffffffffffffffffe090920191602091820191016140bf565b6001836020036101000a03801982511681845116808217855250505050505090500191505060006040518083038185875af1925050503d806000811461415e576040519150601f19603f3d011682016040523d82523d6000602084013e614163565b606091505b509150915061417382828661417e565b979650505050505050565b6060831561418d575081612084565b82511561419d5782518084602001fd5b816040517f08c379a00000000000000000000000000000000000000000000000000000000081526004018080602001828103825283818151815260200191508051906020019080838360005b838110156142015781810151838201526020016141e9565b50505050905090810190601f16801561422e5780820380516001836020036101000a031916815260200191505b509250505060405180910390fd5b8035611255816149c2565b80356fffffffffffffffffffffffffffffffff8116811461125557600080fd5b600060208284031215614278578081fd5b8135613283816149c2565b600060208284031215614294578081fd5b8151613283816149c2565b6000806000606084860312156142b3578182fd5b83356142be816149c2565b925060208401356142ce816149c2565b929592945050506040919091013590565b6000602082840312156142f0578081fd5b8151613283816149e4565b600060c0828403121561430c578081fd5b60405160c0810181811067ffffffffffffffff8211171561432957fe5b6040528235614337816149c2565b81526020830135614347816149c2565b6020820152604083013561435a816149c2565b604082015261436b60608401614247565b606082015261437c60808401614247565b608082015261438d60a0840161423c565b60a08201529392505050565b600080604083850312156143ab578182fd5b6143b483614247565b91506143c260208401614247565b90509250929050565b6000602082840312156143dc578081fd5b5035919050565b6000602082840312156143f4578081fd5b5051919050565b6000806040838503121561440d578182fd5b82359150602083013561441f816149e4565b809150509250929050565b6000806040838503121561443c578182fd5b50508035926020909101359150565b60008060006060848603121561445f578283fd5b83359250602084013591506040840135614478816149e4565b809150509250925092565b600080600060608486031215614497578283fd5b505081359360208301359350604090920135919050565b600080600080608085870312156144c3578081fd5b84359350602085013592506040850135915060608501356144e3816149e4565b939692955090935050565b73ffffffffffffffffffffffffffffffffffffffff91909116815260200190565b73ffffffffffffffffffffffffffffffffffffffff9384168152919092166020820152604081019190915260600190565b73ffffffffffffffffffffffffffffffffffffffff929092168252602082015260400190565b901515815260200190565b6020808252601c908201527f4554487478414d4d3a204554486d78207a65726f206164647265737300000000604082015260600190565b6020808252601e908201527f4554487478414d4d3a20616d6f756e74496e2065786365656473206d61780000604082015260600190565b6020808252601e908201527f4554487478414d4d3a2063616e6e6f74207265636f7665722045544874780000604082015260600190565b6020808252601f908201527f4554487478414d4d3a20676173207072696365206973206f7574646174656400604082015260600190565b6020808252818101527f4554487478414d4d3a206761734f7261636c65207a65726f2061646472657373604082015260600190565b60208082526028908201527f4554487478414d4d3a2074617267657443526174696f206e756d657261746f7260408201527f206973207a65726f000000000000000000000000000000000000000000000000606082015260800190565b60208082526015908201527f4554487478414d4d3a207a65726f20616d6f756e740000000000000000000000604082015260600190565b6020808252601d908201527f4554487478414d4d3a20616d6f756e744f75742062656c6f77206d696e000000604082015260600190565b60208082526024908201527f4554487478414d4d3a206e6f7420656e6f75676820455448747820617661696c60408201527f61626c6500000000000000000000000000000000000000000000000000000000606082015260800190565b6020808252601b908201527f4554487478414d4d3a2057455448207a65726f20616464726573730000000000604082015260600190565b60208082526019908201527f4554487478414d4d3a206e6f204554486d7820737570706c7900000000000000604082015260600190565b6020808252602a908201527f4554487478414d4d3a2074617267657443526174696f2064656e6f6d696e617460408201527f6f72206973207a65726f00000000000000000000000000000000000000000000606082015260800190565b6020808252601c908201527f4554487478414d4d3a204554487478207a65726f206164647265737300000000604082015260600190565b6020808252601d908201527f4554487478414d4d3a2063616e6e6f74207265636f7665722057455448000000604082015260600190565b6020808252601a908201527f4554487478414d4d3a2063616e6e6f742073776170207a65726f000000000000604082015260600190565b6020808252601a908201527f4554487478414d4d3a206761735072696365206973207a65726f000000000000604082015260600190565b60208082526011908201527f4554487478414d4d3a2065787069726564000000000000000000000000000000604082015260600190565b6fffffffffffffffffffffffffffffffff92831681529116602082015260400190565b90815260200190565b918252602082015260400190565b73ffffffffffffffffffffffffffffffffffffffff811681146111a557600080fd5b80151581146111a557600080fdfe4f776e61626c653a206e6577206f776e657220697320746865207a65726f2061646472657373416464726573733a20756e61626c6520746f2073656e642076616c75652c20726563697069656e74206d61792068617665207265766572746564496e697469616c697a61626c653a20636f6e747261637420697320616c726561647920696e697469616c697a6564536166654d6174683a206d756c7469706c69636174696f6e206f766572666c6f775361666545524332303a204552433230206f7065726174696f6e20646964206e6f742073756363656564a2646970667358221220c04c23098a3f487e735a370e05ea93e95f584b98c0fbce576b30a49aaf4949f964736f6c63430007060033496e697469616c697a61626c653a20636f6e747261637420697320616c726561647920696e697469616c697a6564",
  "devdoc": {
    "kind": "dev",
    "methods": {
      "owner()": {
        "details": "Returns the address of the current owner."
      },
      "paused()": {
        "details": "Returns true if the contract is paused, and false otherwise."
      },
      "renounceOwnership()": {
        "details": "Leaves the contract without owner. It will not be possible to call `onlyOwner` functions anymore. Can only be called by the current owner. NOTE: Renouncing ownership will leave the contract without an owner, thereby removing any functionality that is only available to the owner."
      },
      "transferOwnership(address)": {
        "details": "Transfers ownership of the contract to a new account (`newOwner`). Can only be called by the current owner."
      }
    },
    "version": 1
  },
  "userdoc": {
    "kind": "user",
    "methods": {},
    "version": 1
  },
  "storageLayout": {
    "storage": [
      {
        "astId": 6,
        "contract": "contracts/exchanges/ETHtxAMM/ETHtxAMM.sol:ETHtxAMM",
        "label": "_initialized",
        "offset": 0,
        "slot": "0",
        "type": "t_bool"
      },
      {
        "astId": 9,
        "contract": "contracts/exchanges/ETHtxAMM/ETHtxAMM.sol:ETHtxAMM",
        "label": "_initializing",
        "offset": 1,
        "slot": "0",
        "type": "t_bool"
      },
      {
        "astId": 353,
        "contract": "contracts/exchanges/ETHtxAMM/ETHtxAMM.sol:ETHtxAMM",
        "label": "__gap",
        "offset": 0,
        "slot": "1",
        "type": "t_array(t_uint256)50_storage"
      },
      {
        "astId": 3948,
        "contract": "contracts/exchanges/ETHtxAMM/ETHtxAMM.sol:ETHtxAMM",
        "label": "_owner",
        "offset": 0,
        "slot": "51",
        "type": "t_address"
      },
      {
        "astId": 4067,
        "contract": "contracts/exchanges/ETHtxAMM/ETHtxAMM.sol:ETHtxAMM",
        "label": "__gap",
        "offset": 0,
        "slot": "52",
        "type": "t_array(t_uint256)49_storage"
      },
      {
        "astId": 375,
        "contract": "contracts/exchanges/ETHtxAMM/ETHtxAMM.sol:ETHtxAMM",
        "label": "_paused",
        "offset": 0,
        "slot": "101",
        "type": "t_bool"
      },
      {
        "astId": 466,
        "contract": "contracts/exchanges/ETHtxAMM/ETHtxAMM.sol:ETHtxAMM",
        "label": "__gap",
        "offset": 0,
        "slot": "102",
        "type": "t_array(t_uint256)49_storage"
      },
      {
        "astId": 8131,
        "contract": "contracts/exchanges/ETHtxAMM/ETHtxAMM.sol:ETHtxAMM",
        "label": "_gasOracle",
        "offset": 0,
        "slot": "151",
        "type": "t_address"
      },
      {
        "astId": 8133,
        "contract": "contracts/exchanges/ETHtxAMM/ETHtxAMM.sol:ETHtxAMM",
        "label": "_targetCRatioNum",
        "offset": 0,
        "slot": "152",
        "type": "t_uint128"
      },
      {
        "astId": 8135,
        "contract": "contracts/exchanges/ETHtxAMM/ETHtxAMM.sol:ETHtxAMM",
        "label": "_targetCRatioDen",
        "offset": 16,
        "slot": "152",
        "type": "t_uint128"
      },
      {
        "astId": 8137,
        "contract": "contracts/exchanges/ETHtxAMM/ETHtxAMM.sol:ETHtxAMM",
        "label": "_ethtx",
        "offset": 0,
        "slot": "153",
        "type": "t_address"
      },
      {
        "astId": 8139,
        "contract": "contracts/exchanges/ETHtxAMM/ETHtxAMM.sol:ETHtxAMM",
        "label": "_weth",
        "offset": 0,
        "slot": "154",
        "type": "t_address"
      },
      {
        "astId": 8141,
        "contract": "contracts/exchanges/ETHtxAMM/ETHtxAMM.sol:ETHtxAMM",
        "label": "_ethmx",
        "offset": 0,
        "slot": "155",
        "type": "t_address"
      },
      {
        "astId": 8143,
        "contract": "contracts/exchanges/ETHtxAMM/ETHtxAMM.sol:ETHtxAMM",
        "label": "_geth",
        "offset": 0,
        "slot": "156",
        "type": "t_uint256"
      },
      {
        "astId": 8147,
        "contract": "contracts/exchanges/ETHtxAMM/ETHtxAMM.sol:ETHtxAMM",
        "label": "__gap",
        "offset": 0,
        "slot": "157",
        "type": "t_array(t_uint256)44_storage"
      }
    ],
    "types": {
      "t_address": {
        "encoding": "inplace",
        "label": "address",
        "numberOfBytes": "20"
      },
      "t_array(t_uint256)44_storage": {
        "base": "t_uint256",
        "encoding": "inplace",
        "label": "uint256[44]",
        "numberOfBytes": "1408"
      },
      "t_array(t_uint256)49_storage": {
        "base": "t_uint256",
        "encoding": "inplace",
        "label": "uint256[49]",
        "numberOfBytes": "1568"
      },
      "t_array(t_uint256)50_storage": {
        "base": "t_uint256",
        "encoding": "inplace",
        "label": "uint256[50]",
        "numberOfBytes": "1600"
      },
      "t_bool": {
        "encoding": "inplace",
        "label": "bool",
        "numberOfBytes": "1"
      },
      "t_uint128": {
        "encoding": "inplace",
        "label": "uint128",
        "numberOfBytes": "16"
      },
      "t_uint256": {
        "encoding": "inplace",
        "label": "uint256",
        "numberOfBytes": "32"
      }
    }
  }
}