{
  "address": "0x2Ab1D1E9a5195F774F9CDC6F63D29C0eB97D9953",
  "abi": [
    {
      "inputs": [
        {
          "internalType": "address",
          "name": "owner_",
          "type": "address"
        }
      ],
      "stateMutability": "nonpayable",
      "type": "constructor"
    },
    {
      "anonymous": false,
      "inputs": [
        {
          "indexed": true,
          "internalType": "address",
          "name": "owner",
          "type": "address"
        },
        {
          "indexed": true,
          "internalType": "address",
          "name": "spender",
          "type": "address"
        },
        {
          "indexed": false,
          "internalType": "uint256",
          "name": "value",
          "type": "uint256"
        }
      ],
      "name": "Approval",
      "type": "event"
    },
    {
      "anonymous": false,
      "inputs": [
        {
          "indexed": true,
          "internalType": "address",
          "name": "author",
          "type": "address"
        },
        {
          "indexed": true,
          "internalType": "address",
          "name": "account",
          "type": "address"
        }
      ],
      "name": "FeeLogicSet",
      "type": "event"
    },
    {
      "anonymous": false,
      "inputs": [
        {
          "indexed": true,
          "internalType": "address",
          "name": "author",
          "type": "address"
        },
        {
          "indexed": true,
          "internalType": "address",
          "name": "account",
          "type": "address"
        }
      ],
      "name": "MinterSet",
      "type": "event"
    },
    {
      "anonymous": false,
      "inputs": [
        {
          "indexed": true,
          "internalType": "address",
          "name": "previousOwner",
          "type": "address"
        },
        {
          "indexed": true,
          "internalType": "address",
          "name": "newOwner",
          "type": "address"
        }
      ],
      "name": "OwnershipTransferred",
      "type": "event"
    },
    {
      "anonymous": false,
      "inputs": [
        {
          "indexed": false,
          "internalType": "address",
          "name": "account",
          "type": "address"
        }
      ],
      "name": "Paused",
      "type": "event"
    },
    {
      "anonymous": false,
      "inputs": [
        {
          "indexed": true,
          "internalType": "address",
          "name": "author",
          "type": "address"
        },
        {
          "indexed": true,
          "internalType": "address",
          "name": "token",
          "type": "address"
        },
        {
          "indexed": true,
          "internalType": "address",
          "name": "to",
          "type": "address"
        },
        {
          "indexed": false,
          "internalType": "uint256",
          "name": "amount",
          "type": "uint256"
        }
      ],
      "name": "Recovered",
      "type": "event"
    },
    {
      "anonymous": false,
      "inputs": [
        {
          "indexed": true,
          "internalType": "address",
          "name": "from",
          "type": "address"
        },
        {
          "indexed": true,
          "internalType": "address",
          "name": "to",
          "type": "address"
        },
        {
          "indexed": false,
          "internalType": "uint256",
          "name": "value",
          "type": "uint256"
        }
      ],
      "name": "Transfer",
      "type": "event"
    },
    {
      "anonymous": false,
      "inputs": [
        {
          "indexed": false,
          "internalType": "address",
          "name": "account",
          "type": "address"
        }
      ],
      "name": "Unpaused",
      "type": "event"
    },
    {
      "inputs": [
        {
          "internalType": "address",
          "name": "owner",
          "type": "address"
        },
        {
          "internalType": "address",
          "name": "spender",
          "type": "address"
        }
      ],
      "name": "allowance",
      "outputs": [
        {
          "internalType": "uint256",
          "name": "",
          "type": "uint256"
        }
      ],
      "stateMutability": "view",
      "type": "function"
    },
    {
      "inputs": [
        {
          "internalType": "address",
          "name": "spender",
          "type": "address"
        },
        {
          "internalType": "uint256",
          "name": "amount",
          "type": "uint256"
        }
      ],
      "name": "approve",
      "outputs": [
        {
          "internalType": "bool",
          "name": "",
          "type": "bool"
        }
      ],
      "stateMutability": "nonpayable",
      "type": "function"
    },
    {
      "inputs": [
        {
          "internalType": "address",
          "name": "account",
          "type": "address"
        }
      ],
      "name": "balanceOf",
      "outputs": [
        {
          "internalType": "uint256",
          "name": "",
          "type": "uint256"
        }
      ],
      "stateMutability": "view",
      "type": "function"
    },
    {
      "inputs": [
        {
          "internalType": "address",
          "name": "account",
          "type": "address"
        },
        {
          "internalType": "uint256",
          "name": "amount",
          "type": "uint256"
        }
      ],
      "name": "burn",
      "outputs": [],
      "stateMutability": "nonpayable",
      "type": "function"
    },
    {
      "inputs": [],
      "name": "decimals",
      "outputs": [
        {
          "internalType": "uint8",
          "name": "",
          "type": "uint8"
        }
      ],
      "stateMutability": "view",
      "type": "function"
    },
    {
      "inputs": [
        {
          "internalType": "address",
          "name": "spender",
          "type": "address"
        },
        {
          "internalType": "uint256",
          "name": "subtractedValue",
          "type": "uint256"
        }
      ],
      "name": "decreaseAllowance",
      "outputs": [
        {
          "internalType": "bool",
          "name": "",
          "type": "bool"
        }
      ],
      "stateMutability": "nonpayable",
      "type": "function"
    },
    {
      "inputs": [],
      "name": "feeLogic",
      "outputs": [
        {
          "internalType": "address",
          "name": "",
          "type": "address"
        }
      ],
      "stateMutability": "view",
      "type": "function"
    },
    {
      "inputs": [
        {
          "internalType": "address",
          "name": "spender",
          "type": "address"
        },
        {
          "internalType": "uint256",
          "name": "addedValue",
          "type": "uint256"
        }
      ],
      "name": "increaseAllowance",
      "outputs": [
        {
          "internalType": "bool",
          "name": "",
          "type": "bool"
        }
      ],
      "stateMutability": "nonpayable",
      "type": "function"
    },
    {
      "inputs": [
        {
          "internalType": "address",
          "name": "owner_",
          "type": "address"
        }
      ],
      "name": "init",
      "outputs": [],
      "stateMutability": "nonpayable",
      "type": "function"
    },
    {
      "inputs": [
        {
          "internalType": "address",
          "name": "account",
          "type": "address"
        },
        {
          "internalType": "uint256",
          "name": "amount",
          "type": "uint256"
        }
      ],
      "name": "mint",
      "outputs": [],
      "stateMutability": "nonpayable",
      "type": "function"
    },
    {
      "inputs": [],
      "name": "minter",
      "outputs": [
        {
          "internalType": "address",
          "name": "",
          "type": "address"
        }
      ],
      "stateMutability": "view",
      "type": "function"
    },
    {
      "inputs": [],
      "name": "name",
      "outputs": [
        {
          "internalType": "string",
          "name": "",
          "type": "string"
        }
      ],
      "stateMutability": "view",
      "type": "function"
    },
    {
      "inputs": [],
      "name": "owner",
      "outputs": [
        {
          "internalType": "address",
          "name": "",
          "type": "address"
        }
      ],
      "stateMutability": "view",
      "type": "function"
    },
    {
      "inputs": [],
      "name": "pause",
      "outputs": [],
      "stateMutability": "nonpayable",
      "type": "function"
    },
    {
      "inputs": [],
      "name": "paused",
      "outputs": [
        {
          "internalType": "bool",
          "name": "",
          "type": "bool"
        }
      ],
      "stateMutability": "view",
      "type": "function"
    },
    {
      "inputs": [
        {
          "components": [
            {
              "internalType": "address",
              "name": "feeLogic",
              "type": "address"
            },
            {
              "internalType": "address",
              "name": "minter",
              "type": "address"
            }
          ],
          "internalType": "struct ETHtx.ETHtxArgs",
          "name": "_args",
          "type": "tuple"
        }
      ],
      "name": "postInit",
      "outputs": [],
      "stateMutability": "nonpayable",
      "type": "function"
    },
    {
      "inputs": [
        {
          "internalType": "address",
          "name": "token",
          "type": "address"
        },
        {
          "internalType": "address",
          "name": "to",
          "type": "address"
        },
        {
          "internalType": "uint256",
          "name": "amount",
          "type": "uint256"
        }
      ],
      "name": "recoverERC20",
      "outputs": [],
      "stateMutability": "nonpayable",
      "type": "function"
    },
    {
      "inputs": [],
      "name": "renounceOwnership",
      "outputs": [],
      "stateMutability": "nonpayable",
      "type": "function"
    },
    {
      "inputs": [
        {
          "internalType": "address",
          "name": "account",
          "type": "address"
        }
      ],
      "name": "setFeeLogic",
      "outputs": [],
      "stateMutability": "nonpayable",
      "type": "function"
    },
    {
      "inputs": [
        {
          "internalType": "address",
          "name": "account",
          "type": "address"
        }
      ],
      "name": "setMinter",
      "outputs": [],
      "stateMutability": "nonpayable",
      "type": "function"
    },
    {
      "inputs": [],
      "name": "symbol",
      "outputs": [
        {
          "internalType": "string",
          "name": "",
          "type": "string"
        }
      ],
      "stateMutability": "view",
      "type": "function"
    },
    {
      "inputs": [],
      "name": "totalSupply",
      "outputs": [
        {
          "internalType": "uint256",
          "name": "",
          "type": "uint256"
        }
      ],
      "stateMutability": "view",
      "type": "function"
    },
    {
      "inputs": [
        {
          "internalType": "address",
          "name": "recipient",
          "type": "address"
        },
        {
          "internalType": "uint256",
          "name": "amount",
          "type": "uint256"
        }
      ],
      "name": "transfer",
      "outputs": [
        {
          "internalType": "bool",
          "name": "",
          "type": "bool"
        }
      ],
      "stateMutability": "nonpayable",
      "type": "function"
    },
    {
      "inputs": [
        {
          "internalType": "address",
          "name": "sender",
          "type": "address"
        },
        {
          "internalType": "address",
          "name": "recipient",
          "type": "address"
        },
        {
          "internalType": "uint256",
          "name": "amount",
          "type": "uint256"
        }
      ],
      "name": "transferFrom",
      "outputs": [
        {
          "internalType": "bool",
          "name": "",
          "type": "bool"
        }
      ],
      "stateMutability": "nonpayable",
      "type": "function"
    },
    {
      "inputs": [
        {
          "internalType": "address",
          "name": "newOwner",
          "type": "address"
        }
      ],
      "name": "transferOwnership",
      "outputs": [],
      "stateMutability": "nonpayable",
      "type": "function"
    },
    {
      "inputs": [],
      "name": "unpause",
      "outputs": [],
      "stateMutability": "nonpayable",
      "type": "function"
    }
  ],
  "transactionHash": "0x2e44d543bf31cc490926df7ab1dd5b4f1dce1aa545627f1684e1512c0ebb7add",
  "args": [
    "0x5757Dd711EaE80e181E07CdbCe43359Ac1048394"
  ],
  "solcInputHash": "dce8ce70f69a6af015380cad047f4734",
  "bytecode": "0x60806040523480156200001157600080fd5b506040516200242438038062002424833981016040819052620000349162000384565b6200003f8162000046565b50620003b4565b600054610100900460ff16806200006257506200006262000110565b8062000071575060005460ff16155b620000ae5760405162461bcd60e51b815260040180806020018281038252602e815260200180620023f6602e913960400191505060405180910390fd5b600054610100900460ff16158015620000da576000805460ff1961ff0019909116610100171660011790555b620000e46200012e565b620000ef82620001d8565b620000f9620002cb565b80156200010c576000805461ff00191690555b5050565b600062000128306200037e60201b62000e3f1760201c565b15905090565b600054610100900460ff16806200014a57506200014a62000110565b8062000159575060005460ff16155b620001965760405162461bcd60e51b815260040180806020018281038252602e815260200180620023f6602e913960400191505060405180910390fd5b600054610100900460ff16158015620001c2576000805460ff1961ff0019909116610100171660011790555b8015620001d5576000805461ff00191690555b50565b600054610100900460ff1680620001f45750620001f462000110565b8062000203575060005460ff16155b620002405760405162461bcd60e51b815260040180806020018281038252602e815260200180620023f6602e913960400191505060405180910390fd5b600054610100900460ff161580156200026c576000805460ff1961ff0019909116610100171660011790555b603380546001600160a01b0319166001600160a01b0384169081179091556040516000907f8be0079c531659141344cd1fd0a4f28419497f9722a3daafe3b4186f6b6457e0908290a380156200010c576000805461ff00191690555050565b600054610100900460ff1680620002e75750620002e762000110565b80620002f6575060005460ff16155b620003335760405162461bcd60e51b815260040180806020018281038252602e815260200180620023f6602e913960400191505060405180910390fd5b600054610100900460ff161580156200035f576000805460ff1961ff0019909116610100171660011790555b6065805460ff191690558015620001d5576000805461ff001916905550565b3b151590565b60006020828403121562000396578081fd5b81516001600160a01b0381168114620003ad578182fd5b9392505050565b61203280620003c46000396000f3fe608060405234801561001057600080fd5b506004361061018e5760003560e01c80635c975abb116100de5780639dc29fac11610097578063bca18f3d11610071578063bca18f3d14610308578063dd62ed3e1461031b578063f2fde38b1461032e578063fca3b5aa146103415761018e565b80639dc29fac146102cf578063a457c2d7146102e2578063a9059cbb146102f55761018e565b80635c975abb1461029457806370a082311461029c578063715018a6146102af5780638456cb59146102b75780638da5cb5b146102bf57806395d89b41146102c75761018e565b806323b872dd1161014b5780633c85e454116101255780633c85e4541461025e5780633f4ba83a1461027157806340c10f19146102795780635028db1a1461028c5761018e565b806323b872dd14610223578063313ce56714610236578063395093511461024b5761018e565b806306fdde031461019357806307546172146101b1578063095ea7b3146101c65780631171bda9146101e657806318160ddd146101fb57806319ab453c14610210575b600080fd5b61019b610354565b6040516101a89190611cfc565b60405180910390f35b6101b9610382565b6040516101a89190611cdd565b6101d96101d4366004611c60565b610391565b6040516101a89190611cf1565b6101f96101f4366004611c25565b6103ae565b005b610203610485565b6040516101a89190611dbd565b6101f961021e366004611bd9565b61048b565b6101d9610231366004611c25565b610547565b61023e6105cf565b6040516101a89190611dc6565b6101d9610259366004611c60565b6105d4565b6101f961026c366004611bd9565b610622565b6101f9610711565b6101f9610287366004611c60565b6107cd565b6101b9610863565b6101d9610872565b6102036102aa366004611bd9565b61087b565b6101f961089a565b6101f9610946565b6101b96109fd565b61019b610a0c565b6101f96102dd366004611c60565b610a2b565b6101d96102f0366004611c60565b610ac1565b6101d9610303366004611c60565b610b29565b6101f9610316366004611c89565b610b3d565b610203610329366004611bf3565b610c51565b6101f961033c366004611bd9565b610c7c565b6101f961034f366004611bd9565b610d7f565b60408051808201909152601481527322ba3432b932bab6902a3930b739b0b1ba34b7b760611b602082015290565b60fb546001600160a01b031690565b60006103a561039e610e45565b8484610e49565b50600192915050565b6103b6610e45565b6001600160a01b03166103c76109fd565b6001600160a01b031614610410576040805162461bcd60e51b81526020600482018190526024820152600080516020611f04833981519152604482015290519081900360640190fd5b6104246001600160a01b0384168383610f35565b816001600160a01b0316836001600160a01b0316610440610e45565b6001600160a01b03167ffa6e44909e1c69606f847ee93c3339a424b53b345ed377c38ab410d32e7f70a7846040516104789190611dbd565b60405180910390a4505050565b60995490565b600054610100900460ff16806104a457506104a4610f8c565b806104b2575060005460ff16155b6104ed5760405162461bcd60e51b815260040180806020018281038252602e815260200180611eae602e913960400191505060405180910390fd5b600054610100900460ff16158015610518576000805460ff1961ff0019909116610100171660011790555b610520610f9d565b6105298261103f565b61053161112a565b8015610543576000805461ff00191690555b5050565b60006105548484846111d5565b6105c484610560610e45565b6105bf85604051806060016040528060288152602001611edc602891396001600160a01b038a1660009081526098602052604081209061059e610e45565b6001600160a01b0316815260208101919091526040016000205491906114fe565b610e49565b5060015b9392505050565b601290565b60006103a56105e1610e45565b846105bf85609860006105f2610e45565b6001600160a01b03908116825260208083019390935260409182016000908120918c168152925290205490611595565b61062a610e45565b6001600160a01b031661063b6109fd565b6001600160a01b031614610684576040805162461bcd60e51b81526020600482018190526024820152600080516020611f04833981519152604482015290519081900360640190fd5b6001600160a01b0381166106b35760405162461bcd60e51b81526004016106aa90611d86565b60405180910390fd5b60c980546001600160a01b0319166001600160a01b0383169081179091556106d9610e45565b6001600160a01b03167f62ed5f17e3b035a1692f4d2872793f3ad5394aa811ef5e7d770965e1c14a162b60405160405180910390a350565b610719610e45565b6001600160a01b031661072a6109fd565b6001600160a01b031614610773576040805162461bcd60e51b81526020600482018190526024820152600080516020611f04833981519152604482015290519081900360640190fd5b61077b610872565b6107c3576040805162461bcd60e51b815260206004820152601460248201527314185d5cd8589b194e881b9bdd081c185d5cd95960621b604482015290519081900360640190fd5b6107cb6115ef565b565b6107d5610382565b6001600160a01b03166107e6610e45565b6001600160a01b03161461080c5760405162461bcd60e51b81526004016106aa90611d4f565b610814610872565b15610859576040805162461bcd60e51b815260206004820152601060248201526f14185d5cd8589b194e881c185d5cd95960821b604482015290519081900360640190fd5b610543828261168f565b60c9546001600160a01b031690565b60655460ff1690565b6001600160a01b0381166000908152609760205260409020545b919050565b6108a2610e45565b6001600160a01b03166108b36109fd565b6001600160a01b0316146108fc576040805162461bcd60e51b81526020600482018190526024820152600080516020611f04833981519152604482015290519081900360640190fd5b6033546040516000916001600160a01b0316907f8be0079c531659141344cd1fd0a4f28419497f9722a3daafe3b4186f6b6457e0908390a3603380546001600160a01b0319169055565b61094e610e45565b6001600160a01b031661095f6109fd565b6001600160a01b0316146109a8576040805162461bcd60e51b81526020600482018190526024820152600080516020611f04833981519152604482015290519081900360640190fd5b6109b0610872565b156109f5576040805162461bcd60e51b815260206004820152601060248201526f14185d5cd8589b194e881c185d5cd95960821b604482015290519081900360640190fd5b6107cb61176f565b6033546001600160a01b031690565b60408051808201909152600581526408aa890e8f60db1b602082015290565b610a33610382565b6001600160a01b0316610a44610e45565b6001600160a01b031614610a6a5760405162461bcd60e51b81526004016106aa90611d4f565b610a72610872565b15610ab7576040805162461bcd60e51b815260206004820152601060248201526f14185d5cd8589b194e881c185d5cd95960821b604482015290519081900360640190fd5b61054382826117f2565b60006103a5610ace610e45565b846105bf85604051806060016040528060258152602001611fd86025913960986000610af8610e45565b6001600160a01b03908116825260208083019390935260409182016000908120918d168152925290205491906114fe565b60006103a5610b36610e45565b84846111d5565b610b45610e45565b6001600160a01b0316610b566109fd565b6001600160a01b031614610b9f576040805162461bcd60e51b81526020600482018190526024820152600080516020611f04833981519152604482015290519081900360640190fd5b6000610ba9610e45565b825160c980546001600160a01b0319166001600160a01b0392831690811790915560405192935091908316907f62ed5f17e3b035a1692f4d2872793f3ad5394aa811ef5e7d770965e1c14a162b90600090a3602082015160fb80546001600160a01b0319166001600160a01b0392831690811790915560405190918316907f02b23d62d8f733974f8cb13eb804b20135521322b70997c991fc01406632389f90600090a35050565b6001600160a01b03918216600090815260986020908152604080832093909416825291909152205490565b610c84610e45565b6001600160a01b0316610c956109fd565b6001600160a01b031614610cde576040805162461bcd60e51b81526020600482018190526024820152600080516020611f04833981519152604482015290519081900360640190fd5b6001600160a01b038116610d235760405162461bcd60e51b8152600401808060200182810382526026815260200180611e1a6026913960400191505060405180910390fd5b6033546040516001600160a01b038084169216907f8be0079c531659141344cd1fd0a4f28419497f9722a3daafe3b4186f6b6457e090600090a3603380546001600160a01b0319166001600160a01b0392909216919091179055565b610d87610e45565b6001600160a01b0316610d986109fd565b6001600160a01b031614610de1576040805162461bcd60e51b81526020600482018190526024820152600080516020611f04833981519152604482015290519081900360640190fd5b60fb80546001600160a01b0319166001600160a01b038316908117909155610e07610e45565b6001600160a01b03167f02b23d62d8f733974f8cb13eb804b20135521322b70997c991fc01406632389f60405160405180910390a350565b3b151590565b3390565b6001600160a01b038316610e8e5760405162461bcd60e51b8152600401808060200182810382526024815260200180611f8a6024913960400191505060405180910390fd5b6001600160a01b038216610ed35760405162461bcd60e51b8152600401808060200182810382526022815260200180611e406022913960400191505060405180910390fd5b6001600160a01b03808416600081815260986020908152604080832094871680845294825291829020859055815185815291517f8c5be1e5ebec7d5bd14f71427d1e84f3dd0314c0f7b2291e5b200ac8c7c3b9259281900390910190a3505050565b604080516001600160a01b038416602482015260448082018490528251808303909101815260649091019091526020810180516001600160e01b031663a9059cbb60e01b179052610f879084906118dc565b505050565b6000610f9730610e3f565b15905090565b600054610100900460ff1680610fb65750610fb6610f8c565b80610fc4575060005460ff16155b610fff5760405162461bcd60e51b815260040180806020018281038252602e815260200180611eae602e913960400191505060405180910390fd5b600054610100900460ff1615801561102a576000805460ff1961ff0019909116610100171660011790555b801561103c576000805461ff00191690555b50565b600054610100900460ff16806110585750611058610f8c565b80611066575060005460ff16155b6110a15760405162461bcd60e51b815260040180806020018281038252602e815260200180611eae602e913960400191505060405180910390fd5b600054610100900460ff161580156110cc576000805460ff1961ff0019909116610100171660011790555b603380546001600160a01b0319166001600160a01b0384169081179091556040516000907f8be0079c531659141344cd1fd0a4f28419497f9722a3daafe3b4186f6b6457e0908290a38015610543576000805461ff00191690555050565b600054610100900460ff16806111435750611143610f8c565b80611151575060005460ff16155b61118c5760405162461bcd60e51b815260040180806020018281038252602e815260200180611eae602e913960400191505060405180910390fd5b600054610100900460ff161580156111b7576000805460ff1961ff0019909116610100171660011790555b6065805460ff19169055801561103c576000805461ff001916905550565b6001600160a01b03831661121a5760405162461bcd60e51b8152600401808060200182810382526025815260200180611f656025913960400191505060405180910390fd5b6001600160a01b03821661125f5760405162461bcd60e51b8152600401808060200182810382526023815260200180611dd56023913960400191505060405180910390fd5b61126a838383610f87565b6112a781604051806060016040528060268152602001611e62602691396001600160a01b03861660009081526097602052604090205491906114fe565b6001600160a01b0380851660008181526097602090815260408083209590955560c9548551632f8e517960e21b81526004810194909452878516602485015260448401879052945194909316939092849263be3945e49260648083019392829003018186803b15801561131957600080fd5b505afa15801561132d573d6000803e3d6000fd5b505050506040513d602081101561134357600080fd5b505190506000611353848361198d565b6001600160a01b0386166000908152609760205260409020549091506113799082611595565b6001600160a01b0380871660008181526097602090815260409182902094909455805185815290519193928a1692600080516020611f2483398151915292918290030190a381156114f6576000836001600160a01b03166366d003ac6040518163ffffffff1660e01b815260040160206040518083038186803b1580156113ff57600080fd5b505afa158015611413573d6000803e3d6000fd5b505050506040513d602081101561142957600080fd5b50516001600160a01b0381166000908152609760205260409020549091506114519084611595565b6001600160a01b0380831660008181526097602090815260409182902094909455805187815290519193928b1692600080516020611f2483398151915292918290030190a3836001600160a01b03166398d078b4846040518263ffffffff1660e01b815260040180828152602001915050600060405180830381600087803b1580156114dc57600080fd5b505af11580156114f0573d6000803e3d6000fd5b50505050505b505050505050565b6000818484111561158d5760405162461bcd60e51b81526004018080602001828103825283818151815260200191508051906020019080838360005b8381101561155257818101518382015260200161153a565b50505050905090810190601f16801561157f5780820380516001836020036101000a031916815260200191505b509250505060405180910390fd5b505050900390565b6000828201838110156105c8576040805162461bcd60e51b815260206004820152601b60248201527f536166654d6174683a206164646974696f6e206f766572666c6f770000000000604482015290519081900360640190fd5b6115f7610872565b61163f576040805162461bcd60e51b815260206004820152601460248201527314185d5cd8589b194e881b9bdd081c185d5cd95960621b604482015290519081900360640190fd5b6065805460ff191690557f5db9ee0a495bf2e6ff9c91a7834c1ba4fdd244a5e8aa4e537bd38aeae4b073aa611672610e45565b604080516001600160a01b039092168252519081900360200190a1565b6001600160a01b0382166116ea576040805162461bcd60e51b815260206004820152601f60248201527f45524332303a206d696e7420746f20746865207a65726f206164647265737300604482015290519081900360640190fd5b6116f660008383610f87565b6099546117039082611595565b6099556001600160a01b0382166000908152609760205260409020546117299082611595565b6001600160a01b0383166000818152609760209081526040808320949094558351858152935192939192600080516020611f248339815191529281900390910190a35050565b611777610872565b156117bc576040805162461bcd60e51b815260206004820152601060248201526f14185d5cd8589b194e881c185d5cd95960821b604482015290519081900360640190fd5b6065805460ff191660011790557f62e78cea01bee320cd4e420270b5ea74000d11b0c9f74754ebdbfc544b05a258611672610e45565b6001600160a01b0382166118375760405162461bcd60e51b8152600401808060200182810382526021815260200180611f446021913960400191505060405180910390fd5b61184382600083610f87565b61188081604051806060016040528060228152602001611df8602291396001600160a01b03851660009081526097602052604090205491906114fe565b6001600160a01b0383166000908152609760205260409020556099546118a6908261198d565b6099556040805182815290516000916001600160a01b03851691600080516020611f248339815191529181900360200190a35050565b6000611931826040518060400160405280602081526020017f5361666545524332303a206c6f772d6c6576656c2063616c6c206661696c6564815250856001600160a01b03166119ea9092919063ffffffff16565b805190915015610f875780806020019051602081101561195057600080fd5b5051610f875760405162461bcd60e51b815260040180806020018281038252602a815260200180611fae602a913960400191505060405180910390fd5b6000828211156119e4576040805162461bcd60e51b815260206004820152601e60248201527f536166654d6174683a207375627472616374696f6e206f766572666c6f770000604482015290519081900360640190fd5b50900390565b60606119f98484600085611a01565b949350505050565b606082471015611a425760405162461bcd60e51b8152600401808060200182810382526026815260200180611e886026913960400191505060405180910390fd5b611a4b85610e3f565b611a9c576040805162461bcd60e51b815260206004820152601d60248201527f416464726573733a2063616c6c20746f206e6f6e2d636f6e7472616374000000604482015290519081900360640190fd5b600080866001600160a01b031685876040518082805190602001908083835b60208310611ada5780518252601f199092019160209182019101611abb565b6001836020036101000a03801982511681845116808217855250505050505090500191505060006040518083038185875af1925050503d8060008114611b3c576040519150601f19603f3d011682016040523d82523d6000602084013e611b41565b606091505b5091509150611b51828286611b5c565b979650505050505050565b60608315611b6b5750816105c8565b825115611b7b5782518084602001fd5b60405162461bcd60e51b815260206004820181815284516024840152845185939192839260440191908501908083836000831561155257818101518382015260200161153a565b80356001600160a01b038116811461089557600080fd5b600060208284031215611bea578081fd5b6105c882611bc2565b60008060408385031215611c05578081fd5b611c0e83611bc2565b9150611c1c60208401611bc2565b90509250929050565b600080600060608486031215611c39578081fd5b611c4284611bc2565b9250611c5060208501611bc2565b9150604084013590509250925092565b60008060408385031215611c72578182fd5b611c7b83611bc2565b946020939093013593505050565b600060408284031215611c9a578081fd5b6040516040810181811067ffffffffffffffff82111715611cb757fe5b604052611cc383611bc2565b8152611cd160208401611bc2565b60208201529392505050565b6001600160a01b0391909116815260200190565b901515815260200190565b6000602080835283518082850152825b81811015611d2857858101830151858201604001528201611d0c565b81811115611d395783604083870101525b50601f01601f1916929092016040019392505050565b6020808252601f908201527f45544874783a2063616c6c6572206973206e6f7420746865206d696e74657200604082015260600190565b6020808252601c908201527f45544874783a206665654c6f676963207a65726f206164647265737300000000604082015260600190565b90815260200190565b60ff9190911681526020019056fe45524332303a207472616e7366657220746f20746865207a65726f206164647265737345524332303a206275726e20616d6f756e7420657863656564732062616c616e63654f776e61626c653a206e6577206f776e657220697320746865207a65726f206164647265737345524332303a20617070726f766520746f20746865207a65726f206164647265737345524332303a207472616e7366657220616d6f756e7420657863656564732062616c616e6365416464726573733a20696e73756666696369656e742062616c616e636520666f722063616c6c496e697469616c697a61626c653a20636f6e747261637420697320616c726561647920696e697469616c697a656445524332303a207472616e7366657220616d6f756e74206578636565647320616c6c6f77616e63654f776e61626c653a2063616c6c6572206973206e6f7420746865206f776e6572ddf252ad1be2c89b69c2b068fc378daa952ba7f163c4a11628f55a4df523b3ef45524332303a206275726e2066726f6d20746865207a65726f206164647265737345524332303a207472616e736665722066726f6d20746865207a65726f206164647265737345524332303a20617070726f76652066726f6d20746865207a65726f20616464726573735361666545524332303a204552433230206f7065726174696f6e20646964206e6f74207375636365656445524332303a2064656372656173656420616c6c6f77616e63652062656c6f77207a65726fa264697066735822122079203b978c017c353bc2f4b318cf455f1a5b246f62f9dd2d7d05931c24b620f664736f6c63430007060033496e697469616c697a61626c653a20636f6e747261637420697320616c726561647920696e697469616c697a6564",
  "devdoc": {
    "kind": "dev",
    "methods": {
      "allowance(address,address)": {
        "details": "See {IERC20-allowance}."
      },
      "approve(address,uint256)": {
        "details": "See {IERC20-approve}. Requirements: - `spender` cannot be the zero address."
      },
      "balanceOf(address)": {
        "details": "See {IERC20-balanceOf}."
      },
      "decimals()": {
        "details": "Returns the number of decimals used to get its user representation. For example, if `decimals` equals `2`, a balance of `505` tokens should be displayed to a user as `5,05` (`505 / 10 ** 2`). Tokens usually opt for a value of 18, imitating the relationship between Ether and Wei. This is the value {ERC20} uses, unless this function is overridden; NOTE: This information is only used for _display_ purposes: it in no way affects any of the arithmetic of the contract, including {IERC20-balanceOf} and {IERC20-transfer}."
      },
      "decreaseAllowance(address,uint256)": {
        "details": "Atomically decreases the allowance granted to `spender` by the caller. This is an alternative to {approve} that can be used as a mitigation for problems described in {IERC20-approve}. Emits an {Approval} event indicating the updated allowance. Requirements: - `spender` cannot be the zero address. - `spender` must have allowance for the caller of at least `subtractedValue`."
      },
      "feeLogic()": {
        "details": "Returns the feeLogic handler address."
      },
      "increaseAllowance(address,uint256)": {
        "details": "Atomically increases the allowance granted to `spender` by the caller. This is an alternative to {approve} that can be used as a mitigation for problems described in {IERC20-approve}. Emits an {Approval} event indicating the updated allowance. Requirements: - `spender` cannot be the zero address."
      },
      "name()": {
        "details": "Returns the name of the token. Overload it to change."
      },
      "owner()": {
        "details": "Returns the address of the current owner."
      },
      "paused()": {
        "details": "Returns true if the contract is paused, and false otherwise."
      },
      "renounceOwnership()": {
        "details": "Leaves the contract without owner. It will not be possible to call `onlyOwner` functions anymore. Can only be called by the current owner. NOTE: Renouncing ownership will leave the contract without an owner, thereby removing any functionality that is only available to the owner."
      },
      "symbol()": {
        "details": "Returns the symbol of the token, usually a shorter version of the name. Overload it to change."
      },
      "totalSupply()": {
        "details": "See {IERC20-totalSupply}."
      },
      "transfer(address,uint256)": {
        "details": "See {IERC20-transfer}. Requirements: - `recipient` cannot be the zero address. - the caller must have a balance of at least `amount`."
      },
      "transferFrom(address,address,uint256)": {
        "details": "See {IERC20-transferFrom}. Emits an {Approval} event indicating the updated allowance. This is not required by the EIP. See the note at the beginning of {ERC20}. Requirements: - `sender` and `recipient` cannot be the zero address. - `sender` must have a balance of at least `amount`. - the caller must have allowance for ``sender``'s tokens of at least `amount`."
      },
      "transferOwnership(address)": {
        "details": "Transfers ownership of the contract to a new account (`newOwner`). Can only be called by the current owner."
      }
    },
    "version": 1
  },
  "userdoc": {
    "kind": "user",
    "methods": {},
    "version": 1
  },
  "storageLayout": {
    "storage": [
      {
        "astId": 6,
        "contract": "contracts/tokens/ETHtx/ETHtx.sol:ETHtx",
        "label": "_initialized",
        "offset": 0,
        "slot": "0",
        "type": "t_bool"
      },
      {
        "astId": 9,
        "contract": "contracts/tokens/ETHtx/ETHtx.sol:ETHtx",
        "label": "_initializing",
        "offset": 1,
        "slot": "0",
        "type": "t_bool"
      },
      {
        "astId": 353,
        "contract": "contracts/tokens/ETHtx/ETHtx.sol:ETHtx",
        "label": "__gap",
        "offset": 0,
        "slot": "1",
        "type": "t_array(t_uint256)50_storage"
      },
      {
        "astId": 3458,
        "contract": "contracts/tokens/ETHtx/ETHtx.sol:ETHtx",
        "label": "_owner",
        "offset": 0,
        "slot": "51",
        "type": "t_address"
      },
      {
        "astId": 3577,
        "contract": "contracts/tokens/ETHtx/ETHtx.sol:ETHtx",
        "label": "__gap",
        "offset": 0,
        "slot": "52",
        "type": "t_array(t_uint256)49_storage"
      },
      {
        "astId": 375,
        "contract": "contracts/tokens/ETHtx/ETHtx.sol:ETHtx",
        "label": "_paused",
        "offset": 0,
        "slot": "101",
        "type": "t_bool"
      },
      {
        "astId": 466,
        "contract": "contracts/tokens/ETHtx/ETHtx.sol:ETHtx",
        "label": "__gap",
        "offset": 0,
        "slot": "102",
        "type": "t_array(t_uint256)49_storage"
      },
      {
        "astId": 22816,
        "contract": "contracts/tokens/ETHtx/ETHtx.sol:ETHtx",
        "label": "_balances",
        "offset": 0,
        "slot": "151",
        "type": "t_mapping(t_address,t_uint256)"
      },
      {
        "astId": 22822,
        "contract": "contracts/tokens/ETHtx/ETHtx.sol:ETHtx",
        "label": "_allowances",
        "offset": 0,
        "slot": "152",
        "type": "t_mapping(t_address,t_mapping(t_address,t_uint256))"
      },
      {
        "astId": 22824,
        "contract": "contracts/tokens/ETHtx/ETHtx.sol:ETHtx",
        "label": "_totalSupply",
        "offset": 0,
        "slot": "153",
        "type": "t_uint256"
      },
      {
        "astId": 23287,
        "contract": "contracts/tokens/ETHtx/ETHtx.sol:ETHtx",
        "label": "__gap",
        "offset": 0,
        "slot": "154",
        "type": "t_array(t_uint256)47_storage"
      },
      {
        "astId": 23477,
        "contract": "contracts/tokens/ETHtx/ETHtx.sol:ETHtx",
        "label": "_feeLogic",
        "offset": 0,
        "slot": "201",
        "type": "t_address"
      },
      {
        "astId": 23654,
        "contract": "contracts/tokens/ETHtx/ETHtx.sol:ETHtx",
        "label": "__gap",
        "offset": 0,
        "slot": "202",
        "type": "t_array(t_uint256)49_storage"
      },
      {
        "astId": 24142,
        "contract": "contracts/tokens/ETHtx/ETHtx.sol:ETHtx",
        "label": "_minter",
        "offset": 0,
        "slot": "251",
        "type": "t_address"
      },
      {
        "astId": 24146,
        "contract": "contracts/tokens/ETHtx/ETHtx.sol:ETHtx",
        "label": "__gap",
        "offset": 0,
        "slot": "252",
        "type": "t_array(t_uint256)49_storage"
      }
    ],
    "types": {
      "t_address": {
        "encoding": "inplace",
        "label": "address",
        "numberOfBytes": "20"
      },
      "t_array(t_uint256)47_storage": {
        "base": "t_uint256",
        "encoding": "inplace",
        "label": "uint256[47]",
        "numberOfBytes": "1504"
      },
      "t_array(t_uint256)49_storage": {
        "base": "t_uint256",
        "encoding": "inplace",
        "label": "uint256[49]",
        "numberOfBytes": "1568"
      },
      "t_array(t_uint256)50_storage": {
        "base": "t_uint256",
        "encoding": "inplace",
        "label": "uint256[50]",
        "numberOfBytes": "1600"
      },
      "t_bool": {
        "encoding": "inplace",
        "label": "bool",
        "numberOfBytes": "1"
      },
      "t_mapping(t_address,t_mapping(t_address,t_uint256))": {
        "encoding": "mapping",
        "key": "t_address",
        "label": "mapping(address => mapping(address => uint256))",
        "numberOfBytes": "32",
        "value": "t_mapping(t_address,t_uint256)"
      },
      "t_mapping(t_address,t_uint256)": {
        "encoding": "mapping",
        "key": "t_address",
        "label": "mapping(address => uint256)",
        "numberOfBytes": "32",
        "value": "t_uint256"
      },
      "t_uint256": {
        "encoding": "inplace",
        "label": "uint256",
        "numberOfBytes": "32"
      }
    }
  }
}