{
  "address": "0xE393f6F5D0b57D980b3bED0f160f8EC127a314a3",
  "abi": [
    {
      "inputs": [
        {
          "internalType": "address",
          "name": "owner_",
          "type": "address"
        }
      ],
      "stateMutability": "nonpayable",
      "type": "constructor"
    },
    {
      "anonymous": false,
      "inputs": [
        {
          "indexed": true,
          "internalType": "address",
          "name": "author",
          "type": "address"
        },
        {
          "indexed": true,
          "internalType": "address",
          "name": "account",
          "type": "address"
        }
      ],
      "name": "ETHtxSet",
      "type": "event"
    },
    {
      "anonymous": false,
      "inputs": [
        {
          "indexed": true,
          "internalType": "address",
          "name": "author",
          "type": "address"
        },
        {
          "indexed": true,
          "internalType": "address",
          "name": "account",
          "type": "address"
        }
      ],
      "name": "GasOracleSet",
      "type": "event"
    },
    {
      "anonymous": false,
      "inputs": [
        {
          "indexed": true,
          "internalType": "address",
          "name": "previousOwner",
          "type": "address"
        },
        {
          "indexed": true,
          "internalType": "address",
          "name": "newOwner",
          "type": "address"
        }
      ],
      "name": "OwnershipTransferred",
      "type": "event"
    },
    {
      "anonymous": false,
      "inputs": [
        {
          "indexed": false,
          "internalType": "address",
          "name": "account",
          "type": "address"
        }
      ],
      "name": "Paused",
      "type": "event"
    },
    {
      "anonymous": false,
      "inputs": [
        {
          "indexed": true,
          "internalType": "address",
          "name": "author",
          "type": "address"
        },
        {
          "indexed": true,
          "internalType": "address",
          "name": "token",
          "type": "address"
        },
        {
          "indexed": true,
          "internalType": "address",
          "name": "to",
          "type": "address"
        },
        {
          "indexed": false,
          "internalType": "uint256",
          "name": "amount",
          "type": "uint256"
        }
      ],
      "name": "RecoveredUnsupported",
      "type": "event"
    },
    {
      "anonymous": false,
      "inputs": [
        {
          "indexed": true,
          "internalType": "address",
          "name": "author",
          "type": "address"
        },
        {
          "indexed": false,
          "internalType": "uint128",
          "name": "numerator",
          "type": "uint128"
        },
        {
          "indexed": false,
          "internalType": "uint128",
          "name": "denominator",
          "type": "uint128"
        }
      ],
      "name": "TargetCRatioSet",
      "type": "event"
    },
    {
      "anonymous": false,
      "inputs": [
        {
          "indexed": false,
          "internalType": "address",
          "name": "account",
          "type": "address"
        }
      ],
      "name": "Unpaused",
      "type": "event"
    },
    {
      "anonymous": false,
      "inputs": [
        {
          "indexed": true,
          "internalType": "address",
          "name": "author",
          "type": "address"
        },
        {
          "indexed": true,
          "internalType": "address",
          "name": "account",
          "type": "address"
        }
      ],
      "name": "WETHSet",
      "type": "event"
    },
    {
      "inputs": [],
      "name": "cRatio",
      "outputs": [
        {
          "internalType": "uint256",
          "name": "numerator",
          "type": "uint256"
        },
        {
          "internalType": "uint256",
          "name": "denominator",
          "type": "uint256"
        }
      ],
      "stateMutability": "view",
      "type": "function"
    },
    {
      "inputs": [],
      "name": "cRatioBelowTarget",
      "outputs": [
        {
          "internalType": "bool",
          "name": "",
          "type": "bool"
        }
      ],
      "stateMutability": "view",
      "type": "function"
    },
    {
      "inputs": [
        {
          "internalType": "uint256",
          "name": "amountETHtxOut",
          "type": "uint256"
        }
      ],
      "name": "ethForEthtx",
      "outputs": [
        {
          "internalType": "uint256",
          "name": "",
          "type": "uint256"
        }
      ],
      "stateMutability": "view",
      "type": "function"
    },
    {
      "inputs": [
        {
          "internalType": "uint256",
          "name": "amountETHtxIn",
          "type": "uint256"
        }
      ],
      "name": "ethFromEthtxAtRedemption",
      "outputs": [
        {
          "internalType": "uint256",
          "name": "",
          "type": "uint256"
        }
      ],
      "stateMutability": "view",
      "type": "function"
    },
    {
      "inputs": [],
      "name": "ethNeeded",
      "outputs": [
        {
          "internalType": "uint256",
          "name": "",
          "type": "uint256"
        }
      ],
      "stateMutability": "view",
      "type": "function"
    },
    {
      "inputs": [],
      "name": "ethSupply",
      "outputs": [
        {
          "internalType": "uint256",
          "name": "",
          "type": "uint256"
        }
      ],
      "stateMutability": "view",
      "type": "function"
    },
    {
      "inputs": [],
      "name": "ethSupplyTarget",
      "outputs": [
        {
          "internalType": "uint256",
          "name": "",
          "type": "uint256"
        }
      ],
      "stateMutability": "view",
      "type": "function"
    },
    {
      "inputs": [],
      "name": "ethtx",
      "outputs": [
        {
          "internalType": "address",
          "name": "",
          "type": "address"
        }
      ],
      "stateMutability": "view",
      "type": "function"
    },
    {
      "inputs": [],
      "name": "ethtxAvailable",
      "outputs": [
        {
          "internalType": "uint256",
          "name": "",
          "type": "uint256"
        }
      ],
      "stateMutability": "view",
      "type": "function"
    },
    {
      "inputs": [
        {
          "internalType": "uint256",
          "name": "amountETHOut",
          "type": "uint256"
        }
      ],
      "name": "ethtxForEthAtRedemption",
      "outputs": [
        {
          "internalType": "uint256",
          "name": "",
          "type": "uint256"
        }
      ],
      "stateMutability": "view",
      "type": "function"
    },
    {
      "inputs": [
        {
          "internalType": "uint256",
          "name": "amountETHIn",
          "type": "uint256"
        }
      ],
      "name": "ethtxFromEth",
      "outputs": [
        {
          "internalType": "uint256",
          "name": "",
          "type": "uint256"
        }
      ],
      "stateMutability": "view",
      "type": "function"
    },
    {
      "inputs": [],
      "name": "ethtxOutstanding",
      "outputs": [
        {
          "internalType": "uint256",
          "name": "",
          "type": "uint256"
        }
      ],
      "stateMutability": "view",
      "type": "function"
    },
    {
      "inputs": [],
      "name": "feeLogic",
      "outputs": [
        {
          "internalType": "address",
          "name": "",
          "type": "address"
        }
      ],
      "stateMutability": "view",
      "type": "function"
    },
    {
      "inputs": [],
      "name": "gasOracle",
      "outputs": [
        {
          "internalType": "address",
          "name": "",
          "type": "address"
        }
      ],
      "stateMutability": "view",
      "type": "function"
    },
    {
      "inputs": [],
      "name": "gasPerETHtx",
      "outputs": [
        {
          "internalType": "uint256",
          "name": "",
          "type": "uint256"
        }
      ],
      "stateMutability": "pure",
      "type": "function"
    },
    {
      "inputs": [],
      "name": "gasPrice",
      "outputs": [
        {
          "internalType": "uint256",
          "name": "",
          "type": "uint256"
        }
      ],
      "stateMutability": "view",
      "type": "function"
    },
    {
      "inputs": [],
      "name": "gasPriceAtRedemption",
      "outputs": [
        {
          "internalType": "uint256",
          "name": "",
          "type": "uint256"
        }
      ],
      "stateMutability": "view",
      "type": "function"
    },
    {
      "inputs": [
        {
          "internalType": "address",
          "name": "owner_",
          "type": "address"
        }
      ],
      "name": "init",
      "outputs": [],
      "stateMutability": "nonpayable",
      "type": "function"
    },
    {
      "inputs": [],
      "name": "maxGasPrice",
      "outputs": [
        {
          "internalType": "uint256",
          "name": "",
          "type": "uint256"
        }
      ],
      "stateMutability": "view",
      "type": "function"
    },
    {
      "inputs": [],
      "name": "owner",
      "outputs": [
        {
          "internalType": "address",
          "name": "",
          "type": "address"
        }
      ],
      "stateMutability": "view",
      "type": "function"
    },
    {
      "inputs": [],
      "name": "pause",
      "outputs": [],
      "stateMutability": "nonpayable",
      "type": "function"
    },
    {
      "inputs": [],
      "name": "paused",
      "outputs": [
        {
          "internalType": "bool",
          "name": "",
          "type": "bool"
        }
      ],
      "stateMutability": "view",
      "type": "function"
    },
    {
      "inputs": [
        {
          "components": [
            {
              "internalType": "address",
              "name": "ethtx",
              "type": "address"
            },
            {
              "internalType": "address",
              "name": "gasOracle",
              "type": "address"
            },
            {
              "internalType": "address",
              "name": "weth",
              "type": "address"
            },
            {
              "internalType": "uint128",
              "name": "targetCRatioNum",
              "type": "uint128"
            },
            {
              "internalType": "uint128",
              "name": "targetCRatioDen",
              "type": "uint128"
            }
          ],
          "internalType": "struct ETHtxAMM.ETHtxAMMArgs",
          "name": "_args",
          "type": "tuple"
        }
      ],
      "name": "postInit",
      "outputs": [],
      "stateMutability": "nonpayable",
      "type": "function"
    },
    {
      "inputs": [
        {
          "internalType": "address",
          "name": "token",
          "type": "address"
        },
        {
          "internalType": "address",
          "name": "to",
          "type": "address"
        },
        {
          "internalType": "uint256",
          "name": "amount",
          "type": "uint256"
        }
      ],
      "name": "recoverUnsupportedERC20",
      "outputs": [],
      "stateMutability": "nonpayable",
      "type": "function"
    },
    {
      "inputs": [],
      "name": "renounceOwnership",
      "outputs": [],
      "stateMutability": "nonpayable",
      "type": "function"
    },
    {
      "inputs": [
        {
          "internalType": "address",
          "name": "account",
          "type": "address"
        }
      ],
      "name": "setEthtx",
      "outputs": [],
      "stateMutability": "nonpayable",
      "type": "function"
    },
    {
      "inputs": [
        {
          "internalType": "address",
          "name": "account",
          "type": "address"
        }
      ],
      "name": "setGasOracle",
      "outputs": [],
      "stateMutability": "nonpayable",
      "type": "function"
    },
    {
      "inputs": [
        {
          "internalType": "uint128",
          "name": "numerator",
          "type": "uint128"
        },
        {
          "internalType": "uint128",
          "name": "denominator",
          "type": "uint128"
        }
      ],
      "name": "setTargetCRatio",
      "outputs": [],
      "stateMutability": "nonpayable",
      "type": "function"
    },
    {
      "inputs": [
        {
          "internalType": "address",
          "name": "account",
          "type": "address"
        }
      ],
      "name": "setWETH",
      "outputs": [],
      "stateMutability": "nonpayable",
      "type": "function"
    },
    {
      "inputs": [
        {
          "internalType": "uint256",
          "name": "deadline",
          "type": "uint256"
        }
      ],
      "name": "swapEthForEthtx",
      "outputs": [],
      "stateMutability": "payable",
      "type": "function"
    },
    {
      "inputs": [
        {
          "internalType": "uint256",
          "name": "amountOut",
          "type": "uint256"
        },
        {
          "internalType": "uint256",
          "name": "deadline",
          "type": "uint256"
        }
      ],
      "name": "swapEthForExactEthtx",
      "outputs": [],
      "stateMutability": "payable",
      "type": "function"
    },
    {
      "inputs": [
        {
          "internalType": "uint256",
          "name": "amountInMax",
          "type": "uint256"
        },
        {
          "internalType": "uint256",
          "name": "amountOut",
          "type": "uint256"
        },
        {
          "internalType": "uint256",
          "name": "deadline",
          "type": "uint256"
        }
      ],
      "name": "swapEthtxForExactWeth",
      "outputs": [],
      "stateMutability": "nonpayable",
      "type": "function"
    },
    {
      "inputs": [
        {
          "internalType": "uint256",
          "name": "amountIn",
          "type": "uint256"
        },
        {
          "internalType": "uint256",
          "name": "deadline",
          "type": "uint256"
        }
      ],
      "name": "swapEthtxForWeth",
      "outputs": [],
      "stateMutability": "nonpayable",
      "type": "function"
    },
    {
      "inputs": [
        {
          "internalType": "uint256",
          "name": "amountOutMin",
          "type": "uint256"
        },
        {
          "internalType": "uint256",
          "name": "deadline",
          "type": "uint256"
        }
      ],
      "name": "swapExactEthForEthtx",
      "outputs": [],
      "stateMutability": "payable",
      "type": "function"
    },
    {
      "inputs": [
        {
          "internalType": "uint256",
          "name": "amountIn",
          "type": "uint256"
        },
        {
          "internalType": "uint256",
          "name": "amountOutMin",
          "type": "uint256"
        },
        {
          "internalType": "uint256",
          "name": "deadline",
          "type": "uint256"
        }
      ],
      "name": "swapExactEthtxForWeth",
      "outputs": [],
      "stateMutability": "nonpayable",
      "type": "function"
    },
    {
      "inputs": [
        {
          "internalType": "uint256",
          "name": "amountIn",
          "type": "uint256"
        },
        {
          "internalType": "uint256",
          "name": "amountOutMin",
          "type": "uint256"
        },
        {
          "internalType": "uint256",
          "name": "deadline",
          "type": "uint256"
        }
      ],
      "name": "swapExactWethForEthtx",
      "outputs": [],
      "stateMutability": "nonpayable",
      "type": "function"
    },
    {
      "inputs": [
        {
          "internalType": "uint256",
          "name": "amountIn",
          "type": "uint256"
        },
        {
          "internalType": "uint256",
          "name": "deadline",
          "type": "uint256"
        }
      ],
      "name": "swapWethForEthtx",
      "outputs": [],
      "stateMutability": "nonpayable",
      "type": "function"
    },
    {
      "inputs": [
        {
          "internalType": "uint256",
          "name": "amountInMax",
          "type": "uint256"
        },
        {
          "internalType": "uint256",
          "name": "amountOut",
          "type": "uint256"
        },
        {
          "internalType": "uint256",
          "name": "deadline",
          "type": "uint256"
        }
      ],
      "name": "swapWethForExactEthtx",
      "outputs": [],
      "stateMutability": "nonpayable",
      "type": "function"
    },
    {
      "inputs": [],
      "name": "targetCRatio",
      "outputs": [
        {
          "internalType": "uint128",
          "name": "numerator",
          "type": "uint128"
        },
        {
          "internalType": "uint128",
          "name": "denominator",
          "type": "uint128"
        }
      ],
      "stateMutability": "view",
      "type": "function"
    },
    {
      "inputs": [
        {
          "internalType": "address",
          "name": "newOwner",
          "type": "address"
        }
      ],
      "name": "transferOwnership",
      "outputs": [],
      "stateMutability": "nonpayable",
      "type": "function"
    },
    {
      "inputs": [],
      "name": "unpause",
      "outputs": [],
      "stateMutability": "nonpayable",
      "type": "function"
    },
    {
      "inputs": [],
      "name": "weth",
      "outputs": [
        {
          "internalType": "address",
          "name": "",
          "type": "address"
        }
      ],
      "stateMutability": "view",
      "type": "function"
    },
    {
      "stateMutability": "payable",
      "type": "receive"
    }
  ],
  "transactionHash": "0x097ff7a6bbd693cf1b27f286a50dc98044013d4a6c74aa9a7470e5a4e21b560b",
  "args": [
    "0x5757Dd711EaE80e181E07CdbCe43359Ac1048394"
  ],
  "solcInputHash": "dce8ce70f69a6af015380cad047f4734",
  "bytecode": "0x60806040523480156200001157600080fd5b506040516200347138038062003471833981016040819052620000349162000384565b6200003f8162000046565b50620003b4565b600054610100900460ff16806200006257506200006262000110565b8062000071575060005460ff16155b620000ae5760405162461bcd60e51b815260040180806020018281038252602e81526020018062003443602e913960400191505060405180910390fd5b600054610100900460ff16158015620000da576000805460ff1961ff0019909116610100171660011790555b620000e46200012e565b620000ef82620001d8565b620000f9620002cb565b80156200010c576000805461ff00191690555b5050565b600062000128306200037e60201b62001b9d1760201c565b15905090565b600054610100900460ff16806200014a57506200014a62000110565b8062000159575060005460ff16155b620001965760405162461bcd60e51b815260040180806020018281038252602e81526020018062003443602e913960400191505060405180910390fd5b600054610100900460ff16158015620001c2576000805460ff1961ff0019909116610100171660011790555b8015620001d5576000805461ff00191690555b50565b600054610100900460ff1680620001f45750620001f462000110565b8062000203575060005460ff16155b620002405760405162461bcd60e51b815260040180806020018281038252602e81526020018062003443602e913960400191505060405180910390fd5b600054610100900460ff161580156200026c576000805460ff1961ff0019909116610100171660011790555b603380546001600160a01b0319166001600160a01b0384169081179091556040516000907f8be0079c531659141344cd1fd0a4f28419497f9722a3daafe3b4186f6b6457e0908290a380156200010c576000805461ff00191690555050565b600054610100900460ff1680620002e75750620002e762000110565b80620002f6575060005460ff16155b620003335760405162461bcd60e51b815260040180806020018281038252602e81526020018062003443602e913960400191505060405180910390fd5b600054610100900460ff161580156200035f576000805460ff1961ff0019909116610100171660011790555b6065805460ff191690558015620001d5576000805461ff001916905550565b3b151590565b60006020828403121562000396578081fd5b81516001600160a01b0381168114620003ad578182fd5b9392505050565b61307f80620003c46000396000f3fe6080604052600436106102555760003560e01c80637de7746911610139578063b0f0dc00116100b6578063e7d29b531161007a578063e7d29b5314610694578063ea03798e146106a7578063ea45cdd4146106c7578063f2fde38b146106e7578063fa8c076f14610707578063fe173b9714610727576102b7565b8063b0f0dc00146105ff578063bc2b3e5f1461061f578063bd05f15c14610634578063db6647a414610654578063dcbc98dc14610674576102b7565b80638f365b69116100fd5780638f365b691461058b578063902dd186146105a0578063977507c4146105b5578063a05d674f146105ca578063a87b8152146105df576102b7565b80637de774691461050b578063805f751a1461051e5780638456cb591461054157806386a86d41146105565780638da5cb5b14610576576102b7565b80634d6a3cfb116101d25780635c975abb116101965780635c975abb146104695780635d62a8dd1461047e57806365ac74db1461049357806370251eb4146104b6578063715018a6146104d657806375de5f95146104eb576102b7565b80634d6a3cfb146103e85780635028db1a146103fd578063546146e314610412578063575a9d16146104275780635b769f3c14610449576102b7565b80633de39c11116102195780633de39c11146103695780633f4ba83a1461037e5780633fc8cef31461039357806345ef1a93146103b557806348f084f0146103d5576102b7565b8063146252cb146102bc57806319ab453c146102e757806322f7af2514610309578063313a7972146103295780633b4871bc14610349576102b7565b366102b75761026261073c565b6001600160a01b031663d0e30db0346040518263ffffffff1660e01b81526004016000604051808303818588803b15801561029c57600080fd5b505af11580156102b0573d6000803e3d6000fd5b5050505050005b600080fd5b3480156102c857600080fd5b506102d161074c565b6040516102de9190612f24565b60405180910390f35b3480156102f357600080fd5b506103076103023660046129cf565b6107d6565b005b34801561031557600080fd5b50610307610324366004612af4565b610892565b34801561033557600080fd5b506102d1610344366004612b26565b6109c3565b34801561035557600080fd5b50610307610364366004612a67565b6109de565b34801561037557600080fd5b506102d1610bb2565b34801561038a57600080fd5b50610307610c45565b34801561039f57600080fd5b506103a861073c565b6040516102de9190612ba2565b3480156103c157600080fd5b506102d16103d0366004612b26565b610d01565b6103076103e3366004612b26565b610daf565b3480156103f457600080fd5b506102d1610dbe565b34801561040957600080fd5b506103a8610dc8565b34801561041e57600080fd5b506102d1610e42565b34801561043357600080fd5b5061043c610e48565b6040516102de9190612bda565b34801561045557600080fd5b506103076104643660046129cf565b610ed2565b34801561047557600080fd5b5061043c610fb8565b34801561048a57600080fd5b506103a8610fc1565b34801561049f57600080fd5b506104a8610fd0565b6040516102de929190612f2d565b3480156104c257600080fd5b506102d16104d1366004612b26565b610fee565b3480156104e257600080fd5b506103076110a2565b3480156104f757600080fd5b50610307610506366004612b77565b61114e565b610307610519366004612b56565b611161565b34801561052a57600080fd5b50610533611196565b6040516102de929190612f0a565b34801561054d57600080fd5b506103076111b1565b34801561056257600080fd5b50610307610571366004612a07565b611268565b34801561058257600080fd5b506103a86113b1565b34801561059757600080fd5b506102d16113c0565b3480156105ac57600080fd5b506103a861144b565b3480156105c157600080fd5b506102d161145a565b3480156105d657600080fd5b506102d16114c9565b3480156105eb57600080fd5b506103076105fa3660046129cf565b6114f4565b34801561060b57600080fd5b5061030761061a366004612b77565b6115da565b34801561062b57600080fd5b506102d16116f3565b34801561064057600080fd5b5061030761064f366004612b56565b611730565b34801561066057600080fd5b5061030761066f366004612b56565b611822565b34801561068057600080fd5b5061030761068f366004612b77565b61182e565b6103076106a2366004612b56565b611840565b3480156106b357600080fd5b506102d16106c2366004612b26565b61184d565b3480156106d357600080fd5b506103076106e2366004612b77565b611860565b3480156106f357600080fd5b506103076107023660046129cf565b611972565b34801561071357600080fd5b506103076107223660046129cf565b611a75565b34801561073357600080fd5b506102d1611b5b565b609a546001600160a01b03165b90565b600061075661144b565b6001600160a01b03166370a08231306040518263ffffffff1660e01b81526004016107819190612ba2565b60206040518083038186803b15801561079957600080fd5b505afa1580156107ad573d6000803e3d6000fd5b505050506040513d601f19601f820116820180604052508101906107d19190612b3e565b905090565b600054610100900460ff16806107ef57506107ef611ba3565b806107fd575060005460ff16155b6108385760405162461bcd60e51b815260040180806020018281038252602e815260200180612fb1602e913960400191505060405180910390fd5b600054610100900460ff16158015610863576000805460ff1961ff0019909116610100171660011790555b61086b611bb4565b61087482611c55565b61087c611d40565b801561088e576000805461ff00191690555b5050565b61089a611deb565b6001600160a01b03166108ab6113b1565b6001600160a01b0316146108f4576040805162461bcd60e51b81526020600482018190526024820152600080516020613000833981519152604482015290519081900360640190fd5b6001600160801b0382166109235760405162461bcd60e51b815260040161091a90612cbf565b60405180910390fd5b6001600160801b0381166109495760405162461bcd60e51b815260040161091a90612db9565b609880546001600160801b03838116600160801b028186166001600160801b0319909316929092171617905561097d611deb565b6001600160a01b03167f9af9b815b340cc536d9c60d950fdae6e7d2932ec908595257787b6a7f4dec37283836040516109b7929190612f0a565b60405180910390a25050565b60006109d66109d0611b5b565b83611def565b90505b919050565b6109e6611deb565b6001600160a01b03166109f76113b1565b6001600160a01b031614610a40576040805162461bcd60e51b81526020600482018190526024820152600080516020613000833981519152604482015290519081900360640190fd5b6000610a4a611deb565b8251609980546001600160a01b0319166001600160a01b0392831690811790915560405192935091908316907f771296b6c631391f79de88226814060fdb511864a4e620f8085f4534f20b5f8490600090a36020820151609780546001600160a01b0319166001600160a01b0392831690811790915560405190918316907f580c76d0bfa674377787c86b7e4910624b8de2f31c4f8284196ac7ce68a3a57b90600090a3604082810151609a80546001600160a01b0319166001600160a01b039283169081179091559151908316907f9cfa0588ff5ff3789d20735024d004bfb8db496d5117712e136adbfe97af41d790600090a360608201516098805460808501516001600160801b03818116600160801b028186166001600160801b03199094169390931716919091179091556040516001600160a01b038416927f9af9b815b340cc536d9c60d950fdae6e7d2932ec908595257787b6a7f4dec372926109b792612f0a565b600080610bbd6113c0565b905080610bd457610bcc611b5b565b915050610749565b600080610bdf611196565b915091506000610c0c826001600160801b0316610c06670de0b6b3a7640000610c06610dbe565b90611e1b565b90506000610c2f846001600160801b0316610c06610c28610e42565b8890611e1b565b9050610c3b8282611e74565b9550505050505090565b610c4d611deb565b6001600160a01b0316610c5e6113b1565b6001600160a01b031614610ca7576040805162461bcd60e51b81526020600482018190526024820152600080516020613000833981519152604482015290519081900360640190fd5b610caf610fb8565b610cf7576040805162461bcd60e51b815260206004820152601460248201527314185d5cd8589b194e881b9bdd081c185d5cd95960621b604482015290519081900360640190fd5b610cff611edb565b565b600080610d15610d0f6114c9565b84611f7b565b90506000610d21610dc8565b6001600160a01b031663063f384f610d37611deb565b30856040518463ffffffff1660e01b8152600401610d5793929190612bb6565b60206040518083038186803b158015610d6f57600080fd5b505afa158015610d83573d6000803e3d6000fd5b505050506040513d601f19601f82011682018060405250810190610da79190612b3e565b949350505050565b610dbb34826000611fd9565b50565b600061075661073c565b6000610dd261144b565b6001600160a01b0316635028db1a6040518163ffffffff1660e01b815260040160206040518083038186803b158015610e0a57600080fd5b505afa158015610e1e573d6000803e3d6000fd5b505050506040513d601f19601f820116820180604052508101906107d191906129eb565b61520890565b6000806000610e55610fd0565b915091508060001415610e6d57600092505050610749565b600081610e8284670de0b6b3a7640000611e1b565b81610e8957fe5b049050600080610e97611196565b6001600160801b0391821693501690506000610ec582610ebf85670de0b6b3a7640000611e1b565b90611e74565b9093109550505050505090565b610eda611deb565b6001600160a01b0316610eeb6113b1565b6001600160a01b031614610f34576040805162461bcd60e51b81526020600482018190526024820152600080516020613000833981519152604482015290519081900360640190fd5b6001600160a01b038116610f5a5760405162461bcd60e51b815260040161091a90612d82565b609a80546001600160a01b0319166001600160a01b038316908117909155610f80611deb565b6001600160a01b03167f9cfa0588ff5ff3789d20735024d004bfb8db496d5117712e136adbfe97af41d760405160405180910390a350565b60655460ff1690565b6097546001600160a01b031690565b600080610fdb610dbe565b9150610fe86103446113c0565b90509091565b600080610ff9610dc8565b6001600160a01b031663be3945e461100f611deb565b30866040518463ffffffff1660e01b815260040161102f93929190612bb6565b60206040518083038186803b15801561104757600080fd5b505afa15801561105b573d6000803e3d6000fd5b505050506040513d601f19601f8201168201806040525081019061107f9190612b3e565b905061109b61108c6114c9565b61109685846120cc565b611def565b9392505050565b6110aa611deb565b6001600160a01b03166110bb6113b1565b6001600160a01b031614611104576040805162461bcd60e51b81526020600482018190526024820152600080516020613000833981519152604482015290519081900360640190fd5b6033546040516000916001600160a01b0316907f8be0079c531659141344cd1fd0a4f28419497f9722a3daafe3b4186f6b6457e0908390a3603380546001600160a01b0319169055565b61115b8383836001612129565b50505050565b34600061117082858584612129565b905080821461115b5761115b818303611187611deb565b6001600160a01b031690612250565b6098546001600160801b0380821692600160801b9092041690565b6111b9611deb565b6001600160a01b03166111ca6113b1565b6001600160a01b031614611213576040805162461bcd60e51b81526020600482018190526024820152600080516020613000833981519152604482015290519081900360640190fd5b61121b610fb8565b15611260576040805162461bcd60e51b815260206004820152601060248201526f14185d5cd8589b194e881c185d5cd95960821b604482015290519081900360640190fd5b610cff612335565b611270611deb565b6001600160a01b03166112816113b1565b6001600160a01b0316146112ca576040805162461bcd60e51b81526020600482018190526024820152600080516020613000833981519152604482015290519081900360640190fd5b6112d261073c565b6001600160a01b0316836001600160a01b031614156113035760405162461bcd60e51b815260040161091a90612e3a565b61130b61144b565b6001600160a01b0316836001600160a01b0316141561133c5760405162461bcd60e51b815260040161091a90612c1c565b6113506001600160a01b03841683836123b8565b816001600160a01b0316836001600160a01b031661136c611deb565b6001600160a01b03167feaf4cea276efdcae93a52ca2f4bfdd952992169289bf655b1870a4b20bdae7d6846040516113a49190612f24565b60405180910390a4505050565b6033546001600160a01b031690565b60006107d16113cd61074c565b6113d561144b565b6001600160a01b03166318160ddd6040518163ffffffff1660e01b815260040160206040518083038186803b15801561140d57600080fd5b505afa158015611421573d6000803e3d6000fd5b505050506040513d601f19601f820116820180604052508101906114459190612b3e565b906120cc565b6099546001600160a01b031690565b6000806000611467610fd0565b91509150600080611476611196565b9150915060006114a5826001600160801b0316610ebf856001600160801b031687611e1b90919063ffffffff16565b9050808511156114bd57600095505050505050610749565b93909303935050505090565b6000806114d4611b5b565b905060006114e0610bb2565b9050808211156114ee578091505b50905090565b6114fc611deb565b6001600160a01b031661150d6113b1565b6001600160a01b031614611556576040805162461bcd60e51b81526020600482018190526024820152600080516020613000833981519152604482015290519081900360640190fd5b6001600160a01b03811661157c5760405162461bcd60e51b815260040161091a90612c8a565b609780546001600160a01b0319166001600160a01b0383169081179091556115a2611deb565b6001600160a01b03167f580c76d0bfa674377787c86b7e4910624b8de2f31c4f8284196ac7ce68a3a57b60405160405180910390a350565b80428110156115fb5760405162461bcd60e51b815260040161091a90612edf565b611603610fc1565b6001600160a01b0316639e2437146040518163ffffffff1660e01b815260040160206040518083038186803b15801561163b57600080fd5b505afa15801561164f573d6000803e3d6000fd5b505050506040513d601f19601f820116820180604052508101906116739190612a47565b156116905760405162461bcd60e51b815260040161091a90612c53565b836116ad5760405162461bcd60e51b815260040161091a90612e71565b60006116b885610fee565b9050838110156116da5760405162461bcd60e51b815260040161091a90612d07565b6116ec6116e5611deb565b868361240a565b5050505050565b6000806000611700611196565b91509150611729816001600160801b0316610ebf846001600160801b0316610c066103446113c0565b9250505090565b80428110156117515760405162461bcd60e51b815260040161091a90612edf565b611759610fc1565b6001600160a01b0316639e2437146040518163ffffffff1660e01b815260040160206040518083038186803b15801561179157600080fd5b505afa1580156117a5573d6000803e3d6000fd5b505050506040513d601f19601f820116820180604052508101906117c99190612a47565b156117e65760405162461bcd60e51b815260040161091a90612c53565b826118035760405162461bcd60e51b815260040161091a90612e71565b600061180e84610fee565b905061115b61181b611deb565b858361240a565b61088e82826001611fd9565b61183b8383836001612446565b505050565b61088e3483836000612446565b60006109d661185a611b5b565b83611f7b565b80428110156118815760405162461bcd60e51b815260040161091a90612edf565b611889610fc1565b6001600160a01b0316639e2437146040518163ffffffff1660e01b815260040160206040518083038186803b1580156118c157600080fd5b505afa1580156118d5573d6000803e3d6000fd5b505050506040513d601f19601f820116820180604052508101906118f99190612a47565b156119165760405162461bcd60e51b815260040161091a90612c53565b836119335760405162461bcd60e51b815260040161091a90612e71565b600061193e84610d01565b9050848111156119605760405162461bcd60e51b815260040161091a90612be5565b6116ec61196b611deb565b828661240a565b61197a611deb565b6001600160a01b031661198b6113b1565b6001600160a01b0316146119d4576040805162461bcd60e51b81526020600482018190526024820152600080516020613000833981519152604482015290519081900360640190fd5b6001600160a01b038116611a195760405162461bcd60e51b8152600401808060200182810382526026815260200180612f516026913960400191505060405180910390fd5b6033546040516001600160a01b038084169216907f8be0079c531659141344cd1fd0a4f28419497f9722a3daafe3b4186f6b6457e090600090a3603380546001600160a01b0319166001600160a01b0392909216919091179055565b611a7d611deb565b6001600160a01b0316611a8e6113b1565b6001600160a01b031614611ad7576040805162461bcd60e51b81526020600482018190526024820152600080516020613000833981519152604482015290519081900360640190fd5b6001600160a01b038116611afd5760405162461bcd60e51b815260040161091a90612e03565b609980546001600160a01b0319166001600160a01b038316908117909155611b23611deb565b6001600160a01b03167f771296b6c631391f79de88226814060fdb511864a4e620f8085f4534f20b5f8460405160405180910390a350565b6000611b65610fc1565b6001600160a01b031663fe173b976040518163ffffffff1660e01b815260040160206040518083038186803b15801561079957600080fd5b3b151590565b6000611bae30611b9d565b15905090565b600054610100900460ff1680611bcd5750611bcd611ba3565b80611bdb575060005460ff16155b611c165760405162461bcd60e51b815260040180806020018281038252602e815260200180612fb1602e913960400191505060405180910390fd5b600054610100900460ff16158015611c41576000805460ff1961ff0019909116610100171660011790555b8015610dbb576000805461ff001916905550565b600054610100900460ff1680611c6e5750611c6e611ba3565b80611c7c575060005460ff16155b611cb75760405162461bcd60e51b815260040180806020018281038252602e815260200180612fb1602e913960400191505060405180910390fd5b600054610100900460ff16158015611ce2576000805460ff1961ff0019909116610100171660011790555b603380546001600160a01b0319166001600160a01b0384169081179091556040516000907f8be0079c531659141344cd1fd0a4f28419497f9722a3daafe3b4186f6b6457e0908290a3801561088e576000805461ff00191690555050565b600054610100900460ff1680611d595750611d59611ba3565b80611d67575060005460ff16155b611da25760405162461bcd60e51b815260040180806020018281038252602e815260200180612fb1602e913960400191505060405180910390fd5b600054610100900460ff16158015611dcd576000805460ff1961ff0019909116610100171660011790555b6065805460ff191690558015610dbb576000805461ff001916905550565b3390565b6000611e12670de0b6b3a7640000610ebf611e08610e42565b610c068787611e1b565b90505b92915050565b600082611e2a57506000611e15565b82820282848281611e3757fe5b0414611e125760405162461bcd60e51b8152600401808060200182810382526021815260200180612fdf6021913960400191505060405180910390fd5b6000808211611eca576040805162461bcd60e51b815260206004820152601a60248201527f536166654d6174683a206469766973696f6e206279207a65726f000000000000604482015290519081900360640190fd5b818381611ed357fe5b049392505050565b611ee3610fb8565b611f2b576040805162461bcd60e51b815260206004820152601460248201527314185d5cd8589b194e881b9bdd081c185d5cd95960621b604482015290519081900360640190fd5b6065805460ff191690557f5db9ee0a495bf2e6ff9c91a7834c1ba4fdd244a5e8aa4e537bd38aeae4b073aa611f5e611deb565b604080516001600160a01b039092168252519081900360200190a1565b600082611f9a5760405162461bcd60e51b815260040161091a90612ea8565b6000611fae83670de0b6b3a7640000611e1b565b90506000611fc4611fbd610e42565b8690611e1b565b9050611fd08282611e74565b95945050505050565b8142811015611ffa5760405162461bcd60e51b815260040161091a90612edf565b612002610fc1565b6001600160a01b0316639e2437146040518163ffffffff1660e01b815260040160206040518083038186803b15801561203a57600080fd5b505afa15801561204e573d6000803e3d6000fd5b505050506040513d601f19601f820116820180604052508101906120729190612a47565b1561208f5760405162461bcd60e51b815260040161091a90612c53565b836120ac5760405162461bcd60e51b815260040161091a90612e71565b60006120b78561184d565b90506116ec6120c4611deb565b868386612561565b600082821115612123576040805162461bcd60e51b815260206004820152601e60248201527f536166654d6174683a207375627472616374696f6e206f766572666c6f770000604482015290519081900360640190fd5b50900390565b6000824281101561214c5760405162461bcd60e51b815260040161091a90612edf565b612154610fc1565b6001600160a01b0316639e2437146040518163ffffffff1660e01b815260040160206040518083038186803b15801561218c57600080fd5b505afa1580156121a0573d6000803e3d6000fd5b505050506040513d601f19601f820116820180604052508101906121c49190612a47565b156121e15760405162461bcd60e51b815260040161091a90612c53565b856121fe5760405162461bcd60e51b815260040161091a90612e71565b612212600161220c876109c3565b9061268a565b9150858211156122345760405162461bcd60e51b815260040161091a90612be5565b61224761223f611deb565b838786612561565b50949350505050565b804710156122a5576040805162461bcd60e51b815260206004820152601d60248201527f416464726573733a20696e73756666696369656e742062616c616e6365000000604482015290519081900360640190fd5b6040516000906001600160a01b0384169083908381818185875af1925050503d80600081146122f0576040519150601f19603f3d011682016040523d82523d6000602084013e6122f5565b606091505b505090508061183b5760405162461bcd60e51b815260040180806020018281038252603a815260200180612f77603a913960400191505060405180910390fd5b61233d610fb8565b15612382576040805162461bcd60e51b815260206004820152601060248201526f14185d5cd8589b194e881c185d5cd95960821b604482015290519081900360640190fd5b6065805460ff191660011790557f62e78cea01bee320cd4e420270b5ea74000d11b0c9f74754ebdbfc544b05a258611f5e611deb565b604080516001600160a01b038416602482015260448082018490528251808303909101815260649091019091526020810180516001600160e01b031663a9059cbb60e01b17905261183b9084906126e4565b61242983308461241861144b565b6001600160a01b0316929190612795565b61183b838261243661073c565b6001600160a01b031691906123b8565b81428110156124675760405162461bcd60e51b815260040161091a90612edf565b61246f610fc1565b6001600160a01b0316639e2437146040518163ffffffff1660e01b815260040160206040518083038186803b1580156124a757600080fd5b505afa1580156124bb573d6000803e3d6000fd5b505050506040513d601f19601f820116820180604052508101906124df9190612a47565b156124fc5760405162461bcd60e51b815260040161091a90612c53565b846125195760405162461bcd60e51b815260040161091a90612e71565b60006125248661184d565b9050848110156125465760405162461bcd60e51b815260040161091a90612d07565b612559612551611deb565b878386612561565b505050505050565b600061256b61144b565b6001600160a01b03166370a08231306040518263ffffffff1660e01b81526004016125969190612ba2565b60206040518083038186803b1580156125ae57600080fd5b505afa1580156125c2573d6000803e3d6000fd5b505050506040513d601f19601f820116820180604052508101906125e69190612b3e565b9050828110156126085760405162461bcd60e51b815260040161091a90612d3e565b81156126215761261c85308661241861073c565b61267d565b61262961073c565b6001600160a01b031663d0e30db0856040518263ffffffff1660e01b81526004016000604051808303818588803b15801561266357600080fd5b505af1158015612677573d6000803e3d6000fd5b50505050505b6116ec858461243661144b565b600082820183811015611e12576040805162461bcd60e51b815260206004820152601b60248201527f536166654d6174683a206164646974696f6e206f766572666c6f770000000000604482015290519081900360640190fd5b6000612739826040518060400160405280602081526020017f5361666545524332303a206c6f772d6c6576656c2063616c6c206661696c6564815250856001600160a01b03166127ef9092919063ffffffff16565b80519091501561183b5780806020019051602081101561275857600080fd5b505161183b5760405162461bcd60e51b815260040180806020018281038252602a815260200180613020602a913960400191505060405180910390fd5b604080516001600160a01b0380861660248301528416604482015260648082018490528251808303909101815260849091019091526020810180516001600160e01b03166323b872dd60e01b17905261115b9085906126e4565b6060610da784846000858561280385611b9d565b612854576040805162461bcd60e51b815260206004820152601d60248201527f416464726573733a2063616c6c20746f206e6f6e2d636f6e7472616374000000604482015290519081900360640190fd5b600080866001600160a01b031685876040518082805190602001908083835b602083106128925780518252601f199092019160209182019101612873565b6001836020036101000a03801982511681845116808217855250505050505090500191505060006040518083038185875af1925050503d80600081146128f4576040519150601f19603f3d011682016040523d82523d6000602084013e6128f9565b606091505b5091509150612909828286612914565b979650505050505050565b6060831561292357508161109b565b8251156129335782518084602001fd5b8160405162461bcd60e51b81526004018080602001828103825283818151815260200191508051906020019080838360005b8381101561297d578181015183820152602001612965565b50505050905090810190601f1680156129aa5780820380516001836020036101000a031916815260200191505b509250505060405180910390fd5b80356001600160801b03811681146109d957600080fd5b6000602082840312156129e0578081fd5b8135611e1281612f3b565b6000602082840312156129fc578081fd5b8151611e1281612f3b565b600080600060608486031215612a1b578182fd5b8335612a2681612f3b565b92506020840135612a3681612f3b565b929592945050506040919091013590565b600060208284031215612a58578081fd5b81518015158114611e12578182fd5b600060a08284031215612a78578081fd5b60405160a0810181811067ffffffffffffffff82111715612a9557fe5b6040528235612aa381612f3b565b81526020830135612ab381612f3b565b60208201526040830135612ac681612f3b565b6040820152612ad7606084016129b8565b6060820152612ae8608084016129b8565b60808201529392505050565b60008060408385031215612b06578182fd5b612b0f836129b8565b9150612b1d602084016129b8565b90509250929050565b600060208284031215612b37578081fd5b5035919050565b600060208284031215612b4f578081fd5b5051919050565b60008060408385031215612b68578182fd5b50508035926020909101359150565b600080600060608486031215612b8b578283fd5b505081359360208301359350604090920135919050565b6001600160a01b0391909116815260200190565b6001600160a01b039384168152919092166020820152604081019190915260600190565b901515815260200190565b6020808252601e908201527f4554487478414d4d3a20616d6f756e74496e2065786365656473206d61780000604082015260600190565b6020808252601e908201527f4554487478414d4d3a2063616e6e6f74207265636f7665722045544874780000604082015260600190565b6020808252601f908201527f4554487478414d4d3a20676173207072696365206973206f7574646174656400604082015260600190565b6020808252818101527f4554487478414d4d3a206761734f7261636c65207a65726f2061646472657373604082015260600190565b60208082526028908201527f4554487478414d4d3a2074617267657443526174696f206e756d657261746f72604082015267206973207a65726f60c01b606082015260800190565b6020808252601d908201527f4554487478414d4d3a20616d6f756e744f75742062656c6f77206d696e000000604082015260600190565b60208082526024908201527f4554487478414d4d3a206e6f7420656e6f75676820455448747820617661696c60408201526361626c6560e01b606082015260800190565b6020808252601b908201527f4554487478414d4d3a2057455448207a65726f20616464726573730000000000604082015260600190565b6020808252602a908201527f4554487478414d4d3a2074617267657443526174696f2064656e6f6d696e61746040820152696f72206973207a65726f60b01b606082015260800190565b6020808252601c908201527f4554487478414d4d3a204554487478207a65726f206164647265737300000000604082015260600190565b6020808252601d908201527f4554487478414d4d3a2063616e6e6f74207265636f7665722057455448000000604082015260600190565b6020808252601a908201527f4554487478414d4d3a2063616e6e6f742073776170207a65726f000000000000604082015260600190565b6020808252601a908201527f4554487478414d4d3a206761735072696365206973207a65726f000000000000604082015260600190565b6020808252601190820152701155121d1e1053534e88195e1c1a5c9959607a1b604082015260600190565b6001600160801b0392831681529116602082015260400190565b90815260200190565b918252602082015260400190565b6001600160a01b0381168114610dbb57600080fdfe4f776e61626c653a206e6577206f776e657220697320746865207a65726f2061646472657373416464726573733a20756e61626c6520746f2073656e642076616c75652c20726563697069656e74206d61792068617665207265766572746564496e697469616c697a61626c653a20636f6e747261637420697320616c726561647920696e697469616c697a6564536166654d6174683a206d756c7469706c69636174696f6e206f766572666c6f774f776e61626c653a2063616c6c6572206973206e6f7420746865206f776e65725361666545524332303a204552433230206f7065726174696f6e20646964206e6f742073756363656564a26469706673582212207cacab980e2f087e769814bd176bc30edc233c1761fedd880731ad53a749852864736f6c63430007060033496e697469616c697a61626c653a20636f6e747261637420697320616c726561647920696e697469616c697a6564",
  "devdoc": {
    "kind": "dev",
    "methods": {
      "owner()": {
        "details": "Returns the address of the current owner."
      },
      "paused()": {
        "details": "Returns true if the contract is paused, and false otherwise."
      },
      "renounceOwnership()": {
        "details": "Leaves the contract without owner. It will not be possible to call `onlyOwner` functions anymore. Can only be called by the current owner. NOTE: Renouncing ownership will leave the contract without an owner, thereby removing any functionality that is only available to the owner."
      },
      "transferOwnership(address)": {
        "details": "Transfers ownership of the contract to a new account (`newOwner`). Can only be called by the current owner."
      }
    },
    "version": 1
  },
  "userdoc": {
    "kind": "user",
    "methods": {},
    "version": 1
  },
  "storageLayout": {
    "storage": [
      {
        "astId": 6,
        "contract": "contracts/exchanges/ETHtxAMM/ETHtxAMM.sol:ETHtxAMM",
        "label": "_initialized",
        "offset": 0,
        "slot": "0",
        "type": "t_bool"
      },
      {
        "astId": 9,
        "contract": "contracts/exchanges/ETHtxAMM/ETHtxAMM.sol:ETHtxAMM",
        "label": "_initializing",
        "offset": 1,
        "slot": "0",
        "type": "t_bool"
      },
      {
        "astId": 353,
        "contract": "contracts/exchanges/ETHtxAMM/ETHtxAMM.sol:ETHtxAMM",
        "label": "__gap",
        "offset": 0,
        "slot": "1",
        "type": "t_array(t_uint256)50_storage"
      },
      {
        "astId": 3458,
        "contract": "contracts/exchanges/ETHtxAMM/ETHtxAMM.sol:ETHtxAMM",
        "label": "_owner",
        "offset": 0,
        "slot": "51",
        "type": "t_address"
      },
      {
        "astId": 3577,
        "contract": "contracts/exchanges/ETHtxAMM/ETHtxAMM.sol:ETHtxAMM",
        "label": "__gap",
        "offset": 0,
        "slot": "52",
        "type": "t_array(t_uint256)49_storage"
      },
      {
        "astId": 375,
        "contract": "contracts/exchanges/ETHtxAMM/ETHtxAMM.sol:ETHtxAMM",
        "label": "_paused",
        "offset": 0,
        "slot": "101",
        "type": "t_bool"
      },
      {
        "astId": 466,
        "contract": "contracts/exchanges/ETHtxAMM/ETHtxAMM.sol:ETHtxAMM",
        "label": "__gap",
        "offset": 0,
        "slot": "102",
        "type": "t_array(t_uint256)49_storage"
      },
      {
        "astId": 6261,
        "contract": "contracts/exchanges/ETHtxAMM/ETHtxAMM.sol:ETHtxAMM",
        "label": "_gasOracle",
        "offset": 0,
        "slot": "151",
        "type": "t_address"
      },
      {
        "astId": 6263,
        "contract": "contracts/exchanges/ETHtxAMM/ETHtxAMM.sol:ETHtxAMM",
        "label": "_targetCRatioNum",
        "offset": 0,
        "slot": "152",
        "type": "t_uint128"
      },
      {
        "astId": 6265,
        "contract": "contracts/exchanges/ETHtxAMM/ETHtxAMM.sol:ETHtxAMM",
        "label": "_targetCRatioDen",
        "offset": 16,
        "slot": "152",
        "type": "t_uint128"
      },
      {
        "astId": 6267,
        "contract": "contracts/exchanges/ETHtxAMM/ETHtxAMM.sol:ETHtxAMM",
        "label": "_ethtx",
        "offset": 0,
        "slot": "153",
        "type": "t_address"
      },
      {
        "astId": 6269,
        "contract": "contracts/exchanges/ETHtxAMM/ETHtxAMM.sol:ETHtxAMM",
        "label": "_weth",
        "offset": 0,
        "slot": "154",
        "type": "t_address"
      },
      {
        "astId": 6273,
        "contract": "contracts/exchanges/ETHtxAMM/ETHtxAMM.sol:ETHtxAMM",
        "label": "__gap",
        "offset": 0,
        "slot": "155",
        "type": "t_array(t_uint256)45_storage"
      }
    ],
    "types": {
      "t_address": {
        "encoding": "inplace",
        "label": "address",
        "numberOfBytes": "20"
      },
      "t_array(t_uint256)45_storage": {
        "base": "t_uint256",
        "encoding": "inplace",
        "label": "uint256[45]",
        "numberOfBytes": "1440"
      },
      "t_array(t_uint256)49_storage": {
        "base": "t_uint256",
        "encoding": "inplace",
        "label": "uint256[49]",
        "numberOfBytes": "1568"
      },
      "t_array(t_uint256)50_storage": {
        "base": "t_uint256",
        "encoding": "inplace",
        "label": "uint256[50]",
        "numberOfBytes": "1600"
      },
      "t_bool": {
        "encoding": "inplace",
        "label": "bool",
        "numberOfBytes": "1"
      },
      "t_uint128": {
        "encoding": "inplace",
        "label": "uint128",
        "numberOfBytes": "16"
      },
      "t_uint256": {
        "encoding": "inplace",
        "label": "uint256",
        "numberOfBytes": "32"
      }
    }
  }
}