{
  "address": "0x5ff01Fdf3a100bb7c39384d4715E250B7daD1D36",
  "abi": [
    {
      "inputs": [
        {
          "internalType": "address",
          "name": "owner_",
          "type": "address"
        },
        {
          "internalType": "address",
          "name": "recipient_",
          "type": "address"
        },
        {
          "internalType": "uint128",
          "name": "feeRateNumerator",
          "type": "uint128"
        },
        {
          "internalType": "uint128",
          "name": "feeRateDenominator",
          "type": "uint128"
        }
      ],
      "stateMutability": "nonpayable",
      "type": "constructor"
    },
    {
      "anonymous": false,
      "inputs": [
        {
          "indexed": true,
          "internalType": "address",
          "name": "author",
          "type": "address"
        },
        {
          "indexed": true,
          "internalType": "address",
          "name": "account",
          "type": "address"
        }
      ],
      "name": "ExemptAdded",
      "type": "event"
    },
    {
      "anonymous": false,
      "inputs": [
        {
          "indexed": true,
          "internalType": "address",
          "name": "author",
          "type": "address"
        },
        {
          "indexed": true,
          "internalType": "address",
          "name": "account",
          "type": "address"
        }
      ],
      "name": "ExemptRemoved",
      "type": "event"
    },
    {
      "anonymous": false,
      "inputs": [
        {
          "indexed": true,
          "internalType": "address",
          "name": "author",
          "type": "address"
        },
        {
          "indexed": false,
          "internalType": "uint128",
          "name": "numerator",
          "type": "uint128"
        },
        {
          "indexed": false,
          "internalType": "uint128",
          "name": "denominator",
          "type": "uint128"
        }
      ],
      "name": "FeeRateSet",
      "type": "event"
    },
    {
      "anonymous": false,
      "inputs": [
        {
          "indexed": true,
          "internalType": "address",
          "name": "previousOwner",
          "type": "address"
        },
        {
          "indexed": true,
          "internalType": "address",
          "name": "newOwner",
          "type": "address"
        }
      ],
      "name": "OwnershipTransferred",
      "type": "event"
    },
    {
      "anonymous": false,
      "inputs": [
        {
          "indexed": true,
          "internalType": "address",
          "name": "author",
          "type": "address"
        },
        {
          "indexed": true,
          "internalType": "address",
          "name": "account",
          "type": "address"
        }
      ],
      "name": "RecipientSet",
      "type": "event"
    },
    {
      "inputs": [
        {
          "internalType": "uint256",
          "name": "index",
          "type": "uint256"
        }
      ],
      "name": "exemptsAt",
      "outputs": [
        {
          "internalType": "address",
          "name": "",
          "type": "address"
        }
      ],
      "stateMutability": "view",
      "type": "function"
    },
    {
      "inputs": [],
      "name": "exemptsLength",
      "outputs": [
        {
          "internalType": "uint256",
          "name": "",
          "type": "uint256"
        }
      ],
      "stateMutability": "view",
      "type": "function"
    },
    {
      "inputs": [],
      "name": "feeRate",
      "outputs": [
        {
          "internalType": "uint128",
          "name": "numerator",
          "type": "uint128"
        },
        {
          "internalType": "uint128",
          "name": "denominator",
          "type": "uint128"
        }
      ],
      "stateMutability": "view",
      "type": "function"
    },
    {
      "inputs": [
        {
          "internalType": "address",
          "name": "sender",
          "type": "address"
        },
        {
          "internalType": "address",
          "name": "",
          "type": "address"
        },
        {
          "internalType": "uint256",
          "name": "amount",
          "type": "uint256"
        }
      ],
      "name": "getFee",
      "outputs": [
        {
          "internalType": "uint256",
          "name": "",
          "type": "uint256"
        }
      ],
      "stateMutability": "view",
      "type": "function"
    },
    {
      "inputs": [
        {
          "internalType": "address",
          "name": "account",
          "type": "address"
        }
      ],
      "name": "isExempt",
      "outputs": [
        {
          "internalType": "bool",
          "name": "",
          "type": "bool"
        }
      ],
      "stateMutability": "view",
      "type": "function"
    },
    {
      "inputs": [
        {
          "internalType": "uint256",
          "name": "",
          "type": "uint256"
        }
      ],
      "name": "notify",
      "outputs": [],
      "stateMutability": "nonpayable",
      "type": "function"
    },
    {
      "inputs": [],
      "name": "owner",
      "outputs": [
        {
          "internalType": "address",
          "name": "",
          "type": "address"
        }
      ],
      "stateMutability": "view",
      "type": "function"
    },
    {
      "inputs": [],
      "name": "recipient",
      "outputs": [
        {
          "internalType": "address",
          "name": "",
          "type": "address"
        }
      ],
      "stateMutability": "view",
      "type": "function"
    },
    {
      "inputs": [],
      "name": "renounceOwnership",
      "outputs": [],
      "stateMutability": "nonpayable",
      "type": "function"
    },
    {
      "inputs": [
        {
          "internalType": "address",
          "name": "account",
          "type": "address"
        },
        {
          "internalType": "bool",
          "name": "isExempt_",
          "type": "bool"
        }
      ],
      "name": "setExempt",
      "outputs": [],
      "stateMutability": "nonpayable",
      "type": "function"
    },
    {
      "inputs": [
        {
          "internalType": "uint128",
          "name": "numerator",
          "type": "uint128"
        },
        {
          "internalType": "uint128",
          "name": "denominator",
          "type": "uint128"
        }
      ],
      "name": "setFeeRate",
      "outputs": [],
      "stateMutability": "nonpayable",
      "type": "function"
    },
    {
      "inputs": [
        {
          "internalType": "address",
          "name": "account",
          "type": "address"
        }
      ],
      "name": "setRecipient",
      "outputs": [],
      "stateMutability": "nonpayable",
      "type": "function"
    },
    {
      "inputs": [
        {
          "internalType": "address",
          "name": "newOwner",
          "type": "address"
        }
      ],
      "name": "transferOwnership",
      "outputs": [],
      "stateMutability": "nonpayable",
      "type": "function"
    },
    {
      "inputs": [
        {
          "internalType": "address",
          "name": "sender",
          "type": "address"
        },
        {
          "internalType": "address",
          "name": "",
          "type": "address"
        },
        {
          "internalType": "uint256",
          "name": "amount",
          "type": "uint256"
        }
      ],
      "name": "undoFee",
      "outputs": [
        {
          "internalType": "uint256",
          "name": "",
          "type": "uint256"
        }
      ],
      "stateMutability": "view",
      "type": "function"
    }
  ],
  "transactionHash": "0x6030f5524f880b5a05a3665bcd2e0093a5be9237ea652df992c8841010761f06",
  "args": [
    "0x5757Dd711EaE80e181E07CdbCe43359Ac1048394",
    "0x0000000000000000000000000000000000000002",
    75,
    1000
  ],
  "solcInputHash": "d866fd3a9c665c3159ffcb94310e6171",
  "bytecode": "0x60806040523480156200001157600080fd5b50604051620011e3380380620011e3833981810160405260808110156200003757600080fd5b508051602082015160408301516060909301519192909160006200005a620000e2565b600080546001600160a01b0319166001600160a01b038316908117825560405192935091600080516020620011a0833981519152908290a3506200009e83620000e6565b620000aa8282620001e9565b620000b462000340565b6001600160a01b0316846001600160a01b031614620000d857620000d8846200034f565b505050506200043c565b3390565b620000f0620000e2565b6000546001600160a01b0390811691161462000142576040805162461bcd60e51b8152602060048201819052602482015260008051602062001180833981519152604482015290519081900360640190fd5b6001600160a01b038116620001895760405162461bcd60e51b8152600401808060200182810382526023815260200180620011c06023913960400191505060405180910390fd5b600480546001600160a01b0319166001600160a01b038316908117909155620001b1620000e2565b6001600160a01b03167fc1416b5cdab50a9fbc872236e1aa54566c6deb40024e63a4b1737ecacf09d6f960405160405180910390a350565b620001f3620000e2565b6000546001600160a01b0390811691161462000245576040805162461bcd60e51b8152602060048201819052602482015260008051602062001180833981519152604482015290519081900360640190fd5b816001600160801b0316816001600160801b031611620002ac576040805162461bcd60e51b815260206004820152601d60248201527f4665654c6f6769633a20666565526174652069732067746520746f2031000000604482015290519081900360640190fd5b600380546001600160801b03838116600160801b028186166001600160801b03199093169290921716179055620002e2620000e2565b6001600160a01b03167f7501624ae38fb0df57a18102db88078470b15839a2e2ead878d453b5e4efe264838360405180836001600160801b03168152602001826001600160801b031681526020019250505060405180910390a25050565b6000546001600160a01b031690565b62000359620000e2565b6000546001600160a01b03908116911614620003ab576040805162461bcd60e51b8152602060048201819052602482015260008051602062001180833981519152604482015290519081900360640190fd5b6001600160a01b038116620003f25760405162461bcd60e51b81526004018080602001828103825260268152602001806200115a6026913960400191505060405180910390fd5b600080546040516001600160a01b0380851693921691600080516020620011a083398151915291a3600080546001600160a01b0319166001600160a01b0392909216919091179055565b610d0e806200044c6000396000f3fe608060405234801561001057600080fd5b50600436106100ea5760003560e01c806398d078b41161008c578063ad5dff7311610066578063ad5dff7314610260578063bd26697a1461029a578063be3945e4146102a2578063f2fde38b146102d8576100ea565b806398d078b4146101e75780639c5f81cc146102045780639fde54f514610232576100ea565b806366d003ac116100c857806366d003ac14610198578063715018a6146101a05780638da5cb5b146101a8578063978bbdb9146101b0576100ea565b8063063f384f146100ef578063226a1a1a146101375780633bbed4a014610170575b600080fd5b6101256004803603606081101561010557600080fd5b506001600160a01b038135811691602081013590911690604001356102fe565b60408051918252519081900360200190f35b6101546004803603602081101561014d57600080fd5b5035610353565b604080516001600160a01b039092168252519081900360200190f35b6101966004803603602081101561018657600080fd5b50356001600160a01b0316610366565b005b610154610461565b610196610470565b610154610512565b6101b8610521565b60405180836001600160801b03168152602001826001600160801b031681526020019250505060405180910390f35b610196600480360360208110156101fd57600080fd5b503561053c565b6101966004803603604081101561021a57600080fd5b506001600160801b038135811691602001351661053f565b6101966004803603604081101561024857600080fd5b506001600160a01b0381351690602001351515610698565b6102866004803603602081101561027657600080fd5b50356001600160a01b03166107b0565b604080519115158252519081900360200190f35b6101256107bd565b610125600480360360608110156102b857600080fd5b506001600160a01b038135811691602081013590911690604001356107ce565b610196600480360360208110156102ee57600080fd5b50356001600160a01b031661080d565b600061030b600185610905565b1561031757508061034c565b600354610349906001600160801b03808216600160801b9092048116918203169061034390859061091a565b90610973565b90505b9392505050565b60006103606001836109b5565b92915050565b61036e6109c1565b6000546001600160a01b039081169116146103be576040805162461bcd60e51b81526020600482018190526024820152600080516020610c96833981519152604482015290519081900360640190fd5b6001600160a01b0381166104035760405162461bcd60e51b8152600401808060200182810382526023815260200180610cb66023913960400191505060405180910390fd5b600480546001600160a01b0319166001600160a01b0383169081179091556104296109c1565b6001600160a01b03167fc1416b5cdab50a9fbc872236e1aa54566c6deb40024e63a4b1737ecacf09d6f960405160405180910390a350565b6004546001600160a01b031690565b6104786109c1565b6000546001600160a01b039081169116146104c8576040805162461bcd60e51b81526020600482018190526024820152600080516020610c96833981519152604482015290519081900360640190fd5b600080546040516001600160a01b03909116907f8be0079c531659141344cd1fd0a4f28419497f9722a3daafe3b4186f6b6457e0908390a3600080546001600160a01b0319169055565b6000546001600160a01b031690565b6003546001600160801b0380821692600160801b9092041690565b50565b6105476109c1565b6000546001600160a01b03908116911614610597576040805162461bcd60e51b81526020600482018190526024820152600080516020610c96833981519152604482015290519081900360640190fd5b816001600160801b0316816001600160801b0316116105fd576040805162461bcd60e51b815260206004820152601d60248201527f4665654c6f6769633a20666565526174652069732067746520746f2031000000604482015290519081900360640190fd5b600380546001600160801b03838116600160801b028186166fffffffffffffffffffffffffffffffff19909316929092171617905561063a6109c1565b6001600160a01b03167f7501624ae38fb0df57a18102db88078470b15839a2e2ead878d453b5e4efe264838360405180836001600160801b03168152602001826001600160801b031681526020019250505060405180910390a25050565b6106a06109c1565b6000546001600160a01b039081169116146106f0576040805162461bcd60e51b81526020600482018190526024820152600080516020610c96833981519152604482015290519081900360640190fd5b80801561070357506107036001836109c5565b1561075457816001600160a01b031661071a6109c1565b6001600160a01b03167f62a70abcb247f7e8afe5918a6e2686c3d44444fe3b3610d15ec517da62d8780860405160405180910390a36107ac565b61075f6001836109da565b156107ac57816001600160a01b03166107766109c1565b6001600160a01b03167f81aa155d9f5d2077495ed2bc4fc21b6d37d33f9f4cf55d8d4586325d5df4515f60405160405180910390a35b5050565b6000610360600183610905565b60006107c960016109ef565b905090565b60006107db600185610905565b156107e85750600061034c565b600354610349906001600160801b03600160801b82048116916103439186911661091a565b6108156109c1565b6000546001600160a01b03908116911614610865576040805162461bcd60e51b81526020600482018190526024820152600080516020610c96833981519152604482015290519081900360640190fd5b6001600160a01b0381166108aa5760405162461bcd60e51b8152600401808060200182810382526026815260200180610c4f6026913960400191505060405180910390fd5b600080546040516001600160a01b03808516939216917f8be0079c531659141344cd1fd0a4f28419497f9722a3daafe3b4186f6b6457e091a3600080546001600160a01b0319166001600160a01b0392909216919091179055565b600061034c836001600160a01b0384166109fa565b60008261092957506000610360565b8282028284828161093657fe5b041461034c5760405162461bcd60e51b8152600401808060200182810382526021815260200180610c756021913960400191505060405180910390fd5b600061034c83836040518060400160405280601a81526020017f536166654d6174683a206469766973696f6e206279207a65726f000000000000815250610a12565b600061034c8383610ab4565b3390565b600061034c836001600160a01b038416610b18565b600061034c836001600160a01b038416610b62565b600061036082610c28565b60009081526001919091016020526040902054151590565b60008183610a9e5760405162461bcd60e51b81526004018080602001828103825283818151815260200191508051906020019080838360005b83811015610a63578181015183820152602001610a4b565b50505050905090810190601f168015610a905780820380516001836020036101000a031916815260200191505b509250505060405180910390fd5b506000838581610aaa57fe5b0495945050505050565b81546000908210610af65760405162461bcd60e51b8152600401808060200182810382526022815260200180610c2d6022913960400191505060405180910390fd5b826000018281548110610b0557fe5b9060005260206000200154905092915050565b6000610b2483836109fa565b610b5a57508154600181810184556000848152602080822090930184905584548482528286019093526040902091909155610360565b506000610360565b60008181526001830160205260408120548015610c1e5783546000198083019190810190600090879083908110610b9557fe5b9060005260206000200154905080876000018481548110610bb257fe5b600091825260208083209091019290925582815260018981019092526040902090840190558654879080610be257fe5b60019003818190600052602060002001600090559055866001016000878152602001908152602001600020600090556001945050505050610360565b6000915050610360565b549056fe456e756d657261626c655365743a20696e646578206f7574206f6620626f756e64734f776e61626c653a206e6577206f776e657220697320746865207a65726f2061646472657373536166654d6174683a206d756c7469706c69636174696f6e206f766572666c6f774f776e61626c653a2063616c6c6572206973206e6f7420746865206f776e65724665654c6f6769633a20726563697069656e74206973207a65726f2061646472657373a2646970667358221220ef999bfccb313c4adb4e40786e1dd5ba91d9920716083642ab692baede2fe3e364736f6c634300070600334f776e61626c653a206e6577206f776e657220697320746865207a65726f20616464726573734f776e61626c653a2063616c6c6572206973206e6f7420746865206f776e65728be0079c531659141344cd1fd0a4f28419497f9722a3daafe3b4186f6b6457e04665654c6f6769633a20726563697069656e74206973207a65726f2061646472657373",
  "devdoc": {
    "kind": "dev",
    "methods": {
      "owner()": {
        "details": "Returns the address of the current owner."
      },
      "renounceOwnership()": {
        "details": "Leaves the contract without owner. It will not be possible to call `onlyOwner` functions anymore. Can only be called by the current owner. NOTE: Renouncing ownership will leave the contract without an owner, thereby removing any functionality that is only available to the owner."
      },
      "transferOwnership(address)": {
        "details": "Transfers ownership of the contract to a new account (`newOwner`). Can only be called by the current owner."
      }
    },
    "version": 1
  },
  "userdoc": {
    "kind": "user",
    "methods": {},
    "version": 1
  },
  "storageLayout": {
    "storage": [
      {
        "astId": 912,
        "contract": "contracts/rewards/FeeLogic.sol:FeeLogic",
        "label": "_owner",
        "offset": 0,
        "slot": "0",
        "type": "t_address"
      },
      {
        "astId": 7985,
        "contract": "contracts/rewards/FeeLogic.sol:FeeLogic",
        "label": "_exempts",
        "offset": 0,
        "slot": "1",
        "type": "t_struct(AddressSet)2731_storage"
      },
      {
        "astId": 7987,
        "contract": "contracts/rewards/FeeLogic.sol:FeeLogic",
        "label": "_feeRateNum",
        "offset": 0,
        "slot": "3",
        "type": "t_uint128"
      },
      {
        "astId": 7989,
        "contract": "contracts/rewards/FeeLogic.sol:FeeLogic",
        "label": "_feeRateDen",
        "offset": 16,
        "slot": "3",
        "type": "t_uint128"
      },
      {
        "astId": 7991,
        "contract": "contracts/rewards/FeeLogic.sol:FeeLogic",
        "label": "_recipient",
        "offset": 0,
        "slot": "4",
        "type": "t_address"
      }
    ],
    "types": {
      "t_address": {
        "encoding": "inplace",
        "label": "address",
        "numberOfBytes": "20"
      },
      "t_array(t_bytes32)dyn_storage": {
        "base": "t_bytes32",
        "encoding": "dynamic_array",
        "label": "bytes32[]",
        "numberOfBytes": "32"
      },
      "t_bytes32": {
        "encoding": "inplace",
        "label": "bytes32",
        "numberOfBytes": "32"
      },
      "t_mapping(t_bytes32,t_uint256)": {
        "encoding": "mapping",
        "key": "t_bytes32",
        "label": "mapping(bytes32 => uint256)",
        "numberOfBytes": "32",
        "value": "t_uint256"
      },
      "t_struct(AddressSet)2731_storage": {
        "encoding": "inplace",
        "label": "struct EnumerableSet.AddressSet",
        "members": [
          {
            "astId": 2730,
            "contract": "contracts/rewards/FeeLogic.sol:FeeLogic",
            "label": "_inner",
            "offset": 0,
            "slot": "0",
            "type": "t_struct(Set)2466_storage"
          }
        ],
        "numberOfBytes": "64"
      },
      "t_struct(Set)2466_storage": {
        "encoding": "inplace",
        "label": "struct EnumerableSet.Set",
        "members": [
          {
            "astId": 2461,
            "contract": "contracts/rewards/FeeLogic.sol:FeeLogic",
            "label": "_values",
            "offset": 0,
            "slot": "0",
            "type": "t_array(t_bytes32)dyn_storage"
          },
          {
            "astId": 2465,
            "contract": "contracts/rewards/FeeLogic.sol:FeeLogic",
            "label": "_indexes",
            "offset": 0,
            "slot": "1",
            "type": "t_mapping(t_bytes32,t_uint256)"
          }
        ],
        "numberOfBytes": "64"
      },
      "t_uint128": {
        "encoding": "inplace",
        "label": "uint128",
        "numberOfBytes": "16"
      },
      "t_uint256": {
        "encoding": "inplace",
        "label": "uint256",
        "numberOfBytes": "32"
      }
    }
  }
}