{
  "address": "0xeE7f948220f4F6da44f930965A402Bbf63a100b9",
  "abi": [
    {
      "inputs": [
        {
          "internalType": "address",
          "name": "owner_",
          "type": "address"
        },
        {
          "internalType": "address",
          "name": "recipient_",
          "type": "address"
        },
        {
          "internalType": "uint128",
          "name": "feeRateNumerator",
          "type": "uint128"
        },
        {
          "internalType": "uint128",
          "name": "feeRateDenominator",
          "type": "uint128"
        },
        {
          "components": [
            {
              "internalType": "address",
              "name": "account",
              "type": "address"
            },
            {
              "internalType": "bool",
              "name": "isExempt",
              "type": "bool"
            }
          ],
          "internalType": "struct IFeeLogic.ExemptData[]",
          "name": "exemptions",
          "type": "tuple[]"
        }
      ],
      "stateMutability": "nonpayable",
      "type": "constructor"
    },
    {
      "anonymous": false,
      "inputs": [
        {
          "indexed": true,
          "internalType": "address",
          "name": "author",
          "type": "address"
        },
        {
          "indexed": true,
          "internalType": "address",
          "name": "account",
          "type": "address"
        }
      ],
      "name": "ExemptAdded",
      "type": "event"
    },
    {
      "anonymous": false,
      "inputs": [
        {
          "indexed": true,
          "internalType": "address",
          "name": "author",
          "type": "address"
        },
        {
          "indexed": true,
          "internalType": "address",
          "name": "account",
          "type": "address"
        }
      ],
      "name": "ExemptRemoved",
      "type": "event"
    },
    {
      "anonymous": false,
      "inputs": [
        {
          "indexed": true,
          "internalType": "address",
          "name": "author",
          "type": "address"
        },
        {
          "indexed": false,
          "internalType": "uint128",
          "name": "numerator",
          "type": "uint128"
        },
        {
          "indexed": false,
          "internalType": "uint128",
          "name": "denominator",
          "type": "uint128"
        }
      ],
      "name": "FeeRateSet",
      "type": "event"
    },
    {
      "anonymous": false,
      "inputs": [
        {
          "indexed": true,
          "internalType": "address",
          "name": "previousOwner",
          "type": "address"
        },
        {
          "indexed": true,
          "internalType": "address",
          "name": "newOwner",
          "type": "address"
        }
      ],
      "name": "OwnershipTransferred",
      "type": "event"
    },
    {
      "anonymous": false,
      "inputs": [
        {
          "indexed": true,
          "internalType": "address",
          "name": "author",
          "type": "address"
        },
        {
          "indexed": true,
          "internalType": "address",
          "name": "account",
          "type": "address"
        }
      ],
      "name": "RecipientSet",
      "type": "event"
    },
    {
      "inputs": [
        {
          "internalType": "uint256",
          "name": "index",
          "type": "uint256"
        }
      ],
      "name": "exemptsAt",
      "outputs": [
        {
          "internalType": "address",
          "name": "",
          "type": "address"
        }
      ],
      "stateMutability": "view",
      "type": "function"
    },
    {
      "inputs": [],
      "name": "exemptsLength",
      "outputs": [
        {
          "internalType": "uint256",
          "name": "",
          "type": "uint256"
        }
      ],
      "stateMutability": "view",
      "type": "function"
    },
    {
      "inputs": [],
      "name": "feeRate",
      "outputs": [
        {
          "internalType": "uint128",
          "name": "numerator",
          "type": "uint128"
        },
        {
          "internalType": "uint128",
          "name": "denominator",
          "type": "uint128"
        }
      ],
      "stateMutability": "view",
      "type": "function"
    },
    {
      "inputs": [
        {
          "internalType": "address",
          "name": "sender",
          "type": "address"
        },
        {
          "internalType": "address",
          "name": "",
          "type": "address"
        },
        {
          "internalType": "uint256",
          "name": "amount",
          "type": "uint256"
        }
      ],
      "name": "getFee",
      "outputs": [
        {
          "internalType": "uint256",
          "name": "",
          "type": "uint256"
        }
      ],
      "stateMutability": "view",
      "type": "function"
    },
    {
      "inputs": [
        {
          "internalType": "address",
          "name": "account",
          "type": "address"
        }
      ],
      "name": "isExempt",
      "outputs": [
        {
          "internalType": "bool",
          "name": "",
          "type": "bool"
        }
      ],
      "stateMutability": "view",
      "type": "function"
    },
    {
      "inputs": [
        {
          "internalType": "uint256",
          "name": "",
          "type": "uint256"
        }
      ],
      "name": "notify",
      "outputs": [],
      "stateMutability": "nonpayable",
      "type": "function"
    },
    {
      "inputs": [],
      "name": "owner",
      "outputs": [
        {
          "internalType": "address",
          "name": "",
          "type": "address"
        }
      ],
      "stateMutability": "view",
      "type": "function"
    },
    {
      "inputs": [],
      "name": "recipient",
      "outputs": [
        {
          "internalType": "address",
          "name": "",
          "type": "address"
        }
      ],
      "stateMutability": "view",
      "type": "function"
    },
    {
      "inputs": [],
      "name": "renounceOwnership",
      "outputs": [],
      "stateMutability": "nonpayable",
      "type": "function"
    },
    {
      "inputs": [
        {
          "internalType": "address",
          "name": "account",
          "type": "address"
        },
        {
          "internalType": "bool",
          "name": "isExempt_",
          "type": "bool"
        }
      ],
      "name": "setExempt",
      "outputs": [],
      "stateMutability": "nonpayable",
      "type": "function"
    },
    {
      "inputs": [
        {
          "components": [
            {
              "internalType": "address",
              "name": "account",
              "type": "address"
            },
            {
              "internalType": "bool",
              "name": "isExempt",
              "type": "bool"
            }
          ],
          "internalType": "struct IFeeLogic.ExemptData[]",
          "name": "batch",
          "type": "tuple[]"
        }
      ],
      "name": "setExemptBatch",
      "outputs": [],
      "stateMutability": "nonpayable",
      "type": "function"
    },
    {
      "inputs": [
        {
          "internalType": "uint128",
          "name": "numerator",
          "type": "uint128"
        },
        {
          "internalType": "uint128",
          "name": "denominator",
          "type": "uint128"
        }
      ],
      "name": "setFeeRate",
      "outputs": [],
      "stateMutability": "nonpayable",
      "type": "function"
    },
    {
      "inputs": [
        {
          "internalType": "address",
          "name": "account",
          "type": "address"
        }
      ],
      "name": "setRecipient",
      "outputs": [],
      "stateMutability": "nonpayable",
      "type": "function"
    },
    {
      "inputs": [
        {
          "internalType": "address",
          "name": "newOwner",
          "type": "address"
        }
      ],
      "name": "transferOwnership",
      "outputs": [],
      "stateMutability": "nonpayable",
      "type": "function"
    },
    {
      "inputs": [
        {
          "internalType": "address",
          "name": "sender",
          "type": "address"
        },
        {
          "internalType": "address",
          "name": "",
          "type": "address"
        },
        {
          "internalType": "uint256",
          "name": "amount",
          "type": "uint256"
        }
      ],
      "name": "undoFee",
      "outputs": [
        {
          "internalType": "uint256",
          "name": "",
          "type": "uint256"
        }
      ],
      "stateMutability": "view",
      "type": "function"
    }
  ],
  "transactionHash": "0xdbe35cf9d8801965c032cb37ddcad0d8f53de906cb4c22f174765e73e81aed91",
  "args": [
    "0x5757Dd711EaE80e181E07CdbCe43359Ac1048394",
    "0xa2448B5aF83B36838820d6B4a43e41fB81c03214",
    75,
    1000,
    [
      {
        "account": "0x5d9A9984E62cbd06895c92E26Ea70849953Dc7cC",
        "isExempt": true
      },
      {
        "account": "0x3a1aCD71D216104B4B03d14b596a22FDb2B1A9Dc",
        "isExempt": true
      },
      {
        "account": "0xa2448B5aF83B36838820d6B4a43e41fB81c03214",
        "isExempt": true
      }
    ]
  ],
  "solcInputHash": "dce8ce70f69a6af015380cad047f4734",
  "bytecode": "0x60806040523480156200001157600080fd5b506040516200144d3803806200144d83398101604081905262000034916200041a565b600080546001600160a01b0319166001600160a01b03871690811782556040518792907f8be0079c531659141344cd1fd0a4f28419497f9722a3daafe3b4186f6b6457e0908290a35060006200008962000277565b600480546001600160a01b0319166001600160a01b0388811691821790925560405192935091908316907fc1416b5cdab50a9fbc872236e1aa54566c6deb40024e63a4b1737ecacf09d6f990600090a3600380546001600160801b03858116600160801b028188166001600160801b031990931692909217161790556040516001600160a01b038216907f7501624ae38fb0df57a18102db88078470b15839a2e2ead878d453b5e4efe264906200014490879087906200055c565b60405180910390a260005b82518110156200026a5760008382815181106200016857fe5b60200260200101516000015190508382815181106200018357fe5b6020026020010151602001518015620001b25750620001b28160016200027b60201b6200086a1790919060201c565b15620001fe57806001600160a01b0316836001600160a01b03167f62a70abcb247f7e8afe5918a6e2686c3d44444fe3b3610d15ec517da62d8780860405160405180910390a362000260565b620002198160016200029b60201b620008881790919060201c565b156200026057806001600160a01b0316836001600160a01b03167f81aa155d9f5d2077495ed2bc4fc21b6d37d33f9f4cf55d8d4586325d5df4515f60405160405180910390a35b506001016200014f565b505050505050506200059a565b3390565b600062000292836001600160a01b038416620002b2565b90505b92915050565b600062000292836001600160a01b03841662000301565b6000620002c08383620003cd565b620002f85750815460018181018455600084815260208082209093018490558454848252828601909352604090209190915562000295565b50600062000295565b60008181526001830160205260408120548015620003c257835460001980830191908101906000908790839081106200033657fe5b90600052602060002001549050808760000184815481106200035457fe5b6000918252602080832090910192909255828152600189810190925260409020908401905586548790806200038557fe5b6001900381819060005260206000200160009055905586600101600087815260200190815260200160002060009055600194505050505062000295565b600091505062000295565b60009081526001919091016020526040902054151590565b80516001600160a01b0381168114620003fd57600080fd5b919050565b80516001600160801b0381168114620003fd57600080fd5b600080600080600060a0868803121562000432578081fd5b6200043d86620003e5565b945060206200044e818801620003e5565b94506200045e6040880162000402565b93506200046e6060880162000402565b60808801519093506001600160401b03808211156200048b578384fd5b818901915089601f8301126200049f578384fd5b815181811115620004ac57fe5b620004bb848583020162000576565b8181528481019084860160408402860187018e1015620004d9578788fd5b8795505b8386101562000548576040818f031215620004f6578788fd5b6040516040810181811087821117156200050c57fe5b6040526200051a82620003e5565b81528782015180151581146200052e57898afd5b8189015283526001959095019491860191604001620004dd565b508096505050505050509295509295909350565b6001600160801b0392831681529116602082015260400190565b6040518181016001600160401b03811182821017156200059257fe5b604052919050565b610ea380620005aa6000396000f3fe608060405234801561001057600080fd5b50600436106100f55760003560e01c806398d078b411610097578063adf10fc611610066578063adf10fc6146101df578063bd26697a146101f2578063be3945e4146101fa578063f2fde38b1461020d576100f5565b806398d078b4146101865780639c5f81cc146101995780639fde54f5146101ac578063ad5dff73146101bf576100f5565b806366d003ac116100d357806366d003ac14610158578063715018a6146101605780638da5cb5b14610168578063978bbdb914610170576100f5565b8063063f384f146100fa578063226a1a1a146101235780633bbed4a014610143575b600080fd5b61010d610108366004610b75565b610220565b60405161011a9190610db7565b60405180910390f35b610136610131366004610cec565b610275565b60405161011a9190610d04565b610156610151366004610b5b565b61028a565b005b61013661036f565b61015661037e565b610136610420565b61017861042f565b60405161011a929190610d9d565b610156610194366004610cec565b61044a565b6101566101a7366004610cc3565b61044d565b6101566101ba366004610bb0565b610559565b6101d26101cd366004610b5b565b610671565b60405161011a9190610d18565b6101566101ed366004610be2565b61067e565b61010d610722565b61010d610208366004610b75565b610733565b61015661021b366004610b5b565b610772565b600061022d60018561089d565b1561023957508061026e565b60035461026b906001600160801b03808216600160801b909204811691820316906102659085906108b2565b9061090b565b90505b9392505050565b6000610282600183610972565b90505b919050565b61029261097e565b6000546001600160a01b039081169116146102e2576040805162461bcd60e51b81526020600482018190526024820152600080516020610e4e833981519152604482015290519081900360640190fd5b6001600160a01b0381166103115760405162461bcd60e51b815260040161030890610d23565b60405180910390fd5b600480546001600160a01b0319166001600160a01b03831690811790915561033761097e565b6001600160a01b03167fc1416b5cdab50a9fbc872236e1aa54566c6deb40024e63a4b1737ecacf09d6f960405160405180910390a350565b6004546001600160a01b031690565b61038661097e565b6000546001600160a01b039081169116146103d6576040805162461bcd60e51b81526020600482018190526024820152600080516020610e4e833981519152604482015290519081900360640190fd5b600080546040516001600160a01b03909116907f8be0079c531659141344cd1fd0a4f28419497f9722a3daafe3b4186f6b6457e0908390a3600080546001600160a01b0319169055565b6000546001600160a01b031690565b6003546001600160801b0380821692600160801b9092041690565b50565b61045561097e565b6000546001600160a01b039081169116146104a5576040805162461bcd60e51b81526020600482018190526024820152600080516020610e4e833981519152604482015290519081900360640190fd5b816001600160801b0316816001600160801b0316116104d65760405162461bcd60e51b815260040161030890610d66565b600380546001600160801b03838116600160801b028186166fffffffffffffffffffffffffffffffff19909316929092171617905561051361097e565b6001600160a01b03167f7501624ae38fb0df57a18102db88078470b15839a2e2ead878d453b5e4efe264838360405161054d929190610d9d565b60405180910390a25050565b61056161097e565b6000546001600160a01b039081169116146105b1576040805162461bcd60e51b81526020600482018190526024820152600080516020610e4e833981519152604482015290519081900360640190fd5b8080156105c457506105c460018361086a565b1561061557816001600160a01b03166105db61097e565b6001600160a01b03167f62a70abcb247f7e8afe5918a6e2686c3d44444fe3b3610d15ec517da62d8780860405160405180910390a361066d565b610620600183610888565b1561066d57816001600160a01b031661063761097e565b6001600160a01b03167f81aa155d9f5d2077495ed2bc4fc21b6d37d33f9f4cf55d8d4586325d5df4515f60405160405180910390a35b5050565b600061028260018361089d565b61068661097e565b6000546001600160a01b039081169116146106d6576040805162461bcd60e51b81526020600482018190526024820152600080516020610e4e833981519152604482015290519081900360640190fd5b60005b815181101561066d5761071a8282815181106106f157fe5b60200260200101516000015183838151811061070957fe5b602002602001015160200151610559565b6001016106d9565b600061072e6001610982565b905090565b600061074060018561089d565b1561074d5750600061026e565b60035461026b906001600160801b03600160801b8204811691610265918691166108b2565b61077a61097e565b6000546001600160a01b039081169116146107ca576040805162461bcd60e51b81526020600482018190526024820152600080516020610e4e833981519152604482015290519081900360640190fd5b6001600160a01b03811661080f5760405162461bcd60e51b8152600401808060200182810382526026815260200180610e076026913960400191505060405180910390fd5b600080546040516001600160a01b03808516939216917f8be0079c531659141344cd1fd0a4f28419497f9722a3daafe3b4186f6b6457e091a3600080546001600160a01b0319166001600160a01b0392909216919091179055565b600061087f836001600160a01b03841661098d565b90505b92915050565b600061087f836001600160a01b0384166109d7565b600061087f836001600160a01b038416610a9d565b6000826108c157506000610882565b828202828482816108ce57fe5b041461087f5760405162461bcd60e51b8152600401808060200182810382526021815260200180610e2d6021913960400191505060405180910390fd5b6000808211610961576040805162461bcd60e51b815260206004820152601a60248201527f536166654d6174683a206469766973696f6e206279207a65726f000000000000604482015290519081900360640190fd5b81838161096a57fe5b049392505050565b600061087f8383610ab5565b3390565b600061028282610b19565b60006109998383610a9d565b6109cf57508154600181810184556000848152602080822090930184905584548482528286019093526040902091909155610882565b506000610882565b60008181526001830160205260408120548015610a935783546000198083019190810190600090879083908110610a0a57fe5b9060005260206000200154905080876000018481548110610a2757fe5b600091825260208083209091019290925582815260018981019092526040902090840190558654879080610a5757fe5b60019003818190600052602060002001600090559055866001016000878152602001908152602001600020600090556001945050505050610882565b6000915050610882565b60009081526001919091016020526040902054151590565b81546000908210610af75760405162461bcd60e51b8152600401808060200182810382526022815260200180610de56022913960400191505060405180910390fd5b826000018281548110610b0657fe5b9060005260206000200154905092915050565b5490565b80356001600160a01b038116811461028557600080fd5b8035801515811461028557600080fd5b80356001600160801b038116811461028557600080fd5b600060208284031215610b6c578081fd5b61087f82610b1d565b600080600060608486031215610b89578182fd5b610b9284610b1d565b9250610ba060208501610b1d565b9150604084013590509250925092565b60008060408385031215610bc2578182fd5b610bcb83610b1d565b9150610bd960208401610b34565b90509250929050565b60006020808385031215610bf4578182fd5b823567ffffffffffffffff80821115610c0b578384fd5b818501915085601f830112610c1e578384fd5b813581811115610c2a57fe5b610c378485830201610dc0565b818152848101908486016040808502870188018b1015610c55578889fd5b8896505b84871015610cb45780828c031215610c6f578889fd5b80518181018181108882111715610c8257fe5b8252610c8d83610b1d565b8152610c9a898401610b34565b818a01528452600196909601959287019290810190610c59565b50909998505050505050505050565b60008060408385031215610cd5578182fd5b610cde83610b44565b9150610bd960208401610b44565b600060208284031215610cfd578081fd5b5035919050565b6001600160a01b0391909116815260200190565b901515815260200190565b60208082526023908201527f4665654c6f6769633a20726563697069656e74206973207a65726f206164647260408201526265737360e81b606082015260800190565b6020808252601d908201527f4665654c6f6769633a20666565526174652069732067746520746f2031000000604082015260600190565b6001600160801b0392831681529116602082015260400190565b90815260200190565b60405181810167ffffffffffffffff81118282101715610ddc57fe5b60405291905056fe456e756d657261626c655365743a20696e646578206f7574206f6620626f756e64734f776e61626c653a206e6577206f776e657220697320746865207a65726f2061646472657373536166654d6174683a206d756c7469706c69636174696f6e206f766572666c6f774f776e61626c653a2063616c6c6572206973206e6f7420746865206f776e6572a2646970667358221220e94be58dc8b61662ede26456586f11ea7e3cfb473a752d1c24ea74620d7ea31d64736f6c63430007060033",
  "devdoc": {
    "kind": "dev",
    "methods": {
      "owner()": {
        "details": "Returns the address of the current owner."
      },
      "renounceOwnership()": {
        "details": "Leaves the contract without owner. It will not be possible to call `onlyOwner` functions anymore. Can only be called by the current owner. NOTE: Renouncing ownership will leave the contract without an owner, thereby removing any functionality that is only available to the owner."
      },
      "transferOwnership(address)": {
        "details": "Transfers ownership of the contract to a new account (`newOwner`). Can only be called by the current owner."
      }
    },
    "version": 1
  },
  "userdoc": {
    "kind": "user",
    "methods": {},
    "version": 1
  },
  "storageLayout": {
    "storage": [
      {
        "astId": 3349,
        "contract": "contracts/rewards/FeeLogic.sol:FeeLogic",
        "label": "_owner",
        "offset": 0,
        "slot": "0",
        "type": "t_address"
      },
      {
        "astId": 9443,
        "contract": "contracts/rewards/FeeLogic.sol:FeeLogic",
        "label": "_exempts",
        "offset": 0,
        "slot": "1",
        "type": "t_struct(AddressSet)2680_storage"
      },
      {
        "astId": 9445,
        "contract": "contracts/rewards/FeeLogic.sol:FeeLogic",
        "label": "_feeRateNum",
        "offset": 0,
        "slot": "3",
        "type": "t_uint128"
      },
      {
        "astId": 9447,
        "contract": "contracts/rewards/FeeLogic.sol:FeeLogic",
        "label": "_feeRateDen",
        "offset": 16,
        "slot": "3",
        "type": "t_uint128"
      },
      {
        "astId": 9449,
        "contract": "contracts/rewards/FeeLogic.sol:FeeLogic",
        "label": "_recipient",
        "offset": 0,
        "slot": "4",
        "type": "t_address"
      }
    ],
    "types": {
      "t_address": {
        "encoding": "inplace",
        "label": "address",
        "numberOfBytes": "20"
      },
      "t_array(t_bytes32)dyn_storage": {
        "base": "t_bytes32",
        "encoding": "dynamic_array",
        "label": "bytes32[]",
        "numberOfBytes": "32"
      },
      "t_bytes32": {
        "encoding": "inplace",
        "label": "bytes32",
        "numberOfBytes": "32"
      },
      "t_mapping(t_bytes32,t_uint256)": {
        "encoding": "mapping",
        "key": "t_bytes32",
        "label": "mapping(bytes32 => uint256)",
        "numberOfBytes": "32",
        "value": "t_uint256"
      },
      "t_struct(AddressSet)2680_storage": {
        "encoding": "inplace",
        "label": "struct EnumerableSet.AddressSet",
        "members": [
          {
            "astId": 2679,
            "contract": "contracts/rewards/FeeLogic.sol:FeeLogic",
            "label": "_inner",
            "offset": 0,
            "slot": "0",
            "type": "t_struct(Set)2415_storage"
          }
        ],
        "numberOfBytes": "64"
      },
      "t_struct(Set)2415_storage": {
        "encoding": "inplace",
        "label": "struct EnumerableSet.Set",
        "members": [
          {
            "astId": 2410,
            "contract": "contracts/rewards/FeeLogic.sol:FeeLogic",
            "label": "_values",
            "offset": 0,
            "slot": "0",
            "type": "t_array(t_bytes32)dyn_storage"
          },
          {
            "astId": 2414,
            "contract": "contracts/rewards/FeeLogic.sol:FeeLogic",
            "label": "_indexes",
            "offset": 0,
            "slot": "1",
            "type": "t_mapping(t_bytes32,t_uint256)"
          }
        ],
        "numberOfBytes": "64"
      },
      "t_uint128": {
        "encoding": "inplace",
        "label": "uint128",
        "numberOfBytes": "16"
      },
      "t_uint256": {
        "encoding": "inplace",
        "label": "uint256",
        "numberOfBytes": "32"
      }
    }
  }
}