{
  "address": "0xa2203aCc6311158E89564a7EF5107826100DBEDd",
  "abi": [
    {
      "inputs": [
        {
          "internalType": "address",
          "name": "admin",
          "type": "address"
        },
        {
          "internalType": "uint256",
          "name": "_updateThreshold",
          "type": "uint256"
        },
        {
          "internalType": "uint256",
          "name": "_gasPrice",
          "type": "uint256"
        }
      ],
      "stateMutability": "nonpayable",
      "type": "constructor"
    },
    {
      "anonymous": false,
      "inputs": [
        {
          "indexed": true,
          "internalType": "address",
          "name": "author",
          "type": "address"
        },
        {
          "indexed": false,
          "internalType": "uint256",
          "name": "newValue",
          "type": "uint256"
        }
      ],
      "name": "GasPriceUpdate",
      "type": "event"
    },
    {
      "anonymous": false,
      "inputs": [
        {
          "indexed": true,
          "internalType": "bytes32",
          "name": "role",
          "type": "bytes32"
        },
        {
          "indexed": true,
          "internalType": "bytes32",
          "name": "previousAdminRole",
          "type": "bytes32"
        },
        {
          "indexed": true,
          "internalType": "bytes32",
          "name": "newAdminRole",
          "type": "bytes32"
        }
      ],
      "name": "RoleAdminChanged",
      "type": "event"
    },
    {
      "anonymous": false,
      "inputs": [
        {
          "indexed": true,
          "internalType": "bytes32",
          "name": "role",
          "type": "bytes32"
        },
        {
          "indexed": true,
          "internalType": "address",
          "name": "account",
          "type": "address"
        },
        {
          "indexed": true,
          "internalType": "address",
          "name": "sender",
          "type": "address"
        }
      ],
      "name": "RoleGranted",
      "type": "event"
    },
    {
      "anonymous": false,
      "inputs": [
        {
          "indexed": true,
          "internalType": "bytes32",
          "name": "role",
          "type": "bytes32"
        },
        {
          "indexed": true,
          "internalType": "address",
          "name": "account",
          "type": "address"
        },
        {
          "indexed": true,
          "internalType": "address",
          "name": "sender",
          "type": "address"
        }
      ],
      "name": "RoleRevoked",
      "type": "event"
    },
    {
      "anonymous": false,
      "inputs": [
        {
          "indexed": true,
          "internalType": "address",
          "name": "author",
          "type": "address"
        },
        {
          "indexed": false,
          "internalType": "uint256",
          "name": "value",
          "type": "uint256"
        }
      ],
      "name": "UpdateThresholdSet",
      "type": "event"
    },
    {
      "inputs": [],
      "name": "DEFAULT_ADMIN_ROLE",
      "outputs": [
        {
          "internalType": "bytes32",
          "name": "",
          "type": "bytes32"
        }
      ],
      "stateMutability": "view",
      "type": "function"
    },
    {
      "inputs": [],
      "name": "ORACLE_ROLE",
      "outputs": [
        {
          "internalType": "bytes32",
          "name": "",
          "type": "bytes32"
        }
      ],
      "stateMutability": "view",
      "type": "function"
    },
    {
      "inputs": [],
      "name": "gasPrice",
      "outputs": [
        {
          "internalType": "uint256",
          "name": "",
          "type": "uint256"
        }
      ],
      "stateMutability": "view",
      "type": "function"
    },
    {
      "inputs": [
        {
          "internalType": "bytes32",
          "name": "role",
          "type": "bytes32"
        }
      ],
      "name": "getRoleAdmin",
      "outputs": [
        {
          "internalType": "bytes32",
          "name": "",
          "type": "bytes32"
        }
      ],
      "stateMutability": "view",
      "type": "function"
    },
    {
      "inputs": [
        {
          "internalType": "bytes32",
          "name": "role",
          "type": "bytes32"
        },
        {
          "internalType": "uint256",
          "name": "index",
          "type": "uint256"
        }
      ],
      "name": "getRoleMember",
      "outputs": [
        {
          "internalType": "address",
          "name": "",
          "type": "address"
        }
      ],
      "stateMutability": "view",
      "type": "function"
    },
    {
      "inputs": [
        {
          "internalType": "bytes32",
          "name": "role",
          "type": "bytes32"
        }
      ],
      "name": "getRoleMemberCount",
      "outputs": [
        {
          "internalType": "uint256",
          "name": "",
          "type": "uint256"
        }
      ],
      "stateMutability": "view",
      "type": "function"
    },
    {
      "inputs": [
        {
          "internalType": "bytes32",
          "name": "role",
          "type": "bytes32"
        },
        {
          "internalType": "address",
          "name": "account",
          "type": "address"
        }
      ],
      "name": "grantRole",
      "outputs": [],
      "stateMutability": "nonpayable",
      "type": "function"
    },
    {
      "inputs": [],
      "name": "hasPriceExpired",
      "outputs": [
        {
          "internalType": "bool",
          "name": "",
          "type": "bool"
        }
      ],
      "stateMutability": "view",
      "type": "function"
    },
    {
      "inputs": [
        {
          "internalType": "bytes32",
          "name": "role",
          "type": "bytes32"
        },
        {
          "internalType": "address",
          "name": "account",
          "type": "address"
        }
      ],
      "name": "hasRole",
      "outputs": [
        {
          "internalType": "bool",
          "name": "",
          "type": "bool"
        }
      ],
      "stateMutability": "view",
      "type": "function"
    },
    {
      "inputs": [
        {
          "internalType": "bytes32",
          "name": "role",
          "type": "bytes32"
        },
        {
          "internalType": "address",
          "name": "account",
          "type": "address"
        }
      ],
      "name": "renounceRole",
      "outputs": [],
      "stateMutability": "nonpayable",
      "type": "function"
    },
    {
      "inputs": [
        {
          "internalType": "bytes32",
          "name": "role",
          "type": "bytes32"
        },
        {
          "internalType": "address",
          "name": "account",
          "type": "address"
        }
      ],
      "name": "revokeRole",
      "outputs": [],
      "stateMutability": "nonpayable",
      "type": "function"
    },
    {
      "inputs": [
        {
          "internalType": "uint256",
          "name": "_gasPrice",
          "type": "uint256"
        }
      ],
      "name": "setGasPrice",
      "outputs": [],
      "stateMutability": "nonpayable",
      "type": "function"
    },
    {
      "inputs": [
        {
          "internalType": "uint256",
          "name": "_updateThreshold",
          "type": "uint256"
        }
      ],
      "name": "setUpdateThreshold",
      "outputs": [],
      "stateMutability": "nonpayable",
      "type": "function"
    },
    {
      "inputs": [],
      "name": "updateThreshold",
      "outputs": [
        {
          "internalType": "uint256",
          "name": "",
          "type": "uint256"
        }
      ],
      "stateMutability": "view",
      "type": "function"
    },
    {
      "inputs": [],
      "name": "updatedAt",
      "outputs": [
        {
          "internalType": "uint256",
          "name": "",
          "type": "uint256"
        }
      ],
      "stateMutability": "view",
      "type": "function"
    }
  ],
  "transactionHash": "0x3cb4bf9591155e9d0d264764e509f720c8c62e9d6bd892acb9e239ec0bba0e00",
  "args": [
    "0x5757Dd711EaE80e181E07CdbCe43359Ac1048394",
    32400,
    "200000000000"
  ],
  "solcInputHash": "dce8ce70f69a6af015380cad047f4734",
  "bytecode": "0x608060405234801561001057600080fd5b50604051610c95380380610c958339818101604052606081101561003357600080fd5b508051602082015160409092015190919061004f600084610069565b61005882610077565b610061816100b5565b5050506101ee565b61007382826100f7565b5050565b600281905560408051828152905133917f1f9cf51b618fdadb53a2ffcf65aef63f853ff289ef0448a182443d29707299a0919081900360200190a250565b42600355600181905560408051828152905133917f815b03ee2eabb18e58532356211cb652dd4edd0e22f166523335475f77c3f5b0919081900360200190a250565b60008281526020818152604090912061011991839061056f61016a821b17901c565b1561007357610126610188565b6001600160a01b0316816001600160a01b0316837f2f8788117e7eff1d82e926ec794901d17c78024a50270940304540a733656f0d60405160405180910390a45050565b600061017f836001600160a01b03841661018c565b90505b92915050565b3390565b600061019883836101d6565b6101ce57508154600181810184556000848152602080822090930184905584548482528286019093526040902091909155610182565b506000610182565b60009081526001919091016020526040902054151590565b610a98806101fd6000396000f3fe608060405234801561001057600080fd5b50600436106100f55760003560e01c80639407f5cb11610097578063ca15c87311610066578063ca15c87314610247578063d547741f14610264578063e1e92a6714610290578063fe173b97146102ad576100f5565b80639407f5cb146102125780639e2437141461021a578063a217fddf14610222578063bf1fe4201461022a576100f5565b806336568abe116100d357806336568abe1461015f5780637519ab501461018b5780639010d07c1461019357806391d14854146101d2576100f5565b806307e2cea5146100fa578063248a9ca3146101145780632f2ff15d14610131575b600080fd5b6101026102b5565b60408051918252519081900360200190f35b6101026004803603602081101561012a57600080fd5b50356102d9565b61015d6004803603604081101561014757600080fd5b50803590602001356001600160a01b03166102ee565b005b61015d6004803603604081101561017557600080fd5b50803590602001356001600160a01b031661035a565b6101026103bb565b6101b6600480360360408110156101a957600080fd5b50803590602001356103c1565b604080516001600160a01b039092168252519081900360200190f35b6101fe600480360360408110156101e857600080fd5b50803590602001356001600160a01b03166103e2565b604080519115158252519081900360200190f35b6101026103fa565b6101fe610400565b610102610434565b61015d6004803603602081101561024057600080fd5b5035610439565b6101026004803603602081101561025d57600080fd5b50356104aa565b61015d6004803603604081101561027a57600080fd5b50803590602001356001600160a01b03166104c1565b61015d600480360360208110156102a657600080fd5b503561051a565b610102610569565b7f68e79a7bf1e0bc45d0a330c573bc367f9cf464fd326078812f301165fbda4ef181565b60009081526020819052604090206002015490565b6000828152602081905260409020600201546103119061030c610584565b6103e2565b61034c5760405162461bcd60e51b815260040180806020018281038252602f815260200180610965602f913960400191505060405180910390fd5b6103568282610588565b5050565b610362610584565b6001600160a01b0316816001600160a01b0316146103b15760405162461bcd60e51b815260040180806020018281038252602f815260200180610a34602f913960400191505060405180910390fd5b61035682826105f1565b60035481565b60008281526020819052604081206103d9908361065a565b90505b92915050565b60008281526020819052604081206103d99083610666565b60025481565b60008061042a6003546040518060600160405280602981526020016109c46029913942919061067b565b6002541091505090565b600081565b6104637f68e79a7bf1e0bc45d0a330c573bc367f9cf464fd326078812f301165fbda4ef1336103e2565b61049e5760405162461bcd60e51b81526004018080602001828103825260268152602001806109ed6026913960400191505060405180910390fd5b6104a781610712565b50565b60008181526020819052604081206103dc90610754565b6000828152602081905260409020600201546104df9061030c610584565b6103b15760405162461bcd60e51b81526004018080602001828103825260308152602001806109946030913960400191505060405180910390fd5b6105256000336103e2565b6105605760405162461bcd60e51b8152600401808060200182810382526021815260200180610a136021913960400191505060405180910390fd5b6104a78161075f565b60015481565b60006103d9836001600160a01b03841661079d565b3390565b60008281526020819052604090206105a0908261056f565b15610356576105ad610584565b6001600160a01b0316816001600160a01b0316837f2f8788117e7eff1d82e926ec794901d17c78024a50270940304540a733656f0d60405160405180910390a45050565b600082815260208190526040902061060990826107e7565b1561035657610616610584565b6001600160a01b0316816001600160a01b0316837ff6391f5c32d9c69d2a47ea670b442974b53935d1edc7fd64eb21e047a839171b60405160405180910390a45050565b60006103d983836107fc565b60006103d9836001600160a01b038416610860565b6000818484111561070a5760405162461bcd60e51b81526004018080602001828103825283818151815260200191508051906020019080838360005b838110156106cf5781810151838201526020016106b7565b50505050905090810190601f1680156106fc5780820380516001836020036101000a031916815260200191505b509250505060405180910390fd5b505050900390565b42600355600181905560408051828152905133917f815b03ee2eabb18e58532356211cb652dd4edd0e22f166523335475f77c3f5b0919081900360200190a250565b60006103dc82610878565b600281905560408051828152905133917f1f9cf51b618fdadb53a2ffcf65aef63f853ff289ef0448a182443d29707299a0919081900360200190a250565b60006107a98383610860565b6107df575081546001818101845560008481526020808220909301849055845484825282860190935260409020919091556103dc565b5060006103dc565b60006103d9836001600160a01b03841661087c565b8154600090821061083e5760405162461bcd60e51b81526004018080602001828103825260228152602001806109436022913960400191505060405180910390fd5b82600001828154811061084d57fe5b9060005260206000200154905092915050565b60009081526001919091016020526040902054151590565b5490565b6000818152600183016020526040812054801561093857835460001980830191908101906000908790839081106108af57fe5b90600052602060002001549050808760000184815481106108cc57fe5b6000918252602080832090910192909255828152600189810190925260409020908401905586548790806108fc57fe5b600190038181906000526020600020016000905590558660010160008781526020019081526020016000206000905560019450505050506103dc565b60009150506103dc56fe456e756d657261626c655365743a20696e646578206f7574206f6620626f756e6473416363657373436f6e74726f6c3a2073656e646572206d75737420626520616e2061646d696e20746f206772616e74416363657373436f6e74726f6c3a2073656e646572206d75737420626520616e2061646d696e20746f207265766f6b6547617350726963653a20626c6f636b206973206f6c646572207468616e206c6173742075706461746543616c6c6572206973206e6f7420612074727573746564206f7261636c6520736f757263652e43616c6c6572206973206e6f742074686520636f6e74726163742061646d696e2e416363657373436f6e74726f6c3a2063616e206f6e6c792072656e6f756e636520726f6c657320666f722073656c66a26469706673582212207fee701eac1de836141a5f4d9cd88da6b0f1e13d95482e6d0f53aa801795f71d64736f6c63430007060033",
  "devdoc": {
    "kind": "dev",
    "methods": {
      "getRoleAdmin(bytes32)": {
        "details": "Returns the admin role that controls `role`. See {grantRole} and {revokeRole}. To change a role's admin, use {_setRoleAdmin}."
      },
      "getRoleMember(bytes32,uint256)": {
        "details": "Returns one of the accounts that have `role`. `index` must be a value between 0 and {getRoleMemberCount}, non-inclusive. Role bearers are not sorted in any particular way, and their ordering may change at any point. WARNING: When using {getRoleMember} and {getRoleMemberCount}, make sure you perform all queries on the same block. See the following https://forum.openzeppelin.com/t/iterating-over-elements-on-enumerableset-in-openzeppelin-contracts/2296[forum post] for more information."
      },
      "getRoleMemberCount(bytes32)": {
        "details": "Returns the number of accounts that have `role`. Can be used together with {getRoleMember} to enumerate all bearers of a role."
      },
      "grantRole(bytes32,address)": {
        "details": "Grants `role` to `account`. If `account` had not been already granted `role`, emits a {RoleGranted} event. Requirements: - the caller must have ``role``'s admin role."
      },
      "hasRole(bytes32,address)": {
        "details": "Returns `true` if `account` has been granted `role`."
      },
      "renounceRole(bytes32,address)": {
        "details": "Revokes `role` from the calling account. Roles are often managed via {grantRole} and {revokeRole}: this function's purpose is to provide a mechanism for accounts to lose their privileges if they are compromised (such as when a trusted device is misplaced). If the calling account had been granted `role`, emits a {RoleRevoked} event. Requirements: - the caller must be `account`."
      },
      "revokeRole(bytes32,address)": {
        "details": "Revokes `role` from `account`. If `account` had been granted `role`, emits a {RoleRevoked} event. Requirements: - the caller must have ``role``'s admin role."
      }
    },
    "version": 1
  },
  "userdoc": {
    "kind": "user",
    "methods": {},
    "version": 1
  },
  "storageLayout": {
    "storage": [
      {
        "astId": 493,
        "contract": "contracts/oracles/GasPrice.sol:GasPrice",
        "label": "_roles",
        "offset": 0,
        "slot": "0",
        "type": "t_mapping(t_bytes32,t_struct(RoleData)489_storage)"
      },
      {
        "astId": 7327,
        "contract": "contracts/oracles/GasPrice.sol:GasPrice",
        "label": "gasPrice",
        "offset": 0,
        "slot": "1",
        "type": "t_uint256"
      },
      {
        "astId": 7330,
        "contract": "contracts/oracles/GasPrice.sol:GasPrice",
        "label": "updateThreshold",
        "offset": 0,
        "slot": "2",
        "type": "t_uint256"
      },
      {
        "astId": 7333,
        "contract": "contracts/oracles/GasPrice.sol:GasPrice",
        "label": "updatedAt",
        "offset": 0,
        "slot": "3",
        "type": "t_uint256"
      }
    ],
    "types": {
      "t_array(t_bytes32)dyn_storage": {
        "base": "t_bytes32",
        "encoding": "dynamic_array",
        "label": "bytes32[]",
        "numberOfBytes": "32"
      },
      "t_bytes32": {
        "encoding": "inplace",
        "label": "bytes32",
        "numberOfBytes": "32"
      },
      "t_mapping(t_bytes32,t_struct(RoleData)489_storage)": {
        "encoding": "mapping",
        "key": "t_bytes32",
        "label": "mapping(bytes32 => struct AccessControl.RoleData)",
        "numberOfBytes": "32",
        "value": "t_struct(RoleData)489_storage"
      },
      "t_mapping(t_bytes32,t_uint256)": {
        "encoding": "mapping",
        "key": "t_bytes32",
        "label": "mapping(bytes32 => uint256)",
        "numberOfBytes": "32",
        "value": "t_uint256"
      },
      "t_struct(AddressSet)2680_storage": {
        "encoding": "inplace",
        "label": "struct EnumerableSet.AddressSet",
        "members": [
          {
            "astId": 2679,
            "contract": "contracts/oracles/GasPrice.sol:GasPrice",
            "label": "_inner",
            "offset": 0,
            "slot": "0",
            "type": "t_struct(Set)2415_storage"
          }
        ],
        "numberOfBytes": "64"
      },
      "t_struct(RoleData)489_storage": {
        "encoding": "inplace",
        "label": "struct AccessControl.RoleData",
        "members": [
          {
            "astId": 486,
            "contract": "contracts/oracles/GasPrice.sol:GasPrice",
            "label": "members",
            "offset": 0,
            "slot": "0",
            "type": "t_struct(AddressSet)2680_storage"
          },
          {
            "astId": 488,
            "contract": "contracts/oracles/GasPrice.sol:GasPrice",
            "label": "adminRole",
            "offset": 0,
            "slot": "2",
            "type": "t_bytes32"
          }
        ],
        "numberOfBytes": "96"
      },
      "t_struct(Set)2415_storage": {
        "encoding": "inplace",
        "label": "struct EnumerableSet.Set",
        "members": [
          {
            "astId": 2410,
            "contract": "contracts/oracles/GasPrice.sol:GasPrice",
            "label": "_values",
            "offset": 0,
            "slot": "0",
            "type": "t_array(t_bytes32)dyn_storage"
          },
          {
            "astId": 2414,
            "contract": "contracts/oracles/GasPrice.sol:GasPrice",
            "label": "_indexes",
            "offset": 0,
            "slot": "1",
            "type": "t_mapping(t_bytes32,t_uint256)"
          }
        ],
        "numberOfBytes": "64"
      },
      "t_uint256": {
        "encoding": "inplace",
        "label": "uint256",
        "numberOfBytes": "32"
      }
    }
  }
}