{
  "address": "0x2AAC6811f1aE77e026b734D6E56aD3ca3796885c",
  "abi": [
    {
      "inputs": [
        {
          "internalType": "address",
          "name": "owner_",
          "type": "address"
        },
        {
          "internalType": "address",
          "name": "rewardsToken_",
          "type": "address"
        }
      ],
      "stateMutability": "nonpayable",
      "type": "constructor"
    },
    {
      "anonymous": false,
      "inputs": [
        {
          "indexed": true,
          "internalType": "address",
          "name": "author",
          "type": "address"
        },
        {
          "indexed": false,
          "internalType": "uint256",
          "name": "accruedRewards",
          "type": "uint256"
        }
      ],
      "name": "AccrualUpdated",
      "type": "event"
    },
    {
      "anonymous": false,
      "inputs": [
        {
          "indexed": true,
          "internalType": "address",
          "name": "previousOwner",
          "type": "address"
        },
        {
          "indexed": true,
          "internalType": "address",
          "name": "newOwner",
          "type": "address"
        }
      ],
      "name": "OwnershipTransferred",
      "type": "event"
    },
    {
      "anonymous": false,
      "inputs": [
        {
          "indexed": false,
          "internalType": "address",
          "name": "account",
          "type": "address"
        }
      ],
      "name": "Paused",
      "type": "event"
    },
    {
      "anonymous": false,
      "inputs": [
        {
          "indexed": true,
          "internalType": "address",
          "name": "author",
          "type": "address"
        },
        {
          "indexed": true,
          "internalType": "address",
          "name": "to",
          "type": "address"
        },
        {
          "indexed": false,
          "internalType": "uint256",
          "name": "amount",
          "type": "uint256"
        }
      ],
      "name": "RecoveredUnredeemableRewards",
      "type": "event"
    },
    {
      "anonymous": false,
      "inputs": [
        {
          "indexed": true,
          "internalType": "address",
          "name": "author",
          "type": "address"
        },
        {
          "indexed": true,
          "internalType": "address",
          "name": "token",
          "type": "address"
        },
        {
          "indexed": true,
          "internalType": "address",
          "name": "to",
          "type": "address"
        },
        {
          "indexed": false,
          "internalType": "uint256",
          "name": "amount",
          "type": "uint256"
        }
      ],
      "name": "RecoveredUnstaked",
      "type": "event"
    },
    {
      "anonymous": false,
      "inputs": [
        {
          "indexed": true,
          "internalType": "address",
          "name": "account",
          "type": "address"
        },
        {
          "indexed": true,
          "internalType": "address",
          "name": "token",
          "type": "address"
        },
        {
          "indexed": false,
          "internalType": "uint256",
          "name": "amount",
          "type": "uint256"
        }
      ],
      "name": "RewardPaid",
      "type": "event"
    },
    {
      "anonymous": false,
      "inputs": [
        {
          "indexed": true,
          "internalType": "address",
          "name": "author",
          "type": "address"
        },
        {
          "indexed": true,
          "internalType": "address",
          "name": "token",
          "type": "address"
        }
      ],
      "name": "RewardsTokenSet",
      "type": "event"
    },
    {
      "anonymous": false,
      "inputs": [
        {
          "indexed": true,
          "internalType": "address",
          "name": "account",
          "type": "address"
        },
        {
          "indexed": true,
          "internalType": "address",
          "name": "token",
          "type": "address"
        },
        {
          "indexed": false,
          "internalType": "uint256",
          "name": "amount",
          "type": "uint256"
        }
      ],
      "name": "Staked",
      "type": "event"
    },
    {
      "anonymous": false,
      "inputs": [
        {
          "indexed": true,
          "internalType": "address",
          "name": "author",
          "type": "address"
        },
        {
          "indexed": true,
          "internalType": "address",
          "name": "token",
          "type": "address"
        },
        {
          "indexed": true,
          "internalType": "address",
          "name": "tokenValueImpl",
          "type": "address"
        }
      ],
      "name": "TokenAdded",
      "type": "event"
    },
    {
      "anonymous": false,
      "inputs": [
        {
          "indexed": true,
          "internalType": "address",
          "name": "author",
          "type": "address"
        },
        {
          "indexed": true,
          "internalType": "address",
          "name": "token",
          "type": "address"
        }
      ],
      "name": "TokenRemoved",
      "type": "event"
    },
    {
      "anonymous": false,
      "inputs": [
        {
          "indexed": true,
          "internalType": "address",
          "name": "author",
          "type": "address"
        },
        {
          "indexed": true,
          "internalType": "address",
          "name": "token",
          "type": "address"
        },
        {
          "indexed": true,
          "internalType": "address",
          "name": "tokenValueImpl",
          "type": "address"
        }
      ],
      "name": "TokenValueImplChanged",
      "type": "event"
    },
    {
      "anonymous": false,
      "inputs": [
        {
          "indexed": false,
          "internalType": "address",
          "name": "account",
          "type": "address"
        }
      ],
      "name": "Unpaused",
      "type": "event"
    },
    {
      "anonymous": false,
      "inputs": [
        {
          "indexed": true,
          "internalType": "address",
          "name": "account",
          "type": "address"
        },
        {
          "indexed": true,
          "internalType": "address",
          "name": "token",
          "type": "address"
        },
        {
          "indexed": false,
          "internalType": "uint256",
          "name": "amount",
          "type": "uint256"
        }
      ],
      "name": "Unstaked",
      "type": "event"
    },
    {
      "inputs": [
        {
          "internalType": "address",
          "name": "token",
          "type": "address"
        }
      ],
      "name": "accruedRewardsPerTokenFor",
      "outputs": [
        {
          "internalType": "uint256",
          "name": "",
          "type": "uint256"
        }
      ],
      "stateMutability": "view",
      "type": "function"
    },
    {
      "inputs": [
        {
          "internalType": "address",
          "name": "account",
          "type": "address"
        },
        {
          "internalType": "address",
          "name": "token",
          "type": "address"
        }
      ],
      "name": "accruedRewardsPerTokenLastFor",
      "outputs": [
        {
          "internalType": "uint256",
          "name": "",
          "type": "uint256"
        }
      ],
      "stateMutability": "view",
      "type": "function"
    },
    {
      "inputs": [
        {
          "internalType": "address",
          "name": "token",
          "type": "address"
        },
        {
          "internalType": "address",
          "name": "tokenValueImpl",
          "type": "address"
        }
      ],
      "name": "addToken",
      "outputs": [],
      "stateMutability": "nonpayable",
      "type": "function"
    },
    {
      "inputs": [
        {
          "internalType": "address",
          "name": "token",
          "type": "address"
        },
        {
          "internalType": "address",
          "name": "tokenValueImpl",
          "type": "address"
        }
      ],
      "name": "changeTokenValueImpl",
      "outputs": [],
      "stateMutability": "nonpayable",
      "type": "function"
    },
    {
      "inputs": [],
      "name": "exit",
      "outputs": [],
      "stateMutability": "nonpayable",
      "type": "function"
    },
    {
      "inputs": [
        {
          "internalType": "address",
          "name": "token",
          "type": "address"
        }
      ],
      "name": "exitFrom",
      "outputs": [],
      "stateMutability": "nonpayable",
      "type": "function"
    },
    {
      "inputs": [
        {
          "internalType": "address",
          "name": "account",
          "type": "address"
        }
      ],
      "name": "lastRewardsBalanceOf",
      "outputs": [
        {
          "internalType": "uint256",
          "name": "total",
          "type": "uint256"
        }
      ],
      "stateMutability": "view",
      "type": "function"
    },
    {
      "inputs": [
        {
          "internalType": "address",
          "name": "account",
          "type": "address"
        },
        {
          "internalType": "address",
          "name": "token",
          "type": "address"
        }
      ],
      "name": "lastRewardsBalanceOfFor",
      "outputs": [
        {
          "internalType": "uint256",
          "name": "",
          "type": "uint256"
        }
      ],
      "stateMutability": "view",
      "type": "function"
    },
    {
      "inputs": [],
      "name": "lastTotalRewardsAccrued",
      "outputs": [
        {
          "internalType": "uint256",
          "name": "",
          "type": "uint256"
        }
      ],
      "stateMutability": "view",
      "type": "function"
    },
    {
      "inputs": [
        {
          "internalType": "address",
          "name": "token",
          "type": "address"
        }
      ],
      "name": "lastTotalRewardsAccruedFor",
      "outputs": [
        {
          "internalType": "uint256",
          "name": "",
          "type": "uint256"
        }
      ],
      "stateMutability": "view",
      "type": "function"
    },
    {
      "inputs": [],
      "name": "numStakingTokens",
      "outputs": [
        {
          "internalType": "uint256",
          "name": "",
          "type": "uint256"
        }
      ],
      "stateMutability": "view",
      "type": "function"
    },
    {
      "inputs": [],
      "name": "owner",
      "outputs": [
        {
          "internalType": "address",
          "name": "",
          "type": "address"
        }
      ],
      "stateMutability": "view",
      "type": "function"
    },
    {
      "inputs": [],
      "name": "pause",
      "outputs": [],
      "stateMutability": "nonpayable",
      "type": "function"
    },
    {
      "inputs": [],
      "name": "paused",
      "outputs": [
        {
          "internalType": "bool",
          "name": "",
          "type": "bool"
        }
      ],
      "stateMutability": "view",
      "type": "function"
    },
    {
      "inputs": [
        {
          "internalType": "address",
          "name": "to",
          "type": "address"
        },
        {
          "internalType": "uint256",
          "name": "amount",
          "type": "uint256"
        }
      ],
      "name": "recoverUnredeemableRewards",
      "outputs": [],
      "stateMutability": "nonpayable",
      "type": "function"
    },
    {
      "inputs": [
        {
          "internalType": "address",
          "name": "token",
          "type": "address"
        },
        {
          "internalType": "address",
          "name": "to",
          "type": "address"
        },
        {
          "internalType": "uint256",
          "name": "amount",
          "type": "uint256"
        }
      ],
      "name": "recoverUnstaked",
      "outputs": [],
      "stateMutability": "nonpayable",
      "type": "function"
    },
    {
      "inputs": [],
      "name": "redeemAllRewards",
      "outputs": [],
      "stateMutability": "nonpayable",
      "type": "function"
    },
    {
      "inputs": [
        {
          "internalType": "address",
          "name": "token",
          "type": "address"
        }
      ],
      "name": "redeemAllRewardsFrom",
      "outputs": [],
      "stateMutability": "nonpayable",
      "type": "function"
    },
    {
      "inputs": [
        {
          "internalType": "uint256",
          "name": "amount",
          "type": "uint256"
        }
      ],
      "name": "redeemReward",
      "outputs": [],
      "stateMutability": "nonpayable",
      "type": "function"
    },
    {
      "inputs": [
        {
          "internalType": "address",
          "name": "token",
          "type": "address"
        },
        {
          "internalType": "uint256",
          "name": "amount",
          "type": "uint256"
        }
      ],
      "name": "redeemRewardFrom",
      "outputs": [],
      "stateMutability": "nonpayable",
      "type": "function"
    },
    {
      "inputs": [
        {
          "internalType": "address",
          "name": "token",
          "type": "address"
        }
      ],
      "name": "removeToken",
      "outputs": [],
      "stateMutability": "nonpayable",
      "type": "function"
    },
    {
      "inputs": [],
      "name": "renounceOwnership",
      "outputs": [],
      "stateMutability": "nonpayable",
      "type": "function"
    },
    {
      "inputs": [
        {
          "internalType": "address",
          "name": "account",
          "type": "address"
        }
      ],
      "name": "rewardsBalanceOf",
      "outputs": [
        {
          "internalType": "uint256",
          "name": "",
          "type": "uint256"
        }
      ],
      "stateMutability": "view",
      "type": "function"
    },
    {
      "inputs": [
        {
          "internalType": "address",
          "name": "account",
          "type": "address"
        },
        {
          "internalType": "address",
          "name": "token",
          "type": "address"
        }
      ],
      "name": "rewardsBalanceOfFor",
      "outputs": [
        {
          "internalType": "uint256",
          "name": "",
          "type": "uint256"
        }
      ],
      "stateMutability": "view",
      "type": "function"
    },
    {
      "inputs": [
        {
          "internalType": "address",
          "name": "token",
          "type": "address"
        }
      ],
      "name": "rewardsForToken",
      "outputs": [
        {
          "internalType": "uint256",
          "name": "",
          "type": "uint256"
        }
      ],
      "stateMutability": "view",
      "type": "function"
    },
    {
      "inputs": [],
      "name": "rewardsToken",
      "outputs": [
        {
          "internalType": "address",
          "name": "",
          "type": "address"
        }
      ],
      "stateMutability": "view",
      "type": "function"
    },
    {
      "inputs": [
        {
          "internalType": "address",
          "name": "token",
          "type": "address"
        }
      ],
      "name": "setRewardsToken",
      "outputs": [],
      "stateMutability": "nonpayable",
      "type": "function"
    },
    {
      "inputs": [
        {
          "internalType": "address",
          "name": "account",
          "type": "address"
        },
        {
          "internalType": "address",
          "name": "token",
          "type": "address"
        }
      ],
      "name": "sharesFor",
      "outputs": [
        {
          "internalType": "uint256",
          "name": "",
          "type": "uint256"
        }
      ],
      "stateMutability": "view",
      "type": "function"
    },
    {
      "inputs": [
        {
          "internalType": "address",
          "name": "token",
          "type": "address"
        }
      ],
      "name": "sharesPerToken",
      "outputs": [
        {
          "internalType": "uint256",
          "name": "",
          "type": "uint256"
        }
      ],
      "stateMutability": "view",
      "type": "function"
    },
    {
      "inputs": [
        {
          "internalType": "address",
          "name": "token",
          "type": "address"
        },
        {
          "internalType": "uint256",
          "name": "amount",
          "type": "uint256"
        }
      ],
      "name": "stake",
      "outputs": [],
      "stateMutability": "nonpayable",
      "type": "function"
    },
    {
      "inputs": [
        {
          "internalType": "address",
          "name": "account",
          "type": "address"
        },
        {
          "internalType": "address",
          "name": "token",
          "type": "address"
        }
      ],
      "name": "stakedBalanceOf",
      "outputs": [
        {
          "internalType": "uint256",
          "name": "",
          "type": "uint256"
        }
      ],
      "stateMutability": "view",
      "type": "function"
    },
    {
      "inputs": [
        {
          "internalType": "uint256",
          "name": "index",
          "type": "uint256"
        }
      ],
      "name": "stakingTokenAt",
      "outputs": [
        {
          "internalType": "address",
          "name": "",
          "type": "address"
        }
      ],
      "stateMutability": "view",
      "type": "function"
    },
    {
      "inputs": [
        {
          "internalType": "address",
          "name": "token",
          "type": "address"
        }
      ],
      "name": "supportsStakingToken",
      "outputs": [
        {
          "internalType": "bool",
          "name": "",
          "type": "bool"
        }
      ],
      "stateMutability": "view",
      "type": "function"
    },
    {
      "inputs": [],
      "name": "totalRewardsAccrued",
      "outputs": [
        {
          "internalType": "uint256",
          "name": "",
          "type": "uint256"
        }
      ],
      "stateMutability": "view",
      "type": "function"
    },
    {
      "inputs": [
        {
          "internalType": "address",
          "name": "token",
          "type": "address"
        }
      ],
      "name": "totalRewardsAccruedFor",
      "outputs": [
        {
          "internalType": "uint256",
          "name": "",
          "type": "uint256"
        }
      ],
      "stateMutability": "view",
      "type": "function"
    },
    {
      "inputs": [],
      "name": "totalRewardsRedeemed",
      "outputs": [
        {
          "internalType": "uint256",
          "name": "",
          "type": "uint256"
        }
      ],
      "stateMutability": "view",
      "type": "function"
    },
    {
      "inputs": [
        {
          "internalType": "address",
          "name": "token",
          "type": "address"
        }
      ],
      "name": "totalRewardsRedeemedFor",
      "outputs": [
        {
          "internalType": "uint256",
          "name": "",
          "type": "uint256"
        }
      ],
      "stateMutability": "view",
      "type": "function"
    },
    {
      "inputs": [],
      "name": "totalShares",
      "outputs": [
        {
          "internalType": "uint256",
          "name": "total",
          "type": "uint256"
        }
      ],
      "stateMutability": "view",
      "type": "function"
    },
    {
      "inputs": [
        {
          "internalType": "address",
          "name": "account",
          "type": "address"
        }
      ],
      "name": "totalSharesFor",
      "outputs": [
        {
          "internalType": "uint256",
          "name": "total",
          "type": "uint256"
        }
      ],
      "stateMutability": "view",
      "type": "function"
    },
    {
      "inputs": [
        {
          "internalType": "address",
          "name": "token",
          "type": "address"
        }
      ],
      "name": "totalSharesForToken",
      "outputs": [
        {
          "internalType": "uint256",
          "name": "",
          "type": "uint256"
        }
      ],
      "stateMutability": "view",
      "type": "function"
    },
    {
      "inputs": [
        {
          "internalType": "address",
          "name": "token",
          "type": "address"
        }
      ],
      "name": "totalStaked",
      "outputs": [
        {
          "internalType": "uint256",
          "name": "",
          "type": "uint256"
        }
      ],
      "stateMutability": "view",
      "type": "function"
    },
    {
      "inputs": [
        {
          "internalType": "address",
          "name": "newOwner",
          "type": "address"
        }
      ],
      "name": "transferOwnership",
      "outputs": [],
      "stateMutability": "nonpayable",
      "type": "function"
    },
    {
      "inputs": [],
      "name": "unpause",
      "outputs": [],
      "stateMutability": "nonpayable",
      "type": "function"
    },
    {
      "inputs": [],
      "name": "unredeemableRewards",
      "outputs": [
        {
          "internalType": "uint256",
          "name": "",
          "type": "uint256"
        }
      ],
      "stateMutability": "view",
      "type": "function"
    },
    {
      "inputs": [
        {
          "internalType": "address",
          "name": "token",
          "type": "address"
        },
        {
          "internalType": "uint256",
          "name": "amount",
          "type": "uint256"
        }
      ],
      "name": "unstake",
      "outputs": [],
      "stateMutability": "nonpayable",
      "type": "function"
    },
    {
      "inputs": [],
      "name": "unstakeAll",
      "outputs": [],
      "stateMutability": "nonpayable",
      "type": "function"
    },
    {
      "inputs": [
        {
          "internalType": "address",
          "name": "token",
          "type": "address"
        }
      ],
      "name": "unstakeAllFrom",
      "outputs": [],
      "stateMutability": "nonpayable",
      "type": "function"
    },
    {
      "inputs": [],
      "name": "updateAccrual",
      "outputs": [],
      "stateMutability": "nonpayable",
      "type": "function"
    },
    {
      "inputs": [],
      "name": "updateReward",
      "outputs": [],
      "stateMutability": "nonpayable",
      "type": "function"
    },
    {
      "inputs": [
        {
          "internalType": "address",
          "name": "token",
          "type": "address"
        }
      ],
      "name": "updateRewardFor",
      "outputs": [],
      "stateMutability": "nonpayable",
      "type": "function"
    },
    {
      "inputs": [
        {
          "internalType": "address",
          "name": "token",
          "type": "address"
        }
      ],
      "name": "valuePerTokenImpl",
      "outputs": [
        {
          "internalType": "address",
          "name": "",
          "type": "address"
        }
      ],
      "stateMutability": "view",
      "type": "function"
    }
  ],
  "transactionHash": "0x34cbd40c0cc4668793c2784e5927d55965b944083e380b327fe68ea6366198aa",
  "args": [
    "0x5757Dd711EaE80e181E07CdbCe43359Ac1048394",
    "0xc778417E063141139Fce010982780140Aa0cD5Ab"
  ],
  "solcInputHash": "5215b7c7bb7eaf379b141b0cd04d3a3c",
  "bytecode": "0x60806040523480156200001157600080fd5b506040516200360538038062003605833981810160405260408110156200003757600080fd5b50805160209091015160006200004c620000d3565b600080546001600160a01b0319166001600160a01b038316908117825560405192935091600080516020620035e5833981519152908290a3506000805460ff60a01b191690556200009d81620000d7565b620000a762000193565b6001600160a01b0316826001600160a01b031614620000cb57620000cb82620001a2565b50506200028f565b3390565b620000e1620000d3565b6000546001600160a01b0390811691161462000133576040805162461bcd60e51b81526020600482018190526024820152600080516020620035c5833981519152604482015290519081900360640190fd5b600180546001600160a01b0319166001600160a01b0383169081179091556200015b620000d3565b6001600160a01b03167f7d7a6e0febb00fa099988e85a4dcf58c7297875e1bd06fe1e764c71619ee3a2060405160405180910390a350565b6000546001600160a01b031690565b620001ac620000d3565b6000546001600160a01b03908116911614620001fe576040805162461bcd60e51b81526020600482018190526024820152600080516020620035c5833981519152604482015290519081900360640190fd5b6001600160a01b038116620002455760405162461bcd60e51b81526004018080602001828103825260268152602001806200359f6026913960400191505060405180910390fd5b600080546040516001600160a01b0380851693921691600080516020620035e583398151915291a3600080546001600160a01b0319166001600160a01b0392909216919091179055565b613300806200029f6000396000f3fe608060405234801561001057600080fd5b50600436106102f15760003560e01c806375f22f3a1161019d578063bf7eefd2116100e9578063e1b52ffa116100a2578063e7a203691161007c578063e7a20369146108de578063e9fad8ee146108e6578063f2fde38b146108ee578063f36c0a7214610914576102f1565b8063e1b52ffa1461086c578063e317b10514610892578063e68e3f94146108b8576102f1565b8063bf7eefd2146107a9578063c2a672e0146107cf578063d1af0c7d146107fb578063d55b06f614610803578063d5b27cbe14610829578063de320cc114610846576102f1565b806395a1297a11610156578063aad1748e11610130578063aad1748e146106fb578063adc9772e14610721578063adf772461461074d578063ba587a2e1461077b576102f1565b806395a1297a1461069f5780639bfd8d61146106a7578063aa0ba326146106cd576102f1565b806375f22f3a146106355780637f86ce301461063d57806381b72684146106455780638456cb591461066b578063860c19f3146106735780638da5cb5b1461067b576102f1565b80633ad661271161025c57806355ae75eb116102155780635fa7b584116101ef5780635fa7b584146105d9578063690f680e146105ff5780636a1eca9014610625578063715018a61461062d576102f1565b806355ae75eb146105855780635ab2c676146105ab5780635c975abb146105d1576102f1565b80633ad66127146104d25780633b322def146104da5780633f4ba83a1461050657806351a71b171461050e5780635476bd721461052b5780635530429b14610559576102f1565b806326dcbbbc116102ae57806326dcbbbc1461040e5780632fc895001461043c57806333dc41c71461047657806334f43ac61461049c57806335322f37146104c25780633a98ef39146104ca576102f1565b80630231ca17146102f657806304d534a61461032e5780630fd59a4b1461036e57806312bc1b2114610394578063179237cf146103ba57806319872cb3146103e8575b600080fd5b61032c6004803603606081101561030c57600080fd5b506001600160a01b0381358116916020810135909116906040013561091c565b005b61035c6004803603604081101561034457600080fd5b506001600160a01b0381358116916020013516610afe565b60408051918252519081900360200190f35b61035c6004803603602081101561038457600080fd5b50356001600160a01b0316610b3b565b61032c600480360360208110156103aa57600080fd5b50356001600160a01b0316610b61565b61035c600480360360408110156103d057600080fd5b506001600160a01b0381358116916020013516610b76565b61035c600480360360208110156103fe57600080fd5b50356001600160a01b0316610b92565b61035c6004803603604081101561042457600080fd5b506001600160a01b0381358116916020013516610bb0565b6104626004803603602081101561045257600080fd5b50356001600160a01b0316610bdf565b604080519115158252519081900360200190f35b61035c6004803603602081101561048c57600080fd5b50356001600160a01b0316610bec565b61032c600480360360208110156104b257600080fd5b50356001600160a01b0316610c07565b61032c610c21565b61035c610c95565b61032c610cd5565b61032c600480360360408110156104f057600080fd5b506001600160a01b038135169060200135610ef0565b61032c610fd0565b61032c6004803603602081101561052457600080fd5b5035611030565b61032c6004803603604081101561054157600080fd5b506001600160a01b0381358116916020013516611215565b61032c6004803603604081101561056f57600080fd5b506001600160a01b03813516906020013561138a565b61035c6004803603602081101561059b57600080fd5b50356001600160a01b0316611499565b61035c600480360360208110156105c157600080fd5b50356001600160a01b03166114b7565b6104626114cb565b61032c600480360360208110156105ef57600080fd5b50356001600160a01b03166114db565b61035c6004803603602081101561061557600080fd5b50356001600160a01b0316611604565b61035c61160f565b61032c611620565b61032c6116c2565b61035c6117e9565b61032c6004803603602081101561065b57600080fd5b50356001600160a01b03166117ef565b61032c611800565b61035c611860565b610683611873565b604080516001600160a01b039092168252519081900360200190f35b61035c611882565b61035c600480360360208110156106bd57600080fd5b50356001600160a01b0316611888565b61035c600480360360408110156106e357600080fd5b506001600160a01b03813581169160200135166118a6565b61035c6004803603602081101561071157600080fd5b50356001600160a01b03166118ec565b61032c6004803603604081101561073757600080fd5b506001600160a01b038135169060200135611951565b61032c6004803603604081101561076357600080fd5b506001600160a01b0381358116916020013516611b1d565b61035c6004803603604081101561079157600080fd5b506001600160a01b0381358116916020013516611c87565b610683600480360360208110156107bf57600080fd5b50356001600160a01b0316611cb9565b61032c600480360360408110156107e557600080fd5b506001600160a01b038135169060200135611cda565b610683611d8f565b61032c6004803603602081101561081957600080fd5b50356001600160a01b0316611d9e565b6106836004803603602081101561083f57600080fd5b5035611def565b61032c6004803603602081101561085c57600080fd5b50356001600160a01b0316611dfc565b61035c6004803603602081101561088257600080fd5b50356001600160a01b0316611eb2565b61035c600480360360208110156108a857600080fd5b50356001600160a01b0316611f1c565b61035c600480360360208110156108ce57600080fd5b50356001600160a01b0316611f3a565b61035c611f55565b61032c611f5b565b61032c6004803603602081101561090457600080fd5b50356001600160a01b0316611f6b565b61032c612063565b610924612073565b6000546001600160a01b03908116911614610974576040805162461bcd60e51b81526020600482018190526024820152600080516020613233833981519152604482015290519081900360640190fd5b6001546001600160a01b03848116911614156109c15760405162461bcd60e51b81526004018080602001828103825260268152602001806130eb6026913960400191505060405180910390fd5b6000610a476109cf85611888565b604080516370a0823160e01b815230600482015290516001600160a01b038816916370a08231916024808301926020929190829003018186803b158015610a1557600080fd5b505afa158015610a29573d6000803e3d6000fd5b505050506040513d6020811015610a3f57600080fd5b505190612077565b905080821115610a885760405162461bcd60e51b81526004018080602001828103825260258152602001806132536025913960400191505060405180910390fd5b610a9c6001600160a01b03851684846120b9565b826001600160a01b0316846001600160a01b0316610ab8612073565b6001600160a01b03167fa75728640461aeb3a4682a3f36b9eedb891491eb41b27953a45849a1d0c06588856040518082815260200191505060405180910390a450505050565b600080610b0b8484610bb0565b90506000610b1985856118a6565b90508015610b3157610b2c85858361210b565b820191505b5090505b92915050565b6001600160a01b0316600090815260076020526040902060038101546002909101540190565b610b6a81610c07565b610b7381611d9e565b50565b6000610b8b82610b8685856118a6565b612157565b9392505050565b6001600160a01b031660009081526007602052604090206002015490565b6001600160a01b0391821660009081526008602090815260408083209390941682526002909201909152205490565b6000610b3560058361221c565b6000610bf782612231565b610c0083611eb2565b0192915050565b610b7381610c1c610c16612073565b846118a6565b612288565b600060086000610c2f612073565b6001600160a01b03166001600160a01b0316815260200190815260200160002090506000610c5f826003016123a7565b90505b8015610c9157600080610c7860038501826123b2565b91509150610c868282612288565b505060001901610c62565b5050565b6000805b610ca360056123a7565b811015610cd157610cc7610cc0610cbb6005846123ce565b6123da565b8390612401565b9150600101610c99565b5090565b6000610cdf611860565b600254909150810380610cf3575050610eee565b6002829055600080610d0560056123a7565b67ffffffffffffffff81118015610d1b57600080fd5b50604051908082528060200260200182016040528015610d45578160200160208202803683370190505b50905060005b610d5560056123a7565b811015610da4576000610d6c610cbb6005846123ce565b9050610d78858261245b565b838381518110610d8457fe5b6020908102919091010152610d998482612401565b935050600101610d4b565b5081610e0b57600454610db79084612401565b600455610dc2612073565b6001600160a01b03167fcc40b32ccae09bbf703954e57f794bd4be4f1aa1098eba7871af6c47ad89ae77846040518082815260200191505060405180910390a250505050610eee565b60005b610e1860056123a7565b811015610ea0576000610e2c6005836123ce565b6001600160a01b03811660009081526007602052604090208451919250908590859085908110610e5857fe5b602002602001015181610e6757fe5b6002830180549290910490910190556000610e8183610b3b565b9050610e8d83826124b4565b8255600191820155919091019050610e0e565b50610ea9612073565b6001600160a01b03167fcc40b32ccae09bbf703954e57f794bd4be4f1aa1098eba7871af6c47ad89ae77846040518082815260200191505060405180910390a2505050505b565b80610f42576040805162461bcd60e51b815260206004820152601d60248201527f4c50526577617264733a2063616e6e6f742072656465656d207a65726f000000604482015290519081900360640190fd5b6000610f4c612073565b9050610f588184612529565b506001600160a01b0380821660009081526008602090815260408083209387168352600290930190522054821115610fc15760405162461bcd60e51b81526004018080602001828103825260318152602001806131bf6031913960400191505060405180910390fd5b610fcb83836125aa565b505050565b610fd8612073565b6000546001600160a01b03908116911614611028576040805162461bcd60e51b81526020600482018190526024820152600080516020613233833981519152604482015290519081900360640190fd5b610eee612697565b80611082576040805162461bcd60e51b815260206004820152601d60248201527f4c50526577617264733a2063616e6e6f742072656465656d207a65726f000000604482015290519081900360640190fd5b600061108c612073565b90506110978161273f565b6110a081611eb2565b8211156110de5760405162461bcd60e51b81526004018080602001828103825260318152602001806131bf6031913960400191505060405180910390fd5b6001600160a01b03811660009081526008602052604081209081908490611104836123a7565b90505b80156111ee57600061111984826123ce565b6001600160a01b038116600090815260076020908152604080832060028a01909252822080549394509092909186821161115f575080611159888661278f565b50611162565b50855b808203835560028401546111769082612077565b60028501556003840180548201905560408051828152905197829003976001600160a01b0380881692908d16917f540798df468d7b23d11f156fdb954cb19ad414d150722a7b6d55ba369dea792e9181900360200190a3866111dc5750505050506111ee565b50506000199093019250611107915050565b50600380548601905560015461120e906001600160a01b031685876120b9565b5050505050565b61121d612073565b6000546001600160a01b0390811691161461126d576040805162461bcd60e51b81526020600482018190526024820152600080516020613233833981519152604482015290519081900360640190fd5b61127682610bdf565b156112c8576040805162461bcd60e51b815260206004820152601e60248201527f4c50526577617264733a20746f6b656e20616c72656164792061646465640000604482015290519081900360640190fd5b6001600160a01b03811661130d5760405162461bcd60e51b815260040180806020018281038252603081526020018061318f6030913960400191505060405180910390fd5b6113186005836127a4565b506001600160a01b03828116600081815260076020526040902060050180546001600160a01b0319169284169283179055611351612073565b6001600160a01b03167ffc43233c964efa713b168e2361b2c57eafddc32aa7f7d0f85c92e66e113aa28a60405160405180910390a45050565b611392612073565b6000546001600160a01b039081169116146113e2576040805162461bcd60e51b81526020600482018190526024820152600080516020613233833981519152604482015290519081900360640190fd5b6004548111156114235760405162461bcd60e51b81526004018080602001828103825260298152602001806132786029913960400191505060405180910390fd5b600480548290039055600154611443906001600160a01b031683836120b9565b816001600160a01b0316611455612073565b6001600160a01b03167fe4cedce8a9da6a4cd7794b1b6bbba077e9cb7bba00eeb3b7152926cd378f023c836040518082815260200191505060405180910390a35050565b6001600160a01b031660009081526007602052604090206001015490565b6000610b3582670de0b6b3a7640000612157565b600054600160a01b900460ff1690565b6114e3612073565b6000546001600160a01b03908116911614611533576040805162461bcd60e51b81526020600482018190526024820152600080516020613233833981519152604482015290519081900360640190fd5b8061153d81610bdf565b61158e576040805162461bcd60e51b815260206004820152601c60248201527f4c50526577617264733a20756e737570706f7274656420746f6b656e00000000604482015290519081900360640190fd5b61159960058361278f565b506001600160a01b038216600081815260076020526040902060050180546001600160a01b03191690556115cb612073565b6001600160a01b03167fbbe55b1ff108e23e5ff1a6f5d36946eec15ec0ca0ded2bfed4cdcf697ca9046060405160405180910390a35050565b6000610b35826123da565b600061161b60056123a7565b905090565b611628612073565b6000546001600160a01b03908116911614611678576040805162461bcd60e51b81526020600482018190526024820152600080516020613233833981519152604482015290519081900360640190fd5b600080546040516001600160a01b03909116907f8be0079c531659141344cd1fd0a4f28419497f9722a3daafe3b4186f6b6457e0908390a3600080546001600160a01b0319169055565b60006116cc612073565b90506116d78161273f565b6001600160a01b0381166000908152600860205260408120908190806116fc836123a7565b90505b80156117c357600061171184826123ce565b6001600160a01b03811660009081526007602090815260408083206002808b0190935290832080549381559181015496830196939450929091906117559082612077565b6002840155600383018054820190556040805182815290516001600160a01b0380871692908c16917f540798df468d7b23d11f156fdb954cb19ad414d150722a7b6d55ba369dea792e9181900360200190a36117b1878561278f565b505060001990930192506116ff915050565b5060038054820190556001546117e3906001600160a01b031685836120b9565b50505050565b60045490565b610c916117fa612073565b82612529565b611808612073565b6000546001600160a01b03908116911614611858576040805162461bcd60e51b81526020600482018190526024820152600080516020613233833981519152604482015290519081900360640190fd5b610eee6127b9565b600060035461186d612847565b01905090565b6000546001600160a01b031690565b60035490565b6001600160a01b031660009081526007602052604090206004015490565b6001600160a01b03821660009081526008602052604081206003016118cb818461221c565b156118e2576118da81846128c3565b915050610b35565b5060009392505050565b6001600160a01b0381166000908152600860205260408120600301815b611912826123a7565b81101561194a5760008061192684846123b2565b9150915061193e6119378383612157565b8690612401565b94505050600101611909565b5050919050565b600054600160a01b900460ff16156119a3576040805162461bcd60e51b815260206004820152601060248201526f14185d5cd8589b194e881c185d5cd95960821b604482015290519081900360640190fd5b816119ad81610bdf565b6119fe576040805162461bcd60e51b815260206004820152601c60248201527f4c50526577617264733a20756e737570706f7274656420746f6b656e00000000604482015290519081900360640190fd5b81611a50576040805162461bcd60e51b815260206004820152601c60248201527f4c50526577617264733a2063616e6e6f74207374616b65207a65726f00000000604482015290519081900360640190fd5b6000611a5a612073565b9050611a668185612529565b506001600160a01b03808216600090815260086020908152604080832093881683526007909152902060048101805486019055611ab486611aa785826118a6565b60038501919088016128d8565b50611aca6001600160a01b0387168430886128f6565b856001600160a01b0316836001600160a01b03167f5dac0c1b1112564a045ba943c9d50270893e8e826c49be8e7073adc713ab7bd7876040518082815260200191505060405180910390a3505050505050565b611b25612073565b6000546001600160a01b03908116911614611b75576040805162461bcd60e51b81526020600482018190526024820152600080516020613233833981519152604482015290519081900360640190fd5b81611b7f81610bdf565b611bd0576040805162461bcd60e51b815260206004820152601c60248201527f4c50526577617264733a20756e737570706f7274656420746f6b656e00000000604482015290519081900360640190fd5b6001600160a01b038216611c155760405162461bcd60e51b815260040180806020018281038252603081526020018061318f6030913960400191505060405180910390fd5b6001600160a01b03838116600081815260076020526040902060050180546001600160a01b0319169285169283179055611c4d612073565b6001600160a01b03167ff7d59a26862d20da3ef12eadf152cfdfab1eeee2999483cf9473ddfd7d992f0360405160405180910390a4505050565b6001600160a01b0391821660009081526008602090815260408083209390941682526002909201909152206001015490565b6001600160a01b039081166000908152600760205260409020600501541690565b80611d2c576040805162461bcd60e51b815260206004820152601e60248201527f4c50526577617264733a2063616e6e6f7420756e7374616b65207a65726f0000604482015290519081900360640190fd5b6000611d36612073565b90506000611d4482856118a6565b905080831115611d855760405162461bcd60e51b815260040180806020018281038252603281526020018061315d6032913960400191505060405180910390fd5b6117e38484612288565b6001546001600160a01b031690565b6000611da8612073565b9050611db48183612529565b506001600160a01b03808216600090815260086020908152604080832093861683526002909301905220548015610fcb57610fcb83826125aa565b6000610b356005836123ce565b611e04612073565b6000546001600160a01b03908116911614611e54576040805162461bcd60e51b81526020600482018190526024820152600080516020613233833981519152604482015290519081900360640190fd5b600180546001600160a01b0319166001600160a01b038316908117909155611e7a612073565b6001600160a01b03167f7d7a6e0febb00fa099988e85a4dcf58c7297875e1bd06fe1e764c71619ee3a2060405160405180910390a350565b6001600160a01b038116600090815260086020526040812080825b611ed6826123a7565b811015611f1457600283016000611eed84846123ce565b6001600160a01b031681526020810191909152604001600020549390930192600101611ecd565b505050919050565b6001600160a01b031660009081526007602052604090206003015490565b6001600160a01b031660009081526007602052604090205490565b60025490565b611f63610c21565b610eee6116c2565b611f73612073565b6000546001600160a01b03908116911614611fc3576040805162461bcd60e51b81526020600482018190526024820152600080516020613233833981519152604482015290519081900360640190fd5b6001600160a01b0381166120085760405162461bcd60e51b81526004018080602001828103825260268152602001806131116026913960400191505060405180910390fd5b600080546040516001600160a01b03808516939216917f8be0079c531659141344cd1fd0a4f28419497f9722a3daafe3b4186f6b6457e091a3600080546001600160a01b0319166001600160a01b0392909216919091179055565b610eee61206e612073565b61273f565b3390565b6000610b8b83836040518060400160405280601e81526020017f536166654d6174683a207375627472616374696f6e206f766572666c6f770000815250612950565b604080516001600160a01b038416602482015260448082018490528251808303909101815260649091019091526020810180516001600160e01b031663a9059cbb60e01b179052610fcb9084906129e7565b60008061211784611f3a565b905060006121258686611c87565b90508082036ec097ce7bc90715b34b9f1000000000612144868361245b565b8161214b57fe5b04979650505050505050565b600061216283610bdf565b61216e57506000610b35565b600061217984611cb9565b9050600080826001600160a01b031663a8fa8e526040518163ffffffff1660e01b8152600401604080518083038186803b1580156121b657600080fd5b505afa1580156121ca573d6000803e3d6000fd5b505050506040513d60408110156121e057600080fd5b5080516020909101519092509050806121ff5760009350505050610b35565b8061220a868461245b565b8161221157fe5b049695505050505050565b6000610b8b836001600160a01b038416612a98565b6001600160a01b0381166000908152600860205260408120600301815b612257826123a7565b81101561194a5760008061226b84846123b2565b9150915061227a86838361210b565b90940193505060010161224e565b6000612292612073565b905061229e8184612529565b506001600160a01b038316600090815260076020526040902060048101546122c69084612077565b60048201556001600160a01b03821660009081526008602052604081209060038201906122fd866122f7848a6128c3565b90612077565b9050806123325761230e8288612ab0565b506001600160a01b038716600090815260028401602052604081206001015561233f565b61233d8288836128d8565b505b6123536001600160a01b03881686886120b9565b866001600160a01b0316856001600160a01b03167fd8654fcc8cf5b36d30b3f5e4688fc78118e6d68de60b9994e09902268b57c3e3886040518082815260200191505060405180910390a350505050505050565b6000610b3582612ac5565b60008080806123c18686612ac9565b9097909650945050505050565b6000610b8b8383612b44565b6001600160a01b038116600090815260076020526040812060040154610b35908390612157565b600082820183811015610b8b576040805162461bcd60e51b815260206004820152601b60248201527f536166654d6174683a206164646974696f6e206f766572666c6f770000000000604482015290519081900360640190fd5b60008261246a57506000610b35565b8282028284828161247757fe5b0414610b8b5760405162461bcd60e51b81526004018080602001828103825260218152602001806132126021913960400191505060405180910390fd5b6001600160a01b03821660009081526007602052604081206004810154806124df5750549050610b35565b60018201548403806124f5575050549050610b35565b600082612511836ec097ce7bc90715b34b9f100000000061245b565b8161251857fe5b945494049093019695505050505050565b6001600160a01b038083166000908152600860209081526040808320938516835260028401909152812080549192918361256387876118a6565b9050600061257288888461210b565b9050801561258d579182018084559161258b85886127a4565b505b61259687611f3a565b600190940193909355509250505092915050565b60006125b4612073565b6001600160a01b03808216600090815260086020908152604080832093881683526002840182528083206007909252909120815486900380835593945091929091908061260757612605848861278f565b505b60028201546126169087612077565b60028301556003808301805488019055805487019055600154612643906001600160a01b031686886120b9565b866001600160a01b0316856001600160a01b03167f540798df468d7b23d11f156fdb954cb19ad414d150722a7b6d55ba369dea792e886040518082815260200191505060405180910390a350505050505050565b600054600160a01b900460ff166126ec576040805162461bcd60e51b815260206004820152601460248201527314185d5cd8589b194e881b9bdd081c185d5cd95960621b604482015290519081900360640190fd5b6000805460ff60a01b191690557f5db9ee0a495bf2e6ff9c91a7834c1ba4fdd244a5e8aa4e537bd38aeae4b073aa612722612073565b604080516001600160a01b039092168252519081900360200190a1565b6001600160a01b0381166000908152600860205260408120600301905b612765826123a7565b811015610fcb57600061277883836123b2565b5090506127858482612529565b505060010161275c565b6000610b8b836001600160a01b038416612ba8565b6000610b8b836001600160a01b038416612c6e565b600054600160a01b900460ff161561280b576040805162461bcd60e51b815260206004820152601060248201526f14185d5cd8589b194e881c185d5cd95960821b604482015290519081900360640190fd5b6000805460ff60a01b1916600160a01b1790557f62e78cea01bee320cd4e420270b5ea74000d11b0c9f74754ebdbfc544b05a258612722612073565b600154604080516370a0823160e01b815230600482015290516000926001600160a01b0316916370a08231916024808301926020929190829003018186803b15801561289257600080fd5b505afa1580156128a6573d6000803e3d6000fd5b505050506040513d60208110156128bc57600080fd5b5051905090565b6000610b8b836001600160a01b038416612cb8565b60006128ee846001600160a01b03851684612cfa565b949350505050565b604080516001600160a01b0380861660248301528416604482015260648082018490528251808303909101815260849091019091526020810180516001600160e01b03166323b872dd60e01b1790526117e39085906129e7565b600081848411156129df5760405162461bcd60e51b81526004018080602001828103825283818151815260200191508051906020019080838360005b838110156129a457818101518382015260200161298c565b50505050905090810190601f1680156129d15780820380516001836020036101000a031916815260200191505b509250505060405180910390fd5b505050900390565b6000612a3c826040518060400160405280602081526020017f5361666545524332303a206c6f772d6c6576656c2063616c6c206661696c6564815250856001600160a01b0316612d919092919063ffffffff16565b805190915015610fcb57808060200190516020811015612a5b57600080fd5b5051610fcb5760405162461bcd60e51b815260040180806020018281038252602a8152602001806132a1602a913960400191505060405180910390fd5b60009081526001919091016020526040902054151590565b6000610b8b836001600160a01b038416612da0565b5490565b815460009081908310612b0d5760405162461bcd60e51b81526004018080602001828103825260228152602001806131f06022913960400191505060405180910390fd5b6000846000018481548110612b1e57fe5b906000526020600020906002020190508060000154816001015492509250509250929050565b81546000908210612b865760405162461bcd60e51b81526004018080602001828103825260228152602001806130c96022913960400191505060405180910390fd5b826000018281548110612b9557fe5b9060005260206000200154905092915050565b60008181526001830160205260408120548015612c645783546000198083019190810190600090879083908110612bdb57fe5b9060005260206000200154905080876000018481548110612bf857fe5b600091825260208083209091019290925582815260018981019092526040902090840190558654879080612c2857fe5b60019003818190600052602060002001600090559055866001016000878152602001908152602001600020600090556001945050505050610b35565b6000915050610b35565b6000612c7a8383612a98565b612cb057508154600181810184556000848152602080822090930184905584548482528286019093526040902091909155610b35565b506000610b35565b6000610b8b83836040518060400160405280601e81526020017f456e756d657261626c654d61703a206e6f6e6578697374656e74206b65790000815250612e74565b600082815260018401602052604081205480612d5f575050604080518082018252838152602080820184815286546001818101895560008981528481209551600290930290950191825591519082015586548684528188019092529290912055610b8b565b82856000016001830381548110612d7257fe5b9060005260206000209060020201600101819055506000915050610b8b565b60606128ee8484600085612f01565b60008181526001830160205260408120548015612c645783546000198083019190810190600090879083908110612dd357fe5b9060005260206000209060020201905080876000018481548110612df357fe5b600091825260208083208454600290930201918255600193840154918401919091558354825289830190526040902090840190558654879080612e3257fe5b6000828152602080822060026000199094019384020182815560019081018390559290935588815289820190925260408220919091559450610b359350505050565b60008281526001840160205260408120548281612ed25760405162461bcd60e51b81526020600482018181528351602484015283519092839260449091019190850190808383600083156129a457818101518382015260200161298c565b50846000016001820381548110612ee557fe5b9060005260206000209060020201600101549150509392505050565b606082471015612f425760405162461bcd60e51b81526004018080602001828103825260268152602001806131376026913960400191505060405180910390fd5b612f4b8561305c565b612f9c576040805162461bcd60e51b815260206004820152601d60248201527f416464726573733a2063616c6c20746f206e6f6e2d636f6e7472616374000000604482015290519081900360640190fd5b600080866001600160a01b031685876040518082805190602001908083835b60208310612fda5780518252601f199092019160209182019101612fbb565b6001836020036101000a03801982511681845116808217855250505050505090500191505060006040518083038185875af1925050503d806000811461303c576040519150601f19603f3d011682016040523d82523d6000602084013e613041565b606091505b5091509150613051828286613062565b979650505050505050565b3b151590565b60608315613071575081610b8b565b8251156130815782518084602001fd5b60405162461bcd60e51b81526020600482018181528451602484015284518593919283926044019190850190808383600083156129a457818101518382015260200161298c56fe456e756d657261626c655365743a20696e646578206f7574206f6620626f756e64734c50526577617264733a2063616e6e6f74207265636f7665722072657761726473546f6b656e4f776e61626c653a206e6577206f776e657220697320746865207a65726f2061646472657373416464726573733a20696e73756666696369656e742062616c616e636520666f722063616c6c4c50526577617264733a2063616e6e6f7420756e7374616b65206d6f7265207468616e207374616b65642062616c616e63654c50526577617264733a20746f6b656e56616c7565496d706c2063616e6e6f74206265207a65726f20616464726573734c50526577617264733a2063616e6e6f742072656465656d206d6f72652072657761726473207468616e206561726e6564456e756d657261626c654d61703a20696e646578206f7574206f6620626f756e6473536166654d6174683a206d756c7469706c69636174696f6e206f766572666c6f774f776e61626c653a2063616c6c6572206973206e6f7420746865206f776e65724c50526577617264733a207265636f7665727920616d6f756e74203e20756e7374616b65644c50526577617264733a207265636f7665727920616d6f756e74203e20756e72656465656d61626c655361666545524332303a204552433230206f7065726174696f6e20646964206e6f742073756363656564a264697066735822122064c7cccaa3d69a4390d3250c7f8d701d97754d0b161b207df8e66f6c7ab45c3964736f6c634300070600334f776e61626c653a206e6577206f776e657220697320746865207a65726f20616464726573734f776e61626c653a2063616c6c6572206973206e6f7420746865206f776e65728be0079c531659141344cd1fd0a4f28419497f9722a3daafe3b4186f6b6457e0",
  "devdoc": {
    "kind": "dev",
    "methods": {
      "owner()": {
        "details": "Returns the address of the current owner."
      },
      "paused()": {
        "details": "Returns true if the contract is paused, and false otherwise."
      },
      "renounceOwnership()": {
        "details": "Leaves the contract without owner. It will not be possible to call `onlyOwner` functions anymore. Can only be called by the current owner. NOTE: Renouncing ownership will leave the contract without an owner, thereby removing any functionality that is only available to the owner."
      },
      "transferOwnership(address)": {
        "details": "Transfers ownership of the contract to a new account (`newOwner`). Can only be called by the current owner."
      }
    },
    "version": 1
  },
  "userdoc": {
    "kind": "user",
    "methods": {},
    "version": 1
  },
  "storageLayout": {
    "storage": [
      {
        "astId": 912,
        "contract": "contracts/rewards/LPRewards.sol:LPRewards",
        "label": "_owner",
        "offset": 0,
        "slot": "0",
        "type": "t_address"
      },
      {
        "astId": 2953,
        "contract": "contracts/rewards/LPRewards.sol:LPRewards",
        "label": "_paused",
        "offset": 20,
        "slot": "0",
        "type": "t_bool"
      },
      {
        "astId": 8498,
        "contract": "contracts/rewards/LPRewards.sol:LPRewards",
        "label": "_rewardsToken",
        "offset": 0,
        "slot": "1",
        "type": "t_address"
      },
      {
        "astId": 8500,
        "contract": "contracts/rewards/LPRewards.sol:LPRewards",
        "label": "_lastTotalRewardsAccrued",
        "offset": 0,
        "slot": "2",
        "type": "t_uint256"
      },
      {
        "astId": 8502,
        "contract": "contracts/rewards/LPRewards.sol:LPRewards",
        "label": "_totalRewardsRedeemed",
        "offset": 0,
        "slot": "3",
        "type": "t_uint256"
      },
      {
        "astId": 8504,
        "contract": "contracts/rewards/LPRewards.sol:LPRewards",
        "label": "_unredeemableRewards",
        "offset": 0,
        "slot": "4",
        "type": "t_uint256"
      },
      {
        "astId": 8506,
        "contract": "contracts/rewards/LPRewards.sol:LPRewards",
        "label": "_tokens",
        "offset": 0,
        "slot": "5",
        "type": "t_struct(AddressSet)2731_storage"
      },
      {
        "astId": 8510,
        "contract": "contracts/rewards/LPRewards.sol:LPRewards",
        "label": "_tokenData",
        "offset": 0,
        "slot": "7",
        "type": "t_mapping(t_address,t_struct(TokenData)8479_storage)"
      },
      {
        "astId": 8514,
        "contract": "contracts/rewards/LPRewards.sol:LPRewards",
        "label": "_users",
        "offset": 0,
        "slot": "8",
        "type": "t_mapping(t_address,t_struct(UserData)8493_storage)"
      }
    ],
    "types": {
      "t_address": {
        "encoding": "inplace",
        "label": "address",
        "numberOfBytes": "20"
      },
      "t_array(t_bytes32)dyn_storage": {
        "base": "t_bytes32",
        "encoding": "dynamic_array",
        "label": "bytes32[]",
        "numberOfBytes": "32"
      },
      "t_array(t_struct(MapEntry)5767_storage)dyn_storage": {
        "base": "t_struct(MapEntry)5767_storage",
        "encoding": "dynamic_array",
        "label": "struct EnumerableMap.MapEntry[]",
        "numberOfBytes": "32"
      },
      "t_bool": {
        "encoding": "inplace",
        "label": "bool",
        "numberOfBytes": "1"
      },
      "t_bytes32": {
        "encoding": "inplace",
        "label": "bytes32",
        "numberOfBytes": "32"
      },
      "t_mapping(t_address,t_struct(TokenData)8479_storage)": {
        "encoding": "mapping",
        "key": "t_address",
        "label": "mapping(address => struct LPRewards.TokenData)",
        "numberOfBytes": "32",
        "value": "t_struct(TokenData)8479_storage"
      },
      "t_mapping(t_address,t_struct(UserData)8493_storage)": {
        "encoding": "mapping",
        "key": "t_address",
        "label": "mapping(address => struct LPRewards.UserData)",
        "numberOfBytes": "32",
        "value": "t_struct(UserData)8493_storage"
      },
      "t_mapping(t_address,t_struct(UserTokenRewards)8484_storage)": {
        "encoding": "mapping",
        "key": "t_address",
        "label": "mapping(address => struct LPRewards.UserTokenRewards)",
        "numberOfBytes": "32",
        "value": "t_struct(UserTokenRewards)8484_storage"
      },
      "t_mapping(t_bytes32,t_uint256)": {
        "encoding": "mapping",
        "key": "t_bytes32",
        "label": "mapping(bytes32 => uint256)",
        "numberOfBytes": "32",
        "value": "t_uint256"
      },
      "t_struct(AddressSet)2731_storage": {
        "encoding": "inplace",
        "label": "struct EnumerableSet.AddressSet",
        "members": [
          {
            "astId": 2730,
            "contract": "contracts/rewards/LPRewards.sol:LPRewards",
            "label": "_inner",
            "offset": 0,
            "slot": "0",
            "type": "t_struct(Set)2466_storage"
          }
        ],
        "numberOfBytes": "64"
      },
      "t_struct(AddressToUintMap)6039_storage": {
        "encoding": "inplace",
        "label": "struct EnumerableMap.AddressToUintMap",
        "members": [
          {
            "astId": 6038,
            "contract": "contracts/rewards/LPRewards.sol:LPRewards",
            "label": "_inner",
            "offset": 0,
            "slot": "0",
            "type": "t_struct(Map)5775_storage"
          }
        ],
        "numberOfBytes": "64"
      },
      "t_struct(Map)5775_storage": {
        "encoding": "inplace",
        "label": "struct EnumerableMap.Map",
        "members": [
          {
            "astId": 5770,
            "contract": "contracts/rewards/LPRewards.sol:LPRewards",
            "label": "_entries",
            "offset": 0,
            "slot": "0",
            "type": "t_array(t_struct(MapEntry)5767_storage)dyn_storage"
          },
          {
            "astId": 5774,
            "contract": "contracts/rewards/LPRewards.sol:LPRewards",
            "label": "_indexes",
            "offset": 0,
            "slot": "1",
            "type": "t_mapping(t_bytes32,t_uint256)"
          }
        ],
        "numberOfBytes": "64"
      },
      "t_struct(MapEntry)5767_storage": {
        "encoding": "inplace",
        "label": "struct EnumerableMap.MapEntry",
        "members": [
          {
            "astId": 5764,
            "contract": "contracts/rewards/LPRewards.sol:LPRewards",
            "label": "_key",
            "offset": 0,
            "slot": "0",
            "type": "t_bytes32"
          },
          {
            "astId": 5766,
            "contract": "contracts/rewards/LPRewards.sol:LPRewards",
            "label": "_value",
            "offset": 0,
            "slot": "1",
            "type": "t_bytes32"
          }
        ],
        "numberOfBytes": "64"
      },
      "t_struct(Set)2466_storage": {
        "encoding": "inplace",
        "label": "struct EnumerableSet.Set",
        "members": [
          {
            "astId": 2461,
            "contract": "contracts/rewards/LPRewards.sol:LPRewards",
            "label": "_values",
            "offset": 0,
            "slot": "0",
            "type": "t_array(t_bytes32)dyn_storage"
          },
          {
            "astId": 2465,
            "contract": "contracts/rewards/LPRewards.sol:LPRewards",
            "label": "_indexes",
            "offset": 0,
            "slot": "1",
            "type": "t_mapping(t_bytes32,t_uint256)"
          }
        ],
        "numberOfBytes": "64"
      },
      "t_struct(TokenData)8479_storage": {
        "encoding": "inplace",
        "label": "struct LPRewards.TokenData",
        "members": [
          {
            "astId": 8468,
            "contract": "contracts/rewards/LPRewards.sol:LPRewards",
            "label": "arpt",
            "offset": 0,
            "slot": "0",
            "type": "t_uint256"
          },
          {
            "astId": 8470,
            "contract": "contracts/rewards/LPRewards.sol:LPRewards",
            "label": "lastRewardsAccrued",
            "offset": 0,
            "slot": "1",
            "type": "t_uint256"
          },
          {
            "astId": 8472,
            "contract": "contracts/rewards/LPRewards.sol:LPRewards",
            "label": "rewards",
            "offset": 0,
            "slot": "2",
            "type": "t_uint256"
          },
          {
            "astId": 8474,
            "contract": "contracts/rewards/LPRewards.sol:LPRewards",
            "label": "rewardsRedeemed",
            "offset": 0,
            "slot": "3",
            "type": "t_uint256"
          },
          {
            "astId": 8476,
            "contract": "contracts/rewards/LPRewards.sol:LPRewards",
            "label": "totalStaked",
            "offset": 0,
            "slot": "4",
            "type": "t_uint256"
          },
          {
            "astId": 8478,
            "contract": "contracts/rewards/LPRewards.sol:LPRewards",
            "label": "valueImpl",
            "offset": 0,
            "slot": "5",
            "type": "t_address"
          }
        ],
        "numberOfBytes": "192"
      },
      "t_struct(UserData)8493_storage": {
        "encoding": "inplace",
        "label": "struct LPRewards.UserData",
        "members": [
          {
            "astId": 8486,
            "contract": "contracts/rewards/LPRewards.sol:LPRewards",
            "label": "tokensWithRewards",
            "offset": 0,
            "slot": "0",
            "type": "t_struct(AddressSet)2731_storage"
          },
          {
            "astId": 8490,
            "contract": "contracts/rewards/LPRewards.sol:LPRewards",
            "label": "rewardsFor",
            "offset": 0,
            "slot": "2",
            "type": "t_mapping(t_address,t_struct(UserTokenRewards)8484_storage)"
          },
          {
            "astId": 8492,
            "contract": "contracts/rewards/LPRewards.sol:LPRewards",
            "label": "staked",
            "offset": 0,
            "slot": "3",
            "type": "t_struct(AddressToUintMap)6039_storage"
          }
        ],
        "numberOfBytes": "160"
      },
      "t_struct(UserTokenRewards)8484_storage": {
        "encoding": "inplace",
        "label": "struct LPRewards.UserTokenRewards",
        "members": [
          {
            "astId": 8481,
            "contract": "contracts/rewards/LPRewards.sol:LPRewards",
            "label": "pending",
            "offset": 0,
            "slot": "0",
            "type": "t_uint256"
          },
          {
            "astId": 8483,
            "contract": "contracts/rewards/LPRewards.sol:LPRewards",
            "label": "arptLast",
            "offset": 0,
            "slot": "1",
            "type": "t_uint256"
          }
        ],
        "numberOfBytes": "64"
      },
      "t_uint256": {
        "encoding": "inplace",
        "label": "uint256",
        "numberOfBytes": "32"
      }
    }
  }
}