{
  "address": "0xECb0F0BD76037329E0d9501e4caD23FC00d08537",
  "abi": [
    {
      "inputs": [
        {
          "internalType": "address",
          "name": "admin",
          "type": "address"
        },
        {
          "internalType": "address",
          "name": "policyMaker",
          "type": "address"
        },
        {
          "internalType": "address",
          "name": "gasOracle_",
          "type": "address"
        },
        {
          "internalType": "address",
          "name": "ethtx_",
          "type": "address"
        }
      ],
      "stateMutability": "nonpayable",
      "type": "constructor"
    },
    {
      "anonymous": false,
      "inputs": [
        {
          "indexed": true,
          "internalType": "bytes32",
          "name": "role",
          "type": "bytes32"
        },
        {
          "indexed": true,
          "internalType": "bytes32",
          "name": "previousAdminRole",
          "type": "bytes32"
        },
        {
          "indexed": true,
          "internalType": "bytes32",
          "name": "newAdminRole",
          "type": "bytes32"
        }
      ],
      "name": "RoleAdminChanged",
      "type": "event"
    },
    {
      "anonymous": false,
      "inputs": [
        {
          "indexed": true,
          "internalType": "bytes32",
          "name": "role",
          "type": "bytes32"
        },
        {
          "indexed": true,
          "internalType": "address",
          "name": "account",
          "type": "address"
        },
        {
          "indexed": true,
          "internalType": "address",
          "name": "sender",
          "type": "address"
        }
      ],
      "name": "RoleGranted",
      "type": "event"
    },
    {
      "anonymous": false,
      "inputs": [
        {
          "indexed": true,
          "internalType": "bytes32",
          "name": "role",
          "type": "bytes32"
        },
        {
          "indexed": true,
          "internalType": "address",
          "name": "account",
          "type": "address"
        },
        {
          "indexed": true,
          "internalType": "address",
          "name": "sender",
          "type": "address"
        }
      ],
      "name": "RoleRevoked",
      "type": "event"
    },
    {
      "inputs": [],
      "name": "DEFAULT_ADMIN_ROLE",
      "outputs": [
        {
          "internalType": "bytes32",
          "name": "",
          "type": "bytes32"
        }
      ],
      "stateMutability": "view",
      "type": "function"
    },
    {
      "inputs": [],
      "name": "POLICY_ROLE",
      "outputs": [
        {
          "internalType": "bytes32",
          "name": "",
          "type": "bytes32"
        }
      ],
      "stateMutability": "view",
      "type": "function"
    },
    {
      "inputs": [],
      "name": "ethtx",
      "outputs": [
        {
          "internalType": "address",
          "name": "",
          "type": "address"
        }
      ],
      "stateMutability": "view",
      "type": "function"
    },
    {
      "inputs": [],
      "name": "gasOracle",
      "outputs": [
        {
          "internalType": "address",
          "name": "",
          "type": "address"
        }
      ],
      "stateMutability": "view",
      "type": "function"
    },
    {
      "inputs": [
        {
          "internalType": "bytes32",
          "name": "role",
          "type": "bytes32"
        }
      ],
      "name": "getRoleAdmin",
      "outputs": [
        {
          "internalType": "bytes32",
          "name": "",
          "type": "bytes32"
        }
      ],
      "stateMutability": "view",
      "type": "function"
    },
    {
      "inputs": [
        {
          "internalType": "bytes32",
          "name": "role",
          "type": "bytes32"
        },
        {
          "internalType": "address",
          "name": "account",
          "type": "address"
        }
      ],
      "name": "grantRole",
      "outputs": [],
      "stateMutability": "nonpayable",
      "type": "function"
    },
    {
      "inputs": [
        {
          "internalType": "bytes32",
          "name": "role",
          "type": "bytes32"
        },
        {
          "internalType": "address",
          "name": "account",
          "type": "address"
        }
      ],
      "name": "hasRole",
      "outputs": [
        {
          "internalType": "bool",
          "name": "",
          "type": "bool"
        }
      ],
      "stateMutability": "view",
      "type": "function"
    },
    {
      "inputs": [
        {
          "internalType": "bytes32",
          "name": "role",
          "type": "bytes32"
        },
        {
          "internalType": "address",
          "name": "account",
          "type": "address"
        }
      ],
      "name": "renounceRole",
      "outputs": [],
      "stateMutability": "nonpayable",
      "type": "function"
    },
    {
      "inputs": [
        {
          "internalType": "bytes32",
          "name": "role",
          "type": "bytes32"
        },
        {
          "internalType": "address",
          "name": "account",
          "type": "address"
        }
      ],
      "name": "revokeRole",
      "outputs": [],
      "stateMutability": "nonpayable",
      "type": "function"
    },
    {
      "inputs": [
        {
          "internalType": "uint256",
          "name": "gasPrice",
          "type": "uint256"
        }
      ],
      "name": "update",
      "outputs": [],
      "stateMutability": "nonpayable",
      "type": "function"
    }
  ],
  "transactionHash": "0x0b652a9826922b6b20f6c2246cec278cbcaf34418cab0ead064b84d5ae56effc",
  "args": [
    "0x5757Dd711EaE80e181E07CdbCe43359Ac1048394",
    "0x97D46CE03376a059C3Fb84c6c297080166b06E0b",
    "0xa2203aCc6311158E89564a7EF5107826100DBEDd",
    "0x2068581322A471F161813A40e61c0418CD675711"
  ],
  "solcInputHash": "eabe3fbce2e086b31b41212778856ffc",
  "bytecode": "0x60c060405234801561001057600080fd5b506040516109fb3803806109fb8339818101604052608081101561003357600080fd5b50805160208201516040830151606090930151919290916100556000856100a1565b61007f7ffb5864e8ff833c3cb2d2d08505e82ff02a43554c74a35d4f5a64e85261278311846100a1565b6001600160601b0319606091821b811660805291901b1660a052506101619050565b6100ab82826100af565b5050565b6100b98282610134565b6100ab576000828152602081815260408083206001600160a01b03851684529091529020805460ff191660011790556100f061015d565b6001600160a01b0316816001600160a01b0316837f2f8788117e7eff1d82e926ec794901d17c78024a50270940304540a733656f0d60405160405180910390a45050565b6000918252602082815260408084206001600160a01b0393909316845291905290205460ff1690565b3390565b60805160601c60a05160601c610867610194600039806103ba5280610476525080610501528061058552506108676000f3fe608060405234801561001057600080fd5b50600436106100be5760003560e01c806382ab890a1161007657806391d148541161005b57806391d14854146101c4578063a217fddf14610211578063d547741f14610219576100be565b806382ab890a1461019f578063902dd186146101bc576100be565b80632f2ff15d116100a75780632f2ff15d146100fa57806336568abe146101355780635d62a8dd1461016e576100be565b806322985246146100c3578063248a9ca3146100dd575b600080fd5b6100cb610252565b60408051918252519081900360200190f35b6100cb600480360360208110156100f357600080fd5b5035610276565b6101336004803603604081101561011057600080fd5b508035906020013573ffffffffffffffffffffffffffffffffffffffff1661028b565b005b6101336004803603604081101561014b57600080fd5b508035906020013573ffffffffffffffffffffffffffffffffffffffff1661031f565b6101766103b8565b6040805173ffffffffffffffffffffffffffffffffffffffff9092168252519081900360200190f35b610133600480360360208110156101b557600080fd5b50356103dc565b610176610583565b6101fd600480360360408110156101da57600080fd5b508035906020013573ffffffffffffffffffffffffffffffffffffffff166105a7565b604080519115158252519081900360200190f35b6100cb6105dd565b6101336004803603604081101561022f57600080fd5b508035906020013573ffffffffffffffffffffffffffffffffffffffff166105e2565b7ffb5864e8ff833c3cb2d2d08505e82ff02a43554c74a35d4f5a64e8526127831181565b60009081526020819052604090206001015490565b61029482610276565b6102a5816102a061066c565b6105a7565b61031057604080517f08c379a000000000000000000000000000000000000000000000000000000000815260206004820152601c60248201527f416363657373436f6e74726f6c3a206163636573732064656e69656400000000604482015290519081900360640190fd5b61031a8383610670565b505050565b61032761066c565b73ffffffffffffffffffffffffffffffffffffffff168173ffffffffffffffffffffffffffffffffffffffff16146103aa576040517f08c379a000000000000000000000000000000000000000000000000000000000815260040180806020018281038252602f815260200180610803602f913960400191505060405180910390fd5b6103b4828261073a565b5050565b7f000000000000000000000000000000000000000000000000000000000000000081565b7ffb5864e8ff833c3cb2d2d08505e82ff02a43554c74a35d4f5a64e85261278311610409816102a061066c565b61047457604080517f08c379a000000000000000000000000000000000000000000000000000000000815260206004820152601c60248201527f416363657373436f6e74726f6c3a206163636573732064656e69656400000000604482015290519081900360640190fd5b7f000000000000000000000000000000000000000000000000000000000000000073ffffffffffffffffffffffffffffffffffffffff1663bf1fe420836040518263ffffffff1660e01b815260040180828152602001915050600060405180830381600087803b1580156104e757600080fd5b505af11580156104fb573d6000803e3d6000fd5b505050507f000000000000000000000000000000000000000000000000000000000000000073ffffffffffffffffffffffffffffffffffffffff1663af14052c6040518163ffffffff1660e01b8152600401600060405180830381600087803b15801561056757600080fd5b505af115801561057b573d6000803e3d6000fd5b505050505050565b7f000000000000000000000000000000000000000000000000000000000000000081565b60009182526020828152604080842073ffffffffffffffffffffffffffffffffffffffff93909316845291905290205460ff1690565b600081565b6105eb82610276565b6105f7816102a061066c565b61066257604080517f08c379a000000000000000000000000000000000000000000000000000000000815260206004820152601c60248201527f416363657373436f6e74726f6c3a206163636573732064656e69656400000000604482015290519081900360640190fd5b61031a838361073a565b3390565b61067a82826105a7565b6103b45760008281526020818152604080832073ffffffffffffffffffffffffffffffffffffffff85168452909152902080547fffffffffffffffffffffffffffffffffffffffffffffffffffffffffffffff001660011790556106dc61066c565b73ffffffffffffffffffffffffffffffffffffffff168173ffffffffffffffffffffffffffffffffffffffff16837f2f8788117e7eff1d82e926ec794901d17c78024a50270940304540a733656f0d60405160405180910390a45050565b61074482826105a7565b156103b45760008281526020818152604080832073ffffffffffffffffffffffffffffffffffffffff85168452909152902080547fffffffffffffffffffffffffffffffffffffffffffffffffffffffffffffff001690556107a461066c565b73ffffffffffffffffffffffffffffffffffffffff168173ffffffffffffffffffffffffffffffffffffffff16837ff6391f5c32d9c69d2a47ea670b442974b53935d1edc7fd64eb21e047a839171b60405160405180910390a4505056fe416363657373436f6e74726f6c3a2063616e206f6e6c792072656e6f756e636520726f6c657320666f722073656c66a26469706673582212204d89aae9954c2e3f81780d4cbd635b54765d379f02f2e50f6e272ac80194e62364736f6c63430007060033",
  "devdoc": {
    "kind": "dev",
    "methods": {
      "getRoleAdmin(bytes32)": {
        "details": "Returns the admin role that controls `role`. See {grantRole} and {revokeRole}. To change a role's admin, use {_setRoleAdmin}."
      },
      "grantRole(bytes32,address)": {
        "details": "Grants `role` to `account`. If `account` had not been already granted `role`, emits a {RoleGranted} event. Requirements: - the caller must have ``role``'s admin role."
      },
      "hasRole(bytes32,address)": {
        "details": "Returns `true` if `account` has been granted `role`."
      },
      "renounceRole(bytes32,address)": {
        "details": "Revokes `role` from the calling account. Roles are often managed via {grantRole} and {revokeRole}: this function's purpose is to provide a mechanism for accounts to lose their privileges if they are compromised (such as when a trusted device is misplaced). If the calling account had been granted `role`, emits a {RoleRevoked} event. Requirements: - the caller must be `account`."
      },
      "revokeRole(bytes32,address)": {
        "details": "Revokes `role` from `account`. If `account` had been granted `role`, emits a {RoleRevoked} event. Requirements: - the caller must have ``role``'s admin role."
      }
    },
    "version": 1
  },
  "userdoc": {
    "kind": "user",
    "methods": {},
    "version": 1
  },
  "storageLayout": {
    "storage": [
      {
        "astId": 3360,
        "contract": "contracts/oracles/Policy.sol:Policy",
        "label": "_roles",
        "offset": 0,
        "slot": "0",
        "type": "t_mapping(t_bytes32,t_struct(RoleData)3356_storage)"
      }
    ],
    "types": {
      "t_address": {
        "encoding": "inplace",
        "label": "address",
        "numberOfBytes": "20"
      },
      "t_bool": {
        "encoding": "inplace",
        "label": "bool",
        "numberOfBytes": "1"
      },
      "t_bytes32": {
        "encoding": "inplace",
        "label": "bytes32",
        "numberOfBytes": "32"
      },
      "t_mapping(t_address,t_bool)": {
        "encoding": "mapping",
        "key": "t_address",
        "label": "mapping(address => bool)",
        "numberOfBytes": "32",
        "value": "t_bool"
      },
      "t_mapping(t_bytes32,t_struct(RoleData)3356_storage)": {
        "encoding": "mapping",
        "key": "t_bytes32",
        "label": "mapping(bytes32 => struct AccessControl.RoleData)",
        "numberOfBytes": "32",
        "value": "t_struct(RoleData)3356_storage"
      },
      "t_struct(RoleData)3356_storage": {
        "encoding": "inplace",
        "label": "struct AccessControl.RoleData",
        "members": [
          {
            "astId": 3353,
            "contract": "contracts/oracles/Policy.sol:Policy",
            "label": "members",
            "offset": 0,
            "slot": "0",
            "type": "t_mapping(t_address,t_bool)"
          },
          {
            "astId": 3355,
            "contract": "contracts/oracles/Policy.sol:Policy",
            "label": "adminRole",
            "offset": 0,
            "slot": "1",
            "type": "t_bytes32"
          }
        ],
        "numberOfBytes": "64"
      }
    }
  }
}