{
  "address": "0x1DB0bd7bd70018A47bBe2c357381AF06a84639c4",
  "abi": [
    {
      "inputs": [
        {
          "internalType": "address",
          "name": "_token",
          "type": "address"
        },
        {
          "internalType": "address",
          "name": "_valueToken",
          "type": "address"
        }
      ],
      "stateMutability": "nonpayable",
      "type": "constructor"
    },
    {
      "inputs": [],
      "name": "feeOn",
      "outputs": [
        {
          "internalType": "bool",
          "name": "",
          "type": "bool"
        }
      ],
      "stateMutability": "view",
      "type": "function"
    },
    {
      "inputs": [],
      "name": "token",
      "outputs": [
        {
          "internalType": "address",
          "name": "",
          "type": "address"
        }
      ],
      "stateMutability": "view",
      "type": "function"
    },
    {
      "inputs": [],
      "name": "valuePerToken",
      "outputs": [
        {
          "internalType": "uint256",
          "name": "numerator",
          "type": "uint256"
        },
        {
          "internalType": "uint256",
          "name": "denominator",
          "type": "uint256"
        }
      ],
      "stateMutability": "view",
      "type": "function"
    },
    {
      "inputs": [],
      "name": "valueToken",
      "outputs": [
        {
          "internalType": "address",
          "name": "",
          "type": "address"
        }
      ],
      "stateMutability": "view",
      "type": "function"
    }
  ],
  "transactionHash": "0xee24807fbc0e5b98ae87722a4135759e1a120fd0304b46d4a90da75437b14e6f",
  "args": [
    "0x6BD807AdCE1e9Ad7c4060891dFACAeA368787830",
    "0xc778417E063141139Fce010982780140Aa0cD5Ab"
  ],
  "solcInputHash": "dce8ce70f69a6af015380cad047f4734",
  "bytecode": "0x60c060405234801561001057600080fd5b5060405161082e38038061082e8339818101604052604081101561003357600080fd5b50805160209182015160408051630dfe168160e01b815290519293919284926000926001600160a01b03851692630dfe168192600480840193919291829003018186803b15801561008357600080fd5b505afa158015610097573d6000803e3d6000fd5b505050506040513d60208110156100ad57600080fd5b50516040805163d21220a760e01b815290519192506000916001600160a01b0385169163d21220a7916004808301926020929190829003018186803b1580156100f557600080fd5b505afa158015610109573d6000803e3d6000fd5b505050506040513d602081101561011f57600080fd5b505190506001600160a01b03848116908316148061014e5750806001600160a01b0316846001600160a01b0316145b61019f576040805162461bcd60e51b815260206004820152601f60248201527f56616c7565506572554e4956323a20706f6f6c206c61636b7320746f6b656e00604482015290519081900360640190fd5b5050506001600160601b0319606092831b8116608052911b1660a05260805160601c60a05160601c61063c6101f26000398061043f528061049152508060bf52806101cc52806104b5525061063c6000f3fe608060405234801561001057600080fd5b506004361061004c5760003560e01c80634f335d0a14610051578063a8fa8e521461006d578063effff82f1461008e578063fc0c546a146100b2575b600080fd5b6100596100ba565b604080519115158252519081900360200190f35b6100756101c5565b6040805192835260208301919091528051918290030190f35b61009661048f565b604080516001600160a01b039092168252519081900360200190f35b6100966104b3565b6000807f00000000000000000000000000000000000000000000000000000000000000006001600160a01b031663c45a01556040518163ffffffff1660e01b815260040160206040518083038186803b15801561011657600080fd5b505afa15801561012a573d6000803e3d6000fd5b505050506040513d602081101561014057600080fd5b505160408051622fcfcb60e31b815290519192506000916001600160a01b0384169163017e7e58916004808301926020929190829003018186803b15801561018757600080fd5b505afa15801561019b573d6000803e3d6000fd5b505050506040513d60208110156101b157600080fd5b50516001600160a01b031615159250505090565b60008060007f000000000000000000000000000000000000000000000000000000000000000090506000816001600160a01b03166318160ddd6040518163ffffffff1660e01b815260040160206040518083038186803b15801561022857600080fd5b505afa15801561023c573d6000803e3d6000fd5b505050506040513d602081101561025257600080fd5b505160408051630240bc6b60e21b8152905191925060009182916001600160a01b03861691630902f1ac91600480820192606092909190829003018186803b15801561029d57600080fd5b505afa1580156102b1573d6000803e3d6000fd5b505050506040513d60608110156102c757600080fd5b50805160209091015190925090506102dd6100ba565b156103d4576000846001600160a01b0316637464fc3d6040518163ffffffff1660e01b815260040160206040518083038186803b15801561031d57600080fd5b505afa158015610331573d6000803e3d6000fd5b505050506040513d602081101561034757600080fd5b5051905080156103d257600061037161036c6001600160701b038681169086166104d7565b610539565b9050600061037e83610539565b9050808211156103cf576000610396878385036104d7565b905060006103af836103a98660056104d7565b9061058b565b905060008183816103bc57fe5b0490506103c9898261058b565b98505050505b50505b505b6000846001600160a01b0316630dfe16816040518163ffffffff1660e01b815260040160206040518083038186803b15801561040f57600080fd5b505afa158015610423573d6000803e3d6000fd5b505050506040513d602081101561043957600080fd5b505190507f00000000000000000000000000000000000000000000000000000000000000006001600160a01b03908116908216146104775781610479565b825b6001600160701b03169793965092945050505050565b7f000000000000000000000000000000000000000000000000000000000000000081565b7f000000000000000000000000000000000000000000000000000000000000000081565b6000826104e657506000610533565b828202828482816104f357fe5b04146105305760405162461bcd60e51b81526004018080602001828103825260218152602001806105e66021913960400191505060405180910390fd5b90505b92915050565b6000600382111561057c575080600160028204015b818110156105765780915060028182858161056557fe5b04018161056e57fe5b04905061054e565b50610586565b8115610586575060015b919050565b600082820183811015610530576040805162461bcd60e51b815260206004820152601b60248201527f536166654d6174683a206164646974696f6e206f766572666c6f770000000000604482015290519081900360640190fdfe536166654d6174683a206d756c7469706c69636174696f6e206f766572666c6f77a2646970667358221220e82b9c02b9dc4d135612e71e334b53a8824bab1d8c8eb3338e33ea61503c3d2b64736f6c63430007060033",
  "devdoc": {
    "kind": "dev",
    "methods": {},
    "version": 1
  },
  "userdoc": {
    "kind": "user",
    "methods": {},
    "version": 1
  },
  "storageLayout": {
    "storage": [],
    "types": null
  }
}