{
  "address": "0x12B8372c60843d402fB49095a33D80dEF7417436",
  "abi": [
    {
      "inputs": [
        {
          "internalType": "address",
          "name": "owner_",
          "type": "address"
        }
      ],
      "stateMutability": "nonpayable",
      "type": "constructor"
    },
    {
      "anonymous": false,
      "inputs": [
        {
          "indexed": true,
          "internalType": "address",
          "name": "author",
          "type": "address"
        },
        {
          "components": [
            {
              "internalType": "uint32",
              "name": "cCapNum",
              "type": "uint32"
            },
            {
              "internalType": "uint32",
              "name": "cCapDen",
              "type": "uint32"
            },
            {
              "internalType": "uint32",
              "name": "zetaFloorNum",
              "type": "uint32"
            },
            {
              "internalType": "uint32",
              "name": "zetaFloorDen",
              "type": "uint32"
            },
            {
              "internalType": "uint32",
              "name": "zetaCeilNum",
              "type": "uint32"
            },
            {
              "internalType": "uint32",
              "name": "zetaCeilDen",
              "type": "uint32"
            }
          ],
          "indexed": false,
          "internalType": "struct IETHmxMinter.ETHmxMintParams",
          "name": "mp",
          "type": "tuple"
        }
      ],
      "name": "EthmxMintParamsSet",
      "type": "event"
    },
    {
      "anonymous": false,
      "inputs": [
        {
          "indexed": true,
          "internalType": "address",
          "name": "author",
          "type": "address"
        },
        {
          "indexed": true,
          "internalType": "address",
          "name": "addr",
          "type": "address"
        }
      ],
      "name": "EthmxSet",
      "type": "event"
    },
    {
      "anonymous": false,
      "inputs": [
        {
          "indexed": true,
          "internalType": "address",
          "name": "author",
          "type": "address"
        },
        {
          "indexed": true,
          "internalType": "address",
          "name": "addr",
          "type": "address"
        }
      ],
      "name": "EthtxAMMSet",
      "type": "event"
    },
    {
      "anonymous": false,
      "inputs": [
        {
          "indexed": true,
          "internalType": "address",
          "name": "author",
          "type": "address"
        },
        {
          "components": [
            {
              "internalType": "uint128",
              "name": "minMintPrice",
              "type": "uint128"
            },
            {
              "internalType": "uint64",
              "name": "mu",
              "type": "uint64"
            },
            {
              "internalType": "uint64",
              "name": "lambda",
              "type": "uint64"
            }
          ],
          "indexed": false,
          "internalType": "struct IETHmxMinter.ETHtxMintParams",
          "name": "mp",
          "type": "tuple"
        }
      ],
      "name": "EthtxMintParamsSet",
      "type": "event"
    },
    {
      "anonymous": false,
      "inputs": [
        {
          "indexed": true,
          "internalType": "address",
          "name": "author",
          "type": "address"
        },
        {
          "indexed": true,
          "internalType": "address",
          "name": "addr",
          "type": "address"
        }
      ],
      "name": "EthtxSet",
      "type": "event"
    },
    {
      "anonymous": false,
      "inputs": [
        {
          "indexed": true,
          "internalType": "address",
          "name": "author",
          "type": "address"
        },
        {
          "indexed": true,
          "internalType": "address",
          "name": "account",
          "type": "address"
        }
      ],
      "name": "LpAdded",
      "type": "event"
    },
    {
      "anonymous": false,
      "inputs": [
        {
          "indexed": true,
          "internalType": "address",
          "name": "author",
          "type": "address"
        },
        {
          "indexed": true,
          "internalType": "address",
          "name": "account",
          "type": "address"
        }
      ],
      "name": "LpRecipientSet",
      "type": "event"
    },
    {
      "anonymous": false,
      "inputs": [
        {
          "indexed": true,
          "internalType": "address",
          "name": "author",
          "type": "address"
        },
        {
          "indexed": true,
          "internalType": "address",
          "name": "account",
          "type": "address"
        }
      ],
      "name": "LpRemoved",
      "type": "event"
    },
    {
      "anonymous": false,
      "inputs": [
        {
          "indexed": true,
          "internalType": "address",
          "name": "author",
          "type": "address"
        },
        {
          "indexed": false,
          "internalType": "uint128",
          "name": "numerator",
          "type": "uint128"
        },
        {
          "indexed": false,
          "internalType": "uint128",
          "name": "denominator",
          "type": "uint128"
        }
      ],
      "name": "LpShareSet",
      "type": "event"
    },
    {
      "anonymous": false,
      "inputs": [
        {
          "indexed": true,
          "internalType": "address",
          "name": "previousOwner",
          "type": "address"
        },
        {
          "indexed": true,
          "internalType": "address",
          "name": "newOwner",
          "type": "address"
        }
      ],
      "name": "OwnershipTransferred",
      "type": "event"
    },
    {
      "anonymous": false,
      "inputs": [
        {
          "indexed": false,
          "internalType": "address",
          "name": "account",
          "type": "address"
        }
      ],
      "name": "Paused",
      "type": "event"
    },
    {
      "anonymous": false,
      "inputs": [
        {
          "indexed": true,
          "internalType": "address",
          "name": "author",
          "type": "address"
        },
        {
          "indexed": true,
          "internalType": "address",
          "name": "token",
          "type": "address"
        },
        {
          "indexed": true,
          "internalType": "address",
          "name": "to",
          "type": "address"
        },
        {
          "indexed": false,
          "internalType": "uint256",
          "name": "amount",
          "type": "uint256"
        }
      ],
      "name": "Recovered",
      "type": "event"
    },
    {
      "anonymous": false,
      "inputs": [
        {
          "indexed": false,
          "internalType": "address",
          "name": "account",
          "type": "address"
        }
      ],
      "name": "Unpaused",
      "type": "event"
    },
    {
      "anonymous": false,
      "inputs": [
        {
          "indexed": true,
          "internalType": "address",
          "name": "author",
          "type": "address"
        },
        {
          "indexed": true,
          "internalType": "address",
          "name": "addr",
          "type": "address"
        }
      ],
      "name": "WethSet",
      "type": "event"
    },
    {
      "inputs": [
        {
          "internalType": "address",
          "name": "pool",
          "type": "address"
        }
      ],
      "name": "addLp",
      "outputs": [],
      "stateMutability": "nonpayable",
      "type": "function"
    },
    {
      "inputs": [],
      "name": "ethmx",
      "outputs": [
        {
          "internalType": "address",
          "name": "",
          "type": "address"
        }
      ],
      "stateMutability": "view",
      "type": "function"
    },
    {
      "inputs": [
        {
          "internalType": "uint256",
          "name": "amountETHIn",
          "type": "uint256"
        }
      ],
      "name": "ethmxFromEth",
      "outputs": [
        {
          "internalType": "uint256",
          "name": "",
          "type": "uint256"
        }
      ],
      "stateMutability": "view",
      "type": "function"
    },
    {
      "inputs": [
        {
          "internalType": "uint256",
          "name": "amountETHtxIn",
          "type": "uint256"
        }
      ],
      "name": "ethmxFromEthtx",
      "outputs": [
        {
          "internalType": "uint256",
          "name": "",
          "type": "uint256"
        }
      ],
      "stateMutability": "view",
      "type": "function"
    },
    {
      "inputs": [],
      "name": "ethmxMintParams",
      "outputs": [
        {
          "components": [
            {
              "internalType": "uint32",
              "name": "cCapNum",
              "type": "uint32"
            },
            {
              "internalType": "uint32",
              "name": "cCapDen",
              "type": "uint32"
            },
            {
              "internalType": "uint32",
              "name": "zetaFloorNum",
              "type": "uint32"
            },
            {
              "internalType": "uint32",
              "name": "zetaFloorDen",
              "type": "uint32"
            },
            {
              "internalType": "uint32",
              "name": "zetaCeilNum",
              "type": "uint32"
            },
            {
              "internalType": "uint32",
              "name": "zetaCeilDen",
              "type": "uint32"
            }
          ],
          "internalType": "struct IETHmxMinter.ETHmxMintParams",
          "name": "",
          "type": "tuple"
        }
      ],
      "stateMutability": "view",
      "type": "function"
    },
    {
      "inputs": [],
      "name": "ethtx",
      "outputs": [
        {
          "internalType": "address",
          "name": "",
          "type": "address"
        }
      ],
      "stateMutability": "view",
      "type": "function"
    },
    {
      "inputs": [],
      "name": "ethtxAMM",
      "outputs": [
        {
          "internalType": "address",
          "name": "",
          "type": "address"
        }
      ],
      "stateMutability": "view",
      "type": "function"
    },
    {
      "inputs": [
        {
          "internalType": "uint256",
          "name": "amountETHIn",
          "type": "uint256"
        }
      ],
      "name": "ethtxFromEth",
      "outputs": [
        {
          "internalType": "uint256",
          "name": "",
          "type": "uint256"
        }
      ],
      "stateMutability": "view",
      "type": "function"
    },
    {
      "inputs": [],
      "name": "ethtxMintParams",
      "outputs": [
        {
          "components": [
            {
              "internalType": "uint128",
              "name": "minMintPrice",
              "type": "uint128"
            },
            {
              "internalType": "uint64",
              "name": "mu",
              "type": "uint64"
            },
            {
              "internalType": "uint64",
              "name": "lambda",
              "type": "uint64"
            }
          ],
          "internalType": "struct IETHmxMinter.ETHtxMintParams",
          "name": "",
          "type": "tuple"
        }
      ],
      "stateMutability": "view",
      "type": "function"
    },
    {
      "inputs": [],
      "name": "inGenesis",
      "outputs": [
        {
          "internalType": "bool",
          "name": "",
          "type": "bool"
        }
      ],
      "stateMutability": "view",
      "type": "function"
    },
    {
      "inputs": [
        {
          "internalType": "address",
          "name": "owner_",
          "type": "address"
        }
      ],
      "name": "init",
      "outputs": [],
      "stateMutability": "nonpayable",
      "type": "function"
    },
    {
      "inputs": [
        {
          "internalType": "uint256",
          "name": "index",
          "type": "uint256"
        }
      ],
      "name": "liquidityPoolsAt",
      "outputs": [
        {
          "internalType": "address",
          "name": "",
          "type": "address"
        }
      ],
      "stateMutability": "view",
      "type": "function"
    },
    {
      "inputs": [],
      "name": "lpRecipient",
      "outputs": [
        {
          "internalType": "address",
          "name": "",
          "type": "address"
        }
      ],
      "stateMutability": "view",
      "type": "function"
    },
    {
      "inputs": [],
      "name": "lpShare",
      "outputs": [
        {
          "internalType": "uint128",
          "name": "numerator",
          "type": "uint128"
        },
        {
          "internalType": "uint128",
          "name": "denominator",
          "type": "uint128"
        }
      ],
      "stateMutability": "view",
      "type": "function"
    },
    {
      "inputs": [],
      "name": "mint",
      "outputs": [],
      "stateMutability": "payable",
      "type": "function"
    },
    {
      "inputs": [
        {
          "internalType": "uint256",
          "name": "amount",
          "type": "uint256"
        }
      ],
      "name": "mintWithETHtx",
      "outputs": [],
      "stateMutability": "nonpayable",
      "type": "function"
    },
    {
      "inputs": [
        {
          "internalType": "uint256",
          "name": "amount",
          "type": "uint256"
        }
      ],
      "name": "mintWithWETH",
      "outputs": [],
      "stateMutability": "nonpayable",
      "type": "function"
    },
    {
      "inputs": [],
      "name": "numLiquidityPools",
      "outputs": [
        {
          "internalType": "uint256",
          "name": "",
          "type": "uint256"
        }
      ],
      "stateMutability": "view",
      "type": "function"
    },
    {
      "inputs": [],
      "name": "owner",
      "outputs": [
        {
          "internalType": "address",
          "name": "",
          "type": "address"
        }
      ],
      "stateMutability": "view",
      "type": "function"
    },
    {
      "inputs": [],
      "name": "pause",
      "outputs": [],
      "stateMutability": "nonpayable",
      "type": "function"
    },
    {
      "inputs": [],
      "name": "paused",
      "outputs": [
        {
          "internalType": "bool",
          "name": "",
          "type": "bool"
        }
      ],
      "stateMutability": "view",
      "type": "function"
    },
    {
      "inputs": [
        {
          "components": [
            {
              "internalType": "address",
              "name": "ethmx",
              "type": "address"
            },
            {
              "internalType": "address",
              "name": "ethtx",
              "type": "address"
            },
            {
              "internalType": "address",
              "name": "ethtxAMM",
              "type": "address"
            },
            {
              "internalType": "address",
              "name": "weth",
              "type": "address"
            },
            {
              "components": [
                {
                  "internalType": "uint32",
                  "name": "cCapNum",
                  "type": "uint32"
                },
                {
                  "internalType": "uint32",
                  "name": "cCapDen",
                  "type": "uint32"
                },
                {
                  "internalType": "uint32",
                  "name": "zetaFloorNum",
                  "type": "uint32"
                },
                {
                  "internalType": "uint32",
                  "name": "zetaFloorDen",
                  "type": "uint32"
                },
                {
                  "internalType": "uint32",
                  "name": "zetaCeilNum",
                  "type": "uint32"
                },
                {
                  "internalType": "uint32",
                  "name": "zetaCeilDen",
                  "type": "uint32"
                }
              ],
              "internalType": "struct IETHmxMinter.ETHmxMintParams",
              "name": "ethmxMintParams",
              "type": "tuple"
            },
            {
              "components": [
                {
                  "internalType": "uint128",
                  "name": "minMintPrice",
                  "type": "uint128"
                },
                {
                  "internalType": "uint64",
                  "name": "mu",
                  "type": "uint64"
                },
                {
                  "internalType": "uint64",
                  "name": "lambda",
                  "type": "uint64"
                }
              ],
              "internalType": "struct IETHmxMinter.ETHtxMintParams",
              "name": "ethtxMintParams",
              "type": "tuple"
            },
            {
              "internalType": "uint128",
              "name": "lpShareNumerator",
              "type": "uint128"
            },
            {
              "internalType": "uint128",
              "name": "lpShareDenominator",
              "type": "uint128"
            },
            {
              "internalType": "address[]",
              "name": "lps",
              "type": "address[]"
            },
            {
              "internalType": "address",
              "name": "lpRecipient",
              "type": "address"
            }
          ],
          "internalType": "struct ETHmxMinter.ETHmxMinterArgs",
          "name": "_args",
          "type": "tuple"
        }
      ],
      "name": "postInit",
      "outputs": [],
      "stateMutability": "nonpayable",
      "type": "function"
    },
    {
      "inputs": [
        {
          "internalType": "address",
          "name": "token",
          "type": "address"
        },
        {
          "internalType": "address",
          "name": "to",
          "type": "address"
        },
        {
          "internalType": "uint256",
          "name": "amount",
          "type": "uint256"
        }
      ],
      "name": "recoverERC20",
      "outputs": [],
      "stateMutability": "nonpayable",
      "type": "function"
    },
    {
      "inputs": [
        {
          "internalType": "address",
          "name": "pool",
          "type": "address"
        }
      ],
      "name": "removeLp",
      "outputs": [],
      "stateMutability": "nonpayable",
      "type": "function"
    },
    {
      "inputs": [],
      "name": "renounceOwnership",
      "outputs": [],
      "stateMutability": "nonpayable",
      "type": "function"
    },
    {
      "inputs": [
        {
          "internalType": "address",
          "name": "addr",
          "type": "address"
        }
      ],
      "name": "setEthmx",
      "outputs": [],
      "stateMutability": "nonpayable",
      "type": "function"
    },
    {
      "inputs": [
        {
          "components": [
            {
              "internalType": "uint32",
              "name": "cCapNum",
              "type": "uint32"
            },
            {
              "internalType": "uint32",
              "name": "cCapDen",
              "type": "uint32"
            },
            {
              "internalType": "uint32",
              "name": "zetaFloorNum",
              "type": "uint32"
            },
            {
              "internalType": "uint32",
              "name": "zetaFloorDen",
              "type": "uint32"
            },
            {
              "internalType": "uint32",
              "name": "zetaCeilNum",
              "type": "uint32"
            },
            {
              "internalType": "uint32",
              "name": "zetaCeilDen",
              "type": "uint32"
            }
          ],
          "internalType": "struct IETHmxMinter.ETHmxMintParams",
          "name": "mp",
          "type": "tuple"
        }
      ],
      "name": "setEthmxMintParams",
      "outputs": [],
      "stateMutability": "nonpayable",
      "type": "function"
    },
    {
      "inputs": [
        {
          "internalType": "address",
          "name": "addr",
          "type": "address"
        }
      ],
      "name": "setEthtx",
      "outputs": [],
      "stateMutability": "nonpayable",
      "type": "function"
    },
    {
      "inputs": [
        {
          "internalType": "address",
          "name": "addr",
          "type": "address"
        }
      ],
      "name": "setEthtxAMM",
      "outputs": [],
      "stateMutability": "nonpayable",
      "type": "function"
    },
    {
      "inputs": [
        {
          "components": [
            {
              "internalType": "uint128",
              "name": "minMintPrice",
              "type": "uint128"
            },
            {
              "internalType": "uint64",
              "name": "mu",
              "type": "uint64"
            },
            {
              "internalType": "uint64",
              "name": "lambda",
              "type": "uint64"
            }
          ],
          "internalType": "struct IETHmxMinter.ETHtxMintParams",
          "name": "mp",
          "type": "tuple"
        }
      ],
      "name": "setEthtxMintParams",
      "outputs": [],
      "stateMutability": "nonpayable",
      "type": "function"
    },
    {
      "inputs": [
        {
          "internalType": "address",
          "name": "account",
          "type": "address"
        }
      ],
      "name": "setLpRecipient",
      "outputs": [],
      "stateMutability": "nonpayable",
      "type": "function"
    },
    {
      "inputs": [
        {
          "internalType": "uint128",
          "name": "numerator",
          "type": "uint128"
        },
        {
          "internalType": "uint128",
          "name": "denominator",
          "type": "uint128"
        }
      ],
      "name": "setLpShare",
      "outputs": [],
      "stateMutability": "nonpayable",
      "type": "function"
    },
    {
      "inputs": [
        {
          "internalType": "address",
          "name": "addr",
          "type": "address"
        }
      ],
      "name": "setWeth",
      "outputs": [],
      "stateMutability": "nonpayable",
      "type": "function"
    },
    {
      "inputs": [],
      "name": "totalGiven",
      "outputs": [
        {
          "internalType": "uint256",
          "name": "",
          "type": "uint256"
        }
      ],
      "stateMutability": "view",
      "type": "function"
    },
    {
      "inputs": [
        {
          "internalType": "address",
          "name": "newOwner",
          "type": "address"
        }
      ],
      "name": "transferOwnership",
      "outputs": [],
      "stateMutability": "nonpayable",
      "type": "function"
    },
    {
      "inputs": [],
      "name": "unpause",
      "outputs": [],
      "stateMutability": "nonpayable",
      "type": "function"
    },
    {
      "inputs": [],
      "name": "weth",
      "outputs": [
        {
          "internalType": "address",
          "name": "",
          "type": "address"
        }
      ],
      "stateMutability": "view",
      "type": "function"
    }
  ],
  "transactionHash": "0x8b35c88a880f9dcbf8560642cd17d8282777458d576696151e5d50b202676f4e",
  "args": [
    "0x8e1b28FAa8C3A79BE31b5B6982221F18f4A0FA29"
  ],
  "solcInputHash": "b64ed1bd0442f95fc842a0027542327b",
  "bytecode": "0x60806040523480156200001157600080fd5b5060405162005c2838038062005c28833981016040819052620000349162000384565b6200003f8162000046565b50620003b4565b600054610100900460ff16806200006257506200006262000110565b8062000071575060005460ff16155b620000ae5760405162461bcd60e51b815260040180806020018281038252602e81526020018062005bfa602e913960400191505060405180910390fd5b600054610100900460ff16158015620000da576000805460ff1961ff0019909116610100171660011790555b620000e46200012e565b620000ef82620001d8565b620000f9620002cb565b80156200010c576000805461ff00191690555b5050565b600062000128306200037e60201b620033811760201c565b15905090565b600054610100900460ff16806200014a57506200014a62000110565b8062000159575060005460ff16155b620001965760405162461bcd60e51b815260040180806020018281038252602e81526020018062005bfa602e913960400191505060405180910390fd5b600054610100900460ff16158015620001c2576000805460ff1961ff0019909116610100171660011790555b8015620001d5576000805461ff00191690555b50565b600054610100900460ff1680620001f45750620001f462000110565b8062000203575060005460ff16155b620002405760405162461bcd60e51b815260040180806020018281038252602e81526020018062005bfa602e913960400191505060405180910390fd5b600054610100900460ff161580156200026c576000805460ff1961ff0019909116610100171660011790555b603380546001600160a01b0319166001600160a01b0384169081179091556040516000907f8be0079c531659141344cd1fd0a4f28419497f9722a3daafe3b4186f6b6457e0908290a380156200010c576000805461ff00191690555050565b600054610100900460ff1680620002e75750620002e762000110565b80620002f6575060005460ff16155b620003335760405162461bcd60e51b815260040180806020018281038252602e81526020018062005bfa602e913960400191505060405180910390fd5b600054610100900460ff161580156200035f576000805460ff1961ff0019909116610100171660011790555b6065805460ff191690558015620001d5576000805461ff001916905550565b3b151590565b60006020828403121562000396578081fd5b81516001600160a01b0381168114620003ad578182fd5b9392505050565b61583680620003c46000396000f3fe60806040526004361061026a5760003560e01c8063715018a611610153578063b9e05c6a116100cb578063f14744b11161007f578063f40fbb3c11610064578063f40fbb3c14610657578063fa750d581461066c578063fa8c076f146106815761026a565b8063f14744b114610622578063f2fde38b146106375761026a565b8063ea03798e116100b0578063ea03798e146105bf578063ebc38ab0146105df578063ed16de8a146106025761026a565b8063b9e05c6a1461057f578063c30270101461059f5761026a565b8063902dd186116101225780639e5094dd116101075780639e5094dd1461051d578063ad6d9bb51461053d578063b8d1452f1461055f5761026a565b8063902dd186146104e85780639c84fe5a146104fd5761026a565b8063715018a6146104895780637a9f241b1461049e5780638456cb59146104be5780638da5cb5b146104d35761026a565b80633f4ba83a116101e65780634b00b4d2116101b557806363fb53e81161019a57806363fb53e8146104295780636aec2fae146104495780636fa968d7146104695761026a565b80634b00b4d2146103e75780635c975abb146104075761026a565b80633f4ba83a146103865780633fc8cef31461039b57806343b86a01146103bd578063452e68dd146103d25761026a565b806315aad0bc1161023d57806319ab453c1161022257806319ab453c1461032457806320a639f3146103445780633dc82dce146103645761026a565b806315aad0bc146102d957806316268f58146103045761026a565b806306f200031461026f5780630dd00794146102915780631171bda9146102b15780631249c58b146102d1575b600080fd5b34801561027b57600080fd5b5061028f61028a366004615075565b6106a1565b005b34801561029d57600080fd5b5061028f6102ac3660046150ca565b6107fd565b3480156102bd57600080fd5b5061028f6102cc36600461508f565b610a6d565b61028f610c13565b3480156102e557600080fd5b506102ee610e3e565b6040516102fb91906156ce565b60405180910390f35b34801561031057600080fd5b5061028f61031f366004615210565b610e44565b34801561033057600080fd5b5061028f61033f366004615075565b610ffe565b34801561035057600080fd5b5061028f61035f366004615075565b61112c565b34801561037057600080fd5b50610379611264565b6040516102fb9190615668565b34801561039257600080fd5b5061028f6112db565b3480156103a757600080fd5b506103b061138d565b6040516102fb91906152f6565b3480156103c957600080fd5b506102ee6113a9565b3480156103de57600080fd5b506103b06113ba565b3480156103f357600080fd5b5061028f6104023660046151f5565b6113d6565b34801561041357600080fd5b5061041c61159b565b6040516102fb9190615393565b34801561043557600080fd5b5061028f610444366004615276565b6115a4565b34801561045557600080fd5b506102ee610464366004615276565b611753565b34801561047557600080fd5b5061028f610484366004615276565b6117ed565b34801561049557600080fd5b5061028f611a78565b3480156104aa57600080fd5b5061028f6104b9366004615075565b611b8f565b3480156104ca57600080fd5b5061028f611ce2565b3480156104df57600080fd5b506103b0611d92565b3480156104f457600080fd5b506103b0611dae565b34801561050957600080fd5b5061028f6105183660046150e5565b611dca565b34801561052957600080fd5b506102ee610538366004615276565b6125ec565b34801561054957600080fd5b5061055261276f565b6040516102fb9190615612565b34801561056b57600080fd5b5061028f61057a366004615075565b612808565b34801561058b57600080fd5b5061028f61059a366004615075565b612940565b3480156105ab57600080fd5b5061028f6105ba366004615075565b612a78565b3480156105cb57600080fd5b506102ee6105da366004615276565b612bb0565b3480156105eb57600080fd5b506105f4613010565b6040516102fb9291906156ab565b34801561060e57600080fd5b506103b061061d366004615276565b613041565b34801561062e57600080fd5b506103b061304e565b34801561064357600080fd5b5061028f610652366004615075565b61306a565b34801561066357600080fd5b5061041c61320c565b34801561067857600080fd5b506103b061322d565b34801561068d57600080fd5b5061028f61069c366004615075565b613249565b6106a9613387565b73ffffffffffffffffffffffffffffffffffffffff166106c7611d92565b73ffffffffffffffffffffffffffffffffffffffff161461074957604080517f08c379a000000000000000000000000000000000000000000000000000000000815260206004820181905260248201527f4f776e61626c653a2063616c6c6572206973206e6f7420746865206f776e6572604482015290519081900360640190fd5b6000610756609f8361338b565b905080610798576040517f08c379a000000000000000000000000000000000000000000000000000000000815260040161078f906155b5565b60405180910390fd5b8173ffffffffffffffffffffffffffffffffffffffff166107b7613387565b73ffffffffffffffffffffffffffffffffffffffff167f10d3462c762984834f677549645de34dbf6a2e4473787fb985137faf5c2937b960405160405180910390a35050565b610805613387565b73ffffffffffffffffffffffffffffffffffffffff16610823611d92565b73ffffffffffffffffffffffffffffffffffffffff16146108a557604080517f08c379a000000000000000000000000000000000000000000000000000000000815260206004820181905260248201527f4f776e61626c653a2063616c6c6572206973206e6f7420746865206f776e6572604482015290519081900360640190fd5b8051609c8054602084015160408501516060860151608087015160a08801517fffffffffffffffffffffffffffffffffffffffffffffffffffffffff0000000090951663ffffffff978816177fffffffffffffffffffffffffffffffffffffffffffffffff00000000ffffffff1664010000000094881694909402939093177fffffffffffffffffffffffffffffffffffffffff00000000ffffffffffffffff166801000000000000000092871692909202919091177fffffffffffffffffffffffffffffffff00000000ffffffffffffffffffffffff166c0100000000000000000000000091861691909102177fffffffffffffffffffffffff00000000ffffffffffffffffffffffffffffffff1670010000000000000000000000000000000091851691909102177fffffffffffffffff00000000ffffffffffffffffffffffffffffffffffffffff16740100000000000000000000000000000000000000009390911692909202919091179055610a1d613387565b73ffffffffffffffffffffffffffffffffffffffff167fdfc1e649d827769bf3eb8c77f6f4fba933adb866770c172942a311f06a25c94382604051610a629190615612565b60405180910390a250565b610a75613387565b73ffffffffffffffffffffffffffffffffffffffff16610a93611d92565b73ffffffffffffffffffffffffffffffffffffffff1614610b1557604080517f08c379a000000000000000000000000000000000000000000000000000000000815260206004820181905260248201527f4f776e61626c653a2063616c6c6572206973206e6f7420746865206f776e6572604482015290519081900360640190fd5b609a5473ffffffffffffffffffffffffffffffffffffffff84811691161415610b6a576040517f08c379a000000000000000000000000000000000000000000000000000000000815260040161078f90615523565b610b8b73ffffffffffffffffffffffffffffffffffffffff841683836133b6565b8173ffffffffffffffffffffffffffffffffffffffff168373ffffffffffffffffffffffffffffffffffffffff16610bc1613387565b73ffffffffffffffffffffffffffffffffffffffff167ffa6e44909e1c69606f847ee93c3339a424b53b345ed377c38ab410d32e7f70a784604051610c0691906156ce565b60405180910390a4505050565b610c1b61159b565b15610c8757604080517f08c379a000000000000000000000000000000000000000000000000000000000815260206004820152601060248201527f5061757361626c653a2070617573656400000000000000000000000000000000604482015290519081900360640190fd5b6360993c60421015610cc5576040517f08c379a000000000000000000000000000000000000000000000000000000000815260040161078f90615458565b3480610cfd576040517f08c379a000000000000000000000000000000000000000000000000000000000815260040161078f9061548f565b6000610d0761138d565b90508073ffffffffffffffffffffffffffffffffffffffff1663d0e30db0836040518263ffffffff1660e01b81526004016000604051808303818588803b158015610d5157600080fd5b505af1158015610d65573d6000803e3d6000fd5b505060a1546000935085925074010000000000000000000000000000000000000000900460ff16159050610dd957609b54600090610da39086613448565b90506360a276e042101580610dc1575068a2a15d09519be000008110155b15610dd25780915060019250610dd7565b600091505b505b610de2816134bc565b6000610ded856125ec565b9050610e00610dfa613387565b826135eb565b609b8054860190558215610e375760a180547fffffffffffffffffffffff00ffffffffffffffffffffffffffffffffffffffff1690555b5050505050565b609b5490565b610e4c613387565b73ffffffffffffffffffffffffffffffffffffffff16610e6a611d92565b73ffffffffffffffffffffffffffffffffffffffff1614610eec57604080517f08c379a000000000000000000000000000000000000000000000000000000000815260206004820181905260248201527f4f776e61626c653a2063616c6c6572206973206e6f7420746865206f776e6572604482015290519081900360640190fd5b816fffffffffffffffffffffffffffffffff16816fffffffffffffffffffffffffffffffff1611610f49576040517f08c379a000000000000000000000000000000000000000000000000000000000815260040161078f906153fb565b609e80546fffffffffffffffffffffffffffffffff838116700100000000000000000000000000000000028186167fffffffffffffffffffffffffffffffff000000000000000000000000000000009093169290921716179055610fab613387565b73ffffffffffffffffffffffffffffffffffffffff167fd6391f223f7285c7743c00ee068693030a4a8d7542474aab8256e054a8fc2a248383604051610ff29291906156ab565b60405180910390a25050565b600054610100900460ff1680611017575061101761365b565b80611025575060005460ff16155b61107a576040517f08c379a000000000000000000000000000000000000000000000000000000000815260040180806020018281038252602e815260200180615788602e913960400191505060405180910390fd5b600054610100900460ff161580156110e057600080547fffffffffffffffffffffffffffffffffffffffffffffffffffffffffffffff007fffffffffffffffffffffffffffffffffffffffffffffffffffffffffffff00ff909116610100171660011790555b6110e861366c565b6110f18261377f565b6110f9613901565b801561112857600080547fffffffffffffffffffffffffffffffffffffffffffffffffffffffffffff00ff1690555b5050565b611134613387565b73ffffffffffffffffffffffffffffffffffffffff16611152611d92565b73ffffffffffffffffffffffffffffffffffffffff16146111d457604080517f08c379a000000000000000000000000000000000000000000000000000000000815260206004820181905260248201527f4f776e61626c653a2063616c6c6572206973206e6f7420746865206f776e6572604482015290519081900360640190fd5b609980547fffffffffffffffffffffffff00000000000000000000000000000000000000001673ffffffffffffffffffffffffffffffffffffffff831690811790915561121f613387565b73ffffffffffffffffffffffffffffffffffffffff167f8539add575762117a99618f95a6bba75a43ab0a1709316da144c41dad05187e360405160405180910390a350565b61126c614e3d565b5060408051606081018252609d546fffffffffffffffffffffffffffffffff8116825267ffffffffffffffff7001000000000000000000000000000000008204811660208401527801000000000000000000000000000000000000000000000000909104169181019190915290565b6112e3613387565b73ffffffffffffffffffffffffffffffffffffffff16611301611d92565b73ffffffffffffffffffffffffffffffffffffffff161461138357604080517f08c379a000000000000000000000000000000000000000000000000000000000815260206004820181905260248201527f4f776e61626c653a2063616c6c6572206973206e6f7420746865206f776e6572604482015290519081900360640190fd5b61138b613a3c565b565b609a5473ffffffffffffffffffffffffffffffffffffffff1690565b60006113b5609f613b2a565b905090565b60a15473ffffffffffffffffffffffffffffffffffffffff1690565b6113de613387565b73ffffffffffffffffffffffffffffffffffffffff166113fc611d92565b73ffffffffffffffffffffffffffffffffffffffff161461147e57604080517f08c379a000000000000000000000000000000000000000000000000000000000815260206004820181905260248201527f4f776e61626c653a2063616c6c6572206973206e6f7420746865206f776e6572604482015290519081900360640190fd5b8051609d8054602084015160408501517fffffffffffffffffffffffffffffffff000000000000000000000000000000009092166fffffffffffffffffffffffffffffffff909416939093177fffffffffffffffff0000000000000000ffffffffffffffffffffffffffffffff1670010000000000000000000000000000000067ffffffffffffffff948516021777ffffffffffffffffffffffffffffffffffffffffffffffff1678010000000000000000000000000000000000000000000000009390911692909202919091179055611556613387565b73ffffffffffffffffffffffffffffffffffffffff167f43162542ad3f050bdfc1b6b0292467ab7c5dd1d5a486694f5e229aef2b4bbd3482604051610a629190615668565b60655460ff1690565b6115ac61159b565b1561161857604080517f08c379a000000000000000000000000000000000000000000000000000000000815260206004820152601060248201527f5061757361626c653a2070617573656400000000000000000000000000000000604482015290519081900360640190fd5b6360993c60421015611656576040517f08c379a000000000000000000000000000000000000000000000000000000000815260040161078f90615458565b8061168d576040517f08c379a000000000000000000000000000000000000000000000000000000000815260040161078f9061548f565b6000611697613387565b90506116c58130846116a761138d565b73ffffffffffffffffffffffffffffffffffffffff16929190613b35565b60a154600090839074010000000000000000000000000000000000000000900460ff161561173357609b546000906116fd9086613448565b90506360a276e04210158061171b575068a2a15d09519be000008110155b1561172c5780915060019250611731565b600091505b505b61173c816134bc565b6000611747856125ec565b9050610e0084826135eb565b600061175d61304e565b73ffffffffffffffffffffffffffffffffffffffff16635572f264836040518263ffffffff1660e01b815260040161179591906156ce565b60206040518083038186803b1580156117ad57600080fd5b505afa1580156117c1573d6000803e3d6000fd5b505050506040513d601f19601f820116820180604052508101906117e5919061528e565b90505b919050565b6117f561159b565b1561186157604080517f08c379a000000000000000000000000000000000000000000000000000000000815260206004820152601060248201527f5061757361626c653a2070617573656400000000000000000000000000000000604482015290519081900360640190fd5b80611898576040517f08c379a000000000000000000000000000000000000000000000000000000000815260040161078f9061548f565b60006118a261304e565b905060008173ffffffffffffffffffffffffffffffffffffffff16635572f264846040518263ffffffff1660e01b81526004016118df91906156ce565b60206040518083038186803b1580156118f757600080fd5b505afa15801561190b573d6000803e3d6000fd5b505050506040513d601f19601f8201168201806040525081019061192f919061528e565b9050808273ffffffffffffffffffffffffffffffffffffffff1663977507c46040518163ffffffff1660e01b815260040160206040518083038186803b15801561197857600080fd5b505afa15801561198c573d6000803e3d6000fd5b505050506040513d601f19601f820116820180604052508101906119b0919061528e565b10156119e8576040517f08c379a000000000000000000000000000000000000000000000000000000000815260040161078f9061539e565b60006119f2613387565b90506119fc611dae565b73ffffffffffffffffffffffffffffffffffffffff16639dc29fac82866040518363ffffffff1660e01b8152600401611a3692919061536d565b600060405180830381600087803b158015611a5057600080fd5b505af1158015611a64573d6000803e3d6000fd5b50505050611a7281836135eb565b50505050565b611a80613387565b73ffffffffffffffffffffffffffffffffffffffff16611a9e611d92565b73ffffffffffffffffffffffffffffffffffffffff1614611b2057604080517f08c379a000000000000000000000000000000000000000000000000000000000815260206004820181905260248201527f4f776e61626c653a2063616c6c6572206973206e6f7420746865206f776e6572604482015290519081900360640190fd5b60335460405160009173ffffffffffffffffffffffffffffffffffffffff16907f8be0079c531659141344cd1fd0a4f28419497f9722a3daafe3b4186f6b6457e0908390a3603380547fffffffffffffffffffffffff0000000000000000000000000000000000000000169055565b611b97613387565b73ffffffffffffffffffffffffffffffffffffffff16611bb5611d92565b73ffffffffffffffffffffffffffffffffffffffff1614611c3757604080517f08c379a000000000000000000000000000000000000000000000000000000000815260206004820181905260248201527f4f776e61626c653a2063616c6c6572206973206e6f7420746865206f776e6572604482015290519081900360640190fd5b6000611c44609f83613bca565b905080611c7d576040517f08c379a000000000000000000000000000000000000000000000000000000000815260040161078f90615558565b8173ffffffffffffffffffffffffffffffffffffffff16611c9c613387565b73ffffffffffffffffffffffffffffffffffffffff167f7476fa20123a46ab0692895c298878d1265d37a204f912e0f12acd6bd73a5c8e60405160405180910390a35050565b611cea613387565b73ffffffffffffffffffffffffffffffffffffffff16611d08611d92565b73ffffffffffffffffffffffffffffffffffffffff1614611d8a57604080517f08c379a000000000000000000000000000000000000000000000000000000000815260206004820181905260248201527f4f776e61626c653a2063616c6c6572206973206e6f7420746865206f776e6572604482015290519081900360640190fd5b61138b613bec565b60335473ffffffffffffffffffffffffffffffffffffffff1690565b60985473ffffffffffffffffffffffffffffffffffffffff1690565b611dd2613387565b73ffffffffffffffffffffffffffffffffffffffff16611df0611d92565b73ffffffffffffffffffffffffffffffffffffffff1614611e7257604080517f08c379a000000000000000000000000000000000000000000000000000000000815260206004820181905260248201527f4f776e61626c653a2063616c6c6572206973206e6f7420746865206f776e6572604482015290519081900360640190fd5b6000611e7c613387565b8251609780547fffffffffffffffffffffffff00000000000000000000000000000000000000001673ffffffffffffffffffffffffffffffffffffffff92831690811790915560405192935091908316907f850cd0e1dc6449ad3cec82204139b7f56dfccbb15cfc97018391e1ceeb1fed2890600090a36020820151609880547fffffffffffffffffffffffff00000000000000000000000000000000000000001673ffffffffffffffffffffffffffffffffffffffff92831690811790915560405190918316907fdbf8baa510d0cc960f9bd90d5ef0c247e25196790bd4e15b4bbe0e095d0de3a890600090a3604082810151609980547fffffffffffffffffffffffff00000000000000000000000000000000000000001673ffffffffffffffffffffffffffffffffffffffff9283169081179091559151908316907f8539add575762117a99618f95a6bba75a43ab0a1709316da144c41dad05187e390600090a36060820151609a80547fffffffffffffffffffffffff00000000000000000000000000000000000000001673ffffffffffffffffffffffffffffffffffffffff92831690811790915560405190918316907fad62520892a45ad185d5f7ee902397e0ec2b3e32966a740cfab8e4db8cc60f0990600090a36080828101518051609c8054602084015160408086015160608701519787015160a08801517fffffffffffffffffffffffffffffffffffffffffffffffffffffffff0000000090951663ffffffff978816177fffffffffffffffffffffffffffffffffffffffffffffffff00000000ffffffff1664010000000094881694909402939093177fffffffffffffffffffffffffffffffffffffffff00000000ffffffffffffffff166801000000000000000091871691909102177fffffffffffffffffffffffffffffffff00000000ffffffffffffffffffffffff166c0100000000000000000000000097861697909702969096177fffffffffffffffffffffffff00000000ffffffffffffffffffffffffffffffff1670010000000000000000000000000000000091851691909102177fffffffffffffffff00000000ffffffffffffffffffffffffffffffffffffffff16740100000000000000000000000000000000000000009390911692909202919091179055905173ffffffffffffffffffffffffffffffffffffffff8316917fdfc1e649d827769bf3eb8c77f6f4fba933adb866770c172942a311f06a25c943916122139190615612565b60405180910390a260a180547fffffffffffffffffffffff00ffffffffffffffffffffffffffffffffffffffff166360a276e0421115740100000000000000000000000000000000000000000217905560a08201518051609d805460208401516040808601517fffffffffffffffffffffffffffffffff000000000000000000000000000000009093166fffffffffffffffffffffffffffffffff909516949094177fffffffffffffffff0000000000000000ffffffffffffffffffffffffffffffff1670010000000000000000000000000000000067ffffffffffffffff928316021777ffffffffffffffffffffffffffffffffffffffffffffffff16780100000000000000000000000000000000000000000000000091909216021790555173ffffffffffffffffffffffffffffffffffffffff8316917f43162542ad3f050bdfc1b6b0292467ab7c5dd1d5a486694f5e229aef2b4bbd34916123789190615668565b60405180910390a260c0820151609e805460e08501516fffffffffffffffffffffffffffffffff818116700100000000000000000000000000000000028186167fffffffffffffffffffffffffffffffff0000000000000000000000000000000090941693909317169190911790915560405173ffffffffffffffffffffffffffffffffffffffff8416927fd6391f223f7285c7743c00ee068693030a4a8d7542474aab8256e054a8fc2a249261242e926156ab565b60405180910390a260005b612443609f613b2a565b8110156124c8576000612457609f83613cb4565b9050612464609f82613bca565b508073ffffffffffffffffffffffffffffffffffffffff168373ffffffffffffffffffffffffffffffffffffffff167f7476fa20123a46ab0692895c298878d1265d37a204f912e0f12acd6bd73a5c8e60405160405180910390a350600101612439565b5060005b8261010001515181101561256f57600083610100015182815181106124ed57fe5b6020026020010151905061250b81609f61338b90919063ffffffff16565b508073ffffffffffffffffffffffffffffffffffffffff168373ffffffffffffffffffffffffffffffffffffffff167f10d3462c762984834f677549645de34dbf6a2e4473787fb985137faf5c2937b960405160405180910390a3506001016124cc565b5061012082015160a180547fffffffffffffffffffffffff00000000000000000000000000000000000000001673ffffffffffffffffffffffffffffffffffffffff92831690811790915560405190918316907f741f5aed950b48656cdef9192aa78f2eef7397985bce1bd294a52bbd9d8d5c5a90600090a35050565b6000816125fb575060006117e8565b6040805160c081018252609c5463ffffffff80821683526401000000008204811660208401526801000000000000000082048116938301939093526c0100000000000000000000000081048316606083015270010000000000000000000000000000000081048316608083015274010000000000000000000000000000000000000000900490911660a082015260006126948483613cc0565b60a15490915074010000000000000000000000000000000000000000900460ff161561276857609b5460006126c98287613448565b905068a2a15d09519be000008111156127525768a2a15d09519be000008290036126fd876126f78387614084565b906140f7565b840393506000612739866060015163ffffffff166126f7886040015163ffffffff1661273360028761408490919063ffffffff16565b90614084565b90506127458582613448565b96505050505050506117e8565b61275d836002614084565b9450505050506117e8565b9392505050565b612777614e5d565b506040805160c081018252609c5463ffffffff80821683526401000000008204811660208401526801000000000000000082048116938301939093526c0100000000000000000000000081048316606083015270010000000000000000000000000000000081048316608083015274010000000000000000000000000000000000000000900490911660a082015290565b612810613387565b73ffffffffffffffffffffffffffffffffffffffff1661282e611d92565b73ffffffffffffffffffffffffffffffffffffffff16146128b057604080517f08c379a000000000000000000000000000000000000000000000000000000000815260206004820181905260248201527f4f776e61626c653a2063616c6c6572206973206e6f7420746865206f776e6572604482015290519081900360640190fd5b609a80547fffffffffffffffffffffffff00000000000000000000000000000000000000001673ffffffffffffffffffffffffffffffffffffffff83169081179091556128fb613387565b73ffffffffffffffffffffffffffffffffffffffff167fad62520892a45ad185d5f7ee902397e0ec2b3e32966a740cfab8e4db8cc60f0960405160405180910390a350565b612948613387565b73ffffffffffffffffffffffffffffffffffffffff16612966611d92565b73ffffffffffffffffffffffffffffffffffffffff16146129e857604080517f08c379a000000000000000000000000000000000000000000000000000000000815260206004820181905260248201527f4f776e61626c653a2063616c6c6572206973206e6f7420746865206f776e6572604482015290519081900360640190fd5b60a180547fffffffffffffffffffffffff00000000000000000000000000000000000000001673ffffffffffffffffffffffffffffffffffffffff8316908117909155612a33613387565b73ffffffffffffffffffffffffffffffffffffffff167f741f5aed950b48656cdef9192aa78f2eef7397985bce1bd294a52bbd9d8d5c5a60405160405180910390a350565b612a80613387565b73ffffffffffffffffffffffffffffffffffffffff16612a9e611d92565b73ffffffffffffffffffffffffffffffffffffffff1614612b2057604080517f08c379a000000000000000000000000000000000000000000000000000000000815260206004820181905260248201527f4f776e61626c653a2063616c6c6572206973206e6f7420746865206f776e6572604482015290519081900360640190fd5b609780547fffffffffffffffffffffffff00000000000000000000000000000000000000001673ffffffffffffffffffffffffffffffffffffffff8316908117909155612b6b613387565b73ffffffffffffffffffffffffffffffffffffffff167f850cd0e1dc6449ad3cec82204139b7f56dfccbb15cfc97018391e1ceeb1fed2860405160405180910390a350565b600081612bbf575060006117e8565b609954604080517f65ac74db000000000000000000000000000000000000000000000000000000008152815173ffffffffffffffffffffffffffffffffffffffff90931692600092839285926365ac74db92600480840193919291829003018186803b158015612c2e57600080fd5b505afa158015612c42573d6000803e3d6000fd5b505050506040513d601f19601f82011682018060405250810190612c6691906152a6565b9150915060008373ffffffffffffffffffffffffffffffffffffffff1663fe173b976040518163ffffffff1660e01b815260040160206040518083038186803b158015612cb257600080fd5b505afa158015612cc6573d6000803e3d6000fd5b505050506040513d601f19601f82011682018060405250810190612cea919061528e565b609d5490915060009067ffffffffffffffff780100000000000000000000000000000000000000000000000082048116916fffffffffffffffffffffffffffffffff81169170010000000000000000000000000000000090910416612d5982612d538388614084565b90613448565b9350505083612e365760a15474010000000000000000000000000000000000000000900460ff1615612e2c57609b546000612d94828b613448565b905068a2a15d09519be00000811115612e09577fffffffffffffffffffffffffffffffffffffffffffffff5d5ea2f6ae6420000081016000612de2612dda876002614084565b838e03614178565b9050612df8612df18784614178565b8290613448565b9a50505050505050505050506117e8565b612e1d612e17856002614084565b8b614178565b985050505050505050506117e8565b6127458289614178565b60008060008873ffffffffffffffffffffffffffffffffffffffff1663805f751a6040518163ffffffff1660e01b8152600401604080518083038186803b158015612e8057600080fd5b505afa158015612e94573d6000803e3d6000fd5b505050506040513d601f19601f82011682018060405250810190612eb89190615248565b6fffffffffffffffffffffffffffffffff9182169350169050612edf816126f78985614084565b9250505080861015612f1a576000612ef7878b613448565b9050818111612f11576000985050505050505050506117e8565b81900398509450845b6000612f26848b614084565b90508587036000612f3b87612733878b614084565b90506000612f6382612733612f5e670de0b6b3a76400008284612d538e8b614084565b6141d6565b9050670de0b6b3a7640000810490506000612f91612f8a8f8661344890919063ffffffff16565b8990614084565b9050670de0b6b3a7640000612faf84612733612f5e84828785613448565b81612fb657fe5b0490506000612fdb670de0b6b3a764000061273384612fd58a88613448565b90614202565b90506000612fef8a61273361520882614084565b9050612ffb82826140f7565b9e505050505050505050505050505050919050565b609e546fffffffffffffffffffffffffffffffff808216927001000000000000000000000000000000009092041690565b60006117e5609f83613cb4565b60995473ffffffffffffffffffffffffffffffffffffffff1690565b613072613387565b73ffffffffffffffffffffffffffffffffffffffff16613090611d92565b73ffffffffffffffffffffffffffffffffffffffff161461311257604080517f08c379a000000000000000000000000000000000000000000000000000000000815260206004820181905260248201527f4f776e61626c653a2063616c6c6572206973206e6f7420746865206f776e6572604482015290519081900360640190fd5b73ffffffffffffffffffffffffffffffffffffffff811661317e576040517f08c379a000000000000000000000000000000000000000000000000000000000815260040180806020018281038252602681526020018061573c6026913960400191505060405180910390fd5b60335460405173ffffffffffffffffffffffffffffffffffffffff8084169216907f8be0079c531659141344cd1fd0a4f28419497f9722a3daafe3b4186f6b6457e090600090a3603380547fffffffffffffffffffffffff00000000000000000000000000000000000000001673ffffffffffffffffffffffffffffffffffffffff92909216919091179055565b60a15474010000000000000000000000000000000000000000900460ff1690565b60975473ffffffffffffffffffffffffffffffffffffffff1690565b613251613387565b73ffffffffffffffffffffffffffffffffffffffff1661326f611d92565b73ffffffffffffffffffffffffffffffffffffffff16146132f157604080517f08c379a000000000000000000000000000000000000000000000000000000000815260206004820181905260248201527f4f776e61626c653a2063616c6c6572206973206e6f7420746865206f776e6572604482015290519081900360640190fd5b609880547fffffffffffffffffffffffff00000000000000000000000000000000000000001673ffffffffffffffffffffffffffffffffffffffff831690811790915561333c613387565b73ffffffffffffffffffffffffffffffffffffffff167fdbf8baa510d0cc960f9bd90d5ef0c247e25196790bd4e15b4bbe0e095d0de3a860405160405180910390a350565b3b151590565b3390565b60006133ad8373ffffffffffffffffffffffffffffffffffffffff8416614279565b90505b92915050565b6040805173ffffffffffffffffffffffffffffffffffffffff8416602482015260448082018490528251808303909101815260649091019091526020810180517bffffffffffffffffffffffffffffffffffffffffffffffffffffffff167fa9059cbb000000000000000000000000000000000000000000000000000000001790526134439084906142c3565b505050565b6000828201838110156133ad57604080517f08c379a000000000000000000000000000000000000000000000000000000000815260206004820152601b60248201527f536166654d6174683a206164646974696f6e206f766572666c6f770000000000604482015290519081900360640190fd5b60006134c782612bb0565b9050806134d457506135e8565b60006134de611dae565b6040517f40c10f1900000000000000000000000000000000000000000000000000000000815290915073ffffffffffffffffffffffffffffffffffffffff8216906340c10f1990613535903090869060040161536d565b600060405180830381600087803b15801561354f57600080fd5b505af1158015613563573d6000803e3d6000fd5b505050506000806135738461439b565b91509150600061358161304e565b90506135b6816135918885614202565b61359961138d565b73ffffffffffffffffffffffffffffffffffffffff1691906133b6565b6135e2816135c48786614202565b73ffffffffffffffffffffffffffffffffffffffff871691906133b6565b50505050505b50565b6135f361322d565b73ffffffffffffffffffffffffffffffffffffffff1663449a52f883836040518363ffffffff1660e01b815260040161362d92919061536d565b600060405180830381600087803b15801561364757600080fd5b505af11580156135e2573d6000803e3d6000fd5b600061366630613381565b15905090565b600054610100900460ff1680613685575061368561365b565b80613693575060005460ff16155b6136e8576040517f08c379a000000000000000000000000000000000000000000000000000000000815260040180806020018281038252602e815260200180615788602e913960400191505060405180910390fd5b600054610100900460ff1615801561374e57600080547fffffffffffffffffffffffffffffffffffffffffffffffffffffffffffffff007fffffffffffffffffffffffffffffffffffffffffffffffffffffffffffff00ff909116610100171660011790555b80156135e857600080547fffffffffffffffffffffffffffffffffffffffffffffffffffffffffffff00ff16905550565b600054610100900460ff1680613798575061379861365b565b806137a6575060005460ff16155b6137fb576040517f08c379a000000000000000000000000000000000000000000000000000000000815260040180806020018281038252602e815260200180615788602e913960400191505060405180910390fd5b600054610100900460ff1615801561386157600080547fffffffffffffffffffffffffffffffffffffffffffffffffffffffffffffff007fffffffffffffffffffffffffffffffffffffffffffffffffffffffffffff00ff909116610100171660011790555b603380547fffffffffffffffffffffffff00000000000000000000000000000000000000001673ffffffffffffffffffffffffffffffffffffffff84169081179091556040516000907f8be0079c531659141344cd1fd0a4f28419497f9722a3daafe3b4186f6b6457e0908290a3801561112857600080547fffffffffffffffffffffffffffffffffffffffffffffffffffffffffffff00ff1690555050565b600054610100900460ff168061391a575061391a61365b565b80613928575060005460ff16155b61397d576040517f08c379a000000000000000000000000000000000000000000000000000000000815260040180806020018281038252602e815260200180615788602e913960400191505060405180910390fd5b600054610100900460ff161580156139e357600080547fffffffffffffffffffffffffffffffffffffffffffffffffffffffffffffff007fffffffffffffffffffffffffffffffffffffffffffffffffffffffffffff00ff909116610100171660011790555b606580547fffffffffffffffffffffffffffffffffffffffffffffffffffffffffffffff0016905580156135e857600080547fffffffffffffffffffffffffffffffffffffffffffffffffffffffffffff00ff16905550565b613a4461159b565b613aaf57604080517f08c379a000000000000000000000000000000000000000000000000000000000815260206004820152601460248201527f5061757361626c653a206e6f7420706175736564000000000000000000000000604482015290519081900360640190fd5b606580547fffffffffffffffffffffffffffffffffffffffffffffffffffffffffffffff001690557f5db9ee0a495bf2e6ff9c91a7834c1ba4fdd244a5e8aa4e537bd38aeae4b073aa613b00613387565b6040805173ffffffffffffffffffffffffffffffffffffffff9092168252519081900360200190a1565b60006117e58261460a565b6040805173ffffffffffffffffffffffffffffffffffffffff80861660248301528416604482015260648082018490528251808303909101815260849091019091526020810180517bffffffffffffffffffffffffffffffffffffffffffffffffffffffff167f23b872dd00000000000000000000000000000000000000000000000000000000179052611a729085906142c3565b60006133ad8373ffffffffffffffffffffffffffffffffffffffff841661460e565b613bf461159b565b15613c6057604080517f08c379a000000000000000000000000000000000000000000000000000000000815260206004820152601060248201527f5061757361626c653a2070617573656400000000000000000000000000000000604482015290519081900360640190fd5b606580547fffffffffffffffffffffffffffffffffffffffffffffffffffffffffffffff001660011790557f62e78cea01bee320cd4e420270b5ea74000d11b0c9f74754ebdbfc544b05a258613b00613387565b60006133ad83836146f2565b609954604080517f65ac74db0000000000000000000000000000000000000000000000000000000081528151600093849384938493849373ffffffffffffffffffffffffffffffffffffffff169283926365ac74db9260048083019392829003018186803b158015613d3157600080fd5b505afa158015613d45573d6000803e3d6000fd5b505050506040513d601f19601f82011682018060405250810190613d6991906152a6565b909550935083613daa57613d9e876060015163ffffffff166126f7896040015163ffffffff168b61408490919063ffffffff16565b955050505050506133b0565b8073ffffffffffffffffffffffffffffffffffffffff1663805f751a6040518163ffffffff1660e01b8152600401604080518083038186803b158015613def57600080fd5b505afa158015613e03573d6000803e3d6000fd5b505050506040513d601f19601f82011682018060405250810190613e279190615248565b6fffffffffffffffffffffffffffffffff918216945016915060009050613e4e8589613448565b90506000613e60836126f78787614084565b90506000613e8f896020015163ffffffff166126f78b6000015163ffffffff168961408490919063ffffffff16565b9050808710613ed157613ec3896060015163ffffffff166126f78b6040015163ffffffff168d61408490919063ffffffff16565b9750505050505050506133b0565b818710156140105780831115613f76576000613ef38383038b8888878c614770565b90506000613f248b6060015163ffffffff166126f78d6040015163ffffffff1686890361408490919063ffffffff16565b90506000613f558c60a0015163ffffffff166126f78e6080015163ffffffff168d890361408490919063ffffffff16565b9050613f6582612d538386613448565b9a50505050505050505050506133b0565b81831115613fe5578183036000613f91828c8989888d614770565b90506000828d0390506000613fc78d60a0015163ffffffff166126f78f6080015163ffffffff168561408490919063ffffffff16565b9050613fd38184613448565b9b5050505050505050505050506133b0565b613ec38960a0015163ffffffff166126f78b6080015163ffffffff168d61408490919063ffffffff16565b8083111561406857808303600061402d828d038c89898d8d614770565b9050600061405c8c6060015163ffffffff166126f78e6040015163ffffffff168661408490919063ffffffff16565b9050613f658282613448565b6140768a8a87878b8b614770565b9a9950505050505050505050565b600082614093575060006133b0565b828202828482816140a057fe5b04146133ad576040517f08c379a00000000000000000000000000000000000000000000000000000000081526004018080602001828103825260218152602001806157b66021913960400191505060405180910390fd5b600080821161416757604080517f08c379a000000000000000000000000000000000000000000000000000000000815260206004820152601a60248201527f536166654d6174683a206469766973696f6e206279207a65726f000000000000604482015290519081900360640190fd5b81838161417057fe5b049392505050565b6000826141b1576040517f08c379a000000000000000000000000000000000000000000000000000000000815260040161078f906154ec565b6141bd83615208614084565b6141cf83670de0b6b3a7640000614084565b8161417057fe5b60006714057b7ef767814f6141ea836148ad565b670de0b6b3a764000002816141fb57fe5b0492915050565b60008282111561427357604080517f08c379a000000000000000000000000000000000000000000000000000000000815260206004820152601e60248201527f536166654d6174683a207375627472616374696f6e206f766572666c6f770000604482015290519081900360640190fd5b50900390565b600061428583836149a8565b6142bb575081546001818101845560008481526020808220909301849055845484825282860190935260409020919091556133b0565b5060006133b0565b6000614325826040518060400160405280602081526020017f5361666545524332303a206c6f772d6c6576656c2063616c6c206661696c65648152508573ffffffffffffffffffffffffffffffffffffffff166149c09092919063ffffffff16565b8051909150156134435780806020019051602081101561434457600080fd5b5051613443576040517f08c379a000000000000000000000000000000000000000000000000000000000815260040180806020018281038252602a8152602001806157d7602a913960400191505060405180910390fd5b60008060006143aa609f613b2a565b9050806143be576000809250925050614605565b6000806143c9613010565b6fffffffffffffffffffffffffffffffff1691506fffffffffffffffffffffffffffffffff16915081600014156144095760008094509450505050614605565b600061441b846126f784818b88614084565b9050600061442761304e565b73ffffffffffffffffffffffffffffffffffffffff16635572f264836040518263ffffffff1660e01b815260040161445f91906156ce565b60206040518083038186803b15801561447757600080fd5b505afa15801561448b573d6000803e3d6000fd5b505050506040513d601f19601f820116820180604052508101906144af919061528e565b905060006144bb611dae565b905060006144c761138d565b905060006144d36113ba565b905060005b888110156145fb5760006144ed609f83613cb4565b905061451073ffffffffffffffffffffffffffffffffffffffff861682896149d7565b61453173ffffffffffffffffffffffffffffffffffffffff851682886149d7565b6000808273ffffffffffffffffffffffffffffffffffffffff1663e8e3370088888c8c6000808c426040518963ffffffff1660e01b815260040161457c989796959493929190615317565b606060405180830381600087803b15801561459657600080fd5b505af11580156145aa573d6000803e3d6000fd5b505050506040513d601f19601f820116820180604052508101906145ce91906152c9565b5090925090506145de8e83613448565b9d506145ea8d82613448565b9c5050600190920191506144d89050565b5050505050505050505b915091565b5490565b600081815260018301602052604081205480156146e85783547fffffffffffffffffffffffffffffffffffffffffffffffffffffffffffffffff808301919081019060009087908390811061465f57fe5b906000526020600020015490508087600001848154811061467c57fe5b6000918252602080832090910192909255828152600189810190925260409020908401905586548790806146ac57fe5b600190038181906000526020600020016000905590558660010160008781526020019081526020016000206000905560019450505050506133b0565b60009150506133b0565b8154600090821061474e576040517f08c379a000000000000000000000000000000000000000000000000000000000815260040180806020018281038252602281526020018061571a6022913960400191505060405180910390fd5b82600001828154811061475d57fe5b9060005260206000200154905092915050565b60008061479e856127338960a0015163ffffffff168a6040015163ffffffff1661408490919063ffffffff16565b905060006147cd876127338a6080015163ffffffff168b6060015163ffffffff1661408490919063ffffffff16565b905060006148186147f18a6020015163ffffffff168461408490919063ffffffff16565b6126f76148118c6000015163ffffffff168761408490919063ffffffff16565b8d90614084565b905060006148478a6060015163ffffffff166126f78c6040015163ffffffff168e61408490919063ffffffff16565b90506000614855858d614084565b9050600061486888612733876002614084565b9050600061487b8e612d538c6002614084565b905061488b826126f78386614084565b905061489b81612fd58787613448565b9e9d5050505050505050505050505050565b6000670de0b6b3a764000082101561492657604080517f08c379a000000000000000000000000000000000000000000000000000000000815260206004820152600f60248201527f626c6f673220746f6f20736d616c6c0000000000000000000000000000000000604482015290519081900360640190fd5b600061493b670de0b6b3a76400008404614b24565b670de0b6b3a7640000808202935090915083821c9081141561495e5750506117e8565b6706f05b59d3b200005b80156149a057670de0b6b3a7640000828002049150671bc16d674ec800008210614998579283019260019190911c905b60011c614968565b505050919050565b60009081526001919091016020526040902054151590565b60606149cf8484600085614bc5565b949350505050565b6000614a94828573ffffffffffffffffffffffffffffffffffffffff1663dd62ed3e30876040518363ffffffff1660e01b8152600401808373ffffffffffffffffffffffffffffffffffffffff1681526020018273ffffffffffffffffffffffffffffffffffffffff1681526020019250505060206040518083038186803b158015614a6257600080fd5b505afa158015614a76573d6000803e3d6000fd5b505050506040513d6020811015614a8c57600080fd5b505190613448565b6040805173ffffffffffffffffffffffffffffffffffffffff8616602482015260448082018490528251808303909101815260649091019091526020810180517bffffffffffffffffffffffffffffffffffffffffffffffffffffffff167f095ea7b300000000000000000000000000000000000000000000000000000000179052909150611a729085906142c3565b60007001000000000000000000000000000000008210614b4657608091821c91015b680100000000000000008210614b5e57604091821c91015b6401000000008210614b7257602091821c91015b620100008210614b8457601091821c91015b6101008210614b9557600891821c91015b60108210614ba557600491821c91015b60048210614bb557600291821c91015b600282106117e857600101919050565b606082471015614c20576040517f08c379a00000000000000000000000000000000000000000000000000000000081526004018080602001828103825260268152602001806157626026913960400191505060405180910390fd5b614c2985613381565b614c9457604080517f08c379a000000000000000000000000000000000000000000000000000000000815260206004820152601d60248201527f416464726573733a2063616c6c20746f206e6f6e2d636f6e7472616374000000604482015290519081900360640190fd5b6000808673ffffffffffffffffffffffffffffffffffffffff1685876040518082805190602001908083835b60208310614cfd57805182527fffffffffffffffffffffffffffffffffffffffffffffffffffffffffffffffe09092019160209182019101614cc0565b6001836020036101000a03801982511681845116808217855250505050505090500191505060006040518083038185875af1925050503d8060008114614d5f576040519150601f19603f3d011682016040523d82523d6000602084013e614d64565b606091505b5091509150614d74828286614d7f565b979650505050505050565b60608315614d8e575081612768565b825115614d9e5782518084602001fd5b816040517f08c379a00000000000000000000000000000000000000000000000000000000081526004018080602001828103825283818151815260200191508051906020019080838360005b83811015614e02578181015183820152602001614dea565b50505050905090810190601f168015614e2f5780820380516001836020036101000a031916815260200191505b509250505060405180910390fd5b604080516060810182526000808252602082018190529181019190915290565b6040805160c081018252600080825260208201819052918101829052606081018290526080810182905260a081019190915290565b803573ffffffffffffffffffffffffffffffffffffffff811681146117e857600080fd5b600082601f830112614ec6578081fd5b8135602067ffffffffffffffff821115614edc57fe5b808202614eea8282016156d7565b838152828101908684018388018501891015614f04578687fd5b8693505b85841015614f2d57614f1981614e92565b835260019390930192918401918401614f08565b50979650505050505050565b600060c08284031215614f4a578081fd5b60405160c0810181811067ffffffffffffffff82111715614f6757fe5b604052905080614f7683615049565b8152614f8460208401615049565b6020820152614f9560408401615049565b6040820152614fa660608401615049565b6060820152614fb760808401615049565b6080820152614fc860a08401615049565b60a08201525092915050565b600060608284031215614fe5578081fd5b6040516060810181811067ffffffffffffffff8211171561500257fe5b6040529050808235615013816156fb565b81526150216020840161505d565b60208201526150326040840161505d565b60408201525092915050565b80356117e8816156fb565b803563ffffffff811681146117e857600080fd5b803567ffffffffffffffff811681146117e857600080fd5b600060208284031215615086578081fd5b6133ad82614e92565b6000806000606084860312156150a3578182fd5b6150ac84614e92565b92506150ba60208501614e92565b9150604084013590509250925092565b600060c082840312156150db578081fd5b6133ad8383614f39565b6000602082840312156150f6578081fd5b813567ffffffffffffffff8082111561510d578283fd5b908301906102208286031215615121578283fd5b61014061512d816156d7565b61513684614e92565b815261514460208501614e92565b602082015261515560408501614e92565b604082015261516660608501614e92565b60608201526151788760808601614f39565b608082015261518987838601614fd4565b60a082015261519b6101a0850161503e565b60c08201526151ad6101c0850161503e565b60e08201526101e08401359150828211156151c6578485fd5b6151d287838601614eb6565b6101008201526151e56102008501614e92565b6101208201529695505050505050565b600060608284031215615206578081fd5b6133ad8383614fd4565b60008060408385031215615222578182fd5b823561522d816156fb565b9150602083013561523d816156fb565b809150509250929050565b6000806040838503121561525a578182fd5b8251615265816156fb565b602084015190925061523d816156fb565b600060208284031215615287578081fd5b5035919050565b60006020828403121561529f578081fd5b5051919050565b600080604083850312156152b8578182fd5b505080516020909101519092909150565b6000806000606084860312156152dd578081fd5b8351925060208401519150604084015190509250925092565b73ffffffffffffffffffffffffffffffffffffffff91909116815260200190565b73ffffffffffffffffffffffffffffffffffffffff9889168152968816602088015260408701959095526060860193909352608085019190915260a084015290921660c082015260e08101919091526101000190565b73ffffffffffffffffffffffffffffffffffffffff929092168252602082015260400190565b901515815260200190565b60208082526031908201527f4554486d784d696e7465723a2045544874782076616c7565206275726e74206560408201527f78636565647320455448206e6565646564000000000000000000000000000000606082015260800190565b60208082526024908201527f4554486d784d696e7465723a2063616e6e6f7420736574206c7053686172652060408201527f3e3d203100000000000000000000000000000000000000000000000000000000606082015260800190565b6020808252601b908201527f4554486d784d696e7465723a206265666f72652067656e657369730000000000604082015260600190565b60208082526029908201527f4554486d784d696e7465723a2063616e6e6f74206d696e742077697468207a6560408201527f726f20616d6f756e740000000000000000000000000000000000000000000000606082015260800190565b6020808252601d908201527f4554486d784d696e7465723a206761735072696365206973207a65726f000000604082015260600190565b6020808252818101527f4554486d784d696e7465723a2063616e6e6f74207265636f7665722057455448604082015260600190565b60208082526027908201527f4554486d784d696e7465723a206c697175696469747920706f6f6c206e6f742060408201527f70726573656e7400000000000000000000000000000000000000000000000000606082015260800190565b60208082526029908201527f4554486d784d696e7465723a206c697175696469747920706f6f6c20616c726560408201527f6164792061646465640000000000000000000000000000000000000000000000606082015260800190565b600060c08201905063ffffffff8084511683528060208501511660208401528060408501511660408401528060608501511660608401528060808501511660808401528060a08501511660a08401525092915050565b81516fffffffffffffffffffffffffffffffff16815260208083015167ffffffffffffffff90811691830191909152604092830151169181019190915260600190565b6fffffffffffffffffffffffffffffffff92831681529116602082015260400190565b90815260200190565b60405181810167ffffffffffffffff811182821017156156f357fe5b604052919050565b6fffffffffffffffffffffffffffffffff811681146135e857600080fdfe456e756d657261626c655365743a20696e646578206f7574206f6620626f756e64734f776e61626c653a206e6577206f776e657220697320746865207a65726f2061646472657373416464726573733a20696e73756666696369656e742062616c616e636520666f722063616c6c496e697469616c697a61626c653a20636f6e747261637420697320616c726561647920696e697469616c697a6564536166654d6174683a206d756c7469706c69636174696f6e206f766572666c6f775361666545524332303a204552433230206f7065726174696f6e20646964206e6f742073756363656564a264697066735822122047d1512c158f43195b3aaffcf0a93c77baf5ec6e4b90649bbce25e3c0ec5d3d964736f6c63430007060033496e697469616c697a61626c653a20636f6e747261637420697320616c726561647920696e697469616c697a6564",
  "devdoc": {
    "kind": "dev",
    "methods": {
      "owner()": {
        "details": "Returns the address of the current owner."
      },
      "paused()": {
        "details": "Returns true if the contract is paused, and false otherwise."
      },
      "renounceOwnership()": {
        "details": "Leaves the contract without owner. It will not be possible to call `onlyOwner` functions anymore. Can only be called by the current owner. NOTE: Renouncing ownership will leave the contract without an owner, thereby removing any functionality that is only available to the owner."
      },
      "transferOwnership(address)": {
        "details": "Transfers ownership of the contract to a new account (`newOwner`). Can only be called by the current owner."
      }
    },
    "version": 1
  },
  "userdoc": {
    "kind": "user",
    "methods": {},
    "version": 1
  },
  "storageLayout": {
    "storage": [
      {
        "astId": 6,
        "contract": "contracts/exchanges/ETHmxMinter/ETHmxMinter.sol:ETHmxMinter",
        "label": "_initialized",
        "offset": 0,
        "slot": "0",
        "type": "t_bool"
      },
      {
        "astId": 9,
        "contract": "contracts/exchanges/ETHmxMinter/ETHmxMinter.sol:ETHmxMinter",
        "label": "_initializing",
        "offset": 1,
        "slot": "0",
        "type": "t_bool"
      },
      {
        "astId": 353,
        "contract": "contracts/exchanges/ETHmxMinter/ETHmxMinter.sol:ETHmxMinter",
        "label": "__gap",
        "offset": 0,
        "slot": "1",
        "type": "t_array(t_uint256)50_storage"
      },
      {
        "astId": 3948,
        "contract": "contracts/exchanges/ETHmxMinter/ETHmxMinter.sol:ETHmxMinter",
        "label": "_owner",
        "offset": 0,
        "slot": "51",
        "type": "t_address"
      },
      {
        "astId": 4067,
        "contract": "contracts/exchanges/ETHmxMinter/ETHmxMinter.sol:ETHmxMinter",
        "label": "__gap",
        "offset": 0,
        "slot": "52",
        "type": "t_array(t_uint256)49_storage"
      },
      {
        "astId": 375,
        "contract": "contracts/exchanges/ETHmxMinter/ETHmxMinter.sol:ETHmxMinter",
        "label": "_paused",
        "offset": 0,
        "slot": "101",
        "type": "t_bool"
      },
      {
        "astId": 466,
        "contract": "contracts/exchanges/ETHmxMinter/ETHmxMinter.sol:ETHmxMinter",
        "label": "__gap",
        "offset": 0,
        "slot": "102",
        "type": "t_array(t_uint256)49_storage"
      },
      {
        "astId": 6442,
        "contract": "contracts/exchanges/ETHmxMinter/ETHmxMinter.sol:ETHmxMinter",
        "label": "_ethmx",
        "offset": 0,
        "slot": "151",
        "type": "t_address"
      },
      {
        "astId": 6444,
        "contract": "contracts/exchanges/ETHmxMinter/ETHmxMinter.sol:ETHmxMinter",
        "label": "_ethtx",
        "offset": 0,
        "slot": "152",
        "type": "t_address"
      },
      {
        "astId": 6446,
        "contract": "contracts/exchanges/ETHmxMinter/ETHmxMinter.sol:ETHmxMinter",
        "label": "_ethtxAMM",
        "offset": 0,
        "slot": "153",
        "type": "t_address"
      },
      {
        "astId": 6448,
        "contract": "contracts/exchanges/ETHmxMinter/ETHmxMinter.sol:ETHmxMinter",
        "label": "_weth",
        "offset": 0,
        "slot": "154",
        "type": "t_address"
      },
      {
        "astId": 6450,
        "contract": "contracts/exchanges/ETHmxMinter/ETHmxMinter.sol:ETHmxMinter",
        "label": "_totalGiven",
        "offset": 0,
        "slot": "155",
        "type": "t_uint256"
      },
      {
        "astId": 6452,
        "contract": "contracts/exchanges/ETHmxMinter/ETHmxMinter.sol:ETHmxMinter",
        "label": "_ethmxMintParams",
        "offset": 0,
        "slot": "156",
        "type": "t_struct(ETHmxMintParams)7907_storage"
      },
      {
        "astId": 6454,
        "contract": "contracts/exchanges/ETHmxMinter/ETHmxMinter.sol:ETHmxMinter",
        "label": "_minMintPrice",
        "offset": 0,
        "slot": "157",
        "type": "t_uint128"
      },
      {
        "astId": 6456,
        "contract": "contracts/exchanges/ETHmxMinter/ETHmxMinter.sol:ETHmxMinter",
        "label": "_mu",
        "offset": 16,
        "slot": "157",
        "type": "t_uint64"
      },
      {
        "astId": 6458,
        "contract": "contracts/exchanges/ETHmxMinter/ETHmxMinter.sol:ETHmxMinter",
        "label": "_lambda",
        "offset": 24,
        "slot": "157",
        "type": "t_uint64"
      },
      {
        "astId": 6460,
        "contract": "contracts/exchanges/ETHmxMinter/ETHmxMinter.sol:ETHmxMinter",
        "label": "_lpShareNum",
        "offset": 0,
        "slot": "158",
        "type": "t_uint128"
      },
      {
        "astId": 6462,
        "contract": "contracts/exchanges/ETHmxMinter/ETHmxMinter.sol:ETHmxMinter",
        "label": "_lpShareDen",
        "offset": 16,
        "slot": "158",
        "type": "t_uint128"
      },
      {
        "astId": 6464,
        "contract": "contracts/exchanges/ETHmxMinter/ETHmxMinter.sol:ETHmxMinter",
        "label": "_lps",
        "offset": 0,
        "slot": "159",
        "type": "t_struct(AddressSet)2680_storage"
      },
      {
        "astId": 6466,
        "contract": "contracts/exchanges/ETHmxMinter/ETHmxMinter.sol:ETHmxMinter",
        "label": "_lpRecipient",
        "offset": 0,
        "slot": "161",
        "type": "t_address"
      },
      {
        "astId": 6468,
        "contract": "contracts/exchanges/ETHmxMinter/ETHmxMinter.sol:ETHmxMinter",
        "label": "_inGenesis",
        "offset": 20,
        "slot": "161",
        "type": "t_bool"
      },
      {
        "astId": 6472,
        "contract": "contracts/exchanges/ETHmxMinter/ETHmxMinter.sol:ETHmxMinter",
        "label": "__gap",
        "offset": 0,
        "slot": "162",
        "type": "t_array(t_uint256)39_storage"
      }
    ],
    "types": {
      "t_address": {
        "encoding": "inplace",
        "label": "address",
        "numberOfBytes": "20"
      },
      "t_array(t_bytes32)dyn_storage": {
        "base": "t_bytes32",
        "encoding": "dynamic_array",
        "label": "bytes32[]",
        "numberOfBytes": "32"
      },
      "t_array(t_uint256)39_storage": {
        "base": "t_uint256",
        "encoding": "inplace",
        "label": "uint256[39]",
        "numberOfBytes": "1248"
      },
      "t_array(t_uint256)49_storage": {
        "base": "t_uint256",
        "encoding": "inplace",
        "label": "uint256[49]",
        "numberOfBytes": "1568"
      },
      "t_array(t_uint256)50_storage": {
        "base": "t_uint256",
        "encoding": "inplace",
        "label": "uint256[50]",
        "numberOfBytes": "1600"
      },
      "t_bool": {
        "encoding": "inplace",
        "label": "bool",
        "numberOfBytes": "1"
      },
      "t_bytes32": {
        "encoding": "inplace",
        "label": "bytes32",
        "numberOfBytes": "32"
      },
      "t_mapping(t_bytes32,t_uint256)": {
        "encoding": "mapping",
        "key": "t_bytes32",
        "label": "mapping(bytes32 => uint256)",
        "numberOfBytes": "32",
        "value": "t_uint256"
      },
      "t_struct(AddressSet)2680_storage": {
        "encoding": "inplace",
        "label": "struct EnumerableSet.AddressSet",
        "members": [
          {
            "astId": 2679,
            "contract": "contracts/exchanges/ETHmxMinter/ETHmxMinter.sol:ETHmxMinter",
            "label": "_inner",
            "offset": 0,
            "slot": "0",
            "type": "t_struct(Set)2415_storage"
          }
        ],
        "numberOfBytes": "64"
      },
      "t_struct(ETHmxMintParams)7907_storage": {
        "encoding": "inplace",
        "label": "struct IETHmxMinter.ETHmxMintParams",
        "members": [
          {
            "astId": 7896,
            "contract": "contracts/exchanges/ETHmxMinter/ETHmxMinter.sol:ETHmxMinter",
            "label": "cCapNum",
            "offset": 0,
            "slot": "0",
            "type": "t_uint32"
          },
          {
            "astId": 7898,
            "contract": "contracts/exchanges/ETHmxMinter/ETHmxMinter.sol:ETHmxMinter",
            "label": "cCapDen",
            "offset": 4,
            "slot": "0",
            "type": "t_uint32"
          },
          {
            "astId": 7900,
            "contract": "contracts/exchanges/ETHmxMinter/ETHmxMinter.sol:ETHmxMinter",
            "label": "zetaFloorNum",
            "offset": 8,
            "slot": "0",
            "type": "t_uint32"
          },
          {
            "astId": 7902,
            "contract": "contracts/exchanges/ETHmxMinter/ETHmxMinter.sol:ETHmxMinter",
            "label": "zetaFloorDen",
            "offset": 12,
            "slot": "0",
            "type": "t_uint32"
          },
          {
            "astId": 7904,
            "contract": "contracts/exchanges/ETHmxMinter/ETHmxMinter.sol:ETHmxMinter",
            "label": "zetaCeilNum",
            "offset": 16,
            "slot": "0",
            "type": "t_uint32"
          },
          {
            "astId": 7906,
            "contract": "contracts/exchanges/ETHmxMinter/ETHmxMinter.sol:ETHmxMinter",
            "label": "zetaCeilDen",
            "offset": 20,
            "slot": "0",
            "type": "t_uint32"
          }
        ],
        "numberOfBytes": "32"
      },
      "t_struct(Set)2415_storage": {
        "encoding": "inplace",
        "label": "struct EnumerableSet.Set",
        "members": [
          {
            "astId": 2410,
            "contract": "contracts/exchanges/ETHmxMinter/ETHmxMinter.sol:ETHmxMinter",
            "label": "_values",
            "offset": 0,
            "slot": "0",
            "type": "t_array(t_bytes32)dyn_storage"
          },
          {
            "astId": 2414,
            "contract": "contracts/exchanges/ETHmxMinter/ETHmxMinter.sol:ETHmxMinter",
            "label": "_indexes",
            "offset": 0,
            "slot": "1",
            "type": "t_mapping(t_bytes32,t_uint256)"
          }
        ],
        "numberOfBytes": "64"
      },
      "t_uint128": {
        "encoding": "inplace",
        "label": "uint128",
        "numberOfBytes": "16"
      },
      "t_uint256": {
        "encoding": "inplace",
        "label": "uint256",
        "numberOfBytes": "32"
      },
      "t_uint32": {
        "encoding": "inplace",
        "label": "uint32",
        "numberOfBytes": "4"
      },
      "t_uint64": {
        "encoding": "inplace",
        "label": "uint64",
        "numberOfBytes": "8"
      }
    }
  }
}