{
  "address": "0xd83e9cD52DFfeEB308908cf1B88F26ba7D798ADd",
  "abi": [
    {
      "inputs": [
        {
          "internalType": "address",
          "name": "owner_",
          "type": "address"
        }
      ],
      "stateMutability": "nonpayable",
      "type": "constructor"
    },
    {
      "anonymous": false,
      "inputs": [
        {
          "indexed": true,
          "internalType": "address",
          "name": "author",
          "type": "address"
        },
        {
          "indexed": true,
          "internalType": "address",
          "name": "account",
          "type": "address"
        }
      ],
      "name": "DefaultRecipientSet",
      "type": "event"
    },
    {
      "anonymous": false,
      "inputs": [
        {
          "indexed": true,
          "internalType": "address",
          "name": "author",
          "type": "address"
        },
        {
          "indexed": true,
          "internalType": "address",
          "name": "account",
          "type": "address"
        }
      ],
      "name": "EthmxRewardsSet",
      "type": "event"
    },
    {
      "anonymous": false,
      "inputs": [
        {
          "indexed": true,
          "internalType": "address",
          "name": "author",
          "type": "address"
        },
        {
          "indexed": true,
          "internalType": "address",
          "name": "account",
          "type": "address"
        }
      ],
      "name": "EthtxAMMSet",
      "type": "event"
    },
    {
      "anonymous": false,
      "inputs": [
        {
          "indexed": true,
          "internalType": "address",
          "name": "author",
          "type": "address"
        },
        {
          "indexed": true,
          "internalType": "address",
          "name": "account",
          "type": "address"
        }
      ],
      "name": "EthtxSet",
      "type": "event"
    },
    {
      "anonymous": false,
      "inputs": [
        {
          "indexed": true,
          "internalType": "address",
          "name": "author",
          "type": "address"
        },
        {
          "indexed": true,
          "internalType": "address",
          "name": "account",
          "type": "address"
        }
      ],
      "name": "LPRewardsSet",
      "type": "event"
    },
    {
      "anonymous": false,
      "inputs": [
        {
          "indexed": true,
          "internalType": "address",
          "name": "previousOwner",
          "type": "address"
        },
        {
          "indexed": true,
          "internalType": "address",
          "name": "newOwner",
          "type": "address"
        }
      ],
      "name": "OwnershipTransferred",
      "type": "event"
    },
    {
      "anonymous": false,
      "inputs": [
        {
          "indexed": true,
          "internalType": "address",
          "name": "author",
          "type": "address"
        },
        {
          "indexed": true,
          "internalType": "address",
          "name": "token",
          "type": "address"
        },
        {
          "indexed": true,
          "internalType": "address",
          "name": "to",
          "type": "address"
        },
        {
          "indexed": false,
          "internalType": "uint256",
          "name": "amount",
          "type": "uint256"
        }
      ],
      "name": "RecoveredUnsupported",
      "type": "event"
    },
    {
      "anonymous": false,
      "inputs": [
        {
          "indexed": true,
          "internalType": "address",
          "name": "author",
          "type": "address"
        },
        {
          "indexed": true,
          "internalType": "address",
          "name": "to",
          "type": "address"
        },
        {
          "indexed": false,
          "internalType": "uint256",
          "name": "amount",
          "type": "uint256"
        }
      ],
      "name": "RewardsSent",
      "type": "event"
    },
    {
      "anonymous": false,
      "inputs": [
        {
          "indexed": true,
          "internalType": "address",
          "name": "author",
          "type": "address"
        },
        {
          "indexed": true,
          "internalType": "address",
          "name": "token",
          "type": "address"
        }
      ],
      "name": "RewardsTokenSet",
      "type": "event"
    },
    {
      "anonymous": false,
      "inputs": [
        {
          "indexed": true,
          "internalType": "address",
          "name": "author",
          "type": "address"
        },
        {
          "indexed": true,
          "internalType": "address",
          "name": "account",
          "type": "address"
        }
      ],
      "name": "SharesActivated",
      "type": "event"
    },
    {
      "anonymous": false,
      "inputs": [
        {
          "indexed": true,
          "internalType": "address",
          "name": "author",
          "type": "address"
        },
        {
          "indexed": true,
          "internalType": "address",
          "name": "account",
          "type": "address"
        },
        {
          "indexed": false,
          "internalType": "uint128",
          "name": "amount",
          "type": "uint128"
        }
      ],
      "name": "SharesAdded",
      "type": "event"
    },
    {
      "anonymous": false,
      "inputs": [
        {
          "indexed": true,
          "internalType": "address",
          "name": "author",
          "type": "address"
        },
        {
          "indexed": true,
          "internalType": "address",
          "name": "account",
          "type": "address"
        }
      ],
      "name": "SharesDeactivated",
      "type": "event"
    },
    {
      "anonymous": false,
      "inputs": [
        {
          "indexed": true,
          "internalType": "address",
          "name": "author",
          "type": "address"
        },
        {
          "indexed": true,
          "internalType": "address",
          "name": "account",
          "type": "address"
        },
        {
          "indexed": false,
          "internalType": "uint128",
          "name": "amount",
          "type": "uint128"
        }
      ],
      "name": "SharesRemoved",
      "type": "event"
    },
    {
      "anonymous": false,
      "inputs": [
        {
          "indexed": true,
          "internalType": "address",
          "name": "author",
          "type": "address"
        },
        {
          "indexed": true,
          "internalType": "address",
          "name": "account",
          "type": "address"
        },
        {
          "indexed": false,
          "internalType": "uint128",
          "name": "value",
          "type": "uint128"
        },
        {
          "indexed": false,
          "internalType": "bool",
          "name": "isActive",
          "type": "bool"
        }
      ],
      "name": "SharesSet",
      "type": "event"
    },
    {
      "inputs": [],
      "name": "activateShares",
      "outputs": [],
      "stateMutability": "nonpayable",
      "type": "function"
    },
    {
      "inputs": [
        {
          "internalType": "address",
          "name": "account",
          "type": "address"
        }
      ],
      "name": "activateSharesFor",
      "outputs": [],
      "stateMutability": "nonpayable",
      "type": "function"
    },
    {
      "inputs": [
        {
          "internalType": "address",
          "name": "account",
          "type": "address"
        },
        {
          "internalType": "uint128",
          "name": "amount",
          "type": "uint128"
        }
      ],
      "name": "addShares",
      "outputs": [],
      "stateMutability": "nonpayable",
      "type": "function"
    },
    {
      "inputs": [],
      "name": "convertETHtx",
      "outputs": [],
      "stateMutability": "nonpayable",
      "type": "function"
    },
    {
      "inputs": [],
      "name": "deactivateShares",
      "outputs": [],
      "stateMutability": "nonpayable",
      "type": "function"
    },
    {
      "inputs": [
        {
          "internalType": "address",
          "name": "account",
          "type": "address"
        }
      ],
      "name": "deactivateSharesFor",
      "outputs": [],
      "stateMutability": "nonpayable",
      "type": "function"
    },
    {
      "inputs": [],
      "name": "defaultRecipient",
      "outputs": [
        {
          "internalType": "address",
          "name": "",
          "type": "address"
        }
      ],
      "stateMutability": "view",
      "type": "function"
    },
    {
      "inputs": [],
      "name": "distributeRewards",
      "outputs": [
        {
          "internalType": "uint256",
          "name": "",
          "type": "uint256"
        }
      ],
      "stateMutability": "nonpayable",
      "type": "function"
    },
    {
      "inputs": [],
      "name": "ethmxRewards",
      "outputs": [
        {
          "internalType": "address",
          "name": "",
          "type": "address"
        }
      ],
      "stateMutability": "view",
      "type": "function"
    },
    {
      "inputs": [],
      "name": "ethtx",
      "outputs": [
        {
          "internalType": "address",
          "name": "",
          "type": "address"
        }
      ],
      "stateMutability": "view",
      "type": "function"
    },
    {
      "inputs": [],
      "name": "ethtxAMM",
      "outputs": [
        {
          "internalType": "address",
          "name": "",
          "type": "address"
        }
      ],
      "stateMutability": "view",
      "type": "function"
    },
    {
      "inputs": [
        {
          "components": [
            {
              "internalType": "address",
              "name": "defaultRecipient",
              "type": "address"
            },
            {
              "internalType": "address",
              "name": "rewardsToken",
              "type": "address"
            },
            {
              "internalType": "address",
              "name": "ethmxRewards",
              "type": "address"
            },
            {
              "internalType": "address",
              "name": "ethtx",
              "type": "address"
            },
            {
              "internalType": "address",
              "name": "ethtxAMM",
              "type": "address"
            },
            {
              "internalType": "address",
              "name": "lpRewards",
              "type": "address"
            },
            {
              "components": [
                {
                  "internalType": "address",
                  "name": "account",
                  "type": "address"
                },
                {
                  "internalType": "uint128",
                  "name": "value",
                  "type": "uint128"
                },
                {
                  "internalType": "bool",
                  "name": "isActive",
                  "type": "bool"
                }
              ],
              "internalType": "struct IRewardsManager.ShareData[]",
              "name": "shares",
              "type": "tuple[]"
            }
          ],
          "internalType": "struct ETHtxRewardsManager.ETHtxRewardsManagerArgs",
          "name": "_args",
          "type": "tuple"
        }
      ],
      "name": "ethtxRewardsManagerPostInit",
      "outputs": [],
      "stateMutability": "nonpayable",
      "type": "function"
    },
    {
      "inputs": [
        {
          "internalType": "address",
          "name": "owner_",
          "type": "address"
        }
      ],
      "name": "init",
      "outputs": [],
      "stateMutability": "nonpayable",
      "type": "function"
    },
    {
      "inputs": [],
      "name": "lpRewards",
      "outputs": [
        {
          "internalType": "address",
          "name": "",
          "type": "address"
        }
      ],
      "stateMutability": "view",
      "type": "function"
    },
    {
      "inputs": [],
      "name": "notifyRecipients",
      "outputs": [],
      "stateMutability": "nonpayable",
      "type": "function"
    },
    {
      "inputs": [],
      "name": "owner",
      "outputs": [
        {
          "internalType": "address",
          "name": "",
          "type": "address"
        }
      ],
      "stateMutability": "view",
      "type": "function"
    },
    {
      "inputs": [
        {
          "components": [
            {
              "internalType": "address",
              "name": "defaultRecipient",
              "type": "address"
            },
            {
              "internalType": "address",
              "name": "rewardsToken",
              "type": "address"
            },
            {
              "components": [
                {
                  "internalType": "address",
                  "name": "account",
                  "type": "address"
                },
                {
                  "internalType": "uint128",
                  "name": "value",
                  "type": "uint128"
                },
                {
                  "internalType": "bool",
                  "name": "isActive",
                  "type": "bool"
                }
              ],
              "internalType": "struct IRewardsManager.ShareData[]",
              "name": "shares",
              "type": "tuple[]"
            }
          ],
          "internalType": "struct RewardsManager.RewardsManagerArgs",
          "name": "_args",
          "type": "tuple"
        }
      ],
      "name": "postInit",
      "outputs": [],
      "stateMutability": "nonpayable",
      "type": "function"
    },
    {
      "inputs": [
        {
          "internalType": "address",
          "name": "token",
          "type": "address"
        },
        {
          "internalType": "address",
          "name": "to",
          "type": "address"
        },
        {
          "internalType": "uint256",
          "name": "amount",
          "type": "uint256"
        }
      ],
      "name": "recoverUnsupportedERC20",
      "outputs": [],
      "stateMutability": "nonpayable",
      "type": "function"
    },
    {
      "inputs": [
        {
          "internalType": "address",
          "name": "account",
          "type": "address"
        },
        {
          "internalType": "uint128",
          "name": "amount",
          "type": "uint128"
        }
      ],
      "name": "removeShares",
      "outputs": [],
      "stateMutability": "nonpayable",
      "type": "function"
    },
    {
      "inputs": [],
      "name": "renounceOwnership",
      "outputs": [],
      "stateMutability": "nonpayable",
      "type": "function"
    },
    {
      "inputs": [],
      "name": "rewardsToken",
      "outputs": [
        {
          "internalType": "address",
          "name": "",
          "type": "address"
        }
      ],
      "stateMutability": "view",
      "type": "function"
    },
    {
      "inputs": [],
      "name": "sendRewards",
      "outputs": [
        {
          "internalType": "uint256",
          "name": "",
          "type": "uint256"
        }
      ],
      "stateMutability": "nonpayable",
      "type": "function"
    },
    {
      "inputs": [
        {
          "internalType": "address",
          "name": "account",
          "type": "address"
        }
      ],
      "name": "setDefaultRecipient",
      "outputs": [],
      "stateMutability": "nonpayable",
      "type": "function"
    },
    {
      "inputs": [
        {
          "internalType": "address",
          "name": "account",
          "type": "address"
        }
      ],
      "name": "setEthmxRewards",
      "outputs": [],
      "stateMutability": "nonpayable",
      "type": "function"
    },
    {
      "inputs": [
        {
          "internalType": "address",
          "name": "account",
          "type": "address"
        }
      ],
      "name": "setEthtx",
      "outputs": [],
      "stateMutability": "nonpayable",
      "type": "function"
    },
    {
      "inputs": [
        {
          "internalType": "address",
          "name": "account",
          "type": "address"
        }
      ],
      "name": "setEthtxAMM",
      "outputs": [],
      "stateMutability": "nonpayable",
      "type": "function"
    },
    {
      "inputs": [
        {
          "internalType": "address",
          "name": "account",
          "type": "address"
        }
      ],
      "name": "setLPRewards",
      "outputs": [],
      "stateMutability": "nonpayable",
      "type": "function"
    },
    {
      "inputs": [
        {
          "internalType": "address",
          "name": "token",
          "type": "address"
        }
      ],
      "name": "setRewardsToken",
      "outputs": [],
      "stateMutability": "nonpayable",
      "type": "function"
    },
    {
      "inputs": [
        {
          "internalType": "address",
          "name": "account",
          "type": "address"
        },
        {
          "internalType": "uint128",
          "name": "value",
          "type": "uint128"
        },
        {
          "internalType": "bool",
          "name": "isActive",
          "type": "bool"
        }
      ],
      "name": "setShares",
      "outputs": [],
      "stateMutability": "nonpayable",
      "type": "function"
    },
    {
      "inputs": [
        {
          "components": [
            {
              "internalType": "address",
              "name": "account",
              "type": "address"
            },
            {
              "internalType": "uint128",
              "name": "value",
              "type": "uint128"
            },
            {
              "internalType": "bool",
              "name": "isActive",
              "type": "bool"
            }
          ],
          "internalType": "struct IRewardsManager.ShareData[]",
          "name": "batch",
          "type": "tuple[]"
        }
      ],
      "name": "setSharesBatch",
      "outputs": [],
      "stateMutability": "nonpayable",
      "type": "function"
    },
    {
      "inputs": [
        {
          "internalType": "address",
          "name": "account",
          "type": "address"
        }
      ],
      "name": "sharesFor",
      "outputs": [
        {
          "internalType": "uint128",
          "name": "active",
          "type": "uint128"
        },
        {
          "internalType": "uint128",
          "name": "total",
          "type": "uint128"
        }
      ],
      "stateMutability": "view",
      "type": "function"
    },
    {
      "inputs": [],
      "name": "totalRewardsAccrued",
      "outputs": [
        {
          "internalType": "uint256",
          "name": "",
          "type": "uint256"
        }
      ],
      "stateMutability": "view",
      "type": "function"
    },
    {
      "inputs": [],
      "name": "totalRewardsRedeemed",
      "outputs": [
        {
          "internalType": "uint256",
          "name": "",
          "type": "uint256"
        }
      ],
      "stateMutability": "view",
      "type": "function"
    },
    {
      "inputs": [],
      "name": "totalShares",
      "outputs": [
        {
          "internalType": "uint256",
          "name": "total",
          "type": "uint256"
        }
      ],
      "stateMutability": "view",
      "type": "function"
    },
    {
      "inputs": [
        {
          "internalType": "address",
          "name": "newOwner",
          "type": "address"
        }
      ],
      "name": "transferOwnership",
      "outputs": [],
      "stateMutability": "nonpayable",
      "type": "function"
    }
  ],
  "transactionHash": "0x24219b018c44389e159ec4090f42cfd48dfab8ef6985c09f4e53739e630f3501",
  "args": [
    "0x8e1b28FAa8C3A79BE31b5B6982221F18f4A0FA29"
  ],
  "solcInputHash": "b64ed1bd0442f95fc842a0027542327b",
  "bytecode": "0x60806040523480156200001157600080fd5b5060405162004855380380620048558339810160408190526200003491620002c9565b80620000408162000048565b5050620002f9565b600054610100900460ff16806200006457506200006462000108565b8062000073575060005460ff16155b620000b05760405162461bcd60e51b815260040180806020018281038252602e81526020018062004827602e913960400191505060405180910390fd5b600054610100900460ff16158015620000dc576000805460ff1961ff0019909116610100171660011790555b620000e662000126565b620000f182620001d0565b801562000104576000805461ff00191690555b5050565b60006200012030620002c360201b620029e11760201c565b15905090565b600054610100900460ff16806200014257506200014262000108565b8062000151575060005460ff16155b6200018e5760405162461bcd60e51b815260040180806020018281038252602e81526020018062004827602e913960400191505060405180910390fd5b600054610100900460ff16158015620001ba576000805460ff1961ff0019909116610100171660011790555b8015620001cd576000805461ff00191690555b50565b600054610100900460ff1680620001ec5750620001ec62000108565b80620001fb575060005460ff16155b620002385760405162461bcd60e51b815260040180806020018281038252602e81526020018062004827602e913960400191505060405180910390fd5b600054610100900460ff1615801562000264576000805460ff1961ff0019909116610100171660011790555b603380546001600160a01b0319166001600160a01b0384169081179091556040516000907f8be0079c531659141344cd1fd0a4f28419497f9722a3daafe3b4186f6b6457e0908290a3801562000104576000805461ff00191690555050565b3b151590565b600060208284031215620002db578081fd5b81516001600160a01b0381168114620002f2578182fd5b9392505050565b61451e80620003096000396000f3fe608060405234801561001057600080fd5b50600436106102415760003560e01c806386a86d4111610145578063b1ebd5d6116100bd578063e0a9da6a1161008c578063f2fde38b11610071578063f2fde38b14610429578063fa8c076f1461043c578063fd1443101461044f57610241565b8063e0a9da6a1461040e578063f14744b11461042157610241565b8063b1ebd5d6146103cd578063bb99ba58146103e0578063d1af0c7d146103f3578063de320cc1146103fb57610241565b8063902dd1861161011457806395a1297a116100f957806395a1297a146103aa57806395cb1b1e146103b2578063a05d9473146103ba57610241565b8063902dd1861461039a57806391387b15146103a257610241565b806386a86d41146103595780638da5cb5b1461036c5780638ed6f262146103745780638f3113db1461038757610241565b80634b0af560116101d85780636f4a2cd0116101a7578063715018a61161018c578063715018a6146103365780637a3c95211461033e578063860c19f31461035157610241565b80636f4a2cd0146103265780636fd1bc831461032e57610241565b80634b0af560146102cc5780634f7a6c3c146102df5780636c7a0068146102f25780636eb854c81461030557610241565b806319ab453c1161021457806319ab453c1461027e57806320a639f3146102915780632d281553146102a45780633a98ef39146102b757610241565b806303e4397f1461024657806304c2861b146102505780630b5e8df9146102585780630c76214114610276575b600080fd5b61024e610457565b005b61024e610469565b610260610479565b60405161026d9190613fbd565b60405180910390f35b610260610496565b61024e61028c366004613d1d565b6104b2565b61024e61029f366004613d1d565b6105d8565b61024e6102b2366004613d1d565b610710565b6102bf6107c4565b60405161026d9190614387565b61024e6102da366004613f0a565b610846565b61024e6102ed366004613d1d565b61098a565b61024e610300366004613da4565b610d1b565b610318610313366004613d1d565b611228565b60405161026d929190614364565b6102bf61127b565b61024e6112a4565b61024e6112b4565b61024e61034c366004613dea565b6113cb565b6102bf6114d7565b61024e610367366004613d37565b6114ea565b610260611690565b61024e610382366004613d1d565b6116ac565b61024e610395366004613d1d565b61175d565b610260611895565b61024e6118b1565b6102bf611a11565b6102bf611a17565b61024e6103c8366004613d1d565b611a7f565b61024e6103db366004613d72565b611bb7565b61024e6103ee366004613e39565b611f58565b610260612277565b61024e610409366004613d1d565b612293565b61024e61041c366004613d72565b6123cb565b6102606126cf565b61024e610437366004613d1d565b6126eb565b61024e61044a366004613d1d565b61288d565b6102606129c5565b6104676104626129eb565b6129ef565b565b6104676104746129eb565b612b83565b60665473ffffffffffffffffffffffffffffffffffffffff165b90565b609b5473ffffffffffffffffffffffffffffffffffffffff1690565b600054610100900460ff16806104cb57506104cb612d2c565b806104d9575060005460ff16155b61052e576040517f08c379a000000000000000000000000000000000000000000000000000000000815260040180806020018281038252602e815260200180614470602e913960400191505060405180910390fd5b600054610100900460ff1615801561059457600080547fffffffffffffffffffffffffffffffffffffffffffffffffffffffffffffff007fffffffffffffffffffffffffffffffffffffffffffffffffffffffffffff00ff909116610100171660011790555b61059c612d3d565b6105a582612e50565b80156105d457600080547fffffffffffffffffffffffffffffffffffffffffffffffffffffffffffff00ff1690555b5050565b6105e06129eb565b73ffffffffffffffffffffffffffffffffffffffff166105fe611690565b73ffffffffffffffffffffffffffffffffffffffff161461068057604080517f08c379a000000000000000000000000000000000000000000000000000000000815260206004820181905260248201527f4f776e61626c653a2063616c6c6572206973206e6f7420746865206f776e6572604482015290519081900360640190fd5b609a80547fffffffffffffffffffffffff00000000000000000000000000000000000000001673ffffffffffffffffffffffffffffffffffffffff83169081179091556106cb6129eb565b73ffffffffffffffffffffffffffffffffffffffff167f8539add575762117a99618f95a6bba75a43ab0a1709316da144c41dad05187e360405160405180910390a350565b6107186129eb565b73ffffffffffffffffffffffffffffffffffffffff16610736611690565b73ffffffffffffffffffffffffffffffffffffffff16146107b857604080517f08c379a000000000000000000000000000000000000000000000000000000000815260206004820181905260248201527f4f776e61626c653a2063616c6c6572206973206e6f7420746865206f776e6572604482015290519081900360640190fd5b6107c181612b83565b50565b6000805b6107d26068612fd2565b81101561084257606a60006107e8606884612fe3565b73ffffffffffffffffffffffffffffffffffffffff16815260208101919091526040016000205470010000000000000000000000000000000090046fffffffffffffffffffffffffffffffff1691909101906001016107c8565b5090565b61084e6129eb565b73ffffffffffffffffffffffffffffffffffffffff1661086c611690565b73ffffffffffffffffffffffffffffffffffffffff16146108ee57604080517f08c379a000000000000000000000000000000000000000000000000000000000815260206004820181905260248201527f4f776e61626c653a2063616c6c6572206973206e6f7420746865206f776e6572604482015290519081900360640190fd5b60006108f86129eb565b6020830151606580547fffffffffffffffffffffffff00000000000000000000000000000000000000001673ffffffffffffffffffffffffffffffffffffffff92831690811790915560405192935091908316907f7d7a6e0febb00fa099988e85a4dcf58c7297875e1bd06fe1e764c71619ee3a2090600090a3815161097d9061098a565b6105d482604001516113cb565b6109926129eb565b73ffffffffffffffffffffffffffffffffffffffff166109b0611690565b73ffffffffffffffffffffffffffffffffffffffff1614610a3257604080517f08c379a000000000000000000000000000000000000000000000000000000000815260206004820181905260248201527f4f776e61626c653a2063616c6c6572206973206e6f7420746865206f776e6572604482015290519081900360640190fd5b73ffffffffffffffffffffffffffffffffffffffff8116610a88576040517f08c379a0000000000000000000000000000000000000000000000000000000008152600401610a7f906142c6565b60405180910390fd5b73ffffffffffffffffffffffffffffffffffffffff8116301415610ad8576040517f08c379a0000000000000000000000000000000000000000000000000000000008152600401610a7f90614269565b610ae181612b83565b60665473ffffffffffffffffffffffffffffffffffffffff166000908152606a6020526040902080546fffffffffffffffffffffffffffffffff7001000000000000000000000000000000008204811691161115610c175780546fffffffffffffffffffffffffffffffff700100000000000000000000000000000000820481168183169081039081900382167fffffffffffffffffffffffffffffffff0000000000000000000000000000000090931692909217835573ffffffffffffffffffffffffffffffffffffffff84166000908152606a6020526040902080549091610bd991610bd491908116908516612ff6565b61306a565b81547fffffffffffffffffffffffffffffffff00000000000000000000000000000000166fffffffffffffffffffffffffffffffff91909116179055505b805470010000000000000000000000000000000090046fffffffffffffffffffffffffffffffff16610c6a57606654610c689060689073ffffffffffffffffffffffffffffffffffffffff166130d5565b505b606680547fffffffffffffffffffffffff00000000000000000000000000000000000000001673ffffffffffffffffffffffffffffffffffffffff8416179055610cb56068836130f7565b508173ffffffffffffffffffffffffffffffffffffffff16610cd56129eb565b73ffffffffffffffffffffffffffffffffffffffff167f825991f9f9f950375f4d3f04c94283f5f7ea10aa441c6d43cb0e4c7bdce517bf60405160405180910390a35050565b610d236129eb565b73ffffffffffffffffffffffffffffffffffffffff16610d41611690565b73ffffffffffffffffffffffffffffffffffffffff1614610dc357604080517f08c379a000000000000000000000000000000000000000000000000000000000815260206004820181905260248201527f4f776e61626c653a2063616c6c6572206973206e6f7420746865206f776e6572604482015290519081900360640190fd5b73ffffffffffffffffffffffffffffffffffffffff8316610e10576040517f08c379a0000000000000000000000000000000000000000000000000000000008152600401610a7f906140f5565b73ffffffffffffffffffffffffffffffffffffffff8316301415610e60576040517f08c379a0000000000000000000000000000000000000000000000000000000008152600401610a7f90613fde565b60665473ffffffffffffffffffffffffffffffffffffffff9081166000818152606a6020526040902090918516821415610fa7578054610edb90610bd4906fffffffffffffffffffffffffffffffff80881691610ed59181811691700100000000000000000000000000000000900416613119565b90612ff6565b81547fffffffffffffffffffffffffffffffff00000000000000000000000000000000166fffffffffffffffffffffffffffffffff9182161781167001000000000000000000000000000000009186169190910217815573ffffffffffffffffffffffffffffffffffffffff8516610f516129eb565b73ffffffffffffffffffffffffffffffffffffffff167f4de46491e6981c5a2286f73b7825775a2141c4927704f3ba93a109c6cd9487ef8686604051610f98929190614340565b60405180910390a35050611223565b73ffffffffffffffffffffffffffffffffffffffff85166000908152606a60205260409020805470010000000000000000000000000000000090046fffffffffffffffffffffffffffffffff1615801590611013575080546fffffffffffffffffffffffffffffffff16155b15611090578054825461105391610bd4916fffffffffffffffffffffffffffffffff90811691700100000000000000000000000000000000900416613119565b82547fffffffffffffffffffffffffffffffff00000000000000000000000000000000166fffffffffffffffffffffffffffffffff919091161782555b836111225780547fffffffffffffffffffffffffffffffff0000000000000000000000000000000016815581546110e190610bd4906fffffffffffffffffffffffffffffffff908116908816612ff6565b82547fffffffffffffffffffffffffffffffff00000000000000000000000000000000166fffffffffffffffffffffffffffffffff9190911617825561115d565b80547fffffffffffffffffffffffffffffffff00000000000000000000000000000000166fffffffffffffffffffffffffffffffff86161781555b80546fffffffffffffffffffffffffffffffff808716700100000000000000000000000000000000810291909216178255156111a45761119e6068876130f7565b506111b1565b6111af6068876130d5565b505b8573ffffffffffffffffffffffffffffffffffffffff166111d06129eb565b73ffffffffffffffffffffffffffffffffffffffff167f4de46491e6981c5a2286f73b7825775a2141c4927704f3ba93a109c6cd9487ef8787604051611217929190614340565b60405180910390a35050505b505050565b73ffffffffffffffffffffffffffffffffffffffff166000908152606a60205260409020546fffffffffffffffffffffffffffffffff808216927001000000000000000000000000000000009092041690565b60006112856118b1565b600061128f611a17565b9050801561129f5761129f6112a4565b905090565b6112ac613190565b610467613282565b6112bc6129eb565b73ffffffffffffffffffffffffffffffffffffffff166112da611690565b73ffffffffffffffffffffffffffffffffffffffff161461135c57604080517f08c379a000000000000000000000000000000000000000000000000000000000815260206004820181905260248201527f4f776e61626c653a2063616c6c6572206973206e6f7420746865206f776e6572604482015290519081900360640190fd5b60335460405160009173ffffffffffffffffffffffffffffffffffffffff16907f8be0079c531659141344cd1fd0a4f28419497f9722a3daafe3b4186f6b6457e0908390a3603380547fffffffffffffffffffffffff0000000000000000000000000000000000000000169055565b6113d36129eb565b73ffffffffffffffffffffffffffffffffffffffff166113f1611690565b73ffffffffffffffffffffffffffffffffffffffff161461147357604080517f08c379a000000000000000000000000000000000000000000000000000000000815260206004820181905260248201527f4f776e61626c653a2063616c6c6572206973206e6f7420746865206f776e6572604482015290519081900360640190fd5b60005b81518110156105d4576114cf82828151811061148e57fe5b6020026020010151600001518383815181106114a657fe5b6020026020010151602001518484815181106114be57fe5b602002602001015160400151610d1b565b600101611476565b60006067546114e46132eb565b01905090565b6114f26129eb565b73ffffffffffffffffffffffffffffffffffffffff16611510611690565b73ffffffffffffffffffffffffffffffffffffffff161461159257604080517f08c379a000000000000000000000000000000000000000000000000000000000815260206004820181905260248201527f4f776e61626c653a2063616c6c6572206973206e6f7420746865206f776e6572604482015290519081900360640190fd5b60655473ffffffffffffffffffffffffffffffffffffffff848116911614156115e7576040517f08c379a0000000000000000000000000000000000000000000000000000000008152600401610a7f9061403b565b61160873ffffffffffffffffffffffffffffffffffffffff84168383613392565b8173ffffffffffffffffffffffffffffffffffffffff168373ffffffffffffffffffffffffffffffffffffffff1661163e6129eb565b73ffffffffffffffffffffffffffffffffffffffff167feaf4cea276efdcae93a52ca2f4bfdd952992169289bf655b1870a4b20bdae7d6846040516116839190614387565b60405180910390a4505050565b60335473ffffffffffffffffffffffffffffffffffffffff1690565b6116b46129eb565b73ffffffffffffffffffffffffffffffffffffffff166116d2611690565b73ffffffffffffffffffffffffffffffffffffffff161461175457604080517f08c379a000000000000000000000000000000000000000000000000000000000815260206004820181905260248201527f4f776e61626c653a2063616c6c6572206973206e6f7420746865206f776e6572604482015290519081900360640190fd5b6107c1816129ef565b6117656129eb565b73ffffffffffffffffffffffffffffffffffffffff16611783611690565b73ffffffffffffffffffffffffffffffffffffffff161461180557604080517f08c379a000000000000000000000000000000000000000000000000000000000815260206004820181905260248201527f4f776e61626c653a2063616c6c6572206973206e6f7420746865206f776e6572604482015290519081900360640190fd5b609b80547fffffffffffffffffffffffff00000000000000000000000000000000000000001673ffffffffffffffffffffffffffffffffffffffff83169081179091556118506129eb565b73ffffffffffffffffffffffffffffffffffffffff167f235269a97f3db7c81a489bee1ec395b6bdaff5031bd449e6dc8b4ad63c9c40ad60405160405180910390a350565b60995473ffffffffffffffffffffffffffffffffffffffff1690565b60006118bb611895565b905060008173ffffffffffffffffffffffffffffffffffffffff166370a08231306040518263ffffffff1660e01b81526004016118f89190613fbd565b60206040518083038186803b15801561191057600080fd5b505afa158015611924573d6000803e3d6000fd5b505050506040513d601f19601f820116820180604052508101906119489190613fa5565b905080611956575050610467565b60006119606126cf565b905061198373ffffffffffffffffffffffffffffffffffffffff8416828461341f565b6040517fa2bc9c2000000000000000000000000000000000000000000000000000000000815273ffffffffffffffffffffffffffffffffffffffff82169063a2bc9c20906119da9085904290600190600401614390565b600060405180830381600087803b1580156119f457600080fd5b505af1158015611a08573d6000803e3d6000fd5b50505050505050565b60675490565b600080611a226132eb565b905080611a33576000915050610493565b6000611a3d6107c4565b905060005b611a4c6068612fd2565b811015611a7057611a68611a61606883612fe3565b838561356c565b600101611a42565b50506067805482019055905090565b611a876129eb565b73ffffffffffffffffffffffffffffffffffffffff16611aa5611690565b73ffffffffffffffffffffffffffffffffffffffff1614611b2757604080517f08c379a000000000000000000000000000000000000000000000000000000000815260206004820181905260248201527f4f776e61626c653a2063616c6c6572206973206e6f7420746865206f776e6572604482015290519081900360640190fd5b609880547fffffffffffffffffffffffff00000000000000000000000000000000000000001673ffffffffffffffffffffffffffffffffffffffff8316908117909155611b726129eb565b73ffffffffffffffffffffffffffffffffffffffff167fbb9584ffb9a5cc5bce10032c620b1385c0768c39bd81b275e7c10f6b421fa14760405160405180910390a350565b611bbf6129eb565b73ffffffffffffffffffffffffffffffffffffffff16611bdd611690565b73ffffffffffffffffffffffffffffffffffffffff1614611c5f57604080517f08c379a000000000000000000000000000000000000000000000000000000000815260206004820181905260248201527f4f776e61626c653a2063616c6c6572206973206e6f7420746865206f776e6572604482015290519081900360640190fd5b73ffffffffffffffffffffffffffffffffffffffff8216611cac576040517f08c379a0000000000000000000000000000000000000000000000000000000008152600401610a7f906141af565b73ffffffffffffffffffffffffffffffffffffffff8216301415611cfc576040517f08c379a0000000000000000000000000000000000000000000000000000000008152600401610a7f9061420c565b6fffffffffffffffffffffffffffffffff8116611d45576040517f08c379a0000000000000000000000000000000000000000000000000000000008152600401610a7f90614098565b73ffffffffffffffffffffffffffffffffffffffff82166000908152606a6020526040902080546fffffffffffffffffffffffffffffffff16611e105760665473ffffffffffffffffffffffffffffffffffffffff166000908152606a602052604090208054611dcf90610bd4906fffffffffffffffffffffffffffffffff908116908616612ff6565b81547fffffffffffffffffffffffffffffffff00000000000000000000000000000000166fffffffffffffffffffffffffffffffff91909116179055611e73565b8054611e3690610bd4906fffffffffffffffffffffffffffffffff908116908516612ff6565b81547fffffffffffffffffffffffffffffffff00000000000000000000000000000000166fffffffffffffffffffffffffffffffff919091161781555b8054611ead90610bd49070010000000000000000000000000000000090046fffffffffffffffffffffffffffffffff908116908516612ff6565b81546fffffffffffffffffffffffffffffffff918216700100000000000000000000000000000000029116178155611ee66068846130f7565b508273ffffffffffffffffffffffffffffffffffffffff16611f066129eb565b73ffffffffffffffffffffffffffffffffffffffff167fb0526516c002a40f095ce404988798881dbee27cd25699cd9decde3702993da784604051611f4b9190614323565b60405180910390a3505050565b611f606129eb565b73ffffffffffffffffffffffffffffffffffffffff16611f7e611690565b73ffffffffffffffffffffffffffffffffffffffff161461200057604080517f08c379a000000000000000000000000000000000000000000000000000000000815260206004820181905260248201527f4f776e61626c653a2063616c6c6572206973206e6f7420746865206f776e6572604482015290519081900360640190fd5b600061200a6129eb565b6020830151606580547fffffffffffffffffffffffff00000000000000000000000000000000000000001673ffffffffffffffffffffffffffffffffffffffff92831690811790915560405192935091908316907f7d7a6e0febb00fa099988e85a4dcf58c7297875e1bd06fe1e764c71619ee3a2090600090a3815161208f9061098a565b604082810151609880547fffffffffffffffffffffffff00000000000000000000000000000000000000001673ffffffffffffffffffffffffffffffffffffffff9283169081179091559151908316907fbb9584ffb9a5cc5bce10032c620b1385c0768c39bd81b275e7c10f6b421fa14790600090a36060820151609980547fffffffffffffffffffffffff00000000000000000000000000000000000000001673ffffffffffffffffffffffffffffffffffffffff92831690811790915560405190918316907fdbf8baa510d0cc960f9bd90d5ef0c247e25196790bd4e15b4bbe0e095d0de3a890600090a36080820151609a80547fffffffffffffffffffffffff00000000000000000000000000000000000000001673ffffffffffffffffffffffffffffffffffffffff92831690811790915560405190918316907f8539add575762117a99618f95a6bba75a43ab0a1709316da144c41dad05187e390600090a360a0820151609b80547fffffffffffffffffffffffff00000000000000000000000000000000000000001673ffffffffffffffffffffffffffffffffffffffff92831690811790915560405190918316907f235269a97f3db7c81a489bee1ec395b6bdaff5031bd449e6dc8b4ad63c9c40ad90600090a36105d48260c001516113cb565b60655473ffffffffffffffffffffffffffffffffffffffff1690565b61229b6129eb565b73ffffffffffffffffffffffffffffffffffffffff166122b9611690565b73ffffffffffffffffffffffffffffffffffffffff161461233b57604080517f08c379a000000000000000000000000000000000000000000000000000000000815260206004820181905260248201527f4f776e61626c653a2063616c6c6572206973206e6f7420746865206f776e6572604482015290519081900360640190fd5b606580547fffffffffffffffffffffffff00000000000000000000000000000000000000001673ffffffffffffffffffffffffffffffffffffffff83169081179091556123866129eb565b73ffffffffffffffffffffffffffffffffffffffff167f7d7a6e0febb00fa099988e85a4dcf58c7297875e1bd06fe1e764c71619ee3a2060405160405180910390a350565b6123d36129eb565b73ffffffffffffffffffffffffffffffffffffffff166123f1611690565b73ffffffffffffffffffffffffffffffffffffffff161461247357604080517f08c379a000000000000000000000000000000000000000000000000000000000815260206004820181905260248201527f4f776e61626c653a2063616c6c6572206973206e6f7420746865206f776e6572604482015290519081900360640190fd5b6fffffffffffffffffffffffffffffffff81166124bc576040517f08c379a0000000000000000000000000000000000000000000000000000000008152600401610a7f90614152565b73ffffffffffffffffffffffffffffffffffffffff82166000908152606a6020526040902080546fffffffffffffffffffffffffffffffff166125875760665473ffffffffffffffffffffffffffffffffffffffff166000908152606a60205260409020805461254690610bd4906fffffffffffffffffffffffffffffffff908116908616613119565b81547fffffffffffffffffffffffffffffffff00000000000000000000000000000000166fffffffffffffffffffffffffffffffff919091161790556125ea565b80546125ad90610bd4906fffffffffffffffffffffffffffffffff908116908516613119565b81547fffffffffffffffffffffffffffffffff00000000000000000000000000000000166fffffffffffffffffffffffffffffffff919091161781555b805461262490610bd49070010000000000000000000000000000000090046fffffffffffffffffffffffffffffffff908116908516613119565b81546fffffffffffffffffffffffffffffffff908116700100000000000000000000000000000000928216830217808455919091041661266b576126696068846130d5565b505b8273ffffffffffffffffffffffffffffffffffffffff1661268a6129eb565b73ffffffffffffffffffffffffffffffffffffffff167f5fb77bf2c7b86e2345c2fc7c204ec8d8c378d00526c58afbb2a61d3350b2df5c84604051611f4b9190614323565b609a5473ffffffffffffffffffffffffffffffffffffffff1690565b6126f36129eb565b73ffffffffffffffffffffffffffffffffffffffff16612711611690565b73ffffffffffffffffffffffffffffffffffffffff161461279357604080517f08c379a000000000000000000000000000000000000000000000000000000000815260206004820181905260248201527f4f776e61626c653a2063616c6c6572206973206e6f7420746865206f776e6572604482015290519081900360640190fd5b73ffffffffffffffffffffffffffffffffffffffff81166127ff576040517f08c379a00000000000000000000000000000000000000000000000000000000081526004018080602001828103825260268152602001806143fd6026913960400191505060405180910390fd5b60335460405173ffffffffffffffffffffffffffffffffffffffff8084169216907f8be0079c531659141344cd1fd0a4f28419497f9722a3daafe3b4186f6b6457e090600090a3603380547fffffffffffffffffffffffff00000000000000000000000000000000000000001673ffffffffffffffffffffffffffffffffffffffff92909216919091179055565b6128956129eb565b73ffffffffffffffffffffffffffffffffffffffff166128b3611690565b73ffffffffffffffffffffffffffffffffffffffff161461293557604080517f08c379a000000000000000000000000000000000000000000000000000000000815260206004820181905260248201527f4f776e61626c653a2063616c6c6572206973206e6f7420746865206f776e6572604482015290519081900360640190fd5b609980547fffffffffffffffffffffffff00000000000000000000000000000000000000001673ffffffffffffffffffffffffffffffffffffffff83169081179091556129806129eb565b73ffffffffffffffffffffffffffffffffffffffff167fdbf8baa510d0cc960f9bd90d5ef0c247e25196790bd4e15b4bbe0e095d0de3a860405160405180910390a350565b60985473ffffffffffffffffffffffffffffffffffffffff1690565b803b15155b919050565b3390565b60665473ffffffffffffffffffffffffffffffffffffffff82811691161415612a17576107c1565b73ffffffffffffffffffffffffffffffffffffffff81166000908152606a6020526040902080546fffffffffffffffffffffffffffffffff16612a5a57506107c1565b60665473ffffffffffffffffffffffffffffffffffffffff166000908152606a6020526040902081547fffffffffffffffffffffffffffffffff00000000000000000000000000000000168083558154612ae191610bd4916fffffffffffffffffffffffffffffffff90811691700100000000000000000000000000000000900416612ff6565b81547fffffffffffffffffffffffffffffffff00000000000000000000000000000000166fffffffffffffffffffffffffffffffff9190911617815573ffffffffffffffffffffffffffffffffffffffff8316612b3c6129eb565b73ffffffffffffffffffffffffffffffffffffffff167f3fbaeb975b6f6e0cc02bfd572112307889d79b6d7154796814aff3e145df5dde60405160405180910390a3505050565b73ffffffffffffffffffffffffffffffffffffffff81166000908152606a60205260409020805470010000000000000000000000000000000090046fffffffffffffffffffffffffffffffff161580612bee575080546fffffffffffffffffffffffffffffffff1615155b15612bf957506107c1565b60665473ffffffffffffffffffffffffffffffffffffffff166000908152606a6020526040902081547fffffffffffffffffffffffffffffffff0000000000000000000000000000000081166fffffffffffffffffffffffffffffffff700100000000000000000000000000000000928390048116919091178085558354612c8a93610bd493918216920416613119565b81547fffffffffffffffffffffffffffffffff00000000000000000000000000000000166fffffffffffffffffffffffffffffffff9190911617815573ffffffffffffffffffffffffffffffffffffffff8316612ce56129eb565b73ffffffffffffffffffffffffffffffffffffffff167f40b03d881bb709e31f47030e8d2981dfe8ba639a47b9d36367953e8e754a086060405160405180910390a3505050565b6000612d37306129e1565b15905090565b600054610100900460ff1680612d565750612d56612d2c565b80612d64575060005460ff16155b612db9576040517f08c379a000000000000000000000000000000000000000000000000000000000815260040180806020018281038252602e815260200180614470602e913960400191505060405180910390fd5b600054610100900460ff16158015612e1f57600080547fffffffffffffffffffffffffffffffffffffffffffffffffffffffffffffff007fffffffffffffffffffffffffffffffffffffffffffffffffffffffffffff00ff909116610100171660011790555b80156107c157600080547fffffffffffffffffffffffffffffffffffffffffffffffffffffffffffff00ff16905550565b600054610100900460ff1680612e695750612e69612d2c565b80612e77575060005460ff16155b612ecc576040517f08c379a000000000000000000000000000000000000000000000000000000000815260040180806020018281038252602e815260200180614470602e913960400191505060405180910390fd5b600054610100900460ff16158015612f3257600080547fffffffffffffffffffffffffffffffffffffffffffffffffffffffffffffff007fffffffffffffffffffffffffffffffffffffffffffffffffffffffffffff00ff909116610100171660011790555b603380547fffffffffffffffffffffffff00000000000000000000000000000000000000001673ffffffffffffffffffffffffffffffffffffffff84169081179091556040516000907f8be0079c531659141344cd1fd0a4f28419497f9722a3daafe3b4186f6b6457e0908290a380156105d457600080547fffffffffffffffffffffffffffffffffffffffffffffffffffffffffffff00ff1690555050565b6000612fdd826135e6565b92915050565b6000612fef83836135ea565b9392505050565b600082820183811015612fef57604080517f08c379a000000000000000000000000000000000000000000000000000000000815260206004820152601b60248201527f536166654d6174683a206164646974696f6e206f766572666c6f770000000000604482015290519081900360640190fd5b60007001000000000000000000000000000000008210610842576040517f08c379a00000000000000000000000000000000000000000000000000000000081526004018080602001828103825260278152602001806144236027913960400191505060405180910390fd5b6000612fef8373ffffffffffffffffffffffffffffffffffffffff8416613668565b6000612fef8373ffffffffffffffffffffffffffffffffffffffff841661374c565b60008282111561318a57604080517f08c379a000000000000000000000000000000000000000000000000000000000815260206004820152601e60248201527f536166654d6174683a207375627472616374696f6e206f766572666c6f770000604482015290519081900360640190fd5b50900390565b600061319a6129c5565b90508073ffffffffffffffffffffffffffffffffffffffff1663bfb0efab6040518163ffffffff1660e01b815260040160206040518083038186803b1580156131e257600080fd5b505afa1580156131f6573d6000803e3d6000fd5b505050506040513d601f19601f8201168201806040525081019061321a9190613e1d565b156107c1578073ffffffffffffffffffffffffffffffffffffffff16633ad661276040518163ffffffff1660e01b8152600401600060405180830381600087803b15801561326757600080fd5b505af115801561327b573d6000803e3d6000fd5b5050505050565b61328a610496565b73ffffffffffffffffffffffffffffffffffffffff16633ad661276040518163ffffffff1660e01b8152600401600060405180830381600087803b1580156132d157600080fd5b505af11580156132e5573d6000803e3d6000fd5b50505050565b6065546040517f70a0823100000000000000000000000000000000000000000000000000000000815260009173ffffffffffffffffffffffffffffffffffffffff16906370a0823190613342903090600401613fbd565b60206040518083038186803b15801561335a57600080fd5b505afa15801561336e573d6000803e3d6000fd5b505050506040513d601f19601f8201168201806040525081019061129f9190613fa5565b6040805173ffffffffffffffffffffffffffffffffffffffff8416602482015260448082018490528251808303909101815260649091019091526020810180517bffffffffffffffffffffffffffffffffffffffffffffffffffffffff167fa9059cbb00000000000000000000000000000000000000000000000000000000179052611223908490613796565b60006134dc828573ffffffffffffffffffffffffffffffffffffffff1663dd62ed3e30876040518363ffffffff1660e01b8152600401808373ffffffffffffffffffffffffffffffffffffffff1681526020018273ffffffffffffffffffffffffffffffffffffffff1681526020019250505060206040518083038186803b1580156134aa57600080fd5b505afa1580156134be573d6000803e3d6000fd5b505050506040513d60208110156134d457600080fd5b505190612ff6565b6040805173ffffffffffffffffffffffffffffffffffffffff8616602482015260448082018490528251808303909101815260649091019091526020810180517bffffffffffffffffffffffffffffffffffffffffffffffffffffffff167f095ea7b3000000000000000000000000000000000000000000000000000000001790529091506132e5908590613796565b73ffffffffffffffffffffffffffffffffffffffff83166000908152606a6020526040812080549091906135bf9085906135b99086906fffffffffffffffffffffffffffffffff1661386e565b906138e1565b60655490915061327b9073ffffffffffffffffffffffffffffffffffffffff168683613392565b5490565b81546000908210613646576040517f08c379a00000000000000000000000000000000000000000000000000000000081526004018080602001828103825260228152602001806143db6022913960400191505060405180910390fd5b82600001828154811061365557fe5b9060005260206000200154905092915050565b600081815260018301602052604081205480156137425783547fffffffffffffffffffffffffffffffffffffffffffffffffffffffffffffffff80830191908101906000908790839081106136b957fe5b90600052602060002001549050808760000184815481106136d657fe5b60009182526020808320909101929092558281526001898101909252604090209084019055865487908061370657fe5b60019003818190600052602060002001600090559055866001016000878152602001908152602001600020600090556001945050505050612fdd565b6000915050612fdd565b60006137588383613962565b61378e57508154600181810184556000848152602080822090930184905584548482528286019093526040902091909155612fdd565b506000612fdd565b60006137f8826040518060400160405280602081526020017f5361666545524332303a206c6f772d6c6576656c2063616c6c206661696c65648152508573ffffffffffffffffffffffffffffffffffffffff1661397a9092919063ffffffff16565b8051909150156112235780806020019051602081101561381757600080fd5b5051611223576040517f08c379a000000000000000000000000000000000000000000000000000000000815260040180806020018281038252602a8152602001806144bf602a913960400191505060405180910390fd5b60008261387d57506000612fdd565b8282028284828161388a57fe5b0414612fef576040517f08c379a000000000000000000000000000000000000000000000000000000000815260040180806020018281038252602181526020018061449e6021913960400191505060405180910390fd5b600080821161395157604080517f08c379a000000000000000000000000000000000000000000000000000000000815260206004820152601a60248201527f536166654d6174683a206469766973696f6e206279207a65726f000000000000604482015290519081900360640190fd5b81838161395a57fe5b049392505050565b60009081526001919091016020526040902054151590565b60606139898484600085613991565b949350505050565b6060824710156139ec576040517f08c379a000000000000000000000000000000000000000000000000000000000815260040180806020018281038252602681526020018061444a6026913960400191505060405180910390fd5b6139f5856129e1565b613a6057604080517f08c379a000000000000000000000000000000000000000000000000000000000815260206004820152601d60248201527f416464726573733a2063616c6c20746f206e6f6e2d636f6e7472616374000000604482015290519081900360640190fd5b6000808673ffffffffffffffffffffffffffffffffffffffff1685876040518082805190602001908083835b60208310613ac957805182527fffffffffffffffffffffffffffffffffffffffffffffffffffffffffffffffe09092019160209182019101613a8c565b6001836020036101000a03801982511681845116808217855250505050505090500191505060006040518083038185875af1925050503d8060008114613b2b576040519150601f19603f3d011682016040523d82523d6000602084013e613b30565b606091505b5091509150613b40828286613b4b565b979650505050505050565b60608315613b5a575081612fef565b825115613b6a5782518084602001fd5b816040517f08c379a00000000000000000000000000000000000000000000000000000000081526004018080602001828103825283818151815260200191508051906020019080838360005b83811015613bce578181015183820152602001613bb6565b50505050905090810190601f168015613bfb5780820380516001836020036101000a031916815260200191505b509250505060405180910390fd5b803573ffffffffffffffffffffffffffffffffffffffff811681146129e657600080fd5b600082601f830112613c3d578081fd5b8135602067ffffffffffffffff80831115613c5457fe5b613c6182838502016143a8565b838152828101908684016060808702890186018a1015613c7f578788fd5b875b87811015613cee5781838c031215613c97578889fd5b604080518381018181108982111715613cac57fe5b8252613cb785613c09565b8152613cc4898601613cfd565b8982015281850135613cd5816143cc565b9181019190915285529386019391810191600101613c81565b50919998505050505050505050565b80356fffffffffffffffffffffffffffffffff811681146129e657600080fd5b600060208284031215613d2e578081fd5b612fef82613c09565b600080600060608486031215613d4b578182fd5b613d5484613c09565b9250613d6260208501613c09565b9150604084013590509250925092565b60008060408385031215613d84578182fd5b613d8d83613c09565b9150613d9b60208401613cfd565b90509250929050565b600080600060608486031215613db8578283fd5b613dc184613c09565b9250613dcf60208501613cfd565b91506040840135613ddf816143cc565b809150509250925092565b600060208284031215613dfb578081fd5b813567ffffffffffffffff811115613e11578182fd5b61398984828501613c2d565b600060208284031215613e2e578081fd5b8151612fef816143cc565b600060208284031215613e4a578081fd5b813567ffffffffffffffff80821115613e61578283fd5b9083019060e08286031215613e74578283fd5b613e7e60e06143a8565b613e8783613c09565b8152613e9560208401613c09565b6020820152613ea660408401613c09565b6040820152613eb760608401613c09565b6060820152613ec860808401613c09565b6080820152613ed960a08401613c09565b60a082015260c083013582811115613eef578485fd5b613efb87828601613c2d565b60c08301525095945050505050565b600060208284031215613f1b578081fd5b813567ffffffffffffffff80821115613f32578283fd5b9083019060608286031215613f45578283fd5b604051606081018181108382111715613f5a57fe5b604052613f6683613c09565b8152613f7460208401613c09565b6020820152604083013582811115613f8a578485fd5b613f9687828601613c2d565b60408301525095945050505050565b600060208284031215613fb6578081fd5b5051919050565b73ffffffffffffffffffffffffffffffffffffffff91909116815260200190565b6020808252603b908201527f526577617264734d616e616765723a2063616e6e6f742073657420736861726560408201527f7320666f72207468697320636f6e747261637420616464726573730000000000606082015260800190565b6020808252602c908201527f526577617264734d616e616765723a2063616e6e6f74207265636f766572207260408201527f65776172647320746f6b656e0000000000000000000000000000000000000000606082015260800190565b60208082526026908201527f526577617264734d616e616765723a2063616e6e6f7420616464207a65726f2060408201527f7368617265730000000000000000000000000000000000000000000000000000606082015260800190565b60208082526032908201527f526577617264734d616e616765723a2063616e6e6f742073657420736861726560408201527f7320666f72207a65726f20616464726573730000000000000000000000000000606082015260800190565b60208082526029908201527f526577617264734d616e616765723a2063616e6e6f742072656d6f7665207a6560408201527f726f207368617265730000000000000000000000000000000000000000000000606082015260800190565b60208082526031908201527f526577617264734d616e616765723a2063616e6e6f742061646420736861726560408201527f7320746f207a65726f2061646472657373000000000000000000000000000000606082015260800190565b6020808252603a908201527f526577617264734d616e616765723a2063616e6e6f742061646420736861726560408201527f7320746f207468697320636f6e74726163742061646472657373000000000000606082015260800190565b6020808252602b908201527f526577617264734d616e616765723a2063616e6e6f742073657420746f20746860408201527f697320636f6e7472616374000000000000000000000000000000000000000000606082015260800190565b6020808252602a908201527f526577617264734d616e616765723a2063616e6e6f742073657420746f207a6560408201527f726f206164647265737300000000000000000000000000000000000000000000606082015260800190565b6fffffffffffffffffffffffffffffffff91909116815260200190565b6fffffffffffffffffffffffffffffffff9290921682521515602082015260400190565b6fffffffffffffffffffffffffffffffff92831681529116602082015260400190565b90815260200190565b92835260208301919091521515604082015260600190565b60405181810167ffffffffffffffff811182821017156143c457fe5b604052919050565b80151581146107c157600080fdfe456e756d657261626c655365743a20696e646578206f7574206f6620626f756e64734f776e61626c653a206e6577206f776e657220697320746865207a65726f206164647265737353616665436173743a2076616c756520646f65736e27742066697420696e203132382062697473416464726573733a20696e73756666696369656e742062616c616e636520666f722063616c6c496e697469616c697a61626c653a20636f6e747261637420697320616c726561647920696e697469616c697a6564536166654d6174683a206d756c7469706c69636174696f6e206f766572666c6f775361666545524332303a204552433230206f7065726174696f6e20646964206e6f742073756363656564a2646970667358221220f50c01ff60c07766f9b0a2435d36e1de8f5fcdc458f4df5af87c7e2e8c66fbf464736f6c63430007060033496e697469616c697a61626c653a20636f6e747261637420697320616c726561647920696e697469616c697a6564",
  "devdoc": {
    "kind": "dev",
    "methods": {
      "owner()": {
        "details": "Returns the address of the current owner."
      },
      "renounceOwnership()": {
        "details": "Leaves the contract without owner. It will not be possible to call `onlyOwner` functions anymore. Can only be called by the current owner. NOTE: Renouncing ownership will leave the contract without an owner, thereby removing any functionality that is only available to the owner."
      },
      "transferOwnership(address)": {
        "details": "Transfers ownership of the contract to a new account (`newOwner`). Can only be called by the current owner."
      }
    },
    "version": 1
  },
  "userdoc": {
    "kind": "user",
    "methods": {},
    "version": 1
  },
  "storageLayout": {
    "storage": [
      {
        "astId": 6,
        "contract": "contracts/rewards/ETHtxRewardsManager/ETHtxRewardsManager.sol:ETHtxRewardsManager",
        "label": "_initialized",
        "offset": 0,
        "slot": "0",
        "type": "t_bool"
      },
      {
        "astId": 9,
        "contract": "contracts/rewards/ETHtxRewardsManager/ETHtxRewardsManager.sol:ETHtxRewardsManager",
        "label": "_initializing",
        "offset": 1,
        "slot": "0",
        "type": "t_bool"
      },
      {
        "astId": 353,
        "contract": "contracts/rewards/ETHtxRewardsManager/ETHtxRewardsManager.sol:ETHtxRewardsManager",
        "label": "__gap",
        "offset": 0,
        "slot": "1",
        "type": "t_array(t_uint256)50_storage"
      },
      {
        "astId": 3948,
        "contract": "contracts/rewards/ETHtxRewardsManager/ETHtxRewardsManager.sol:ETHtxRewardsManager",
        "label": "_owner",
        "offset": 0,
        "slot": "51",
        "type": "t_address"
      },
      {
        "astId": 4067,
        "contract": "contracts/rewards/ETHtxRewardsManager/ETHtxRewardsManager.sol:ETHtxRewardsManager",
        "label": "__gap",
        "offset": 0,
        "slot": "52",
        "type": "t_array(t_uint256)49_storage"
      },
      {
        "astId": 19056,
        "contract": "contracts/rewards/ETHtxRewardsManager/ETHtxRewardsManager.sol:ETHtxRewardsManager",
        "label": "_rewardsToken",
        "offset": 0,
        "slot": "101",
        "type": "t_address"
      },
      {
        "astId": 19058,
        "contract": "contracts/rewards/ETHtxRewardsManager/ETHtxRewardsManager.sol:ETHtxRewardsManager",
        "label": "_defaultRecipient",
        "offset": 0,
        "slot": "102",
        "type": "t_address"
      },
      {
        "astId": 19060,
        "contract": "contracts/rewards/ETHtxRewardsManager/ETHtxRewardsManager.sol:ETHtxRewardsManager",
        "label": "_totalRewardsRedeemed",
        "offset": 0,
        "slot": "103",
        "type": "t_uint256"
      },
      {
        "astId": 19062,
        "contract": "contracts/rewards/ETHtxRewardsManager/ETHtxRewardsManager.sol:ETHtxRewardsManager",
        "label": "_recipients",
        "offset": 0,
        "slot": "104",
        "type": "t_struct(AddressSet)2680_storage"
      },
      {
        "astId": 19066,
        "contract": "contracts/rewards/ETHtxRewardsManager/ETHtxRewardsManager.sol:ETHtxRewardsManager",
        "label": "_shares",
        "offset": 0,
        "slot": "106",
        "type": "t_mapping(t_address,t_struct(Shares)19054_storage)"
      },
      {
        "astId": 19070,
        "contract": "contracts/rewards/ETHtxRewardsManager/ETHtxRewardsManager.sol:ETHtxRewardsManager",
        "label": "__gap",
        "offset": 0,
        "slot": "107",
        "type": "t_array(t_uint256)45_storage"
      },
      {
        "astId": 11429,
        "contract": "contracts/rewards/ETHtxRewardsManager/ETHtxRewardsManager.sol:ETHtxRewardsManager",
        "label": "_ethmxRewards",
        "offset": 0,
        "slot": "152",
        "type": "t_address"
      },
      {
        "astId": 11431,
        "contract": "contracts/rewards/ETHtxRewardsManager/ETHtxRewardsManager.sol:ETHtxRewardsManager",
        "label": "_ethtx",
        "offset": 0,
        "slot": "153",
        "type": "t_address"
      },
      {
        "astId": 11433,
        "contract": "contracts/rewards/ETHtxRewardsManager/ETHtxRewardsManager.sol:ETHtxRewardsManager",
        "label": "_ethtxAMM",
        "offset": 0,
        "slot": "154",
        "type": "t_address"
      },
      {
        "astId": 11435,
        "contract": "contracts/rewards/ETHtxRewardsManager/ETHtxRewardsManager.sol:ETHtxRewardsManager",
        "label": "_lpRewards",
        "offset": 0,
        "slot": "155",
        "type": "t_address"
      },
      {
        "astId": 11439,
        "contract": "contracts/rewards/ETHtxRewardsManager/ETHtxRewardsManager.sol:ETHtxRewardsManager",
        "label": "__gap",
        "offset": 0,
        "slot": "156",
        "type": "t_array(t_uint256)46_storage"
      }
    ],
    "types": {
      "t_address": {
        "encoding": "inplace",
        "label": "address",
        "numberOfBytes": "20"
      },
      "t_array(t_bytes32)dyn_storage": {
        "base": "t_bytes32",
        "encoding": "dynamic_array",
        "label": "bytes32[]",
        "numberOfBytes": "32"
      },
      "t_array(t_uint256)45_storage": {
        "base": "t_uint256",
        "encoding": "inplace",
        "label": "uint256[45]",
        "numberOfBytes": "1440"
      },
      "t_array(t_uint256)46_storage": {
        "base": "t_uint256",
        "encoding": "inplace",
        "label": "uint256[46]",
        "numberOfBytes": "1472"
      },
      "t_array(t_uint256)49_storage": {
        "base": "t_uint256",
        "encoding": "inplace",
        "label": "uint256[49]",
        "numberOfBytes": "1568"
      },
      "t_array(t_uint256)50_storage": {
        "base": "t_uint256",
        "encoding": "inplace",
        "label": "uint256[50]",
        "numberOfBytes": "1600"
      },
      "t_bool": {
        "encoding": "inplace",
        "label": "bool",
        "numberOfBytes": "1"
      },
      "t_bytes32": {
        "encoding": "inplace",
        "label": "bytes32",
        "numberOfBytes": "32"
      },
      "t_mapping(t_address,t_struct(Shares)19054_storage)": {
        "encoding": "mapping",
        "key": "t_address",
        "label": "mapping(address => struct RewardsManagerData.Shares)",
        "numberOfBytes": "32",
        "value": "t_struct(Shares)19054_storage"
      },
      "t_mapping(t_bytes32,t_uint256)": {
        "encoding": "mapping",
        "key": "t_bytes32",
        "label": "mapping(bytes32 => uint256)",
        "numberOfBytes": "32",
        "value": "t_uint256"
      },
      "t_struct(AddressSet)2680_storage": {
        "encoding": "inplace",
        "label": "struct EnumerableSet.AddressSet",
        "members": [
          {
            "astId": 2679,
            "contract": "contracts/rewards/ETHtxRewardsManager/ETHtxRewardsManager.sol:ETHtxRewardsManager",
            "label": "_inner",
            "offset": 0,
            "slot": "0",
            "type": "t_struct(Set)2415_storage"
          }
        ],
        "numberOfBytes": "64"
      },
      "t_struct(Set)2415_storage": {
        "encoding": "inplace",
        "label": "struct EnumerableSet.Set",
        "members": [
          {
            "astId": 2410,
            "contract": "contracts/rewards/ETHtxRewardsManager/ETHtxRewardsManager.sol:ETHtxRewardsManager",
            "label": "_values",
            "offset": 0,
            "slot": "0",
            "type": "t_array(t_bytes32)dyn_storage"
          },
          {
            "astId": 2414,
            "contract": "contracts/rewards/ETHtxRewardsManager/ETHtxRewardsManager.sol:ETHtxRewardsManager",
            "label": "_indexes",
            "offset": 0,
            "slot": "1",
            "type": "t_mapping(t_bytes32,t_uint256)"
          }
        ],
        "numberOfBytes": "64"
      },
      "t_struct(Shares)19054_storage": {
        "encoding": "inplace",
        "label": "struct RewardsManagerData.Shares",
        "members": [
          {
            "astId": 19051,
            "contract": "contracts/rewards/ETHtxRewardsManager/ETHtxRewardsManager.sol:ETHtxRewardsManager",
            "label": "active",
            "offset": 0,
            "slot": "0",
            "type": "t_uint128"
          },
          {
            "astId": 19053,
            "contract": "contracts/rewards/ETHtxRewardsManager/ETHtxRewardsManager.sol:ETHtxRewardsManager",
            "label": "total",
            "offset": 16,
            "slot": "0",
            "type": "t_uint128"
          }
        ],
        "numberOfBytes": "32"
      },
      "t_uint128": {
        "encoding": "inplace",
        "label": "uint128",
        "numberOfBytes": "16"
      },
      "t_uint256": {
        "encoding": "inplace",
        "label": "uint256",
        "numberOfBytes": "32"
      }
    }
  }
}