{
  "address": "0xD5ad4De161F879314eD29F3E6681183309d241E9",
  "abi": [
    {
      "inputs": [
        {
          "internalType": "address",
          "name": "owner_",
          "type": "address"
        }
      ],
      "stateMutability": "nonpayable",
      "type": "constructor"
    },
    {
      "anonymous": false,
      "inputs": [
        {
          "indexed": true,
          "internalType": "address",
          "name": "author",
          "type": "address"
        },
        {
          "indexed": false,
          "internalType": "uint256",
          "name": "accruedRewards",
          "type": "uint256"
        }
      ],
      "name": "AccrualUpdated",
      "type": "event"
    },
    {
      "anonymous": false,
      "inputs": [
        {
          "indexed": true,
          "internalType": "address",
          "name": "previousOwner",
          "type": "address"
        },
        {
          "indexed": true,
          "internalType": "address",
          "name": "newOwner",
          "type": "address"
        }
      ],
      "name": "OwnershipTransferred",
      "type": "event"
    },
    {
      "anonymous": false,
      "inputs": [
        {
          "indexed": false,
          "internalType": "address",
          "name": "account",
          "type": "address"
        }
      ],
      "name": "Paused",
      "type": "event"
    },
    {
      "anonymous": false,
      "inputs": [
        {
          "indexed": true,
          "internalType": "address",
          "name": "author",
          "type": "address"
        },
        {
          "indexed": true,
          "internalType": "address",
          "name": "to",
          "type": "address"
        },
        {
          "indexed": false,
          "internalType": "uint256",
          "name": "amount",
          "type": "uint256"
        }
      ],
      "name": "RecoveredUnredeemableRewards",
      "type": "event"
    },
    {
      "anonymous": false,
      "inputs": [
        {
          "indexed": true,
          "internalType": "address",
          "name": "author",
          "type": "address"
        },
        {
          "indexed": true,
          "internalType": "address",
          "name": "token",
          "type": "address"
        },
        {
          "indexed": true,
          "internalType": "address",
          "name": "to",
          "type": "address"
        },
        {
          "indexed": false,
          "internalType": "uint256",
          "name": "amount",
          "type": "uint256"
        }
      ],
      "name": "RecoveredUnstaked",
      "type": "event"
    },
    {
      "anonymous": false,
      "inputs": [
        {
          "indexed": true,
          "internalType": "address",
          "name": "account",
          "type": "address"
        },
        {
          "indexed": true,
          "internalType": "address",
          "name": "token",
          "type": "address"
        },
        {
          "indexed": false,
          "internalType": "uint256",
          "name": "amount",
          "type": "uint256"
        }
      ],
      "name": "RewardPaid",
      "type": "event"
    },
    {
      "anonymous": false,
      "inputs": [
        {
          "indexed": true,
          "internalType": "address",
          "name": "author",
          "type": "address"
        },
        {
          "indexed": true,
          "internalType": "address",
          "name": "token",
          "type": "address"
        }
      ],
      "name": "RewardsTokenSet",
      "type": "event"
    },
    {
      "anonymous": false,
      "inputs": [
        {
          "indexed": true,
          "internalType": "address",
          "name": "account",
          "type": "address"
        },
        {
          "indexed": true,
          "internalType": "address",
          "name": "token",
          "type": "address"
        },
        {
          "indexed": false,
          "internalType": "uint256",
          "name": "amount",
          "type": "uint256"
        }
      ],
      "name": "Staked",
      "type": "event"
    },
    {
      "anonymous": false,
      "inputs": [
        {
          "indexed": true,
          "internalType": "address",
          "name": "author",
          "type": "address"
        },
        {
          "indexed": true,
          "internalType": "address",
          "name": "token",
          "type": "address"
        },
        {
          "indexed": true,
          "internalType": "address",
          "name": "tokenValueImpl",
          "type": "address"
        }
      ],
      "name": "TokenAdded",
      "type": "event"
    },
    {
      "anonymous": false,
      "inputs": [
        {
          "indexed": true,
          "internalType": "address",
          "name": "author",
          "type": "address"
        },
        {
          "indexed": true,
          "internalType": "address",
          "name": "token",
          "type": "address"
        }
      ],
      "name": "TokenRemoved",
      "type": "event"
    },
    {
      "anonymous": false,
      "inputs": [
        {
          "indexed": true,
          "internalType": "address",
          "name": "author",
          "type": "address"
        },
        {
          "indexed": true,
          "internalType": "address",
          "name": "token",
          "type": "address"
        },
        {
          "indexed": true,
          "internalType": "address",
          "name": "tokenValueImpl",
          "type": "address"
        }
      ],
      "name": "TokenValueImplChanged",
      "type": "event"
    },
    {
      "anonymous": false,
      "inputs": [
        {
          "indexed": false,
          "internalType": "address",
          "name": "account",
          "type": "address"
        }
      ],
      "name": "Unpaused",
      "type": "event"
    },
    {
      "anonymous": false,
      "inputs": [
        {
          "indexed": true,
          "internalType": "address",
          "name": "account",
          "type": "address"
        },
        {
          "indexed": true,
          "internalType": "address",
          "name": "token",
          "type": "address"
        },
        {
          "indexed": false,
          "internalType": "uint256",
          "name": "amount",
          "type": "uint256"
        }
      ],
      "name": "Unstaked",
      "type": "event"
    },
    {
      "inputs": [
        {
          "internalType": "address",
          "name": "token",
          "type": "address"
        }
      ],
      "name": "accruedRewardsPerTokenFor",
      "outputs": [
        {
          "internalType": "uint256",
          "name": "",
          "type": "uint256"
        }
      ],
      "stateMutability": "view",
      "type": "function"
    },
    {
      "inputs": [
        {
          "internalType": "address",
          "name": "account",
          "type": "address"
        },
        {
          "internalType": "address",
          "name": "token",
          "type": "address"
        }
      ],
      "name": "accruedRewardsPerTokenLastFor",
      "outputs": [
        {
          "internalType": "uint256",
          "name": "",
          "type": "uint256"
        }
      ],
      "stateMutability": "view",
      "type": "function"
    },
    {
      "inputs": [
        {
          "internalType": "address",
          "name": "token",
          "type": "address"
        },
        {
          "internalType": "address",
          "name": "tokenValueImpl",
          "type": "address"
        }
      ],
      "name": "addToken",
      "outputs": [],
      "stateMutability": "nonpayable",
      "type": "function"
    },
    {
      "inputs": [
        {
          "internalType": "address",
          "name": "token",
          "type": "address"
        },
        {
          "internalType": "address",
          "name": "tokenValueImpl",
          "type": "address"
        }
      ],
      "name": "changeTokenValueImpl",
      "outputs": [],
      "stateMutability": "nonpayable",
      "type": "function"
    },
    {
      "inputs": [
        {
          "internalType": "bool",
          "name": "asWETH",
          "type": "bool"
        }
      ],
      "name": "exit",
      "outputs": [],
      "stateMutability": "nonpayable",
      "type": "function"
    },
    {
      "inputs": [
        {
          "internalType": "address",
          "name": "token",
          "type": "address"
        },
        {
          "internalType": "bool",
          "name": "asWETH",
          "type": "bool"
        }
      ],
      "name": "exitFrom",
      "outputs": [],
      "stateMutability": "nonpayable",
      "type": "function"
    },
    {
      "inputs": [
        {
          "internalType": "address",
          "name": "owner_",
          "type": "address"
        }
      ],
      "name": "init",
      "outputs": [],
      "stateMutability": "nonpayable",
      "type": "function"
    },
    {
      "inputs": [
        {
          "internalType": "address",
          "name": "account",
          "type": "address"
        }
      ],
      "name": "lastRewardsBalanceOf",
      "outputs": [
        {
          "internalType": "uint256",
          "name": "total",
          "type": "uint256"
        }
      ],
      "stateMutability": "view",
      "type": "function"
    },
    {
      "inputs": [
        {
          "internalType": "address",
          "name": "account",
          "type": "address"
        },
        {
          "internalType": "address",
          "name": "token",
          "type": "address"
        }
      ],
      "name": "lastRewardsBalanceOfFor",
      "outputs": [
        {
          "internalType": "uint256",
          "name": "",
          "type": "uint256"
        }
      ],
      "stateMutability": "view",
      "type": "function"
    },
    {
      "inputs": [],
      "name": "lastTotalRewardsAccrued",
      "outputs": [
        {
          "internalType": "uint256",
          "name": "",
          "type": "uint256"
        }
      ],
      "stateMutability": "view",
      "type": "function"
    },
    {
      "inputs": [
        {
          "internalType": "address",
          "name": "token",
          "type": "address"
        }
      ],
      "name": "lastTotalRewardsAccruedFor",
      "outputs": [
        {
          "internalType": "uint256",
          "name": "",
          "type": "uint256"
        }
      ],
      "stateMutability": "view",
      "type": "function"
    },
    {
      "inputs": [],
      "name": "numStakingTokens",
      "outputs": [
        {
          "internalType": "uint256",
          "name": "",
          "type": "uint256"
        }
      ],
      "stateMutability": "view",
      "type": "function"
    },
    {
      "inputs": [],
      "name": "owner",
      "outputs": [
        {
          "internalType": "address",
          "name": "",
          "type": "address"
        }
      ],
      "stateMutability": "view",
      "type": "function"
    },
    {
      "inputs": [],
      "name": "pause",
      "outputs": [],
      "stateMutability": "nonpayable",
      "type": "function"
    },
    {
      "inputs": [],
      "name": "paused",
      "outputs": [
        {
          "internalType": "bool",
          "name": "",
          "type": "bool"
        }
      ],
      "stateMutability": "view",
      "type": "function"
    },
    {
      "inputs": [
        {
          "internalType": "address",
          "name": "to",
          "type": "address"
        },
        {
          "internalType": "uint256",
          "name": "amount",
          "type": "uint256"
        }
      ],
      "name": "recoverUnredeemableRewards",
      "outputs": [],
      "stateMutability": "nonpayable",
      "type": "function"
    },
    {
      "inputs": [
        {
          "internalType": "address",
          "name": "token",
          "type": "address"
        },
        {
          "internalType": "address",
          "name": "to",
          "type": "address"
        },
        {
          "internalType": "uint256",
          "name": "amount",
          "type": "uint256"
        }
      ],
      "name": "recoverUnstaked",
      "outputs": [],
      "stateMutability": "nonpayable",
      "type": "function"
    },
    {
      "inputs": [
        {
          "internalType": "bool",
          "name": "asWETH",
          "type": "bool"
        }
      ],
      "name": "redeemAllRewards",
      "outputs": [],
      "stateMutability": "nonpayable",
      "type": "function"
    },
    {
      "inputs": [
        {
          "internalType": "address",
          "name": "token",
          "type": "address"
        },
        {
          "internalType": "bool",
          "name": "asWETH",
          "type": "bool"
        }
      ],
      "name": "redeemAllRewardsFrom",
      "outputs": [],
      "stateMutability": "nonpayable",
      "type": "function"
    },
    {
      "inputs": [
        {
          "internalType": "uint256",
          "name": "amount",
          "type": "uint256"
        },
        {
          "internalType": "bool",
          "name": "asWETH",
          "type": "bool"
        }
      ],
      "name": "redeemReward",
      "outputs": [],
      "stateMutability": "nonpayable",
      "type": "function"
    },
    {
      "inputs": [
        {
          "internalType": "address",
          "name": "token",
          "type": "address"
        },
        {
          "internalType": "uint256",
          "name": "amount",
          "type": "uint256"
        },
        {
          "internalType": "bool",
          "name": "asWETH",
          "type": "bool"
        }
      ],
      "name": "redeemRewardFrom",
      "outputs": [],
      "stateMutability": "nonpayable",
      "type": "function"
    },
    {
      "inputs": [
        {
          "internalType": "address",
          "name": "token",
          "type": "address"
        }
      ],
      "name": "removeToken",
      "outputs": [],
      "stateMutability": "nonpayable",
      "type": "function"
    },
    {
      "inputs": [],
      "name": "renounceOwnership",
      "outputs": [],
      "stateMutability": "nonpayable",
      "type": "function"
    },
    {
      "inputs": [
        {
          "internalType": "address",
          "name": "account",
          "type": "address"
        }
      ],
      "name": "rewardsBalanceOf",
      "outputs": [
        {
          "internalType": "uint256",
          "name": "",
          "type": "uint256"
        }
      ],
      "stateMutability": "view",
      "type": "function"
    },
    {
      "inputs": [
        {
          "internalType": "address",
          "name": "account",
          "type": "address"
        },
        {
          "internalType": "address",
          "name": "token",
          "type": "address"
        }
      ],
      "name": "rewardsBalanceOfFor",
      "outputs": [
        {
          "internalType": "uint256",
          "name": "",
          "type": "uint256"
        }
      ],
      "stateMutability": "view",
      "type": "function"
    },
    {
      "inputs": [
        {
          "internalType": "address",
          "name": "token",
          "type": "address"
        }
      ],
      "name": "rewardsForToken",
      "outputs": [
        {
          "internalType": "uint256",
          "name": "",
          "type": "uint256"
        }
      ],
      "stateMutability": "view",
      "type": "function"
    },
    {
      "inputs": [],
      "name": "rewardsToken",
      "outputs": [
        {
          "internalType": "address",
          "name": "",
          "type": "address"
        }
      ],
      "stateMutability": "view",
      "type": "function"
    },
    {
      "inputs": [
        {
          "internalType": "address",
          "name": "token",
          "type": "address"
        }
      ],
      "name": "setRewardsToken",
      "outputs": [],
      "stateMutability": "nonpayable",
      "type": "function"
    },
    {
      "inputs": [
        {
          "internalType": "address",
          "name": "account",
          "type": "address"
        },
        {
          "internalType": "address",
          "name": "token",
          "type": "address"
        }
      ],
      "name": "sharesFor",
      "outputs": [
        {
          "internalType": "uint256",
          "name": "",
          "type": "uint256"
        }
      ],
      "stateMutability": "view",
      "type": "function"
    },
    {
      "inputs": [
        {
          "internalType": "address",
          "name": "token",
          "type": "address"
        }
      ],
      "name": "sharesPerToken",
      "outputs": [
        {
          "internalType": "uint256",
          "name": "",
          "type": "uint256"
        }
      ],
      "stateMutability": "view",
      "type": "function"
    },
    {
      "inputs": [
        {
          "internalType": "address",
          "name": "token",
          "type": "address"
        },
        {
          "internalType": "uint256",
          "name": "amount",
          "type": "uint256"
        }
      ],
      "name": "stake",
      "outputs": [],
      "stateMutability": "nonpayable",
      "type": "function"
    },
    {
      "inputs": [
        {
          "internalType": "address",
          "name": "account",
          "type": "address"
        },
        {
          "internalType": "address",
          "name": "token",
          "type": "address"
        }
      ],
      "name": "stakedBalanceOf",
      "outputs": [
        {
          "internalType": "uint256",
          "name": "",
          "type": "uint256"
        }
      ],
      "stateMutability": "view",
      "type": "function"
    },
    {
      "inputs": [
        {
          "internalType": "uint256",
          "name": "index",
          "type": "uint256"
        }
      ],
      "name": "stakingTokenAt",
      "outputs": [
        {
          "internalType": "address",
          "name": "",
          "type": "address"
        }
      ],
      "stateMutability": "view",
      "type": "function"
    },
    {
      "inputs": [
        {
          "internalType": "address",
          "name": "token",
          "type": "address"
        }
      ],
      "name": "supportsStakingToken",
      "outputs": [
        {
          "internalType": "bool",
          "name": "",
          "type": "bool"
        }
      ],
      "stateMutability": "view",
      "type": "function"
    },
    {
      "inputs": [],
      "name": "totalRewardsAccrued",
      "outputs": [
        {
          "internalType": "uint256",
          "name": "",
          "type": "uint256"
        }
      ],
      "stateMutability": "view",
      "type": "function"
    },
    {
      "inputs": [
        {
          "internalType": "address",
          "name": "token",
          "type": "address"
        }
      ],
      "name": "totalRewardsAccruedFor",
      "outputs": [
        {
          "internalType": "uint256",
          "name": "",
          "type": "uint256"
        }
      ],
      "stateMutability": "view",
      "type": "function"
    },
    {
      "inputs": [],
      "name": "totalRewardsRedeemed",
      "outputs": [
        {
          "internalType": "uint256",
          "name": "",
          "type": "uint256"
        }
      ],
      "stateMutability": "view",
      "type": "function"
    },
    {
      "inputs": [
        {
          "internalType": "address",
          "name": "token",
          "type": "address"
        }
      ],
      "name": "totalRewardsRedeemedFor",
      "outputs": [
        {
          "internalType": "uint256",
          "name": "",
          "type": "uint256"
        }
      ],
      "stateMutability": "view",
      "type": "function"
    },
    {
      "inputs": [],
      "name": "totalShares",
      "outputs": [
        {
          "internalType": "uint256",
          "name": "total",
          "type": "uint256"
        }
      ],
      "stateMutability": "view",
      "type": "function"
    },
    {
      "inputs": [
        {
          "internalType": "address",
          "name": "account",
          "type": "address"
        }
      ],
      "name": "totalSharesFor",
      "outputs": [
        {
          "internalType": "uint256",
          "name": "total",
          "type": "uint256"
        }
      ],
      "stateMutability": "view",
      "type": "function"
    },
    {
      "inputs": [
        {
          "internalType": "address",
          "name": "token",
          "type": "address"
        }
      ],
      "name": "totalSharesForToken",
      "outputs": [
        {
          "internalType": "uint256",
          "name": "",
          "type": "uint256"
        }
      ],
      "stateMutability": "view",
      "type": "function"
    },
    {
      "inputs": [
        {
          "internalType": "address",
          "name": "token",
          "type": "address"
        }
      ],
      "name": "totalStaked",
      "outputs": [
        {
          "internalType": "uint256",
          "name": "",
          "type": "uint256"
        }
      ],
      "stateMutability": "view",
      "type": "function"
    },
    {
      "inputs": [
        {
          "internalType": "address",
          "name": "newOwner",
          "type": "address"
        }
      ],
      "name": "transferOwnership",
      "outputs": [],
      "stateMutability": "nonpayable",
      "type": "function"
    },
    {
      "inputs": [],
      "name": "unpause",
      "outputs": [],
      "stateMutability": "nonpayable",
      "type": "function"
    },
    {
      "inputs": [],
      "name": "unredeemableRewards",
      "outputs": [
        {
          "internalType": "uint256",
          "name": "",
          "type": "uint256"
        }
      ],
      "stateMutability": "view",
      "type": "function"
    },
    {
      "inputs": [
        {
          "internalType": "address",
          "name": "token",
          "type": "address"
        },
        {
          "internalType": "uint256",
          "name": "amount",
          "type": "uint256"
        }
      ],
      "name": "unstake",
      "outputs": [],
      "stateMutability": "nonpayable",
      "type": "function"
    },
    {
      "inputs": [],
      "name": "unstakeAll",
      "outputs": [],
      "stateMutability": "nonpayable",
      "type": "function"
    },
    {
      "inputs": [
        {
          "internalType": "address",
          "name": "token",
          "type": "address"
        }
      ],
      "name": "unstakeAllFrom",
      "outputs": [],
      "stateMutability": "nonpayable",
      "type": "function"
    },
    {
      "inputs": [],
      "name": "updateAccrual",
      "outputs": [],
      "stateMutability": "nonpayable",
      "type": "function"
    },
    {
      "inputs": [],
      "name": "updateReward",
      "outputs": [],
      "stateMutability": "nonpayable",
      "type": "function"
    },
    {
      "inputs": [
        {
          "internalType": "address",
          "name": "token",
          "type": "address"
        }
      ],
      "name": "updateRewardFor",
      "outputs": [],
      "stateMutability": "nonpayable",
      "type": "function"
    },
    {
      "inputs": [
        {
          "internalType": "address",
          "name": "token",
          "type": "address"
        }
      ],
      "name": "valuePerTokenImpl",
      "outputs": [
        {
          "internalType": "address",
          "name": "",
          "type": "address"
        }
      ],
      "stateMutability": "view",
      "type": "function"
    },
    {
      "stateMutability": "payable",
      "type": "receive"
    }
  ],
  "transactionHash": "0x91de229437f492f2cef3e10c0d95e1196479994b9ff7a3ace898a32acb7f6666",
  "args": [
    "0x8e1b28FAa8C3A79BE31b5B6982221F18f4A0FA29"
  ],
  "solcInputHash": "b64ed1bd0442f95fc842a0027542327b",
  "bytecode": "0x60806040523480156200001157600080fd5b5060405162004f9a38038062004f9a833981810160405260208110156200003757600080fd5b505162000044816200004b565b5062000389565b600054610100900460ff16806200006757506200006762000115565b8062000076575060005460ff16155b620000b35760405162461bcd60e51b815260040180806020018281038252602e81526020018062004f6c602e913960400191505060405180910390fd5b600054610100900460ff16158015620000df576000805460ff1961ff0019909116610100171660011790555b620000e962000133565b620000f482620001dd565b620000fe620002d0565b801562000111576000805461ff00191690555b5050565b60006200012d306200038360201b62002f9d1760201c565b15905090565b600054610100900460ff16806200014f57506200014f62000115565b806200015e575060005460ff16155b6200019b5760405162461bcd60e51b815260040180806020018281038252602e81526020018062004f6c602e913960400191505060405180910390fd5b600054610100900460ff16158015620001c7576000805460ff1961ff0019909116610100171660011790555b8015620001da576000805461ff00191690555b50565b600054610100900460ff1680620001f95750620001f962000115565b8062000208575060005460ff16155b620002455760405162461bcd60e51b815260040180806020018281038252602e81526020018062004f6c602e913960400191505060405180910390fd5b600054610100900460ff1615801562000271576000805460ff1961ff0019909116610100171660011790555b603380546001600160a01b0319166001600160a01b0384169081179091556040516000907f8be0079c531659141344cd1fd0a4f28419497f9722a3daafe3b4186f6b6457e0908290a3801562000111576000805461ff00191690555050565b600054610100900460ff1680620002ec5750620002ec62000115565b80620002fb575060005460ff16155b620003385760405162461bcd60e51b815260040180806020018281038252602e81526020018062004f6c602e913960400191505060405180910390fd5b600054610100900460ff1615801562000364576000805460ff1961ff0019909116610100171660011790555b6065805460ff191690558015620001da576000805461ff001916905550565b3b151590565b614bd380620003996000396000f3fe6080604052600436106103435760003560e01c80638456cb59116101b0578063bf7eefd2116100ec578063e317b10511610095578063e7a203691161006f578063e7a2036914610db1578063e947537d14610dc6578063f2fde38b14610e14578063f36c0a7214610e545761036e565b8063e317b10514610d05578063e68e3f9414610d45578063e6c91a1514610d855761036e565b8063d5b27cbe116100c6578063d5b27cbe14610c5b578063de320cc114610c85578063e1b52ffa14610cc55761036e565b8063bf7eefd214610bc0578063c2a672e014610c00578063d1af0c7d14610c465761036e565b80639bfd8d6111610159578063adc9772e11610133578063adc9772e14610aa2578063adf7724614610ae8578063b8f8ffa414610b30578063ba587a2e14610b785761036e565b80639bfd8d61146109da578063aa0ba32614610a1a578063aad1748e14610a625761036e565b80638da5cb5b1161018a5780638da5cb5b1461093f57806391cfce931461097d57806395a1297a146109c55761036e565b80638456cb59146108e3578063860c19f3146108f85780638bbc51571461090d5761036e565b80633f4ba83a1161027f5780635fa7b584116102285780636c3f90a6116102025780636c3f90a61461084d578063715018a6146108795780637f86ce301461088e57806381b72684146108a35761036e565b80635fa7b584146107b8578063690f680e146107f85780636a1eca90146108385761036e565b806355ae75eb1161025957806355ae75eb146107235780635ab2c676146107635780635c975abb146107a35761036e565b80633f4ba83a146106805780635476bd72146106955780635530429b146106dd5761036e565b806326dcbbbc116102ec57806334f43ac6116102c657806334f43ac61461060157806335322f37146106415780633a98ef39146106565780633ad661271461066b5761036e565b806326dcbbbc146105255780632fc895001461056d57806333dc41c7146105c15761036e565b8063179237cf1161031d578063179237cf1461045d57806319872cb3146104a557806319ab453c146104e55761036e565b80630231ca171461037357806304d534a6146103c35780630fd59a4b1461041d5761036e565b3661036e5760975473ffffffffffffffffffffffffffffffffffffffff16331461036c57600080fd5b005b600080fd5b34801561037f57600080fd5b5061036c6004803603606081101561039657600080fd5b5073ffffffffffffffffffffffffffffffffffffffff813581169160208101359091169060400135610e69565b3480156103cf57600080fd5b5061040b600480360360408110156103e657600080fd5b5073ffffffffffffffffffffffffffffffffffffffff81358116916020013516611136565b60408051918252519081900360200190f35b34801561042957600080fd5b5061040b6004803603602081101561044057600080fd5b503573ffffffffffffffffffffffffffffffffffffffff16611173565b34801561046957600080fd5b5061040b6004803603604081101561048057600080fd5b5073ffffffffffffffffffffffffffffffffffffffff813581169160200135166111a6565b3480156104b157600080fd5b5061040b600480360360208110156104c857600080fd5b503573ffffffffffffffffffffffffffffffffffffffff166111c2565b3480156104f157600080fd5b5061036c6004803603602081101561050857600080fd5b503573ffffffffffffffffffffffffffffffffffffffff166111ed565b34801561053157600080fd5b5061040b6004803603604081101561054857600080fd5b5073ffffffffffffffffffffffffffffffffffffffff8135811691602001351661131b565b34801561057957600080fd5b506105ad6004803603602081101561059057600080fd5b503573ffffffffffffffffffffffffffffffffffffffff16611357565b604080519115158252519081900360200190f35b3480156105cd57600080fd5b5061040b600480360360208110156105e457600080fd5b503573ffffffffffffffffffffffffffffffffffffffff16611364565b34801561060d57600080fd5b5061036c6004803603602081101561062457600080fd5b503573ffffffffffffffffffffffffffffffffffffffff1661137f565b34801561064d57600080fd5b5061036c61139c565b34801561066257600080fd5b5061040b611444565b34801561067757600080fd5b5061036c611484565b34801561068c57600080fd5b5061036c6116c6565b3480156106a157600080fd5b5061036c600480360360408110156106b857600080fd5b5073ffffffffffffffffffffffffffffffffffffffff81358116916020013516611776565b3480156106e957600080fd5b5061036c6004803603604081101561070057600080fd5b5073ffffffffffffffffffffffffffffffffffffffff81351690602001356119ae565b34801561072f57600080fd5b5061040b6004803603602081101561074657600080fd5b503573ffffffffffffffffffffffffffffffffffffffff16611b4e565b34801561076f57600080fd5b5061040b6004803603602081101561078657600080fd5b503573ffffffffffffffffffffffffffffffffffffffff16611b79565b3480156107af57600080fd5b506105ad611b8d565b3480156107c457600080fd5b5061036c600480360360208110156107db57600080fd5b503573ffffffffffffffffffffffffffffffffffffffff16611b96565b34801561080457600080fd5b5061040b6004803603602081101561081b57600080fd5b503573ffffffffffffffffffffffffffffffffffffffff16611d5b565b34801561084457600080fd5b5061040b611d66565b34801561085957600080fd5b5061036c6004803603602081101561087057600080fd5b50351515611d77565b34801561088557600080fd5b5061036c611ed8565b34801561089a57600080fd5b5061040b611fef565b3480156108af57600080fd5b5061036c600480360360208110156108c657600080fd5b503573ffffffffffffffffffffffffffffffffffffffff16611ff5565b3480156108ef57600080fd5b5061036c612006565b34801561090457600080fd5b5061040b6120b6565b34801561091957600080fd5b5061036c6004803603604081101561093057600080fd5b508035906020013515156120c9565b34801561094b57600080fd5b5061095461231c565b6040805173ffffffffffffffffffffffffffffffffffffffff9092168252519081900360200190f35b34801561098957600080fd5b5061036c600480360360408110156109a057600080fd5b5073ffffffffffffffffffffffffffffffffffffffff81351690602001351515612338565b3480156109d157600080fd5b5061040b61234b565b3480156109e657600080fd5b5061040b600480360360208110156109fd57600080fd5b503573ffffffffffffffffffffffffffffffffffffffff16612351565b348015610a2657600080fd5b5061040b60048036036040811015610a3d57600080fd5b5073ffffffffffffffffffffffffffffffffffffffff8135811691602001351661237c565b348015610a6e57600080fd5b5061040b60048036036020811015610a8557600080fd5b503573ffffffffffffffffffffffffffffffffffffffff166123cf565b348015610aae57600080fd5b5061036c60048036036040811015610ac557600080fd5b5073ffffffffffffffffffffffffffffffffffffffff8135169060200135612441565b348015610af457600080fd5b5061036c60048036036040811015610b0b57600080fd5b5073ffffffffffffffffffffffffffffffffffffffff81358116916020013516612697565b348015610b3c57600080fd5b5061036c60048036036040811015610b5357600080fd5b5073ffffffffffffffffffffffffffffffffffffffff813516906020013515156128c4565b348015610b8457600080fd5b5061040b60048036036040811015610b9b57600080fd5b5073ffffffffffffffffffffffffffffffffffffffff81358116916020013516612929565b348015610bcc57600080fd5b5061095460048036036020811015610be357600080fd5b503573ffffffffffffffffffffffffffffffffffffffff16612968565b348015610c0c57600080fd5b5061036c60048036036040811015610c2357600080fd5b5073ffffffffffffffffffffffffffffffffffffffff8135169060200135612996565b348015610c5257600080fd5b50610954612a7f565b348015610c6757600080fd5b5061095460048036036020811015610c7e57600080fd5b5035612a9b565b348015610c9157600080fd5b5061036c60048036036020811015610ca857600080fd5b503573ffffffffffffffffffffffffffffffffffffffff16612aa8565b348015610cd157600080fd5b5061040b60048036036020811015610ce857600080fd5b503573ffffffffffffffffffffffffffffffffffffffff16612be0565b348015610d1157600080fd5b5061040b60048036036020811015610d2857600080fd5b503573ffffffffffffffffffffffffffffffffffffffff16612c64565b348015610d5157600080fd5b5061040b60048036036020811015610d6857600080fd5b503573ffffffffffffffffffffffffffffffffffffffff16612c8f565b348015610d9157600080fd5b5061036c60048036036020811015610da857600080fd5b50351515612cb7565b348015610dbd57600080fd5b5061040b612cc8565b348015610dd257600080fd5b5061036c60048036036060811015610de957600080fd5b5073ffffffffffffffffffffffffffffffffffffffff81351690602081013590604001351515612cce565b348015610e2057600080fd5b5061036c60048036036020811015610e3757600080fd5b503573ffffffffffffffffffffffffffffffffffffffff16612deb565b348015610e6057600080fd5b5061036c612f8d565b610e71612fa3565b73ffffffffffffffffffffffffffffffffffffffff16610e8f61231c565b73ffffffffffffffffffffffffffffffffffffffff1614610f1157604080517f08c379a000000000000000000000000000000000000000000000000000000000815260206004820181905260248201527f4f776e61626c653a2063616c6c6572206973206e6f7420746865206f776e6572604482015290519081900360640190fd5b60975473ffffffffffffffffffffffffffffffffffffffff84811691161415610f85576040517f08c379a00000000000000000000000000000000000000000000000000000000081526004018080602001828103825260268152602001806149766026913960400191505060405180910390fd5b6000611031610f9385612351565b604080517f70a08231000000000000000000000000000000000000000000000000000000008152306004820152905173ffffffffffffffffffffffffffffffffffffffff8816916370a08231916024808301926020929190829003018186803b158015610fff57600080fd5b505afa158015611013573d6000803e3d6000fd5b505050506040513d602081101561102957600080fd5b505190612fa7565b90508082111561108c576040517f08c379a0000000000000000000000000000000000000000000000000000000008152600401808060200182810382526025815260200180614b266025913960400191505060405180910390fd5b6110ad73ffffffffffffffffffffffffffffffffffffffff8516848461301e565b8273ffffffffffffffffffffffffffffffffffffffff168473ffffffffffffffffffffffffffffffffffffffff166110e3612fa3565b73ffffffffffffffffffffffffffffffffffffffff167fa75728640461aeb3a4682a3f36b9eedb891491eb41b27953a45849a1d0c06588856040518082815260200191505060405180910390a450505050565b600080611143848461131b565b90506000611151858561237c565b90508015611169576111648585836130b0565b820191505b5090505b92915050565b73ffffffffffffffffffffffffffffffffffffffff166000908152609d6020526040902060038101546002909101540190565b60006111bb826111b6858561237c565b6130fc565b9392505050565b73ffffffffffffffffffffffffffffffffffffffff166000908152609d602052604090206002015490565b600054610100900460ff168061120657506112066131ce565b80611214575060005460ff16155b611269576040517f08c379a000000000000000000000000000000000000000000000000000000000815260040180806020018281038252602e815260200180614a84602e913960400191505060405180910390fd5b600054610100900460ff161580156112cf57600080547fffffffffffffffffffffffffffffffffffffffffffffffffffffffffffffff007fffffffffffffffffffffffffffffffffffffffffffffffffffffffffffff00ff909116610100171660011790555b6112d76131df565b6112e0826132f2565b6112e8613474565b801561131757600080547fffffffffffffffffffffffffffffffffffffffffffffffffffffffffffff00ff1690555b5050565b73ffffffffffffffffffffffffffffffffffffffff9182166000908152609e602090815260408083209390941682526002909201909152205490565b600061116d609b836135af565b600061136f826135d1565b61137883612be0565b0192915050565b6113998161139461138e612fa3565b8461237c565b613635565b50565b6000609e60006113aa612fa3565b73ffffffffffffffffffffffffffffffffffffffff1673ffffffffffffffffffffffffffffffffffffffff168152602001908152602001600020905060006113f4826003016137a2565b90505b80156113175760008061140d60038501826137ad565b9150915061141b8282613635565b50507fffffffffffffffffffffffffffffffffffffffffffffffffffffffffffffffff016113f7565b6000805b611452609b6137a2565b8110156114805761147661146f61146a609b846137c9565b6137d5565b8390613809565b9150600101611448565b5090565b600061148e6120b6565b6098549091508103806114a25750506116c4565b60988290556000806114b4609b6137a2565b67ffffffffffffffff811180156114ca57600080fd5b506040519080825280602002602001820160405280156114f4578160200160208202803683370190505b50905060005b611504609b6137a2565b81101561155357600061151b61146a609b846137c9565b9050611527858261387d565b83838151811061153357fe5b60209081029190910101526115488482613809565b9350506001016114fa565b50816115c757609a546115669084613809565b609a55611571612fa3565b73ffffffffffffffffffffffffffffffffffffffff167fcc40b32ccae09bbf703954e57f794bd4be4f1aa1098eba7871af6c47ad89ae77846040518082815260200191505060405180910390a2505050506116c4565b60005b6115d4609b6137a2565b8110156116695760006115e8609b836137c9565b73ffffffffffffffffffffffffffffffffffffffff81166000908152609d60205260409020845191925090859085908590811061162157fe5b60200260200101518161163057fe5b600283018054929091049091019055600061164a83611173565b905061165683826138f0565b82556001918201559190910190506115ca565b50611672612fa3565b73ffffffffffffffffffffffffffffffffffffffff167fcc40b32ccae09bbf703954e57f794bd4be4f1aa1098eba7871af6c47ad89ae77846040518082815260200191505060405180910390a2505050505b565b6116ce612fa3565b73ffffffffffffffffffffffffffffffffffffffff166116ec61231c565b73ffffffffffffffffffffffffffffffffffffffff161461176e57604080517f08c379a000000000000000000000000000000000000000000000000000000000815260206004820181905260248201527f4f776e61626c653a2063616c6c6572206973206e6f7420746865206f776e6572604482015290519081900360640190fd5b6116c4613972565b61177e612fa3565b73ffffffffffffffffffffffffffffffffffffffff1661179c61231c565b73ffffffffffffffffffffffffffffffffffffffff161461181e57604080517f08c379a000000000000000000000000000000000000000000000000000000000815260206004820181905260248201527f4f776e61626c653a2063616c6c6572206973206e6f7420746865206f776e6572604482015290519081900360640190fd5b61182782611357565b1561189357604080517f08c379a000000000000000000000000000000000000000000000000000000000815260206004820152601e60248201527f4c50526577617264733a20746f6b656e20616c72656164792061646465640000604482015290519081900360640190fd5b73ffffffffffffffffffffffffffffffffffffffff81166118ff576040517f08c379a0000000000000000000000000000000000000000000000000000000008152600401808060200182810382526030815260200180614a546030913960400191505060405180910390fd5b61190a609b83613a60565b5073ffffffffffffffffffffffffffffffffffffffff8281166000818152609d6020526040902060050180547fffffffffffffffffffffffff0000000000000000000000000000000000000000169284169283179055611968612fa3565b73ffffffffffffffffffffffffffffffffffffffff167ffc43233c964efa713b168e2361b2c57eafddc32aa7f7d0f85c92e66e113aa28a60405160405180910390a45050565b6119b6612fa3565b73ffffffffffffffffffffffffffffffffffffffff166119d461231c565b73ffffffffffffffffffffffffffffffffffffffff1614611a5657604080517f08c379a000000000000000000000000000000000000000000000000000000000815260206004820181905260248201527f4f776e61626c653a2063616c6c6572206973206e6f7420746865206f776e6572604482015290519081900360640190fd5b609a54811115611ab1576040517f08c379a0000000000000000000000000000000000000000000000000000000008152600401808060200182810382526029815260200180614b4b6029913960400191505060405180910390fd5b609a80548290039055609754611ade9073ffffffffffffffffffffffffffffffffffffffff16838361301e565b8173ffffffffffffffffffffffffffffffffffffffff16611afd612fa3565b73ffffffffffffffffffffffffffffffffffffffff167fe4cedce8a9da6a4cd7794b1b6bbba077e9cb7bba00eeb3b7152926cd378f023c836040518082815260200191505060405180910390a35050565b73ffffffffffffffffffffffffffffffffffffffff166000908152609d602052604090206001015490565b600061116d82670de0b6b3a76400006130fc565b60655460ff1690565b611b9e612fa3565b73ffffffffffffffffffffffffffffffffffffffff16611bbc61231c565b73ffffffffffffffffffffffffffffffffffffffff1614611c3e57604080517f08c379a000000000000000000000000000000000000000000000000000000000815260206004820181905260248201527f4f776e61626c653a2063616c6c6572206973206e6f7420746865206f776e6572604482015290519081900360640190fd5b80611c4881611357565b611cb357604080517f08c379a000000000000000000000000000000000000000000000000000000000815260206004820152601c60248201527f4c50526577617264733a20756e737570706f7274656420746f6b656e00000000604482015290519081900360640190fd5b611cbe609b83613a82565b5073ffffffffffffffffffffffffffffffffffffffff82166000818152609d6020526040902060050180547fffffffffffffffffffffffff0000000000000000000000000000000000000000169055611d15612fa3565b73ffffffffffffffffffffffffffffffffffffffff167fbbe55b1ff108e23e5ff1a6f5d36946eec15ec0ca0ded2bfed4cdcf697ca9046060405160405180910390a35050565b600061116d826137d5565b6000611d72609b6137a2565b905090565b6000611d81612fa3565b9050611d8c81613aa4565b73ffffffffffffffffffffffffffffffffffffffff81166000908152609e6020526040812090819080611dbe836137a2565b90505b8015611ebd576000611dd384826137c9565b73ffffffffffffffffffffffffffffffffffffffff81166000908152609d602090815260408083206002808b019093529083208054938155918101549683019693945092909190611e249082612fa7565b60028401556003830180548201905560408051828152905173ffffffffffffffffffffffffffffffffffffffff80871692908c16917f540798df468d7b23d11f156fdb954cb19ad414d150722a7b6d55ba369dea792e9181900360200190a3611e8d8785613a82565b50507fffffffffffffffffffffffffffffffffffffffffffffffffffffffffffffffff9093019250611dc1915050565b506099805482019055611ed1848287613b01565b5050505050565b611ee0612fa3565b73ffffffffffffffffffffffffffffffffffffffff16611efe61231c565b73ffffffffffffffffffffffffffffffffffffffff1614611f8057604080517f08c379a000000000000000000000000000000000000000000000000000000000815260206004820181905260248201527f4f776e61626c653a2063616c6c6572206973206e6f7420746865206f776e6572604482015290519081900360640190fd5b60335460405160009173ffffffffffffffffffffffffffffffffffffffff16907f8be0079c531659141344cd1fd0a4f28419497f9722a3daafe3b4186f6b6457e0908390a3603380547fffffffffffffffffffffffff0000000000000000000000000000000000000000169055565b609a5490565b611317612000612fa3565b82613bdc565b61200e612fa3565b73ffffffffffffffffffffffffffffffffffffffff1661202c61231c565b73ffffffffffffffffffffffffffffffffffffffff16146120ae57604080517f08c379a000000000000000000000000000000000000000000000000000000000815260206004820181905260248201527f4f776e61626c653a2063616c6c6572206973206e6f7420746865206f776e6572604482015290519081900360640190fd5b6116c4613c6a565b60006099546120c3613d32565b01905090565b8161213557604080517f08c379a000000000000000000000000000000000000000000000000000000000815260206004820152601d60248201527f4c50526577617264733a2063616e6e6f742072656465656d207a65726f000000604482015290519081900360640190fd5b600061213f612fa3565b905061214a81613aa4565b61215381612be0565b8311156121ab576040517f08c379a0000000000000000000000000000000000000000000000000000000008152600401808060200182810382526031815260200180614ab26031913960400191505060405180910390fd5b73ffffffffffffffffffffffffffffffffffffffff81166000908152609e6020526040812090819085906121de836137a2565b90505b80156123005760006121f384826137c9565b73ffffffffffffffffffffffffffffffffffffffff81166000908152609d6020908152604080832060028a0190925282208054939450909290918682116122465750806122408886613a82565b50612249565b50855b8082038355600284015461225d9082612fa7565b600285015560038401805482019055604080518281529051978290039773ffffffffffffffffffffffffffffffffffffffff80881692908d16917f540798df468d7b23d11f156fdb954cb19ad414d150722a7b6d55ba369dea792e9181900360200190a3866122d0575050505050612300565b50507fffffffffffffffffffffffffffffffffffffffffffffffffffffffffffffffff90930192506121e1915050565b506099805487019055612314848787613b01565b505050505050565b60335473ffffffffffffffffffffffffffffffffffffffff1690565b6123418261137f565b61131782826128c4565b60995490565b73ffffffffffffffffffffffffffffffffffffffff166000908152609d602052604090206004015490565b73ffffffffffffffffffffffffffffffffffffffff82166000908152609e602052604081206003016123ae81846135af565b156123c5576123bd8184613dd4565b91505061116d565b5060009392505050565b73ffffffffffffffffffffffffffffffffffffffff81166000908152609e60205260408120600301815b612402826137a2565b81101561243a5760008061241684846137ad565b9150915061242e61242783836130fc565b8690613809565b945050506001016123f9565b5050919050565b612449611b8d565b156124b557604080517f08c379a000000000000000000000000000000000000000000000000000000000815260206004820152601060248201527f5061757361626c653a2070617573656400000000000000000000000000000000604482015290519081900360640190fd5b816124bf81611357565b61252a57604080517f08c379a000000000000000000000000000000000000000000000000000000000815260206004820152601c60248201527f4c50526577617264733a20756e737570706f7274656420746f6b656e00000000604482015290519081900360640190fd5b8161259657604080517f08c379a000000000000000000000000000000000000000000000000000000000815260206004820152601c60248201527f4c50526577617264733a2063616e6e6f74207374616b65207a65726f00000000604482015290519081900360640190fd5b60006125a0612fa3565b90506125ac8185613bdc565b5073ffffffffffffffffffffffffffffffffffffffff8082166000908152609e602090815260408083209388168352609d909152902060048101805486019055612607866125fa858261237c565b6003850191908801613df6565b5061262a73ffffffffffffffffffffffffffffffffffffffff8716843088613e21565b8573ffffffffffffffffffffffffffffffffffffffff168373ffffffffffffffffffffffffffffffffffffffff167f5dac0c1b1112564a045ba943c9d50270893e8e826c49be8e7073adc713ab7bd7876040518082815260200191505060405180910390a3505050505050565b61269f612fa3565b73ffffffffffffffffffffffffffffffffffffffff166126bd61231c565b73ffffffffffffffffffffffffffffffffffffffff161461273f57604080517f08c379a000000000000000000000000000000000000000000000000000000000815260206004820181905260248201527f4f776e61626c653a2063616c6c6572206973206e6f7420746865206f776e6572604482015290519081900360640190fd5b8161274981611357565b6127b457604080517f08c379a000000000000000000000000000000000000000000000000000000000815260206004820152601c60248201527f4c50526577617264733a20756e737570706f7274656420746f6b656e00000000604482015290519081900360640190fd5b73ffffffffffffffffffffffffffffffffffffffff8216612820576040517f08c379a0000000000000000000000000000000000000000000000000000000008152600401808060200182810382526030815260200180614a546030913960400191505060405180910390fd5b73ffffffffffffffffffffffffffffffffffffffff8381166000818152609d6020526040902060050180547fffffffffffffffffffffffff000000000000000000000000000000000000000016928516928317905561287d612fa3565b73ffffffffffffffffffffffffffffffffffffffff167ff7d59a26862d20da3ef12eadf152cfdfab1eeee2999483cf9473ddfd7d992f0360405160405180910390a4505050565b60006128ce612fa3565b90506128da8184613bdc565b5073ffffffffffffffffffffffffffffffffffffffff8082166000908152609e602090815260408083209387168352600290930190522054801561292357612923848285613eb6565b50505050565b73ffffffffffffffffffffffffffffffffffffffff9182166000908152609e602090815260408083209390941682526002909201909152206001015490565b73ffffffffffffffffffffffffffffffffffffffff9081166000908152609d60205260409020600501541690565b80612a0257604080517f08c379a000000000000000000000000000000000000000000000000000000000815260206004820152601e60248201527f4c50526577617264733a2063616e6e6f7420756e7374616b65207a65726f0000604482015290519081900360640190fd5b6000612a0c612fa3565b90506000612a1a828561237c565b905080831115612a75576040517f08c379a0000000000000000000000000000000000000000000000000000000008152600401808060200182810382526032815260200180614a226032913960400191505060405180910390fd5b6129238484613635565b60975473ffffffffffffffffffffffffffffffffffffffff1690565b600061116d609b836137c9565b612ab0612fa3565b73ffffffffffffffffffffffffffffffffffffffff16612ace61231c565b73ffffffffffffffffffffffffffffffffffffffff1614612b5057604080517f08c379a000000000000000000000000000000000000000000000000000000000815260206004820181905260248201527f4f776e61626c653a2063616c6c6572206973206e6f7420746865206f776e6572604482015290519081900360640190fd5b609780547fffffffffffffffffffffffff00000000000000000000000000000000000000001673ffffffffffffffffffffffffffffffffffffffff8316908117909155612b9b612fa3565b73ffffffffffffffffffffffffffffffffffffffff167f7d7a6e0febb00fa099988e85a4dcf58c7297875e1bd06fe1e764c71619ee3a2060405160405180910390a350565b73ffffffffffffffffffffffffffffffffffffffff81166000908152609e6020526040812080825b612c11826137a2565b811015612c5c57600283016000612c2884846137c9565b73ffffffffffffffffffffffffffffffffffffffff1681526020810191909152604001600020549390930192600101612c08565b505050919050565b73ffffffffffffffffffffffffffffffffffffffff166000908152609d602052604090206003015490565b73ffffffffffffffffffffffffffffffffffffffff166000908152609d602052604090205490565b612cbf61139c565b61139981611d77565b60985490565b81612d3a57604080517f08c379a000000000000000000000000000000000000000000000000000000000815260206004820152601d60248201527f4c50526577617264733a2063616e6e6f742072656465656d207a65726f000000604482015290519081900360640190fd5b6000612d44612fa3565b9050612d508185613bdc565b5073ffffffffffffffffffffffffffffffffffffffff8082166000908152609e602090815260408083209388168352600290930190522054831115612de0576040517f08c379a0000000000000000000000000000000000000000000000000000000008152600401808060200182810382526031815260200180614ab26031913960400191505060405180910390fd5b612923848484613eb6565b612df3612fa3565b73ffffffffffffffffffffffffffffffffffffffff16612e1161231c565b73ffffffffffffffffffffffffffffffffffffffff1614612e9357604080517f08c379a000000000000000000000000000000000000000000000000000000000815260206004820181905260248201527f4f776e61626c653a2063616c6c6572206973206e6f7420746865206f776e6572604482015290519081900360640190fd5b73ffffffffffffffffffffffffffffffffffffffff8116612eff576040517f08c379a000000000000000000000000000000000000000000000000000000000815260040180806020018281038252602681526020018061499c6026913960400191505060405180910390fd5b60335460405173ffffffffffffffffffffffffffffffffffffffff8084169216907f8be0079c531659141344cd1fd0a4f28419497f9722a3daafe3b4186f6b6457e090600090a3603380547fffffffffffffffffffffffff00000000000000000000000000000000000000001673ffffffffffffffffffffffffffffffffffffffff92909216919091179055565b6116c4612f98612fa3565b613aa4565b3b151590565b3390565b60008282111561301857604080517f08c379a000000000000000000000000000000000000000000000000000000000815260206004820152601e60248201527f536166654d6174683a207375627472616374696f6e206f766572666c6f770000604482015290519081900360640190fd5b50900390565b6040805173ffffffffffffffffffffffffffffffffffffffff8416602482015260448082018490528251808303909101815260649091019091526020810180517bffffffffffffffffffffffffffffffffffffffffffffffffffffffff167fa9059cbb000000000000000000000000000000000000000000000000000000001790526130ab908490613fc0565b505050565b6000806130bc84612c8f565b905060006130ca8686612929565b90508082036ec097ce7bc90715b34b9f10000000006130e9868361387d565b816130f057fe5b04979650505050505050565b600061310783611357565b6131135750600061116d565b600061311e84612968565b90506000808273ffffffffffffffffffffffffffffffffffffffff1663a8fa8e526040518163ffffffff1660e01b8152600401604080518083038186803b15801561316857600080fd5b505afa15801561317c573d6000803e3d6000fd5b505050506040513d604081101561319257600080fd5b5080516020909101519092509050806131b1576000935050505061116d565b806131bc868461387d565b816131c357fe5b049695505050505050565b60006131d930612f9d565b15905090565b600054610100900460ff16806131f857506131f86131ce565b80613206575060005460ff16155b61325b576040517f08c379a000000000000000000000000000000000000000000000000000000000815260040180806020018281038252602e815260200180614a84602e913960400191505060405180910390fd5b600054610100900460ff161580156132c157600080547fffffffffffffffffffffffffffffffffffffffffffffffffffffffffffffff007fffffffffffffffffffffffffffffffffffffffffffffffffffffffffffff00ff909116610100171660011790555b801561139957600080547fffffffffffffffffffffffffffffffffffffffffffffffffffffffffffff00ff16905550565b600054610100900460ff168061330b575061330b6131ce565b80613319575060005460ff16155b61336e576040517f08c379a000000000000000000000000000000000000000000000000000000000815260040180806020018281038252602e815260200180614a84602e913960400191505060405180910390fd5b600054610100900460ff161580156133d457600080547fffffffffffffffffffffffffffffffffffffffffffffffffffffffffffffff007fffffffffffffffffffffffffffffffffffffffffffffffffffffffffffff00ff909116610100171660011790555b603380547fffffffffffffffffffffffff00000000000000000000000000000000000000001673ffffffffffffffffffffffffffffffffffffffff84169081179091556040516000907f8be0079c531659141344cd1fd0a4f28419497f9722a3daafe3b4186f6b6457e0908290a3801561131757600080547fffffffffffffffffffffffffffffffffffffffffffffffffffffffffffff00ff1690555050565b600054610100900460ff168061348d575061348d6131ce565b8061349b575060005460ff16155b6134f0576040517f08c379a000000000000000000000000000000000000000000000000000000000815260040180806020018281038252602e815260200180614a84602e913960400191505060405180910390fd5b600054610100900460ff1615801561355657600080547fffffffffffffffffffffffffffffffffffffffffffffffffffffffffffffff007fffffffffffffffffffffffffffffffffffffffffffffffffffffffffffff00ff909116610100171660011790555b606580547fffffffffffffffffffffffffffffffffffffffffffffffffffffffffffffff00169055801561139957600080547fffffffffffffffffffffffffffffffffffffffffffffffffffffffffffff00ff16905550565b60006111bb8373ffffffffffffffffffffffffffffffffffffffff8416614098565b73ffffffffffffffffffffffffffffffffffffffff81166000908152609e60205260408120600301815b613604826137a2565b81101561243a5760008061361884846137ad565b915091506136278683836130b0565b9094019350506001016135fb565b600061363f612fa3565b905061364b8184613bdc565b5073ffffffffffffffffffffffffffffffffffffffff83166000908152609d6020526040902060048101546136809084612fa7565b600482015573ffffffffffffffffffffffffffffffffffffffff82166000908152609e602052604081209060038201906136c4866136be848a613dd4565b90612fa7565b905080613706576136d582886140b0565b5073ffffffffffffffffffffffffffffffffffffffff87166000908152600284016020526040812060010155613713565b613711828883613df6565b505b61373473ffffffffffffffffffffffffffffffffffffffff8816868861301e565b8673ffffffffffffffffffffffffffffffffffffffff168573ffffffffffffffffffffffffffffffffffffffff167fd8654fcc8cf5b36d30b3f5e4688fc78118e6d68de60b9994e09902268b57c3e3886040518082815260200191505060405180910390a350505050505050565b600061116d826140d2565b60008080806137bc86866140d6565b9097909650945050505050565b60006111bb838361416b565b73ffffffffffffffffffffffffffffffffffffffff81166000908152609d602052604081206004015461116d9083906130fc565b6000828201838110156111bb57604080517f08c379a000000000000000000000000000000000000000000000000000000000815260206004820152601b60248201527f536166654d6174683a206164646974696f6e206f766572666c6f770000000000604482015290519081900360640190fd5b60008261388c5750600061116d565b8282028284828161389957fe5b04146111bb576040517f08c379a0000000000000000000000000000000000000000000000000000000008152600401808060200182810382526021815260200180614b056021913960400191505060405180910390fd5b73ffffffffffffffffffffffffffffffffffffffff82166000908152609d60205260408120600481015480613928575054905061116d565b600182015484038061393e57505054905061116d565b60008261395a836ec097ce7bc90715b34b9f100000000061387d565b8161396157fe5b945494049093019695505050505050565b61397a611b8d565b6139e557604080517f08c379a000000000000000000000000000000000000000000000000000000000815260206004820152601460248201527f5061757361626c653a206e6f7420706175736564000000000000000000000000604482015290519081900360640190fd5b606580547fffffffffffffffffffffffffffffffffffffffffffffffffffffffffffffff001690557f5db9ee0a495bf2e6ff9c91a7834c1ba4fdd244a5e8aa4e537bd38aeae4b073aa613a36612fa3565b6040805173ffffffffffffffffffffffffffffffffffffffff9092168252519081900360200190a1565b60006111bb8373ffffffffffffffffffffffffffffffffffffffff84166141e9565b60006111bb8373ffffffffffffffffffffffffffffffffffffffff8416614233565b73ffffffffffffffffffffffffffffffffffffffff81166000908152609e60205260408120600301905b613ad7826137a2565b8110156130ab576000613aea83836137ad565b509050613af78482613bdc565b5050600101613ace565b8015613b3057609754613b2b9073ffffffffffffffffffffffffffffffffffffffff16848461301e565b6130ab565b609754604080517f2e1a7d4d00000000000000000000000000000000000000000000000000000000815260048101859052905173ffffffffffffffffffffffffffffffffffffffff90921691632e1a7d4d9160248082019260009290919082900301818387803b158015613ba357600080fd5b505af1158015613bb7573d6000803e3d6000fd5b506130ab9250505073ffffffffffffffffffffffffffffffffffffffff841683614317565b73ffffffffffffffffffffffffffffffffffffffff8083166000908152609e602090815260408083209385168352600284019091528120805491929183613c23878761237c565b90506000613c328888846130b0565b90508015613c4d5791820180845591613c4b8588613a60565b505b613c5687612c8f565b600190940193909355509250505092915050565b613c72611b8d565b15613cde57604080517f08c379a000000000000000000000000000000000000000000000000000000000815260206004820152601060248201527f5061757361626c653a2070617573656400000000000000000000000000000000604482015290519081900360640190fd5b606580547fffffffffffffffffffffffffffffffffffffffffffffffffffffffffffffff001660011790557f62e78cea01bee320cd4e420270b5ea74000d11b0c9f74754ebdbfc544b05a258613a36612fa3565b609754604080517f70a08231000000000000000000000000000000000000000000000000000000008152306004820152905160009273ffffffffffffffffffffffffffffffffffffffff16916370a08231916024808301926020929190829003018186803b158015613da357600080fd5b505afa158015613db7573d6000803e3d6000fd5b505050506040513d6020811015613dcd57600080fd5b5051905090565b60006111bb8373ffffffffffffffffffffffffffffffffffffffff841661443d565b6000613e198473ffffffffffffffffffffffffffffffffffffffff85168461447f565b949350505050565b6040805173ffffffffffffffffffffffffffffffffffffffff80861660248301528416604482015260648082018490528251808303909101815260849091019091526020810180517bffffffffffffffffffffffffffffffffffffffffffffffffffffffff167f23b872dd00000000000000000000000000000000000000000000000000000000179052612923908590613fc0565b6000613ec0612fa3565b73ffffffffffffffffffffffffffffffffffffffff8082166000908152609e602090815260408083209389168352600284018252808320609d9092529091208154879003808355939450919290919080613f2057613f1e8489613a82565b505b6002820154613f2f9088612fa7565b6002830155600382018054880190556099805488019055613f51858888613b01565b8773ffffffffffffffffffffffffffffffffffffffff168573ffffffffffffffffffffffffffffffffffffffff167f540798df468d7b23d11f156fdb954cb19ad414d150722a7b6d55ba369dea792e896040518082815260200191505060405180910390a35050505050505050565b6000614022826040518060400160405280602081526020017f5361666545524332303a206c6f772d6c6576656c2063616c6c206661696c65648152508573ffffffffffffffffffffffffffffffffffffffff166145169092919063ffffffff16565b8051909150156130ab5780806020019051602081101561404157600080fd5b50516130ab576040517f08c379a000000000000000000000000000000000000000000000000000000000815260040180806020018281038252602a815260200180614b74602a913960400191505060405180910390fd5b60009081526001919091016020526040902054151590565b60006111bb8373ffffffffffffffffffffffffffffffffffffffff8416614525565b5490565b815460009081908310614134576040517f08c379a0000000000000000000000000000000000000000000000000000000008152600401808060200182810382526022815260200180614ae36022913960400191505060405180910390fd5b600084600001848154811061414557fe5b906000526020600020906002020190508060000154816001015492509250509250929050565b815460009082106141c7576040517f08c379a00000000000000000000000000000000000000000000000000000000081526004018080602001828103825260228152602001806149546022913960400191505060405180910390fd5b8260000182815481106141d657fe5b9060005260206000200154905092915050565b60006141f58383614098565b61422b5750815460018181018455600084815260208082209093018490558454848252828601909352604090209190915561116d565b50600061116d565b6000818152600183016020526040812054801561430d5783547fffffffffffffffffffffffffffffffffffffffffffffffffffffffffffffffff808301919081019060009087908390811061428457fe5b90600052602060002001549050808760000184815481106142a157fe5b6000918252602080832090910192909255828152600189810190925260409020908401905586548790806142d157fe5b6001900381819060005260206000200160009055905586600101600087815260200190815260200160002060009055600194505050505061116d565b600091505061116d565b8047101561438657604080517f08c379a000000000000000000000000000000000000000000000000000000000815260206004820152601d60248201527f416464726573733a20696e73756666696369656e742062616c616e6365000000604482015290519081900360640190fd5b60405160009073ffffffffffffffffffffffffffffffffffffffff84169083908381818185875af1925050503d80600081146143de576040519150601f19603f3d011682016040523d82523d6000602084013e6143e3565b606091505b50509050806130ab576040517f08c379a000000000000000000000000000000000000000000000000000000000815260040180806020018281038252603a8152602001806149c2603a913960400191505060405180910390fd5b60006111bb83836040518060400160405280601e81526020017f456e756d657261626c654d61703a206e6f6e6578697374656e74206b65790000815250614635565b6000828152600184016020526040812054806144e45750506040805180820182528381526020808201848152865460018181018955600089815284812095516002909302909501918255915190820155865486845281880190925292909120556111bb565b828560000160018303815481106144f757fe5b90600052602060002090600202016001018190555060009150506111bb565b6060613e198484600085614719565b6000818152600183016020526040812054801561430d5783547fffffffffffffffffffffffffffffffffffffffffffffffffffffffffffffffff808301919081019060009087908390811061457657fe5b906000526020600020906002020190508087600001848154811061459657fe5b6000918252602080832084546002909302019182556001938401549184019190915583548252898301905260409020908401905586548790806145d557fe5b6000828152602080822060027fffffffffffffffffffffffffffffffffffffffffffffffffffffffffffffffff909401938402018281556001908101839055929093558881528982019092526040822091909155945061116d9350505050565b600082815260018401602052604081205482816146ea576040517f08c379a00000000000000000000000000000000000000000000000000000000081526004018080602001828103825283818151815260200191508051906020019080838360005b838110156146af578181015183820152602001614697565b50505050905090810190601f1680156146dc5780820380516001836020036101000a031916815260200191505b509250505060405180910390fd5b508460000160018203815481106146fd57fe5b9060005260206000209060020201600101549150509392505050565b606082471015614774576040517f08c379a00000000000000000000000000000000000000000000000000000000081526004018080602001828103825260268152602001806149fc6026913960400191505060405180910390fd5b61477d85612f9d565b6147e857604080517f08c379a000000000000000000000000000000000000000000000000000000000815260206004820152601d60248201527f416464726573733a2063616c6c20746f206e6f6e2d636f6e7472616374000000604482015290519081900360640190fd5b6000808673ffffffffffffffffffffffffffffffffffffffff1685876040518082805190602001908083835b6020831061485157805182527fffffffffffffffffffffffffffffffffffffffffffffffffffffffffffffffe09092019160209182019101614814565b6001836020036101000a03801982511681845116808217855250505050505090500191505060006040518083038185875af1925050503d80600081146148b3576040519150601f19603f3d011682016040523d82523d6000602084013e6148b8565b606091505b50915091506148c88282866148d3565b979650505050505050565b606083156148e25750816111bb565b8251156148f25782518084602001fd5b6040517f08c379a00000000000000000000000000000000000000000000000000000000081526020600482018181528451602484015284518593919283926044019190850190808383600083156146af57818101518382015260200161469756fe456e756d657261626c655365743a20696e646578206f7574206f6620626f756e64734c50526577617264733a2063616e6e6f74207265636f7665722072657761726473546f6b656e4f776e61626c653a206e6577206f776e657220697320746865207a65726f2061646472657373416464726573733a20756e61626c6520746f2073656e642076616c75652c20726563697069656e74206d61792068617665207265766572746564416464726573733a20696e73756666696369656e742062616c616e636520666f722063616c6c4c50526577617264733a2063616e6e6f7420756e7374616b65206d6f7265207468616e207374616b65642062616c616e63654c50526577617264733a20746f6b656e56616c7565496d706c2063616e6e6f74206265207a65726f2061646472657373496e697469616c697a61626c653a20636f6e747261637420697320616c726561647920696e697469616c697a65644c50526577617264733a2063616e6e6f742072656465656d206d6f72652072657761726473207468616e206561726e6564456e756d657261626c654d61703a20696e646578206f7574206f6620626f756e6473536166654d6174683a206d756c7469706c69636174696f6e206f766572666c6f774c50526577617264733a207265636f7665727920616d6f756e74203e20756e7374616b65644c50526577617264733a207265636f7665727920616d6f756e74203e20756e72656465656d61626c655361666545524332303a204552433230206f7065726174696f6e20646964206e6f742073756363656564a264697066735822122071abf2a8a36866a707f2b69e5bcaedea85a07d20e23d8b5bcfc0cc394c5dbfef64736f6c63430007060033496e697469616c697a61626c653a20636f6e747261637420697320616c726561647920696e697469616c697a6564",
  "devdoc": {
    "kind": "dev",
    "methods": {
      "owner()": {
        "details": "Returns the address of the current owner."
      },
      "paused()": {
        "details": "Returns true if the contract is paused, and false otherwise."
      },
      "renounceOwnership()": {
        "details": "Leaves the contract without owner. It will not be possible to call `onlyOwner` functions anymore. Can only be called by the current owner. NOTE: Renouncing ownership will leave the contract without an owner, thereby removing any functionality that is only available to the owner."
      },
      "transferOwnership(address)": {
        "details": "Transfers ownership of the contract to a new account (`newOwner`). Can only be called by the current owner."
      }
    },
    "version": 1
  },
  "userdoc": {
    "kind": "user",
    "methods": {},
    "version": 1
  },
  "storageLayout": {
    "storage": [
      {
        "astId": 6,
        "contract": "contracts/rewards/LPRewards/LPRewards.sol:LPRewards",
        "label": "_initialized",
        "offset": 0,
        "slot": "0",
        "type": "t_bool"
      },
      {
        "astId": 9,
        "contract": "contracts/rewards/LPRewards/LPRewards.sol:LPRewards",
        "label": "_initializing",
        "offset": 1,
        "slot": "0",
        "type": "t_bool"
      },
      {
        "astId": 353,
        "contract": "contracts/rewards/LPRewards/LPRewards.sol:LPRewards",
        "label": "__gap",
        "offset": 0,
        "slot": "1",
        "type": "t_array(t_uint256)50_storage"
      },
      {
        "astId": 3948,
        "contract": "contracts/rewards/LPRewards/LPRewards.sol:LPRewards",
        "label": "_owner",
        "offset": 0,
        "slot": "51",
        "type": "t_address"
      },
      {
        "astId": 4067,
        "contract": "contracts/rewards/LPRewards/LPRewards.sol:LPRewards",
        "label": "__gap",
        "offset": 0,
        "slot": "52",
        "type": "t_array(t_uint256)49_storage"
      },
      {
        "astId": 375,
        "contract": "contracts/rewards/LPRewards/LPRewards.sol:LPRewards",
        "label": "_paused",
        "offset": 0,
        "slot": "101",
        "type": "t_bool"
      },
      {
        "astId": 466,
        "contract": "contracts/rewards/LPRewards/LPRewards.sol:LPRewards",
        "label": "__gap",
        "offset": 0,
        "slot": "102",
        "type": "t_array(t_uint256)49_storage"
      },
      {
        "astId": 14408,
        "contract": "contracts/rewards/LPRewards/LPRewards.sol:LPRewards",
        "label": "_rewardsToken",
        "offset": 0,
        "slot": "151",
        "type": "t_address"
      },
      {
        "astId": 14410,
        "contract": "contracts/rewards/LPRewards/LPRewards.sol:LPRewards",
        "label": "_lastTotalRewardsAccrued",
        "offset": 0,
        "slot": "152",
        "type": "t_uint256"
      },
      {
        "astId": 14412,
        "contract": "contracts/rewards/LPRewards/LPRewards.sol:LPRewards",
        "label": "_totalRewardsRedeemed",
        "offset": 0,
        "slot": "153",
        "type": "t_uint256"
      },
      {
        "astId": 14414,
        "contract": "contracts/rewards/LPRewards/LPRewards.sol:LPRewards",
        "label": "_unredeemableRewards",
        "offset": 0,
        "slot": "154",
        "type": "t_uint256"
      },
      {
        "astId": 14416,
        "contract": "contracts/rewards/LPRewards/LPRewards.sol:LPRewards",
        "label": "_tokens",
        "offset": 0,
        "slot": "155",
        "type": "t_struct(AddressSet)2680_storage"
      },
      {
        "astId": 14420,
        "contract": "contracts/rewards/LPRewards/LPRewards.sol:LPRewards",
        "label": "_tokenData",
        "offset": 0,
        "slot": "157",
        "type": "t_mapping(t_address,t_struct(TokenData)14392_storage)"
      },
      {
        "astId": 14424,
        "contract": "contracts/rewards/LPRewards/LPRewards.sol:LPRewards",
        "label": "_users",
        "offset": 0,
        "slot": "158",
        "type": "t_mapping(t_address,t_struct(UserData)14406_storage)"
      },
      {
        "astId": 14428,
        "contract": "contracts/rewards/LPRewards/LPRewards.sol:LPRewards",
        "label": "__gap",
        "offset": 0,
        "slot": "159",
        "type": "t_array(t_uint256)43_storage"
      }
    ],
    "types": {
      "t_address": {
        "encoding": "inplace",
        "label": "address",
        "numberOfBytes": "20"
      },
      "t_array(t_bytes32)dyn_storage": {
        "base": "t_bytes32",
        "encoding": "dynamic_array",
        "label": "bytes32[]",
        "numberOfBytes": "32"
      },
      "t_array(t_struct(MapEntry)8450_storage)dyn_storage": {
        "base": "t_struct(MapEntry)8450_storage",
        "encoding": "dynamic_array",
        "label": "struct EnumerableMap.MapEntry[]",
        "numberOfBytes": "32"
      },
      "t_array(t_uint256)43_storage": {
        "base": "t_uint256",
        "encoding": "inplace",
        "label": "uint256[43]",
        "numberOfBytes": "1376"
      },
      "t_array(t_uint256)49_storage": {
        "base": "t_uint256",
        "encoding": "inplace",
        "label": "uint256[49]",
        "numberOfBytes": "1568"
      },
      "t_array(t_uint256)50_storage": {
        "base": "t_uint256",
        "encoding": "inplace",
        "label": "uint256[50]",
        "numberOfBytes": "1600"
      },
      "t_bool": {
        "encoding": "inplace",
        "label": "bool",
        "numberOfBytes": "1"
      },
      "t_bytes32": {
        "encoding": "inplace",
        "label": "bytes32",
        "numberOfBytes": "32"
      },
      "t_mapping(t_address,t_struct(TokenData)14392_storage)": {
        "encoding": "mapping",
        "key": "t_address",
        "label": "mapping(address => struct LPRewardsData.TokenData)",
        "numberOfBytes": "32",
        "value": "t_struct(TokenData)14392_storage"
      },
      "t_mapping(t_address,t_struct(UserData)14406_storage)": {
        "encoding": "mapping",
        "key": "t_address",
        "label": "mapping(address => struct LPRewardsData.UserData)",
        "numberOfBytes": "32",
        "value": "t_struct(UserData)14406_storage"
      },
      "t_mapping(t_address,t_struct(UserTokenRewards)14397_storage)": {
        "encoding": "mapping",
        "key": "t_address",
        "label": "mapping(address => struct LPRewardsData.UserTokenRewards)",
        "numberOfBytes": "32",
        "value": "t_struct(UserTokenRewards)14397_storage"
      },
      "t_mapping(t_bytes32,t_uint256)": {
        "encoding": "mapping",
        "key": "t_bytes32",
        "label": "mapping(bytes32 => uint256)",
        "numberOfBytes": "32",
        "value": "t_uint256"
      },
      "t_struct(AddressSet)2680_storage": {
        "encoding": "inplace",
        "label": "struct EnumerableSet.AddressSet",
        "members": [
          {
            "astId": 2679,
            "contract": "contracts/rewards/LPRewards/LPRewards.sol:LPRewards",
            "label": "_inner",
            "offset": 0,
            "slot": "0",
            "type": "t_struct(Set)2415_storage"
          }
        ],
        "numberOfBytes": "64"
      },
      "t_struct(AddressToUintMap)8722_storage": {
        "encoding": "inplace",
        "label": "struct EnumerableMap.AddressToUintMap",
        "members": [
          {
            "astId": 8721,
            "contract": "contracts/rewards/LPRewards/LPRewards.sol:LPRewards",
            "label": "_inner",
            "offset": 0,
            "slot": "0",
            "type": "t_struct(Map)8458_storage"
          }
        ],
        "numberOfBytes": "64"
      },
      "t_struct(Map)8458_storage": {
        "encoding": "inplace",
        "label": "struct EnumerableMap.Map",
        "members": [
          {
            "astId": 8453,
            "contract": "contracts/rewards/LPRewards/LPRewards.sol:LPRewards",
            "label": "_entries",
            "offset": 0,
            "slot": "0",
            "type": "t_array(t_struct(MapEntry)8450_storage)dyn_storage"
          },
          {
            "astId": 8457,
            "contract": "contracts/rewards/LPRewards/LPRewards.sol:LPRewards",
            "label": "_indexes",
            "offset": 0,
            "slot": "1",
            "type": "t_mapping(t_bytes32,t_uint256)"
          }
        ],
        "numberOfBytes": "64"
      },
      "t_struct(MapEntry)8450_storage": {
        "encoding": "inplace",
        "label": "struct EnumerableMap.MapEntry",
        "members": [
          {
            "astId": 8447,
            "contract": "contracts/rewards/LPRewards/LPRewards.sol:LPRewards",
            "label": "_key",
            "offset": 0,
            "slot": "0",
            "type": "t_bytes32"
          },
          {
            "astId": 8449,
            "contract": "contracts/rewards/LPRewards/LPRewards.sol:LPRewards",
            "label": "_value",
            "offset": 0,
            "slot": "1",
            "type": "t_bytes32"
          }
        ],
        "numberOfBytes": "64"
      },
      "t_struct(Set)2415_storage": {
        "encoding": "inplace",
        "label": "struct EnumerableSet.Set",
        "members": [
          {
            "astId": 2410,
            "contract": "contracts/rewards/LPRewards/LPRewards.sol:LPRewards",
            "label": "_values",
            "offset": 0,
            "slot": "0",
            "type": "t_array(t_bytes32)dyn_storage"
          },
          {
            "astId": 2414,
            "contract": "contracts/rewards/LPRewards/LPRewards.sol:LPRewards",
            "label": "_indexes",
            "offset": 0,
            "slot": "1",
            "type": "t_mapping(t_bytes32,t_uint256)"
          }
        ],
        "numberOfBytes": "64"
      },
      "t_struct(TokenData)14392_storage": {
        "encoding": "inplace",
        "label": "struct LPRewardsData.TokenData",
        "members": [
          {
            "astId": 14381,
            "contract": "contracts/rewards/LPRewards/LPRewards.sol:LPRewards",
            "label": "arpt",
            "offset": 0,
            "slot": "0",
            "type": "t_uint256"
          },
          {
            "astId": 14383,
            "contract": "contracts/rewards/LPRewards/LPRewards.sol:LPRewards",
            "label": "lastRewardsAccrued",
            "offset": 0,
            "slot": "1",
            "type": "t_uint256"
          },
          {
            "astId": 14385,
            "contract": "contracts/rewards/LPRewards/LPRewards.sol:LPRewards",
            "label": "rewards",
            "offset": 0,
            "slot": "2",
            "type": "t_uint256"
          },
          {
            "astId": 14387,
            "contract": "contracts/rewards/LPRewards/LPRewards.sol:LPRewards",
            "label": "rewardsRedeemed",
            "offset": 0,
            "slot": "3",
            "type": "t_uint256"
          },
          {
            "astId": 14389,
            "contract": "contracts/rewards/LPRewards/LPRewards.sol:LPRewards",
            "label": "totalStaked",
            "offset": 0,
            "slot": "4",
            "type": "t_uint256"
          },
          {
            "astId": 14391,
            "contract": "contracts/rewards/LPRewards/LPRewards.sol:LPRewards",
            "label": "valueImpl",
            "offset": 0,
            "slot": "5",
            "type": "t_address"
          }
        ],
        "numberOfBytes": "192"
      },
      "t_struct(UserData)14406_storage": {
        "encoding": "inplace",
        "label": "struct LPRewardsData.UserData",
        "members": [
          {
            "astId": 14399,
            "contract": "contracts/rewards/LPRewards/LPRewards.sol:LPRewards",
            "label": "tokensWithRewards",
            "offset": 0,
            "slot": "0",
            "type": "t_struct(AddressSet)2680_storage"
          },
          {
            "astId": 14403,
            "contract": "contracts/rewards/LPRewards/LPRewards.sol:LPRewards",
            "label": "rewardsFor",
            "offset": 0,
            "slot": "2",
            "type": "t_mapping(t_address,t_struct(UserTokenRewards)14397_storage)"
          },
          {
            "astId": 14405,
            "contract": "contracts/rewards/LPRewards/LPRewards.sol:LPRewards",
            "label": "staked",
            "offset": 0,
            "slot": "3",
            "type": "t_struct(AddressToUintMap)8722_storage"
          }
        ],
        "numberOfBytes": "160"
      },
      "t_struct(UserTokenRewards)14397_storage": {
        "encoding": "inplace",
        "label": "struct LPRewardsData.UserTokenRewards",
        "members": [
          {
            "astId": 14394,
            "contract": "contracts/rewards/LPRewards/LPRewards.sol:LPRewards",
            "label": "pending",
            "offset": 0,
            "slot": "0",
            "type": "t_uint256"
          },
          {
            "astId": 14396,
            "contract": "contracts/rewards/LPRewards/LPRewards.sol:LPRewards",
            "label": "arptLast",
            "offset": 0,
            "slot": "1",
            "type": "t_uint256"
          }
        ],
        "numberOfBytes": "64"
      },
      "t_uint256": {
        "encoding": "inplace",
        "label": "uint256",
        "numberOfBytes": "32"
      }
    }
  }
}