{
  "address": "0x95C7Ac4c71b13771670afFf46ed3531eebc67A72",
  "abi": [
    {
      "inputs": [
        {
          "internalType": "address",
          "name": "_token",
          "type": "address"
        },
        {
          "internalType": "address",
          "name": "_valueToken",
          "type": "address"
        }
      ],
      "stateMutability": "nonpayable",
      "type": "constructor"
    },
    {
      "inputs": [],
      "name": "feeOn",
      "outputs": [
        {
          "internalType": "bool",
          "name": "",
          "type": "bool"
        }
      ],
      "stateMutability": "view",
      "type": "function"
    },
    {
      "inputs": [],
      "name": "token",
      "outputs": [
        {
          "internalType": "address",
          "name": "",
          "type": "address"
        }
      ],
      "stateMutability": "view",
      "type": "function"
    },
    {
      "inputs": [],
      "name": "valuePerToken",
      "outputs": [
        {
          "internalType": "uint256",
          "name": "numerator",
          "type": "uint256"
        },
        {
          "internalType": "uint256",
          "name": "denominator",
          "type": "uint256"
        }
      ],
      "stateMutability": "view",
      "type": "function"
    },
    {
      "inputs": [],
      "name": "valueToken",
      "outputs": [
        {
          "internalType": "address",
          "name": "",
          "type": "address"
        }
      ],
      "stateMutability": "view",
      "type": "function"
    }
  ],
  "transactionHash": "0x582c98ac1dcf8794798f0815c0915cc59e4128ae844590e162c6642d90df4bd5",
  "args": [
    "0xc522Aba8a44ef69F23cb714c6A8E4888887ABb00",
    "0x06f8AA7914E7EfD508270873C7F49907e8c6c55a"
  ],
  "solcInputHash": "b64ed1bd0442f95fc842a0027542327b",
  "bytecode": "0x60c060405234801561001057600080fd5b506040516109183803806109188339818101604052604081101561003357600080fd5b50805160209182015160408051630dfe168160e01b815290519293919284926000926001600160a01b03851692630dfe168192600480840193919291829003018186803b15801561008357600080fd5b505afa158015610097573d6000803e3d6000fd5b505050506040513d60208110156100ad57600080fd5b50516040805163d21220a760e01b815290519192506000916001600160a01b0385169163d21220a7916004808301926020929190829003018186803b1580156100f557600080fd5b505afa158015610109573d6000803e3d6000fd5b505050506040513d602081101561011f57600080fd5b505190506001600160a01b03848116908316148061014e5750806001600160a01b0316846001600160a01b0316145b61019f576040805162461bcd60e51b815260206004820152601f60248201527f56616c7565506572554e4956323a20706f6f6c206c61636b7320746f6b656e00604482015290519081900360640190fd5b5050506001600160601b0319606092831b8116608052911b1660a05260805160601c60a05160601c6107266101f2600039806104e1528061054752508060cc528061021a528061056b52506107266000f3fe608060405234801561001057600080fd5b506004361061004c5760003560e01c80634f335d0a14610051578063a8fa8e521461006d578063effff82f1461008e578063fc0c546a146100bf575b600080fd5b6100596100c7565b604080519115158252519081900360200190f35b610075610213565b6040805192835260208301919091528051918290030190f35b610096610545565b6040805173ffffffffffffffffffffffffffffffffffffffff9092168252519081900360200190f35b610096610569565b6000807f000000000000000000000000000000000000000000000000000000000000000073ffffffffffffffffffffffffffffffffffffffff1663c45a01556040518163ffffffff1660e01b815260040160206040518083038186803b15801561013057600080fd5b505afa158015610144573d6000803e3d6000fd5b505050506040513d602081101561015a57600080fd5b5051604080517f017e7e58000000000000000000000000000000000000000000000000000000008152905191925060009173ffffffffffffffffffffffffffffffffffffffff84169163017e7e58916004808301926020929190829003018186803b1580156101c857600080fd5b505afa1580156101dc573d6000803e3d6000fd5b505050506040513d60208110156101f257600080fd5b505173ffffffffffffffffffffffffffffffffffffffff1615159250505090565b60008060007f0000000000000000000000000000000000000000000000000000000000000000905060008173ffffffffffffffffffffffffffffffffffffffff166318160ddd6040518163ffffffff1660e01b815260040160206040518083038186803b15801561028357600080fd5b505afa158015610297573d6000803e3d6000fd5b505050506040513d60208110156102ad57600080fd5b5051604080517f0902f1ac0000000000000000000000000000000000000000000000000000000081529051919250600091829173ffffffffffffffffffffffffffffffffffffffff861691630902f1ac91600480820192606092909190829003018186803b15801561031e57600080fd5b505afa158015610332573d6000803e3d6000fd5b505050506040513d606081101561034857600080fd5b508051602090910151909250905061035e6100c7565b156104695760008473ffffffffffffffffffffffffffffffffffffffff16637464fc3d6040518163ffffffff1660e01b815260040160206040518083038186803b1580156103ab57600080fd5b505afa1580156103bf573d6000803e3d6000fd5b505050506040513d60208110156103d557600080fd5b5051905080156104675760006104066104016dffffffffffffffffffffffffffff86811690861661058d565b610609565b9050600061041383610609565b90508082111561046457600061042b8783850361058d565b905060006104448361043e86600561058d565b9061065b565b9050600081838161045157fe5b04905061045e898261065b565b98505050505b50505b505b60008473ffffffffffffffffffffffffffffffffffffffff16630dfe16816040518163ffffffff1660e01b815260040160206040518083038186803b1580156104b157600080fd5b505afa1580156104c5573d6000803e3d6000fd5b505050506040513d60208110156104db57600080fd5b505190507f000000000000000000000000000000000000000000000000000000000000000073ffffffffffffffffffffffffffffffffffffffff908116908216146105265781610528565b825b6dffffffffffffffffffffffffffff169793965092945050505050565b7f000000000000000000000000000000000000000000000000000000000000000081565b7f000000000000000000000000000000000000000000000000000000000000000081565b60008261059c57506000610603565b828202828482816105a957fe5b0414610600576040517f08c379a00000000000000000000000000000000000000000000000000000000081526004018080602001828103825260218152602001806106d06021913960400191505060405180910390fd5b90505b92915050565b6000600382111561064c575080600160028204015b818110156106465780915060028182858161063557fe5b04018161063e57fe5b04905061061e565b50610656565b8115610656575060015b919050565b60008282018381101561060057604080517f08c379a000000000000000000000000000000000000000000000000000000000815260206004820152601b60248201527f536166654d6174683a206164646974696f6e206f766572666c6f770000000000604482015290519081900360640190fdfe536166654d6174683a206d756c7469706c69636174696f6e206f766572666c6f77a2646970667358221220f88a4ef1052ffe45d53728bb05f46a1e88a301a06dbb7d315ed6608c0f5d02a664736f6c63430007060033",
  "devdoc": {
    "kind": "dev",
    "methods": {},
    "version": 1
  },
  "userdoc": {
    "kind": "user",
    "methods": {},
    "version": 1
  },
  "storageLayout": {
    "storage": [],
    "types": null
  }
}