{
  "address": "0xB1977127Ad3B1bEB4343aF09B1dd9C6d8EE100ea",
  "abi": [
    {
      "inputs": [
        {
          "internalType": "address",
          "name": "owner_",
          "type": "address"
        }
      ],
      "stateMutability": "nonpayable",
      "type": "constructor"
    },
    {
      "anonymous": false,
      "inputs": [
        {
          "indexed": true,
          "internalType": "address",
          "name": "author",
          "type": "address"
        }
      ],
      "name": "Destroyed",
      "type": "event"
    },
    {
      "anonymous": false,
      "inputs": [
        {
          "indexed": true,
          "internalType": "address",
          "name": "previousOwner",
          "type": "address"
        },
        {
          "indexed": true,
          "internalType": "address",
          "name": "newOwner",
          "type": "address"
        }
      ],
      "name": "OwnershipTransferred",
      "type": "event"
    },
    {
      "anonymous": false,
      "inputs": [
        {
          "indexed": false,
          "internalType": "address",
          "name": "account",
          "type": "address"
        }
      ],
      "name": "Paused",
      "type": "event"
    },
    {
      "anonymous": false,
      "inputs": [
        {
          "indexed": false,
          "internalType": "address",
          "name": "account",
          "type": "address"
        }
      ],
      "name": "Unpaused",
      "type": "event"
    },
    {
      "inputs": [],
      "name": "destroy",
      "outputs": [],
      "stateMutability": "nonpayable",
      "type": "function"
    },
    {
      "inputs": [
        {
          "internalType": "address",
          "name": "owner_",
          "type": "address"
        }
      ],
      "name": "init",
      "outputs": [],
      "stateMutability": "nonpayable",
      "type": "function"
    },
    {
      "inputs": [],
      "name": "owner",
      "outputs": [
        {
          "internalType": "address",
          "name": "",
          "type": "address"
        }
      ],
      "stateMutability": "view",
      "type": "function"
    },
    {
      "inputs": [],
      "name": "paused",
      "outputs": [
        {
          "internalType": "bool",
          "name": "",
          "type": "bool"
        }
      ],
      "stateMutability": "view",
      "type": "function"
    },
    {
      "inputs": [],
      "name": "renounceOwnership",
      "outputs": [],
      "stateMutability": "nonpayable",
      "type": "function"
    },
    {
      "inputs": [
        {
          "internalType": "address",
          "name": "newOwner",
          "type": "address"
        }
      ],
      "name": "transferOwnership",
      "outputs": [],
      "stateMutability": "nonpayable",
      "type": "function"
    }
  ],
  "transactionHash": "0x5011cc05f3734ca615c59be22ad2bcfb3bcb9fd72c06ea0c439a7417bd45a8ee",
  "args": [
    "0x5757Dd711EaE80e181E07CdbCe43359Ac1048394"
  ],
  "solcInputHash": "ab0b359a0378bf8b70adc5ed34764028",
  "bytecode": "0x60806040523480156200001157600080fd5b5060405162000e9438038062000e94833981810160405260208110156200003757600080fd5b505162000044816200004b565b5062000389565b600054610100900460ff16806200006757506200006762000115565b8062000076575060005460ff16155b620000b35760405162461bcd60e51b815260040180806020018281038252602e81526020018062000e66602e913960400191505060405180910390fd5b600054610100900460ff16158015620000df576000805460ff1961ff0019909116610100171660011790555b620000e962000133565b620000f482620001dd565b620000fe620002d0565b801562000111576000805461ff00191690555b5050565b60006200012d306200038360201b620006571760201c565b15905090565b600054610100900460ff16806200014f57506200014f62000115565b806200015e575060005460ff16155b6200019b5760405162461bcd60e51b815260040180806020018281038252602e81526020018062000e66602e913960400191505060405180910390fd5b600054610100900460ff16158015620001c7576000805460ff1961ff0019909116610100171660011790555b8015620001da576000805461ff00191690555b50565b600054610100900460ff1680620001f95750620001f962000115565b8062000208575060005460ff16155b620002455760405162461bcd60e51b815260040180806020018281038252602e81526020018062000e66602e913960400191505060405180910390fd5b600054610100900460ff1615801562000271576000805460ff1961ff0019909116610100171660011790555b603380546001600160a01b0319166001600160a01b0384169081179091556040516000907f8be0079c531659141344cd1fd0a4f28419497f9722a3daafe3b4186f6b6457e0908290a3801562000111576000805461ff00191690555050565b600054610100900460ff1680620002ec5750620002ec62000115565b80620002fb575060005460ff16155b620003385760405162461bcd60e51b815260040180806020018281038252602e81526020018062000e66602e913960400191505060405180910390fd5b600054610100900460ff1615801562000364576000805460ff1961ff0019909116610100171660011790555b6065805460ff191690558015620001da576000805461ff001916905550565b3b151590565b610acd80620003996000396000f3fe608060405234801561001057600080fd5b50600436106100725760003560e01c806383197ef01161005057806383197ef0146100d05780638da5cb5b146100d8578063f2fde38b1461010957610072565b806319ab453c146100775780635c975abb146100ac578063715018a6146100c8575b600080fd5b6100aa6004803603602081101561008d57600080fd5b503573ffffffffffffffffffffffffffffffffffffffff1661013c565b005b6100b461026a565b604080519115158252519081900360200190f35b6100aa610273565b6100aa61038a565b6100e0610499565b6040805173ffffffffffffffffffffffffffffffffffffffff9092168252519081900360200190f35b6100aa6004803603602081101561011f57600080fd5b503573ffffffffffffffffffffffffffffffffffffffff166104b5565b600054610100900460ff1680610155575061015561065d565b80610163575060005460ff16155b6101b8576040517f08c379a000000000000000000000000000000000000000000000000000000000815260040180806020018281038252602e815260200180610a6a602e913960400191505060405180910390fd5b600054610100900460ff1615801561021e57600080547fffffffffffffffffffffffffffffffffffffffffffffffffffffffffffffff007fffffffffffffffffffffffffffffffffffffffffffffffffffffffffffff00ff909116610100171660011790555b61022661066e565b61022f82610782565b610237610904565b801561026657600080547fffffffffffffffffffffffffffffffffffffffffffffffffffffffffffff00ff1690555b5050565b60655460ff1690565b61027b610a3f565b73ffffffffffffffffffffffffffffffffffffffff16610299610499565b73ffffffffffffffffffffffffffffffffffffffff161461031b57604080517f08c379a000000000000000000000000000000000000000000000000000000000815260206004820181905260248201527f4f776e61626c653a2063616c6c6572206973206e6f7420746865206f776e6572604482015290519081900360640190fd5b60335460405160009173ffffffffffffffffffffffffffffffffffffffff16907f8be0079c531659141344cd1fd0a4f28419497f9722a3daafe3b4186f6b6457e0908390a3603380547fffffffffffffffffffffffff0000000000000000000000000000000000000000169055565b610392610a3f565b73ffffffffffffffffffffffffffffffffffffffff166103b0610499565b73ffffffffffffffffffffffffffffffffffffffff161461043257604080517f08c379a000000000000000000000000000000000000000000000000000000000815260206004820181905260248201527f4f776e61626c653a2063616c6c6572206973206e6f7420746865206f776e6572604482015290519081900360640190fd5b600061043c610a3f565b60405190915073ffffffffffffffffffffffffffffffffffffffff8216907f7dec311f70bce33f6997a1cc140bcb6149f9ee83d6be656e848b00d170c9820090600090a28073ffffffffffffffffffffffffffffffffffffffff16ff5b60335473ffffffffffffffffffffffffffffffffffffffff1690565b6104bd610a3f565b73ffffffffffffffffffffffffffffffffffffffff166104db610499565b73ffffffffffffffffffffffffffffffffffffffff161461055d57604080517f08c379a000000000000000000000000000000000000000000000000000000000815260206004820181905260248201527f4f776e61626c653a2063616c6c6572206973206e6f7420746865206f776e6572604482015290519081900360640190fd5b73ffffffffffffffffffffffffffffffffffffffff81166105c9576040517f08c379a0000000000000000000000000000000000000000000000000000000008152600401808060200182810382526026815260200180610a446026913960400191505060405180910390fd5b60335460405173ffffffffffffffffffffffffffffffffffffffff8084169216907f8be0079c531659141344cd1fd0a4f28419497f9722a3daafe3b4186f6b6457e090600090a3603380547fffffffffffffffffffffffff00000000000000000000000000000000000000001673ffffffffffffffffffffffffffffffffffffffff92909216919091179055565b3b151590565b600061066830610657565b15905090565b600054610100900460ff1680610687575061068761065d565b80610695575060005460ff16155b6106ea576040517f08c379a000000000000000000000000000000000000000000000000000000000815260040180806020018281038252602e815260200180610a6a602e913960400191505060405180910390fd5b600054610100900460ff1615801561075057600080547fffffffffffffffffffffffffffffffffffffffffffffffffffffffffffffff007fffffffffffffffffffffffffffffffffffffffffffffffffffffffffffff00ff909116610100171660011790555b801561077f57600080547fffffffffffffffffffffffffffffffffffffffffffffffffffffffffffff00ff1690555b50565b600054610100900460ff168061079b575061079b61065d565b806107a9575060005460ff16155b6107fe576040517f08c379a000000000000000000000000000000000000000000000000000000000815260040180806020018281038252602e815260200180610a6a602e913960400191505060405180910390fd5b600054610100900460ff1615801561086457600080547fffffffffffffffffffffffffffffffffffffffffffffffffffffffffffffff007fffffffffffffffffffffffffffffffffffffffffffffffffffffffffffff00ff909116610100171660011790555b603380547fffffffffffffffffffffffff00000000000000000000000000000000000000001673ffffffffffffffffffffffffffffffffffffffff84169081179091556040516000907f8be0079c531659141344cd1fd0a4f28419497f9722a3daafe3b4186f6b6457e0908290a3801561026657600080547fffffffffffffffffffffffffffffffffffffffffffffffffffffffffffff00ff1690555050565b600054610100900460ff168061091d575061091d61065d565b8061092b575060005460ff16155b610980576040517f08c379a000000000000000000000000000000000000000000000000000000000815260040180806020018281038252602e815260200180610a6a602e913960400191505060405180910390fd5b600054610100900460ff161580156109e657600080547fffffffffffffffffffffffffffffffffffffffffffffffffffffffffffffff007fffffffffffffffffffffffffffffffffffffffffffffffffffffffffffff00ff909116610100171660011790555b606580547fffffffffffffffffffffffffffffffffffffffffffffffffffffffffffffff00169055801561077f57600080547fffffffffffffffffffffffffffffffffffffffffffffffffffffffffffff00ff16905550565b339056fe4f776e61626c653a206e6577206f776e657220697320746865207a65726f2061646472657373496e697469616c697a61626c653a20636f6e747261637420697320616c726561647920696e697469616c697a6564a26469706673582212205fb4ad32201bc5ba033961aaeaa610af0634bfb5ccde994fa8211ac0e7b27c4964736f6c63430007060033496e697469616c697a61626c653a20636f6e747261637420697320616c726561647920696e697469616c697a6564",
  "devdoc": {
    "kind": "dev",
    "methods": {
      "owner()": {
        "details": "Returns the address of the current owner."
      },
      "paused()": {
        "details": "Returns true if the contract is paused, and false otherwise."
      },
      "renounceOwnership()": {
        "details": "Leaves the contract without owner. It will not be possible to call `onlyOwner` functions anymore. Can only be called by the current owner. NOTE: Renouncing ownership will leave the contract without an owner, thereby removing any functionality that is only available to the owner."
      },
      "transferOwnership(address)": {
        "details": "Transfers ownership of the contract to a new account (`newOwner`). Can only be called by the current owner."
      }
    },
    "version": 1
  },
  "userdoc": {
    "kind": "user",
    "methods": {},
    "version": 1
  },
  "storageLayout": {
    "storage": [
      {
        "astId": 6,
        "contract": "contracts/exchanges/ETHmxMinter/ETHmxMinter.sol:ETHmxMinter",
        "label": "_initialized",
        "offset": 0,
        "slot": "0",
        "type": "t_bool"
      },
      {
        "astId": 9,
        "contract": "contracts/exchanges/ETHmxMinter/ETHmxMinter.sol:ETHmxMinter",
        "label": "_initializing",
        "offset": 1,
        "slot": "0",
        "type": "t_bool"
      },
      {
        "astId": 353,
        "contract": "contracts/exchanges/ETHmxMinter/ETHmxMinter.sol:ETHmxMinter",
        "label": "__gap",
        "offset": 0,
        "slot": "1",
        "type": "t_array(t_uint256)50_storage"
      },
      {
        "astId": 3948,
        "contract": "contracts/exchanges/ETHmxMinter/ETHmxMinter.sol:ETHmxMinter",
        "label": "_owner",
        "offset": 0,
        "slot": "51",
        "type": "t_address"
      },
      {
        "astId": 4067,
        "contract": "contracts/exchanges/ETHmxMinter/ETHmxMinter.sol:ETHmxMinter",
        "label": "__gap",
        "offset": 0,
        "slot": "52",
        "type": "t_array(t_uint256)49_storage"
      },
      {
        "astId": 375,
        "contract": "contracts/exchanges/ETHmxMinter/ETHmxMinter.sol:ETHmxMinter",
        "label": "_paused",
        "offset": 0,
        "slot": "101",
        "type": "t_bool"
      },
      {
        "astId": 466,
        "contract": "contracts/exchanges/ETHmxMinter/ETHmxMinter.sol:ETHmxMinter",
        "label": "__gap",
        "offset": 0,
        "slot": "102",
        "type": "t_array(t_uint256)49_storage"
      },
      {
        "astId": 4465,
        "contract": "contracts/exchanges/ETHmxMinter/ETHmxMinter.sol:ETHmxMinter",
        "label": "_ethmx",
        "offset": 0,
        "slot": "151",
        "type": "t_address"
      },
      {
        "astId": 4467,
        "contract": "contracts/exchanges/ETHmxMinter/ETHmxMinter.sol:ETHmxMinter",
        "label": "_ethtx",
        "offset": 0,
        "slot": "152",
        "type": "t_address"
      },
      {
        "astId": 4469,
        "contract": "contracts/exchanges/ETHmxMinter/ETHmxMinter.sol:ETHmxMinter",
        "label": "_ethtxAMM",
        "offset": 0,
        "slot": "153",
        "type": "t_address"
      },
      {
        "astId": 4471,
        "contract": "contracts/exchanges/ETHmxMinter/ETHmxMinter.sol:ETHmxMinter",
        "label": "_weth",
        "offset": 0,
        "slot": "154",
        "type": "t_address"
      },
      {
        "astId": 4473,
        "contract": "contracts/exchanges/ETHmxMinter/ETHmxMinter.sol:ETHmxMinter",
        "label": "_totalGiven",
        "offset": 0,
        "slot": "155",
        "type": "t_uint256"
      },
      {
        "astId": 4475,
        "contract": "contracts/exchanges/ETHmxMinter/ETHmxMinter.sol:ETHmxMinter",
        "label": "_ethmxMintParams",
        "offset": 0,
        "slot": "156",
        "type": "t_struct(ETHmxMintParams)8436_storage"
      },
      {
        "astId": 4477,
        "contract": "contracts/exchanges/ETHmxMinter/ETHmxMinter.sol:ETHmxMinter",
        "label": "_minMintPrice",
        "offset": 0,
        "slot": "157",
        "type": "t_uint128"
      },
      {
        "astId": 4479,
        "contract": "contracts/exchanges/ETHmxMinter/ETHmxMinter.sol:ETHmxMinter",
        "label": "_mu",
        "offset": 16,
        "slot": "157",
        "type": "t_uint64"
      },
      {
        "astId": 4481,
        "contract": "contracts/exchanges/ETHmxMinter/ETHmxMinter.sol:ETHmxMinter",
        "label": "_lambda",
        "offset": 24,
        "slot": "157",
        "type": "t_uint64"
      },
      {
        "astId": 4483,
        "contract": "contracts/exchanges/ETHmxMinter/ETHmxMinter.sol:ETHmxMinter",
        "label": "_lpShareNum",
        "offset": 0,
        "slot": "158",
        "type": "t_uint128"
      },
      {
        "astId": 4485,
        "contract": "contracts/exchanges/ETHmxMinter/ETHmxMinter.sol:ETHmxMinter",
        "label": "_lpShareDen",
        "offset": 16,
        "slot": "158",
        "type": "t_uint128"
      },
      {
        "astId": 4487,
        "contract": "contracts/exchanges/ETHmxMinter/ETHmxMinter.sol:ETHmxMinter",
        "label": "_lps",
        "offset": 0,
        "slot": "159",
        "type": "t_struct(AddressSet)2680_storage"
      },
      {
        "astId": 4489,
        "contract": "contracts/exchanges/ETHmxMinter/ETHmxMinter.sol:ETHmxMinter",
        "label": "_lpRecipient",
        "offset": 0,
        "slot": "161",
        "type": "t_address"
      },
      {
        "astId": 4491,
        "contract": "contracts/exchanges/ETHmxMinter/ETHmxMinter.sol:ETHmxMinter",
        "label": "_inGenesis",
        "offset": 20,
        "slot": "161",
        "type": "t_bool"
      },
      {
        "astId": 4495,
        "contract": "contracts/exchanges/ETHmxMinter/ETHmxMinter.sol:ETHmxMinter",
        "label": "__gap",
        "offset": 0,
        "slot": "162",
        "type": "t_array(t_uint256)39_storage"
      }
    ],
    "types": {
      "t_address": {
        "encoding": "inplace",
        "label": "address",
        "numberOfBytes": "20"
      },
      "t_array(t_bytes32)dyn_storage": {
        "base": "t_bytes32",
        "encoding": "dynamic_array",
        "label": "bytes32[]",
        "numberOfBytes": "32"
      },
      "t_array(t_uint256)39_storage": {
        "base": "t_uint256",
        "encoding": "inplace",
        "label": "uint256[39]",
        "numberOfBytes": "1248"
      },
      "t_array(t_uint256)49_storage": {
        "base": "t_uint256",
        "encoding": "inplace",
        "label": "uint256[49]",
        "numberOfBytes": "1568"
      },
      "t_array(t_uint256)50_storage": {
        "base": "t_uint256",
        "encoding": "inplace",
        "label": "uint256[50]",
        "numberOfBytes": "1600"
      },
      "t_bool": {
        "encoding": "inplace",
        "label": "bool",
        "numberOfBytes": "1"
      },
      "t_bytes32": {
        "encoding": "inplace",
        "label": "bytes32",
        "numberOfBytes": "32"
      },
      "t_mapping(t_bytes32,t_uint256)": {
        "encoding": "mapping",
        "key": "t_bytes32",
        "label": "mapping(bytes32 => uint256)",
        "numberOfBytes": "32",
        "value": "t_uint256"
      },
      "t_struct(AddressSet)2680_storage": {
        "encoding": "inplace",
        "label": "struct EnumerableSet.AddressSet",
        "members": [
          {
            "astId": 2679,
            "contract": "contracts/exchanges/ETHmxMinter/ETHmxMinter.sol:ETHmxMinter",
            "label": "_inner",
            "offset": 0,
            "slot": "0",
            "type": "t_struct(Set)2415_storage"
          }
        ],
        "numberOfBytes": "64"
      },
      "t_struct(ETHmxMintParams)8436_storage": {
        "encoding": "inplace",
        "label": "struct IETHmxMinter.ETHmxMintParams",
        "members": [
          {
            "astId": 8425,
            "contract": "contracts/exchanges/ETHmxMinter/ETHmxMinter.sol:ETHmxMinter",
            "label": "cCapNum",
            "offset": 0,
            "slot": "0",
            "type": "t_uint32"
          },
          {
            "astId": 8427,
            "contract": "contracts/exchanges/ETHmxMinter/ETHmxMinter.sol:ETHmxMinter",
            "label": "cCapDen",
            "offset": 4,
            "slot": "0",
            "type": "t_uint32"
          },
          {
            "astId": 8429,
            "contract": "contracts/exchanges/ETHmxMinter/ETHmxMinter.sol:ETHmxMinter",
            "label": "zetaFloorNum",
            "offset": 8,
            "slot": "0",
            "type": "t_uint32"
          },
          {
            "astId": 8431,
            "contract": "contracts/exchanges/ETHmxMinter/ETHmxMinter.sol:ETHmxMinter",
            "label": "zetaFloorDen",
            "offset": 12,
            "slot": "0",
            "type": "t_uint32"
          },
          {
            "astId": 8433,
            "contract": "contracts/exchanges/ETHmxMinter/ETHmxMinter.sol:ETHmxMinter",
            "label": "zetaCeilNum",
            "offset": 16,
            "slot": "0",
            "type": "t_uint32"
          },
          {
            "astId": 8435,
            "contract": "contracts/exchanges/ETHmxMinter/ETHmxMinter.sol:ETHmxMinter",
            "label": "zetaCeilDen",
            "offset": 20,
            "slot": "0",
            "type": "t_uint32"
          }
        ],
        "numberOfBytes": "32"
      },
      "t_struct(Set)2415_storage": {
        "encoding": "inplace",
        "label": "struct EnumerableSet.Set",
        "members": [
          {
            "astId": 2410,
            "contract": "contracts/exchanges/ETHmxMinter/ETHmxMinter.sol:ETHmxMinter",
            "label": "_values",
            "offset": 0,
            "slot": "0",
            "type": "t_array(t_bytes32)dyn_storage"
          },
          {
            "astId": 2414,
            "contract": "contracts/exchanges/ETHmxMinter/ETHmxMinter.sol:ETHmxMinter",
            "label": "_indexes",
            "offset": 0,
            "slot": "1",
            "type": "t_mapping(t_bytes32,t_uint256)"
          }
        ],
        "numberOfBytes": "64"
      },
      "t_uint128": {
        "encoding": "inplace",
        "label": "uint128",
        "numberOfBytes": "16"
      },
      "t_uint256": {
        "encoding": "inplace",
        "label": "uint256",
        "numberOfBytes": "32"
      },
      "t_uint32": {
        "encoding": "inplace",
        "label": "uint32",
        "numberOfBytes": "4"
      },
      "t_uint64": {
        "encoding": "inplace",
        "label": "uint64",
        "numberOfBytes": "8"
      }
    }
  }
}