{
  "address": "0x384E11EE36E944746eD22b9aFBD124a45803d02A",
  "abi": [
    {
      "inputs": [
        {
          "internalType": "address",
          "name": "owner_",
          "type": "address"
        }
      ],
      "stateMutability": "nonpayable",
      "type": "constructor"
    },
    {
      "anonymous": false,
      "inputs": [
        {
          "indexed": true,
          "internalType": "address",
          "name": "author",
          "type": "address"
        },
        {
          "indexed": false,
          "internalType": "uint256",
          "name": "interval",
          "type": "uint256"
        }
      ],
      "name": "AccrualUpdateIntervalSet",
      "type": "event"
    },
    {
      "anonymous": false,
      "inputs": [
        {
          "indexed": true,
          "internalType": "address",
          "name": "author",
          "type": "address"
        },
        {
          "indexed": false,
          "internalType": "uint256",
          "name": "accruedRewards",
          "type": "uint256"
        }
      ],
      "name": "AccrualUpdated",
      "type": "event"
    },
    {
      "anonymous": false,
      "inputs": [
        {
          "indexed": true,
          "internalType": "address",
          "name": "author",
          "type": "address"
        },
        {
          "indexed": true,
          "internalType": "address",
          "name": "account",
          "type": "address"
        }
      ],
      "name": "ETHmxSet",
      "type": "event"
    },
    {
      "anonymous": false,
      "inputs": [
        {
          "indexed": true,
          "internalType": "address",
          "name": "previousOwner",
          "type": "address"
        },
        {
          "indexed": true,
          "internalType": "address",
          "name": "newOwner",
          "type": "address"
        }
      ],
      "name": "OwnershipTransferred",
      "type": "event"
    },
    {
      "anonymous": false,
      "inputs": [
        {
          "indexed": false,
          "internalType": "address",
          "name": "account",
          "type": "address"
        }
      ],
      "name": "Paused",
      "type": "event"
    },
    {
      "anonymous": false,
      "inputs": [
        {
          "indexed": true,
          "internalType": "address",
          "name": "author",
          "type": "address"
        },
        {
          "indexed": true,
          "internalType": "address",
          "name": "to",
          "type": "address"
        },
        {
          "indexed": false,
          "internalType": "uint256",
          "name": "amount",
          "type": "uint256"
        }
      ],
      "name": "RecoveredUnredeemableRewards",
      "type": "event"
    },
    {
      "anonymous": false,
      "inputs": [
        {
          "indexed": true,
          "internalType": "address",
          "name": "author",
          "type": "address"
        },
        {
          "indexed": true,
          "internalType": "address",
          "name": "to",
          "type": "address"
        },
        {
          "indexed": false,
          "internalType": "uint256",
          "name": "amount",
          "type": "uint256"
        }
      ],
      "name": "RecoveredUnstaked",
      "type": "event"
    },
    {
      "anonymous": false,
      "inputs": [
        {
          "indexed": true,
          "internalType": "address",
          "name": "author",
          "type": "address"
        },
        {
          "indexed": true,
          "internalType": "address",
          "name": "token",
          "type": "address"
        },
        {
          "indexed": true,
          "internalType": "address",
          "name": "to",
          "type": "address"
        },
        {
          "indexed": false,
          "internalType": "uint256",
          "name": "amount",
          "type": "uint256"
        }
      ],
      "name": "RecoveredUnsupported",
      "type": "event"
    },
    {
      "anonymous": false,
      "inputs": [
        {
          "indexed": true,
          "internalType": "address",
          "name": "to",
          "type": "address"
        },
        {
          "indexed": false,
          "internalType": "uint256",
          "name": "amount",
          "type": "uint256"
        }
      ],
      "name": "RewardPaid",
      "type": "event"
    },
    {
      "anonymous": false,
      "inputs": [
        {
          "indexed": true,
          "internalType": "address",
          "name": "account",
          "type": "address"
        },
        {
          "indexed": false,
          "internalType": "uint256",
          "name": "amount",
          "type": "uint256"
        }
      ],
      "name": "Staked",
      "type": "event"
    },
    {
      "anonymous": false,
      "inputs": [
        {
          "indexed": false,
          "internalType": "address",
          "name": "account",
          "type": "address"
        }
      ],
      "name": "Unpaused",
      "type": "event"
    },
    {
      "anonymous": false,
      "inputs": [
        {
          "indexed": true,
          "internalType": "address",
          "name": "account",
          "type": "address"
        },
        {
          "indexed": false,
          "internalType": "uint256",
          "name": "amount",
          "type": "uint256"
        }
      ],
      "name": "Unstaked",
      "type": "event"
    },
    {
      "anonymous": false,
      "inputs": [
        {
          "indexed": true,
          "internalType": "address",
          "name": "author",
          "type": "address"
        },
        {
          "indexed": true,
          "internalType": "address",
          "name": "account",
          "type": "address"
        }
      ],
      "name": "WETHSet",
      "type": "event"
    },
    {
      "inputs": [],
      "name": "accrualUpdateInterval",
      "outputs": [
        {
          "internalType": "uint256",
          "name": "",
          "type": "uint256"
        }
      ],
      "stateMutability": "view",
      "type": "function"
    },
    {
      "inputs": [],
      "name": "accruedRewardsPerToken",
      "outputs": [
        {
          "internalType": "uint256",
          "name": "",
          "type": "uint256"
        }
      ],
      "stateMutability": "view",
      "type": "function"
    },
    {
      "inputs": [
        {
          "internalType": "address",
          "name": "account",
          "type": "address"
        }
      ],
      "name": "accruedRewardsPerTokenLast",
      "outputs": [
        {
          "internalType": "uint256",
          "name": "",
          "type": "uint256"
        }
      ],
      "stateMutability": "view",
      "type": "function"
    },
    {
      "inputs": [],
      "name": "ethmx",
      "outputs": [
        {
          "internalType": "address",
          "name": "",
          "type": "address"
        }
      ],
      "stateMutability": "view",
      "type": "function"
    },
    {
      "inputs": [
        {
          "internalType": "bool",
          "name": "asWETH",
          "type": "bool"
        }
      ],
      "name": "exit",
      "outputs": [],
      "stateMutability": "nonpayable",
      "type": "function"
    },
    {
      "inputs": [
        {
          "internalType": "address",
          "name": "owner_",
          "type": "address"
        }
      ],
      "name": "init",
      "outputs": [],
      "stateMutability": "nonpayable",
      "type": "function"
    },
    {
      "inputs": [],
      "name": "lastAccrualUpdate",
      "outputs": [
        {
          "internalType": "uint256",
          "name": "",
          "type": "uint256"
        }
      ],
      "stateMutability": "view",
      "type": "function"
    },
    {
      "inputs": [
        {
          "internalType": "address",
          "name": "account",
          "type": "address"
        }
      ],
      "name": "lastRewardsBalanceOf",
      "outputs": [
        {
          "internalType": "uint256",
          "name": "",
          "type": "uint256"
        }
      ],
      "stateMutability": "view",
      "type": "function"
    },
    {
      "inputs": [
        {
          "internalType": "address",
          "name": "account",
          "type": "address"
        }
      ],
      "name": "lastStakedBalanceOf",
      "outputs": [
        {
          "internalType": "uint256",
          "name": "",
          "type": "uint256"
        }
      ],
      "stateMutability": "view",
      "type": "function"
    },
    {
      "inputs": [],
      "name": "lastTotalRewardsAccrued",
      "outputs": [
        {
          "internalType": "uint256",
          "name": "",
          "type": "uint256"
        }
      ],
      "stateMutability": "view",
      "type": "function"
    },
    {
      "inputs": [],
      "name": "owner",
      "outputs": [
        {
          "internalType": "address",
          "name": "",
          "type": "address"
        }
      ],
      "stateMutability": "view",
      "type": "function"
    },
    {
      "inputs": [],
      "name": "pause",
      "outputs": [],
      "stateMutability": "nonpayable",
      "type": "function"
    },
    {
      "inputs": [],
      "name": "paused",
      "outputs": [
        {
          "internalType": "bool",
          "name": "",
          "type": "bool"
        }
      ],
      "stateMutability": "view",
      "type": "function"
    },
    {
      "inputs": [
        {
          "components": [
            {
              "internalType": "address",
              "name": "ethmx",
              "type": "address"
            },
            {
              "internalType": "address",
              "name": "weth",
              "type": "address"
            },
            {
              "internalType": "uint256",
              "name": "accrualUpdateInterval",
              "type": "uint256"
            }
          ],
          "internalType": "struct ETHmxRewards.ETHmxRewardsArgs",
          "name": "_args",
          "type": "tuple"
        }
      ],
      "name": "postInit",
      "outputs": [],
      "stateMutability": "nonpayable",
      "type": "function"
    },
    {
      "inputs": [],
      "name": "readyForUpdate",
      "outputs": [
        {
          "internalType": "bool",
          "name": "",
          "type": "bool"
        }
      ],
      "stateMutability": "view",
      "type": "function"
    },
    {
      "inputs": [
        {
          "internalType": "address",
          "name": "to",
          "type": "address"
        },
        {
          "internalType": "uint256",
          "name": "amount",
          "type": "uint256"
        }
      ],
      "name": "recoverUnredeemableRewards",
      "outputs": [],
      "stateMutability": "nonpayable",
      "type": "function"
    },
    {
      "inputs": [
        {
          "internalType": "address",
          "name": "to",
          "type": "address"
        },
        {
          "internalType": "uint256",
          "name": "amount",
          "type": "uint256"
        }
      ],
      "name": "recoverUnstaked",
      "outputs": [],
      "stateMutability": "nonpayable",
      "type": "function"
    },
    {
      "inputs": [
        {
          "internalType": "address",
          "name": "token",
          "type": "address"
        },
        {
          "internalType": "address",
          "name": "to",
          "type": "address"
        },
        {
          "internalType": "uint256",
          "name": "amount",
          "type": "uint256"
        }
      ],
      "name": "recoverUnsupportedERC20",
      "outputs": [],
      "stateMutability": "nonpayable",
      "type": "function"
    },
    {
      "inputs": [
        {
          "internalType": "bool",
          "name": "asWETH",
          "type": "bool"
        }
      ],
      "name": "redeemAllRewards",
      "outputs": [],
      "stateMutability": "nonpayable",
      "type": "function"
    },
    {
      "inputs": [
        {
          "internalType": "uint256",
          "name": "amount",
          "type": "uint256"
        },
        {
          "internalType": "bool",
          "name": "asWETH",
          "type": "bool"
        }
      ],
      "name": "redeemReward",
      "outputs": [],
      "stateMutability": "nonpayable",
      "type": "function"
    },
    {
      "inputs": [],
      "name": "renounceOwnership",
      "outputs": [],
      "stateMutability": "nonpayable",
      "type": "function"
    },
    {
      "inputs": [
        {
          "internalType": "address",
          "name": "account",
          "type": "address"
        }
      ],
      "name": "rewardsBalanceOf",
      "outputs": [
        {
          "internalType": "uint256",
          "name": "",
          "type": "uint256"
        }
      ],
      "stateMutability": "view",
      "type": "function"
    },
    {
      "inputs": [
        {
          "internalType": "uint256",
          "name": "interval",
          "type": "uint256"
        }
      ],
      "name": "setAccrualUpdateInterval",
      "outputs": [],
      "stateMutability": "nonpayable",
      "type": "function"
    },
    {
      "inputs": [
        {
          "internalType": "address",
          "name": "account",
          "type": "address"
        }
      ],
      "name": "setEthmx",
      "outputs": [],
      "stateMutability": "nonpayable",
      "type": "function"
    },
    {
      "inputs": [
        {
          "internalType": "address",
          "name": "account",
          "type": "address"
        }
      ],
      "name": "setWeth",
      "outputs": [],
      "stateMutability": "nonpayable",
      "type": "function"
    },
    {
      "inputs": [
        {
          "internalType": "uint256",
          "name": "amount",
          "type": "uint256"
        }
      ],
      "name": "stake",
      "outputs": [],
      "stateMutability": "nonpayable",
      "type": "function"
    },
    {
      "inputs": [
        {
          "internalType": "address",
          "name": "account",
          "type": "address"
        }
      ],
      "name": "stakedBalanceOf",
      "outputs": [
        {
          "internalType": "uint256",
          "name": "",
          "type": "uint256"
        }
      ],
      "stateMutability": "view",
      "type": "function"
    },
    {
      "inputs": [],
      "name": "totalRewardsAccrued",
      "outputs": [
        {
          "internalType": "uint256",
          "name": "",
          "type": "uint256"
        }
      ],
      "stateMutability": "view",
      "type": "function"
    },
    {
      "inputs": [],
      "name": "totalRewardsRedeemed",
      "outputs": [
        {
          "internalType": "uint256",
          "name": "",
          "type": "uint256"
        }
      ],
      "stateMutability": "view",
      "type": "function"
    },
    {
      "inputs": [],
      "name": "totalStaked",
      "outputs": [
        {
          "internalType": "uint256",
          "name": "",
          "type": "uint256"
        }
      ],
      "stateMutability": "view",
      "type": "function"
    },
    {
      "inputs": [
        {
          "internalType": "address",
          "name": "newOwner",
          "type": "address"
        }
      ],
      "name": "transferOwnership",
      "outputs": [],
      "stateMutability": "nonpayable",
      "type": "function"
    },
    {
      "inputs": [],
      "name": "unpause",
      "outputs": [],
      "stateMutability": "nonpayable",
      "type": "function"
    },
    {
      "inputs": [],
      "name": "unredeemableRewards",
      "outputs": [
        {
          "internalType": "uint256",
          "name": "",
          "type": "uint256"
        }
      ],
      "stateMutability": "view",
      "type": "function"
    },
    {
      "inputs": [
        {
          "internalType": "uint256",
          "name": "amount",
          "type": "uint256"
        }
      ],
      "name": "unstake",
      "outputs": [],
      "stateMutability": "nonpayable",
      "type": "function"
    },
    {
      "inputs": [],
      "name": "unstakeAll",
      "outputs": [],
      "stateMutability": "nonpayable",
      "type": "function"
    },
    {
      "inputs": [],
      "name": "updateAccrual",
      "outputs": [],
      "stateMutability": "nonpayable",
      "type": "function"
    },
    {
      "inputs": [],
      "name": "updateReward",
      "outputs": [],
      "stateMutability": "nonpayable",
      "type": "function"
    },
    {
      "inputs": [],
      "name": "weth",
      "outputs": [
        {
          "internalType": "address",
          "name": "",
          "type": "address"
        }
      ],
      "stateMutability": "view",
      "type": "function"
    },
    {
      "stateMutability": "payable",
      "type": "receive"
    }
  ],
  "transactionHash": "0x6f05b4dc3eba7de511b83e2fe11d1303ac87c4d840a2a88b6cb054f81e0b6710",
  "args": [
    "0x5757Dd711EaE80e181E07CdbCe43359Ac1048394"
  ],
  "solcInputHash": "3cacffe51216d1376f3121babfd97661",
  "bytecode": "0x60806040523480156200001157600080fd5b50604051620040cc380380620040cc8339810160408190526200003491620003b6565b6200003f8162000046565b50620003e6565b600054610100900460ff16806200006257506200006262000142565b8062000071575060005460ff16155b620000ae5760405162461bcd60e51b815260040180806020018281038252602e8152602001806200409e602e913960400191505060405180910390fd5b600054610100900460ff16158015620000da576000805460ff1961ff0019909116610100171660011790555b620000e462000160565b620000ef826200020a565b620000f9620002fd565b6099805460018101825560009182527f72a152ddfb8e864297c917af52ea6c1c68aead0fee1a62673fcc7e0c94979d00015580156200013e576000805461ff00191690555b5050565b60006200015a30620003b060201b620021e41760201c565b15905090565b600054610100900460ff16806200017c57506200017c62000142565b806200018b575060005460ff16155b620001c85760405162461bcd60e51b815260040180806020018281038252602e8152602001806200409e602e913960400191505060405180910390fd5b600054610100900460ff16158015620001f4576000805460ff1961ff0019909116610100171660011790555b801562000207576000805461ff00191690555b50565b600054610100900460ff16806200022657506200022662000142565b8062000235575060005460ff16155b620002725760405162461bcd60e51b815260040180806020018281038252602e8152602001806200409e602e913960400191505060405180910390fd5b600054610100900460ff161580156200029e576000805460ff1961ff0019909116610100171660011790555b603380546001600160a01b0319166001600160a01b0384169081179091556040516000907f8be0079c531659141344cd1fd0a4f28419497f9722a3daafe3b4186f6b6457e0908290a380156200013e576000805461ff00191690555050565b600054610100900460ff16806200031957506200031962000142565b8062000328575060005460ff16155b620003655760405162461bcd60e51b815260040180806020018281038252602e8152602001806200409e602e913960400191505060405180910390fd5b600054610100900460ff1615801562000391576000805460ff1961ff0019909116610100171660011790555b6065805460ff19169055801562000207576000805461ff001916905550565b3b151590565b600060208284031215620003c8578081fd5b81516001600160a01b0381168114620003df578182fd5b9392505050565b613ca880620003f66000396000f3fe6080604052600436106102895760003560e01c8063860c19f311610153578063bfb0efab116100cb578063e6c91a151161007f578063f2fde38b11610064578063f2fde38b146106a9578063f36c0a72146106c9578063fa750d58146106de576102cf565b8063e6c91a1514610674578063e7a2036914610694576102cf565b8063c42ac226116100b0578063c42ac2261461061f578063d8aa0aa51461063f578063e1b52ffa14610654576102cf565b8063bfb0efab146105ea578063c3027010146105ff576102cf565b806395a1297a11610122578063b8d1452f11610107578063b8d1452f14610595578063bd2e9c4e146105b5578063be4c86f2146105ca576102cf565b806395a1297a14610560578063a694fc3a14610575576102cf565b8063860c19f3146104f657806386a86d411461050b5780638bbc51571461052b5780638da5cb5b1461054b576102cf565b806345e83ea911610201578063715018a6116101b5578063817b1cd21161019a578063817b1cd2146104b7578063832d40f2146104cc5780638456cb59146104e1576102cf565b8063715018a61461048d5780637f86ce30146104a2576102cf565b80635530429b116101e65780635530429b1461042b5780635c975abb1461044b5780636c3f90a61461046d576102cf565b806345e83ea9146103eb5780634fa2741d1461040b576102cf565b806333dc41c7116102585780633ad661271161023d5780633ad661271461039f5780633f4ba83a146103b45780633fc8cef3146103c9576102cf565b806333dc41c71461036a57806335322f371461038a576102cf565b806314824366146102d457806316765391146102f457806319ab453c1461032a5780632e17de781461034a576102cf565b366102cf576102966106f3565b73ffffffffffffffffffffffffffffffffffffffff163373ffffffffffffffffffffffffffffffffffffffff16146102cd57600080fd5b005b600080fd5b3480156102e057600080fd5b506102cd6102ef36600461375a565b610710565b34801561030057600080fd5b5061031461030f366004613661565b610814565b6040516103219190613b35565b60405180910390f35b34801561033657600080fd5b506102cd610345366004613661565b6109ee565b34801561035657600080fd5b506102cd61036536600461375a565b610b4e565b34801561037657600080fd5b50610314610385366004613661565b610c44565b34801561039657600080fd5b506102cd610e30565b3480156103ab57600080fd5b506102cd610e79565b3480156103c057600080fd5b506102cd610ee8565b3480156103d557600080fd5b506103de6106f3565b60405161032191906137b5565b3480156103f757600080fd5b506102cd6104063660046136f9565b610f9a565b34801561041757600080fd5b50610314610426366004613661565b611196565b34801561043757600080fd5b506102cd6104463660046136b6565b6111be565b34801561045757600080fd5b50610460611395565b60405161032191906137d6565b34801561047957600080fd5b506102cd6104883660046136df565b61139e565b34801561049957600080fd5b506102cd6113e5565b3480156104ae57600080fd5b506103146114fc565b3480156104c357600080fd5b5061031461152a565b3480156104d857600080fd5b50610314611530565b3480156104ed57600080fd5b506102cd611536565b34801561050257600080fd5b506103146115e6565b34801561051757600080fd5b506102cd61052636600461367b565b6115f9565b34801561053757600080fd5b506102cd61054636600461378a565b611824565b34801561055757600080fd5b506103de6118da565b34801561056c57600080fd5b506103146118f6565b34801561058157600080fd5b506102cd61059036600461375a565b6118fc565b3480156105a157600080fd5b506102cd6105b0366004613661565b611a94565b3480156105c157600080fd5b50610314611bcc565b3480156105d657600080fd5b506102cd6105e53660046136b6565b611c10565b3480156105f657600080fd5b50610460611e2a565b34801561060b57600080fd5b506102cd61061a366004613661565b611e4f565b34801561062b57600080fd5b5061031461063a366004613661565b611f87565b34801561064b57600080fd5b50610314611fce565b34801561066057600080fd5b5061031461066f366004613661565b611fd4565b34801561068057600080fd5b506102cd61068f3660046136df565b611ffc565b3480156106a057600080fd5b50610314612010565b3480156106b557600080fd5b506102cd6106c4366004613661565b612016565b3480156106d557600080fd5b506102cd6121b8565b3480156106ea57600080fd5b506103de6121c8565b60985473ffffffffffffffffffffffffffffffffffffffff165b90565b6107186121ea565b73ffffffffffffffffffffffffffffffffffffffff166107366118da565b73ffffffffffffffffffffffffffffffffffffffff16146107b857604080517f08c379a000000000000000000000000000000000000000000000000000000000815260206004820181905260248201527f4f776e61626c653a2063616c6c6572206973206e6f7420746865206f776e6572604482015290519081900360640190fd5b609c8190556107c56121ea565b73ffffffffffffffffffffffffffffffffffffffff167e4b735c73896be679585edaa8f0c947a38d34100bb0088d0b41c28953a2df50826040516108099190613b35565b60405180910390a250565b73ffffffffffffffffffffffffffffffffffffffff8116600090815260a06020526040812054806108495760009150506109e9565b6000609980548060200260200160405190810160405280929190818152602001828054801561089757602002820191906000526020600020905b815481526020019060010190808311610883575b5050835193945060009250849150507fffffffffffffffffffffffffffffffffffffffffffffffffffffffffffffffff83018381106108d257fe5b602002602001015190506000609a60008873ffffffffffffffffffffffffffffffffffffffff1673ffffffffffffffffffffffffffffffffffffffff168152602001908152602001600020549050600084828151811061092e57fe5b6020026020010151830390508060001415610951578596505050505050506109e9565b6000600183015b858110156109de5786600182038151811061096f57fe5b602002602001015187828151811061098357fe5b60200260200101510392506ec097ce7bc90715b34b9f100000000083106109ad57600097506109de565b6ec097ce7bc90715b34b9f10000000006109c789856121ee565b816109ce57fe5b0497889003979150600101610958565b509596505050505050505b919050565b600054610100900460ff1680610a075750610a0761226a565b80610a15575060005460ff16155b610a6a576040517f08c379a000000000000000000000000000000000000000000000000000000000815260040180806020018281038252602e815260200180613bc5602e913960400191505060405180910390fd5b600054610100900460ff16158015610ad057600080547fffffffffffffffffffffffffffffffffffffffffffffffffffffffffffffff007fffffffffffffffffffffffffffffffffffffffffffffffffffffffffffff00ff909116610100171660011790555b610ad861227b565b610ae18261238e565b610ae9612510565b6099805460018101825560009182527f72a152ddfb8e864297c917af52ea6c1c68aead0fee1a62673fcc7e0c94979d0001558015610b4a57600080547fffffffffffffffffffffffffffffffffffffffffffffffffffffffffffff00ff1690555b5050565b80610b8e576040517f08c379a0000000000000000000000000000000000000000000000000000000008152600401610b8590613a7b565b60405180910390fd5b6000610b986121ea565b73ffffffffffffffffffffffffffffffffffffffff8116600090815260a06020526040902054909150821115610bfa576040517f08c379a0000000000000000000000000000000000000000000000000000000008152600401610b859061389b565b610c038161264b565b73ffffffffffffffffffffffffffffffffffffffff8116600090815260a0602052604090205480831115610c35578092505b610c3f82846128b2565b505050565b73ffffffffffffffffffffffffffffffffffffffff81166000908152609d602090815260408083205460a090925282205480610c82575090506109e9565b60006099805480602002602001604051908101604052809291908181526020018280548015610cd057602002820191906000526020600020905b815481526020019060010190808311610cbc575b5050835193945060009250849150507fffffffffffffffffffffffffffffffffffffffffffffffffffffffffffffffff8301838110610d0b57fe5b602002602001015190506000609a60008973ffffffffffffffffffffffffffffffffffffffff1673ffffffffffffffffffffffffffffffffffffffff1681526020019081526020016000205490506000848281518110610d6757fe5b6020026020010151830390508060001415610d8b57869750505050505050506109e9565b6000600183015b85811015610e2157866001820381518110610da957fe5b6020026020010151878281518110610dbd57fe5b60200260200101510392506ec097ce7bc90715b34b9f10000000008310610dec57878901985060009750610e21565b6ec097ce7bc90715b34b9f1000000000610e0689856121ee565b81610e0d57fe5b049889019897889003979150600101610d92565b50969998505050505050505050565b6000610e3a6121ea565b9050610e458161264b565b73ffffffffffffffffffffffffffffffffffffffff8116600090815260a06020526040902054610e769082906128b2565b50565b6000610ea2609b54604051806060016040528060358152602001613c146035913942919061294b565b9050609c54811015610ee0576040517f08c379a0000000000000000000000000000000000000000000000000000000008152600401610b85906139c1565b610e76612a01565b610ef06121ea565b73ffffffffffffffffffffffffffffffffffffffff16610f0e6118da565b73ffffffffffffffffffffffffffffffffffffffff1614610f9057604080517f08c379a000000000000000000000000000000000000000000000000000000000815260206004820181905260248201527f4f776e61626c653a2063616c6c6572206973206e6f7420746865206f776e6572604482015290519081900360640190fd5b610f98612bd4565b565b610fa26121ea565b73ffffffffffffffffffffffffffffffffffffffff16610fc06118da565b73ffffffffffffffffffffffffffffffffffffffff161461104257604080517f08c379a000000000000000000000000000000000000000000000000000000000815260206004820181905260248201527f4f776e61626c653a2063616c6c6572206973206e6f7420746865206f776e6572604482015290519081900360640190fd5b600061104c6121ea565b8251609780547fffffffffffffffffffffffff00000000000000000000000000000000000000001673ffffffffffffffffffffffffffffffffffffffff92831690811790915560405192935091908316907f6a6385201509d23863582a062d6a56319bdf8ada59b6ce3239bbd1d22250fe2190600090a36020820151609880547fffffffffffffffffffffffff00000000000000000000000000000000000000001673ffffffffffffffffffffffffffffffffffffffff92831690811790915560405190918316907f9cfa0588ff5ff3789d20735024d004bfb8db496d5117712e136adbfe97af41d790600090a3604080830151609c819055905173ffffffffffffffffffffffffffffffffffffffff8316917e4b735c73896be679585edaa8f0c947a38d34100bb0088d0b41c28953a2df509161118a9190613b35565b60405180910390a25050565b73ffffffffffffffffffffffffffffffffffffffff16600090815260a0602052604090205490565b6111c66121ea565b73ffffffffffffffffffffffffffffffffffffffff166111e46118da565b73ffffffffffffffffffffffffffffffffffffffff161461126657604080517f08c379a000000000000000000000000000000000000000000000000000000000815260206004820181905260248201527f4f776e61626c653a2063616c6c6572206973206e6f7420746865206f776e6572604482015290519081900360640190fd5b60008052609d6020527fc5dc36ae4e7617e4c4d23ddfcde33c79e9ed64c300aed766a9288a6b9b31f63d548111156112ca576040517f08c379a0000000000000000000000000000000000000000000000000000000008152600401610b859061383e565b60008052609d6020527fc5dc36ae4e7617e4c4d23ddfcde33c79e9ed64c300aed766a9288a6b9b31f63d8054829003905561132582826113086106f3565b73ffffffffffffffffffffffffffffffffffffffff169190612cc2565b8173ffffffffffffffffffffffffffffffffffffffff166113446121ea565b73ffffffffffffffffffffffffffffffffffffffff167fe4cedce8a9da6a4cd7794b1b6bbba077e9cb7bba00eeb3b7152926cd378f023c836040516113899190613b35565b60405180910390a35050565b60655460ff1690565b60006113a86121ea565b90506113b38161264b565b73ffffffffffffffffffffffffffffffffffffffff81166000908152609d6020526040902054610b4a90829084612d4f565b6113ed6121ea565b73ffffffffffffffffffffffffffffffffffffffff1661140b6118da565b73ffffffffffffffffffffffffffffffffffffffff161461148d57604080517f08c379a000000000000000000000000000000000000000000000000000000000815260206004820181905260248201527f4f776e61626c653a2063616c6c6572206973206e6f7420746865206f776e6572604482015290519081900360640190fd5b60335460405160009173ffffffffffffffffffffffffffffffffffffffff16907f8be0079c531659141344cd1fd0a4f28419497f9722a3daafe3b4186f6b6457e0908390a3603380547fffffffffffffffffffffffff0000000000000000000000000000000000000000169055565b60008052609d6020527fc5dc36ae4e7617e4c4d23ddfcde33c79e9ed64c300aed766a9288a6b9b31f63d5490565b60a15490565b609c5490565b61153e6121ea565b73ffffffffffffffffffffffffffffffffffffffff1661155c6118da565b73ffffffffffffffffffffffffffffffffffffffff16146115de57604080517f08c379a000000000000000000000000000000000000000000000000000000000815260206004820181905260248201527f4f776e61626c653a2063616c6c6572206973206e6f7420746865206f776e6572604482015290519081900360640190fd5b610f98612e74565b6000609f546115f3612f3c565b01905090565b6116016121ea565b73ffffffffffffffffffffffffffffffffffffffff1661161f6118da565b73ffffffffffffffffffffffffffffffffffffffff16146116a157604080517f08c379a000000000000000000000000000000000000000000000000000000000815260206004820181905260248201527f4f776e61626c653a2063616c6c6572206973206e6f7420746865206f776e6572604482015290519081900360640190fd5b6116a96121c8565b73ffffffffffffffffffffffffffffffffffffffff168373ffffffffffffffffffffffffffffffffffffffff16141561170e576040517f08c379a0000000000000000000000000000000000000000000000000000000008152600401610b85906137e1565b6117166106f3565b73ffffffffffffffffffffffffffffffffffffffff168373ffffffffffffffffffffffffffffffffffffffff16141561177b576040517f08c379a0000000000000000000000000000000000000000000000000000000008152600401610b8590613964565b61179c73ffffffffffffffffffffffffffffffffffffffff84168383612cc2565b8173ffffffffffffffffffffffffffffffffffffffff168373ffffffffffffffffffffffffffffffffffffffff166117d26121ea565b73ffffffffffffffffffffffffffffffffffffffff167feaf4cea276efdcae93a52ca2f4bfdd952992169289bf655b1870a4b20bdae7d6846040516118179190613b35565b60405180910390a4505050565b8161185b576040517f08c379a0000000000000000000000000000000000000000000000000000000008152600401610b859061392f565b60006118656121ea565b90506118708161264b565b73ffffffffffffffffffffffffffffffffffffffff81166000908152609d60205260409020548311156118cf576040517f08c379a0000000000000000000000000000000000000000000000000000000008152600401610b8590613a1e565b610c3f818484612d4f565b60335473ffffffffffffffffffffffffffffffffffffffff1690565b609f5490565b611904611395565b1561197057604080517f08c379a000000000000000000000000000000000000000000000000000000000815260206004820152601060248201527f5061757361626c653a2070617573656400000000000000000000000000000000604482015290519081900360640190fd5b806119a7576040517f08c379a0000000000000000000000000000000000000000000000000000000008152600401610b85906138f8565b60006119b16121ea565b90506119bc8161264b565b73ffffffffffffffffffffffffffffffffffffffff8116600090815260a060205260409020546119ec9083612fd3565b73ffffffffffffffffffffffffffffffffffffffff8216600090815260a0602052604090205560a154611a1f9083612fd3565b60a155611a4e813084611a306121c8565b73ffffffffffffffffffffffffffffffffffffffff16929190613047565b8073ffffffffffffffffffffffffffffffffffffffff167f9e71bc8eea02a63969f509818f2dafb9254532904319f9dbda79b67bd34a5f3d8360405161118a9190613b35565b611a9c6121ea565b73ffffffffffffffffffffffffffffffffffffffff16611aba6118da565b73ffffffffffffffffffffffffffffffffffffffff1614611b3c57604080517f08c379a000000000000000000000000000000000000000000000000000000000815260206004820181905260248201527f4f776e61626c653a2063616c6c6572206973206e6f7420746865206f776e6572604482015290519081900360640190fd5b609880547fffffffffffffffffffffffff00000000000000000000000000000000000000001673ffffffffffffffffffffffffffffffffffffffff8316908117909155611b876121ea565b73ffffffffffffffffffffffffffffffffffffffff167f9cfa0588ff5ff3789d20735024d004bfb8db496d5117712e136adbfe97af41d760405160405180910390a350565b60998054600091907fffffffffffffffffffffffffffffffffffffffffffffffffffffffffffffffff8101908110611c0057fe5b9060005260206000200154905090565b611c186121ea565b73ffffffffffffffffffffffffffffffffffffffff16611c366118da565b73ffffffffffffffffffffffffffffffffffffffff1614611cb857604080517f08c379a000000000000000000000000000000000000000000000000000000000815260206004820181905260248201527f4f776e61626c653a2063616c6c6572206973206e6f7420746865206f776e6572604482015290519081900360640190fd5b6000611cc26121c8565b90506000611d5b60a1548373ffffffffffffffffffffffffffffffffffffffff166370a08231306040518263ffffffff1660e01b8152600401611d0591906137b5565b60206040518083038186803b158015611d1d57600080fd5b505afa158015611d31573d6000803e3d6000fd5b505050506040513d601f19601f82011682018060405250810190611d559190613772565b906130e2565b905080831115611d97576040517f08c379a0000000000000000000000000000000000000000000000000000000008152600401610b8590613ad8565b611db873ffffffffffffffffffffffffffffffffffffffff83168585612cc2565b8373ffffffffffffffffffffffffffffffffffffffff16611dd76121ea565b73ffffffffffffffffffffffffffffffffffffffff167f53061b1554d64699da405094f2b9eb0b116d63ed32e1371be0e49988b1ae4ef885604051611e1c9190613b35565b60405180910390a350505050565b600042609b541115611e3e5750600061070d565b50609b54609c544291909103101590565b611e576121ea565b73ffffffffffffffffffffffffffffffffffffffff16611e756118da565b73ffffffffffffffffffffffffffffffffffffffff1614611ef757604080517f08c379a000000000000000000000000000000000000000000000000000000000815260206004820181905260248201527f4f776e61626c653a2063616c6c6572206973206e6f7420746865206f776e6572604482015290519081900360640190fd5b609780547fffffffffffffffffffffffff00000000000000000000000000000000000000001673ffffffffffffffffffffffffffffffffffffffff8316908117909155611f426121ea565b73ffffffffffffffffffffffffffffffffffffffff167f6a6385201509d23863582a062d6a56319bdf8ada59b6ce3239bbd1d22250fe2160405160405180910390a350565b73ffffffffffffffffffffffffffffffffffffffff81166000908152609a6020526040812054609980549091908110611fbc57fe5b90600052602060002001549050919050565b609b5490565b73ffffffffffffffffffffffffffffffffffffffff166000908152609d602052604090205490565b60006120066121ea565b90506113b3610e30565b609e5490565b61201e6121ea565b73ffffffffffffffffffffffffffffffffffffffff1661203c6118da565b73ffffffffffffffffffffffffffffffffffffffff16146120be57604080517f08c379a000000000000000000000000000000000000000000000000000000000815260206004820181905260248201527f4f776e61626c653a2063616c6c6572206973206e6f7420746865206f776e6572604482015290519081900360640190fd5b73ffffffffffffffffffffffffffffffffffffffff811661212a576040517f08c379a0000000000000000000000000000000000000000000000000000000008152600401808060200182810382526026815260200180613b3f6026913960400191505060405180910390fd5b60335460405173ffffffffffffffffffffffffffffffffffffffff8084169216907f8be0079c531659141344cd1fd0a4f28419497f9722a3daafe3b4186f6b6457e090600090a3603380547fffffffffffffffffffffffff00000000000000000000000000000000000000001673ffffffffffffffffffffffffffffffffffffffff92909216919091179055565b610f986121c36121ea565b61264b565b60975473ffffffffffffffffffffffffffffffffffffffff1690565b3b151590565b3390565b6000826121fd57506000612264565b8282028284828161220a57fe5b0414612261576040517f08c379a0000000000000000000000000000000000000000000000000000000008152600401808060200182810382526021815260200180613bf36021913960400191505060405180910390fd5b90505b92915050565b6000612275306121e4565b15905090565b600054610100900460ff1680612294575061229461226a565b806122a2575060005460ff16155b6122f7576040517f08c379a000000000000000000000000000000000000000000000000000000000815260040180806020018281038252602e815260200180613bc5602e913960400191505060405180910390fd5b600054610100900460ff1615801561235d57600080547fffffffffffffffffffffffffffffffffffffffffffffffffffffffffffffff007fffffffffffffffffffffffffffffffffffffffffffffffffffffffffffff00ff909116610100171660011790555b8015610e7657600080547fffffffffffffffffffffffffffffffffffffffffffffffffffffffffffff00ff16905550565b600054610100900460ff16806123a757506123a761226a565b806123b5575060005460ff16155b61240a576040517f08c379a000000000000000000000000000000000000000000000000000000000815260040180806020018281038252602e815260200180613bc5602e913960400191505060405180910390fd5b600054610100900460ff1615801561247057600080547fffffffffffffffffffffffffffffffffffffffffffffffffffffffffffffff007fffffffffffffffffffffffffffffffffffffffffffffffffffffffffffff00ff909116610100171660011790555b603380547fffffffffffffffffffffffff00000000000000000000000000000000000000001673ffffffffffffffffffffffffffffffffffffffff84169081179091556040516000907f8be0079c531659141344cd1fd0a4f28419497f9722a3daafe3b4186f6b6457e0908290a38015610b4a57600080547fffffffffffffffffffffffffffffffffffffffffffffffffffffffffffff00ff1690555050565b600054610100900460ff1680612529575061252961226a565b80612537575060005460ff16155b61258c576040517f08c379a000000000000000000000000000000000000000000000000000000000815260040180806020018281038252602e815260200180613bc5602e913960400191505060405180910390fd5b600054610100900460ff161580156125f257600080547fffffffffffffffffffffffffffffffffffffffffffffffffffffffffffffff007fffffffffffffffffffffffffffffffffffffffffffffffffffffffffffff00ff909116610100171660011790555b606580547fffffffffffffffffffffffffffffffffffffffffffffffffffffffffffffff001690558015610e7657600080547fffffffffffffffffffffffffffffffffffffffffffffffffffffffffffff00ff16905550565b6000609980548060200260200160405190810160405280929190818152602001828054801561269957602002820191906000526020600020905b815481526020019060010190808311612685575b5050835193945060009250849150507fffffffffffffffffffffffffffffffffffffffffffffffffffffffffffffffff83018381106126d457fe5b602002602001015190506000609a60008673ffffffffffffffffffffffffffffffffffffffff1673ffffffffffffffffffffffffffffffffffffffff168152602001908152602001600020549050600084828151811061273057fe5b60209081029190910181015173ffffffffffffffffffffffffffffffffffffffff8816600090815260a08352604080822054609a90945290207fffffffffffffffffffffffffffffffffffffffffffffffffffffffffffffffff870190558403915080158061279d575081155b156127ad57505050505050610e76565b600080600185015b87811015612843578860018203815181106127cc57fe5b60200260200101518982815181106127e057fe5b60200260200101510394506ec097ce7bc90715b34b9f1000000000851061280e576000939190910190612843565b6ec097ce7bc90715b34b9f100000000061282885876121ee565b8161282f57fe5b0493849003939250908201906001016127b5565b5073ffffffffffffffffffffffffffffffffffffffff8916600090815260a060209081526040808320869055609d9091529020546128819082612fd3565b73ffffffffffffffffffffffffffffffffffffffff8a166000908152609d6020526040902055505050505050505050565b806128bc57610b4a565b73ffffffffffffffffffffffffffffffffffffffff8216600090815260a0602052604090208054829003905560a1546128f590826130e2565b60a15561290582826113086121c8565b8173ffffffffffffffffffffffffffffffffffffffff167f0f5bb82176feb1b5e747e28471aa92156a04d9f3ab9f45f28e2d704232b93f758260405161118a9190613b35565b600081848411156129f4576040517f08c379a00000000000000000000000000000000000000000000000000000000081526004018080602001828103825283818151815260200191508051906020019080838360005b838110156129b95781810151838201526020016129a1565b50505050905090810190601f1680156129e65780820380516001836020036101000a031916815260200191505b509250505060405180910390fd5b50508183035b9392505050565b6000612a0b6115e6565b609e54909150810380612a1f575050610f98565b60a15480821015612aa4576000612a34611bcc565b905081612a50846ec097ce7bc90715b34b9f10000000006121ee565b81612a5757fe5b60998054600181018255600091909152919004919091017f72a152ddfb8e864297c917af52ea6c1c68aead0fee1a62673fcc7e0c94979d00909101819055612a9e83613159565b50612b71565b60008052609d6020527fc5dc36ae4e7617e4c4d23ddfcde33c79e9ed64c300aed766a9288a6b9b31f63d5481830390612add9082612fd3565b60008052609d6020527fc5dc36ae4e7617e4c4d23ddfcde33c79e9ed64c300aed766a9288a6b9b31f63d558115612b6f576000612b18611bcc565b609980546001810182556000919091526ec097ce7bc90715b34b9f10000000009091017f72a152ddfb8e864297c917af52ea6c1c68aead0fee1a62673fcc7e0c94979d009091018190559050612b6d83613159565b505b505b609e83905542609b55612b826121ea565b73ffffffffffffffffffffffffffffffffffffffff167fcc40b32ccae09bbf703954e57f794bd4be4f1aa1098eba7871af6c47ad89ae7784604051612bc79190613b35565b60405180910390a2505050565b612bdc611395565b612c4757604080517f08c379a000000000000000000000000000000000000000000000000000000000815260206004820152601460248201527f5061757361626c653a206e6f7420706175736564000000000000000000000000604482015290519081900360640190fd5b606580547fffffffffffffffffffffffffffffffffffffffffffffffffffffffffffffff001690557f5db9ee0a495bf2e6ff9c91a7834c1ba4fdd244a5e8aa4e537bd38aeae4b073aa612c986121ea565b6040805173ffffffffffffffffffffffffffffffffffffffff9092168252519081900360200190a1565b6040805173ffffffffffffffffffffffffffffffffffffffff8416602482015260448082018490528251808303909101815260649091019091526020810180517bffffffffffffffffffffffffffffffffffffffffffffffffffffffff167fa9059cbb00000000000000000000000000000000000000000000000000000000179052610c3f9084906131de565b73ffffffffffffffffffffffffffffffffffffffff83166000908152609d6020526040902080548390039055609f8054830190558015612d9b57612d9683836113086106f3565b612e2e565b612da36106f3565b73ffffffffffffffffffffffffffffffffffffffff16632e1a7d4d836040518263ffffffff1660e01b8152600401612ddb9190613b35565b600060405180830381600087803b158015612df557600080fd5b505af1158015612e09573d6000803e3d6000fd5b50612e2e9250505073ffffffffffffffffffffffffffffffffffffffff8416836132b6565b8273ffffffffffffffffffffffffffffffffffffffff167fe2403640ba68fed3a2f88b7557551d1993f84b99bb10ff833f0cf8db0c5e048683604051612bc79190613b35565b612e7c611395565b15612ee857604080517f08c379a000000000000000000000000000000000000000000000000000000000815260206004820152601060248201527f5061757361626c653a2070617573656400000000000000000000000000000000604482015290519081900360640190fd5b606580547fffffffffffffffffffffffffffffffffffffffffffffffffffffffffffffff001660011790557f62e78cea01bee320cd4e420270b5ea74000d11b0c9f74754ebdbfc544b05a258612c986121ea565b6000612f466106f3565b73ffffffffffffffffffffffffffffffffffffffff166370a08231306040518263ffffffff1660e01b8152600401612f7e91906137b5565b60206040518083038186803b158015612f9657600080fd5b505afa158015612faa573d6000803e3d6000fd5b505050506040513d601f19601f82011682018060405250810190612fce9190613772565b905090565b60008282018381101561226157604080517f08c379a000000000000000000000000000000000000000000000000000000000815260206004820152601b60248201527f536166654d6174683a206164646974696f6e206f766572666c6f770000000000604482015290519081900360640190fd5b6040805173ffffffffffffffffffffffffffffffffffffffff80861660248301528416604482015260648082018490528251808303909101815260849091019091526020810180517bffffffffffffffffffffffffffffffffffffffffffffffffffffffff167f23b872dd000000000000000000000000000000000000000000000000000000001790526130dc9085906131de565b50505050565b60008282111561315357604080517f08c379a000000000000000000000000000000000000000000000000000000000815260206004820152601e60248201527f536166654d6174683a207375627472616374696f6e206f766572666c6f770000604482015290519081900360640190fd5b50900390565b60a15461316690826130e2565b60a1556131716121c8565b73ffffffffffffffffffffffffffffffffffffffff166342966c68826040518263ffffffff1660e01b81526004016131a99190613b35565b600060405180830381600087803b1580156131c357600080fd5b505af11580156131d7573d6000803e3d6000fd5b5050505050565b6000613240826040518060400160405280602081526020017f5361666545524332303a206c6f772d6c6576656c2063616c6c206661696c65648152508573ffffffffffffffffffffffffffffffffffffffff166133dc9092919063ffffffff16565b805190915015610c3f5780806020019051602081101561325f57600080fd5b5051610c3f576040517f08c379a000000000000000000000000000000000000000000000000000000000815260040180806020018281038252602a815260200180613c49602a913960400191505060405180910390fd5b8047101561332557604080517f08c379a000000000000000000000000000000000000000000000000000000000815260206004820152601d60248201527f416464726573733a20696e73756666696369656e742062616c616e6365000000604482015290519081900360640190fd5b60405160009073ffffffffffffffffffffffffffffffffffffffff84169083908381818185875af1925050503d806000811461337d576040519150601f19603f3d011682016040523d82523d6000602084013e613382565b606091505b5050905080610c3f576040517f08c379a000000000000000000000000000000000000000000000000000000000815260040180806020018281038252603a815260200180613b65603a913960400191505060405180910390fd5b60606133eb84846000856133f3565b949350505050565b60608247101561344e576040517f08c379a0000000000000000000000000000000000000000000000000000000008152600401808060200182810382526026815260200180613b9f6026913960400191505060405180910390fd5b613457856121e4565b6134c257604080517f08c379a000000000000000000000000000000000000000000000000000000000815260206004820152601d60248201527f416464726573733a2063616c6c20746f206e6f6e2d636f6e7472616374000000604482015290519081900360640190fd5b6000808673ffffffffffffffffffffffffffffffffffffffff1685876040518082805190602001908083835b6020831061352b57805182527fffffffffffffffffffffffffffffffffffffffffffffffffffffffffffffffe090920191602091820191016134ee565b6001836020036101000a03801982511681845116808217855250505050505090500191505060006040518083038185875af1925050503d806000811461358d576040519150601f19603f3d011682016040523d82523d6000602084013e613592565b606091505b50915091506135a28282866135ad565b979650505050505050565b606083156135bc5750816129fa565b8251156135cc5782518084602001fd5b6040517f08c379a00000000000000000000000000000000000000000000000000000000081526020600482018181528451602484015284518593919283926044019190850190808383600083156129b95781810151838201526020016129a1565b803573ffffffffffffffffffffffffffffffffffffffff811681146109e957600080fd5b803580151581146109e957600080fd5b600060208284031215613672578081fd5b6129fa8261362d565b60008060006060848603121561368f578182fd5b6136988461362d565b92506136a66020850161362d565b9150604084013590509250925092565b600080604083850312156136c8578182fd5b6136d18361362d565b946020939093013593505050565b6000602082840312156136f0578081fd5b6129fa82613651565b60006060828403121561370a578081fd5b6040516060810181811067ffffffffffffffff8211171561372757fe5b6040526137338361362d565b81526137416020840161362d565b6020820152604083013560408201528091505092915050565b60006020828403121561376b578081fd5b5035919050565b600060208284031215613783578081fd5b5051919050565b6000806040838503121561379c578182fd5b823591506137ac60208401613651565b90509250929050565b73ffffffffffffffffffffffffffffffffffffffff91909116815260200190565b901515815260200190565b60208082526022908201527f4554486d78526577617264733a2063616e6e6f74207265636f7665722045544860408201527f6d78000000000000000000000000000000000000000000000000000000000000606082015260800190565b60208082526037908201527f4554486d78526577617264733a207265636f7665727920616d6f756e7420677260408201527f6561746572207468616e20756e72656465656d61626c65000000000000000000606082015260800190565b60208082526035908201527f4554486d78526577617264733a2063616e6e6f7420756e7374616b65206d6f7260408201527f65207468616e207374616b65642062616c616e63650000000000000000000000606082015260800190565b6020808252601f908201527f4554486d78526577617264733a2063616e6e6f74207374616b65207a65726f00604082015260600190565b6020808252818101527f4554486d78526577617264733a2063616e6e6f742072656465656d207a65726f604082015260600190565b60208082526021908201527f4554486d78526577617264733a2063616e6e6f74207265636f7665722057455460408201527f4800000000000000000000000000000000000000000000000000000000000000606082015260800190565b60208082526028908201527f4554486d78526577617264733a20746f6f20736f6f6e20746f2075706461746560408201527f206163637275616c000000000000000000000000000000000000000000000000606082015260800190565b60208082526034908201527f4554486d78526577617264733a2063616e6e6f742072656465656d206d6f726560408201527f2072657761726473207468616e206561726e6564000000000000000000000000606082015260800190565b60208082526021908201527f4554486d78526577617264733a2063616e6e6f7420756e7374616b65207a657260408201527f6f00000000000000000000000000000000000000000000000000000000000000606082015260800190565b60208082526033908201527f4554486d78526577617264733a207265636f7665727920616d6f756e7420677260408201527f6561746572207468616e20756e7374616b656400000000000000000000000000606082015260800190565b9081526020019056fe4f776e61626c653a206e6577206f776e657220697320746865207a65726f2061646472657373416464726573733a20756e61626c6520746f2073656e642076616c75652c20726563697069656e74206d61792068617665207265766572746564416464726573733a20696e73756666696369656e742062616c616e636520666f722063616c6c496e697469616c697a61626c653a20636f6e747261637420697320616c726561647920696e697469616c697a6564536166654d6174683a206d756c7469706c69636174696f6e206f766572666c6f774554486d78526577617264733a20626c6f636b206973206f6c646572207468616e206c617374206163637275616c207570646174655361666545524332303a204552433230206f7065726174696f6e20646964206e6f742073756363656564a26469706673582212206141698f39501997ee06fcf9d947076d383fca2257557e3dcd31f9ca4d9d81cc64736f6c63430007060033496e697469616c697a61626c653a20636f6e747261637420697320616c726561647920696e697469616c697a6564",
  "devdoc": {
    "kind": "dev",
    "methods": {
      "owner()": {
        "details": "Returns the address of the current owner."
      },
      "paused()": {
        "details": "Returns true if the contract is paused, and false otherwise."
      },
      "renounceOwnership()": {
        "details": "Leaves the contract without owner. It will not be possible to call `onlyOwner` functions anymore. Can only be called by the current owner. NOTE: Renouncing ownership will leave the contract without an owner, thereby removing any functionality that is only available to the owner."
      },
      "transferOwnership(address)": {
        "details": "Transfers ownership of the contract to a new account (`newOwner`). Can only be called by the current owner."
      }
    },
    "version": 1
  },
  "userdoc": {
    "kind": "user",
    "methods": {},
    "version": 1
  },
  "storageLayout": {
    "storage": [
      {
        "astId": 6,
        "contract": "contracts/rewards/ETHmxRewards/ETHmxRewards.sol:ETHmxRewards",
        "label": "_initialized",
        "offset": 0,
        "slot": "0",
        "type": "t_bool"
      },
      {
        "astId": 9,
        "contract": "contracts/rewards/ETHmxRewards/ETHmxRewards.sol:ETHmxRewards",
        "label": "_initializing",
        "offset": 1,
        "slot": "0",
        "type": "t_bool"
      },
      {
        "astId": 353,
        "contract": "contracts/rewards/ETHmxRewards/ETHmxRewards.sol:ETHmxRewards",
        "label": "__gap",
        "offset": 0,
        "slot": "1",
        "type": "t_array(t_uint256)50_storage"
      },
      {
        "astId": 3458,
        "contract": "contracts/rewards/ETHmxRewards/ETHmxRewards.sol:ETHmxRewards",
        "label": "_owner",
        "offset": 0,
        "slot": "51",
        "type": "t_address"
      },
      {
        "astId": 3577,
        "contract": "contracts/rewards/ETHmxRewards/ETHmxRewards.sol:ETHmxRewards",
        "label": "__gap",
        "offset": 0,
        "slot": "52",
        "type": "t_array(t_uint256)49_storage"
      },
      {
        "astId": 375,
        "contract": "contracts/rewards/ETHmxRewards/ETHmxRewards.sol:ETHmxRewards",
        "label": "_paused",
        "offset": 0,
        "slot": "101",
        "type": "t_bool"
      },
      {
        "astId": 466,
        "contract": "contracts/rewards/ETHmxRewards/ETHmxRewards.sol:ETHmxRewards",
        "label": "__gap",
        "offset": 0,
        "slot": "102",
        "type": "t_array(t_uint256)49_storage"
      },
      {
        "astId": 10048,
        "contract": "contracts/rewards/ETHmxRewards/ETHmxRewards.sol:ETHmxRewards",
        "label": "_ethmx",
        "offset": 0,
        "slot": "151",
        "type": "t_address"
      },
      {
        "astId": 10050,
        "contract": "contracts/rewards/ETHmxRewards/ETHmxRewards.sol:ETHmxRewards",
        "label": "_weth",
        "offset": 0,
        "slot": "152",
        "type": "t_address"
      },
      {
        "astId": 10053,
        "contract": "contracts/rewards/ETHmxRewards/ETHmxRewards.sol:ETHmxRewards",
        "label": "_arptSnapshots",
        "offset": 0,
        "slot": "153",
        "type": "t_array(t_uint256)dyn_storage"
      },
      {
        "astId": 10057,
        "contract": "contracts/rewards/ETHmxRewards/ETHmxRewards.sol:ETHmxRewards",
        "label": "_arptLastIdx",
        "offset": 0,
        "slot": "154",
        "type": "t_mapping(t_address,t_uint256)"
      },
      {
        "astId": 10059,
        "contract": "contracts/rewards/ETHmxRewards/ETHmxRewards.sol:ETHmxRewards",
        "label": "_lastAccrualUpdate",
        "offset": 0,
        "slot": "155",
        "type": "t_uint256"
      },
      {
        "astId": 10061,
        "contract": "contracts/rewards/ETHmxRewards/ETHmxRewards.sol:ETHmxRewards",
        "label": "_accrualUpdateInterval",
        "offset": 0,
        "slot": "156",
        "type": "t_uint256"
      },
      {
        "astId": 10065,
        "contract": "contracts/rewards/ETHmxRewards/ETHmxRewards.sol:ETHmxRewards",
        "label": "_rewardsFor",
        "offset": 0,
        "slot": "157",
        "type": "t_mapping(t_address,t_uint256)"
      },
      {
        "astId": 10067,
        "contract": "contracts/rewards/ETHmxRewards/ETHmxRewards.sol:ETHmxRewards",
        "label": "_lastTotalRewardsAccrued",
        "offset": 0,
        "slot": "158",
        "type": "t_uint256"
      },
      {
        "astId": 10069,
        "contract": "contracts/rewards/ETHmxRewards/ETHmxRewards.sol:ETHmxRewards",
        "label": "_totalRewardsRedeemed",
        "offset": 0,
        "slot": "159",
        "type": "t_uint256"
      },
      {
        "astId": 10073,
        "contract": "contracts/rewards/ETHmxRewards/ETHmxRewards.sol:ETHmxRewards",
        "label": "_stakedFor",
        "offset": 0,
        "slot": "160",
        "type": "t_mapping(t_address,t_uint256)"
      },
      {
        "astId": 10075,
        "contract": "contracts/rewards/ETHmxRewards/ETHmxRewards.sol:ETHmxRewards",
        "label": "_totalStaked",
        "offset": 0,
        "slot": "161",
        "type": "t_uint256"
      },
      {
        "astId": 10079,
        "contract": "contracts/rewards/ETHmxRewards/ETHmxRewards.sol:ETHmxRewards",
        "label": "__gap",
        "offset": 0,
        "slot": "162",
        "type": "t_array(t_uint256)39_storage"
      }
    ],
    "types": {
      "t_address": {
        "encoding": "inplace",
        "label": "address",
        "numberOfBytes": "20"
      },
      "t_array(t_uint256)39_storage": {
        "base": "t_uint256",
        "encoding": "inplace",
        "label": "uint256[39]",
        "numberOfBytes": "1248"
      },
      "t_array(t_uint256)49_storage": {
        "base": "t_uint256",
        "encoding": "inplace",
        "label": "uint256[49]",
        "numberOfBytes": "1568"
      },
      "t_array(t_uint256)50_storage": {
        "base": "t_uint256",
        "encoding": "inplace",
        "label": "uint256[50]",
        "numberOfBytes": "1600"
      },
      "t_array(t_uint256)dyn_storage": {
        "base": "t_uint256",
        "encoding": "dynamic_array",
        "label": "uint256[]",
        "numberOfBytes": "32"
      },
      "t_bool": {
        "encoding": "inplace",
        "label": "bool",
        "numberOfBytes": "1"
      },
      "t_mapping(t_address,t_uint256)": {
        "encoding": "mapping",
        "key": "t_address",
        "label": "mapping(address => uint256)",
        "numberOfBytes": "32",
        "value": "t_uint256"
      },
      "t_uint256": {
        "encoding": "inplace",
        "label": "uint256",
        "numberOfBytes": "32"
      }
    }
  }
}