{
  "address": "0x43c75713Ab458bC4E0B81E2480ED88dc0215891C",
  "abi": [
    {
      "inputs": [
        {
          "internalType": "address",
          "name": "owner_",
          "type": "address"
        }
      ],
      "stateMutability": "nonpayable",
      "type": "constructor"
    },
    {
      "anonymous": false,
      "inputs": [
        {
          "indexed": true,
          "internalType": "address",
          "name": "author",
          "type": "address"
        }
      ],
      "name": "Destroyed",
      "type": "event"
    },
    {
      "anonymous": false,
      "inputs": [
        {
          "indexed": true,
          "internalType": "address",
          "name": "previousOwner",
          "type": "address"
        },
        {
          "indexed": true,
          "internalType": "address",
          "name": "newOwner",
          "type": "address"
        }
      ],
      "name": "OwnershipTransferred",
      "type": "event"
    },
    {
      "anonymous": false,
      "inputs": [
        {
          "indexed": false,
          "internalType": "address",
          "name": "account",
          "type": "address"
        }
      ],
      "name": "Paused",
      "type": "event"
    },
    {
      "anonymous": false,
      "inputs": [
        {
          "indexed": false,
          "internalType": "address",
          "name": "account",
          "type": "address"
        }
      ],
      "name": "Unpaused",
      "type": "event"
    },
    {
      "inputs": [],
      "name": "destroy",
      "outputs": [],
      "stateMutability": "nonpayable",
      "type": "function"
    },
    {
      "inputs": [
        {
          "internalType": "address",
          "name": "owner_",
          "type": "address"
        }
      ],
      "name": "init",
      "outputs": [],
      "stateMutability": "nonpayable",
      "type": "function"
    },
    {
      "inputs": [],
      "name": "owner",
      "outputs": [
        {
          "internalType": "address",
          "name": "",
          "type": "address"
        }
      ],
      "stateMutability": "view",
      "type": "function"
    },
    {
      "inputs": [],
      "name": "paused",
      "outputs": [
        {
          "internalType": "bool",
          "name": "",
          "type": "bool"
        }
      ],
      "stateMutability": "view",
      "type": "function"
    },
    {
      "inputs": [
        {
          "components": [
            {
              "internalType": "address",
              "name": "ethmx",
              "type": "address"
            },
            {
              "internalType": "address",
              "name": "weth",
              "type": "address"
            }
          ],
          "internalType": "struct ETHmxRewards.ETHmxRewardsArgs",
          "name": "_args",
          "type": "tuple"
        }
      ],
      "name": "postInit",
      "outputs": [],
      "stateMutability": "nonpayable",
      "type": "function"
    },
    {
      "inputs": [
        {
          "internalType": "address",
          "name": "secureVault",
          "type": "address"
        }
      ],
      "name": "postUpgrade",
      "outputs": [],
      "stateMutability": "nonpayable",
      "type": "function"
    },
    {
      "inputs": [],
      "name": "renounceOwnership",
      "outputs": [],
      "stateMutability": "nonpayable",
      "type": "function"
    },
    {
      "inputs": [
        {
          "internalType": "address",
          "name": "newOwner",
          "type": "address"
        }
      ],
      "name": "transferOwnership",
      "outputs": [],
      "stateMutability": "nonpayable",
      "type": "function"
    }
  ],
  "transactionHash": "0xe4316f4295b089d1a924d8a34f6bf41f99535f7a98653f46cc85a4b5c5cc0e37",
  "args": [
    "0x5757Dd711EaE80e181E07CdbCe43359Ac1048394"
  ],
  "solcInputHash": "4a9cf321844cf267e8e9e518e2a0ea1e",
  "bytecode": "0x60806040523480156200001157600080fd5b50604051620017d6380380620017d6833981016040819052620000349162000384565b6200003f8162000046565b50620003b4565b600054610100900460ff16806200006257506200006262000110565b8062000071575060005460ff16155b620000ae5760405162461bcd60e51b815260040180806020018281038252602e815260200180620017a8602e913960400191505060405180910390fd5b600054610100900460ff16158015620000da576000805460ff1961ff0019909116610100171660011790555b620000e46200012e565b620000ef82620001d8565b620000f9620002cb565b80156200010c576000805461ff00191690555b5050565b600062000128306200037e60201b62000a0e1760201c565b15905090565b600054610100900460ff16806200014a57506200014a62000110565b8062000159575060005460ff16155b620001965760405162461bcd60e51b815260040180806020018281038252602e815260200180620017a8602e913960400191505060405180910390fd5b600054610100900460ff16158015620001c2576000805460ff1961ff0019909116610100171660011790555b8015620001d5576000805461ff00191690555b50565b600054610100900460ff1680620001f45750620001f462000110565b8062000203575060005460ff16155b620002405760405162461bcd60e51b815260040180806020018281038252602e815260200180620017a8602e913960400191505060405180910390fd5b600054610100900460ff161580156200026c576000805460ff1961ff0019909116610100171660011790555b603380546001600160a01b0319166001600160a01b0384169081179091556040516000907f8be0079c531659141344cd1fd0a4f28419497f9722a3daafe3b4186f6b6457e0908290a380156200010c576000805461ff00191690555050565b600054610100900460ff1680620002e75750620002e762000110565b80620002f6575060005460ff16155b620003335760405162461bcd60e51b815260040180806020018281038252602e815260200180620017a8602e913960400191505060405180910390fd5b600054610100900460ff161580156200035f576000805460ff1961ff0019909116610100171660011790555b6065805460ff191690558015620001d5576000805461ff001916905550565b3b151590565b60006020828403121562000396578081fd5b81516001600160a01b0381168114620003ad578182fd5b9392505050565b6113e480620003c46000396000f3fe608060405234801561001057600080fd5b50600436106100885760003560e01c80638da5cb5b1161005b5780638da5cb5b146100d0578063bca18f3d146100e5578063c79b2430146100f8578063f2fde38b1461010b57610088565b806319ab453c1461008d5780635c975abb146100a2578063715018a6146100c057806383197ef0146100c8575b600080fd5b6100a061009b36600461124f565b61011e565b005b6100aa61024c565b6040516100b791906112f6565b60405180910390f35b6100a0610255565b6100a061036c565b6100d861047b565b6040516100b791906112d5565b6100a06100f3366004611269565b610497565b6100a061010636600461124f565b610599565b6100a061011936600461124f565b61086c565b600054610100900460ff16806101375750610137610a18565b80610145575060005460ff16155b61019a576040517f08c379a000000000000000000000000000000000000000000000000000000000815260040180806020018281038252602e815260200180611357602e913960400191505060405180910390fd5b600054610100900460ff1615801561020057600080547fffffffffffffffffffffffffffffffffffffffffffffffffffffffffffffff007fffffffffffffffffffffffffffffffffffffffffffffffffffffffffffff00ff909116610100171660011790555b610208610a29565b61021182610b3d565b610219610cbf565b801561024857600080547fffffffffffffffffffffffffffffffffffffffffffffffffffffffffffff00ff1690555b5050565b60655460ff1690565b61025d610dfa565b73ffffffffffffffffffffffffffffffffffffffff1661027b61047b565b73ffffffffffffffffffffffffffffffffffffffff16146102fd57604080517f08c379a000000000000000000000000000000000000000000000000000000000815260206004820181905260248201527f4f776e61626c653a2063616c6c6572206973206e6f7420746865206f776e6572604482015290519081900360640190fd5b60335460405160009173ffffffffffffffffffffffffffffffffffffffff16907f8be0079c531659141344cd1fd0a4f28419497f9722a3daafe3b4186f6b6457e0908390a3603380547fffffffffffffffffffffffff0000000000000000000000000000000000000000169055565b610374610dfa565b73ffffffffffffffffffffffffffffffffffffffff1661039261047b565b73ffffffffffffffffffffffffffffffffffffffff161461041457604080517f08c379a000000000000000000000000000000000000000000000000000000000815260206004820181905260248201527f4f776e61626c653a2063616c6c6572206973206e6f7420746865206f776e6572604482015290519081900360640190fd5b600061041e610dfa565b60405190915073ffffffffffffffffffffffffffffffffffffffff8216907f7dec311f70bce33f6997a1cc140bcb6149f9ee83d6be656e848b00d170c9820090600090a28073ffffffffffffffffffffffffffffffffffffffff16ff5b60335473ffffffffffffffffffffffffffffffffffffffff1690565b61049f610dfa565b73ffffffffffffffffffffffffffffffffffffffff166104bd61047b565b73ffffffffffffffffffffffffffffffffffffffff161461053f57604080517f08c379a000000000000000000000000000000000000000000000000000000000815260206004820181905260248201527f4f776e61626c653a2063616c6c6572206973206e6f7420746865206f776e6572604482015290519081900360640190fd5b8051609780547fffffffffffffffffffffffff000000000000000000000000000000000000000090811673ffffffffffffffffffffffffffffffffffffffff93841617909155602090920151609880549093169116179055565b6105a1610dfa565b73ffffffffffffffffffffffffffffffffffffffff166105bf61047b565b73ffffffffffffffffffffffffffffffffffffffff161461064157604080517f08c379a000000000000000000000000000000000000000000000000000000000815260206004820181905260248201527f4f776e61626c653a2063616c6c6572206973206e6f7420746865206f776e6572604482015290519081900360640190fd5b6098546040517f70a0823100000000000000000000000000000000000000000000000000000000815273ffffffffffffffffffffffffffffffffffffffff9091169060009082906370a082319061069c9030906004016112d5565b60206040518083038186803b1580156106b457600080fd5b505afa1580156106c8573d6000803e3d6000fd5b505050506040513d601f19601f820116820180604052508101906106ec91906112bd565b905061070f73ffffffffffffffffffffffffffffffffffffffff83168483610dfe565b6097546040517f70a0823100000000000000000000000000000000000000000000000000000000815260009173ffffffffffffffffffffffffffffffffffffffff16906370a08231906107669030906004016112d5565b60206040518083038186803b15801561077e57600080fd5b505afa158015610792573d6000803e3d6000fd5b505050506040513d601f19601f820116820180604052508101906107b691906112bd565b6097546040517f42966c6800000000000000000000000000000000000000000000000000000000815291925073ffffffffffffffffffffffffffffffffffffffff16906342966c689061080d908490600401611301565b600060405180830381600087803b15801561082757600080fd5b505af115801561083b573d6000803e3d6000fd5b505050506099600061084d91906111f9565b50506000609b819055609c819055609e819055609f81905560a1555050565b610874610dfa565b73ffffffffffffffffffffffffffffffffffffffff1661089261047b565b73ffffffffffffffffffffffffffffffffffffffff161461091457604080517f08c379a000000000000000000000000000000000000000000000000000000000815260206004820181905260248201527f4f776e61626c653a2063616c6c6572206973206e6f7420746865206f776e6572604482015290519081900360640190fd5b73ffffffffffffffffffffffffffffffffffffffff8116610980576040517f08c379a000000000000000000000000000000000000000000000000000000000815260040180806020018281038252602681526020018061130b6026913960400191505060405180910390fd5b60335460405173ffffffffffffffffffffffffffffffffffffffff8084169216907f8be0079c531659141344cd1fd0a4f28419497f9722a3daafe3b4186f6b6457e090600090a3603380547fffffffffffffffffffffffff00000000000000000000000000000000000000001673ffffffffffffffffffffffffffffffffffffffff92909216919091179055565b803b15155b919050565b6000610a2330610a0e565b15905090565b600054610100900460ff1680610a425750610a42610a18565b80610a50575060005460ff16155b610aa5576040517f08c379a000000000000000000000000000000000000000000000000000000000815260040180806020018281038252602e815260200180611357602e913960400191505060405180910390fd5b600054610100900460ff16158015610b0b57600080547fffffffffffffffffffffffffffffffffffffffffffffffffffffffffffffff007fffffffffffffffffffffffffffffffffffffffffffffffffffffffffffff00ff909116610100171660011790555b8015610b3a57600080547fffffffffffffffffffffffffffffffffffffffffffffffffffffffffffff00ff1690555b50565b600054610100900460ff1680610b565750610b56610a18565b80610b64575060005460ff16155b610bb9576040517f08c379a000000000000000000000000000000000000000000000000000000000815260040180806020018281038252602e815260200180611357602e913960400191505060405180910390fd5b600054610100900460ff16158015610c1f57600080547fffffffffffffffffffffffffffffffffffffffffffffffffffffffffffffff007fffffffffffffffffffffffffffffffffffffffffffffffffffffffffffff00ff909116610100171660011790555b603380547fffffffffffffffffffffffff00000000000000000000000000000000000000001673ffffffffffffffffffffffffffffffffffffffff84169081179091556040516000907f8be0079c531659141344cd1fd0a4f28419497f9722a3daafe3b4186f6b6457e0908290a3801561024857600080547fffffffffffffffffffffffffffffffffffffffffffffffffffffffffffff00ff1690555050565b600054610100900460ff1680610cd85750610cd8610a18565b80610ce6575060005460ff16155b610d3b576040517f08c379a000000000000000000000000000000000000000000000000000000000815260040180806020018281038252602e815260200180611357602e913960400191505060405180910390fd5b600054610100900460ff16158015610da157600080547fffffffffffffffffffffffffffffffffffffffffffffffffffffffffffffff007fffffffffffffffffffffffffffffffffffffffffffffffffffffffffffff00ff909116610100171660011790555b606580547fffffffffffffffffffffffffffffffffffffffffffffffffffffffffffffff001690558015610b3a57600080547fffffffffffffffffffffffffffffffffffffffffffffffffffffffffffff00ff16905550565b3390565b6040805173ffffffffffffffffffffffffffffffffffffffff8416602482015260448082018490528251808303909101815260649091019091526020810180517bffffffffffffffffffffffffffffffffffffffffffffffffffffffff167fa9059cbb00000000000000000000000000000000000000000000000000000000179052610e8b908490610e90565b505050565b6000610ef2826040518060400160405280602081526020017f5361666545524332303a206c6f772d6c6576656c2063616c6c206661696c65648152508573ffffffffffffffffffffffffffffffffffffffff16610f689092919063ffffffff16565b805190915015610e8b57808060200190516020811015610f1157600080fd5b5051610e8b576040517f08c379a000000000000000000000000000000000000000000000000000000000815260040180806020018281038252602a815260200180611385602a913960400191505060405180910390fd5b6060610f778484600085610f81565b90505b9392505050565b606082471015610fdc576040517f08c379a00000000000000000000000000000000000000000000000000000000081526004018080602001828103825260268152602001806113316026913960400191505060405180910390fd5b610fe585610a0e565b61105057604080517f08c379a000000000000000000000000000000000000000000000000000000000815260206004820152601d60248201527f416464726573733a2063616c6c20746f206e6f6e2d636f6e7472616374000000604482015290519081900360640190fd5b6000808673ffffffffffffffffffffffffffffffffffffffff1685876040518082805190602001908083835b602083106110b957805182527fffffffffffffffffffffffffffffffffffffffffffffffffffffffffffffffe0909201916020918201910161107c565b6001836020036101000a03801982511681845116808217855250505050505090500191505060006040518083038185875af1925050503d806000811461111b576040519150601f19603f3d011682016040523d82523d6000602084013e611120565b606091505b509150915061113082828661113b565b979650505050505050565b6060831561114a575081610f7a565b82511561115a5782518084602001fd5b816040517f08c379a00000000000000000000000000000000000000000000000000000000081526004018080602001828103825283818151815260200191508051906020019080838360005b838110156111be5781810151838201526020016111a6565b50505050905090810190601f1680156111eb5780820380516001836020036101000a031916815260200191505b509250505060405180910390fd5b5080546000825590600052602060002090810190610b3a91905b808211156112275760008155600101611213565b5090565b803573ffffffffffffffffffffffffffffffffffffffff81168114610a1357600080fd5b600060208284031215611260578081fd5b610f7a8261122b565b60006040828403121561127a578081fd5b6040516040810181811067ffffffffffffffff8211171561129757fe5b6040526112a38361122b565b81526112b16020840161122b565b60208201529392505050565b6000602082840312156112ce578081fd5b5051919050565b73ffffffffffffffffffffffffffffffffffffffff91909116815260200190565b901515815260200190565b9081526020019056fe4f776e61626c653a206e6577206f776e657220697320746865207a65726f2061646472657373416464726573733a20696e73756666696369656e742062616c616e636520666f722063616c6c496e697469616c697a61626c653a20636f6e747261637420697320616c726561647920696e697469616c697a65645361666545524332303a204552433230206f7065726174696f6e20646964206e6f742073756363656564a26469706673582212207c4e81aa18be1a0dacd673bacbdf03bdf56c508dcabf4761ddc449970852cc8a64736f6c63430007060033496e697469616c697a61626c653a20636f6e747261637420697320616c726561647920696e697469616c697a6564",
  "devdoc": {
    "kind": "dev",
    "methods": {
      "owner()": {
        "details": "Returns the address of the current owner."
      },
      "paused()": {
        "details": "Returns true if the contract is paused, and false otherwise."
      },
      "renounceOwnership()": {
        "details": "Leaves the contract without owner. It will not be possible to call `onlyOwner` functions anymore. Can only be called by the current owner. NOTE: Renouncing ownership will leave the contract without an owner, thereby removing any functionality that is only available to the owner."
      },
      "transferOwnership(address)": {
        "details": "Transfers ownership of the contract to a new account (`newOwner`). Can only be called by the current owner."
      }
    },
    "version": 1
  },
  "userdoc": {
    "kind": "user",
    "methods": {},
    "version": 1
  },
  "storageLayout": {
    "storage": [
      {
        "astId": 6,
        "contract": "contracts/rewards/ETHmxRewards/ETHmxRewards.sol:ETHmxRewards",
        "label": "_initialized",
        "offset": 0,
        "slot": "0",
        "type": "t_bool"
      },
      {
        "astId": 9,
        "contract": "contracts/rewards/ETHmxRewards/ETHmxRewards.sol:ETHmxRewards",
        "label": "_initializing",
        "offset": 1,
        "slot": "0",
        "type": "t_bool"
      },
      {
        "astId": 353,
        "contract": "contracts/rewards/ETHmxRewards/ETHmxRewards.sol:ETHmxRewards",
        "label": "__gap",
        "offset": 0,
        "slot": "1",
        "type": "t_array(t_uint256)50_storage"
      },
      {
        "astId": 3948,
        "contract": "contracts/rewards/ETHmxRewards/ETHmxRewards.sol:ETHmxRewards",
        "label": "_owner",
        "offset": 0,
        "slot": "51",
        "type": "t_address"
      },
      {
        "astId": 4067,
        "contract": "contracts/rewards/ETHmxRewards/ETHmxRewards.sol:ETHmxRewards",
        "label": "__gap",
        "offset": 0,
        "slot": "52",
        "type": "t_array(t_uint256)49_storage"
      },
      {
        "astId": 375,
        "contract": "contracts/rewards/ETHmxRewards/ETHmxRewards.sol:ETHmxRewards",
        "label": "_paused",
        "offset": 0,
        "slot": "101",
        "type": "t_bool"
      },
      {
        "astId": 466,
        "contract": "contracts/rewards/ETHmxRewards/ETHmxRewards.sol:ETHmxRewards",
        "label": "__gap",
        "offset": 0,
        "slot": "102",
        "type": "t_array(t_uint256)49_storage"
      },
      {
        "astId": 10513,
        "contract": "contracts/rewards/ETHmxRewards/ETHmxRewards.sol:ETHmxRewards",
        "label": "_ethmx",
        "offset": 0,
        "slot": "151",
        "type": "t_address"
      },
      {
        "astId": 10515,
        "contract": "contracts/rewards/ETHmxRewards/ETHmxRewards.sol:ETHmxRewards",
        "label": "_weth",
        "offset": 0,
        "slot": "152",
        "type": "t_address"
      },
      {
        "astId": 10518,
        "contract": "contracts/rewards/ETHmxRewards/ETHmxRewards.sol:ETHmxRewards",
        "label": "_arptSnapshotsDeprecated",
        "offset": 0,
        "slot": "153",
        "type": "t_array(t_uint256)dyn_storage"
      },
      {
        "astId": 10522,
        "contract": "contracts/rewards/ETHmxRewards/ETHmxRewards.sol:ETHmxRewards",
        "label": "_arptLastIdx",
        "offset": 0,
        "slot": "154",
        "type": "t_mapping(t_address,t_uint256)"
      },
      {
        "astId": 10524,
        "contract": "contracts/rewards/ETHmxRewards/ETHmxRewards.sol:ETHmxRewards",
        "label": "_lastAccrualUpdateDeprecated",
        "offset": 0,
        "slot": "155",
        "type": "t_uint256"
      },
      {
        "astId": 10526,
        "contract": "contracts/rewards/ETHmxRewards/ETHmxRewards.sol:ETHmxRewards",
        "label": "_accrualUpdateIntervalDeprecated",
        "offset": 0,
        "slot": "156",
        "type": "t_uint256"
      },
      {
        "astId": 10530,
        "contract": "contracts/rewards/ETHmxRewards/ETHmxRewards.sol:ETHmxRewards",
        "label": "_rewardsFor",
        "offset": 0,
        "slot": "157",
        "type": "t_mapping(t_address,t_uint256)"
      },
      {
        "astId": 10532,
        "contract": "contracts/rewards/ETHmxRewards/ETHmxRewards.sol:ETHmxRewards",
        "label": "_lastTotalRewardsAccruedDeprecated",
        "offset": 0,
        "slot": "158",
        "type": "t_uint256"
      },
      {
        "astId": 10534,
        "contract": "contracts/rewards/ETHmxRewards/ETHmxRewards.sol:ETHmxRewards",
        "label": "_totalRewardsRedeemedDeprecated",
        "offset": 0,
        "slot": "159",
        "type": "t_uint256"
      },
      {
        "astId": 10538,
        "contract": "contracts/rewards/ETHmxRewards/ETHmxRewards.sol:ETHmxRewards",
        "label": "_stakedFor",
        "offset": 0,
        "slot": "160",
        "type": "t_mapping(t_address,t_uint256)"
      },
      {
        "astId": 10540,
        "contract": "contracts/rewards/ETHmxRewards/ETHmxRewards.sol:ETHmxRewards",
        "label": "_totalStakedDeprecated",
        "offset": 0,
        "slot": "161",
        "type": "t_uint256"
      },
      {
        "astId": 10544,
        "contract": "contracts/rewards/ETHmxRewards/ETHmxRewards.sol:ETHmxRewards",
        "label": "__gap",
        "offset": 0,
        "slot": "162",
        "type": "t_array(t_uint256)39_storage"
      }
    ],
    "types": {
      "t_address": {
        "encoding": "inplace",
        "label": "address",
        "numberOfBytes": "20"
      },
      "t_array(t_uint256)39_storage": {
        "base": "t_uint256",
        "encoding": "inplace",
        "label": "uint256[39]",
        "numberOfBytes": "1248"
      },
      "t_array(t_uint256)49_storage": {
        "base": "t_uint256",
        "encoding": "inplace",
        "label": "uint256[49]",
        "numberOfBytes": "1568"
      },
      "t_array(t_uint256)50_storage": {
        "base": "t_uint256",
        "encoding": "inplace",
        "label": "uint256[50]",
        "numberOfBytes": "1600"
      },
      "t_array(t_uint256)dyn_storage": {
        "base": "t_uint256",
        "encoding": "dynamic_array",
        "label": "uint256[]",
        "numberOfBytes": "32"
      },
      "t_bool": {
        "encoding": "inplace",
        "label": "bool",
        "numberOfBytes": "1"
      },
      "t_mapping(t_address,t_uint256)": {
        "encoding": "mapping",
        "key": "t_address",
        "label": "mapping(address => uint256)",
        "numberOfBytes": "32",
        "value": "t_uint256"
      },
      "t_uint256": {
        "encoding": "inplace",
        "label": "uint256",
        "numberOfBytes": "32"
      }
    }
  }
}