{
  "address": "0x0D0699D30982274B06cebBd4bc7d34445A134dc0",
  "abi": [
    {
      "inputs": [
        {
          "internalType": "address",
          "name": "owner_",
          "type": "address"
        }
      ],
      "stateMutability": "nonpayable",
      "type": "constructor"
    },
    {
      "anonymous": false,
      "inputs": [
        {
          "indexed": true,
          "internalType": "address",
          "name": "author",
          "type": "address"
        },
        {
          "indexed": true,
          "internalType": "address",
          "name": "account",
          "type": "address"
        }
      ],
      "name": "ETHtxSet",
      "type": "event"
    },
    {
      "anonymous": false,
      "inputs": [
        {
          "indexed": true,
          "internalType": "address",
          "name": "author",
          "type": "address"
        },
        {
          "indexed": true,
          "internalType": "address",
          "name": "account",
          "type": "address"
        }
      ],
      "name": "GasOracleSet",
      "type": "event"
    },
    {
      "anonymous": false,
      "inputs": [
        {
          "indexed": true,
          "internalType": "address",
          "name": "previousOwner",
          "type": "address"
        },
        {
          "indexed": true,
          "internalType": "address",
          "name": "newOwner",
          "type": "address"
        }
      ],
      "name": "OwnershipTransferred",
      "type": "event"
    },
    {
      "anonymous": false,
      "inputs": [
        {
          "indexed": false,
          "internalType": "address",
          "name": "account",
          "type": "address"
        }
      ],
      "name": "Paused",
      "type": "event"
    },
    {
      "anonymous": false,
      "inputs": [
        {
          "indexed": true,
          "internalType": "address",
          "name": "author",
          "type": "address"
        },
        {
          "indexed": true,
          "internalType": "address",
          "name": "token",
          "type": "address"
        },
        {
          "indexed": true,
          "internalType": "address",
          "name": "to",
          "type": "address"
        },
        {
          "indexed": false,
          "internalType": "uint256",
          "name": "amount",
          "type": "uint256"
        }
      ],
      "name": "RecoveredUnsupported",
      "type": "event"
    },
    {
      "anonymous": false,
      "inputs": [
        {
          "indexed": true,
          "internalType": "address",
          "name": "author",
          "type": "address"
        },
        {
          "indexed": false,
          "internalType": "uint128",
          "name": "numerator",
          "type": "uint128"
        },
        {
          "indexed": false,
          "internalType": "uint128",
          "name": "denominator",
          "type": "uint128"
        }
      ],
      "name": "TargetCRatioSet",
      "type": "event"
    },
    {
      "anonymous": false,
      "inputs": [
        {
          "indexed": false,
          "internalType": "address",
          "name": "account",
          "type": "address"
        }
      ],
      "name": "Unpaused",
      "type": "event"
    },
    {
      "anonymous": false,
      "inputs": [
        {
          "indexed": true,
          "internalType": "address",
          "name": "author",
          "type": "address"
        },
        {
          "indexed": true,
          "internalType": "address",
          "name": "account",
          "type": "address"
        }
      ],
      "name": "WETHSet",
      "type": "event"
    },
    {
      "inputs": [],
      "name": "cRatio",
      "outputs": [
        {
          "internalType": "uint256",
          "name": "numerator",
          "type": "uint256"
        },
        {
          "internalType": "uint256",
          "name": "denominator",
          "type": "uint256"
        }
      ],
      "stateMutability": "view",
      "type": "function"
    },
    {
      "inputs": [],
      "name": "cRatioBelowTarget",
      "outputs": [
        {
          "internalType": "bool",
          "name": "",
          "type": "bool"
        }
      ],
      "stateMutability": "view",
      "type": "function"
    },
    {
      "inputs": [],
      "name": "ethNeeded",
      "outputs": [
        {
          "internalType": "uint256",
          "name": "",
          "type": "uint256"
        }
      ],
      "stateMutability": "view",
      "type": "function"
    },
    {
      "inputs": [],
      "name": "ethSupply",
      "outputs": [
        {
          "internalType": "uint256",
          "name": "",
          "type": "uint256"
        }
      ],
      "stateMutability": "view",
      "type": "function"
    },
    {
      "inputs": [],
      "name": "ethSupplyTarget",
      "outputs": [
        {
          "internalType": "uint256",
          "name": "",
          "type": "uint256"
        }
      ],
      "stateMutability": "view",
      "type": "function"
    },
    {
      "inputs": [
        {
          "internalType": "uint256",
          "name": "amountEthtxOut",
          "type": "uint256"
        }
      ],
      "name": "ethToExactEthtx",
      "outputs": [
        {
          "internalType": "uint256",
          "name": "",
          "type": "uint256"
        }
      ],
      "stateMutability": "view",
      "type": "function"
    },
    {
      "inputs": [],
      "name": "ethtx",
      "outputs": [
        {
          "internalType": "address",
          "name": "",
          "type": "address"
        }
      ],
      "stateMutability": "view",
      "type": "function"
    },
    {
      "inputs": [],
      "name": "ethtxAvailable",
      "outputs": [
        {
          "internalType": "uint256",
          "name": "",
          "type": "uint256"
        }
      ],
      "stateMutability": "view",
      "type": "function"
    },
    {
      "inputs": [],
      "name": "ethtxOutstanding",
      "outputs": [
        {
          "internalType": "uint256",
          "name": "",
          "type": "uint256"
        }
      ],
      "stateMutability": "view",
      "type": "function"
    },
    {
      "inputs": [
        {
          "internalType": "uint256",
          "name": "amountEthOut",
          "type": "uint256"
        }
      ],
      "name": "ethtxToExactEth",
      "outputs": [
        {
          "internalType": "uint256",
          "name": "",
          "type": "uint256"
        }
      ],
      "stateMutability": "view",
      "type": "function"
    },
    {
      "inputs": [
        {
          "internalType": "uint256",
          "name": "amountEthIn",
          "type": "uint256"
        }
      ],
      "name": "exactEthToEthtx",
      "outputs": [
        {
          "internalType": "uint256",
          "name": "",
          "type": "uint256"
        }
      ],
      "stateMutability": "view",
      "type": "function"
    },
    {
      "inputs": [
        {
          "internalType": "uint256",
          "name": "amountEthtxIn",
          "type": "uint256"
        }
      ],
      "name": "exactEthtxToEth",
      "outputs": [
        {
          "internalType": "uint256",
          "name": "",
          "type": "uint256"
        }
      ],
      "stateMutability": "view",
      "type": "function"
    },
    {
      "inputs": [],
      "name": "feeLogic",
      "outputs": [
        {
          "internalType": "address",
          "name": "",
          "type": "address"
        }
      ],
      "stateMutability": "view",
      "type": "function"
    },
    {
      "inputs": [],
      "name": "gasOracle",
      "outputs": [
        {
          "internalType": "address",
          "name": "",
          "type": "address"
        }
      ],
      "stateMutability": "view",
      "type": "function"
    },
    {
      "inputs": [],
      "name": "gasPerETHtx",
      "outputs": [
        {
          "internalType": "uint256",
          "name": "",
          "type": "uint256"
        }
      ],
      "stateMutability": "pure",
      "type": "function"
    },
    {
      "inputs": [],
      "name": "gasPrice",
      "outputs": [
        {
          "internalType": "uint256",
          "name": "",
          "type": "uint256"
        }
      ],
      "stateMutability": "view",
      "type": "function"
    },
    {
      "inputs": [],
      "name": "gasPriceAtRedemption",
      "outputs": [
        {
          "internalType": "uint256",
          "name": "",
          "type": "uint256"
        }
      ],
      "stateMutability": "view",
      "type": "function"
    },
    {
      "inputs": [
        {
          "internalType": "address",
          "name": "owner_",
          "type": "address"
        }
      ],
      "name": "init",
      "outputs": [],
      "stateMutability": "nonpayable",
      "type": "function"
    },
    {
      "inputs": [],
      "name": "maxGasPrice",
      "outputs": [
        {
          "internalType": "uint256",
          "name": "",
          "type": "uint256"
        }
      ],
      "stateMutability": "view",
      "type": "function"
    },
    {
      "inputs": [],
      "name": "owner",
      "outputs": [
        {
          "internalType": "address",
          "name": "",
          "type": "address"
        }
      ],
      "stateMutability": "view",
      "type": "function"
    },
    {
      "inputs": [],
      "name": "pause",
      "outputs": [],
      "stateMutability": "nonpayable",
      "type": "function"
    },
    {
      "inputs": [],
      "name": "paused",
      "outputs": [
        {
          "internalType": "bool",
          "name": "",
          "type": "bool"
        }
      ],
      "stateMutability": "view",
      "type": "function"
    },
    {
      "inputs": [
        {
          "components": [
            {
              "internalType": "address",
              "name": "ethtx",
              "type": "address"
            },
            {
              "internalType": "address",
              "name": "gasOracle",
              "type": "address"
            },
            {
              "internalType": "address",
              "name": "weth",
              "type": "address"
            },
            {
              "internalType": "uint128",
              "name": "targetCRatioNum",
              "type": "uint128"
            },
            {
              "internalType": "uint128",
              "name": "targetCRatioDen",
              "type": "uint128"
            }
          ],
          "internalType": "struct ETHtxAMM.ETHtxAMMArgs",
          "name": "_args",
          "type": "tuple"
        }
      ],
      "name": "postInit",
      "outputs": [],
      "stateMutability": "nonpayable",
      "type": "function"
    },
    {
      "inputs": [
        {
          "internalType": "address",
          "name": "token",
          "type": "address"
        },
        {
          "internalType": "address",
          "name": "to",
          "type": "address"
        },
        {
          "internalType": "uint256",
          "name": "amount",
          "type": "uint256"
        }
      ],
      "name": "recoverUnsupportedERC20",
      "outputs": [],
      "stateMutability": "nonpayable",
      "type": "function"
    },
    {
      "inputs": [],
      "name": "renounceOwnership",
      "outputs": [],
      "stateMutability": "nonpayable",
      "type": "function"
    },
    {
      "inputs": [
        {
          "internalType": "address",
          "name": "account",
          "type": "address"
        }
      ],
      "name": "setEthtx",
      "outputs": [],
      "stateMutability": "nonpayable",
      "type": "function"
    },
    {
      "inputs": [
        {
          "internalType": "address",
          "name": "account",
          "type": "address"
        }
      ],
      "name": "setGasOracle",
      "outputs": [],
      "stateMutability": "nonpayable",
      "type": "function"
    },
    {
      "inputs": [
        {
          "internalType": "uint128",
          "name": "numerator",
          "type": "uint128"
        },
        {
          "internalType": "uint128",
          "name": "denominator",
          "type": "uint128"
        }
      ],
      "name": "setTargetCRatio",
      "outputs": [],
      "stateMutability": "nonpayable",
      "type": "function"
    },
    {
      "inputs": [
        {
          "internalType": "address",
          "name": "account",
          "type": "address"
        }
      ],
      "name": "setWETH",
      "outputs": [],
      "stateMutability": "nonpayable",
      "type": "function"
    },
    {
      "inputs": [
        {
          "internalType": "uint256",
          "name": "deadline",
          "type": "uint256"
        }
      ],
      "name": "swapEthForEthtx",
      "outputs": [],
      "stateMutability": "payable",
      "type": "function"
    },
    {
      "inputs": [
        {
          "internalType": "uint256",
          "name": "amountOut",
          "type": "uint256"
        },
        {
          "internalType": "uint256",
          "name": "deadline",
          "type": "uint256"
        }
      ],
      "name": "swapEthForExactEthtx",
      "outputs": [],
      "stateMutability": "payable",
      "type": "function"
    },
    {
      "inputs": [
        {
          "internalType": "uint256",
          "name": "amountIn",
          "type": "uint256"
        },
        {
          "internalType": "uint256",
          "name": "deadline",
          "type": "uint256"
        },
        {
          "internalType": "bool",
          "name": "asWETH",
          "type": "bool"
        }
      ],
      "name": "swapEthtxForEth",
      "outputs": [],
      "stateMutability": "nonpayable",
      "type": "function"
    },
    {
      "inputs": [
        {
          "internalType": "uint256",
          "name": "amountInMax",
          "type": "uint256"
        },
        {
          "internalType": "uint256",
          "name": "amountOut",
          "type": "uint256"
        },
        {
          "internalType": "uint256",
          "name": "deadline",
          "type": "uint256"
        },
        {
          "internalType": "bool",
          "name": "asWETH",
          "type": "bool"
        }
      ],
      "name": "swapEthtxForExactEth",
      "outputs": [],
      "stateMutability": "nonpayable",
      "type": "function"
    },
    {
      "inputs": [
        {
          "internalType": "uint256",
          "name": "amountOutMin",
          "type": "uint256"
        },
        {
          "internalType": "uint256",
          "name": "deadline",
          "type": "uint256"
        }
      ],
      "name": "swapExactEthForEthtx",
      "outputs": [],
      "stateMutability": "payable",
      "type": "function"
    },
    {
      "inputs": [
        {
          "internalType": "uint256",
          "name": "amountIn",
          "type": "uint256"
        },
        {
          "internalType": "uint256",
          "name": "amountOutMin",
          "type": "uint256"
        },
        {
          "internalType": "uint256",
          "name": "deadline",
          "type": "uint256"
        },
        {
          "internalType": "bool",
          "name": "asWETH",
          "type": "bool"
        }
      ],
      "name": "swapExactEthtxForEth",
      "outputs": [],
      "stateMutability": "nonpayable",
      "type": "function"
    },
    {
      "inputs": [
        {
          "internalType": "uint256",
          "name": "amountIn",
          "type": "uint256"
        },
        {
          "internalType": "uint256",
          "name": "amountOutMin",
          "type": "uint256"
        },
        {
          "internalType": "uint256",
          "name": "deadline",
          "type": "uint256"
        }
      ],
      "name": "swapExactWethForEthtx",
      "outputs": [],
      "stateMutability": "nonpayable",
      "type": "function"
    },
    {
      "inputs": [
        {
          "internalType": "uint256",
          "name": "amountIn",
          "type": "uint256"
        },
        {
          "internalType": "uint256",
          "name": "deadline",
          "type": "uint256"
        }
      ],
      "name": "swapWethForEthtx",
      "outputs": [],
      "stateMutability": "nonpayable",
      "type": "function"
    },
    {
      "inputs": [
        {
          "internalType": "uint256",
          "name": "amountInMax",
          "type": "uint256"
        },
        {
          "internalType": "uint256",
          "name": "amountOut",
          "type": "uint256"
        },
        {
          "internalType": "uint256",
          "name": "deadline",
          "type": "uint256"
        }
      ],
      "name": "swapWethForExactEthtx",
      "outputs": [],
      "stateMutability": "nonpayable",
      "type": "function"
    },
    {
      "inputs": [],
      "name": "targetCRatio",
      "outputs": [
        {
          "internalType": "uint128",
          "name": "numerator",
          "type": "uint128"
        },
        {
          "internalType": "uint128",
          "name": "denominator",
          "type": "uint128"
        }
      ],
      "stateMutability": "view",
      "type": "function"
    },
    {
      "inputs": [
        {
          "internalType": "address",
          "name": "newOwner",
          "type": "address"
        }
      ],
      "name": "transferOwnership",
      "outputs": [],
      "stateMutability": "nonpayable",
      "type": "function"
    },
    {
      "inputs": [],
      "name": "unpause",
      "outputs": [],
      "stateMutability": "nonpayable",
      "type": "function"
    },
    {
      "inputs": [],
      "name": "weth",
      "outputs": [
        {
          "internalType": "address",
          "name": "",
          "type": "address"
        }
      ],
      "stateMutability": "view",
      "type": "function"
    },
    {
      "stateMutability": "payable",
      "type": "receive"
    }
  ],
  "transactionHash": "0x02e62a5cac6f29349b8975d293133d924bd3d4dab8f940de68877822c125c391",
  "args": [
    "0x5757Dd711EaE80e181E07CdbCe43359Ac1048394"
  ],
  "solcInputHash": "3cacffe51216d1376f3121babfd97661",
  "bytecode": "0x60806040523480156200001157600080fd5b50604051620044ff380380620044ff833981016040819052620000349162000384565b6200003f8162000046565b50620003b4565b600054610100900460ff16806200006257506200006262000110565b8062000071575060005460ff16155b620000ae5760405162461bcd60e51b815260040180806020018281038252602e815260200180620044d1602e913960400191505060405180910390fd5b600054610100900460ff16158015620000da576000805460ff1961ff0019909116610100171660011790555b620000e46200012e565b620000ef82620001d8565b620000f9620002cb565b80156200010c576000805461ff00191690555b5050565b600062000128306200037e60201b6200254a1760201c565b15905090565b600054610100900460ff16806200014a57506200014a62000110565b8062000159575060005460ff16155b620001965760405162461bcd60e51b815260040180806020018281038252602e815260200180620044d1602e913960400191505060405180910390fd5b600054610100900460ff16158015620001c2576000805460ff1961ff0019909116610100171660011790555b8015620001d5576000805461ff00191690555b50565b600054610100900460ff1680620001f45750620001f462000110565b8062000203575060005460ff16155b620002405760405162461bcd60e51b815260040180806020018281038252602e815260200180620044d1602e913960400191505060405180910390fd5b600054610100900460ff161580156200026c576000805460ff1961ff0019909116610100171660011790555b603380546001600160a01b0319166001600160a01b0384169081179091556040516000907f8be0079c531659141344cd1fd0a4f28419497f9722a3daafe3b4186f6b6457e0908290a380156200010c576000805461ff00191690555050565b600054610100900460ff1680620002e75750620002e762000110565b80620002f6575060005460ff16155b620003335760405162461bcd60e51b815260040180806020018281038252602e815260200180620044d1602e913960400191505060405180910390fd5b600054610100900460ff161580156200035f576000805460ff1961ff0019909116610100171660011790555b6065805460ff191690558015620001d5576000805461ff001916905550565b3b151590565b60006020828403121562000396578081fd5b81516001600160a01b0381168114620003ad578182fd5b9392505050565b61410d80620003c46000396000f3fe6080604052600436106102d55760003560e01c80638456cb5911610179578063b563df2b116100d6578063dcbc98dc1161008a578063f2fde38b11610064578063f2fde38b14610798578063fa8c076f146107b8578063fe173b97146107d857610368565b8063dcbc98dc14610745578063df32db7714610765578063e7d29b531461078557610368565b8063bc2b3e5f116100bb578063bc2b3e5f146106f0578063d4d3ad0514610705578063db6647a41461072557610368565b8063b563df2b146106b0578063bbaebe88146106d057610368565b8063977507c41161012d578063a1caa48e11610112578063a1caa48e14610650578063a2bc9c2014610670578063a87b81521461069057610368565b8063977507c414610626578063a05d674f1461063b57610368565b80638da5cb5b1161015e5780638da5cb5b146105e75780638f365b69146105fc578063902dd1861461061157610368565b80638456cb59146105b257806386a86d41146105c757610368565b8063546146e3116102325780635d62a8dd116101e657806375de5f95116101c057806375de5f951461055c5780637de774691461057c578063805f751a1461058f57610368565b80635d62a8dd1461050f57806365ac74db14610524578063715018a61461054757610368565b8063575a9d1611610217578063575a9d16146104b85780635b769f3c146104da5780635c975abb146104fa57610368565b8063546146e3146104835780635572f2641461049857610368565b80633f4ba83a1161028957806348f084f01161026e57806348f084f0146104465780634d6a3cfb146104595780635028db1a1461046e57610368565b80633f4ba83a1461040f5780633fc8cef31461042457610368565b806322f7af25116102ba57806322f7af25146103ba5780633b4871bc146103da5780633de39c11146103fa57610368565b8063146252cb1461036d57806319ab453c1461039857610368565b366103685760006102e46107ed565b90503373ffffffffffffffffffffffffffffffffffffffff821614610365578073ffffffffffffffffffffffffffffffffffffffff1663d0e30db0346040518263ffffffff1660e01b81526004016000604051808303818588803b15801561034b57600080fd5b505af115801561035f573d6000803e3d6000fd5b50505050505b50005b600080fd5b34801561037957600080fd5b5061038261080a565b60405161038f9190613fb7565b60405180910390f35b3480156103a457600080fd5b506103b86103b336600461397e565b6108a1565b005b3480156103c657600080fd5b506103b86103d5366004613a9f565b6109cf565b3480156103e657600080fd5b506103b86103f5366004613a12565b610bc7565b34801561040657600080fd5b50610382610e8b565b34801561041b57600080fd5b506103b8610f30565b34801561043057600080fd5b506104396107ed565b60405161038f9190613bc5565b6103b8610454366004613ad1565b611055565b34801561046557600080fd5b50610382611064565b34801561047a57600080fd5b5061043961106e565b34801561048f57600080fd5b506103826110f5565b3480156104a457600080fd5b506103826104b3366004613ad1565b6110fb565b3480156104c457600080fd5b506104cd611116565b60405161038f9190613c17565b3480156104e657600080fd5b506103b86104f536600461397e565b6111a9565b34801561050657600080fd5b506104cd61132e565b34801561051b57600080fd5b50610439611337565b34801561053057600080fd5b50610539611353565b60405161038f929190613fc0565b34801561055357600080fd5b506103b8611371565b34801561056857600080fd5b506103b8610577366004613b5a565b611488565b6103b861058a366004613b01565b61149b565b34801561059b57600080fd5b506105a46114dd565b60405161038f929190613f94565b3480156105be57600080fd5b506103b861150e565b3480156105d357600080fd5b506103b86105e23660046139b6565b611632565b3480156105f357600080fd5b5061043961185d565b34801561060857600080fd5b50610382611879565b34801561061d57600080fd5b50610439611911565b34801561063257600080fd5b5061038261192d565b34801561064757600080fd5b506103826119ae565b34801561065c57600080fd5b5061038261066b366004613ad1565b6119d9565b34801561067c57600080fd5b506103b861068b366004613b22565b6119ec565b34801561069c57600080fd5b506103b86106ab36600461397e565b611b41565b3480156106bc57600080fd5b506103826106cb366004613ad1565b611cc6565b3480156106dc57600080fd5b506103826106eb366004613ad1565b611d81565b3480156106fc57600080fd5b50610382611e42565b34801561071157600080fd5b506103b8610720366004613b85565b611e91565b34801561073157600080fd5b506103b8610740366004613b01565b612021565b34801561075157600080fd5b506103b8610760366004613b5a565b61202d565b34801561077157600080fd5b506103b8610780366004613b85565b61203f565b6103b8610793366004613b01565b6121c7565b3480156107a457600080fd5b506103b86107b336600461397e565b6121d4565b3480156107c457600080fd5b506103b86107d336600461397e565b612376565b3480156107e457600080fd5b506103826124fb565b609a5473ffffffffffffffffffffffffffffffffffffffff165b90565b6000610814611911565b73ffffffffffffffffffffffffffffffffffffffff166370a08231306040518263ffffffff1660e01b815260040161084c9190613bc5565b60206040518083038186803b15801561086457600080fd5b505afa158015610878573d6000803e3d6000fd5b505050506040513d601f19601f8201168201806040525081019061089c9190613ae9565b905090565b600054610100900460ff16806108ba57506108ba612550565b806108c8575060005460ff16155b61091d576040517f08c379a000000000000000000000000000000000000000000000000000000000815260040180806020018281038252602e81526020018061405f602e913960400191505060405180910390fd5b600054610100900460ff1615801561098357600080547fffffffffffffffffffffffffffffffffffffffffffffffffffffffffffffff007fffffffffffffffffffffffffffffffffffffffffffffffffffffffffffff00ff909116610100171660011790555b61098b612561565b61099482612674565b61099c6127f6565b80156109cb57600080547fffffffffffffffffffffffffffffffffffffffffffffffffffffffffffff00ff1690555b5050565b6109d7612931565b73ffffffffffffffffffffffffffffffffffffffff166109f561185d565b73ffffffffffffffffffffffffffffffffffffffff1614610a7757604080517f08c379a000000000000000000000000000000000000000000000000000000000815260206004820181905260248201527f4f776e61626c653a2063616c6c6572206973206e6f7420746865206f776e6572604482015290519081900360640190fd5b6fffffffffffffffffffffffffffffffff8216610ac9576040517f08c379a0000000000000000000000000000000000000000000000000000000008152600401610ac090613cfc565b60405180910390fd5b6fffffffffffffffffffffffffffffffff8116610b12576040517f08c379a0000000000000000000000000000000000000000000000000000000008152600401610ac090613e24565b609880546fffffffffffffffffffffffffffffffff838116700100000000000000000000000000000000028186167fffffffffffffffffffffffffffffffff000000000000000000000000000000009093169290921716179055610b74612931565b73ffffffffffffffffffffffffffffffffffffffff167f9af9b815b340cc536d9c60d950fdae6e7d2932ec908595257787b6a7f4dec3728383604051610bbb929190613f94565b60405180910390a25050565b610bcf612931565b73ffffffffffffffffffffffffffffffffffffffff16610bed61185d565b73ffffffffffffffffffffffffffffffffffffffff1614610c6f57604080517f08c379a000000000000000000000000000000000000000000000000000000000815260206004820181905260248201527f4f776e61626c653a2063616c6c6572206973206e6f7420746865206f776e6572604482015290519081900360640190fd5b6000610c79612931565b8251609980547fffffffffffffffffffffffff00000000000000000000000000000000000000001673ffffffffffffffffffffffffffffffffffffffff92831690811790915560405192935091908316907f771296b6c631391f79de88226814060fdb511864a4e620f8085f4534f20b5f8490600090a36020820151609780547fffffffffffffffffffffffff00000000000000000000000000000000000000001673ffffffffffffffffffffffffffffffffffffffff92831690811790915560405190918316907f580c76d0bfa674377787c86b7e4910624b8de2f31c4f8284196ac7ce68a3a57b90600090a3604082810151609a80547fffffffffffffffffffffffff00000000000000000000000000000000000000001673ffffffffffffffffffffffffffffffffffffffff9283169081179091559151908316907f9cfa0588ff5ff3789d20735024d004bfb8db496d5117712e136adbfe97af41d790600090a360608201516098805460808501516fffffffffffffffffffffffffffffffff818116700100000000000000000000000000000000028186167fffffffffffffffffffffffffffffffff0000000000000000000000000000000090941693909317169190911790915560405173ffffffffffffffffffffffffffffffffffffffff8416927f9af9b815b340cc536d9c60d950fdae6e7d2932ec908595257787b6a7f4dec37292610bbb92613f94565b600080610e96611879565b905080610ead57610ea56124fb565b915050610807565b600080610eb86114dd565b915091506000610eee826fffffffffffffffffffffffffffffffff16610ee8670de0b6b3a7640000610ee8611064565b90612935565b90506000610f1a846fffffffffffffffffffffffffffffffff16610ee8610f136110f5565b8890612935565b9050610f2682826129b1565b9550505050505090565b610f38612931565b73ffffffffffffffffffffffffffffffffffffffff16610f5661185d565b73ffffffffffffffffffffffffffffffffffffffff1614610fd857604080517f08c379a000000000000000000000000000000000000000000000000000000000815260206004820181905260248201527f4f776e61626c653a2063616c6c6572206973206e6f7420746865206f776e6572604482015290519081900360640190fd5b610fe061132e565b61104b57604080517f08c379a000000000000000000000000000000000000000000000000000000000815260206004820152601460248201527f5061757361626c653a206e6f7420706175736564000000000000000000000000604482015290519081900360640190fd5b611053612a32565b565b61106134826000612b20565b50565b60006108146107ed565b6000611078611911565b73ffffffffffffffffffffffffffffffffffffffff16635028db1a6040518163ffffffff1660e01b815260040160206040518083038186803b1580156110bd57600080fd5b505afa1580156110d1573d6000803e3d6000fd5b505050506040513d601f19601f8201168201806040525081019061089c919061399a565b61520890565b600061110e6111086124fb565b83612c6e565b90505b919050565b6000806000611123611353565b91509150806000141561113b57600092505050610807565b60008161115084670de0b6b3a7640000612935565b8161115757fe5b0490506000806111656114dd565b6fffffffffffffffffffffffffffffffff9182169350169050600061119c8261119685670de0b6b3a7640000612935565b906129b1565b9093109550505050505090565b6111b1612931565b73ffffffffffffffffffffffffffffffffffffffff166111cf61185d565b73ffffffffffffffffffffffffffffffffffffffff161461125157604080517f08c379a000000000000000000000000000000000000000000000000000000000815260206004820181905260248201527f4f776e61626c653a2063616c6c6572206973206e6f7420746865206f776e6572604482015290519081900360640190fd5b73ffffffffffffffffffffffffffffffffffffffff811661129e576040517f08c379a0000000000000000000000000000000000000000000000000000000008152600401610ac090613ded565b609a80547fffffffffffffffffffffffff00000000000000000000000000000000000000001673ffffffffffffffffffffffffffffffffffffffff83169081179091556112e9612931565b73ffffffffffffffffffffffffffffffffffffffff167f9cfa0588ff5ff3789d20735024d004bfb8db496d5117712e136adbfe97af41d760405160405180910390a350565b60655460ff1690565b60975473ffffffffffffffffffffffffffffffffffffffff1690565b60008061135e611064565b915061136b6104b3611879565b90509091565b611379612931565b73ffffffffffffffffffffffffffffffffffffffff1661139761185d565b73ffffffffffffffffffffffffffffffffffffffff161461141957604080517f08c379a000000000000000000000000000000000000000000000000000000000815260206004820181905260248201527f4f776e61626c653a2063616c6c6572206973206e6f7420746865206f776e6572604482015290519081900360640190fd5b60335460405160009173ffffffffffffffffffffffffffffffffffffffff16907f8be0079c531659141344cd1fd0a4f28419497f9722a3daafe3b4186f6b6457e0908390a3603380547fffffffffffffffffffffffff0000000000000000000000000000000000000000169055565b6114958383836001612c95565b50505050565b3460006114aa82858584612c95565b9050808214611495576114958183036114c1612931565b73ffffffffffffffffffffffffffffffffffffffff1690612e31565b6098546fffffffffffffffffffffffffffffffff808216927001000000000000000000000000000000009092041690565b611516612931565b73ffffffffffffffffffffffffffffffffffffffff1661153461185d565b73ffffffffffffffffffffffffffffffffffffffff16146115b657604080517f08c379a000000000000000000000000000000000000000000000000000000000815260206004820181905260248201527f4f776e61626c653a2063616c6c6572206973206e6f7420746865206f776e6572604482015290519081900360640190fd5b6115be61132e565b1561162a57604080517f08c379a000000000000000000000000000000000000000000000000000000000815260206004820152601060248201527f5061757361626c653a2070617573656400000000000000000000000000000000604482015290519081900360640190fd5b611053612f57565b61163a612931565b73ffffffffffffffffffffffffffffffffffffffff1661165861185d565b73ffffffffffffffffffffffffffffffffffffffff16146116da57604080517f08c379a000000000000000000000000000000000000000000000000000000000815260206004820181905260248201527f4f776e61626c653a2063616c6c6572206973206e6f7420746865206f776e6572604482015290519081900360640190fd5b6116e26107ed565b73ffffffffffffffffffffffffffffffffffffffff168373ffffffffffffffffffffffffffffffffffffffff161415611747576040517f08c379a0000000000000000000000000000000000000000000000000000000008152600401610ac090613eb8565b61174f611911565b73ffffffffffffffffffffffffffffffffffffffff168373ffffffffffffffffffffffffffffffffffffffff1614156117b4576040517f08c379a0000000000000000000000000000000000000000000000000000000008152600401610ac090613c59565b6117d573ffffffffffffffffffffffffffffffffffffffff8416838361301f565b8173ffffffffffffffffffffffffffffffffffffffff168373ffffffffffffffffffffffffffffffffffffffff1661180b612931565b73ffffffffffffffffffffffffffffffffffffffff167feaf4cea276efdcae93a52ca2f4bfdd952992169289bf655b1870a4b20bdae7d6846040516118509190613fb7565b60405180910390a4505050565b60335473ffffffffffffffffffffffffffffffffffffffff1690565b600061089c61188661080a565b61188e611911565b73ffffffffffffffffffffffffffffffffffffffff166318160ddd6040518163ffffffff1660e01b815260040160206040518083038186803b1580156118d357600080fd5b505afa1580156118e7573d6000803e3d6000fd5b505050506040513d601f19601f8201168201806040525081019061190b9190613ae9565b906130ac565b60995473ffffffffffffffffffffffffffffffffffffffff1690565b600080600061193a611353565b915091506000806119496114dd565b91509150600061198a826fffffffffffffffffffffffffffffffff16611196856fffffffffffffffffffffffffffffffff168761293590919063ffffffff16565b9050808511156119a257600095505050505050610807565b93909303935050505090565b6000806119b96124fb565b905060006119c5610e8b565b9050808211156119d3578091505b50905090565b600061110e6119e66124fb565b83613123565b8142811015611a27576040517f08c379a0000000000000000000000000000000000000000000000000000000008152600401610ac090613f5d565b611a2f611337565b73ffffffffffffffffffffffffffffffffffffffff16639e2437146040518163ffffffff1660e01b815260040160206040518083038186803b158015611a7457600080fd5b505afa158015611a88573d6000803e3d6000fd5b505050506040513d601f19601f82011682018060405250810190611aac91906139f6565b15611ae3576040517f08c379a0000000000000000000000000000000000000000000000000000000008152600401610ac090613c90565b83611b1a576040517f08c379a0000000000000000000000000000000000000000000000000000000008152600401610ac090613eef565b6000611b2585611d81565b9050611b3a611b32612931565b868386613180565b5050505050565b611b49612931565b73ffffffffffffffffffffffffffffffffffffffff16611b6761185d565b73ffffffffffffffffffffffffffffffffffffffff1614611be957604080517f08c379a000000000000000000000000000000000000000000000000000000000815260206004820181905260248201527f4f776e61626c653a2063616c6c6572206973206e6f7420746865206f776e6572604482015290519081900360640190fd5b73ffffffffffffffffffffffffffffffffffffffff8116611c36576040517f08c379a0000000000000000000000000000000000000000000000000000000008152600401610ac090613cc7565b609780547fffffffffffffffffffffffff00000000000000000000000000000000000000001673ffffffffffffffffffffffffffffffffffffffff8316908117909155611c81612931565b73ffffffffffffffffffffffffffffffffffffffff167f580c76d0bfa674377787c86b7e4910624b8de2f31c4f8284196ac7ce68a3a57b60405160405180910390a350565b600080611cda611cd46119ae565b84613123565b90506000611ce661106e565b73ffffffffffffffffffffffffffffffffffffffff1663063f384f611d09612931565b30856040518463ffffffff1660e01b8152600401611d2993929190613be6565b60206040518083038186803b158015611d4157600080fd5b505afa158015611d55573d6000803e3d6000fd5b505050506040513d601f19601f82011682018060405250810190611d799190613ae9565b949350505050565b600080611d8c61106e565b73ffffffffffffffffffffffffffffffffffffffff1663be3945e4611daf612931565b30866040518463ffffffff1660e01b8152600401611dcf93929190613be6565b60206040518083038186803b158015611de757600080fd5b505afa158015611dfb573d6000803e3d6000fd5b505050506040513d601f19601f82011682018060405250810190611e1f9190613ae9565b9050611e3b611e2c6119ae565b611e3685846130ac565b612c6e565b9392505050565b6000806000611e4f6114dd565b91509150611e8a816fffffffffffffffffffffffffffffffff16611196846fffffffffffffffffffffffffffffffff16610ee86104b3611879565b9250505090565b8142811015611ecc576040517f08c379a0000000000000000000000000000000000000000000000000000000008152600401610ac090613f5d565b611ed4611337565b73ffffffffffffffffffffffffffffffffffffffff16639e2437146040518163ffffffff1660e01b815260040160206040518083038186803b158015611f1957600080fd5b505afa158015611f2d573d6000803e3d6000fd5b505050506040513d601f19601f82011682018060405250810190611f5191906139f6565b15611f88576040517f08c379a0000000000000000000000000000000000000000000000000000000008152600401610ac090613c90565b84611fbf576040517f08c379a0000000000000000000000000000000000000000000000000000000008152600401610ac090613eef565b6000611fca85611cc6565b905085811115612006576040517f08c379a0000000000000000000000000000000000000000000000000000000008152600401610ac090613c22565b612019612011612931565b828786613180565b505050505050565b6109cb82826001612b20565b61203a8383836001613274565b505050565b814281101561207a576040517f08c379a0000000000000000000000000000000000000000000000000000000008152600401610ac090613f5d565b612082611337565b73ffffffffffffffffffffffffffffffffffffffff16639e2437146040518163ffffffff1660e01b815260040160206040518083038186803b1580156120c757600080fd5b505afa1580156120db573d6000803e3d6000fd5b505050506040513d601f19601f820116820180604052508101906120ff91906139f6565b15612136576040517f08c379a0000000000000000000000000000000000000000000000000000000008152600401610ac090613c90565b8461216d576040517f08c379a0000000000000000000000000000000000000000000000000000000008152600401610ac090613eef565b600061217886611d81565b9050848110156121b4576040517f08c379a0000000000000000000000000000000000000000000000000000000008152600401610ac090613d59565b6120196121bf612931565b878386613180565b6109cb3483836000613274565b6121dc612931565b73ffffffffffffffffffffffffffffffffffffffff166121fa61185d565b73ffffffffffffffffffffffffffffffffffffffff161461227c57604080517f08c379a000000000000000000000000000000000000000000000000000000000815260206004820181905260248201527f4f776e61626c653a2063616c6c6572206973206e6f7420746865206f776e6572604482015290519081900360640190fd5b73ffffffffffffffffffffffffffffffffffffffff81166122e8576040517f08c379a0000000000000000000000000000000000000000000000000000000008152600401808060200182810382526026815260200180613fff6026913960400191505060405180910390fd5b60335460405173ffffffffffffffffffffffffffffffffffffffff8084169216907f8be0079c531659141344cd1fd0a4f28419497f9722a3daafe3b4186f6b6457e090600090a3603380547fffffffffffffffffffffffff00000000000000000000000000000000000000001673ffffffffffffffffffffffffffffffffffffffff92909216919091179055565b61237e612931565b73ffffffffffffffffffffffffffffffffffffffff1661239c61185d565b73ffffffffffffffffffffffffffffffffffffffff161461241e57604080517f08c379a000000000000000000000000000000000000000000000000000000000815260206004820181905260248201527f4f776e61626c653a2063616c6c6572206973206e6f7420746865206f776e6572604482015290519081900360640190fd5b73ffffffffffffffffffffffffffffffffffffffff811661246b576040517f08c379a0000000000000000000000000000000000000000000000000000000008152600401610ac090613e81565b609980547fffffffffffffffffffffffff00000000000000000000000000000000000000001673ffffffffffffffffffffffffffffffffffffffff83169081179091556124b6612931565b73ffffffffffffffffffffffffffffffffffffffff167f771296b6c631391f79de88226814060fdb511864a4e620f8085f4534f20b5f8460405160405180910390a350565b6000612505611337565b73ffffffffffffffffffffffffffffffffffffffff1663fe173b976040518163ffffffff1660e01b815260040160206040518083038186803b15801561086457600080fd5b3b151590565b600061255b3061254a565b15905090565b600054610100900460ff168061257a575061257a612550565b80612588575060005460ff16155b6125dd576040517f08c379a000000000000000000000000000000000000000000000000000000000815260040180806020018281038252602e81526020018061405f602e913960400191505060405180910390fd5b600054610100900460ff1615801561264357600080547fffffffffffffffffffffffffffffffffffffffffffffffffffffffffffffff007fffffffffffffffffffffffffffffffffffffffffffffffffffffffffffff00ff909116610100171660011790555b801561106157600080547fffffffffffffffffffffffffffffffffffffffffffffffffffffffffffff00ff16905550565b600054610100900460ff168061268d575061268d612550565b8061269b575060005460ff16155b6126f0576040517f08c379a000000000000000000000000000000000000000000000000000000000815260040180806020018281038252602e81526020018061405f602e913960400191505060405180910390fd5b600054610100900460ff1615801561275657600080547fffffffffffffffffffffffffffffffffffffffffffffffffffffffffffffff007fffffffffffffffffffffffffffffffffffffffffffffffffffffffffffff00ff909116610100171660011790555b603380547fffffffffffffffffffffffff00000000000000000000000000000000000000001673ffffffffffffffffffffffffffffffffffffffff84169081179091556040516000907f8be0079c531659141344cd1fd0a4f28419497f9722a3daafe3b4186f6b6457e0908290a380156109cb57600080547fffffffffffffffffffffffffffffffffffffffffffffffffffffffffffff00ff1690555050565b600054610100900460ff168061280f575061280f612550565b8061281d575060005460ff16155b612872576040517f08c379a000000000000000000000000000000000000000000000000000000000815260040180806020018281038252602e81526020018061405f602e913960400191505060405180910390fd5b600054610100900460ff161580156128d857600080547fffffffffffffffffffffffffffffffffffffffffffffffffffffffffffffff007fffffffffffffffffffffffffffffffffffffffffffffffffffffffffffff00ff909116610100171660011790555b606580547fffffffffffffffffffffffffffffffffffffffffffffffffffffffffffffff00169055801561106157600080547fffffffffffffffffffffffffffffffffffffffffffffffffffffffffffff00ff16905550565b3390565b600082612944575060006129ab565b8282028284828161295157fe5b04146129a8576040517f08c379a000000000000000000000000000000000000000000000000000000000815260040180806020018281038252602181526020018061408d6021913960400191505060405180910390fd5b90505b92915050565b6000808211612a2157604080517f08c379a000000000000000000000000000000000000000000000000000000000815260206004820152601a60248201527f536166654d6174683a206469766973696f6e206279207a65726f000000000000604482015290519081900360640190fd5b818381612a2a57fe5b049392505050565b612a3a61132e565b612aa557604080517f08c379a000000000000000000000000000000000000000000000000000000000815260206004820152601460248201527f5061757361626c653a206e6f7420706175736564000000000000000000000000604482015290519081900360640190fd5b606580547fffffffffffffffffffffffffffffffffffffffffffffffffffffffffffffff001690557f5db9ee0a495bf2e6ff9c91a7834c1ba4fdd244a5e8aa4e537bd38aeae4b073aa612af6612931565b6040805173ffffffffffffffffffffffffffffffffffffffff9092168252519081900360200190a1565b8142811015612b5b576040517f08c379a0000000000000000000000000000000000000000000000000000000008152600401610ac090613f5d565b612b63611337565b73ffffffffffffffffffffffffffffffffffffffff16639e2437146040518163ffffffff1660e01b815260040160206040518083038186803b158015612ba857600080fd5b505afa158015612bbc573d6000803e3d6000fd5b505050506040513d601f19601f82011682018060405250810190612be091906139f6565b15612c17576040517f08c379a0000000000000000000000000000000000000000000000000000000008152600401610ac090613c90565b83612c4e576040517f08c379a0000000000000000000000000000000000000000000000000000000008152600401610ac090613eef565b6000612c59856119d9565b9050611b3a612c66612931565b8683866133f8565b6000670de0b6b3a7640000612c8e612c846110f5565b610ee88686612935565b81612a2a57fe5b60008242811015612cd2576040517f08c379a0000000000000000000000000000000000000000000000000000000008152600401610ac090613f5d565b612cda611337565b73ffffffffffffffffffffffffffffffffffffffff16639e2437146040518163ffffffff1660e01b815260040160206040518083038186803b158015612d1f57600080fd5b505afa158015612d33573d6000803e3d6000fd5b505050506040513d601f19601f82011682018060405250810190612d5791906139f6565b15612d8e576040517f08c379a0000000000000000000000000000000000000000000000000000000008152600401610ac090613c90565b85612dc5576040517f08c379a0000000000000000000000000000000000000000000000000000000008152600401610ac090613eef565b612dd96001612dd3876110fb565b90613555565b915085821115612e15576040517f08c379a0000000000000000000000000000000000000000000000000000000008152600401610ac090613c22565b612e28612e20612931565b8387866133f8565b50949350505050565b80471015612ea057604080517f08c379a000000000000000000000000000000000000000000000000000000000815260206004820152601d60248201527f416464726573733a20696e73756666696369656e742062616c616e6365000000604482015290519081900360640190fd5b60405160009073ffffffffffffffffffffffffffffffffffffffff84169083908381818185875af1925050503d8060008114612ef8576040519150601f19603f3d011682016040523d82523d6000602084013e612efd565b606091505b505090508061203a576040517f08c379a000000000000000000000000000000000000000000000000000000000815260040180806020018281038252603a815260200180614025603a913960400191505060405180910390fd5b612f5f61132e565b15612fcb57604080517f08c379a000000000000000000000000000000000000000000000000000000000815260206004820152601060248201527f5061757361626c653a2070617573656400000000000000000000000000000000604482015290519081900360640190fd5b606580547fffffffffffffffffffffffffffffffffffffffffffffffffffffffffffffff001660011790557f62e78cea01bee320cd4e420270b5ea74000d11b0c9f74754ebdbfc544b05a258612af6612931565b6040805173ffffffffffffffffffffffffffffffffffffffff8416602482015260448082018490528251808303909101815260649091019091526020810180517bffffffffffffffffffffffffffffffffffffffffffffffffffffffff167fa9059cbb0000000000000000000000000000000000000000000000000000000017905261203a9084906135c9565b60008282111561311d57604080517f08c379a000000000000000000000000000000000000000000000000000000000815260206004820152601e60248201527f536166654d6174683a207375627472616374696f6e206f766572666c6f770000604482015290519081900360640190fd5b50900390565b60008261315c576040517f08c379a0000000000000000000000000000000000000000000000000000000008152600401610ac090613f26565b61316e6131676110f5565b8490612935565b612c8e83670de0b6b3a7640000612935565b6131ac84308561318e611911565b73ffffffffffffffffffffffffffffffffffffffff169291906136a1565b80156131e1576131dc84836131bf6107ed565b73ffffffffffffffffffffffffffffffffffffffff16919061301f565b611495565b6131e96107ed565b73ffffffffffffffffffffffffffffffffffffffff16632e1a7d4d836040518263ffffffff1660e01b81526004016132219190613fb7565b600060405180830381600087803b15801561323b57600080fd5b505af115801561324f573d6000803e3d6000fd5b506114959250505073ffffffffffffffffffffffffffffffffffffffff851683612e31565b81428110156132af576040517f08c379a0000000000000000000000000000000000000000000000000000000008152600401610ac090613f5d565b6132b7611337565b73ffffffffffffffffffffffffffffffffffffffff16639e2437146040518163ffffffff1660e01b815260040160206040518083038186803b1580156132fc57600080fd5b505afa158015613310573d6000803e3d6000fd5b505050506040513d601f19601f8201168201806040525081019061333491906139f6565b1561336b576040517f08c379a0000000000000000000000000000000000000000000000000000000008152600401610ac090613c90565b846133a2576040517f08c379a0000000000000000000000000000000000000000000000000000000008152600401610ac090613eef565b60006133ad866119d9565b9050848110156133e9576040517f08c379a0000000000000000000000000000000000000000000000000000000008152600401610ac090613d59565b6120196133f4612931565b8783865b6000613402611911565b73ffffffffffffffffffffffffffffffffffffffff166370a08231306040518263ffffffff1660e01b815260040161343a9190613bc5565b60206040518083038186803b15801561345257600080fd5b505afa158015613466573d6000803e3d6000fd5b505050506040513d601f19601f8201168201806040525081019061348a9190613ae9565b9050828110156134c6576040517f08c379a0000000000000000000000000000000000000000000000000000000008152600401610ac090613d90565b81156134df576134da85308661318e6107ed565b613548565b6134e76107ed565b73ffffffffffffffffffffffffffffffffffffffff1663d0e30db0856040518263ffffffff1660e01b81526004016000604051808303818588803b15801561352e57600080fd5b505af1158015613542573d6000803e3d6000fd5b50505050505b611b3a85846131bf611911565b6000828201838110156129a857604080517f08c379a000000000000000000000000000000000000000000000000000000000815260206004820152601b60248201527f536166654d6174683a206164646974696f6e206f766572666c6f770000000000604482015290519081900360640190fd5b600061362b826040518060400160405280602081526020017f5361666545524332303a206c6f772d6c6576656c2063616c6c206661696c65648152508573ffffffffffffffffffffffffffffffffffffffff166137369092919063ffffffff16565b80519091501561203a5780806020019051602081101561364a57600080fd5b505161203a576040517f08c379a000000000000000000000000000000000000000000000000000000000815260040180806020018281038252602a8152602001806140ae602a913960400191505060405180910390fd5b6040805173ffffffffffffffffffffffffffffffffffffffff80861660248301528416604482015260648082018490528251808303909101815260849091019091526020810180517bffffffffffffffffffffffffffffffffffffffffffffffffffffffff167f23b872dd000000000000000000000000000000000000000000000000000000001790526114959085906135c9565b6060611d7984846000858561374a8561254a565b6137b557604080517f08c379a000000000000000000000000000000000000000000000000000000000815260206004820152601d60248201527f416464726573733a2063616c6c20746f206e6f6e2d636f6e7472616374000000604482015290519081900360640190fd5b6000808673ffffffffffffffffffffffffffffffffffffffff1685876040518082805190602001908083835b6020831061381e57805182527fffffffffffffffffffffffffffffffffffffffffffffffffffffffffffffffe090920191602091820191016137e1565b6001836020036101000a03801982511681845116808217855250505050505090500191505060006040518083038185875af1925050503d8060008114613880576040519150601f19603f3d011682016040523d82523d6000602084013e613885565b606091505b50915091506138958282866138a0565b979650505050505050565b606083156138af575081611e3b565b8251156138bf5782518084602001fd5b816040517f08c379a00000000000000000000000000000000000000000000000000000000081526004018080602001828103825283818151815260200191508051906020019080838360005b8381101561392357818101518382015260200161390b565b50505050905090810190601f1680156139505780820380516001836020036101000a031916815260200191505b509250505060405180910390fd5b80356fffffffffffffffffffffffffffffffff8116811461111157600080fd5b60006020828403121561398f578081fd5b81356129a881613fce565b6000602082840312156139ab578081fd5b81516129a881613fce565b6000806000606084860312156139ca578182fd5b83356139d581613fce565b925060208401356139e581613fce565b929592945050506040919091013590565b600060208284031215613a07578081fd5b81516129a881613ff0565b600060a08284031215613a23578081fd5b60405160a0810181811067ffffffffffffffff82111715613a4057fe5b6040528235613a4e81613fce565b81526020830135613a5e81613fce565b60208201526040830135613a7181613fce565b6040820152613a826060840161395e565b6060820152613a936080840161395e565b60808201529392505050565b60008060408385031215613ab1578182fd5b613aba8361395e565b9150613ac86020840161395e565b90509250929050565b600060208284031215613ae2578081fd5b5035919050565b600060208284031215613afa578081fd5b5051919050565b60008060408385031215613b13578182fd5b50508035926020909101359150565b600080600060608486031215613b36578283fd5b83359250602084013591506040840135613b4f81613ff0565b809150509250925092565b600080600060608486031215613b6e578283fd5b505081359360208301359350604090920135919050565b60008060008060808587031215613b9a578081fd5b8435935060208501359250604085013591506060850135613bba81613ff0565b939692955090935050565b73ffffffffffffffffffffffffffffffffffffffff91909116815260200190565b73ffffffffffffffffffffffffffffffffffffffff9384168152919092166020820152604081019190915260600190565b901515815260200190565b6020808252601e908201527f4554487478414d4d3a20616d6f756e74496e2065786365656473206d61780000604082015260600190565b6020808252601e908201527f4554487478414d4d3a2063616e6e6f74207265636f7665722045544874780000604082015260600190565b6020808252601f908201527f4554487478414d4d3a20676173207072696365206973206f7574646174656400604082015260600190565b6020808252818101527f4554487478414d4d3a206761734f7261636c65207a65726f2061646472657373604082015260600190565b60208082526028908201527f4554487478414d4d3a2074617267657443526174696f206e756d657261746f7260408201527f206973207a65726f000000000000000000000000000000000000000000000000606082015260800190565b6020808252601d908201527f4554487478414d4d3a20616d6f756e744f75742062656c6f77206d696e000000604082015260600190565b60208082526024908201527f4554487478414d4d3a206e6f7420656e6f75676820455448747820617661696c60408201527f61626c6500000000000000000000000000000000000000000000000000000000606082015260800190565b6020808252601b908201527f4554487478414d4d3a2057455448207a65726f20616464726573730000000000604082015260600190565b6020808252602a908201527f4554487478414d4d3a2074617267657443526174696f2064656e6f6d696e617460408201527f6f72206973207a65726f00000000000000000000000000000000000000000000606082015260800190565b6020808252601c908201527f4554487478414d4d3a204554487478207a65726f206164647265737300000000604082015260600190565b6020808252601d908201527f4554487478414d4d3a2063616e6e6f74207265636f7665722057455448000000604082015260600190565b6020808252601a908201527f4554487478414d4d3a2063616e6e6f742073776170207a65726f000000000000604082015260600190565b6020808252601a908201527f4554487478414d4d3a206761735072696365206973207a65726f000000000000604082015260600190565b60208082526011908201527f4554487478414d4d3a2065787069726564000000000000000000000000000000604082015260600190565b6fffffffffffffffffffffffffffffffff92831681529116602082015260400190565b90815260200190565b918252602082015260400190565b73ffffffffffffffffffffffffffffffffffffffff8116811461106157600080fd5b801515811461106157600080fdfe4f776e61626c653a206e6577206f776e657220697320746865207a65726f2061646472657373416464726573733a20756e61626c6520746f2073656e642076616c75652c20726563697069656e74206d61792068617665207265766572746564496e697469616c697a61626c653a20636f6e747261637420697320616c726561647920696e697469616c697a6564536166654d6174683a206d756c7469706c69636174696f6e206f766572666c6f775361666545524332303a204552433230206f7065726174696f6e20646964206e6f742073756363656564a2646970667358221220a7763016e67b45b67722e8d91788e4a327dc51e79d73ae5e1df81ef40497853464736f6c63430007060033496e697469616c697a61626c653a20636f6e747261637420697320616c726561647920696e697469616c697a6564",
  "devdoc": {
    "kind": "dev",
    "methods": {
      "owner()": {
        "details": "Returns the address of the current owner."
      },
      "paused()": {
        "details": "Returns true if the contract is paused, and false otherwise."
      },
      "renounceOwnership()": {
        "details": "Leaves the contract without owner. It will not be possible to call `onlyOwner` functions anymore. Can only be called by the current owner. NOTE: Renouncing ownership will leave the contract without an owner, thereby removing any functionality that is only available to the owner."
      },
      "transferOwnership(address)": {
        "details": "Transfers ownership of the contract to a new account (`newOwner`). Can only be called by the current owner."
      }
    },
    "version": 1
  },
  "userdoc": {
    "kind": "user",
    "methods": {},
    "version": 1
  },
  "storageLayout": {
    "storage": [
      {
        "astId": 6,
        "contract": "contracts/exchanges/ETHtxAMM/ETHtxAMM.sol:ETHtxAMM",
        "label": "_initialized",
        "offset": 0,
        "slot": "0",
        "type": "t_bool"
      },
      {
        "astId": 9,
        "contract": "contracts/exchanges/ETHtxAMM/ETHtxAMM.sol:ETHtxAMM",
        "label": "_initializing",
        "offset": 1,
        "slot": "0",
        "type": "t_bool"
      },
      {
        "astId": 353,
        "contract": "contracts/exchanges/ETHtxAMM/ETHtxAMM.sol:ETHtxAMM",
        "label": "__gap",
        "offset": 0,
        "slot": "1",
        "type": "t_array(t_uint256)50_storage"
      },
      {
        "astId": 3458,
        "contract": "contracts/exchanges/ETHtxAMM/ETHtxAMM.sol:ETHtxAMM",
        "label": "_owner",
        "offset": 0,
        "slot": "51",
        "type": "t_address"
      },
      {
        "astId": 3577,
        "contract": "contracts/exchanges/ETHtxAMM/ETHtxAMM.sol:ETHtxAMM",
        "label": "__gap",
        "offset": 0,
        "slot": "52",
        "type": "t_array(t_uint256)49_storage"
      },
      {
        "astId": 375,
        "contract": "contracts/exchanges/ETHtxAMM/ETHtxAMM.sol:ETHtxAMM",
        "label": "_paused",
        "offset": 0,
        "slot": "101",
        "type": "t_bool"
      },
      {
        "astId": 466,
        "contract": "contracts/exchanges/ETHtxAMM/ETHtxAMM.sol:ETHtxAMM",
        "label": "__gap",
        "offset": 0,
        "slot": "102",
        "type": "t_array(t_uint256)49_storage"
      },
      {
        "astId": 7066,
        "contract": "contracts/exchanges/ETHtxAMM/ETHtxAMM.sol:ETHtxAMM",
        "label": "_gasOracle",
        "offset": 0,
        "slot": "151",
        "type": "t_address"
      },
      {
        "astId": 7068,
        "contract": "contracts/exchanges/ETHtxAMM/ETHtxAMM.sol:ETHtxAMM",
        "label": "_targetCRatioNum",
        "offset": 0,
        "slot": "152",
        "type": "t_uint128"
      },
      {
        "astId": 7070,
        "contract": "contracts/exchanges/ETHtxAMM/ETHtxAMM.sol:ETHtxAMM",
        "label": "_targetCRatioDen",
        "offset": 16,
        "slot": "152",
        "type": "t_uint128"
      },
      {
        "astId": 7072,
        "contract": "contracts/exchanges/ETHtxAMM/ETHtxAMM.sol:ETHtxAMM",
        "label": "_ethtx",
        "offset": 0,
        "slot": "153",
        "type": "t_address"
      },
      {
        "astId": 7074,
        "contract": "contracts/exchanges/ETHtxAMM/ETHtxAMM.sol:ETHtxAMM",
        "label": "_weth",
        "offset": 0,
        "slot": "154",
        "type": "t_address"
      },
      {
        "astId": 7078,
        "contract": "contracts/exchanges/ETHtxAMM/ETHtxAMM.sol:ETHtxAMM",
        "label": "__gap",
        "offset": 0,
        "slot": "155",
        "type": "t_array(t_uint256)46_storage"
      }
    ],
    "types": {
      "t_address": {
        "encoding": "inplace",
        "label": "address",
        "numberOfBytes": "20"
      },
      "t_array(t_uint256)46_storage": {
        "base": "t_uint256",
        "encoding": "inplace",
        "label": "uint256[46]",
        "numberOfBytes": "1472"
      },
      "t_array(t_uint256)49_storage": {
        "base": "t_uint256",
        "encoding": "inplace",
        "label": "uint256[49]",
        "numberOfBytes": "1568"
      },
      "t_array(t_uint256)50_storage": {
        "base": "t_uint256",
        "encoding": "inplace",
        "label": "uint256[50]",
        "numberOfBytes": "1600"
      },
      "t_bool": {
        "encoding": "inplace",
        "label": "bool",
        "numberOfBytes": "1"
      },
      "t_uint128": {
        "encoding": "inplace",
        "label": "uint128",
        "numberOfBytes": "16"
      },
      "t_uint256": {
        "encoding": "inplace",
        "label": "uint256",
        "numberOfBytes": "32"
      }
    }
  }
}