{
  "address": "0xdACbda76132349024815760400Fb28d32fCB315a",
  "abi": [
    {
      "inputs": [
        {
          "internalType": "address",
          "name": "owner_",
          "type": "address"
        }
      ],
      "stateMutability": "nonpayable",
      "type": "constructor"
    },
    {
      "anonymous": false,
      "inputs": [
        {
          "indexed": true,
          "internalType": "address",
          "name": "owner",
          "type": "address"
        },
        {
          "indexed": true,
          "internalType": "address",
          "name": "spender",
          "type": "address"
        },
        {
          "indexed": false,
          "internalType": "uint256",
          "name": "value",
          "type": "uint256"
        }
      ],
      "name": "Approval",
      "type": "event"
    },
    {
      "anonymous": false,
      "inputs": [
        {
          "indexed": true,
          "internalType": "address",
          "name": "authoer",
          "type": "address"
        }
      ],
      "name": "Destroyed",
      "type": "event"
    },
    {
      "anonymous": false,
      "inputs": [
        {
          "indexed": false,
          "internalType": "address",
          "name": "account",
          "type": "address"
        }
      ],
      "name": "Paused",
      "type": "event"
    },
    {
      "anonymous": false,
      "inputs": [
        {
          "indexed": true,
          "internalType": "bytes32",
          "name": "role",
          "type": "bytes32"
        },
        {
          "indexed": true,
          "internalType": "bytes32",
          "name": "previousAdminRole",
          "type": "bytes32"
        },
        {
          "indexed": true,
          "internalType": "bytes32",
          "name": "newAdminRole",
          "type": "bytes32"
        }
      ],
      "name": "RoleAdminChanged",
      "type": "event"
    },
    {
      "anonymous": false,
      "inputs": [
        {
          "indexed": true,
          "internalType": "bytes32",
          "name": "role",
          "type": "bytes32"
        },
        {
          "indexed": true,
          "internalType": "address",
          "name": "account",
          "type": "address"
        },
        {
          "indexed": true,
          "internalType": "address",
          "name": "sender",
          "type": "address"
        }
      ],
      "name": "RoleGranted",
      "type": "event"
    },
    {
      "anonymous": false,
      "inputs": [
        {
          "indexed": true,
          "internalType": "bytes32",
          "name": "role",
          "type": "bytes32"
        },
        {
          "indexed": true,
          "internalType": "address",
          "name": "account",
          "type": "address"
        },
        {
          "indexed": true,
          "internalType": "address",
          "name": "sender",
          "type": "address"
        }
      ],
      "name": "RoleRevoked",
      "type": "event"
    },
    {
      "anonymous": false,
      "inputs": [
        {
          "indexed": true,
          "internalType": "address",
          "name": "from",
          "type": "address"
        },
        {
          "indexed": true,
          "internalType": "address",
          "name": "to",
          "type": "address"
        },
        {
          "indexed": false,
          "internalType": "uint256",
          "name": "value",
          "type": "uint256"
        }
      ],
      "name": "Transfer",
      "type": "event"
    },
    {
      "anonymous": false,
      "inputs": [
        {
          "indexed": false,
          "internalType": "address",
          "name": "account",
          "type": "address"
        }
      ],
      "name": "Unpaused",
      "type": "event"
    },
    {
      "inputs": [],
      "name": "DEFAULT_ADMIN_ROLE",
      "outputs": [
        {
          "internalType": "bytes32",
          "name": "",
          "type": "bytes32"
        }
      ],
      "stateMutability": "view",
      "type": "function"
    },
    {
      "inputs": [],
      "name": "MINTER_ROLE",
      "outputs": [
        {
          "internalType": "bytes32",
          "name": "",
          "type": "bytes32"
        }
      ],
      "stateMutability": "view",
      "type": "function"
    },
    {
      "inputs": [],
      "name": "REBASER_ROLE",
      "outputs": [
        {
          "internalType": "bytes32",
          "name": "",
          "type": "bytes32"
        }
      ],
      "stateMutability": "view",
      "type": "function"
    },
    {
      "inputs": [
        {
          "internalType": "address",
          "name": "owner",
          "type": "address"
        },
        {
          "internalType": "address",
          "name": "spender",
          "type": "address"
        }
      ],
      "name": "allowance",
      "outputs": [
        {
          "internalType": "uint256",
          "name": "",
          "type": "uint256"
        }
      ],
      "stateMutability": "view",
      "type": "function"
    },
    {
      "inputs": [
        {
          "internalType": "address",
          "name": "spender",
          "type": "address"
        },
        {
          "internalType": "uint256",
          "name": "amount",
          "type": "uint256"
        }
      ],
      "name": "approve",
      "outputs": [
        {
          "internalType": "bool",
          "name": "",
          "type": "bool"
        }
      ],
      "stateMutability": "nonpayable",
      "type": "function"
    },
    {
      "inputs": [
        {
          "internalType": "address",
          "name": "",
          "type": "address"
        }
      ],
      "name": "balanceOf",
      "outputs": [
        {
          "internalType": "uint256",
          "name": "",
          "type": "uint256"
        }
      ],
      "stateMutability": "view",
      "type": "function"
    },
    {
      "inputs": [
        {
          "internalType": "uint256",
          "name": "amount",
          "type": "uint256"
        }
      ],
      "name": "burn",
      "outputs": [],
      "stateMutability": "nonpayable",
      "type": "function"
    },
    {
      "inputs": [],
      "name": "decimals",
      "outputs": [
        {
          "internalType": "uint8",
          "name": "",
          "type": "uint8"
        }
      ],
      "stateMutability": "view",
      "type": "function"
    },
    {
      "inputs": [
        {
          "internalType": "address",
          "name": "spender",
          "type": "address"
        },
        {
          "internalType": "uint256",
          "name": "subtractedValue",
          "type": "uint256"
        }
      ],
      "name": "decreaseAllowance",
      "outputs": [
        {
          "internalType": "bool",
          "name": "",
          "type": "bool"
        }
      ],
      "stateMutability": "nonpayable",
      "type": "function"
    },
    {
      "inputs": [],
      "name": "destroy",
      "outputs": [],
      "stateMutability": "nonpayable",
      "type": "function"
    },
    {
      "inputs": [
        {
          "internalType": "bytes32",
          "name": "role",
          "type": "bytes32"
        }
      ],
      "name": "getRoleAdmin",
      "outputs": [
        {
          "internalType": "bytes32",
          "name": "",
          "type": "bytes32"
        }
      ],
      "stateMutability": "view",
      "type": "function"
    },
    {
      "inputs": [
        {
          "internalType": "bytes32",
          "name": "role",
          "type": "bytes32"
        },
        {
          "internalType": "address",
          "name": "account",
          "type": "address"
        }
      ],
      "name": "grantRole",
      "outputs": [],
      "stateMutability": "nonpayable",
      "type": "function"
    },
    {
      "inputs": [
        {
          "internalType": "bytes32",
          "name": "role",
          "type": "bytes32"
        },
        {
          "internalType": "address",
          "name": "account",
          "type": "address"
        }
      ],
      "name": "hasRole",
      "outputs": [
        {
          "internalType": "bool",
          "name": "",
          "type": "bool"
        }
      ],
      "stateMutability": "view",
      "type": "function"
    },
    {
      "inputs": [
        {
          "internalType": "address",
          "name": "spender",
          "type": "address"
        },
        {
          "internalType": "uint256",
          "name": "addedValue",
          "type": "uint256"
        }
      ],
      "name": "increaseAllowance",
      "outputs": [
        {
          "internalType": "bool",
          "name": "",
          "type": "bool"
        }
      ],
      "stateMutability": "nonpayable",
      "type": "function"
    },
    {
      "inputs": [
        {
          "internalType": "address",
          "name": "owner_",
          "type": "address"
        }
      ],
      "name": "init",
      "outputs": [],
      "stateMutability": "nonpayable",
      "type": "function"
    },
    {
      "inputs": [],
      "name": "name",
      "outputs": [
        {
          "internalType": "string",
          "name": "",
          "type": "string"
        }
      ],
      "stateMutability": "view",
      "type": "function"
    },
    {
      "inputs": [],
      "name": "pause",
      "outputs": [],
      "stateMutability": "nonpayable",
      "type": "function"
    },
    {
      "inputs": [],
      "name": "paused",
      "outputs": [
        {
          "internalType": "bool",
          "name": "",
          "type": "bool"
        }
      ],
      "stateMutability": "view",
      "type": "function"
    },
    {
      "inputs": [
        {
          "internalType": "bytes32",
          "name": "role",
          "type": "bytes32"
        },
        {
          "internalType": "address",
          "name": "account",
          "type": "address"
        }
      ],
      "name": "renounceRole",
      "outputs": [],
      "stateMutability": "nonpayable",
      "type": "function"
    },
    {
      "inputs": [
        {
          "internalType": "bytes32",
          "name": "role",
          "type": "bytes32"
        },
        {
          "internalType": "address",
          "name": "account",
          "type": "address"
        }
      ],
      "name": "revokeRole",
      "outputs": [],
      "stateMutability": "nonpayable",
      "type": "function"
    },
    {
      "inputs": [],
      "name": "symbol",
      "outputs": [
        {
          "internalType": "string",
          "name": "",
          "type": "string"
        }
      ],
      "stateMutability": "view",
      "type": "function"
    },
    {
      "inputs": [],
      "name": "totalSupply",
      "outputs": [
        {
          "internalType": "uint256",
          "name": "",
          "type": "uint256"
        }
      ],
      "stateMutability": "view",
      "type": "function"
    },
    {
      "inputs": [
        {
          "internalType": "address",
          "name": "recipient",
          "type": "address"
        },
        {
          "internalType": "uint256",
          "name": "amount",
          "type": "uint256"
        }
      ],
      "name": "transfer",
      "outputs": [
        {
          "internalType": "bool",
          "name": "",
          "type": "bool"
        }
      ],
      "stateMutability": "nonpayable",
      "type": "function"
    },
    {
      "inputs": [
        {
          "internalType": "address",
          "name": "sender",
          "type": "address"
        },
        {
          "internalType": "address",
          "name": "recipient",
          "type": "address"
        },
        {
          "internalType": "uint256",
          "name": "amount",
          "type": "uint256"
        }
      ],
      "name": "transferFrom",
      "outputs": [
        {
          "internalType": "bool",
          "name": "",
          "type": "bool"
        }
      ],
      "stateMutability": "nonpayable",
      "type": "function"
    },
    {
      "inputs": [],
      "name": "unpause",
      "outputs": [],
      "stateMutability": "nonpayable",
      "type": "function"
    }
  ],
  "args": [
    "0x5757Dd711EaE80e181E07CdbCe43359Ac1048394"
  ],
  "solcInputHash": "d27797240f5016851e9bd8344fe7991a",
  "bytecode": "0x60806040523480156200001157600080fd5b5060405162001ff938038062001ff983398101604081905262000034916200035a565b6200003f8162000046565b506200038a565b600054610100900460ff16806200006257506200006262000112565b8062000071575060005460ff16155b620000ae5760405162461bcd60e51b815260040180806020018281038252602e81526020018062001fcb602e913960400191505060405180910390fd5b600054610100900460ff16158015620000da576000805460ff1961ff0019909116610100171660011790555b620000e462000130565b620000ee620001da565b620000fb6000836200028d565b80156200010e576000805461ff00191690555b5050565b60006200012a306200029960201b62000c761760201c565b15905090565b600054610100900460ff16806200014c57506200014c62000112565b806200015b575060005460ff16155b620001985760405162461bcd60e51b815260040180806020018281038252602e81526020018062001fcb602e913960400191505060405180910390fd5b600054610100900460ff16158015620001c4576000805460ff1961ff0019909116610100171660011790555b8015620001d7576000805461ff00191690555b50565b600054610100900460ff1680620001f65750620001f662000112565b8062000205575060005460ff16155b620002425760405162461bcd60e51b815260040180806020018281038252602e81526020018062001fcb602e913960400191505060405180910390fd5b600054610100900460ff161580156200026e576000805460ff1961ff0019909116610100171660011790555b6065805460ff191690558015620001d7576000805461ff001916905550565b6200010e82826200029f565b3b151590565b620002ab82826200032b565b6200010e5760008281526034602090815260408083206001600160a01b03851684529091529020805460ff19166001179055620002e762000356565b6001600160a01b0316816001600160a01b0316837f2f8788117e7eff1d82e926ec794901d17c78024a50270940304540a733656f0d60405160405180910390a45050565b60009182526034602090815260408084206001600160a01b0393909316845291905290205460ff1690565b3390565b6000602082840312156200036c578081fd5b81516001600160a01b038116811462000383578182fd5b9392505050565b611c31806200039a6000396000f3fe608060405234801561001057600080fd5b50600436106101a35760003560e01c80635c975abb116100ee57806395d89b4111610097578063a9059cbb11610071578063a9059cbb14610308578063d53913931461031b578063d547741f14610323578063dd62ed3e14610336576101a3565b806395d89b41146102e5578063a217fddf146102ed578063a457c2d7146102f5576101a3565b806383eb70e5116100c857806383eb70e5146102c25780638456cb59146102ca57806391d14854146102d2576101a3565b80635c975abb1461029f57806370a08231146102a757806383197ef0146102ba576101a3565b80632f2ff15d11610150578063395093511161012a57806339509351146102715780633f4ba83a1461028457806342966c681461028c576101a3565b80632f2ff15d14610236578063313ce5671461024957806336568abe1461025e576101a3565b806319ab453c1161018157806319ab453c146101fb57806323b872dd14610210578063248a9ca314610223576101a3565b806306fdde03146101a8578063095ea7b3146101c657806318160ddd146101e6575b600080fd5b6101b0610349565b6040516101bd91906118b5565b60405180910390f35b6101d96101d436600461183e565b610380565b6040516101bd91906118a1565b6101ee61039d565b6040516101bd91906118ac565b61020e6102093660046117b7565b6103a2565b005b6101d961021e366004611803565b6104d2565b6101ee610231366004611867565b610573565b61020e61024436600461187f565b61058b565b61025161061a565b6040516101bd9190611af7565b61020e61026c36600461187f565b61061f565b6101d961027f36600461183e565b6106b4565b61020e61070f565b61020e61029a366004611867565b610806565b6101d961088b565b6101ee6102b53660046117b7565b610894565b61020e61089a565b6101ee61097a565b61020e61099e565b6101d96102e036600461187f565b610a93565b6101b0610acb565b6101ee610b02565b6101d961030336600461183e565b610b07565b6101d961031636600461183e565b610b7c565b6101ee610b90565b61020e61033136600461187f565b610bb4565b6101ee6103443660046117d1565b610c3e565b60408051808201909152601481527f457468657265756d205472616e73616374696f6e000000000000000000000000602082015290565b600061039461038d610c7c565b8484610c80565b50600192915050565b600090565b600054610100900460ff16806103bb57506103bb610d98565b806103c9575060005460ff16155b61041e576040517f08c379a000000000000000000000000000000000000000000000000000000000815260040180806020018281038252602e815260200180611b7b602e913960400191505060405180910390fd5b600054610100900460ff1615801561048457600080547fffffffffffffffffffffffffffffffffffffffffffffffffffffffffffffff007fffffffffffffffffffffffffffffffffffffffffffffffffffffffffffff00ff909116610100171660011790555b61048c610da9565b610494610ebc565b61049f600083610ff7565b80156104ce57600080547fffffffffffffffffffffffffffffffffffffffffffffffffffffffffffff00ff1690555b5050565b60006104df848484611001565b610569846104eb610c7c565b610564856040518060600160405280602d8152602001611b28602d913973ffffffffffffffffffffffffffffffffffffffff8a16600090815260986020526040812090610536610c7c565b73ffffffffffffffffffffffffffffffffffffffff1681526020810191909152604001600020549190611180565b610c80565b5060019392505050565b6000818152603460205260409020600101545b919050565b61059482610573565b6105a0816102e0610c7c565b61060b57604080517f08c379a000000000000000000000000000000000000000000000000000000000815260206004820152601c60248201527f416363657373436f6e74726f6c3a206163636573732064656e69656400000000604482015290519081900360640190fd5b6106158383611231565b505050565b601290565b610627610c7c565b73ffffffffffffffffffffffffffffffffffffffff168173ffffffffffffffffffffffffffffffffffffffff16146106aa576040517f08c379a000000000000000000000000000000000000000000000000000000000815260040180806020018281038252602f815260200180611bcd602f913960400191505060405180910390fd5b6104ce82826112fd565b60006103946106c1610c7c565b8461056485609860006106d2610c7c565b73ffffffffffffffffffffffffffffffffffffffff908116825260208083019390935260409182016000908120918c1681529252902054906113c7565b600061071d816102e0610c7c565b61078857604080517f08c379a000000000000000000000000000000000000000000000000000000000815260206004820152601c60248201527f416363657373436f6e74726f6c3a206163636573732064656e69656400000000604482015290519081900360640190fd5b61079061088b565b6107fb57604080517f08c379a000000000000000000000000000000000000000000000000000000000815260206004820152601460248201527f5061757361626c653a206e6f7420706175736564000000000000000000000000604482015290519081900360640190fd5b610803611442565b50565b61080e61088b565b1561087a57604080517f08c379a000000000000000000000000000000000000000000000000000000000815260206004820152601060248201527f5061757361626c653a2070617573656400000000000000000000000000000000604482015290519081900360640190fd5b610803610885610c7c565b82611530565b60655460ff1690565b50600090565b60006108a8816102e0610c7c565b61091357604080517f08c379a000000000000000000000000000000000000000000000000000000000815260206004820152601c60248201527f416363657373436f6e74726f6c3a206163636573732064656e69656400000000604482015290519081900360640190fd5b600061091d610c7c565b60405190915073ffffffffffffffffffffffffffffffffffffffff8216907f7dec311f70bce33f6997a1cc140bcb6149f9ee83d6be656e848b00d170c9820090600090a28073ffffffffffffffffffffffffffffffffffffffff16ff5b7f5fde63b561377d1441afa201ff619faac2ff8fed70a7fbdbe7a5cb07768c0b7581565b60006109ac816102e0610c7c565b610a1757604080517f08c379a000000000000000000000000000000000000000000000000000000000815260206004820152601c60248201527f416363657373436f6e74726f6c3a206163636573732064656e69656400000000604482015290519081900360640190fd5b610a1f61088b565b15610a8b57604080517f08c379a000000000000000000000000000000000000000000000000000000000815260206004820152601060248201527f5061757361626c653a2070617573656400000000000000000000000000000000604482015290519081900360640190fd5b610803611654565b600091825260346020908152604080842073ffffffffffffffffffffffffffffffffffffffff93909316845291905290205460ff1690565b60408051808201909152600581527f4554487478000000000000000000000000000000000000000000000000000000602082015290565b600081565b6000610394610b14610c7c565b8461056485604051806060016040528060248152602001611ba96024913960986000610b3e610c7c565b73ffffffffffffffffffffffffffffffffffffffff908116825260208083019390935260409182016000908120918d16815292529020549190611180565b6000610394610b89610c7c565b8484611001565b7f9f2df0fed2c77648de5860a4cc508cd0818c85b8b8a1ab4ceeef8d981c8956a681565b610bbd82610573565b610bc9816102e0610c7c565b610c3457604080517f08c379a000000000000000000000000000000000000000000000000000000000815260206004820152601c60248201527f416363657373436f6e74726f6c3a206163636573732064656e69656400000000604482015290519081900360640190fd5b61061583836112fd565b73ffffffffffffffffffffffffffffffffffffffff918216600090815260986020908152604080832093909416825291909152205490565b3b151590565b3390565b73ffffffffffffffffffffffffffffffffffffffff8316610cd6576040517f08c379a0000000000000000000000000000000000000000000000000000000008152600401610ccd90611983565b60405180910390fd5b73ffffffffffffffffffffffffffffffffffffffff8216610d23576040517f08c379a0000000000000000000000000000000000000000000000000000000008152600401610ccd906119e0565b73ffffffffffffffffffffffffffffffffffffffff80841660008181526098602090815260408083209487168084529490915290819020849055517f8c5be1e5ebec7d5bd14f71427d1e84f3dd0314c0f7b2291e5b200ac8c7c3b92590610d8b9085906118ac565b60405180910390a3505050565b6000610da330610c76565b15905090565b600054610100900460ff1680610dc25750610dc2610d98565b80610dd0575060005460ff16155b610e25576040517f08c379a000000000000000000000000000000000000000000000000000000000815260040180806020018281038252602e815260200180611b7b602e913960400191505060405180910390fd5b600054610100900460ff16158015610e8b57600080547fffffffffffffffffffffffffffffffffffffffffffffffffffffffffffffff007fffffffffffffffffffffffffffffffffffffffffffffffffffffffffffff00ff909116610100171660011790555b801561080357600080547fffffffffffffffffffffffffffffffffffffffffffffffffffffffffffff00ff16905550565b600054610100900460ff1680610ed55750610ed5610d98565b80610ee3575060005460ff16155b610f38576040517f08c379a000000000000000000000000000000000000000000000000000000000815260040180806020018281038252602e815260200180611b7b602e913960400191505060405180910390fd5b600054610100900460ff16158015610f9e57600080547fffffffffffffffffffffffffffffffffffffffffffffffffffffffffffffff007fffffffffffffffffffffffffffffffffffffffffffffffffffffffffffff00ff909116610100171660011790555b606580547fffffffffffffffffffffffffffffffffffffffffffffffffffffffffffffff00169055801561080357600080547fffffffffffffffffffffffffffffffffffffffffffffffffffffffffffff00ff16905550565b6104ce8282611231565b73ffffffffffffffffffffffffffffffffffffffff831661104e576040517f08c379a0000000000000000000000000000000000000000000000000000000008152600401610ccd90611a9a565b73ffffffffffffffffffffffffffffffffffffffff821661109b576040517f08c379a0000000000000000000000000000000000000000000000000000000008152600401610ccd90611926565b6110e581604051806060016040528060268152602001611b556026913973ffffffffffffffffffffffffffffffffffffffff86166000908152609760205260409020549190611180565b73ffffffffffffffffffffffffffffffffffffffff808516600090815260976020526040808220939093559084168152205461112190826113c7565b73ffffffffffffffffffffffffffffffffffffffff80841660008181526097602052604090819020939093559151908516907fddf252ad1be2c89b69c2b068fc378daa952ba7f163c4a11628f55a4df523b3ef90610d8b9085906118ac565b60008184841115611229576040517f08c379a00000000000000000000000000000000000000000000000000000000081526004018080602001828103825283818151815260200191508051906020019080838360005b838110156111ee5781810151838201526020016111d6565b50505050905090810190601f16801561121b5780820380516001836020036101000a031916815260200191505b509250505060405180910390fd5b505050900390565b61123b8282610a93565b6104ce57600082815260346020908152604080832073ffffffffffffffffffffffffffffffffffffffff85168452909152902080547fffffffffffffffffffffffffffffffffffffffffffffffffffffffffffffff0016600117905561129f610c7c565b73ffffffffffffffffffffffffffffffffffffffff168173ffffffffffffffffffffffffffffffffffffffff16837f2f8788117e7eff1d82e926ec794901d17c78024a50270940304540a733656f0d60405160405180910390a45050565b6113078282610a93565b156104ce57600082815260346020908152604080832073ffffffffffffffffffffffffffffffffffffffff85168452909152902080547fffffffffffffffffffffffffffffffffffffffffffffffffffffffffffffff00169055611369610c7c565b73ffffffffffffffffffffffffffffffffffffffff168173ffffffffffffffffffffffffffffffffffffffff16837ff6391f5c32d9c69d2a47ea670b442974b53935d1edc7fd64eb21e047a839171b60405160405180910390a45050565b60008282018381101561143b57604080517f08c379a000000000000000000000000000000000000000000000000000000000815260206004820152601b60248201527f536166654d6174683a206164646974696f6e206f766572666c6f770000000000604482015290519081900360640190fd5b9392505050565b61144a61088b565b6114b557604080517f08c379a000000000000000000000000000000000000000000000000000000000815260206004820152601460248201527f5061757361626c653a206e6f7420706175736564000000000000000000000000604482015290519081900360640190fd5b606580547fffffffffffffffffffffffffffffffffffffffffffffffffffffffffffffff001690557f5db9ee0a495bf2e6ff9c91a7834c1ba4fdd244a5e8aa4e537bd38aeae4b073aa611506610c7c565b6040805173ffffffffffffffffffffffffffffffffffffffff9092168252519081900360200190a1565b73ffffffffffffffffffffffffffffffffffffffff821661157d576040517f08c379a0000000000000000000000000000000000000000000000000000000008152600401610ccd90611a3d565b6115c781604051806060016040528060228152602001611b066022913973ffffffffffffffffffffffffffffffffffffffff85166000908152609760205260409020549190611180565b73ffffffffffffffffffffffffffffffffffffffff83166000908152609760205260409020556099546115fa908261171c565b60995560405160009073ffffffffffffffffffffffffffffffffffffffff8416907fddf252ad1be2c89b69c2b068fc378daa952ba7f163c4a11628f55a4df523b3ef906116489085906118ac565b60405180910390a35050565b61165c61088b565b156116c857604080517f08c379a000000000000000000000000000000000000000000000000000000000815260206004820152601060248201527f5061757361626c653a2070617573656400000000000000000000000000000000604482015290519081900360640190fd5b606580547fffffffffffffffffffffffffffffffffffffffffffffffffffffffffffffff001660011790557f62e78cea01bee320cd4e420270b5ea74000d11b0c9f74754ebdbfc544b05a258611506610c7c565b60008282111561178d57604080517f08c379a000000000000000000000000000000000000000000000000000000000815260206004820152601e60248201527f536166654d6174683a207375627472616374696f6e206f766572666c6f770000604482015290519081900360640190fd5b50900390565b803573ffffffffffffffffffffffffffffffffffffffff8116811461058657600080fd5b6000602082840312156117c8578081fd5b61143b82611793565b600080604083850312156117e3578081fd5b6117ec83611793565b91506117fa60208401611793565b90509250929050565b600080600060608486031215611817578081fd5b61182084611793565b925061182e60208501611793565b9150604084013590509250925092565b60008060408385031215611850578182fd5b61185983611793565b946020939093013593505050565b600060208284031215611878578081fd5b5035919050565b60008060408385031215611891578182fd5b823591506117fa60208401611793565b901515815260200190565b90815260200190565b6000602080835283518082850152825b818110156118e1578581018301518582016040015282016118c5565b818111156118f25783604083870101525b50601f017fffffffffffffffffffffffffffffffffffffffffffffffffffffffffffffffe016929092016040019392505050565b60208082526023908201527f45524332303a207472616e7366657220746f20746865207a65726f206164647260408201527f6573730000000000000000000000000000000000000000000000000000000000606082015260800190565b60208082526026908201527f45544874783a3a5f617070726f76653a2066726f6d20746865207a65726f206160408201527f6464726573730000000000000000000000000000000000000000000000000000606082015260800190565b60208082526024908201527f45544874783a3a5f617070726f76653a20746f20746865207a65726f2061646460408201527f7265737300000000000000000000000000000000000000000000000000000000606082015260800190565b60208082526021908201527f45524332303a206275726e2066726f6d20746865207a65726f2061646472657360408201527f7300000000000000000000000000000000000000000000000000000000000000606082015260800190565b60208082526025908201527f45524332303a207472616e736665722066726f6d20746865207a65726f20616460408201527f6472657373000000000000000000000000000000000000000000000000000000606082015260800190565b60ff9190911681526020019056fe45524332303a206275726e20616d6f756e7420657863656564732062616c616e636545544874783a3a7472616e7366657246726f6d3a20616d6f756e74206578636565647320616c6c6f77616e636545524332303a207472616e7366657220616d6f756e7420657863656564732062616c616e6365496e697469616c697a61626c653a20636f6e747261637420697320616c726561647920696e697469616c697a656445544874783a3a6465637265617365416c6c6f77616e63653a2062656c6f77207a65726f416363657373436f6e74726f6c3a2063616e206f6e6c792072656e6f756e636520726f6c657320666f722073656c66a26469706673582212200dacf137ee15e1cec608b18ee46a27ad6d9eaeaaae3b94931991851ad76f018c64736f6c63430007060033496e697469616c697a61626c653a20636f6e747261637420697320616c726561647920696e697469616c697a6564",
  "devdoc": {
    "kind": "dev",
    "methods": {
      "allowance(address,address)": {
        "details": "Returns the remaining number of tokens that `spender` will be allowed to spend on behalf of `owner` through {transferFrom}. This is zero by default. This value changes when {approve} or {transferFrom} are called."
      },
      "approve(address,uint256)": {
        "details": "Sets `amount` as the allowance of `spender` over the caller's tokens. Returns a boolean value indicating whether the operation succeeded. IMPORTANT: Beware that changing an allowance with this method brings the risk that someone may use both the old and the new allowance by unfortunate transaction ordering. One possible solution to mitigate this race condition is to first reduce the spender's allowance to 0 and set the desired value afterwards: https://github.com/ethereum/EIPs/issues/20#issuecomment-263524729 Emits an {Approval} event."
      },
      "decimals()": {
        "details": "Returns the decimals places of the token."
      },
      "name()": {
        "details": "Returns the name of the token."
      },
      "paused()": {
        "details": "Returns true if the contract is paused, and false otherwise."
      },
      "symbol()": {
        "details": "Returns the symbol of the token."
      },
      "totalSupply()": {
        "details": "Returns the amount of tokens in existence."
      },
      "transfer(address,uint256)": {
        "details": "Moves `amount` tokens from the caller's account to `recipient`. Returns a boolean value indicating whether the operation succeeded. Emits a {Transfer} event."
      },
      "transferFrom(address,address,uint256)": {
        "details": "Moves `amount` tokens from `sender` to `recipient` using the allowance mechanism. `amount` is then deducted from the caller's allowance. Returns a boolean value indicating whether the operation succeeded. Emits a {Transfer} event."
      }
    },
    "version": 1
  },
  "userdoc": {
    "kind": "user",
    "methods": {},
    "version": 1
  },
  "storageLayout": {
    "storage": [
      {
        "astId": 6,
        "contract": "contracts/tokens/ETHtx/ETHtx.sol:ETHtx",
        "label": "_initialized",
        "offset": 0,
        "slot": "0",
        "type": "t_bool"
      },
      {
        "astId": 9,
        "contract": "contracts/tokens/ETHtx/ETHtx.sol:ETHtx",
        "label": "_initializing",
        "offset": 1,
        "slot": "0",
        "type": "t_bool"
      },
      {
        "astId": 353,
        "contract": "contracts/tokens/ETHtx/ETHtx.sol:ETHtx",
        "label": "__gap",
        "offset": 0,
        "slot": "1",
        "type": "t_array(t_uint256)50_storage"
      },
      {
        "astId": 4317,
        "contract": "contracts/tokens/ETHtx/ETHtx.sol:ETHtx",
        "label": "_ownerDeprecated",
        "offset": 0,
        "slot": "51",
        "type": "t_address"
      },
      {
        "astId": 4321,
        "contract": "contracts/tokens/ETHtx/ETHtx.sol:ETHtx",
        "label": "_roles",
        "offset": 0,
        "slot": "52",
        "type": "t_mapping(t_bytes32,t_struct(RoleData)4315_storage)"
      },
      {
        "astId": 4325,
        "contract": "contracts/tokens/ETHtx/ETHtx.sol:ETHtx",
        "label": "__gap",
        "offset": 0,
        "slot": "53",
        "type": "t_array(t_uint256)48_storage"
      },
      {
        "astId": 375,
        "contract": "contracts/tokens/ETHtx/ETHtx.sol:ETHtx",
        "label": "_paused",
        "offset": 0,
        "slot": "101",
        "type": "t_bool"
      },
      {
        "astId": 466,
        "contract": "contracts/tokens/ETHtx/ETHtx.sol:ETHtx",
        "label": "__gap",
        "offset": 0,
        "slot": "102",
        "type": "t_array(t_uint256)49_storage"
      },
      {
        "astId": 26561,
        "contract": "contracts/tokens/ETHtx/ETHtx.sol:ETHtx",
        "label": "_balances",
        "offset": 0,
        "slot": "151",
        "type": "t_mapping(t_address,t_uint256)"
      },
      {
        "astId": 26567,
        "contract": "contracts/tokens/ETHtx/ETHtx.sol:ETHtx",
        "label": "_allowances",
        "offset": 0,
        "slot": "152",
        "type": "t_mapping(t_address,t_mapping(t_address,t_uint256))"
      },
      {
        "astId": 26569,
        "contract": "contracts/tokens/ETHtx/ETHtx.sol:ETHtx",
        "label": "_totalSupply",
        "offset": 0,
        "slot": "153",
        "type": "t_uint256"
      },
      {
        "astId": 26573,
        "contract": "contracts/tokens/ETHtx/ETHtx.sol:ETHtx",
        "label": "__gap",
        "offset": 0,
        "slot": "154",
        "type": "t_array(t_uint256)47_storage"
      },
      {
        "astId": 27226,
        "contract": "contracts/tokens/ETHtx/ETHtx.sol:ETHtx",
        "label": "_feeLogic",
        "offset": 0,
        "slot": "201",
        "type": "t_address"
      },
      {
        "astId": 27230,
        "contract": "contracts/tokens/ETHtx/ETHtx.sol:ETHtx",
        "label": "__gap",
        "offset": 0,
        "slot": "202",
        "type": "t_array(t_uint256)49_storage"
      },
      {
        "astId": 28269,
        "contract": "contracts/tokens/ETHtx/ETHtx.sol:ETHtx",
        "label": "_minterDeprecated",
        "offset": 0,
        "slot": "251",
        "type": "t_address"
      },
      {
        "astId": 28271,
        "contract": "contracts/tokens/ETHtx/ETHtx.sol:ETHtx",
        "label": "_sharesPerToken",
        "offset": 0,
        "slot": "252",
        "type": "t_uint256"
      },
      {
        "astId": 28273,
        "contract": "contracts/tokens/ETHtx/ETHtx.sol:ETHtx",
        "label": "_totalShares",
        "offset": 0,
        "slot": "253",
        "type": "t_uint256"
      },
      {
        "astId": 28275,
        "contract": "contracts/tokens/ETHtx/ETHtx.sol:ETHtx",
        "label": "_lastRebaseTime",
        "offset": 0,
        "slot": "254",
        "type": "t_uint256"
      },
      {
        "astId": 28279,
        "contract": "contracts/tokens/ETHtx/ETHtx.sol:ETHtx",
        "label": "__gap",
        "offset": 0,
        "slot": "255",
        "type": "t_array(t_uint256)46_storage"
      }
    ],
    "types": {
      "t_address": {
        "encoding": "inplace",
        "label": "address",
        "numberOfBytes": "20"
      },
      "t_array(t_uint256)46_storage": {
        "base": "t_uint256",
        "encoding": "inplace",
        "label": "uint256[46]",
        "numberOfBytes": "1472"
      },
      "t_array(t_uint256)47_storage": {
        "base": "t_uint256",
        "encoding": "inplace",
        "label": "uint256[47]",
        "numberOfBytes": "1504"
      },
      "t_array(t_uint256)48_storage": {
        "base": "t_uint256",
        "encoding": "inplace",
        "label": "uint256[48]",
        "numberOfBytes": "1536"
      },
      "t_array(t_uint256)49_storage": {
        "base": "t_uint256",
        "encoding": "inplace",
        "label": "uint256[49]",
        "numberOfBytes": "1568"
      },
      "t_array(t_uint256)50_storage": {
        "base": "t_uint256",
        "encoding": "inplace",
        "label": "uint256[50]",
        "numberOfBytes": "1600"
      },
      "t_bool": {
        "encoding": "inplace",
        "label": "bool",
        "numberOfBytes": "1"
      },
      "t_bytes32": {
        "encoding": "inplace",
        "label": "bytes32",
        "numberOfBytes": "32"
      },
      "t_mapping(t_address,t_bool)": {
        "encoding": "mapping",
        "key": "t_address",
        "label": "mapping(address => bool)",
        "numberOfBytes": "32",
        "value": "t_bool"
      },
      "t_mapping(t_address,t_mapping(t_address,t_uint256))": {
        "encoding": "mapping",
        "key": "t_address",
        "label": "mapping(address => mapping(address => uint256))",
        "numberOfBytes": "32",
        "value": "t_mapping(t_address,t_uint256)"
      },
      "t_mapping(t_address,t_uint256)": {
        "encoding": "mapping",
        "key": "t_address",
        "label": "mapping(address => uint256)",
        "numberOfBytes": "32",
        "value": "t_uint256"
      },
      "t_mapping(t_bytes32,t_struct(RoleData)4315_storage)": {
        "encoding": "mapping",
        "key": "t_bytes32",
        "label": "mapping(bytes32 => struct RbacFromOwnableData.RoleData)",
        "numberOfBytes": "32",
        "value": "t_struct(RoleData)4315_storage"
      },
      "t_struct(RoleData)4315_storage": {
        "encoding": "inplace",
        "label": "struct RbacFromOwnableData.RoleData",
        "members": [
          {
            "astId": 4312,
            "contract": "contracts/tokens/ETHtx/ETHtx.sol:ETHtx",
            "label": "members",
            "offset": 0,
            "slot": "0",
            "type": "t_mapping(t_address,t_bool)"
          },
          {
            "astId": 4314,
            "contract": "contracts/tokens/ETHtx/ETHtx.sol:ETHtx",
            "label": "adminRole",
            "offset": 0,
            "slot": "1",
            "type": "t_bytes32"
          }
        ],
        "numberOfBytes": "64"
      },
      "t_uint256": {
        "encoding": "inplace",
        "label": "uint256",
        "numberOfBytes": "32"
      }
    }
  }
}