{
  "address": "0x534Ac0427F6606EceaaE9a8122Dc64aD9eD5A0b1",
  "abi": [
    {
      "inputs": [
        {
          "internalType": "address",
          "name": "owner_",
          "type": "address"
        }
      ],
      "stateMutability": "nonpayable",
      "type": "constructor"
    },
    {
      "anonymous": false,
      "inputs": [
        {
          "indexed": true,
          "internalType": "address",
          "name": "owner",
          "type": "address"
        },
        {
          "indexed": true,
          "internalType": "address",
          "name": "spender",
          "type": "address"
        },
        {
          "indexed": false,
          "internalType": "uint256",
          "name": "value",
          "type": "uint256"
        }
      ],
      "name": "Approval",
      "type": "event"
    },
    {
      "anonymous": false,
      "inputs": [
        {
          "indexed": true,
          "internalType": "address",
          "name": "author",
          "type": "address"
        },
        {
          "indexed": true,
          "internalType": "address",
          "name": "account",
          "type": "address"
        }
      ],
      "name": "FeeLogicSet",
      "type": "event"
    },
    {
      "anonymous": false,
      "inputs": [
        {
          "indexed": true,
          "internalType": "address",
          "name": "author",
          "type": "address"
        },
        {
          "indexed": true,
          "internalType": "address",
          "name": "account",
          "type": "address"
        }
      ],
      "name": "MinterSet",
      "type": "event"
    },
    {
      "anonymous": false,
      "inputs": [
        {
          "indexed": true,
          "internalType": "address",
          "name": "previousOwner",
          "type": "address"
        },
        {
          "indexed": true,
          "internalType": "address",
          "name": "newOwner",
          "type": "address"
        }
      ],
      "name": "OwnershipTransferred",
      "type": "event"
    },
    {
      "anonymous": false,
      "inputs": [
        {
          "indexed": false,
          "internalType": "address",
          "name": "account",
          "type": "address"
        }
      ],
      "name": "Paused",
      "type": "event"
    },
    {
      "anonymous": false,
      "inputs": [
        {
          "indexed": true,
          "internalType": "address",
          "name": "author",
          "type": "address"
        },
        {
          "indexed": true,
          "internalType": "address",
          "name": "token",
          "type": "address"
        },
        {
          "indexed": true,
          "internalType": "address",
          "name": "to",
          "type": "address"
        },
        {
          "indexed": false,
          "internalType": "uint256",
          "name": "amount",
          "type": "uint256"
        }
      ],
      "name": "Recovered",
      "type": "event"
    },
    {
      "anonymous": false,
      "inputs": [
        {
          "indexed": true,
          "internalType": "address",
          "name": "from",
          "type": "address"
        },
        {
          "indexed": true,
          "internalType": "address",
          "name": "to",
          "type": "address"
        },
        {
          "indexed": false,
          "internalType": "uint256",
          "name": "value",
          "type": "uint256"
        }
      ],
      "name": "Transfer",
      "type": "event"
    },
    {
      "anonymous": false,
      "inputs": [
        {
          "indexed": false,
          "internalType": "address",
          "name": "account",
          "type": "address"
        }
      ],
      "name": "Unpaused",
      "type": "event"
    },
    {
      "inputs": [
        {
          "internalType": "address",
          "name": "owner",
          "type": "address"
        },
        {
          "internalType": "address",
          "name": "spender",
          "type": "address"
        }
      ],
      "name": "allowance",
      "outputs": [
        {
          "internalType": "uint256",
          "name": "",
          "type": "uint256"
        }
      ],
      "stateMutability": "view",
      "type": "function"
    },
    {
      "inputs": [
        {
          "internalType": "address",
          "name": "spender",
          "type": "address"
        },
        {
          "internalType": "uint256",
          "name": "amount",
          "type": "uint256"
        }
      ],
      "name": "approve",
      "outputs": [
        {
          "internalType": "bool",
          "name": "",
          "type": "bool"
        }
      ],
      "stateMutability": "nonpayable",
      "type": "function"
    },
    {
      "inputs": [
        {
          "internalType": "address",
          "name": "account",
          "type": "address"
        }
      ],
      "name": "balanceOf",
      "outputs": [
        {
          "internalType": "uint256",
          "name": "",
          "type": "uint256"
        }
      ],
      "stateMutability": "view",
      "type": "function"
    },
    {
      "inputs": [
        {
          "internalType": "address",
          "name": "account",
          "type": "address"
        },
        {
          "internalType": "uint256",
          "name": "amount",
          "type": "uint256"
        }
      ],
      "name": "burn",
      "outputs": [],
      "stateMutability": "nonpayable",
      "type": "function"
    },
    {
      "inputs": [],
      "name": "decimals",
      "outputs": [
        {
          "internalType": "uint8",
          "name": "",
          "type": "uint8"
        }
      ],
      "stateMutability": "view",
      "type": "function"
    },
    {
      "inputs": [
        {
          "internalType": "address",
          "name": "spender",
          "type": "address"
        },
        {
          "internalType": "uint256",
          "name": "subtractedValue",
          "type": "uint256"
        }
      ],
      "name": "decreaseAllowance",
      "outputs": [
        {
          "internalType": "bool",
          "name": "",
          "type": "bool"
        }
      ],
      "stateMutability": "nonpayable",
      "type": "function"
    },
    {
      "inputs": [],
      "name": "feeLogic",
      "outputs": [
        {
          "internalType": "address",
          "name": "",
          "type": "address"
        }
      ],
      "stateMutability": "view",
      "type": "function"
    },
    {
      "inputs": [
        {
          "internalType": "address",
          "name": "spender",
          "type": "address"
        },
        {
          "internalType": "uint256",
          "name": "addedValue",
          "type": "uint256"
        }
      ],
      "name": "increaseAllowance",
      "outputs": [
        {
          "internalType": "bool",
          "name": "",
          "type": "bool"
        }
      ],
      "stateMutability": "nonpayable",
      "type": "function"
    },
    {
      "inputs": [
        {
          "internalType": "address",
          "name": "owner_",
          "type": "address"
        }
      ],
      "name": "init",
      "outputs": [],
      "stateMutability": "nonpayable",
      "type": "function"
    },
    {
      "inputs": [
        {
          "internalType": "address",
          "name": "account",
          "type": "address"
        },
        {
          "internalType": "uint256",
          "name": "amount",
          "type": "uint256"
        }
      ],
      "name": "mint",
      "outputs": [],
      "stateMutability": "nonpayable",
      "type": "function"
    },
    {
      "inputs": [],
      "name": "minter",
      "outputs": [
        {
          "internalType": "address",
          "name": "",
          "type": "address"
        }
      ],
      "stateMutability": "view",
      "type": "function"
    },
    {
      "inputs": [],
      "name": "name",
      "outputs": [
        {
          "internalType": "string",
          "name": "",
          "type": "string"
        }
      ],
      "stateMutability": "view",
      "type": "function"
    },
    {
      "inputs": [],
      "name": "owner",
      "outputs": [
        {
          "internalType": "address",
          "name": "",
          "type": "address"
        }
      ],
      "stateMutability": "view",
      "type": "function"
    },
    {
      "inputs": [],
      "name": "pause",
      "outputs": [],
      "stateMutability": "nonpayable",
      "type": "function"
    },
    {
      "inputs": [],
      "name": "paused",
      "outputs": [
        {
          "internalType": "bool",
          "name": "",
          "type": "bool"
        }
      ],
      "stateMutability": "view",
      "type": "function"
    },
    {
      "inputs": [
        {
          "components": [
            {
              "internalType": "address",
              "name": "feeLogic",
              "type": "address"
            },
            {
              "internalType": "address",
              "name": "minter",
              "type": "address"
            }
          ],
          "internalType": "struct ETHtx.ETHtxArgs",
          "name": "_args",
          "type": "tuple"
        }
      ],
      "name": "postInit",
      "outputs": [],
      "stateMutability": "nonpayable",
      "type": "function"
    },
    {
      "inputs": [
        {
          "internalType": "address",
          "name": "token",
          "type": "address"
        },
        {
          "internalType": "address",
          "name": "to",
          "type": "address"
        },
        {
          "internalType": "uint256",
          "name": "amount",
          "type": "uint256"
        }
      ],
      "name": "recoverERC20",
      "outputs": [],
      "stateMutability": "nonpayable",
      "type": "function"
    },
    {
      "inputs": [],
      "name": "renounceOwnership",
      "outputs": [],
      "stateMutability": "nonpayable",
      "type": "function"
    },
    {
      "inputs": [
        {
          "internalType": "address",
          "name": "account",
          "type": "address"
        }
      ],
      "name": "setFeeLogic",
      "outputs": [],
      "stateMutability": "nonpayable",
      "type": "function"
    },
    {
      "inputs": [
        {
          "internalType": "address",
          "name": "account",
          "type": "address"
        }
      ],
      "name": "setMinter",
      "outputs": [],
      "stateMutability": "nonpayable",
      "type": "function"
    },
    {
      "inputs": [],
      "name": "symbol",
      "outputs": [
        {
          "internalType": "string",
          "name": "",
          "type": "string"
        }
      ],
      "stateMutability": "view",
      "type": "function"
    },
    {
      "inputs": [],
      "name": "totalSupply",
      "outputs": [
        {
          "internalType": "uint256",
          "name": "",
          "type": "uint256"
        }
      ],
      "stateMutability": "view",
      "type": "function"
    },
    {
      "inputs": [
        {
          "internalType": "address",
          "name": "recipient",
          "type": "address"
        },
        {
          "internalType": "uint256",
          "name": "amount",
          "type": "uint256"
        }
      ],
      "name": "transfer",
      "outputs": [
        {
          "internalType": "bool",
          "name": "",
          "type": "bool"
        }
      ],
      "stateMutability": "nonpayable",
      "type": "function"
    },
    {
      "inputs": [
        {
          "internalType": "address",
          "name": "sender",
          "type": "address"
        },
        {
          "internalType": "address",
          "name": "recipient",
          "type": "address"
        },
        {
          "internalType": "uint256",
          "name": "amount",
          "type": "uint256"
        }
      ],
      "name": "transferFrom",
      "outputs": [
        {
          "internalType": "bool",
          "name": "",
          "type": "bool"
        }
      ],
      "stateMutability": "nonpayable",
      "type": "function"
    },
    {
      "inputs": [
        {
          "internalType": "address",
          "name": "newOwner",
          "type": "address"
        }
      ],
      "name": "transferOwnership",
      "outputs": [],
      "stateMutability": "nonpayable",
      "type": "function"
    },
    {
      "inputs": [],
      "name": "unpause",
      "outputs": [],
      "stateMutability": "nonpayable",
      "type": "function"
    }
  ],
  "transactionHash": "0xb144cee85cd5382dfe49c12eb59669e3168d55e3f8b47a0dd4d61b2eae267650",
  "args": [
    "0x5757Dd711EaE80e181E07CdbCe43359Ac1048394"
  ],
  "solcInputHash": "3cacffe51216d1376f3121babfd97661",
  "bytecode": "0x60806040523480156200001157600080fd5b5060405162002f5138038062002f51833981016040819052620000349162000384565b6200003f8162000046565b50620003b4565b600054610100900460ff16806200006257506200006262000110565b8062000071575060005460ff16155b620000ae5760405162461bcd60e51b815260040180806020018281038252602e81526020018062002f23602e913960400191505060405180910390fd5b600054610100900460ff16158015620000da576000805460ff1961ff0019909116610100171660011790555b620000e46200012e565b620000ef82620001d8565b620000f9620002cb565b80156200010c576000805461ff00191690555b5050565b600062000128306200037e60201b6200141e1760201c565b15905090565b600054610100900460ff16806200014a57506200014a62000110565b8062000159575060005460ff16155b620001965760405162461bcd60e51b815260040180806020018281038252602e81526020018062002f23602e913960400191505060405180910390fd5b600054610100900460ff16158015620001c2576000805460ff1961ff0019909116610100171660011790555b8015620001d5576000805461ff00191690555b50565b600054610100900460ff1680620001f45750620001f462000110565b8062000203575060005460ff16155b620002405760405162461bcd60e51b815260040180806020018281038252602e81526020018062002f23602e913960400191505060405180910390fd5b600054610100900460ff161580156200026c576000805460ff1961ff0019909116610100171660011790555b603380546001600160a01b0319166001600160a01b0384169081179091556040516000907f8be0079c531659141344cd1fd0a4f28419497f9722a3daafe3b4186f6b6457e0908290a380156200010c576000805461ff00191690555050565b600054610100900460ff1680620002e75750620002e762000110565b80620002f6575060005460ff16155b620003335760405162461bcd60e51b815260040180806020018281038252602e81526020018062002f23602e913960400191505060405180910390fd5b600054610100900460ff161580156200035f576000805460ff1961ff0019909116610100171660011790555b6065805460ff191690558015620001d5576000805461ff001916905550565b3b151590565b60006020828403121562000396578081fd5b81516001600160a01b0381168114620003ad578182fd5b9392505050565b612b5f80620003c46000396000f3fe608060405234801561001057600080fd5b50600436106101ae5760003560e01c80635c975abb116100ee5780639dc29fac11610097578063bca18f3d11610071578063bca18f3d14610328578063dd62ed3e1461033b578063f2fde38b1461034e578063fca3b5aa14610361576101ae565b80639dc29fac146102ef578063a457c2d714610302578063a9059cbb14610315576101ae565b80638456cb59116100c85780638456cb59146102d75780638da5cb5b146102df57806395d89b41146102e7576101ae565b80635c975abb146102b457806370a08231146102bc578063715018a6146102cf576101ae565b806323b872dd1161015b5780633c85e454116101355780633c85e4541461027e5780633f4ba83a1461029157806340c10f19146102995780635028db1a146102ac576101ae565b806323b872dd14610243578063313ce56714610256578063395093511461026b576101ae565b80631171bda91161018c5780631171bda91461020657806318160ddd1461021b57806319ab453c14610230576101ae565b806306fdde03146101b357806307546172146101d1578063095ea7b3146101e6575b600080fd5b6101bb610374565b6040516101c8919061284b565b60405180910390f35b6101d96103ab565b6040516101c8919061281f565b6101f96101f43660046127a2565b6103c7565b6040516101c89190612840565b610219610214366004612767565b6103e4565b005b610223610535565b6040516101c8919061292a565b61021961023e36600461271b565b61053b565b6101f9610251366004612767565b610669565b61025e61070b565b6040516101c89190612933565b6101f96102793660046127a2565b610710565b61021961028c36600461271b565b61076b565b6102196108f9565b6102196102a73660046127a2565b610a1e565b6101d9610b0f565b6101f9610b2b565b6102236102ca36600461271b565b610b34565b610219610b60565b610219610c77565b6101d9610d9b565b6101bb610db7565b6102196102fd3660046127a2565b610dee565b6101f96103103660046127a2565b610edf565b6101f96103233660046127a2565b610f54565b6102196103363660046127cb565b610f68565b610223610349366004612735565b61110c565b61021961035c36600461271b565b611144565b61021961036f36600461271b565b6112e6565b60408051808201909152601481527f457468657265756d205472616e73616374696f6e000000000000000000000000602082015290565b60fb5473ffffffffffffffffffffffffffffffffffffffff1690565b60006103db6103d4611424565b8484611428565b50600192915050565b6103ec611424565b73ffffffffffffffffffffffffffffffffffffffff1661040a610d9b565b73ffffffffffffffffffffffffffffffffffffffff161461048c57604080517f08c379a000000000000000000000000000000000000000000000000000000000815260206004820181905260248201527f4f776e61626c653a2063616c6c6572206973206e6f7420746865206f776e6572604482015290519081900360640190fd5b6104ad73ffffffffffffffffffffffffffffffffffffffff8416838361156f565b8173ffffffffffffffffffffffffffffffffffffffff168373ffffffffffffffffffffffffffffffffffffffff166104e3611424565b73ffffffffffffffffffffffffffffffffffffffff167ffa6e44909e1c69606f847ee93c3339a424b53b345ed377c38ab410d32e7f70a784604051610528919061292a565b60405180910390a4505050565b60995490565b600054610100900460ff16806105545750610554611601565b80610562575060005460ff16155b6105b7576040517f08c379a000000000000000000000000000000000000000000000000000000000815260040180806020018281038252602e815260200180612a1b602e913960400191505060405180910390fd5b600054610100900460ff1615801561061d57600080547fffffffffffffffffffffffffffffffffffffffffffffffffffffffffffffff007fffffffffffffffffffffffffffffffffffffffffffffffffffffffffffff00ff909116610100171660011790555b610625611612565b61062e82611726565b6106366118a8565b801561066557600080547fffffffffffffffffffffffffffffffffffffffffffffffffffffffffffff00ff1690555b5050565b60006106768484846119e3565b61070084610682611424565b6106fb85604051806060016040528060288152602001612a496028913973ffffffffffffffffffffffffffffffffffffffff8a166000908152609860205260408120906106cd611424565b73ffffffffffffffffffffffffffffffffffffffff1681526020810191909152604001600020549190611dff565b611428565b5060015b9392505050565b601290565b60006103db61071d611424565b846106fb856098600061072e611424565b73ffffffffffffffffffffffffffffffffffffffff908116825260208083019390935260409182016000908120918c168152925290205490611eb0565b610773611424565b73ffffffffffffffffffffffffffffffffffffffff16610791610d9b565b73ffffffffffffffffffffffffffffffffffffffff161461081357604080517f08c379a000000000000000000000000000000000000000000000000000000000815260206004820181905260248201527f4f776e61626c653a2063616c6c6572206973206e6f7420746865206f776e6572604482015290519081900360640190fd5b73ffffffffffffffffffffffffffffffffffffffff8116610869576040517f08c379a0000000000000000000000000000000000000000000000000000000008152600401610860906128f3565b60405180910390fd5b60c980547fffffffffffffffffffffffff00000000000000000000000000000000000000001673ffffffffffffffffffffffffffffffffffffffff83169081179091556108b4611424565b73ffffffffffffffffffffffffffffffffffffffff167f62ed5f17e3b035a1692f4d2872793f3ad5394aa811ef5e7d770965e1c14a162b60405160405180910390a350565b610901611424565b73ffffffffffffffffffffffffffffffffffffffff1661091f610d9b565b73ffffffffffffffffffffffffffffffffffffffff16146109a157604080517f08c379a000000000000000000000000000000000000000000000000000000000815260206004820181905260248201527f4f776e61626c653a2063616c6c6572206973206e6f7420746865206f776e6572604482015290519081900360640190fd5b6109a9610b2b565b610a1457604080517f08c379a000000000000000000000000000000000000000000000000000000000815260206004820152601460248201527f5061757361626c653a206e6f7420706175736564000000000000000000000000604482015290519081900360640190fd5b610a1c611f24565b565b610a266103ab565b73ffffffffffffffffffffffffffffffffffffffff16610a44611424565b73ffffffffffffffffffffffffffffffffffffffff1614610a91576040517f08c379a0000000000000000000000000000000000000000000000000000000008152600401610860906128bc565b610a99610b2b565b15610b0557604080517f08c379a000000000000000000000000000000000000000000000000000000000815260206004820152601060248201527f5061757361626c653a2070617573656400000000000000000000000000000000604482015290519081900360640190fd5b6106658282612012565b60c95473ffffffffffffffffffffffffffffffffffffffff1690565b60655460ff1690565b73ffffffffffffffffffffffffffffffffffffffff81166000908152609760205260409020545b919050565b610b68611424565b73ffffffffffffffffffffffffffffffffffffffff16610b86610d9b565b73ffffffffffffffffffffffffffffffffffffffff1614610c0857604080517f08c379a000000000000000000000000000000000000000000000000000000000815260206004820181905260248201527f4f776e61626c653a2063616c6c6572206973206e6f7420746865206f776e6572604482015290519081900360640190fd5b60335460405160009173ffffffffffffffffffffffffffffffffffffffff16907f8be0079c531659141344cd1fd0a4f28419497f9722a3daafe3b4186f6b6457e0908390a3603380547fffffffffffffffffffffffff0000000000000000000000000000000000000000169055565b610c7f611424565b73ffffffffffffffffffffffffffffffffffffffff16610c9d610d9b565b73ffffffffffffffffffffffffffffffffffffffff1614610d1f57604080517f08c379a000000000000000000000000000000000000000000000000000000000815260206004820181905260248201527f4f776e61626c653a2063616c6c6572206973206e6f7420746865206f776e6572604482015290519081900360640190fd5b610d27610b2b565b15610d9357604080517f08c379a000000000000000000000000000000000000000000000000000000000815260206004820152601060248201527f5061757361626c653a2070617573656400000000000000000000000000000000604482015290519081900360640190fd5b610a1c612145565b60335473ffffffffffffffffffffffffffffffffffffffff1690565b60408051808201909152600581527f4554487478000000000000000000000000000000000000000000000000000000602082015290565b610df66103ab565b73ffffffffffffffffffffffffffffffffffffffff16610e14611424565b73ffffffffffffffffffffffffffffffffffffffff1614610e61576040517f08c379a0000000000000000000000000000000000000000000000000000000008152600401610860906128bc565b610e69610b2b565b15610ed557604080517f08c379a000000000000000000000000000000000000000000000000000000000815260206004820152601060248201527f5061757361626c653a2070617573656400000000000000000000000000000000604482015290519081900360640190fd5b610665828261220d565b60006103db610eec611424565b846106fb85604051806060016040528060258152602001612b056025913960986000610f16611424565b73ffffffffffffffffffffffffffffffffffffffff908116825260208083019390935260409182016000908120918d16815292529020549190611dff565b60006103db610f61611424565b84846119e3565b610f70611424565b73ffffffffffffffffffffffffffffffffffffffff16610f8e610d9b565b73ffffffffffffffffffffffffffffffffffffffff161461101057604080517f08c379a000000000000000000000000000000000000000000000000000000000815260206004820181905260248201527f4f776e61626c653a2063616c6c6572206973206e6f7420746865206f776e6572604482015290519081900360640190fd5b600061101a611424565b825160c980547fffffffffffffffffffffffff00000000000000000000000000000000000000001673ffffffffffffffffffffffffffffffffffffffff92831690811790915560405192935091908316907f62ed5f17e3b035a1692f4d2872793f3ad5394aa811ef5e7d770965e1c14a162b90600090a3602082015160fb80547fffffffffffffffffffffffff00000000000000000000000000000000000000001673ffffffffffffffffffffffffffffffffffffffff92831690811790915560405190918316907f02b23d62d8f733974f8cb13eb804b20135521322b70997c991fc01406632389f90600090a35050565b73ffffffffffffffffffffffffffffffffffffffff918216600090815260986020908152604080832093909416825291909152205490565b61114c611424565b73ffffffffffffffffffffffffffffffffffffffff1661116a610d9b565b73ffffffffffffffffffffffffffffffffffffffff16146111ec57604080517f08c379a000000000000000000000000000000000000000000000000000000000815260206004820181905260248201527f4f776e61626c653a2063616c6c6572206973206e6f7420746865206f776e6572604482015290519081900360640190fd5b73ffffffffffffffffffffffffffffffffffffffff8116611258576040517f08c379a00000000000000000000000000000000000000000000000000000000081526004018080602001828103825260268152602001806129876026913960400191505060405180910390fd5b60335460405173ffffffffffffffffffffffffffffffffffffffff8084169216907f8be0079c531659141344cd1fd0a4f28419497f9722a3daafe3b4186f6b6457e090600090a3603380547fffffffffffffffffffffffff00000000000000000000000000000000000000001673ffffffffffffffffffffffffffffffffffffffff92909216919091179055565b6112ee611424565b73ffffffffffffffffffffffffffffffffffffffff1661130c610d9b565b73ffffffffffffffffffffffffffffffffffffffff161461138e57604080517f08c379a000000000000000000000000000000000000000000000000000000000815260206004820181905260248201527f4f776e61626c653a2063616c6c6572206973206e6f7420746865206f776e6572604482015290519081900360640190fd5b60fb80547fffffffffffffffffffffffff00000000000000000000000000000000000000001673ffffffffffffffffffffffffffffffffffffffff83169081179091556113d9611424565b73ffffffffffffffffffffffffffffffffffffffff167f02b23d62d8f733974f8cb13eb804b20135521322b70997c991fc01406632389f60405160405180910390a350565b3b151590565b3390565b73ffffffffffffffffffffffffffffffffffffffff8316611494576040517f08c379a0000000000000000000000000000000000000000000000000000000008152600401808060200182810382526024815260200180612ab76024913960400191505060405180910390fd5b73ffffffffffffffffffffffffffffffffffffffff8216611500576040517f08c379a00000000000000000000000000000000000000000000000000000000081526004018080602001828103825260228152602001806129ad6022913960400191505060405180910390fd5b73ffffffffffffffffffffffffffffffffffffffff808416600081815260986020908152604080832094871680845294825291829020859055815185815291517f8c5be1e5ebec7d5bd14f71427d1e84f3dd0314c0f7b2291e5b200ac8c7c3b9259281900390910190a3505050565b6040805173ffffffffffffffffffffffffffffffffffffffff8416602482015260448082018490528251808303909101815260649091019091526020810180517bffffffffffffffffffffffffffffffffffffffffffffffffffffffff167fa9059cbb000000000000000000000000000000000000000000000000000000001790526115fc908490612357565b505050565b600061160c3061141e565b15905090565b600054610100900460ff168061162b575061162b611601565b80611639575060005460ff16155b61168e576040517f08c379a000000000000000000000000000000000000000000000000000000000815260040180806020018281038252602e815260200180612a1b602e913960400191505060405180910390fd5b600054610100900460ff161580156116f457600080547fffffffffffffffffffffffffffffffffffffffffffffffffffffffffffffff007fffffffffffffffffffffffffffffffffffffffffffffffffffffffffffff00ff909116610100171660011790555b801561172357600080547fffffffffffffffffffffffffffffffffffffffffffffffffffffffffffff00ff1690555b50565b600054610100900460ff168061173f575061173f611601565b8061174d575060005460ff16155b6117a2576040517f08c379a000000000000000000000000000000000000000000000000000000000815260040180806020018281038252602e815260200180612a1b602e913960400191505060405180910390fd5b600054610100900460ff1615801561180857600080547fffffffffffffffffffffffffffffffffffffffffffffffffffffffffffffff007fffffffffffffffffffffffffffffffffffffffffffffffffffffffffffff00ff909116610100171660011790555b603380547fffffffffffffffffffffffff00000000000000000000000000000000000000001673ffffffffffffffffffffffffffffffffffffffff84169081179091556040516000907f8be0079c531659141344cd1fd0a4f28419497f9722a3daafe3b4186f6b6457e0908290a3801561066557600080547fffffffffffffffffffffffffffffffffffffffffffffffffffffffffffff00ff1690555050565b600054610100900460ff16806118c157506118c1611601565b806118cf575060005460ff16155b611924576040517f08c379a000000000000000000000000000000000000000000000000000000000815260040180806020018281038252602e815260200180612a1b602e913960400191505060405180910390fd5b600054610100900460ff1615801561198a57600080547fffffffffffffffffffffffffffffffffffffffffffffffffffffffffffffff007fffffffffffffffffffffffffffffffffffffffffffffffffffffffffffff00ff909116610100171660011790555b606580547fffffffffffffffffffffffffffffffffffffffffffffffffffffffffffffff00169055801561172357600080547fffffffffffffffffffffffffffffffffffffffffffffffffffffffffffff00ff16905550565b73ffffffffffffffffffffffffffffffffffffffff8316611a4f576040517f08c379a0000000000000000000000000000000000000000000000000000000008152600401808060200182810382526025815260200180612a926025913960400191505060405180910390fd5b73ffffffffffffffffffffffffffffffffffffffff8216611abb576040517f08c379a00000000000000000000000000000000000000000000000000000000081526004018080602001828103825260238152602001806129426023913960400191505060405180910390fd5b611ac68383836115fc565b611b10816040518060600160405280602681526020016129cf6026913973ffffffffffffffffffffffffffffffffffffffff86166000908152609760205260409020549190611dff565b73ffffffffffffffffffffffffffffffffffffffff80851660008181526097602090815260408083209590955560c95485517fbe3945e40000000000000000000000000000000000000000000000000000000081526004810194909452878516602485015260448401879052945194909316939092849263be3945e49260648083019392829003018186803b158015611ba857600080fd5b505afa158015611bbc573d6000803e3d6000fd5b505050506040513d6020811015611bd257600080fd5b505190506000611be2848361242f565b73ffffffffffffffffffffffffffffffffffffffff8616600090815260976020526040902054909150611c159082611eb0565b73ffffffffffffffffffffffffffffffffffffffff80871660008181526097602090815260409182902094909455805185815290519193928a16927fddf252ad1be2c89b69c2b068fc378daa952ba7f163c4a11628f55a4df523b3ef92918290030190a38115611df75760008373ffffffffffffffffffffffffffffffffffffffff166366d003ac6040518163ffffffff1660e01b815260040160206040518083038186803b158015611cc757600080fd5b505afa158015611cdb573d6000803e3d6000fd5b505050506040513d6020811015611cf157600080fd5b505173ffffffffffffffffffffffffffffffffffffffff8116600090815260976020526040902054909150611d269084611eb0565b73ffffffffffffffffffffffffffffffffffffffff80831660008181526097602090815260409182902094909455805187815290519193928b16927fddf252ad1be2c89b69c2b068fc378daa952ba7f163c4a11628f55a4df523b3ef92918290030190a38373ffffffffffffffffffffffffffffffffffffffff166398d078b4846040518263ffffffff1660e01b815260040180828152602001915050600060405180830381600087803b158015611ddd57600080fd5b505af1158015611df1573d6000803e3d6000fd5b50505050505b505050505050565b60008184841115611ea8576040517f08c379a00000000000000000000000000000000000000000000000000000000081526004018080602001828103825283818151815260200191508051906020019080838360005b83811015611e6d578181015183820152602001611e55565b50505050905090810190601f168015611e9a5780820380516001836020036101000a031916815260200191505b509250505060405180910390fd5b505050900390565b60008282018381101561070457604080517f08c379a000000000000000000000000000000000000000000000000000000000815260206004820152601b60248201527f536166654d6174683a206164646974696f6e206f766572666c6f770000000000604482015290519081900360640190fd5b611f2c610b2b565b611f9757604080517f08c379a000000000000000000000000000000000000000000000000000000000815260206004820152601460248201527f5061757361626c653a206e6f7420706175736564000000000000000000000000604482015290519081900360640190fd5b606580547fffffffffffffffffffffffffffffffffffffffffffffffffffffffffffffff001690557f5db9ee0a495bf2e6ff9c91a7834c1ba4fdd244a5e8aa4e537bd38aeae4b073aa611fe8611424565b6040805173ffffffffffffffffffffffffffffffffffffffff9092168252519081900360200190a1565b73ffffffffffffffffffffffffffffffffffffffff821661209457604080517f08c379a000000000000000000000000000000000000000000000000000000000815260206004820152601f60248201527f45524332303a206d696e7420746f20746865207a65726f206164647265737300604482015290519081900360640190fd5b6120a0600083836115fc565b6099546120ad9082611eb0565b60995573ffffffffffffffffffffffffffffffffffffffff82166000908152609760205260409020546120e09082611eb0565b73ffffffffffffffffffffffffffffffffffffffff831660008181526097602090815260408083209490945583518581529351929391927fddf252ad1be2c89b69c2b068fc378daa952ba7f163c4a11628f55a4df523b3ef9281900390910190a35050565b61214d610b2b565b156121b957604080517f08c379a000000000000000000000000000000000000000000000000000000000815260206004820152601060248201527f5061757361626c653a2070617573656400000000000000000000000000000000604482015290519081900360640190fd5b606580547fffffffffffffffffffffffffffffffffffffffffffffffffffffffffffffff001660011790557f62e78cea01bee320cd4e420270b5ea74000d11b0c9f74754ebdbfc544b05a258611fe8611424565b73ffffffffffffffffffffffffffffffffffffffff8216612279576040517f08c379a0000000000000000000000000000000000000000000000000000000008152600401808060200182810382526021815260200180612a716021913960400191505060405180910390fd5b612285826000836115fc565b6122cf816040518060600160405280602281526020016129656022913973ffffffffffffffffffffffffffffffffffffffff85166000908152609760205260409020549190611dff565b73ffffffffffffffffffffffffffffffffffffffff8316600090815260976020526040902055609954612302908261242f565b60995560408051828152905160009173ffffffffffffffffffffffffffffffffffffffff8516917fddf252ad1be2c89b69c2b068fc378daa952ba7f163c4a11628f55a4df523b3ef9181900360200190a35050565b60006123b9826040518060400160405280602081526020017f5361666545524332303a206c6f772d6c6576656c2063616c6c206661696c65648152508573ffffffffffffffffffffffffffffffffffffffff166124a69092919063ffffffff16565b8051909150156115fc578080602001905160208110156123d857600080fd5b50516115fc576040517f08c379a000000000000000000000000000000000000000000000000000000000815260040180806020018281038252602a815260200180612adb602a913960400191505060405180910390fd5b6000828211156124a057604080517f08c379a000000000000000000000000000000000000000000000000000000000815260206004820152601e60248201527f536166654d6174683a207375627472616374696f6e206f766572666c6f770000604482015290519081900360640190fd5b50900390565b60606124b584846000856124bd565b949350505050565b606082471015612518576040517f08c379a00000000000000000000000000000000000000000000000000000000081526004018080602001828103825260268152602001806129f56026913960400191505060405180910390fd5b6125218561141e565b61258c57604080517f08c379a000000000000000000000000000000000000000000000000000000000815260206004820152601d60248201527f416464726573733a2063616c6c20746f206e6f6e2d636f6e7472616374000000604482015290519081900360640190fd5b6000808673ffffffffffffffffffffffffffffffffffffffff1685876040518082805190602001908083835b602083106125f557805182527fffffffffffffffffffffffffffffffffffffffffffffffffffffffffffffffe090920191602091820191016125b8565b6001836020036101000a03801982511681845116808217855250505050505090500191505060006040518083038185875af1925050503d8060008114612657576040519150601f19603f3d011682016040523d82523d6000602084013e61265c565b606091505b509150915061266c828286612677565b979650505050505050565b60608315612686575081610704565b8251156126965782518084602001fd5b6040517f08c379a0000000000000000000000000000000000000000000000000000000008152602060048201818152845160248401528451859391928392604401919085019080838360008315611e6d578181015183820152602001611e55565b803573ffffffffffffffffffffffffffffffffffffffff81168114610b5b57600080fd5b60006020828403121561272c578081fd5b610704826126f7565b60008060408385031215612747578081fd5b612750836126f7565b915061275e602084016126f7565b90509250929050565b60008060006060848603121561277b578081fd5b612784846126f7565b9250612792602085016126f7565b9150604084013590509250925092565b600080604083850312156127b4578182fd5b6127bd836126f7565b946020939093013593505050565b6000604082840312156127dc578081fd5b6040516040810181811067ffffffffffffffff821117156127f957fe5b604052612805836126f7565b8152612813602084016126f7565b60208201529392505050565b73ffffffffffffffffffffffffffffffffffffffff91909116815260200190565b901515815260200190565b6000602080835283518082850152825b818110156128775785810183015185820160400152820161285b565b818111156128885783604083870101525b50601f017fffffffffffffffffffffffffffffffffffffffffffffffffffffffffffffffe016929092016040019392505050565b6020808252601f908201527f45544874783a2063616c6c6572206973206e6f7420746865206d696e74657200604082015260600190565b6020808252601c908201527f45544874783a206665654c6f676963207a65726f206164647265737300000000604082015260600190565b90815260200190565b60ff9190911681526020019056fe45524332303a207472616e7366657220746f20746865207a65726f206164647265737345524332303a206275726e20616d6f756e7420657863656564732062616c616e63654f776e61626c653a206e6577206f776e657220697320746865207a65726f206164647265737345524332303a20617070726f766520746f20746865207a65726f206164647265737345524332303a207472616e7366657220616d6f756e7420657863656564732062616c616e6365416464726573733a20696e73756666696369656e742062616c616e636520666f722063616c6c496e697469616c697a61626c653a20636f6e747261637420697320616c726561647920696e697469616c697a656445524332303a207472616e7366657220616d6f756e74206578636565647320616c6c6f77616e636545524332303a206275726e2066726f6d20746865207a65726f206164647265737345524332303a207472616e736665722066726f6d20746865207a65726f206164647265737345524332303a20617070726f76652066726f6d20746865207a65726f20616464726573735361666545524332303a204552433230206f7065726174696f6e20646964206e6f74207375636365656445524332303a2064656372656173656420616c6c6f77616e63652062656c6f77207a65726fa264697066735822122053ef1b2674366f6ba8a3b9ab0cc7a092846a337134a6cc3cbecdd7c442d2bd9964736f6c63430007060033496e697469616c697a61626c653a20636f6e747261637420697320616c726561647920696e697469616c697a6564",
  "devdoc": {
    "kind": "dev",
    "methods": {
      "allowance(address,address)": {
        "details": "See {IERC20-allowance}."
      },
      "approve(address,uint256)": {
        "details": "See {IERC20-approve}. Requirements: - `spender` cannot be the zero address."
      },
      "balanceOf(address)": {
        "details": "See {IERC20-balanceOf}."
      },
      "decimals()": {
        "details": "Returns the number of decimals used to get its user representation. For example, if `decimals` equals `2`, a balance of `505` tokens should be displayed to a user as `5,05` (`505 / 10 ** 2`). Tokens usually opt for a value of 18, imitating the relationship between Ether and Wei. This is the value {ERC20} uses, unless this function is overridden; NOTE: This information is only used for _display_ purposes: it in no way affects any of the arithmetic of the contract, including {IERC20-balanceOf} and {IERC20-transfer}."
      },
      "decreaseAllowance(address,uint256)": {
        "details": "Atomically decreases the allowance granted to `spender` by the caller. This is an alternative to {approve} that can be used as a mitigation for problems described in {IERC20-approve}. Emits an {Approval} event indicating the updated allowance. Requirements: - `spender` cannot be the zero address. - `spender` must have allowance for the caller of at least `subtractedValue`."
      },
      "feeLogic()": {
        "details": "Returns the feeLogic handler address."
      },
      "increaseAllowance(address,uint256)": {
        "details": "Atomically increases the allowance granted to `spender` by the caller. This is an alternative to {approve} that can be used as a mitigation for problems described in {IERC20-approve}. Emits an {Approval} event indicating the updated allowance. Requirements: - `spender` cannot be the zero address."
      },
      "name()": {
        "details": "Returns the name of the token. Overload it to change."
      },
      "owner()": {
        "details": "Returns the address of the current owner."
      },
      "paused()": {
        "details": "Returns true if the contract is paused, and false otherwise."
      },
      "renounceOwnership()": {
        "details": "Leaves the contract without owner. It will not be possible to call `onlyOwner` functions anymore. Can only be called by the current owner. NOTE: Renouncing ownership will leave the contract without an owner, thereby removing any functionality that is only available to the owner."
      },
      "symbol()": {
        "details": "Returns the symbol of the token, usually a shorter version of the name. Overload it to change."
      },
      "totalSupply()": {
        "details": "See {IERC20-totalSupply}."
      },
      "transfer(address,uint256)": {
        "details": "See {IERC20-transfer}. Requirements: - `recipient` cannot be the zero address. - the caller must have a balance of at least `amount`."
      },
      "transferFrom(address,address,uint256)": {
        "details": "See {IERC20-transferFrom}. Emits an {Approval} event indicating the updated allowance. This is not required by the EIP. See the note at the beginning of {ERC20}. Requirements: - `sender` and `recipient` cannot be the zero address. - `sender` must have a balance of at least `amount`. - the caller must have allowance for ``sender``'s tokens of at least `amount`."
      },
      "transferOwnership(address)": {
        "details": "Transfers ownership of the contract to a new account (`newOwner`). Can only be called by the current owner."
      }
    },
    "version": 1
  },
  "userdoc": {
    "kind": "user",
    "methods": {},
    "version": 1
  },
  "storageLayout": {
    "storage": [
      {
        "astId": 6,
        "contract": "contracts/tokens/ETHtx/ETHtx.sol:ETHtx",
        "label": "_initialized",
        "offset": 0,
        "slot": "0",
        "type": "t_bool"
      },
      {
        "astId": 9,
        "contract": "contracts/tokens/ETHtx/ETHtx.sol:ETHtx",
        "label": "_initializing",
        "offset": 1,
        "slot": "0",
        "type": "t_bool"
      },
      {
        "astId": 353,
        "contract": "contracts/tokens/ETHtx/ETHtx.sol:ETHtx",
        "label": "__gap",
        "offset": 0,
        "slot": "1",
        "type": "t_array(t_uint256)50_storage"
      },
      {
        "astId": 3458,
        "contract": "contracts/tokens/ETHtx/ETHtx.sol:ETHtx",
        "label": "_owner",
        "offset": 0,
        "slot": "51",
        "type": "t_address"
      },
      {
        "astId": 3577,
        "contract": "contracts/tokens/ETHtx/ETHtx.sol:ETHtx",
        "label": "__gap",
        "offset": 0,
        "slot": "52",
        "type": "t_array(t_uint256)49_storage"
      },
      {
        "astId": 375,
        "contract": "contracts/tokens/ETHtx/ETHtx.sol:ETHtx",
        "label": "_paused",
        "offset": 0,
        "slot": "101",
        "type": "t_bool"
      },
      {
        "astId": 466,
        "contract": "contracts/tokens/ETHtx/ETHtx.sol:ETHtx",
        "label": "__gap",
        "offset": 0,
        "slot": "102",
        "type": "t_array(t_uint256)49_storage"
      },
      {
        "astId": 24031,
        "contract": "contracts/tokens/ETHtx/ETHtx.sol:ETHtx",
        "label": "_balances",
        "offset": 0,
        "slot": "151",
        "type": "t_mapping(t_address,t_uint256)"
      },
      {
        "astId": 24037,
        "contract": "contracts/tokens/ETHtx/ETHtx.sol:ETHtx",
        "label": "_allowances",
        "offset": 0,
        "slot": "152",
        "type": "t_mapping(t_address,t_mapping(t_address,t_uint256))"
      },
      {
        "astId": 24039,
        "contract": "contracts/tokens/ETHtx/ETHtx.sol:ETHtx",
        "label": "_totalSupply",
        "offset": 0,
        "slot": "153",
        "type": "t_uint256"
      },
      {
        "astId": 24502,
        "contract": "contracts/tokens/ETHtx/ETHtx.sol:ETHtx",
        "label": "__gap",
        "offset": 0,
        "slot": "154",
        "type": "t_array(t_uint256)47_storage"
      },
      {
        "astId": 24692,
        "contract": "contracts/tokens/ETHtx/ETHtx.sol:ETHtx",
        "label": "_feeLogic",
        "offset": 0,
        "slot": "201",
        "type": "t_address"
      },
      {
        "astId": 24869,
        "contract": "contracts/tokens/ETHtx/ETHtx.sol:ETHtx",
        "label": "__gap",
        "offset": 0,
        "slot": "202",
        "type": "t_array(t_uint256)49_storage"
      },
      {
        "astId": 25357,
        "contract": "contracts/tokens/ETHtx/ETHtx.sol:ETHtx",
        "label": "_minter",
        "offset": 0,
        "slot": "251",
        "type": "t_address"
      },
      {
        "astId": 25361,
        "contract": "contracts/tokens/ETHtx/ETHtx.sol:ETHtx",
        "label": "__gap",
        "offset": 0,
        "slot": "252",
        "type": "t_array(t_uint256)49_storage"
      }
    ],
    "types": {
      "t_address": {
        "encoding": "inplace",
        "label": "address",
        "numberOfBytes": "20"
      },
      "t_array(t_uint256)47_storage": {
        "base": "t_uint256",
        "encoding": "inplace",
        "label": "uint256[47]",
        "numberOfBytes": "1504"
      },
      "t_array(t_uint256)49_storage": {
        "base": "t_uint256",
        "encoding": "inplace",
        "label": "uint256[49]",
        "numberOfBytes": "1568"
      },
      "t_array(t_uint256)50_storage": {
        "base": "t_uint256",
        "encoding": "inplace",
        "label": "uint256[50]",
        "numberOfBytes": "1600"
      },
      "t_bool": {
        "encoding": "inplace",
        "label": "bool",
        "numberOfBytes": "1"
      },
      "t_mapping(t_address,t_mapping(t_address,t_uint256))": {
        "encoding": "mapping",
        "key": "t_address",
        "label": "mapping(address => mapping(address => uint256))",
        "numberOfBytes": "32",
        "value": "t_mapping(t_address,t_uint256)"
      },
      "t_mapping(t_address,t_uint256)": {
        "encoding": "mapping",
        "key": "t_address",
        "label": "mapping(address => uint256)",
        "numberOfBytes": "32",
        "value": "t_uint256"
      },
      "t_uint256": {
        "encoding": "inplace",
        "label": "uint256",
        "numberOfBytes": "32"
      }
    }
  }
}