{
  "address": "0x3BD2d99003023a2feBFA72dAe7988eE87b075BDa",
  "abi": [
    {
      "inputs": [
        {
          "internalType": "address",
          "name": "owner_",
          "type": "address"
        }
      ],
      "stateMutability": "nonpayable",
      "type": "constructor"
    },
    {
      "anonymous": false,
      "inputs": [
        {
          "indexed": true,
          "internalType": "address",
          "name": "author",
          "type": "address"
        }
      ],
      "name": "Destroyed",
      "type": "event"
    },
    {
      "anonymous": false,
      "inputs": [
        {
          "indexed": true,
          "internalType": "address",
          "name": "previousOwner",
          "type": "address"
        },
        {
          "indexed": true,
          "internalType": "address",
          "name": "newOwner",
          "type": "address"
        }
      ],
      "name": "OwnershipTransferred",
      "type": "event"
    },
    {
      "anonymous": false,
      "inputs": [
        {
          "indexed": false,
          "internalType": "address",
          "name": "account",
          "type": "address"
        }
      ],
      "name": "Paused",
      "type": "event"
    },
    {
      "anonymous": false,
      "inputs": [
        {
          "indexed": false,
          "internalType": "address",
          "name": "account",
          "type": "address"
        }
      ],
      "name": "Unpaused",
      "type": "event"
    },
    {
      "inputs": [],
      "name": "destroy",
      "outputs": [],
      "stateMutability": "nonpayable",
      "type": "function"
    },
    {
      "inputs": [
        {
          "internalType": "address",
          "name": "owner_",
          "type": "address"
        }
      ],
      "name": "init",
      "outputs": [],
      "stateMutability": "nonpayable",
      "type": "function"
    },
    {
      "inputs": [],
      "name": "owner",
      "outputs": [
        {
          "internalType": "address",
          "name": "",
          "type": "address"
        }
      ],
      "stateMutability": "view",
      "type": "function"
    },
    {
      "inputs": [],
      "name": "paused",
      "outputs": [
        {
          "internalType": "bool",
          "name": "",
          "type": "bool"
        }
      ],
      "stateMutability": "view",
      "type": "function"
    },
    {
      "inputs": [
        {
          "components": [
            {
              "internalType": "address",
              "name": "weth",
              "type": "address"
            },
            {
              "internalType": "address",
              "name": "ethmx",
              "type": "address"
            }
          ],
          "internalType": "struct ETHtxAMM.ETHtxAMMArgs",
          "name": "_args",
          "type": "tuple"
        }
      ],
      "name": "postInit",
      "outputs": [],
      "stateMutability": "nonpayable",
      "type": "function"
    },
    {
      "inputs": [
        {
          "internalType": "address",
          "name": "secureVault",
          "type": "address"
        }
      ],
      "name": "postUpgrade",
      "outputs": [],
      "stateMutability": "nonpayable",
      "type": "function"
    },
    {
      "inputs": [],
      "name": "renounceOwnership",
      "outputs": [],
      "stateMutability": "nonpayable",
      "type": "function"
    },
    {
      "inputs": [
        {
          "internalType": "address",
          "name": "newOwner",
          "type": "address"
        }
      ],
      "name": "transferOwnership",
      "outputs": [],
      "stateMutability": "nonpayable",
      "type": "function"
    }
  ],
  "transactionHash": "0xe437ebfdf921d6c6083aa9cec2e2088ad03b66f18979689a34452801b3e37bca",
  "args": [
    "0x5757Dd711EaE80e181E07CdbCe43359Ac1048394"
  ],
  "solcInputHash": "ab0b359a0378bf8b70adc5ed34764028",
  "bytecode": "0x60806040523480156200001157600080fd5b506040516200163938038062001639833981016040819052620000349162000384565b6200003f8162000046565b50620003b4565b600054610100900460ff16806200006257506200006262000110565b8062000071575060005460ff16155b620000ae5760405162461bcd60e51b815260040180806020018281038252602e8152602001806200160b602e913960400191505060405180910390fd5b600054610100900460ff16158015620000da576000805460ff1961ff0019909116610100171660011790555b620000e46200012e565b620000ef82620001d8565b620000f9620002cb565b80156200010c576000805461ff00191690555b5050565b600062000128306200037e60201b620008b61760201c565b15905090565b600054610100900460ff16806200014a57506200014a62000110565b8062000159575060005460ff16155b620001965760405162461bcd60e51b815260040180806020018281038252602e8152602001806200160b602e913960400191505060405180910390fd5b600054610100900460ff16158015620001c2576000805460ff1961ff0019909116610100171660011790555b8015620001d5576000805461ff00191690555b50565b600054610100900460ff1680620001f45750620001f462000110565b8062000203575060005460ff16155b620002405760405162461bcd60e51b815260040180806020018281038252602e8152602001806200160b602e913960400191505060405180910390fd5b600054610100900460ff161580156200026c576000805460ff1961ff0019909116610100171660011790555b603380546001600160a01b0319166001600160a01b0384169081179091556040516000907f8be0079c531659141344cd1fd0a4f28419497f9722a3daafe3b4186f6b6457e0908290a380156200010c576000805461ff00191690555050565b600054610100900460ff1680620002e75750620002e762000110565b80620002f6575060005460ff16155b620003335760405162461bcd60e51b815260040180806020018281038252602e8152602001806200160b602e913960400191505060405180910390fd5b600054610100900460ff161580156200035f576000805460ff1961ff0019909116610100171660011790555b6065805460ff191690558015620001d5576000805461ff001916905550565b3b151590565b60006020828403121562000396578081fd5b81516001600160a01b0381168114620003ad578182fd5b9392505050565b61124780620003c46000396000f3fe608060405234801561001057600080fd5b50600436106100885760003560e01c80638da5cb5b1161005b5780638da5cb5b146100d0578063bca18f3d146100e5578063c79b2430146100f8578063f2fde38b1461010b57610088565b806319ab453c1461008d5780635c975abb146100a2578063715018a6146100c057806383197ef0146100c8575b600080fd5b6100a061009b3660046110bb565b61011e565b005b6100aa61024c565b6040516100b79190611162565b60405180910390f35b6100a0610255565b6100a061036c565b6100d861047b565b6040516100b79190611141565b6100a06100f33660046110d5565b610497565b6100a06101063660046110bb565b610599565b6100a06101193660046110bb565b610714565b600054610100900460ff168061013757506101376108c0565b80610145575060005460ff16155b61019a576040517f08c379a000000000000000000000000000000000000000000000000000000000815260040180806020018281038252602e8152602001806111ba602e913960400191505060405180910390fd5b600054610100900460ff1615801561020057600080547fffffffffffffffffffffffffffffffffffffffffffffffffffffffffffffff007fffffffffffffffffffffffffffffffffffffffffffffffffffffffffffff00ff909116610100171660011790555b6102086108d1565b610211826109e5565b610219610b67565b801561024857600080547fffffffffffffffffffffffffffffffffffffffffffffffffffffffffffff00ff1690555b5050565b60655460ff1690565b61025d610ca2565b73ffffffffffffffffffffffffffffffffffffffff1661027b61047b565b73ffffffffffffffffffffffffffffffffffffffff16146102fd57604080517f08c379a000000000000000000000000000000000000000000000000000000000815260206004820181905260248201527f4f776e61626c653a2063616c6c6572206973206e6f7420746865206f776e6572604482015290519081900360640190fd5b60335460405160009173ffffffffffffffffffffffffffffffffffffffff16907f8be0079c531659141344cd1fd0a4f28419497f9722a3daafe3b4186f6b6457e0908390a3603380547fffffffffffffffffffffffff0000000000000000000000000000000000000000169055565b610374610ca2565b73ffffffffffffffffffffffffffffffffffffffff1661039261047b565b73ffffffffffffffffffffffffffffffffffffffff161461041457604080517f08c379a000000000000000000000000000000000000000000000000000000000815260206004820181905260248201527f4f776e61626c653a2063616c6c6572206973206e6f7420746865206f776e6572604482015290519081900360640190fd5b600061041e610ca2565b60405190915073ffffffffffffffffffffffffffffffffffffffff8216907f7dec311f70bce33f6997a1cc140bcb6149f9ee83d6be656e848b00d170c9820090600090a28073ffffffffffffffffffffffffffffffffffffffff16ff5b60335473ffffffffffffffffffffffffffffffffffffffff1690565b61049f610ca2565b73ffffffffffffffffffffffffffffffffffffffff166104bd61047b565b73ffffffffffffffffffffffffffffffffffffffff161461053f57604080517f08c379a000000000000000000000000000000000000000000000000000000000815260206004820181905260248201527f4f776e61626c653a2063616c6c6572206973206e6f7420746865206f776e6572604482015290519081900360640190fd5b8051609a80547fffffffffffffffffffffffff000000000000000000000000000000000000000090811673ffffffffffffffffffffffffffffffffffffffff93841617909155602090920151609b80549093169116179055565b6105a1610ca2565b73ffffffffffffffffffffffffffffffffffffffff166105bf61047b565b73ffffffffffffffffffffffffffffffffffffffff161461064157604080517f08c379a000000000000000000000000000000000000000000000000000000000815260206004820181905260248201527f4f776e61626c653a2063616c6c6572206973206e6f7420746865206f776e6572604482015290519081900360640190fd5b609a546040517f70a0823100000000000000000000000000000000000000000000000000000000815273ffffffffffffffffffffffffffffffffffffffff9091169060009082906370a082319061069c903090600401611141565b60206040518083038186803b1580156106b457600080fd5b505afa1580156106c8573d6000803e3d6000fd5b505050506040513d601f19601f820116820180604052508101906106ec9190611129565b905061070f73ffffffffffffffffffffffffffffffffffffffff83168483610ca6565b505050565b61071c610ca2565b73ffffffffffffffffffffffffffffffffffffffff1661073a61047b565b73ffffffffffffffffffffffffffffffffffffffff16146107bc57604080517f08c379a000000000000000000000000000000000000000000000000000000000815260206004820181905260248201527f4f776e61626c653a2063616c6c6572206973206e6f7420746865206f776e6572604482015290519081900360640190fd5b73ffffffffffffffffffffffffffffffffffffffff8116610828576040517f08c379a000000000000000000000000000000000000000000000000000000000815260040180806020018281038252602681526020018061116e6026913960400191505060405180910390fd5b60335460405173ffffffffffffffffffffffffffffffffffffffff8084169216907f8be0079c531659141344cd1fd0a4f28419497f9722a3daafe3b4186f6b6457e090600090a3603380547fffffffffffffffffffffffff00000000000000000000000000000000000000001673ffffffffffffffffffffffffffffffffffffffff92909216919091179055565b803b15155b919050565b60006108cb306108b6565b15905090565b600054610100900460ff16806108ea57506108ea6108c0565b806108f8575060005460ff16155b61094d576040517f08c379a000000000000000000000000000000000000000000000000000000000815260040180806020018281038252602e8152602001806111ba602e913960400191505060405180910390fd5b600054610100900460ff161580156109b357600080547fffffffffffffffffffffffffffffffffffffffffffffffffffffffffffffff007fffffffffffffffffffffffffffffffffffffffffffffffffffffffffffff00ff909116610100171660011790555b80156109e257600080547fffffffffffffffffffffffffffffffffffffffffffffffffffffffffffff00ff1690555b50565b600054610100900460ff16806109fe57506109fe6108c0565b80610a0c575060005460ff16155b610a61576040517f08c379a000000000000000000000000000000000000000000000000000000000815260040180806020018281038252602e8152602001806111ba602e913960400191505060405180910390fd5b600054610100900460ff16158015610ac757600080547fffffffffffffffffffffffffffffffffffffffffffffffffffffffffffffff007fffffffffffffffffffffffffffffffffffffffffffffffffffffffffffff00ff909116610100171660011790555b603380547fffffffffffffffffffffffff00000000000000000000000000000000000000001673ffffffffffffffffffffffffffffffffffffffff84169081179091556040516000907f8be0079c531659141344cd1fd0a4f28419497f9722a3daafe3b4186f6b6457e0908290a3801561024857600080547fffffffffffffffffffffffffffffffffffffffffffffffffffffffffffff00ff1690555050565b600054610100900460ff1680610b805750610b806108c0565b80610b8e575060005460ff16155b610be3576040517f08c379a000000000000000000000000000000000000000000000000000000000815260040180806020018281038252602e8152602001806111ba602e913960400191505060405180910390fd5b600054610100900460ff16158015610c4957600080547fffffffffffffffffffffffffffffffffffffffffffffffffffffffffffffff007fffffffffffffffffffffffffffffffffffffffffffffffffffffffffffff00ff909116610100171660011790555b606580547fffffffffffffffffffffffffffffffffffffffffffffffffffffffffffffff0016905580156109e257600080547fffffffffffffffffffffffffffffffffffffffffffffffffffffffffffff00ff16905550565b3390565b6040805173ffffffffffffffffffffffffffffffffffffffff8416602482015260448082018490528251808303909101815260649091019091526020810180517bffffffffffffffffffffffffffffffffffffffffffffffffffffffff167fa9059cbb0000000000000000000000000000000000000000000000000000000017905261070f9084906000610d90826040518060400160405280602081526020017f5361666545524332303a206c6f772d6c6576656c2063616c6c206661696c65648152508573ffffffffffffffffffffffffffffffffffffffff16610e069092919063ffffffff16565b80519091501561070f57808060200190516020811015610daf57600080fd5b505161070f576040517f08c379a000000000000000000000000000000000000000000000000000000000815260040180806020018281038252602a8152602001806111e8602a913960400191505060405180910390fd5b6060610e158484600085610e1f565b90505b9392505050565b606082471015610e7a576040517f08c379a00000000000000000000000000000000000000000000000000000000081526004018080602001828103825260268152602001806111946026913960400191505060405180910390fd5b610e83856108b6565b610eee57604080517f08c379a000000000000000000000000000000000000000000000000000000000815260206004820152601d60248201527f416464726573733a2063616c6c20746f206e6f6e2d636f6e7472616374000000604482015290519081900360640190fd5b6000808673ffffffffffffffffffffffffffffffffffffffff1685876040518082805190602001908083835b60208310610f5757805182527fffffffffffffffffffffffffffffffffffffffffffffffffffffffffffffffe09092019160209182019101610f1a565b6001836020036101000a03801982511681845116808217855250505050505090500191505060006040518083038185875af1925050503d8060008114610fb9576040519150601f19603f3d011682016040523d82523d6000602084013e610fbe565b606091505b5091509150610fce828286610fd9565b979650505050505050565b60608315610fe8575081610e18565b825115610ff85782518084602001fd5b816040517f08c379a00000000000000000000000000000000000000000000000000000000081526004018080602001828103825283818151815260200191508051906020019080838360005b8381101561105c578181015183820152602001611044565b50505050905090810190601f1680156110895780820380516001836020036101000a031916815260200191505b509250505060405180910390fd5b803573ffffffffffffffffffffffffffffffffffffffff811681146108bb57600080fd5b6000602082840312156110cc578081fd5b610e1882611097565b6000604082840312156110e6578081fd5b6040516040810181811067ffffffffffffffff8211171561110357fe5b60405261110f83611097565b815261111d60208401611097565b60208201529392505050565b60006020828403121561113a578081fd5b5051919050565b73ffffffffffffffffffffffffffffffffffffffff91909116815260200190565b90151581526020019056fe4f776e61626c653a206e6577206f776e657220697320746865207a65726f2061646472657373416464726573733a20696e73756666696369656e742062616c616e636520666f722063616c6c496e697469616c697a61626c653a20636f6e747261637420697320616c726561647920696e697469616c697a65645361666545524332303a204552433230206f7065726174696f6e20646964206e6f742073756363656564a26469706673582212200fee1fc054fbada6e8b3af7ab2cae8f58280e369bc69e4489841785c2026883464736f6c63430007060033496e697469616c697a61626c653a20636f6e747261637420697320616c726561647920696e697469616c697a6564",
  "devdoc": {
    "kind": "dev",
    "methods": {
      "owner()": {
        "details": "Returns the address of the current owner."
      },
      "paused()": {
        "details": "Returns true if the contract is paused, and false otherwise."
      },
      "renounceOwnership()": {
        "details": "Leaves the contract without owner. It will not be possible to call `onlyOwner` functions anymore. Can only be called by the current owner. NOTE: Renouncing ownership will leave the contract without an owner, thereby removing any functionality that is only available to the owner."
      },
      "transferOwnership(address)": {
        "details": "Transfers ownership of the contract to a new account (`newOwner`). Can only be called by the current owner."
      }
    },
    "version": 1
  },
  "userdoc": {
    "kind": "user",
    "methods": {},
    "version": 1
  },
  "storageLayout": {
    "storage": [
      {
        "astId": 6,
        "contract": "contracts/exchanges/ETHtxAMM/ETHtxAMM.sol:ETHtxAMM",
        "label": "_initialized",
        "offset": 0,
        "slot": "0",
        "type": "t_bool"
      },
      {
        "astId": 9,
        "contract": "contracts/exchanges/ETHtxAMM/ETHtxAMM.sol:ETHtxAMM",
        "label": "_initializing",
        "offset": 1,
        "slot": "0",
        "type": "t_bool"
      },
      {
        "astId": 353,
        "contract": "contracts/exchanges/ETHtxAMM/ETHtxAMM.sol:ETHtxAMM",
        "label": "__gap",
        "offset": 0,
        "slot": "1",
        "type": "t_array(t_uint256)50_storage"
      },
      {
        "astId": 3948,
        "contract": "contracts/exchanges/ETHtxAMM/ETHtxAMM.sol:ETHtxAMM",
        "label": "_owner",
        "offset": 0,
        "slot": "51",
        "type": "t_address"
      },
      {
        "astId": 4067,
        "contract": "contracts/exchanges/ETHtxAMM/ETHtxAMM.sol:ETHtxAMM",
        "label": "__gap",
        "offset": 0,
        "slot": "52",
        "type": "t_array(t_uint256)49_storage"
      },
      {
        "astId": 375,
        "contract": "contracts/exchanges/ETHtxAMM/ETHtxAMM.sol:ETHtxAMM",
        "label": "_paused",
        "offset": 0,
        "slot": "101",
        "type": "t_bool"
      },
      {
        "astId": 466,
        "contract": "contracts/exchanges/ETHtxAMM/ETHtxAMM.sol:ETHtxAMM",
        "label": "__gap",
        "offset": 0,
        "slot": "102",
        "type": "t_array(t_uint256)49_storage"
      },
      {
        "astId": 6729,
        "contract": "contracts/exchanges/ETHtxAMM/ETHtxAMM.sol:ETHtxAMM",
        "label": "_gasOracleDeprecated",
        "offset": 0,
        "slot": "151",
        "type": "t_address"
      },
      {
        "astId": 6731,
        "contract": "contracts/exchanges/ETHtxAMM/ETHtxAMM.sol:ETHtxAMM",
        "label": "_targetCRatioNumDeprecated",
        "offset": 0,
        "slot": "152",
        "type": "t_uint128"
      },
      {
        "astId": 6733,
        "contract": "contracts/exchanges/ETHtxAMM/ETHtxAMM.sol:ETHtxAMM",
        "label": "_targetCRatioDenDeprecated",
        "offset": 16,
        "slot": "152",
        "type": "t_uint128"
      },
      {
        "astId": 6735,
        "contract": "contracts/exchanges/ETHtxAMM/ETHtxAMM.sol:ETHtxAMM",
        "label": "_ethtxDeprecated",
        "offset": 0,
        "slot": "153",
        "type": "t_address"
      },
      {
        "astId": 6737,
        "contract": "contracts/exchanges/ETHtxAMM/ETHtxAMM.sol:ETHtxAMM",
        "label": "_weth",
        "offset": 0,
        "slot": "154",
        "type": "t_address"
      },
      {
        "astId": 6739,
        "contract": "contracts/exchanges/ETHtxAMM/ETHtxAMM.sol:ETHtxAMM",
        "label": "_ethmx",
        "offset": 0,
        "slot": "155",
        "type": "t_address"
      },
      {
        "astId": 6741,
        "contract": "contracts/exchanges/ETHtxAMM/ETHtxAMM.sol:ETHtxAMM",
        "label": "_gethDeprecated",
        "offset": 0,
        "slot": "156",
        "type": "t_uint256"
      },
      {
        "astId": 6745,
        "contract": "contracts/exchanges/ETHtxAMM/ETHtxAMM.sol:ETHtxAMM",
        "label": "__gap",
        "offset": 0,
        "slot": "157",
        "type": "t_array(t_uint256)44_storage"
      }
    ],
    "types": {
      "t_address": {
        "encoding": "inplace",
        "label": "address",
        "numberOfBytes": "20"
      },
      "t_array(t_uint256)44_storage": {
        "base": "t_uint256",
        "encoding": "inplace",
        "label": "uint256[44]",
        "numberOfBytes": "1408"
      },
      "t_array(t_uint256)49_storage": {
        "base": "t_uint256",
        "encoding": "inplace",
        "label": "uint256[49]",
        "numberOfBytes": "1568"
      },
      "t_array(t_uint256)50_storage": {
        "base": "t_uint256",
        "encoding": "inplace",
        "label": "uint256[50]",
        "numberOfBytes": "1600"
      },
      "t_bool": {
        "encoding": "inplace",
        "label": "bool",
        "numberOfBytes": "1"
      },
      "t_uint128": {
        "encoding": "inplace",
        "label": "uint128",
        "numberOfBytes": "16"
      },
      "t_uint256": {
        "encoding": "inplace",
        "label": "uint256",
        "numberOfBytes": "32"
      }
    }
  }
}