{
  "address": "0xA669D05F91B2CBE1e65405BC2E0342613987DF13",
  "abi": [
    {
      "inputs": [
        {
          "internalType": "address",
          "name": "owner_",
          "type": "address"
        }
      ],
      "stateMutability": "nonpayable",
      "type": "constructor"
    },
    {
      "anonymous": false,
      "inputs": [
        {
          "indexed": true,
          "internalType": "address",
          "name": "owner",
          "type": "address"
        },
        {
          "indexed": true,
          "internalType": "address",
          "name": "spender",
          "type": "address"
        },
        {
          "indexed": false,
          "internalType": "uint256",
          "name": "value",
          "type": "uint256"
        }
      ],
      "name": "Approval",
      "type": "event"
    },
    {
      "anonymous": false,
      "inputs": [
        {
          "indexed": true,
          "internalType": "address",
          "name": "author",
          "type": "address"
        },
        {
          "indexed": true,
          "internalType": "address",
          "name": "account",
          "type": "address"
        }
      ],
      "name": "FeeLogicSet",
      "type": "event"
    },
    {
      "anonymous": false,
      "inputs": [
        {
          "indexed": false,
          "internalType": "address",
          "name": "account",
          "type": "address"
        }
      ],
      "name": "Paused",
      "type": "event"
    },
    {
      "anonymous": false,
      "inputs": [
        {
          "indexed": true,
          "internalType": "address",
          "name": "author",
          "type": "address"
        },
        {
          "indexed": false,
          "internalType": "uint256",
          "name": "totalShares",
          "type": "uint256"
        }
      ],
      "name": "Rebased",
      "type": "event"
    },
    {
      "anonymous": false,
      "inputs": [
        {
          "indexed": true,
          "internalType": "address",
          "name": "author",
          "type": "address"
        },
        {
          "indexed": true,
          "internalType": "address",
          "name": "token",
          "type": "address"
        },
        {
          "indexed": true,
          "internalType": "address",
          "name": "to",
          "type": "address"
        },
        {
          "indexed": false,
          "internalType": "uint256",
          "name": "amount",
          "type": "uint256"
        }
      ],
      "name": "Recovered",
      "type": "event"
    },
    {
      "anonymous": false,
      "inputs": [
        {
          "indexed": true,
          "internalType": "bytes32",
          "name": "role",
          "type": "bytes32"
        },
        {
          "indexed": true,
          "internalType": "bytes32",
          "name": "previousAdminRole",
          "type": "bytes32"
        },
        {
          "indexed": true,
          "internalType": "bytes32",
          "name": "newAdminRole",
          "type": "bytes32"
        }
      ],
      "name": "RoleAdminChanged",
      "type": "event"
    },
    {
      "anonymous": false,
      "inputs": [
        {
          "indexed": true,
          "internalType": "bytes32",
          "name": "role",
          "type": "bytes32"
        },
        {
          "indexed": true,
          "internalType": "address",
          "name": "account",
          "type": "address"
        },
        {
          "indexed": true,
          "internalType": "address",
          "name": "sender",
          "type": "address"
        }
      ],
      "name": "RoleGranted",
      "type": "event"
    },
    {
      "anonymous": false,
      "inputs": [
        {
          "indexed": true,
          "internalType": "bytes32",
          "name": "role",
          "type": "bytes32"
        },
        {
          "indexed": true,
          "internalType": "address",
          "name": "account",
          "type": "address"
        },
        {
          "indexed": true,
          "internalType": "address",
          "name": "sender",
          "type": "address"
        }
      ],
      "name": "RoleRevoked",
      "type": "event"
    },
    {
      "anonymous": false,
      "inputs": [
        {
          "indexed": true,
          "internalType": "address",
          "name": "from",
          "type": "address"
        },
        {
          "indexed": true,
          "internalType": "address",
          "name": "to",
          "type": "address"
        },
        {
          "indexed": false,
          "internalType": "uint256",
          "name": "value",
          "type": "uint256"
        }
      ],
      "name": "Transfer",
      "type": "event"
    },
    {
      "anonymous": false,
      "inputs": [
        {
          "indexed": false,
          "internalType": "address",
          "name": "account",
          "type": "address"
        }
      ],
      "name": "Unpaused",
      "type": "event"
    },
    {
      "inputs": [],
      "name": "DEFAULT_ADMIN_ROLE",
      "outputs": [
        {
          "internalType": "bytes32",
          "name": "",
          "type": "bytes32"
        }
      ],
      "stateMutability": "view",
      "type": "function"
    },
    {
      "inputs": [],
      "name": "MINTER_ROLE",
      "outputs": [
        {
          "internalType": "bytes32",
          "name": "",
          "type": "bytes32"
        }
      ],
      "stateMutability": "view",
      "type": "function"
    },
    {
      "inputs": [],
      "name": "REBASER_ROLE",
      "outputs": [
        {
          "internalType": "bytes32",
          "name": "",
          "type": "bytes32"
        }
      ],
      "stateMutability": "view",
      "type": "function"
    },
    {
      "inputs": [
        {
          "internalType": "address",
          "name": "owner",
          "type": "address"
        },
        {
          "internalType": "address",
          "name": "spender",
          "type": "address"
        }
      ],
      "name": "allowance",
      "outputs": [
        {
          "internalType": "uint256",
          "name": "",
          "type": "uint256"
        }
      ],
      "stateMutability": "view",
      "type": "function"
    },
    {
      "inputs": [
        {
          "internalType": "address",
          "name": "spender",
          "type": "address"
        },
        {
          "internalType": "uint256",
          "name": "amount",
          "type": "uint256"
        }
      ],
      "name": "approve",
      "outputs": [
        {
          "internalType": "bool",
          "name": "",
          "type": "bool"
        }
      ],
      "stateMutability": "nonpayable",
      "type": "function"
    },
    {
      "inputs": [
        {
          "internalType": "address",
          "name": "account",
          "type": "address"
        }
      ],
      "name": "balanceOf",
      "outputs": [
        {
          "internalType": "uint256",
          "name": "",
          "type": "uint256"
        }
      ],
      "stateMutability": "view",
      "type": "function"
    },
    {
      "inputs": [
        {
          "internalType": "address",
          "name": "account",
          "type": "address"
        },
        {
          "internalType": "uint256",
          "name": "amount",
          "type": "uint256"
        }
      ],
      "name": "burn",
      "outputs": [],
      "stateMutability": "nonpayable",
      "type": "function"
    },
    {
      "inputs": [],
      "name": "decimals",
      "outputs": [
        {
          "internalType": "uint8",
          "name": "",
          "type": "uint8"
        }
      ],
      "stateMutability": "view",
      "type": "function"
    },
    {
      "inputs": [
        {
          "internalType": "address",
          "name": "spender",
          "type": "address"
        },
        {
          "internalType": "uint256",
          "name": "subtractedValue",
          "type": "uint256"
        }
      ],
      "name": "decreaseAllowance",
      "outputs": [
        {
          "internalType": "bool",
          "name": "",
          "type": "bool"
        }
      ],
      "stateMutability": "nonpayable",
      "type": "function"
    },
    {
      "inputs": [],
      "name": "feeLogic",
      "outputs": [
        {
          "internalType": "address",
          "name": "",
          "type": "address"
        }
      ],
      "stateMutability": "view",
      "type": "function"
    },
    {
      "inputs": [
        {
          "internalType": "bytes32",
          "name": "role",
          "type": "bytes32"
        }
      ],
      "name": "getRoleAdmin",
      "outputs": [
        {
          "internalType": "bytes32",
          "name": "",
          "type": "bytes32"
        }
      ],
      "stateMutability": "view",
      "type": "function"
    },
    {
      "inputs": [
        {
          "internalType": "bytes32",
          "name": "role",
          "type": "bytes32"
        },
        {
          "internalType": "address",
          "name": "account",
          "type": "address"
        }
      ],
      "name": "grantRole",
      "outputs": [],
      "stateMutability": "nonpayable",
      "type": "function"
    },
    {
      "inputs": [
        {
          "internalType": "bytes32",
          "name": "role",
          "type": "bytes32"
        },
        {
          "internalType": "address",
          "name": "account",
          "type": "address"
        }
      ],
      "name": "hasRole",
      "outputs": [
        {
          "internalType": "bool",
          "name": "",
          "type": "bool"
        }
      ],
      "stateMutability": "view",
      "type": "function"
    },
    {
      "inputs": [
        {
          "internalType": "address",
          "name": "spender",
          "type": "address"
        },
        {
          "internalType": "uint256",
          "name": "addedValue",
          "type": "uint256"
        }
      ],
      "name": "increaseAllowance",
      "outputs": [
        {
          "internalType": "bool",
          "name": "",
          "type": "bool"
        }
      ],
      "stateMutability": "nonpayable",
      "type": "function"
    },
    {
      "inputs": [
        {
          "internalType": "address",
          "name": "owner_",
          "type": "address"
        }
      ],
      "name": "init",
      "outputs": [],
      "stateMutability": "nonpayable",
      "type": "function"
    },
    {
      "inputs": [],
      "name": "lastRebaseTime",
      "outputs": [
        {
          "internalType": "uint256",
          "name": "",
          "type": "uint256"
        }
      ],
      "stateMutability": "view",
      "type": "function"
    },
    {
      "inputs": [
        {
          "internalType": "address",
          "name": "account",
          "type": "address"
        },
        {
          "internalType": "uint256",
          "name": "amount",
          "type": "uint256"
        }
      ],
      "name": "mint",
      "outputs": [],
      "stateMutability": "nonpayable",
      "type": "function"
    },
    {
      "inputs": [],
      "name": "name",
      "outputs": [
        {
          "internalType": "string",
          "name": "",
          "type": "string"
        }
      ],
      "stateMutability": "view",
      "type": "function"
    },
    {
      "inputs": [],
      "name": "pause",
      "outputs": [],
      "stateMutability": "nonpayable",
      "type": "function"
    },
    {
      "inputs": [],
      "name": "paused",
      "outputs": [
        {
          "internalType": "bool",
          "name": "",
          "type": "bool"
        }
      ],
      "stateMutability": "view",
      "type": "function"
    },
    {
      "inputs": [
        {
          "components": [
            {
              "internalType": "address",
              "name": "feeLogic",
              "type": "address"
            },
            {
              "internalType": "address[]",
              "name": "minters",
              "type": "address[]"
            },
            {
              "internalType": "address[]",
              "name": "rebasers",
              "type": "address[]"
            }
          ],
          "internalType": "struct ETHtx.ETHtxArgs",
          "name": "_args",
          "type": "tuple"
        }
      ],
      "name": "postInit",
      "outputs": [],
      "stateMutability": "nonpayable",
      "type": "function"
    },
    {
      "inputs": [
        {
          "internalType": "address",
          "name": "feeLogic_",
          "type": "address"
        },
        {
          "internalType": "address[]",
          "name": "rebasers",
          "type": "address[]"
        }
      ],
      "name": "postUpgrade",
      "outputs": [],
      "stateMutability": "nonpayable",
      "type": "function"
    },
    {
      "inputs": [],
      "name": "rebase",
      "outputs": [],
      "stateMutability": "nonpayable",
      "type": "function"
    },
    {
      "inputs": [
        {
          "internalType": "address",
          "name": "token",
          "type": "address"
        },
        {
          "internalType": "address",
          "name": "to",
          "type": "address"
        },
        {
          "internalType": "uint256",
          "name": "amount",
          "type": "uint256"
        }
      ],
      "name": "recoverERC20",
      "outputs": [],
      "stateMutability": "nonpayable",
      "type": "function"
    },
    {
      "inputs": [
        {
          "internalType": "bytes32",
          "name": "role",
          "type": "bytes32"
        },
        {
          "internalType": "address",
          "name": "account",
          "type": "address"
        }
      ],
      "name": "renounceRole",
      "outputs": [],
      "stateMutability": "nonpayable",
      "type": "function"
    },
    {
      "inputs": [
        {
          "internalType": "bytes32",
          "name": "role",
          "type": "bytes32"
        },
        {
          "internalType": "address",
          "name": "account",
          "type": "address"
        }
      ],
      "name": "revokeRole",
      "outputs": [],
      "stateMutability": "nonpayable",
      "type": "function"
    },
    {
      "inputs": [
        {
          "internalType": "address",
          "name": "account",
          "type": "address"
        }
      ],
      "name": "setFeeLogic",
      "outputs": [],
      "stateMutability": "nonpayable",
      "type": "function"
    },
    {
      "inputs": [
        {
          "internalType": "address",
          "name": "account",
          "type": "address"
        }
      ],
      "name": "sharesBalanceOf",
      "outputs": [
        {
          "internalType": "uint256",
          "name": "",
          "type": "uint256"
        }
      ],
      "stateMutability": "view",
      "type": "function"
    },
    {
      "inputs": [],
      "name": "sharesPerTokenX18",
      "outputs": [
        {
          "internalType": "uint256",
          "name": "",
          "type": "uint256"
        }
      ],
      "stateMutability": "view",
      "type": "function"
    },
    {
      "inputs": [],
      "name": "symbol",
      "outputs": [
        {
          "internalType": "string",
          "name": "",
          "type": "string"
        }
      ],
      "stateMutability": "view",
      "type": "function"
    },
    {
      "inputs": [],
      "name": "totalShares",
      "outputs": [
        {
          "internalType": "uint256",
          "name": "",
          "type": "uint256"
        }
      ],
      "stateMutability": "view",
      "type": "function"
    },
    {
      "inputs": [],
      "name": "totalSupply",
      "outputs": [
        {
          "internalType": "uint256",
          "name": "",
          "type": "uint256"
        }
      ],
      "stateMutability": "view",
      "type": "function"
    },
    {
      "inputs": [
        {
          "internalType": "address",
          "name": "recipient",
          "type": "address"
        },
        {
          "internalType": "uint256",
          "name": "amount",
          "type": "uint256"
        }
      ],
      "name": "transfer",
      "outputs": [
        {
          "internalType": "bool",
          "name": "",
          "type": "bool"
        }
      ],
      "stateMutability": "nonpayable",
      "type": "function"
    },
    {
      "inputs": [
        {
          "internalType": "address",
          "name": "sender",
          "type": "address"
        },
        {
          "internalType": "address",
          "name": "recipient",
          "type": "address"
        },
        {
          "internalType": "uint256",
          "name": "amount",
          "type": "uint256"
        }
      ],
      "name": "transferFrom",
      "outputs": [
        {
          "internalType": "bool",
          "name": "",
          "type": "bool"
        }
      ],
      "stateMutability": "nonpayable",
      "type": "function"
    },
    {
      "inputs": [],
      "name": "unpause",
      "outputs": [],
      "stateMutability": "nonpayable",
      "type": "function"
    }
  ],
  "transactionHash": "0xe0d8c8040021b1aef16d36c091d93d460dce1cf9ace7f618899ca4aed355682d",
  "args": [
    "0x5757Dd711EaE80e181E07CdbCe43359Ac1048394"
  ],
  "solcInputHash": "eabe3fbce2e086b31b41212778856ffc",
  "bytecode": "0x60806040523480156200001157600080fd5b5060405162003b2938038062003b2983398101604081905262000034916200035a565b6200003f8162000046565b506200038a565b600054610100900460ff16806200006257506200006262000112565b8062000071575060005460ff16155b620000ae5760405162461bcd60e51b815260040180806020018281038252602e81526020018062003afb602e913960400191505060405180910390fd5b600054610100900460ff16158015620000da576000805460ff1961ff0019909116610100171660011790555b620000e462000130565b620000ee620001da565b620000fb6000836200028d565b80156200010e576000805461ff00191690555b5050565b60006200012a306200029960201b62001b331760201c565b15905090565b600054610100900460ff16806200014c57506200014c62000112565b806200015b575060005460ff16155b620001985760405162461bcd60e51b815260040180806020018281038252602e81526020018062003afb602e913960400191505060405180910390fd5b600054610100900460ff16158015620001c4576000805460ff1961ff0019909116610100171660011790555b8015620001d7576000805461ff00191690555b50565b600054610100900460ff1680620001f65750620001f662000112565b8062000205575060005460ff16155b620002425760405162461bcd60e51b815260040180806020018281038252602e81526020018062003afb602e913960400191505060405180910390fd5b600054610100900460ff161580156200026e576000805460ff1961ff0019909116610100171660011790555b6065805460ff191690558015620001d7576000805461ff001916905550565b6200010e82826200029f565b3b151590565b620002ab82826200032b565b6200010e5760008281526034602090815260408083206001600160a01b03851684529091529020805460ff19166001179055620002e762000356565b6001600160a01b0316816001600160a01b0316837f2f8788117e7eff1d82e926ec794901d17c78024a50270940304540a733656f0d60405160405180910390a45050565b60009182526034602090815260408084206001600160a01b0393909316845291905290205460ff1690565b3390565b6000602082840312156200036c578081fd5b81516001600160a01b038116811462000383578182fd5b9392505050565b613761806200039a6000396000f3fe608060405234801561001057600080fd5b50600436106102415760003560e01c80635c975abb11610145578063a217fddf116100bd578063b215eeb51161008c578063d539139311610071578063d539139314610458578063d547741f14610460578063dd62ed3e1461047357610241565b8063b215eeb514610432578063b2fa0edf1461044557610241565b8063a217fddf146103fc578063a457c2d714610404578063a9059cbb14610417578063af14052c1461042a57610241565b806383eb70e51161011457806391d14854116100f957806391d14854146103ce57806395d89b41146103e15780639dc29fac146103e957610241565b806383eb70e5146103be5780638456cb59146103c657610241565b80635c975abb1461038857806370a082311461039057806371fdc0cf146103a357806373971d15146103ab57610241565b80632f2ff15d116101d85780633a98ef39116101a75780633f4ba83a1161018c5780633f4ba83a1461035857806340c10f19146103605780635028db1a1461037357610241565b80633a98ef391461033d5780633c85e4541461034557610241565b80632f2ff15d146102ef578063313ce5671461030257806336568abe14610317578063395093511461032a57610241565b80631924063e116102145780631924063e146102ae57806319ab453c146102b657806323b872dd146102c9578063248a9ca3146102dc57610241565b806306fdde0314610246578063095ea7b3146102645780631171bda91461028457806318160ddd14610299575b600080fd5b61024e610486565b60405161025b9190613257565b60405180910390f35b610277610272366004613091565b6104bd565b60405161025b9190613243565b610297610292366004613003565b6104db565b005b6102a16105fe565b60405161025b919061324e565b6102a1610604565b6102976102c4366004612f93565b61060a565b6102776102d7366004613003565b61073a565b6102a16102ea3660046130bc565b6107dc565b6102976102fd3660046130d4565b6107f4565b61030a610883565b60405161025b9190613562565b6102976103253660046130d4565b610888565b610277610338366004613091565b61091d565b6102a1610978565b610297610353366004612f93565b61097e565b610297610ade565b61029761036e366004613091565b610bd5565b61037b610ceb565b60405161025b91906131f1565b610277610d07565b6102a161039e366004612f93565b610d10565b6102a1610d57565b6102a16103b9366004612f93565b610d5d565b6102a1610d85565b610297610da9565b6102776103dc3660046130d4565b610e9e565b61024e610ed6565b6102976103f7366004613091565b610f0d565b6102a1611023565b610277610412366004613091565b611028565b610277610425366004613091565b61109d565b6102976110b1565b6102976104403660046130f8565b6116e9565b610297610453366004613043565b61189b565b6102a1611a4d565b61029761046e3660046130d4565b611a71565b6102a1610481366004612fcb565b611afb565b60408051808201909152601481527f457468657265756d205472616e73616374696f6e000000000000000000000000602082015290565b60006104d16104ca611b39565b8484611b3d565b5060015b92915050565b60006104e9816103dc611b39565b61055457604080517f08c379a000000000000000000000000000000000000000000000000000000000815260206004820152601c60248201527f416363657373436f6e74726f6c3a206163636573732064656e69656400000000604482015290519081900360640190fd5b61057573ffffffffffffffffffffffffffffffffffffffff85168484611c4c565b8273ffffffffffffffffffffffffffffffffffffffff168473ffffffffffffffffffffffffffffffffffffffff166105ab611b39565b73ffffffffffffffffffffffffffffffffffffffff167ffa6e44909e1c69606f847ee93c3339a424b53b345ed377c38ab410d32e7f70a7856040516105f0919061324e565b60405180910390a450505050565b60995490565b60fe5490565b600054610100900460ff16806106235750610623611cd9565b80610631575060005460ff16155b610686576040517f08c379a000000000000000000000000000000000000000000000000000000000815260040180806020018281038252602e81526020018061360a602e913960400191505060405180910390fd5b600054610100900460ff161580156106ec57600080547fffffffffffffffffffffffffffffffffffffffffffffffffffffffffffffff007fffffffffffffffffffffffffffffffffffffffffffffffffffffffffffff00ff909116610100171660011790555b6106f4611cea565b6106fc611dfd565b610707600083611f38565b801561073657600080547fffffffffffffffffffffffffffffffffffffffffffffffffffffffffffff00ff1690555b5050565b6000610747848484611f42565b6107d184610753611b39565b6107cc856040518060600160405280602d8152602001613593602d913973ffffffffffffffffffffffffffffffffffffffff8a1660009081526098602052604081209061079e611b39565b73ffffffffffffffffffffffffffffffffffffffff16815260208101919091526040016000205491906123e1565b611b3d565b5060015b9392505050565b6000818152603460205260409020600101545b919050565b6107fd826107dc565b610809816103dc611b39565b61087457604080517f08c379a000000000000000000000000000000000000000000000000000000000815260206004820152601c60248201527f416363657373436f6e74726f6c3a206163636573732064656e69656400000000604482015290519081900360640190fd5b61087e8383612492565b505050565b601290565b610890611b39565b73ffffffffffffffffffffffffffffffffffffffff168173ffffffffffffffffffffffffffffffffffffffff1614610913576040517f08c379a000000000000000000000000000000000000000000000000000000000815260040180806020018281038252602f8152602001806136fd602f913960400191505060405180910390fd5b610736828261255e565b60006104d161092a611b39565b846107cc856098600061093b611b39565b73ffffffffffffffffffffffffffffffffffffffff908116825260208083019390935260409182016000908120918c168152925290205490612628565b60fd5490565b600061098c816103dc611b39565b6109f757604080517f08c379a000000000000000000000000000000000000000000000000000000000815260206004820152601c60248201527f416363657373436f6e74726f6c3a206163636573732064656e69656400000000604482015290519081900360640190fd5b73ffffffffffffffffffffffffffffffffffffffff8216610a4d576040517f08c379a0000000000000000000000000000000000000000000000000000000008152600401610a44906134d0565b60405180910390fd5b60c980547fffffffffffffffffffffffff00000000000000000000000000000000000000001673ffffffffffffffffffffffffffffffffffffffff8416908117909155610a98611b39565b73ffffffffffffffffffffffffffffffffffffffff167f62ed5f17e3b035a1692f4d2872793f3ad5394aa811ef5e7d770965e1c14a162b60405160405180910390a35050565b6000610aec816103dc611b39565b610b5757604080517f08c379a000000000000000000000000000000000000000000000000000000000815260206004820152601c60248201527f416363657373436f6e74726f6c3a206163636573732064656e69656400000000604482015290519081900360640190fd5b610b5f610d07565b610bca57604080517f08c379a000000000000000000000000000000000000000000000000000000000815260206004820152601460248201527f5061757361626c653a206e6f7420706175736564000000000000000000000000604482015290519081900360640190fd5b610bd261269c565b50565b7f9f2df0fed2c77648de5860a4cc508cd0818c85b8b8a1ab4ceeef8d981c8956a6610c02816103dc611b39565b610c6d57604080517f08c379a000000000000000000000000000000000000000000000000000000000815260206004820152601c60248201527f416363657373436f6e74726f6c3a206163636573732064656e69656400000000604482015290519081900360640190fd5b610c75610d07565b15610ce157604080517f08c379a000000000000000000000000000000000000000000000000000000000815260206004820152601060248201527f5061757361626c653a2070617573656400000000000000000000000000000000604482015290519081900360640190fd5b61087e838361278a565b60c95473ffffffffffffffffffffffffffffffffffffffff1690565b60655460ff1690565b60fc5473ffffffffffffffffffffffffffffffffffffffff821660009081526097602052604081205490916104d591610d5190670de0b6b3a764000061287d565b906128f0565b60fc5490565b73ffffffffffffffffffffffffffffffffffffffff1660009081526097602052604090205490565b7f5fde63b561377d1441afa201ff619faac2ff8fed70a7fbdbe7a5cb07768c0b7581565b6000610db7816103dc611b39565b610e2257604080517f08c379a000000000000000000000000000000000000000000000000000000000815260206004820152601c60248201527f416363657373436f6e74726f6c3a206163636573732064656e69656400000000604482015290519081900360640190fd5b610e2a610d07565b15610e9657604080517f08c379a000000000000000000000000000000000000000000000000000000000815260206004820152601060248201527f5061757361626c653a2070617573656400000000000000000000000000000000604482015290519081900360640190fd5b610bd2612971565b600091825260346020908152604080842073ffffffffffffffffffffffffffffffffffffffff93909316845291905290205460ff1690565b60408051808201909152600581527f4554487478000000000000000000000000000000000000000000000000000000602082015290565b7f9f2df0fed2c77648de5860a4cc508cd0818c85b8b8a1ab4ceeef8d981c8956a6610f3a816103dc611b39565b610fa557604080517f08c379a000000000000000000000000000000000000000000000000000000000815260206004820152601c60248201527f416363657373436f6e74726f6c3a206163636573732064656e69656400000000604482015290519081900360640190fd5b610fad610d07565b1561101957604080517f08c379a000000000000000000000000000000000000000000000000000000000815260206004820152601060248201527f5061757361626c653a2070617573656400000000000000000000000000000000604482015290519081900360640190fd5b61087e8383612a39565b600081565b60006104d1611035611b39565b846107cc856040518060600160405280602481526020016136b1602491396098600061105f611b39565b73ffffffffffffffffffffffffffffffffffffffff908116825260208083019390935260409182016000908120918d168152925290205491906123e1565b60006104d16110aa611b39565b8484611f42565b7f5fde63b561377d1441afa201ff619faac2ff8fed70a7fbdbe7a5cb07768c0b756110de816103dc611b39565b61114957604080517f08c379a000000000000000000000000000000000000000000000000000000000815260206004820152601c60248201527f416363657373436f6e74726f6c3a206163636573732064656e69656400000000604482015290519081900360640190fd5b611151610d07565b156111bd57604080517f08c379a000000000000000000000000000000000000000000000000000000000815260206004820152601060248201527f5061757361626c653a2070617573656400000000000000000000000000000000604482015290519081900360640190fd5b60006111e660fe546040518060600160405280602e8152602001613659602e91394291906123e1565b60c954604080517f89edeb74000000000000000000000000000000000000000000000000000000008152905192935073ffffffffffffffffffffffffffffffffffffffff9091169182916389edeb74916004808301926020929190829003018186803b15801561125557600080fd5b505afa158015611269573d6000803e3d6000fd5b505050506040513d601f19601f8201168201806040525081019061128d91906131d9565b8210156112c6576040517f08c379a0000000000000000000000000000000000000000000000000000000008152600401610a44906132c8565b60fd54806112d657505050610bd2565b6000808373ffffffffffffffffffffffffffffffffffffffff16636fb59f3b6040518163ffffffff1660e01b8152600401604080518083038186803b15801561131e57600080fd5b505afa158015611332573d6000803e3d6000fd5b505050506040513d601f19601f8201168201806040525081019061135691906131a7565b9150915060008282036fffffffffffffffffffffffffffffffff16611396836fffffffffffffffffffffffffffffffff168661287d90919063ffffffff16565b8161139d57fe5b04905083810360005b8673ffffffffffffffffffffffffffffffffffffffff16631afa23616040518163ffffffff1660e01b815260040160206040518083038186803b1580156113ec57600080fd5b505afa158015611400573d6000803e3d6000fd5b505050506040513d601f19601f8201168201806040525081019061142491906131d9565b811015611581576040517f7fd3c9cc00000000000000000000000000000000000000000000000000000000815260009073ffffffffffffffffffffffffffffffffffffffff891690637fd3c9cc9061148090859060040161324e565b60206040518083038186803b15801561149857600080fd5b505afa1580156114ac573d6000803e3d6000fd5b505050506040513d601f19601f820116820180604052508101906114d09190612faf565b73ffffffffffffffffffffffffffffffffffffffff811660009081526097602052604090205490915080156115775760008787036fffffffffffffffffffffffffffffffff1661153b886fffffffffffffffffffffffffffffffff168461287d90919063ffffffff16565b8161154257fe5b73ffffffffffffffffffffffffffffffffffffffff851660009081526097602052604090209190049081905582900390940393505b50506001016113a6565b5081811061158b57fe5b60008673ffffffffffffffffffffffffffffffffffffffff166366d003ac6040518163ffffffff1660e01b815260040160206040518083038186803b1580156115d357600080fd5b505afa1580156115e7573d6000803e3d6000fd5b505050506040513d601f19601f8201168201806040525081019061160b9190612faf565b73ffffffffffffffffffffffffffffffffffffffff811660009081526097602052604090205490915061163e9083612628565b73ffffffffffffffffffffffffffffffffffffffff821660009081526097602052604090205560fd83905560995461168290610d5185670de0b6b3a764000061287d565b60fc554260fe55611691611b39565b73ffffffffffffffffffffffffffffffffffffffff167f7ffcb46fc8da97759963d80c15d6e13de425555e0e97b6ea83712410312aaad3846040516116d6919061324e565b60405180910390a2505050505050505050565b60006116f7816103dc611b39565b61176257604080517f08c379a000000000000000000000000000000000000000000000000000000000815260206004820152601c60248201527f416363657373436f6e74726f6c3a206163636573732064656e69656400000000604482015290519081900360640190fd5b600061176c611b39565b835160c980547fffffffffffffffffffffffff00000000000000000000000000000000000000001673ffffffffffffffffffffffffffffffffffffffff92831690811790915560405192935091908316907f62ed5f17e3b035a1692f4d2872793f3ad5394aa811ef5e7d770965e1c14a162b90600090a360005b83602001515181101561183c576118347f9f2df0fed2c77648de5860a4cc508cd0818c85b8b8a1ab4ceeef8d981c8956a68560200151838151811061182757fe5b6020026020010151611f38565b6001016117e6565b5060005b836040015151811015611889576118817f5fde63b561377d1441afa201ff619faac2ff8fed70a7fbdbe7a5cb07768c0b758560400151838151811061182757fe5b600101611840565b5050670de0b6b3a764000060fc555050565b60006118a5611b39565b60335490915073ffffffffffffffffffffffffffffffffffffffff8083169116146118fc576040517f08c379a0000000000000000000000000000000000000000000000000000000008152600401610a4490613473565b60c980547fffffffffffffffffffffffff00000000000000000000000000000000000000001673ffffffffffffffffffffffffffffffffffffffff85811691821790925560405190918316907f62ed5f17e3b035a1692f4d2872793f3ad5394aa811ef5e7d770965e1c14a162b90600090a360995460fd55670de0b6b3a764000060fc5561198b600082611f38565b60fb546119cf907f9f2df0fed2c77648de5860a4cc508cd0818c85b8b8a1ab4ceeef8d981c8956a69073ffffffffffffffffffffffffffffffffffffffff16611f38565b60005b8251811015611a1357611a0b7f5fde63b561377d1441afa201ff619faac2ff8fed70a7fbdbe7a5cb07768c0b7584838151811061182757fe5b6001016119d2565b505060fb80547fffffffffffffffffffffffff00000000000000000000000000000000000000009081169091556033805490911690555050565b7f9f2df0fed2c77648de5860a4cc508cd0818c85b8b8a1ab4ceeef8d981c8956a681565b611a7a826107dc565b611a86816103dc611b39565b611af157604080517f08c379a000000000000000000000000000000000000000000000000000000000815260206004820152601c60248201527f416363657373436f6e74726f6c3a206163636573732064656e69656400000000604482015290519081900360640190fd5b61087e838361255e565b73ffffffffffffffffffffffffffffffffffffffff918216600090815260986020908152604080832093909416825291909152205490565b3b151590565b3390565b73ffffffffffffffffffffffffffffffffffffffff8316611b8a576040517f08c379a0000000000000000000000000000000000000000000000000000000008152600401610a44906132ff565b73ffffffffffffffffffffffffffffffffffffffff8216611bd7576040517f08c379a0000000000000000000000000000000000000000000000000000000008152600401610a449061335c565b73ffffffffffffffffffffffffffffffffffffffff80841660008181526098602090815260408083209487168084529490915290819020849055517f8c5be1e5ebec7d5bd14f71427d1e84f3dd0314c0f7b2291e5b200ac8c7c3b92590611c3f90859061324e565b60405180910390a3505050565b6040805173ffffffffffffffffffffffffffffffffffffffff8416602482015260448082018490528251808303909101815260649091019091526020810180517bffffffffffffffffffffffffffffffffffffffffffffffffffffffff167fa9059cbb0000000000000000000000000000000000000000000000000000000017905261087e908490612b3e565b6000611ce430611b33565b15905090565b600054610100900460ff1680611d035750611d03611cd9565b80611d11575060005460ff16155b611d66576040517f08c379a000000000000000000000000000000000000000000000000000000000815260040180806020018281038252602e81526020018061360a602e913960400191505060405180910390fd5b600054610100900460ff16158015611dcc57600080547fffffffffffffffffffffffffffffffffffffffffffffffffffffffffffffff007fffffffffffffffffffffffffffffffffffffffffffffffffffffffffffff00ff909116610100171660011790555b8015610bd257600080547fffffffffffffffffffffffffffffffffffffffffffffffffffffffffffff00ff16905550565b600054610100900460ff1680611e165750611e16611cd9565b80611e24575060005460ff16155b611e79576040517f08c379a000000000000000000000000000000000000000000000000000000000815260040180806020018281038252602e81526020018061360a602e913960400191505060405180910390fd5b600054610100900460ff16158015611edf57600080547fffffffffffffffffffffffffffffffffffffffffffffffffffffffffffffff007fffffffffffffffffffffffffffffffffffffffffffffffffffffffffffff00ff909116610100171660011790555b606580547fffffffffffffffffffffffffffffffffffffffffffffffffffffffffffffff001690558015610bd257600080547fffffffffffffffffffffffffffffffffffffffffffffffffffffffffffff00ff16905550565b6107368282612492565b73ffffffffffffffffffffffffffffffffffffffff8316611f8f576040517f08c379a0000000000000000000000000000000000000000000000000000000008152600401610a44906133b9565b73ffffffffffffffffffffffffffffffffffffffff8216611fdc576040517f08c379a0000000000000000000000000000000000000000000000000000000008152600401610a4490613505565b60fc5480612016576040517f08c379a0000000000000000000000000000000000000000000000000000000008152600401610a4490613416565b600061202e670de0b6b3a7640000610d51858561287d565b905061207a816040518060600160405280602881526020016136d56028913973ffffffffffffffffffffffffffffffffffffffff881660009081526097602052604090205491906123e1565b73ffffffffffffffffffffffffffffffffffffffff8087166000908152609760205260408082209390935560c95492517fbe3945e40000000000000000000000000000000000000000000000000000000081529290911691829063be3945e4906120ec908a908a908890600401613212565b60206040518083038186803b15801561210457600080fd5b505afa158015612118573d6000803e3d6000fd5b505050506040513d601f19601f8201168201806040525081019061213c91906131d9565b9050600061214a8483612c16565b73ffffffffffffffffffffffffffffffffffffffff881660009081526097602052604090205490915061217d9082612628565b73ffffffffffffffffffffffffffffffffffffffff80891660008181526097602052604090209290925589167fddf252ad1be2c89b69c2b068fc378daa952ba7f163c4a11628f55a4df523b3ef87670de0b6b3a76400008502816121dd57fe5b046040516121eb919061324e565b60405180910390a381156123d75760008373ffffffffffffffffffffffffffffffffffffffff166366d003ac6040518163ffffffff1660e01b815260040160206040518083038186803b15801561224157600080fd5b505afa158015612255573d6000803e3d6000fd5b505050506040513d601f19601f820116820180604052508101906122799190612faf565b73ffffffffffffffffffffffffffffffffffffffff81166000908152609760205260409020549091506122ac9084612628565b73ffffffffffffffffffffffffffffffffffffffff821660009081526097602052604081209190915586670de0b6b3a76400008502816122e857fe5b0490508173ffffffffffffffffffffffffffffffffffffffff168a73ffffffffffffffffffffffffffffffffffffffff167fddf252ad1be2c89b69c2b068fc378daa952ba7f163c4a11628f55a4df523b3ef83604051612348919061324e565b60405180910390a36040517f98d078b400000000000000000000000000000000000000000000000000000000815273ffffffffffffffffffffffffffffffffffffffff8616906398d078b4906123a290849060040161324e565b600060405180830381600087803b1580156123bc57600080fd5b505af11580156123d0573d6000803e3d6000fd5b5050505050505b5050505050505050565b6000818484111561248a576040517f08c379a00000000000000000000000000000000000000000000000000000000081526004018080602001828103825283818151815260200191508051906020019080838360005b8381101561244f578181015183820152602001612437565b50505050905090810190601f16801561247c5780820380516001836020036101000a031916815260200191505b509250505060405180910390fd5b505050900390565b61249c8282610e9e565b61073657600082815260346020908152604080832073ffffffffffffffffffffffffffffffffffffffff85168452909152902080547fffffffffffffffffffffffffffffffffffffffffffffffffffffffffffffff00166001179055612500611b39565b73ffffffffffffffffffffffffffffffffffffffff168173ffffffffffffffffffffffffffffffffffffffff16837f2f8788117e7eff1d82e926ec794901d17c78024a50270940304540a733656f0d60405160405180910390a45050565b6125688282610e9e565b1561073657600082815260346020908152604080832073ffffffffffffffffffffffffffffffffffffffff85168452909152902080547fffffffffffffffffffffffffffffffffffffffffffffffffffffffffffffff001690556125ca611b39565b73ffffffffffffffffffffffffffffffffffffffff168173ffffffffffffffffffffffffffffffffffffffff16837ff6391f5c32d9c69d2a47ea670b442974b53935d1edc7fd64eb21e047a839171b60405160405180910390a45050565b6000828201838110156107d557604080517f08c379a000000000000000000000000000000000000000000000000000000000815260206004820152601b60248201527f536166654d6174683a206164646974696f6e206f766572666c6f770000000000604482015290519081900360640190fd5b6126a4610d07565b61270f57604080517f08c379a000000000000000000000000000000000000000000000000000000000815260206004820152601460248201527f5061757361626c653a206e6f7420706175736564000000000000000000000000604482015290519081900360640190fd5b606580547fffffffffffffffffffffffffffffffffffffffffffffffffffffffffffffff001690557f5db9ee0a495bf2e6ff9c91a7834c1ba4fdd244a5e8aa4e537bd38aeae4b073aa612760611b39565b6040805173ffffffffffffffffffffffffffffffffffffffff9092168252519081900360200190a1565b6000670de0b6b3a76400006127aa60fc548461287d90919063ffffffff16565b816127b157fe5b0490506127c98160fd5461262890919063ffffffff16565b60fd5573ffffffffffffffffffffffffffffffffffffffff83166000908152609760205260409020546127fc9082612628565b73ffffffffffffffffffffffffffffffffffffffff841660009081526097602052604090205560995461282f9083612628565b60995560405173ffffffffffffffffffffffffffffffffffffffff8416906000907fddf252ad1be2c89b69c2b068fc378daa952ba7f163c4a11628f55a4df523b3ef90611c3f90869061324e565b60008261288c575060006104d5565b8282028284828161289957fe5b04146107d5576040517f08c379a00000000000000000000000000000000000000000000000000000000081526004018080602001828103825260218152602001806136386021913960400191505060405180910390fd5b600080821161296057604080517f08c379a000000000000000000000000000000000000000000000000000000000815260206004820152601a60248201527f536166654d6174683a206469766973696f6e206279207a65726f000000000000604482015290519081900360640190fd5b81838161296957fe5b049392505050565b612979610d07565b156129e557604080517f08c379a000000000000000000000000000000000000000000000000000000000815260206004820152601060248201527f5061757361626c653a2070617573656400000000000000000000000000000000604482015290519081900360640190fd5b606580547fffffffffffffffffffffffffffffffffffffffffffffffffffffffffffffff001660011790557f62e78cea01bee320cd4e420270b5ea74000d11b0c9f74754ebdbfc544b05a258612760611b39565b6000670de0b6b3a7640000612a5960fc548461287d90919063ffffffff16565b81612a6057fe5b049050612aad816040518060600160405280602481526020016135e66024913973ffffffffffffffffffffffffffffffffffffffff861660009081526097602052604090205491906123e1565b73ffffffffffffffffffffffffffffffffffffffff841660009081526097602052604090205560fd54612ae09082612c16565b60fd55609954612af09083612c16565b60995560405160009073ffffffffffffffffffffffffffffffffffffffff8516907fddf252ad1be2c89b69c2b068fc378daa952ba7f163c4a11628f55a4df523b3ef90611c3f90869061324e565b6000612ba0826040518060400160405280602081526020017f5361666545524332303a206c6f772d6c6576656c2063616c6c206661696c65648152508573ffffffffffffffffffffffffffffffffffffffff16612c8d9092919063ffffffff16565b80519091501561087e57808060200190516020811015612bbf57600080fd5b505161087e576040517f08c379a000000000000000000000000000000000000000000000000000000000815260040180806020018281038252602a815260200180613687602a913960400191505060405180910390fd5b600082821115612c8757604080517f08c379a000000000000000000000000000000000000000000000000000000000815260206004820152601e60248201527f536166654d6174683a207375627472616374696f6e206f766572666c6f770000604482015290519081900360640190fd5b50900390565b6060612c9c8484600085612ca4565b949350505050565b606082471015612cff576040517f08c379a00000000000000000000000000000000000000000000000000000000081526004018080602001828103825260268152602001806135c06026913960400191505060405180910390fd5b612d0885611b33565b612d7357604080517f08c379a000000000000000000000000000000000000000000000000000000000815260206004820152601d60248201527f416464726573733a2063616c6c20746f206e6f6e2d636f6e7472616374000000604482015290519081900360640190fd5b6000808673ffffffffffffffffffffffffffffffffffffffff1685876040518082805190602001908083835b60208310612ddc57805182527fffffffffffffffffffffffffffffffffffffffffffffffffffffffffffffffe09092019160209182019101612d9f565b6001836020036101000a03801982511681845116808217855250505050505090500191505060006040518083038185875af1925050503d8060008114612e3e576040519150601f19603f3d011682016040523d82523d6000602084013e612e43565b606091505b5091509150612e53828286612e5e565b979650505050505050565b60608315612e6d5750816107d5565b825115612e7d5782518084602001fd5b6040517f08c379a000000000000000000000000000000000000000000000000000000000815260206004820181815284516024840152845185939192839260440191908501908083836000831561244f578181015183820152602001612437565b600082601f830112612eee578081fd5b8135602067ffffffffffffffff80831115612f0557fe5b81830260405183828201018181108482111715612f1e57fe5b60405284815283810192508684018288018501891015612f3c578687fd5b8692505b85831015612f67578035612f5381613570565b845292840192600192909201918401612f40565b50979650505050505050565b80516fffffffffffffffffffffffffffffffff811681146107ef57600080fd5b600060208284031215612fa4578081fd5b81356107d581613570565b600060208284031215612fc0578081fd5b81516107d581613570565b60008060408385031215612fdd578081fd5b8235612fe881613570565b91506020830135612ff881613570565b809150509250929050565b600080600060608486031215613017578081fd5b833561302281613570565b9250602084013561303281613570565b929592945050506040919091013590565b60008060408385031215613055578182fd5b823561306081613570565b9150602083013567ffffffffffffffff81111561307b578182fd5b61308785828601612ede565b9150509250929050565b600080604083850312156130a3578182fd5b82356130ae81613570565b946020939093013593505050565b6000602082840312156130cd578081fd5b5035919050565b600080604083850312156130e6578182fd5b823591506020830135612ff881613570565b600060208284031215613109578081fd5b813567ffffffffffffffff80821115613120578283fd5b9083019060608286031215613133578283fd5b60405160608101818110838211171561314857fe5b604052823561315681613570565b8152602083013582811115613169578485fd5b61317587828601612ede565b60208301525060408301358281111561318c578485fd5b61319887828601612ede565b60408301525095945050505050565b600080604083850312156131b9578182fd5b6131c283612f73565b91506131d060208401612f73565b90509250929050565b6000602082840312156131ea578081fd5b5051919050565b73ffffffffffffffffffffffffffffffffffffffff91909116815260200190565b73ffffffffffffffffffffffffffffffffffffffff9384168152919092166020820152604081019190915260600190565b901515815260200190565b90815260200190565b6000602080835283518082850152825b8181101561328357858101830151858201604001528201613267565b818111156132945783604083870101525b50601f017fffffffffffffffffffffffffffffffffffffffffffffffffffffffffffffffe016929092016040019392505050565b60208082526017908201527f45544874783a3a7265626173653a20746f6f20736f6f6e000000000000000000604082015260600190565b60208082526026908201527f45544874783a3a5f617070726f76653a2066726f6d20746865207a65726f206160408201527f6464726573730000000000000000000000000000000000000000000000000000606082015260800190565b60208082526024908201527f45544874783a3a5f617070726f76653a20746f20746865207a65726f2061646460408201527f7265737300000000000000000000000000000000000000000000000000000000606082015260800190565b60208082526027908201527f45544874783a3a5f7472616e736665723a2066726f6d20746865207a65726f2060408201527f6164647265737300000000000000000000000000000000000000000000000000606082015260800190565b60208082526025908201527f45544874783a3a5f7472616e736665723a207a65726f2073686172657350657260408201527f546f6b656e000000000000000000000000000000000000000000000000000000606082015260800190565b6020808252602b908201527f45544874783a3a706f7374557067726164653a2063616c6c6572206973206e6f60408201527f7420746865206f776e6572000000000000000000000000000000000000000000606082015260800190565b6020808252818101527f45544874783a3a7365744665654c6f6769633a207a65726f2061646472657373604082015260600190565b60208082526025908201527f45544874783a3a5f7472616e736665723a20746f20746865207a65726f20616460408201527f6472657373000000000000000000000000000000000000000000000000000000606082015260800190565b60ff91909116815260200190565b73ffffffffffffffffffffffffffffffffffffffff81168114610bd257600080fdfe45544874783a3a7472616e7366657246726f6d3a20616d6f756e74206578636565647320616c6c6f77616e6365416464726573733a20696e73756666696369656e742062616c616e636520666f722063616c6c45544874783a3a5f6275726e3a20616d6f756e7420657863656564732062616c616e6365496e697469616c697a61626c653a20636f6e747261637420697320616c726561647920696e697469616c697a6564536166654d6174683a206d756c7469706c69636174696f6e206f766572666c6f7745544874783a3a7265626173653a20626c6f636b206973206f6c646572207468616e206c617374207265626173655361666545524332303a204552433230206f7065726174696f6e20646964206e6f74207375636365656445544874783a3a6465637265617365416c6c6f77616e63653a2062656c6f77207a65726f45544874783a3a5f7472616e736665723a20616d6f756e7420657863656564732062616c616e6365416363657373436f6e74726f6c3a2063616e206f6e6c792072656e6f756e636520726f6c657320666f722073656c66a26469706673582212206b64c5db94f79b85e56df106e57ea5a8b254bd66c042f978b165f0041c3070bf64736f6c63430007060033496e697469616c697a61626c653a20636f6e747261637420697320616c726561647920696e697469616c697a6564",
  "devdoc": {
    "kind": "dev",
    "methods": {
      "allowance(address,address)": {
        "details": "Returns the remaining number of tokens that `spender` will be allowed to spend on behalf of `owner` through {transferFrom}. This is zero by default. This value changes when {approve} or {transferFrom} are called."
      },
      "approve(address,uint256)": {
        "details": "Sets `amount` as the allowance of `spender` over the caller's tokens. Returns a boolean value indicating whether the operation succeeded. IMPORTANT: Beware that changing an allowance with this method brings the risk that someone may use both the old and the new allowance by unfortunate transaction ordering. One possible solution to mitigate this race condition is to first reduce the spender's allowance to 0 and set the desired value afterwards: https://github.com/ethereum/EIPs/issues/20#issuecomment-263524729 Emits an {Approval} event."
      },
      "balanceOf(address)": {
        "details": "Returns the amount of tokens owned by `account`."
      },
      "decimals()": {
        "details": "Returns the decimals places of the token."
      },
      "name()": {
        "details": "Returns the name of the token."
      },
      "paused()": {
        "details": "Returns true if the contract is paused, and false otherwise."
      },
      "symbol()": {
        "details": "Returns the symbol of the token."
      },
      "totalSupply()": {
        "details": "Returns the amount of tokens in existence."
      },
      "transfer(address,uint256)": {
        "details": "Moves `amount` tokens from the caller's account to `recipient`. Returns a boolean value indicating whether the operation succeeded. Emits a {Transfer} event."
      },
      "transferFrom(address,address,uint256)": {
        "details": "Moves `amount` tokens from `sender` to `recipient` using the allowance mechanism. `amount` is then deducted from the caller's allowance. Returns a boolean value indicating whether the operation succeeded. Emits a {Transfer} event."
      }
    },
    "version": 1
  },
  "userdoc": {
    "kind": "user",
    "methods": {},
    "version": 1
  },
  "storageLayout": {
    "storage": [
      {
        "astId": 6,
        "contract": "contracts/tokens/ETHtx/ETHtx.sol:ETHtx",
        "label": "_initialized",
        "offset": 0,
        "slot": "0",
        "type": "t_bool"
      },
      {
        "astId": 9,
        "contract": "contracts/tokens/ETHtx/ETHtx.sol:ETHtx",
        "label": "_initializing",
        "offset": 1,
        "slot": "0",
        "type": "t_bool"
      },
      {
        "astId": 353,
        "contract": "contracts/tokens/ETHtx/ETHtx.sol:ETHtx",
        "label": "__gap",
        "offset": 0,
        "slot": "1",
        "type": "t_array(t_uint256)50_storage"
      },
      {
        "astId": 4317,
        "contract": "contracts/tokens/ETHtx/ETHtx.sol:ETHtx",
        "label": "_ownerDeprecated",
        "offset": 0,
        "slot": "51",
        "type": "t_address"
      },
      {
        "astId": 4321,
        "contract": "contracts/tokens/ETHtx/ETHtx.sol:ETHtx",
        "label": "_roles",
        "offset": 0,
        "slot": "52",
        "type": "t_mapping(t_bytes32,t_struct(RoleData)4315_storage)"
      },
      {
        "astId": 4325,
        "contract": "contracts/tokens/ETHtx/ETHtx.sol:ETHtx",
        "label": "__gap",
        "offset": 0,
        "slot": "53",
        "type": "t_array(t_uint256)48_storage"
      },
      {
        "astId": 375,
        "contract": "contracts/tokens/ETHtx/ETHtx.sol:ETHtx",
        "label": "_paused",
        "offset": 0,
        "slot": "101",
        "type": "t_bool"
      },
      {
        "astId": 466,
        "contract": "contracts/tokens/ETHtx/ETHtx.sol:ETHtx",
        "label": "__gap",
        "offset": 0,
        "slot": "102",
        "type": "t_array(t_uint256)49_storage"
      },
      {
        "astId": 25342,
        "contract": "contracts/tokens/ETHtx/ETHtx.sol:ETHtx",
        "label": "_balances",
        "offset": 0,
        "slot": "151",
        "type": "t_mapping(t_address,t_uint256)"
      },
      {
        "astId": 25348,
        "contract": "contracts/tokens/ETHtx/ETHtx.sol:ETHtx",
        "label": "_allowances",
        "offset": 0,
        "slot": "152",
        "type": "t_mapping(t_address,t_mapping(t_address,t_uint256))"
      },
      {
        "astId": 25350,
        "contract": "contracts/tokens/ETHtx/ETHtx.sol:ETHtx",
        "label": "_totalSupply",
        "offset": 0,
        "slot": "153",
        "type": "t_uint256"
      },
      {
        "astId": 25354,
        "contract": "contracts/tokens/ETHtx/ETHtx.sol:ETHtx",
        "label": "__gap",
        "offset": 0,
        "slot": "154",
        "type": "t_array(t_uint256)47_storage"
      },
      {
        "astId": 26007,
        "contract": "contracts/tokens/ETHtx/ETHtx.sol:ETHtx",
        "label": "_feeLogic",
        "offset": 0,
        "slot": "201",
        "type": "t_address"
      },
      {
        "astId": 26011,
        "contract": "contracts/tokens/ETHtx/ETHtx.sol:ETHtx",
        "label": "__gap",
        "offset": 0,
        "slot": "202",
        "type": "t_array(t_uint256)49_storage"
      },
      {
        "astId": 27521,
        "contract": "contracts/tokens/ETHtx/ETHtx.sol:ETHtx",
        "label": "_minterDeprecated",
        "offset": 0,
        "slot": "251",
        "type": "t_address"
      },
      {
        "astId": 27523,
        "contract": "contracts/tokens/ETHtx/ETHtx.sol:ETHtx",
        "label": "_sharesPerToken",
        "offset": 0,
        "slot": "252",
        "type": "t_uint256"
      },
      {
        "astId": 27525,
        "contract": "contracts/tokens/ETHtx/ETHtx.sol:ETHtx",
        "label": "_totalShares",
        "offset": 0,
        "slot": "253",
        "type": "t_uint256"
      },
      {
        "astId": 27527,
        "contract": "contracts/tokens/ETHtx/ETHtx.sol:ETHtx",
        "label": "_lastRebaseTime",
        "offset": 0,
        "slot": "254",
        "type": "t_uint256"
      },
      {
        "astId": 27531,
        "contract": "contracts/tokens/ETHtx/ETHtx.sol:ETHtx",
        "label": "__gap",
        "offset": 0,
        "slot": "255",
        "type": "t_array(t_uint256)46_storage"
      }
    ],
    "types": {
      "t_address": {
        "encoding": "inplace",
        "label": "address",
        "numberOfBytes": "20"
      },
      "t_array(t_uint256)46_storage": {
        "base": "t_uint256",
        "encoding": "inplace",
        "label": "uint256[46]",
        "numberOfBytes": "1472"
      },
      "t_array(t_uint256)47_storage": {
        "base": "t_uint256",
        "encoding": "inplace",
        "label": "uint256[47]",
        "numberOfBytes": "1504"
      },
      "t_array(t_uint256)48_storage": {
        "base": "t_uint256",
        "encoding": "inplace",
        "label": "uint256[48]",
        "numberOfBytes": "1536"
      },
      "t_array(t_uint256)49_storage": {
        "base": "t_uint256",
        "encoding": "inplace",
        "label": "uint256[49]",
        "numberOfBytes": "1568"
      },
      "t_array(t_uint256)50_storage": {
        "base": "t_uint256",
        "encoding": "inplace",
        "label": "uint256[50]",
        "numberOfBytes": "1600"
      },
      "t_bool": {
        "encoding": "inplace",
        "label": "bool",
        "numberOfBytes": "1"
      },
      "t_bytes32": {
        "encoding": "inplace",
        "label": "bytes32",
        "numberOfBytes": "32"
      },
      "t_mapping(t_address,t_bool)": {
        "encoding": "mapping",
        "key": "t_address",
        "label": "mapping(address => bool)",
        "numberOfBytes": "32",
        "value": "t_bool"
      },
      "t_mapping(t_address,t_mapping(t_address,t_uint256))": {
        "encoding": "mapping",
        "key": "t_address",
        "label": "mapping(address => mapping(address => uint256))",
        "numberOfBytes": "32",
        "value": "t_mapping(t_address,t_uint256)"
      },
      "t_mapping(t_address,t_uint256)": {
        "encoding": "mapping",
        "key": "t_address",
        "label": "mapping(address => uint256)",
        "numberOfBytes": "32",
        "value": "t_uint256"
      },
      "t_mapping(t_bytes32,t_struct(RoleData)4315_storage)": {
        "encoding": "mapping",
        "key": "t_bytes32",
        "label": "mapping(bytes32 => struct RbacFromOwnableData.RoleData)",
        "numberOfBytes": "32",
        "value": "t_struct(RoleData)4315_storage"
      },
      "t_struct(RoleData)4315_storage": {
        "encoding": "inplace",
        "label": "struct RbacFromOwnableData.RoleData",
        "members": [
          {
            "astId": 4312,
            "contract": "contracts/tokens/ETHtx/ETHtx.sol:ETHtx",
            "label": "members",
            "offset": 0,
            "slot": "0",
            "type": "t_mapping(t_address,t_bool)"
          },
          {
            "astId": 4314,
            "contract": "contracts/tokens/ETHtx/ETHtx.sol:ETHtx",
            "label": "adminRole",
            "offset": 0,
            "slot": "1",
            "type": "t_bytes32"
          }
        ],
        "numberOfBytes": "64"
      },
      "t_uint256": {
        "encoding": "inplace",
        "label": "uint256",
        "numberOfBytes": "32"
      }
    }
  }
}