{
  "address": "0x238852e5f2F5Fe44a320514eF5CdaB441bA7BeA2",
  "abi": [
    {
      "inputs": [
        {
          "components": [
            {
              "internalType": "address",
              "name": "owner",
              "type": "address"
            },
            {
              "internalType": "address",
              "name": "recipient",
              "type": "address"
            },
            {
              "internalType": "uint128",
              "name": "feeRateNumerator",
              "type": "uint128"
            },
            {
              "internalType": "uint128",
              "name": "feeRateDenominator",
              "type": "uint128"
            },
            {
              "components": [
                {
                  "internalType": "address",
                  "name": "account",
                  "type": "address"
                },
                {
                  "internalType": "bool",
                  "name": "isExempt",
                  "type": "bool"
                }
              ],
              "internalType": "struct IFeeLogic.ExemptData[]",
              "name": "exemptions",
              "type": "tuple[]"
            },
            {
              "internalType": "uint256",
              "name": "rebaseInterval",
              "type": "uint256"
            },
            {
              "internalType": "uint128",
              "name": "rebaseFeeRateNum",
              "type": "uint128"
            },
            {
              "internalType": "uint128",
              "name": "rebaseFeeRateDen",
              "type": "uint128"
            },
            {
              "components": [
                {
                  "internalType": "address",
                  "name": "account",
                  "type": "address"
                },
                {
                  "internalType": "bool",
                  "name": "isExempt",
                  "type": "bool"
                }
              ],
              "internalType": "struct IFeeLogic.ExemptData[]",
              "name": "rebaseExemptions",
              "type": "tuple[]"
            }
          ],
          "internalType": "struct FeeLogic.FeeLogicArgs",
          "name": "_args",
          "type": "tuple"
        }
      ],
      "stateMutability": "nonpayable",
      "type": "constructor"
    },
    {
      "anonymous": false,
      "inputs": [
        {
          "indexed": true,
          "internalType": "address",
          "name": "author",
          "type": "address"
        },
        {
          "indexed": true,
          "internalType": "address",
          "name": "account",
          "type": "address"
        }
      ],
      "name": "ExemptAdded",
      "type": "event"
    },
    {
      "anonymous": false,
      "inputs": [
        {
          "indexed": true,
          "internalType": "address",
          "name": "author",
          "type": "address"
        },
        {
          "indexed": true,
          "internalType": "address",
          "name": "account",
          "type": "address"
        }
      ],
      "name": "ExemptRemoved",
      "type": "event"
    },
    {
      "anonymous": false,
      "inputs": [
        {
          "indexed": true,
          "internalType": "address",
          "name": "author",
          "type": "address"
        },
        {
          "indexed": false,
          "internalType": "uint128",
          "name": "numerator",
          "type": "uint128"
        },
        {
          "indexed": false,
          "internalType": "uint128",
          "name": "denominator",
          "type": "uint128"
        }
      ],
      "name": "FeeRateSet",
      "type": "event"
    },
    {
      "anonymous": false,
      "inputs": [
        {
          "indexed": true,
          "internalType": "address",
          "name": "previousOwner",
          "type": "address"
        },
        {
          "indexed": true,
          "internalType": "address",
          "name": "newOwner",
          "type": "address"
        }
      ],
      "name": "OwnershipTransferred",
      "type": "event"
    },
    {
      "anonymous": false,
      "inputs": [
        {
          "indexed": true,
          "internalType": "address",
          "name": "author",
          "type": "address"
        },
        {
          "indexed": true,
          "internalType": "address",
          "name": "account",
          "type": "address"
        }
      ],
      "name": "RebaseExemptAdded",
      "type": "event"
    },
    {
      "anonymous": false,
      "inputs": [
        {
          "indexed": true,
          "internalType": "address",
          "name": "author",
          "type": "address"
        },
        {
          "indexed": true,
          "internalType": "address",
          "name": "account",
          "type": "address"
        }
      ],
      "name": "RebaseExemptRemoved",
      "type": "event"
    },
    {
      "anonymous": false,
      "inputs": [
        {
          "indexed": true,
          "internalType": "address",
          "name": "author",
          "type": "address"
        },
        {
          "indexed": false,
          "internalType": "uint128",
          "name": "numerator",
          "type": "uint128"
        },
        {
          "indexed": false,
          "internalType": "uint128",
          "name": "denominator",
          "type": "uint128"
        }
      ],
      "name": "RebaseFeeRateSet",
      "type": "event"
    },
    {
      "anonymous": false,
      "inputs": [
        {
          "indexed": true,
          "internalType": "address",
          "name": "author",
          "type": "address"
        },
        {
          "indexed": false,
          "internalType": "uint256",
          "name": "interval",
          "type": "uint256"
        }
      ],
      "name": "RebaseIntervalSet",
      "type": "event"
    },
    {
      "anonymous": false,
      "inputs": [
        {
          "indexed": true,
          "internalType": "address",
          "name": "author",
          "type": "address"
        },
        {
          "indexed": true,
          "internalType": "address",
          "name": "account",
          "type": "address"
        }
      ],
      "name": "RecipientSet",
      "type": "event"
    },
    {
      "inputs": [
        {
          "internalType": "uint256",
          "name": "index",
          "type": "uint256"
        }
      ],
      "name": "exemptsAt",
      "outputs": [
        {
          "internalType": "address",
          "name": "",
          "type": "address"
        }
      ],
      "stateMutability": "view",
      "type": "function"
    },
    {
      "inputs": [],
      "name": "exemptsLength",
      "outputs": [
        {
          "internalType": "uint256",
          "name": "",
          "type": "uint256"
        }
      ],
      "stateMutability": "view",
      "type": "function"
    },
    {
      "inputs": [],
      "name": "feeRate",
      "outputs": [
        {
          "internalType": "uint128",
          "name": "numerator",
          "type": "uint128"
        },
        {
          "internalType": "uint128",
          "name": "denominator",
          "type": "uint128"
        }
      ],
      "stateMutability": "view",
      "type": "function"
    },
    {
      "inputs": [
        {
          "internalType": "address",
          "name": "sender",
          "type": "address"
        },
        {
          "internalType": "address",
          "name": "",
          "type": "address"
        },
        {
          "internalType": "uint256",
          "name": "amount",
          "type": "uint256"
        }
      ],
      "name": "getFee",
      "outputs": [
        {
          "internalType": "uint256",
          "name": "",
          "type": "uint256"
        }
      ],
      "stateMutability": "view",
      "type": "function"
    },
    {
      "inputs": [
        {
          "internalType": "uint256",
          "name": "amount",
          "type": "uint256"
        }
      ],
      "name": "getRebaseFee",
      "outputs": [
        {
          "internalType": "uint256",
          "name": "",
          "type": "uint256"
        }
      ],
      "stateMutability": "view",
      "type": "function"
    },
    {
      "inputs": [
        {
          "internalType": "address",
          "name": "account",
          "type": "address"
        }
      ],
      "name": "isExempt",
      "outputs": [
        {
          "internalType": "bool",
          "name": "",
          "type": "bool"
        }
      ],
      "stateMutability": "view",
      "type": "function"
    },
    {
      "inputs": [
        {
          "internalType": "address",
          "name": "account",
          "type": "address"
        }
      ],
      "name": "isRebaseExempt",
      "outputs": [
        {
          "internalType": "bool",
          "name": "",
          "type": "bool"
        }
      ],
      "stateMutability": "view",
      "type": "function"
    },
    {
      "inputs": [
        {
          "internalType": "uint256",
          "name": "",
          "type": "uint256"
        }
      ],
      "name": "notify",
      "outputs": [],
      "stateMutability": "nonpayable",
      "type": "function"
    },
    {
      "inputs": [],
      "name": "owner",
      "outputs": [
        {
          "internalType": "address",
          "name": "",
          "type": "address"
        }
      ],
      "stateMutability": "view",
      "type": "function"
    },
    {
      "inputs": [
        {
          "internalType": "uint256",
          "name": "index",
          "type": "uint256"
        }
      ],
      "name": "rebaseExemptsAt",
      "outputs": [
        {
          "internalType": "address",
          "name": "",
          "type": "address"
        }
      ],
      "stateMutability": "view",
      "type": "function"
    },
    {
      "inputs": [],
      "name": "rebaseExemptsLength",
      "outputs": [
        {
          "internalType": "uint256",
          "name": "",
          "type": "uint256"
        }
      ],
      "stateMutability": "view",
      "type": "function"
    },
    {
      "inputs": [],
      "name": "rebaseFeeRate",
      "outputs": [
        {
          "internalType": "uint128",
          "name": "numerator",
          "type": "uint128"
        },
        {
          "internalType": "uint128",
          "name": "denominator",
          "type": "uint128"
        }
      ],
      "stateMutability": "view",
      "type": "function"
    },
    {
      "inputs": [],
      "name": "rebaseInterval",
      "outputs": [
        {
          "internalType": "uint256",
          "name": "",
          "type": "uint256"
        }
      ],
      "stateMutability": "view",
      "type": "function"
    },
    {
      "inputs": [],
      "name": "recipient",
      "outputs": [
        {
          "internalType": "address",
          "name": "",
          "type": "address"
        }
      ],
      "stateMutability": "view",
      "type": "function"
    },
    {
      "inputs": [],
      "name": "renounceOwnership",
      "outputs": [],
      "stateMutability": "nonpayable",
      "type": "function"
    },
    {
      "inputs": [
        {
          "internalType": "address",
          "name": "account",
          "type": "address"
        },
        {
          "internalType": "bool",
          "name": "isExempt_",
          "type": "bool"
        }
      ],
      "name": "setExempt",
      "outputs": [],
      "stateMutability": "nonpayable",
      "type": "function"
    },
    {
      "inputs": [
        {
          "components": [
            {
              "internalType": "address",
              "name": "account",
              "type": "address"
            },
            {
              "internalType": "bool",
              "name": "isExempt",
              "type": "bool"
            }
          ],
          "internalType": "struct IFeeLogic.ExemptData[]",
          "name": "batch",
          "type": "tuple[]"
        }
      ],
      "name": "setExemptBatch",
      "outputs": [],
      "stateMutability": "nonpayable",
      "type": "function"
    },
    {
      "inputs": [
        {
          "internalType": "uint128",
          "name": "numerator",
          "type": "uint128"
        },
        {
          "internalType": "uint128",
          "name": "denominator",
          "type": "uint128"
        }
      ],
      "name": "setFeeRate",
      "outputs": [],
      "stateMutability": "nonpayable",
      "type": "function"
    },
    {
      "inputs": [
        {
          "internalType": "address",
          "name": "account",
          "type": "address"
        },
        {
          "internalType": "bool",
          "name": "isExempt_",
          "type": "bool"
        }
      ],
      "name": "setRebaseExempt",
      "outputs": [],
      "stateMutability": "nonpayable",
      "type": "function"
    },
    {
      "inputs": [
        {
          "components": [
            {
              "internalType": "address",
              "name": "account",
              "type": "address"
            },
            {
              "internalType": "bool",
              "name": "isExempt",
              "type": "bool"
            }
          ],
          "internalType": "struct IFeeLogic.ExemptData[]",
          "name": "batch",
          "type": "tuple[]"
        }
      ],
      "name": "setRebaseExemptBatch",
      "outputs": [],
      "stateMutability": "nonpayable",
      "type": "function"
    },
    {
      "inputs": [
        {
          "internalType": "uint128",
          "name": "numerator",
          "type": "uint128"
        },
        {
          "internalType": "uint128",
          "name": "denominator",
          "type": "uint128"
        }
      ],
      "name": "setRebaseFeeRate",
      "outputs": [],
      "stateMutability": "nonpayable",
      "type": "function"
    },
    {
      "inputs": [
        {
          "internalType": "uint256",
          "name": "interval",
          "type": "uint256"
        }
      ],
      "name": "setRebaseInterval",
      "outputs": [],
      "stateMutability": "nonpayable",
      "type": "function"
    },
    {
      "inputs": [
        {
          "internalType": "address",
          "name": "account",
          "type": "address"
        }
      ],
      "name": "setRecipient",
      "outputs": [],
      "stateMutability": "nonpayable",
      "type": "function"
    },
    {
      "inputs": [
        {
          "internalType": "address",
          "name": "newOwner",
          "type": "address"
        }
      ],
      "name": "transferOwnership",
      "outputs": [],
      "stateMutability": "nonpayable",
      "type": "function"
    },
    {
      "inputs": [
        {
          "internalType": "address",
          "name": "sender",
          "type": "address"
        },
        {
          "internalType": "address",
          "name": "",
          "type": "address"
        },
        {
          "internalType": "uint256",
          "name": "amount",
          "type": "uint256"
        }
      ],
      "name": "undoFee",
      "outputs": [
        {
          "internalType": "uint256",
          "name": "",
          "type": "uint256"
        }
      ],
      "stateMutability": "view",
      "type": "function"
    },
    {
      "inputs": [
        {
          "internalType": "uint256",
          "name": "amount",
          "type": "uint256"
        }
      ],
      "name": "undoRebaseFee",
      "outputs": [
        {
          "internalType": "uint256",
          "name": "",
          "type": "uint256"
        }
      ],
      "stateMutability": "view",
      "type": "function"
    }
  ],
  "transactionHash": "0x689cb9cdab4bd0843e121edecda720b75fad81377b5266656f416844e52cdf41",
  "args": [
    {
      "owner": "0x5757Dd711EaE80e181E07CdbCe43359Ac1048394",
      "recipient": "0x953292ED2862B79D8e3490615BA6639798c43bC8",
      "feeRateNumerator": 25,
      "feeRateDenominator": 1000,
      "exemptions": [
        {
          "account": "0x387C512803b6b781E510F3b7dDdc709A45706918",
          "isExempt": true
        },
        {
          "account": "0x953292ED2862B79D8e3490615BA6639798c43bC8",
          "isExempt": true
        },
        {
          "account": "0xd9e1cE17f2641f24aE83637ab66a2cca9C378B9F",
          "isExempt": true
        }
      ],
      "rebaseInterval": 7200,
      "rebaseFeeRateNum": 1,
      "rebaseFeeRateDen": 100,
      "rebaseExemptions": [
        {
          "account": "0x9239B9EcF5A7047866eC7A0615830fe2B5CD3110",
          "isExempt": true
        },
        {
          "account": "0xA2Aa2C632Dd676f501f92ABAeCbd09EeDF64C737",
          "isExempt": true
        }
      ]
    }
  ],
  "solcInputHash": "eabe3fbce2e086b31b41212778856ffc",
  "bytecode": "0x60806040523480156200001157600080fd5b50604051620022e8380380620022e8833981016040819052620000349162000779565b8051600080546001600160a01b0319166001600160a01b03831690811782556040519091907f8be0079c531659141344cd1fd0a4f28419497f9722a3daafe3b4186f6b6457e0908290a35080604001516001600160801b031681606001516001600160801b031611620000c45760405162461bcd60e51b8152600401620000bb90620008d8565b60405180910390fd5b8060c001516001600160801b03168160e001516001600160801b031611620001005760405162461bcd60e51b8152600401620000bb9062000895565b60006200010c6200050b565b6020830151600480546001600160a01b0319166001600160a01b0392831690811790915560405192935091908316907fc1416b5cdab50a9fbc872236e1aa54566c6deb40024e63a4b1737ecacf09d6f990600090a36040808301516003805460608601516001600160801b03818116600160801b028186166001600160801b031990941693909317169190911790915591516001600160a01b038416927f7501624ae38fb0df57a18102db88078470b15839a2e2ead878d453b5e4efe26492620001d9929091906200090f565b60405180910390a260005b8260800151518110156200030a576000836080015182815181106200020557fe5b6020026020010151600001519050836080015182815181106200022457fe5b602002602001015160200151156200029e57620002518160016200050f60201b620012b41790919060201c565b156200029857806001600160a01b0316836001600160a01b03167f62a70abcb247f7e8afe5918a6e2686c3d44444fe3b3610d15ec517da62d8780860405160405180910390a35b62000300565b620002b98160016200052f60201b620012df1790919060201c565b156200030057806001600160a01b0316836001600160a01b03167f81aa155d9f5d2077495ed2bc4fc21b6d37d33f9f4cf55d8d4586325d5df4515f60405160405180910390a35b50600101620001e4565b5060a082015160078190556040516001600160a01b038316917f2e2bc909ff7bcd1375f238bb497fb8fdd066d6bc22c435735c805b750c6508489162000351919062000929565b60405180910390a260c08201516008805460e08501516001600160801b03818116600160801b028186166001600160801b03199094169390931716919091179091556040516001600160a01b038416927f6f789513f1674dbca71ad3e361d04cf7247f0641084e6fea46de7d5e0566e69992620003ce926200090f565b60405180910390a260005b82610100015151811015620005025760008361010001518281518110620003fc57fe5b602002602001015160000151905083610100015182815181106200041c57fe5b602002602001015160200151156200049657620004498160056200050f60201b620012b41790919060201c565b156200049057806001600160a01b0316836001600160a01b03167f0b10c1c92dc5b62ec61a31163d54cc5deb0694b471d289bd5f55603496004f5d60405160405180910390a35b620004f8565b620004b18160056200052f60201b620012df1790919060201c565b15620004f857806001600160a01b0316836001600160a01b03167f6bc6fb4c58f357a0b573c992fa1931b22019a9ef3ce0ea223bc1205e91cd8f2260405160405180910390a35b50600101620003d9565b50505062000956565b3390565b600062000526836001600160a01b03841662000546565b90505b92915050565b600062000526836001600160a01b03841662000595565b600062000554838362000661565b6200058c5750815460018181018455600084815260208082209093018490558454848252828601909352604090209190915562000529565b50600062000529565b60008181526001830160205260408120548015620006565783546000198083019190810190600090879083908110620005ca57fe5b9060005260206000200154905080876000018481548110620005e857fe5b6000918252602080832090910192909255828152600189810190925260409020908401905586548790806200061957fe5b6001900381819060005260206000200160009055905586600101600087815260200190815260200160002060009055600194505050505062000529565b600091505062000529565b60009081526001919091016020526040902054151590565b80516001600160a01b03811681146200069157600080fd5b919050565b600082601f830112620006a7578081fd5b815160206001600160401b0380831115620006be57fe5b620006cd828385020162000932565b838152828101908684016040808702890186018a1015620006ec578788fd5b875b87811015620007525781838c03121562000706578889fd5b815182810181811088821117156200071a57fe5b8352620007278462000679565b81528784015180151581146200073b578a8bfd5b8189015285529386019391810191600101620006ee565b50919998505050505050505050565b80516001600160801b03811681146200069157600080fd5b6000602082840312156200078b578081fd5b81516001600160401b0380821115620007a2578283fd5b8184019150610120808387031215620007b9578384fd5b620007c48162000932565b9050620007d18362000679565b8152620007e16020840162000679565b6020820152620007f46040840162000761565b6040820152620008076060840162000761565b60608201526080830151828111156200081e578485fd5b6200082c8782860162000696565b60808301525060a083015160a08201526200084a60c0840162000761565b60c08201526200085d60e0840162000761565b60e0820152610100808401518381111562000876578586fd5b620008848882870162000696565b918301919091525095945050505050565b60208082526023908201527f4665654c6f6769633a20726562617365466565526174652069732067746520746040820152626f203160e81b606082015260800190565b6020808252601d908201527f4665654c6f6769633a20666565526174652069732067746520746f2031000000604082015260600190565b6001600160801b0392831681529116602082015260400190565b90815260200190565b6040518181016001600160401b03811182821017156200094e57fe5b604052919050565b61198280620009666000396000f3fe608060405234801561001057600080fd5b50600436106101ae5760003560e01c80638da5cb5b116100ee578063ad5dff7311610097578063be3945e411610071578063be3945e41461033d578063e0a33f0e14610350578063ef037fb914610363578063f2fde38b14610376576101ae565b8063ad5dff731461030f578063adf10fc614610322578063bd26697a14610335576101ae565b806398d078b4116100c857806398d078b4146102d65780639c5f81cc146102e95780639fde54f5146102fc576101ae565b80638da5cb5b146102b35780638e1c49d6146102bb578063978bbdb9146102ce576101ae565b80635f79ad4a1161015b578063715018a611610135578063715018a61461027d5780637fd3c9cc1461028557806389edeb74146102985780638b185fe3146102a0576101ae565b80635f79ad4a1461024c57806366d003ac1461025f5780636fb59f3b14610267576101ae565b8063230e6f5f1161018c578063230e6f5f146102045780633bbed4a0146102245780635357983c14610239576101ae565b8063063f384f146101b35780631afa2361146101dc578063226a1a1a146101e4575b600080fd5b6101c66101c13660046115e7565b610389565b6040516101d391906118b6565b60405180910390f35b6101c66103f2565b6101f76101f236600461175e565b610403565b6040516101d39190611776565b6102176102123660046115cd565b610418565b6040516101d39190611797565b6102376102323660046115cd565b610425565b005b610237610247366004611654565b61059c565b6101c661025a36600461175e565b61067d565b6101f76106c5565b61026f6106e1565b6040516101d3929190611893565b610237610712565b6101f761029336600461175e565b610812565b6101c661081f565b6102376102ae366004611735565b610825565b6101f76109c8565b6102376102c9366004611622565b6109e4565b61026f610b67565b6102376102e436600461175e565b610b98565b6102376102f7366004611735565b610b9b565b61023761030a366004611622565b610d32565b61021761031d3660046115cd565b610eb4565b610237610330366004611654565b610ec1565b6101c6610f9e565b6101c661034b3660046115e7565b610faa565b6101c661035e36600461175e565b610ffb565b61023761037136600461175e565b61103c565b6102376103843660046115cd565b61112a565b6000610396600185611301565b156103a25750806103eb565b6003546fffffffffffffffffffffffffffffffff808216700100000000000000000000000000000000909204811691820316906103e0908490611323565b816103e757fe5b0490505b9392505050565b60006103fe6005611396565b905090565b60006104106001836113a1565b90505b919050565b6000610410600583611301565b61042d6113ad565b60005473ffffffffffffffffffffffffffffffffffffffff9081169116146104b657604080517f08c379a000000000000000000000000000000000000000000000000000000000815260206004820181905260248201527f4f776e61626c653a2063616c6c6572206973206e6f7420746865206f776e6572604482015290519081900360640190fd5b73ffffffffffffffffffffffffffffffffffffffff811661050c576040517f08c379a0000000000000000000000000000000000000000000000000000000008152600401610503906117ff565b60405180910390fd5b600480547fffffffffffffffffffffffff00000000000000000000000000000000000000001673ffffffffffffffffffffffffffffffffffffffff83169081179091556105576113ad565b73ffffffffffffffffffffffffffffffffffffffff167fc1416b5cdab50a9fbc872236e1aa54566c6deb40024e63a4b1737ecacf09d6f960405160405180910390a350565b6105a46113ad565b60005473ffffffffffffffffffffffffffffffffffffffff90811691161461062d57604080517f08c379a000000000000000000000000000000000000000000000000000000000815260206004820181905260248201527f4f776e61626c653a2063616c6c6572206973206e6f7420746865206f776e6572604482015290519081900360640190fd5b60005b81518110156106795761067182828151811061064857fe5b60200260200101516000015183838151811061066057fe5b6020026020010151602001516109e4565b600101610630565b5050565b6008546000906fffffffffffffffffffffffffffffffff70010000000000000000000000000000000082048116916106b791859116611323565b816106be57fe5b0492915050565b60045473ffffffffffffffffffffffffffffffffffffffff1690565b6008546fffffffffffffffffffffffffffffffff808216927001000000000000000000000000000000009092041690565b61071a6113ad565b60005473ffffffffffffffffffffffffffffffffffffffff9081169116146107a357604080517f08c379a000000000000000000000000000000000000000000000000000000000815260206004820181905260248201527f4f776e61626c653a2063616c6c6572206973206e6f7420746865206f776e6572604482015290519081900360640190fd5b6000805460405173ffffffffffffffffffffffffffffffffffffffff909116907f8be0079c531659141344cd1fd0a4f28419497f9722a3daafe3b4186f6b6457e0908390a3600080547fffffffffffffffffffffffff0000000000000000000000000000000000000000169055565b60006104106005836113a1565b60075490565b61082d6113ad565b60005473ffffffffffffffffffffffffffffffffffffffff9081169116146108b657604080517f08c379a000000000000000000000000000000000000000000000000000000000815260206004820181905260248201527f4f776e61626c653a2063616c6c6572206973206e6f7420746865206f776e6572604482015290519081900360640190fd5b816fffffffffffffffffffffffffffffffff16816fffffffffffffffffffffffffffffffff1611610913576040517f08c379a0000000000000000000000000000000000000000000000000000000008152600401610503906117a2565b600880546fffffffffffffffffffffffffffffffff838116700100000000000000000000000000000000028186167fffffffffffffffffffffffffffffffff0000000000000000000000000000000090931692909217161790556109756113ad565b73ffffffffffffffffffffffffffffffffffffffff167f6f789513f1674dbca71ad3e361d04cf7247f0641084e6fea46de7d5e0566e69983836040516109bc929190611893565b60405180910390a25050565b60005473ffffffffffffffffffffffffffffffffffffffff1690565b6109ec6113ad565b60005473ffffffffffffffffffffffffffffffffffffffff908116911614610a7557604080517f08c379a000000000000000000000000000000000000000000000000000000000815260206004820181905260248201527f4f776e61626c653a2063616c6c6572206973206e6f7420746865206f776e6572604482015290519081900360640190fd5b8015610af257610a866005836112b4565b15610aed578173ffffffffffffffffffffffffffffffffffffffff16610aaa6113ad565b73ffffffffffffffffffffffffffffffffffffffff167f0b10c1c92dc5b62ec61a31163d54cc5deb0694b471d289bd5f55603496004f5d60405160405180910390a35b610679565b610afd6005836112df565b15610679578173ffffffffffffffffffffffffffffffffffffffff16610b216113ad565b73ffffffffffffffffffffffffffffffffffffffff167f6bc6fb4c58f357a0b573c992fa1931b22019a9ef3ce0ea223bc1205e91cd8f2260405160405180910390a35050565b6003546fffffffffffffffffffffffffffffffff808216927001000000000000000000000000000000009092041690565b50565b610ba36113ad565b60005473ffffffffffffffffffffffffffffffffffffffff908116911614610c2c57604080517f08c379a000000000000000000000000000000000000000000000000000000000815260206004820181905260248201527f4f776e61626c653a2063616c6c6572206973206e6f7420746865206f776e6572604482015290519081900360640190fd5b816fffffffffffffffffffffffffffffffff16816fffffffffffffffffffffffffffffffff1611610c89576040517f08c379a00000000000000000000000000000000000000000000000000000000081526004016105039061185c565b600380546fffffffffffffffffffffffffffffffff838116700100000000000000000000000000000000028186167fffffffffffffffffffffffffffffffff000000000000000000000000000000009093169290921716179055610ceb6113ad565b73ffffffffffffffffffffffffffffffffffffffff167f7501624ae38fb0df57a18102db88078470b15839a2e2ead878d453b5e4efe26483836040516109bc929190611893565b610d3a6113ad565b60005473ffffffffffffffffffffffffffffffffffffffff908116911614610dc357604080517f08c379a000000000000000000000000000000000000000000000000000000000815260206004820181905260248201527f4f776e61626c653a2063616c6c6572206973206e6f7420746865206f776e6572604482015290519081900360640190fd5b8015610e3f57610dd46001836112b4565b15610aed578173ffffffffffffffffffffffffffffffffffffffff16610df86113ad565b73ffffffffffffffffffffffffffffffffffffffff167f62a70abcb247f7e8afe5918a6e2686c3d44444fe3b3610d15ec517da62d8780860405160405180910390a3610679565b610e4a6001836112df565b15610679578173ffffffffffffffffffffffffffffffffffffffff16610e6e6113ad565b73ffffffffffffffffffffffffffffffffffffffff167f81aa155d9f5d2077495ed2bc4fc21b6d37d33f9f4cf55d8d4586325d5df4515f60405160405180910390a35050565b6000610410600183611301565b610ec96113ad565b60005473ffffffffffffffffffffffffffffffffffffffff908116911614610f5257604080517f08c379a000000000000000000000000000000000000000000000000000000000815260206004820181905260248201527f4f776e61626c653a2063616c6c6572206973206e6f7420746865206f776e6572604482015290519081900360640190fd5b60005b815181101561067957610f96828281518110610f6d57fe5b602002602001015160000151838381518110610f8557fe5b602002602001015160200151610d32565b600101610f55565b60006103fe6001611396565b6000610fb7600185611301565b15610fc4575060006103eb565b6003546fffffffffffffffffffffffffffffffff70010000000000000000000000000000000082048116916103e091859116611323565b6008546000906fffffffffffffffffffffffffffffffff808216700100000000000000000000000000000000909204811691820316906106b7908490611323565b6110446113ad565b60005473ffffffffffffffffffffffffffffffffffffffff9081169116146110cd57604080517f08c379a000000000000000000000000000000000000000000000000000000000815260206004820181905260248201527f4f776e61626c653a2063616c6c6572206973206e6f7420746865206f776e6572604482015290519081900360640190fd5b60078190556110da6113ad565b73ffffffffffffffffffffffffffffffffffffffff167f2e2bc909ff7bcd1375f238bb497fb8fdd066d6bc22c435735c805b750c6508488260405161111f91906118b6565b60405180910390a250565b6111326113ad565b60005473ffffffffffffffffffffffffffffffffffffffff9081169116146111bb57604080517f08c379a000000000000000000000000000000000000000000000000000000000815260206004820181905260248201527f4f776e61626c653a2063616c6c6572206973206e6f7420746865206f776e6572604482015290519081900360640190fd5b73ffffffffffffffffffffffffffffffffffffffff8116611227576040517f08c379a00000000000000000000000000000000000000000000000000000000081526004018080602001828103825260268152602001806119066026913960400191505060405180910390fd5b6000805460405173ffffffffffffffffffffffffffffffffffffffff808516939216917f8be0079c531659141344cd1fd0a4f28419497f9722a3daafe3b4186f6b6457e091a3600080547fffffffffffffffffffffffff00000000000000000000000000000000000000001673ffffffffffffffffffffffffffffffffffffffff92909216919091179055565b60006112d68373ffffffffffffffffffffffffffffffffffffffff84166113b1565b90505b92915050565b60006112d68373ffffffffffffffffffffffffffffffffffffffff84166113fb565b60006112d68373ffffffffffffffffffffffffffffffffffffffff84166114df565b600082611332575060006112d9565b8282028284828161133f57fe5b04146112d6576040517f08c379a000000000000000000000000000000000000000000000000000000000815260040180806020018281038252602181526020018061192c6021913960400191505060405180910390fd5b6000610410826114f7565b60006112d683836114fb565b3390565b60006113bd83836114df565b6113f3575081546001818101845560008481526020808220909301849055845484825282860190935260409020919091556112d9565b5060006112d9565b600081815260018301602052604081205480156114d55783547fffffffffffffffffffffffffffffffffffffffffffffffffffffffffffffffff808301919081019060009087908390811061144c57fe5b906000526020600020015490508087600001848154811061146957fe5b60009182526020808320909101929092558281526001898101909252604090209084019055865487908061149957fe5b600190038181906000526020600020016000905590558660010160008781526020019081526020016000206000905560019450505050506112d9565b60009150506112d9565b60009081526001919091016020526040902054151590565b5490565b81546000908210611557576040517f08c379a00000000000000000000000000000000000000000000000000000000081526004018080602001828103825260228152602001806118e46022913960400191505060405180910390fd5b82600001828154811061156657fe5b9060005260206000200154905092915050565b803573ffffffffffffffffffffffffffffffffffffffff8116811461041357600080fd5b8035801515811461041357600080fd5b80356fffffffffffffffffffffffffffffffff8116811461041357600080fd5b6000602082840312156115de578081fd5b6112d682611579565b6000806000606084860312156115fb578182fd5b61160484611579565b925061161260208501611579565b9150604084013590509250925092565b60008060408385031215611634578182fd5b61163d83611579565b915061164b6020840161159d565b90509250929050565b60006020808385031215611666578182fd5b823567ffffffffffffffff8082111561167d578384fd5b818501915085601f830112611690578384fd5b81358181111561169c57fe5b6116a984858302016118bf565b818152848101908486016040808502870188018b10156116c7578889fd5b8896505b848710156117265780828c0312156116e1578889fd5b805181810181811088821117156116f457fe5b82526116ff83611579565b815261170c89840161159d565b818a015284526001969096019592870192908101906116cb565b50909998505050505050505050565b60008060408385031215611747578182fd5b611750836115ad565b915061164b602084016115ad565b60006020828403121561176f578081fd5b5035919050565b73ffffffffffffffffffffffffffffffffffffffff91909116815260200190565b901515815260200190565b60208082526023908201527f4665654c6f6769633a207265626173654665655261746520697320677465207460408201527f6f20310000000000000000000000000000000000000000000000000000000000606082015260800190565b60208082526023908201527f4665654c6f6769633a20726563697069656e74206973207a65726f206164647260408201527f6573730000000000000000000000000000000000000000000000000000000000606082015260800190565b6020808252601d908201527f4665654c6f6769633a20666565526174652069732067746520746f2031000000604082015260600190565b6fffffffffffffffffffffffffffffffff92831681529116602082015260400190565b90815260200190565b60405181810167ffffffffffffffff811182821017156118db57fe5b60405291905056fe456e756d657261626c655365743a20696e646578206f7574206f6620626f756e64734f776e61626c653a206e6577206f776e657220697320746865207a65726f2061646472657373536166654d6174683a206d756c7469706c69636174696f6e206f766572666c6f77a26469706673582212203aff182f1c86d85e8dd86510768c766a01545dd85c5debbab8f5a8699327a86364736f6c63430007060033",
  "devdoc": {
    "kind": "dev",
    "methods": {
      "owner()": {
        "details": "Returns the address of the current owner."
      },
      "renounceOwnership()": {
        "details": "Leaves the contract without owner. It will not be possible to call `onlyOwner` functions anymore. Can only be called by the current owner. NOTE: Renouncing ownership will leave the contract without an owner, thereby removing any functionality that is only available to the owner."
      },
      "transferOwnership(address)": {
        "details": "Transfers ownership of the contract to a new account (`newOwner`). Can only be called by the current owner."
      }
    },
    "version": 1
  },
  "userdoc": {
    "kind": "user",
    "methods": {},
    "version": 1
  },
  "storageLayout": {
    "storage": [
      {
        "astId": 3839,
        "contract": "contracts/rewards/FeeLogic.sol:FeeLogic",
        "label": "_owner",
        "offset": 0,
        "slot": "0",
        "type": "t_address"
      },
      {
        "astId": 11483,
        "contract": "contracts/rewards/FeeLogic.sol:FeeLogic",
        "label": "_exempts",
        "offset": 0,
        "slot": "1",
        "type": "t_struct(AddressSet)2680_storage"
      },
      {
        "astId": 11485,
        "contract": "contracts/rewards/FeeLogic.sol:FeeLogic",
        "label": "_feeRateNum",
        "offset": 0,
        "slot": "3",
        "type": "t_uint128"
      },
      {
        "astId": 11487,
        "contract": "contracts/rewards/FeeLogic.sol:FeeLogic",
        "label": "_feeRateDen",
        "offset": 16,
        "slot": "3",
        "type": "t_uint128"
      },
      {
        "astId": 11489,
        "contract": "contracts/rewards/FeeLogic.sol:FeeLogic",
        "label": "_recipient",
        "offset": 0,
        "slot": "4",
        "type": "t_address"
      },
      {
        "astId": 11491,
        "contract": "contracts/rewards/FeeLogic.sol:FeeLogic",
        "label": "_rebaseExempts",
        "offset": 0,
        "slot": "5",
        "type": "t_struct(AddressSet)2680_storage"
      },
      {
        "astId": 11493,
        "contract": "contracts/rewards/FeeLogic.sol:FeeLogic",
        "label": "_rebaseInterval",
        "offset": 0,
        "slot": "7",
        "type": "t_uint256"
      },
      {
        "astId": 11495,
        "contract": "contracts/rewards/FeeLogic.sol:FeeLogic",
        "label": "_rebaseFeeRateNum",
        "offset": 0,
        "slot": "8",
        "type": "t_uint128"
      },
      {
        "astId": 11497,
        "contract": "contracts/rewards/FeeLogic.sol:FeeLogic",
        "label": "_rebaseFeeRateDen",
        "offset": 16,
        "slot": "8",
        "type": "t_uint128"
      }
    ],
    "types": {
      "t_address": {
        "encoding": "inplace",
        "label": "address",
        "numberOfBytes": "20"
      },
      "t_array(t_bytes32)dyn_storage": {
        "base": "t_bytes32",
        "encoding": "dynamic_array",
        "label": "bytes32[]",
        "numberOfBytes": "32"
      },
      "t_bytes32": {
        "encoding": "inplace",
        "label": "bytes32",
        "numberOfBytes": "32"
      },
      "t_mapping(t_bytes32,t_uint256)": {
        "encoding": "mapping",
        "key": "t_bytes32",
        "label": "mapping(bytes32 => uint256)",
        "numberOfBytes": "32",
        "value": "t_uint256"
      },
      "t_struct(AddressSet)2680_storage": {
        "encoding": "inplace",
        "label": "struct EnumerableSet.AddressSet",
        "members": [
          {
            "astId": 2679,
            "contract": "contracts/rewards/FeeLogic.sol:FeeLogic",
            "label": "_inner",
            "offset": 0,
            "slot": "0",
            "type": "t_struct(Set)2415_storage"
          }
        ],
        "numberOfBytes": "64"
      },
      "t_struct(Set)2415_storage": {
        "encoding": "inplace",
        "label": "struct EnumerableSet.Set",
        "members": [
          {
            "astId": 2410,
            "contract": "contracts/rewards/FeeLogic.sol:FeeLogic",
            "label": "_values",
            "offset": 0,
            "slot": "0",
            "type": "t_array(t_bytes32)dyn_storage"
          },
          {
            "astId": 2414,
            "contract": "contracts/rewards/FeeLogic.sol:FeeLogic",
            "label": "_indexes",
            "offset": 0,
            "slot": "1",
            "type": "t_mapping(t_bytes32,t_uint256)"
          }
        ],
        "numberOfBytes": "64"
      },
      "t_uint128": {
        "encoding": "inplace",
        "label": "uint128",
        "numberOfBytes": "16"
      },
      "t_uint256": {
        "encoding": "inplace",
        "label": "uint256",
        "numberOfBytes": "32"
      }
    }
  }
}