{
  "address": "0xB3fEA12bBcf931C8d6ec343C778463A43e4e96c2",
  "abi": [
    {
      "inputs": [
        {
          "internalType": "address",
          "name": "admin",
          "type": "address"
        },
        {
          "internalType": "uint256",
          "name": "_updateThreshold",
          "type": "uint256"
        },
        {
          "internalType": "uint256",
          "name": "_gasPrice",
          "type": "uint256"
        }
      ],
      "stateMutability": "nonpayable",
      "type": "constructor"
    },
    {
      "anonymous": false,
      "inputs": [
        {
          "indexed": true,
          "internalType": "address",
          "name": "author",
          "type": "address"
        },
        {
          "indexed": false,
          "internalType": "uint256",
          "name": "newValue",
          "type": "uint256"
        }
      ],
      "name": "GasPriceUpdate",
      "type": "event"
    },
    {
      "anonymous": false,
      "inputs": [
        {
          "indexed": true,
          "internalType": "bytes32",
          "name": "role",
          "type": "bytes32"
        },
        {
          "indexed": true,
          "internalType": "bytes32",
          "name": "previousAdminRole",
          "type": "bytes32"
        },
        {
          "indexed": true,
          "internalType": "bytes32",
          "name": "newAdminRole",
          "type": "bytes32"
        }
      ],
      "name": "RoleAdminChanged",
      "type": "event"
    },
    {
      "anonymous": false,
      "inputs": [
        {
          "indexed": true,
          "internalType": "bytes32",
          "name": "role",
          "type": "bytes32"
        },
        {
          "indexed": true,
          "internalType": "address",
          "name": "account",
          "type": "address"
        },
        {
          "indexed": true,
          "internalType": "address",
          "name": "sender",
          "type": "address"
        }
      ],
      "name": "RoleGranted",
      "type": "event"
    },
    {
      "anonymous": false,
      "inputs": [
        {
          "indexed": true,
          "internalType": "bytes32",
          "name": "role",
          "type": "bytes32"
        },
        {
          "indexed": true,
          "internalType": "address",
          "name": "account",
          "type": "address"
        },
        {
          "indexed": true,
          "internalType": "address",
          "name": "sender",
          "type": "address"
        }
      ],
      "name": "RoleRevoked",
      "type": "event"
    },
    {
      "anonymous": false,
      "inputs": [
        {
          "indexed": true,
          "internalType": "address",
          "name": "author",
          "type": "address"
        },
        {
          "indexed": false,
          "internalType": "uint256",
          "name": "value",
          "type": "uint256"
        }
      ],
      "name": "UpdateThresholdSet",
      "type": "event"
    },
    {
      "inputs": [],
      "name": "DEFAULT_ADMIN_ROLE",
      "outputs": [
        {
          "internalType": "bytes32",
          "name": "",
          "type": "bytes32"
        }
      ],
      "stateMutability": "view",
      "type": "function"
    },
    {
      "inputs": [],
      "name": "ORACLE_ROLE",
      "outputs": [
        {
          "internalType": "bytes32",
          "name": "",
          "type": "bytes32"
        }
      ],
      "stateMutability": "view",
      "type": "function"
    },
    {
      "inputs": [],
      "name": "gasPrice",
      "outputs": [
        {
          "internalType": "uint256",
          "name": "",
          "type": "uint256"
        }
      ],
      "stateMutability": "view",
      "type": "function"
    },
    {
      "inputs": [
        {
          "internalType": "bytes32",
          "name": "role",
          "type": "bytes32"
        }
      ],
      "name": "getRoleAdmin",
      "outputs": [
        {
          "internalType": "bytes32",
          "name": "",
          "type": "bytes32"
        }
      ],
      "stateMutability": "view",
      "type": "function"
    },
    {
      "inputs": [
        {
          "internalType": "bytes32",
          "name": "role",
          "type": "bytes32"
        },
        {
          "internalType": "uint256",
          "name": "index",
          "type": "uint256"
        }
      ],
      "name": "getRoleMember",
      "outputs": [
        {
          "internalType": "address",
          "name": "",
          "type": "address"
        }
      ],
      "stateMutability": "view",
      "type": "function"
    },
    {
      "inputs": [
        {
          "internalType": "bytes32",
          "name": "role",
          "type": "bytes32"
        }
      ],
      "name": "getRoleMemberCount",
      "outputs": [
        {
          "internalType": "uint256",
          "name": "",
          "type": "uint256"
        }
      ],
      "stateMutability": "view",
      "type": "function"
    },
    {
      "inputs": [
        {
          "internalType": "bytes32",
          "name": "role",
          "type": "bytes32"
        },
        {
          "internalType": "address",
          "name": "account",
          "type": "address"
        }
      ],
      "name": "grantRole",
      "outputs": [],
      "stateMutability": "nonpayable",
      "type": "function"
    },
    {
      "inputs": [],
      "name": "hasPriceExpired",
      "outputs": [
        {
          "internalType": "bool",
          "name": "",
          "type": "bool"
        }
      ],
      "stateMutability": "view",
      "type": "function"
    },
    {
      "inputs": [
        {
          "internalType": "bytes32",
          "name": "role",
          "type": "bytes32"
        },
        {
          "internalType": "address",
          "name": "account",
          "type": "address"
        }
      ],
      "name": "hasRole",
      "outputs": [
        {
          "internalType": "bool",
          "name": "",
          "type": "bool"
        }
      ],
      "stateMutability": "view",
      "type": "function"
    },
    {
      "inputs": [
        {
          "internalType": "bytes32",
          "name": "role",
          "type": "bytes32"
        },
        {
          "internalType": "address",
          "name": "account",
          "type": "address"
        }
      ],
      "name": "renounceRole",
      "outputs": [],
      "stateMutability": "nonpayable",
      "type": "function"
    },
    {
      "inputs": [
        {
          "internalType": "bytes32",
          "name": "role",
          "type": "bytes32"
        },
        {
          "internalType": "address",
          "name": "account",
          "type": "address"
        }
      ],
      "name": "revokeRole",
      "outputs": [],
      "stateMutability": "nonpayable",
      "type": "function"
    },
    {
      "inputs": [
        {
          "internalType": "uint256",
          "name": "_gasPrice",
          "type": "uint256"
        }
      ],
      "name": "setGasPrice",
      "outputs": [],
      "stateMutability": "nonpayable",
      "type": "function"
    },
    {
      "inputs": [
        {
          "internalType": "uint256",
          "name": "_updateThreshold",
          "type": "uint256"
        }
      ],
      "name": "setUpdateThreshold",
      "outputs": [],
      "stateMutability": "nonpayable",
      "type": "function"
    },
    {
      "inputs": [],
      "name": "updateThreshold",
      "outputs": [
        {
          "internalType": "uint256",
          "name": "",
          "type": "uint256"
        }
      ],
      "stateMutability": "view",
      "type": "function"
    },
    {
      "inputs": [],
      "name": "updatedAt",
      "outputs": [
        {
          "internalType": "uint256",
          "name": "",
          "type": "uint256"
        }
      ],
      "stateMutability": "view",
      "type": "function"
    }
  ],
  "transactionHash": "0x22617c28828b15d5521247c788efd53b0d1d036981319cc40a834b086ae96078",
  "args": [
    "0x5757Dd711EaE80e181E07CdbCe43359Ac1048394",
    32400,
    "200000000000"
  ],
  "solcInputHash": "3cacffe51216d1376f3121babfd97661",
  "bytecode": "0x60806040523480156200001157600080fd5b5060405162000e3a38038062000e3a833981810160405260608110156200003757600080fd5b50805160208201516040909201519091906200005560008462000074565b620000608262000084565b6200006b81620000c2565b50505062000208565b62000080828262000104565b5050565b600281905560408051828152905133917f1f9cf51b618fdadb53a2ffcf65aef63f853ff289ef0448a182443d29707299a0919081900360200190a250565b42600355600181905560408051828152905133917f815b03ee2eabb18e58532356211cb652dd4edd0e22f166523335475f77c3f5b0919081900360200190a250565b600082815260208181526040909120620001299183906200064c6200017d821b17901c565b156200008057620001396200019d565b6001600160a01b0316816001600160a01b0316837f2f8788117e7eff1d82e926ec794901d17c78024a50270940304540a733656f0d60405160405180910390a45050565b600062000194836001600160a01b038416620001a1565b90505b92915050565b3390565b6000620001af8383620001f0565b620001e75750815460018181018455600084815260208082209093018490558454848252828601909352604090209190915562000197565b50600062000197565b60009081526001919091016020526040902054151590565b610c2280620002186000396000f3fe608060405234801561001057600080fd5b50600436106100f55760003560e01c80639407f5cb11610097578063ca15c87311610066578063ca15c8731461027b578063d547741f14610298578063e1e92a67146102d1578063fe173b97146102ee576100f5565b80639407f5cb146102465780639e2437141461024e578063a217fddf14610256578063bf1fe4201461025e576100f5565b806336568abe116100d357806336568abe1461016c5780637519ab50146101a55780639010d07c146101ad57806391d14854146101f9576100f5565b806307e2cea5146100fa578063248a9ca3146101145780632f2ff15d14610131575b600080fd5b6101026102f6565b60408051918252519081900360200190f35b6101026004803603602081101561012a57600080fd5b503561031a565b61016a6004803603604081101561014757600080fd5b508035906020013573ffffffffffffffffffffffffffffffffffffffff1661032f565b005b61016a6004803603604081101561018257600080fd5b508035906020013573ffffffffffffffffffffffffffffffffffffffff166103b5565b61010261044a565b6101d0600480360360408110156101c357600080fd5b5080359060200135610450565b6040805173ffffffffffffffffffffffffffffffffffffffff9092168252519081900360200190f35b6102326004803603604081101561020f57600080fd5b508035906020013573ffffffffffffffffffffffffffffffffffffffff16610471565b604080519115158252519081900360200190f35b610102610489565b61023261048f565b6101026104c3565b61016a6004803603602081101561027457600080fd5b50356104c8565b6101026004803603602081101561029157600080fd5b5035610553565b61016a600480360360408110156102ae57600080fd5b508035906020013573ffffffffffffffffffffffffffffffffffffffff1661056a565b61016a600480360360208110156102e757600080fd5b50356105dd565b610102610646565b7f68e79a7bf1e0bc45d0a330c573bc367f9cf464fd326078812f301165fbda4ef181565b60009081526020819052604090206002015490565b6000828152602081905260409020600201546103529061034d61066e565b610471565b6103a7576040517f08c379a000000000000000000000000000000000000000000000000000000000815260040180806020018281038252602f815260200180610aef602f913960400191505060405180910390fd5b6103b18282610672565b5050565b6103bd61066e565b73ffffffffffffffffffffffffffffffffffffffff168173ffffffffffffffffffffffffffffffffffffffff1614610440576040517f08c379a000000000000000000000000000000000000000000000000000000000815260040180806020018281038252602f815260200180610bbe602f913960400191505060405180910390fd5b6103b182826106f5565b60035481565b60008281526020819052604081206104689083610778565b90505b92915050565b60008281526020819052604081206104689083610784565b60025481565b6000806104b9600354604051806060016040528060298152602001610b4e602991394291906107a6565b6002541091505090565b600081565b6104f27f68e79a7bf1e0bc45d0a330c573bc367f9cf464fd326078812f301165fbda4ef133610471565b610547576040517f08c379a0000000000000000000000000000000000000000000000000000000008152600401808060200182810382526026815260200180610b776026913960400191505060405180910390fd5b61055081610857565b50565b600081815260208190526040812061046b90610899565b6000828152602081905260409020600201546105889061034d61066e565b610440576040517f08c379a0000000000000000000000000000000000000000000000000000000008152600401808060200182810382526030815260200180610b1e6030913960400191505060405180910390fd5b6105e8600033610471565b61063d576040517f08c379a0000000000000000000000000000000000000000000000000000000008152600401808060200182810382526021815260200180610b9d6021913960400191505060405180910390fd5b610550816108a4565b60015481565b60006104688373ffffffffffffffffffffffffffffffffffffffff84166108e2565b3390565b600082815260208190526040902061068a908261064c565b156103b15761069761066e565b73ffffffffffffffffffffffffffffffffffffffff168173ffffffffffffffffffffffffffffffffffffffff16837f2f8788117e7eff1d82e926ec794901d17c78024a50270940304540a733656f0d60405160405180910390a45050565b600082815260208190526040902061070d908261092c565b156103b15761071a61066e565b73ffffffffffffffffffffffffffffffffffffffff168173ffffffffffffffffffffffffffffffffffffffff16837ff6391f5c32d9c69d2a47ea670b442974b53935d1edc7fd64eb21e047a839171b60405160405180910390a45050565b6000610468838361094e565b60006104688373ffffffffffffffffffffffffffffffffffffffff84166109cc565b6000818484111561084f576040517f08c379a00000000000000000000000000000000000000000000000000000000081526004018080602001828103825283818151815260200191508051906020019080838360005b838110156108145781810151838201526020016107fc565b50505050905090810190601f1680156108415780820380516001836020036101000a031916815260200191505b509250505060405180910390fd5b505050900390565b42600355600181905560408051828152905133917f815b03ee2eabb18e58532356211cb652dd4edd0e22f166523335475f77c3f5b0919081900360200190a250565b600061046b826109e4565b600281905560408051828152905133917f1f9cf51b618fdadb53a2ffcf65aef63f853ff289ef0448a182443d29707299a0919081900360200190a250565b60006108ee83836109cc565b6109245750815460018181018455600084815260208082209093018490558454848252828601909352604090209190915561046b565b50600061046b565b60006104688373ffffffffffffffffffffffffffffffffffffffff84166109e8565b815460009082106109aa576040517f08c379a0000000000000000000000000000000000000000000000000000000008152600401808060200182810382526022815260200180610acd6022913960400191505060405180910390fd5b8260000182815481106109b957fe5b9060005260206000200154905092915050565b60009081526001919091016020526040902054151590565b5490565b60008181526001830160205260408120548015610ac25783547fffffffffffffffffffffffffffffffffffffffffffffffffffffffffffffffff8083019190810190600090879083908110610a3957fe5b9060005260206000200154905080876000018481548110610a5657fe5b600091825260208083209091019290925582815260018981019092526040902090840190558654879080610a8657fe5b6001900381819060005260206000200160009055905586600101600087815260200190815260200160002060009055600194505050505061046b565b600091505061046b56fe456e756d657261626c655365743a20696e646578206f7574206f6620626f756e6473416363657373436f6e74726f6c3a2073656e646572206d75737420626520616e2061646d696e20746f206772616e74416363657373436f6e74726f6c3a2073656e646572206d75737420626520616e2061646d696e20746f207265766f6b6547617350726963653a20626c6f636b206973206f6c646572207468616e206c6173742075706461746543616c6c6572206973206e6f7420612074727573746564206f7261636c6520736f757263652e43616c6c6572206973206e6f742074686520636f6e74726163742061646d696e2e416363657373436f6e74726f6c3a2063616e206f6e6c792072656e6f756e636520726f6c657320666f722073656c66a2646970667358221220e72fa441b6fd3f3762c8cff91481abd380eafd406a04c6f9ad097a6ac19fed3c64736f6c63430007060033",
  "devdoc": {
    "kind": "dev",
    "methods": {
      "getRoleAdmin(bytes32)": {
        "details": "Returns the admin role that controls `role`. See {grantRole} and {revokeRole}. To change a role's admin, use {_setRoleAdmin}."
      },
      "getRoleMember(bytes32,uint256)": {
        "details": "Returns one of the accounts that have `role`. `index` must be a value between 0 and {getRoleMemberCount}, non-inclusive. Role bearers are not sorted in any particular way, and their ordering may change at any point. WARNING: When using {getRoleMember} and {getRoleMemberCount}, make sure you perform all queries on the same block. See the following https://forum.openzeppelin.com/t/iterating-over-elements-on-enumerableset-in-openzeppelin-contracts/2296[forum post] for more information."
      },
      "getRoleMemberCount(bytes32)": {
        "details": "Returns the number of accounts that have `role`. Can be used together with {getRoleMember} to enumerate all bearers of a role."
      },
      "grantRole(bytes32,address)": {
        "details": "Grants `role` to `account`. If `account` had not been already granted `role`, emits a {RoleGranted} event. Requirements: - the caller must have ``role``'s admin role."
      },
      "hasRole(bytes32,address)": {
        "details": "Returns `true` if `account` has been granted `role`."
      },
      "renounceRole(bytes32,address)": {
        "details": "Revokes `role` from the calling account. Roles are often managed via {grantRole} and {revokeRole}: this function's purpose is to provide a mechanism for accounts to lose their privileges if they are compromised (such as when a trusted device is misplaced). If the calling account had been granted `role`, emits a {RoleRevoked} event. Requirements: - the caller must be `account`."
      },
      "revokeRole(bytes32,address)": {
        "details": "Revokes `role` from `account`. If `account` had been granted `role`, emits a {RoleRevoked} event. Requirements: - the caller must have ``role``'s admin role."
      }
    },
    "version": 1
  },
  "userdoc": {
    "kind": "user",
    "methods": {},
    "version": 1
  },
  "storageLayout": {
    "storage": [
      {
        "astId": 493,
        "contract": "contracts/oracles/GasPrice.sol:GasPrice",
        "label": "_roles",
        "offset": 0,
        "slot": "0",
        "type": "t_mapping(t_bytes32,t_struct(RoleData)489_storage)"
      },
      {
        "astId": 8408,
        "contract": "contracts/oracles/GasPrice.sol:GasPrice",
        "label": "gasPrice",
        "offset": 0,
        "slot": "1",
        "type": "t_uint256"
      },
      {
        "astId": 8411,
        "contract": "contracts/oracles/GasPrice.sol:GasPrice",
        "label": "updateThreshold",
        "offset": 0,
        "slot": "2",
        "type": "t_uint256"
      },
      {
        "astId": 8414,
        "contract": "contracts/oracles/GasPrice.sol:GasPrice",
        "label": "updatedAt",
        "offset": 0,
        "slot": "3",
        "type": "t_uint256"
      }
    ],
    "types": {
      "t_array(t_bytes32)dyn_storage": {
        "base": "t_bytes32",
        "encoding": "dynamic_array",
        "label": "bytes32[]",
        "numberOfBytes": "32"
      },
      "t_bytes32": {
        "encoding": "inplace",
        "label": "bytes32",
        "numberOfBytes": "32"
      },
      "t_mapping(t_bytes32,t_struct(RoleData)489_storage)": {
        "encoding": "mapping",
        "key": "t_bytes32",
        "label": "mapping(bytes32 => struct AccessControl.RoleData)",
        "numberOfBytes": "32",
        "value": "t_struct(RoleData)489_storage"
      },
      "t_mapping(t_bytes32,t_uint256)": {
        "encoding": "mapping",
        "key": "t_bytes32",
        "label": "mapping(bytes32 => uint256)",
        "numberOfBytes": "32",
        "value": "t_uint256"
      },
      "t_struct(AddressSet)2680_storage": {
        "encoding": "inplace",
        "label": "struct EnumerableSet.AddressSet",
        "members": [
          {
            "astId": 2679,
            "contract": "contracts/oracles/GasPrice.sol:GasPrice",
            "label": "_inner",
            "offset": 0,
            "slot": "0",
            "type": "t_struct(Set)2415_storage"
          }
        ],
        "numberOfBytes": "64"
      },
      "t_struct(RoleData)489_storage": {
        "encoding": "inplace",
        "label": "struct AccessControl.RoleData",
        "members": [
          {
            "astId": 486,
            "contract": "contracts/oracles/GasPrice.sol:GasPrice",
            "label": "members",
            "offset": 0,
            "slot": "0",
            "type": "t_struct(AddressSet)2680_storage"
          },
          {
            "astId": 488,
            "contract": "contracts/oracles/GasPrice.sol:GasPrice",
            "label": "adminRole",
            "offset": 0,
            "slot": "2",
            "type": "t_bytes32"
          }
        ],
        "numberOfBytes": "96"
      },
      "t_struct(Set)2415_storage": {
        "encoding": "inplace",
        "label": "struct EnumerableSet.Set",
        "members": [
          {
            "astId": 2410,
            "contract": "contracts/oracles/GasPrice.sol:GasPrice",
            "label": "_values",
            "offset": 0,
            "slot": "0",
            "type": "t_array(t_bytes32)dyn_storage"
          },
          {
            "astId": 2414,
            "contract": "contracts/oracles/GasPrice.sol:GasPrice",
            "label": "_indexes",
            "offset": 0,
            "slot": "1",
            "type": "t_mapping(t_bytes32,t_uint256)"
          }
        ],
        "numberOfBytes": "64"
      },
      "t_uint256": {
        "encoding": "inplace",
        "label": "uint256",
        "numberOfBytes": "32"
      }
    }
  }
}