{
  "address": "0xd07224EDb47a75639417509623943431C95A18E2",
  "abi": [
    {
      "inputs": [
        {
          "internalType": "address",
          "name": "owner_",
          "type": "address"
        }
      ],
      "stateMutability": "nonpayable",
      "type": "constructor"
    },
    {
      "anonymous": false,
      "inputs": [
        {
          "indexed": true,
          "internalType": "address",
          "name": "author",
          "type": "address"
        }
      ],
      "name": "Destroyed",
      "type": "event"
    },
    {
      "anonymous": false,
      "inputs": [
        {
          "indexed": true,
          "internalType": "address",
          "name": "previousOwner",
          "type": "address"
        },
        {
          "indexed": true,
          "internalType": "address",
          "name": "newOwner",
          "type": "address"
        }
      ],
      "name": "OwnershipTransferred",
      "type": "event"
    },
    {
      "anonymous": false,
      "inputs": [
        {
          "indexed": false,
          "internalType": "address",
          "name": "account",
          "type": "address"
        }
      ],
      "name": "Paused",
      "type": "event"
    },
    {
      "anonymous": false,
      "inputs": [
        {
          "indexed": false,
          "internalType": "address",
          "name": "account",
          "type": "address"
        }
      ],
      "name": "Unpaused",
      "type": "event"
    },
    {
      "inputs": [],
      "name": "destroy",
      "outputs": [],
      "stateMutability": "nonpayable",
      "type": "function"
    },
    {
      "inputs": [
        {
          "internalType": "address",
          "name": "owner_",
          "type": "address"
        }
      ],
      "name": "init",
      "outputs": [],
      "stateMutability": "nonpayable",
      "type": "function"
    },
    {
      "inputs": [],
      "name": "owner",
      "outputs": [
        {
          "internalType": "address",
          "name": "",
          "type": "address"
        }
      ],
      "stateMutability": "view",
      "type": "function"
    },
    {
      "inputs": [],
      "name": "paused",
      "outputs": [
        {
          "internalType": "bool",
          "name": "",
          "type": "bool"
        }
      ],
      "stateMutability": "view",
      "type": "function"
    },
    {
      "inputs": [
        {
          "internalType": "address",
          "name": "rewardsToken",
          "type": "address"
        }
      ],
      "name": "postInit",
      "outputs": [],
      "stateMutability": "nonpayable",
      "type": "function"
    },
    {
      "inputs": [
        {
          "internalType": "address",
          "name": "secureVault",
          "type": "address"
        }
      ],
      "name": "postUpgrade",
      "outputs": [],
      "stateMutability": "nonpayable",
      "type": "function"
    },
    {
      "inputs": [],
      "name": "renounceOwnership",
      "outputs": [],
      "stateMutability": "nonpayable",
      "type": "function"
    },
    {
      "inputs": [
        {
          "internalType": "address",
          "name": "newOwner",
          "type": "address"
        }
      ],
      "name": "transferOwnership",
      "outputs": [],
      "stateMutability": "nonpayable",
      "type": "function"
    }
  ],
  "args": [
    "0x5757Dd711EaE80e181E07CdbCe43359Ac1048394"
  ],
  "solcInputHash": "ab0b359a0378bf8b70adc5ed34764028",
  "bytecode": "0x60806040523480156200001157600080fd5b50604051620015cb380380620015cb833981810160405260208110156200003757600080fd5b505162000044816200004b565b5062000389565b600054610100900460ff16806200006757506200006762000115565b8062000076575060005460ff16155b620000b35760405162461bcd60e51b815260040180806020018281038252602e8152602001806200159d602e913960400191505060405180910390fd5b600054610100900460ff16158015620000df576000805460ff1961ff0019909116610100171660011790555b620000e962000133565b620000f482620001dd565b620000fe620002d0565b801562000111576000805461ff00191690555b5050565b60006200012d306200038360201b620009431760201c565b15905090565b600054610100900460ff16806200014f57506200014f62000115565b806200015e575060005460ff16155b6200019b5760405162461bcd60e51b815260040180806020018281038252602e8152602001806200159d602e913960400191505060405180910390fd5b600054610100900460ff16158015620001c7576000805460ff1961ff0019909116610100171660011790555b8015620001da576000805461ff00191690555b50565b600054610100900460ff1680620001f95750620001f962000115565b8062000208575060005460ff16155b620002455760405162461bcd60e51b815260040180806020018281038252602e8152602001806200159d602e913960400191505060405180910390fd5b600054610100900460ff1615801562000271576000805460ff1961ff0019909116610100171660011790555b603380546001600160a01b0319166001600160a01b0384169081179091556040516000907f8be0079c531659141344cd1fd0a4f28419497f9722a3daafe3b4186f6b6457e0908290a3801562000111576000805461ff00191690555050565b600054610100900460ff1680620002ec5750620002ec62000115565b80620002fb575060005460ff16155b620003385760405162461bcd60e51b815260040180806020018281038252602e8152602001806200159d602e913960400191505060405180910390fd5b600054610100900460ff1615801562000364576000805460ff1961ff0019909116610100171660011790555b6065805460ff191690558015620001da576000805461ff001916905550565b3b151590565b61120480620003996000396000f3fe608060405234801561001057600080fd5b50600436106100885760003560e01c806383197ef01161005b57806383197ef0146101195780638da5cb5b14610121578063c79b243014610152578063f2fde38b1461018557610088565b806319ab453c1461008d5780632962b7be146100c25780635c975abb146100f5578063715018a614610111575b600080fd5b6100c0600480360360208110156100a357600080fd5b503573ffffffffffffffffffffffffffffffffffffffff166101b8565b005b6100c0600480360360208110156100d857600080fd5b503573ffffffffffffffffffffffffffffffffffffffff166102e6565b6100fd6103d5565b604080519115158252519081900360200190f35b6100c06103de565b6100c06104f5565b610129610604565b6040805173ffffffffffffffffffffffffffffffffffffffff9092168252519081900360200190f35b6100c06004803603602081101561016857600080fd5b503573ffffffffffffffffffffffffffffffffffffffff16610620565b6100c06004803603602081101561019b57600080fd5b503573ffffffffffffffffffffffffffffffffffffffff166107a1565b600054610100900460ff16806101d157506101d1610949565b806101df575060005460ff16155b610234576040517f08c379a000000000000000000000000000000000000000000000000000000000815260040180806020018281038252602e815260200180611177602e913960400191505060405180910390fd5b600054610100900460ff1615801561029a57600080547fffffffffffffffffffffffffffffffffffffffffffffffffffffffffffffff007fffffffffffffffffffffffffffffffffffffffffffffffffffffffffffff00ff909116610100171660011790555b6102a261095a565b6102ab82610a6e565b6102b3610bf0565b80156102e257600080547fffffffffffffffffffffffffffffffffffffffffffffffffffffffffffff00ff1690555b5050565b6102ee610d2b565b73ffffffffffffffffffffffffffffffffffffffff1661030c610604565b73ffffffffffffffffffffffffffffffffffffffff161461038e57604080517f08c379a000000000000000000000000000000000000000000000000000000000815260206004820181905260248201527f4f776e61626c653a2063616c6c6572206973206e6f7420746865206f776e6572604482015290519081900360640190fd5b609780547fffffffffffffffffffffffff00000000000000000000000000000000000000001673ffffffffffffffffffffffffffffffffffffffff92909216919091179055565b60655460ff1690565b6103e6610d2b565b73ffffffffffffffffffffffffffffffffffffffff16610404610604565b73ffffffffffffffffffffffffffffffffffffffff161461048657604080517f08c379a000000000000000000000000000000000000000000000000000000000815260206004820181905260248201527f4f776e61626c653a2063616c6c6572206973206e6f7420746865206f776e6572604482015290519081900360640190fd5b60335460405160009173ffffffffffffffffffffffffffffffffffffffff16907f8be0079c531659141344cd1fd0a4f28419497f9722a3daafe3b4186f6b6457e0908390a3603380547fffffffffffffffffffffffff0000000000000000000000000000000000000000169055565b6104fd610d2b565b73ffffffffffffffffffffffffffffffffffffffff1661051b610604565b73ffffffffffffffffffffffffffffffffffffffff161461059d57604080517f08c379a000000000000000000000000000000000000000000000000000000000815260206004820181905260248201527f4f776e61626c653a2063616c6c6572206973206e6f7420746865206f776e6572604482015290519081900360640190fd5b60006105a7610d2b565b60405190915073ffffffffffffffffffffffffffffffffffffffff8216907f7dec311f70bce33f6997a1cc140bcb6149f9ee83d6be656e848b00d170c9820090600090a28073ffffffffffffffffffffffffffffffffffffffff16ff5b60335473ffffffffffffffffffffffffffffffffffffffff1690565b610628610d2b565b73ffffffffffffffffffffffffffffffffffffffff16610646610604565b73ffffffffffffffffffffffffffffffffffffffff16146106c857604080517f08c379a000000000000000000000000000000000000000000000000000000000815260206004820181905260248201527f4f776e61626c653a2063616c6c6572206973206e6f7420746865206f776e6572604482015290519081900360640190fd5b609754604080517f70a08231000000000000000000000000000000000000000000000000000000008152306004820152905173ffffffffffffffffffffffffffffffffffffffff9092169160009183916370a0823191602480820192602092909190829003018186803b15801561073e57600080fd5b505afa158015610752573d6000803e3d6000fd5b505050506040513d602081101561076857600080fd5b5051905061078d73ffffffffffffffffffffffffffffffffffffffff83168483610d2f565b5050600060988190556099819055609a5550565b6107a9610d2b565b73ffffffffffffffffffffffffffffffffffffffff166107c7610604565b73ffffffffffffffffffffffffffffffffffffffff161461084957604080517f08c379a000000000000000000000000000000000000000000000000000000000815260206004820181905260248201527f4f776e61626c653a2063616c6c6572206973206e6f7420746865206f776e6572604482015290519081900360640190fd5b73ffffffffffffffffffffffffffffffffffffffff81166108b5576040517f08c379a000000000000000000000000000000000000000000000000000000000815260040180806020018281038252602681526020018061112b6026913960400191505060405180910390fd5b60335460405173ffffffffffffffffffffffffffffffffffffffff8084169216907f8be0079c531659141344cd1fd0a4f28419497f9722a3daafe3b4186f6b6457e090600090a3603380547fffffffffffffffffffffffff00000000000000000000000000000000000000001673ffffffffffffffffffffffffffffffffffffffff92909216919091179055565b3b151590565b600061095430610943565b15905090565b600054610100900460ff16806109735750610973610949565b80610981575060005460ff16155b6109d6576040517f08c379a000000000000000000000000000000000000000000000000000000000815260040180806020018281038252602e815260200180611177602e913960400191505060405180910390fd5b600054610100900460ff16158015610a3c57600080547fffffffffffffffffffffffffffffffffffffffffffffffffffffffffffffff007fffffffffffffffffffffffffffffffffffffffffffffffffffffffffffff00ff909116610100171660011790555b8015610a6b57600080547fffffffffffffffffffffffffffffffffffffffffffffffffffffffffffff00ff1690555b50565b600054610100900460ff1680610a875750610a87610949565b80610a95575060005460ff16155b610aea576040517f08c379a000000000000000000000000000000000000000000000000000000000815260040180806020018281038252602e815260200180611177602e913960400191505060405180910390fd5b600054610100900460ff16158015610b5057600080547fffffffffffffffffffffffffffffffffffffffffffffffffffffffffffffff007fffffffffffffffffffffffffffffffffffffffffffffffffffffffffffff00ff909116610100171660011790555b603380547fffffffffffffffffffffffff00000000000000000000000000000000000000001673ffffffffffffffffffffffffffffffffffffffff84169081179091556040516000907f8be0079c531659141344cd1fd0a4f28419497f9722a3daafe3b4186f6b6457e0908290a380156102e257600080547fffffffffffffffffffffffffffffffffffffffffffffffffffffffffffff00ff1690555050565b600054610100900460ff1680610c095750610c09610949565b80610c17575060005460ff16155b610c6c576040517f08c379a000000000000000000000000000000000000000000000000000000000815260040180806020018281038252602e815260200180611177602e913960400191505060405180910390fd5b600054610100900460ff16158015610cd257600080547fffffffffffffffffffffffffffffffffffffffffffffffffffffffffffffff007fffffffffffffffffffffffffffffffffffffffffffffffffffffffffffff00ff909116610100171660011790555b606580547fffffffffffffffffffffffffffffffffffffffffffffffffffffffffffffff001690558015610a6b57600080547fffffffffffffffffffffffffffffffffffffffffffffffffffffffffffff00ff16905550565b3390565b6040805173ffffffffffffffffffffffffffffffffffffffff8416602482015260448082018490528251808303909101815260649091019091526020810180517bffffffffffffffffffffffffffffffffffffffffffffffffffffffff167fa9059cbb00000000000000000000000000000000000000000000000000000000179052610dbc908490610dc1565b505050565b6000610e23826040518060400160405280602081526020017f5361666545524332303a206c6f772d6c6576656c2063616c6c206661696c65648152508573ffffffffffffffffffffffffffffffffffffffff16610e999092919063ffffffff16565b805190915015610dbc57808060200190516020811015610e4257600080fd5b5051610dbc576040517f08c379a000000000000000000000000000000000000000000000000000000000815260040180806020018281038252602a8152602001806111a5602a913960400191505060405180910390fd5b6060610ea88484600085610eb2565b90505b9392505050565b606082471015610f0d576040517f08c379a00000000000000000000000000000000000000000000000000000000081526004018080602001828103825260268152602001806111516026913960400191505060405180910390fd5b610f1685610943565b610f8157604080517f08c379a000000000000000000000000000000000000000000000000000000000815260206004820152601d60248201527f416464726573733a2063616c6c20746f206e6f6e2d636f6e7472616374000000604482015290519081900360640190fd5b6000808673ffffffffffffffffffffffffffffffffffffffff1685876040518082805190602001908083835b60208310610fea57805182527fffffffffffffffffffffffffffffffffffffffffffffffffffffffffffffffe09092019160209182019101610fad565b6001836020036101000a03801982511681845116808217855250505050505090500191505060006040518083038185875af1925050503d806000811461104c576040519150601f19603f3d011682016040523d82523d6000602084013e611051565b606091505b509150915061106182828661106c565b979650505050505050565b6060831561107b575081610eab565b82511561108b5782518084602001fd5b816040517f08c379a00000000000000000000000000000000000000000000000000000000081526004018080602001828103825283818151815260200191508051906020019080838360005b838110156110ef5781810151838201526020016110d7565b50505050905090810190601f16801561111c5780820380516001836020036101000a031916815260200191505b509250505060405180910390fdfe4f776e61626c653a206e6577206f776e657220697320746865207a65726f2061646472657373416464726573733a20696e73756666696369656e742062616c616e636520666f722063616c6c496e697469616c697a61626c653a20636f6e747261637420697320616c726561647920696e697469616c697a65645361666545524332303a204552433230206f7065726174696f6e20646964206e6f742073756363656564a264697066735822122019cb91443d94efcb331c8e04389daadc80b0c5fa6d9bd741dd724257251ab29c64736f6c63430007060033496e697469616c697a61626c653a20636f6e747261637420697320616c726561647920696e697469616c697a6564",
  "devdoc": {
    "kind": "dev",
    "methods": {
      "owner()": {
        "details": "Returns the address of the current owner."
      },
      "paused()": {
        "details": "Returns true if the contract is paused, and false otherwise."
      },
      "renounceOwnership()": {
        "details": "Leaves the contract without owner. It will not be possible to call `onlyOwner` functions anymore. Can only be called by the current owner. NOTE: Renouncing ownership will leave the contract without an owner, thereby removing any functionality that is only available to the owner."
      },
      "transferOwnership(address)": {
        "details": "Transfers ownership of the contract to a new account (`newOwner`). Can only be called by the current owner."
      }
    },
    "version": 1
  },
  "userdoc": {
    "kind": "user",
    "methods": {},
    "version": 1
  },
  "storageLayout": {
    "storage": [
      {
        "astId": 6,
        "contract": "contracts/rewards/LPRewards/LPRewards.sol:LPRewards",
        "label": "_initialized",
        "offset": 0,
        "slot": "0",
        "type": "t_bool"
      },
      {
        "astId": 9,
        "contract": "contracts/rewards/LPRewards/LPRewards.sol:LPRewards",
        "label": "_initializing",
        "offset": 1,
        "slot": "0",
        "type": "t_bool"
      },
      {
        "astId": 353,
        "contract": "contracts/rewards/LPRewards/LPRewards.sol:LPRewards",
        "label": "__gap",
        "offset": 0,
        "slot": "1",
        "type": "t_array(t_uint256)50_storage"
      },
      {
        "astId": 3948,
        "contract": "contracts/rewards/LPRewards/LPRewards.sol:LPRewards",
        "label": "_owner",
        "offset": 0,
        "slot": "51",
        "type": "t_address"
      },
      {
        "astId": 4067,
        "contract": "contracts/rewards/LPRewards/LPRewards.sol:LPRewards",
        "label": "__gap",
        "offset": 0,
        "slot": "52",
        "type": "t_array(t_uint256)49_storage"
      },
      {
        "astId": 375,
        "contract": "contracts/rewards/LPRewards/LPRewards.sol:LPRewards",
        "label": "_paused",
        "offset": 0,
        "slot": "101",
        "type": "t_bool"
      },
      {
        "astId": 466,
        "contract": "contracts/rewards/LPRewards/LPRewards.sol:LPRewards",
        "label": "__gap",
        "offset": 0,
        "slot": "102",
        "type": "t_array(t_uint256)49_storage"
      },
      {
        "astId": 13349,
        "contract": "contracts/rewards/LPRewards/LPRewards.sol:LPRewards",
        "label": "_rewardsToken",
        "offset": 0,
        "slot": "151",
        "type": "t_address"
      },
      {
        "astId": 13351,
        "contract": "contracts/rewards/LPRewards/LPRewards.sol:LPRewards",
        "label": "_lastTotalRewardsAccrued",
        "offset": 0,
        "slot": "152",
        "type": "t_uint256"
      },
      {
        "astId": 13353,
        "contract": "contracts/rewards/LPRewards/LPRewards.sol:LPRewards",
        "label": "_totalRewardsRedeemed",
        "offset": 0,
        "slot": "153",
        "type": "t_uint256"
      },
      {
        "astId": 13355,
        "contract": "contracts/rewards/LPRewards/LPRewards.sol:LPRewards",
        "label": "_unredeemableRewards",
        "offset": 0,
        "slot": "154",
        "type": "t_uint256"
      },
      {
        "astId": 13357,
        "contract": "contracts/rewards/LPRewards/LPRewards.sol:LPRewards",
        "label": "_tokens",
        "offset": 0,
        "slot": "155",
        "type": "t_struct(AddressSet)2680_storage"
      },
      {
        "astId": 13361,
        "contract": "contracts/rewards/LPRewards/LPRewards.sol:LPRewards",
        "label": "_tokenData",
        "offset": 0,
        "slot": "157",
        "type": "t_mapping(t_address,t_struct(TokenData)13333_storage)"
      },
      {
        "astId": 13365,
        "contract": "contracts/rewards/LPRewards/LPRewards.sol:LPRewards",
        "label": "_users",
        "offset": 0,
        "slot": "158",
        "type": "t_mapping(t_address,t_struct(UserData)13347_storage)"
      },
      {
        "astId": 13369,
        "contract": "contracts/rewards/LPRewards/LPRewards.sol:LPRewards",
        "label": "__gap",
        "offset": 0,
        "slot": "159",
        "type": "t_array(t_uint256)43_storage"
      }
    ],
    "types": {
      "t_address": {
        "encoding": "inplace",
        "label": "address",
        "numberOfBytes": "20"
      },
      "t_array(t_bytes32)dyn_storage": {
        "base": "t_bytes32",
        "encoding": "dynamic_array",
        "label": "bytes32[]",
        "numberOfBytes": "32"
      },
      "t_array(t_struct(MapEntry)9058_storage)dyn_storage": {
        "base": "t_struct(MapEntry)9058_storage",
        "encoding": "dynamic_array",
        "label": "struct EnumerableMap.MapEntry[]",
        "numberOfBytes": "32"
      },
      "t_array(t_uint256)43_storage": {
        "base": "t_uint256",
        "encoding": "inplace",
        "label": "uint256[43]",
        "numberOfBytes": "1376"
      },
      "t_array(t_uint256)49_storage": {
        "base": "t_uint256",
        "encoding": "inplace",
        "label": "uint256[49]",
        "numberOfBytes": "1568"
      },
      "t_array(t_uint256)50_storage": {
        "base": "t_uint256",
        "encoding": "inplace",
        "label": "uint256[50]",
        "numberOfBytes": "1600"
      },
      "t_bool": {
        "encoding": "inplace",
        "label": "bool",
        "numberOfBytes": "1"
      },
      "t_bytes32": {
        "encoding": "inplace",
        "label": "bytes32",
        "numberOfBytes": "32"
      },
      "t_mapping(t_address,t_struct(TokenData)13333_storage)": {
        "encoding": "mapping",
        "key": "t_address",
        "label": "mapping(address => struct LPRewardsData.TokenData)",
        "numberOfBytes": "32",
        "value": "t_struct(TokenData)13333_storage"
      },
      "t_mapping(t_address,t_struct(UserData)13347_storage)": {
        "encoding": "mapping",
        "key": "t_address",
        "label": "mapping(address => struct LPRewardsData.UserData)",
        "numberOfBytes": "32",
        "value": "t_struct(UserData)13347_storage"
      },
      "t_mapping(t_address,t_struct(UserTokenRewards)13338_storage)": {
        "encoding": "mapping",
        "key": "t_address",
        "label": "mapping(address => struct LPRewardsData.UserTokenRewards)",
        "numberOfBytes": "32",
        "value": "t_struct(UserTokenRewards)13338_storage"
      },
      "t_mapping(t_bytes32,t_uint256)": {
        "encoding": "mapping",
        "key": "t_bytes32",
        "label": "mapping(bytes32 => uint256)",
        "numberOfBytes": "32",
        "value": "t_uint256"
      },
      "t_struct(AddressSet)2680_storage": {
        "encoding": "inplace",
        "label": "struct EnumerableSet.AddressSet",
        "members": [
          {
            "astId": 2679,
            "contract": "contracts/rewards/LPRewards/LPRewards.sol:LPRewards",
            "label": "_inner",
            "offset": 0,
            "slot": "0",
            "type": "t_struct(Set)2415_storage"
          }
        ],
        "numberOfBytes": "64"
      },
      "t_struct(AddressToUintMap)9330_storage": {
        "encoding": "inplace",
        "label": "struct EnumerableMap.AddressToUintMap",
        "members": [
          {
            "astId": 9329,
            "contract": "contracts/rewards/LPRewards/LPRewards.sol:LPRewards",
            "label": "_inner",
            "offset": 0,
            "slot": "0",
            "type": "t_struct(Map)9066_storage"
          }
        ],
        "numberOfBytes": "64"
      },
      "t_struct(Map)9066_storage": {
        "encoding": "inplace",
        "label": "struct EnumerableMap.Map",
        "members": [
          {
            "astId": 9061,
            "contract": "contracts/rewards/LPRewards/LPRewards.sol:LPRewards",
            "label": "_entries",
            "offset": 0,
            "slot": "0",
            "type": "t_array(t_struct(MapEntry)9058_storage)dyn_storage"
          },
          {
            "astId": 9065,
            "contract": "contracts/rewards/LPRewards/LPRewards.sol:LPRewards",
            "label": "_indexes",
            "offset": 0,
            "slot": "1",
            "type": "t_mapping(t_bytes32,t_uint256)"
          }
        ],
        "numberOfBytes": "64"
      },
      "t_struct(MapEntry)9058_storage": {
        "encoding": "inplace",
        "label": "struct EnumerableMap.MapEntry",
        "members": [
          {
            "astId": 9055,
            "contract": "contracts/rewards/LPRewards/LPRewards.sol:LPRewards",
            "label": "_key",
            "offset": 0,
            "slot": "0",
            "type": "t_bytes32"
          },
          {
            "astId": 9057,
            "contract": "contracts/rewards/LPRewards/LPRewards.sol:LPRewards",
            "label": "_value",
            "offset": 0,
            "slot": "1",
            "type": "t_bytes32"
          }
        ],
        "numberOfBytes": "64"
      },
      "t_struct(Set)2415_storage": {
        "encoding": "inplace",
        "label": "struct EnumerableSet.Set",
        "members": [
          {
            "astId": 2410,
            "contract": "contracts/rewards/LPRewards/LPRewards.sol:LPRewards",
            "label": "_values",
            "offset": 0,
            "slot": "0",
            "type": "t_array(t_bytes32)dyn_storage"
          },
          {
            "astId": 2414,
            "contract": "contracts/rewards/LPRewards/LPRewards.sol:LPRewards",
            "label": "_indexes",
            "offset": 0,
            "slot": "1",
            "type": "t_mapping(t_bytes32,t_uint256)"
          }
        ],
        "numberOfBytes": "64"
      },
      "t_struct(TokenData)13333_storage": {
        "encoding": "inplace",
        "label": "struct LPRewardsData.TokenData",
        "members": [
          {
            "astId": 13322,
            "contract": "contracts/rewards/LPRewards/LPRewards.sol:LPRewards",
            "label": "arpt",
            "offset": 0,
            "slot": "0",
            "type": "t_uint256"
          },
          {
            "astId": 13324,
            "contract": "contracts/rewards/LPRewards/LPRewards.sol:LPRewards",
            "label": "lastRewardsAccrued",
            "offset": 0,
            "slot": "1",
            "type": "t_uint256"
          },
          {
            "astId": 13326,
            "contract": "contracts/rewards/LPRewards/LPRewards.sol:LPRewards",
            "label": "rewards",
            "offset": 0,
            "slot": "2",
            "type": "t_uint256"
          },
          {
            "astId": 13328,
            "contract": "contracts/rewards/LPRewards/LPRewards.sol:LPRewards",
            "label": "rewardsRedeemed",
            "offset": 0,
            "slot": "3",
            "type": "t_uint256"
          },
          {
            "astId": 13330,
            "contract": "contracts/rewards/LPRewards/LPRewards.sol:LPRewards",
            "label": "totalStaked",
            "offset": 0,
            "slot": "4",
            "type": "t_uint256"
          },
          {
            "astId": 13332,
            "contract": "contracts/rewards/LPRewards/LPRewards.sol:LPRewards",
            "label": "valueImpl",
            "offset": 0,
            "slot": "5",
            "type": "t_address"
          }
        ],
        "numberOfBytes": "192"
      },
      "t_struct(UserData)13347_storage": {
        "encoding": "inplace",
        "label": "struct LPRewardsData.UserData",
        "members": [
          {
            "astId": 13340,
            "contract": "contracts/rewards/LPRewards/LPRewards.sol:LPRewards",
            "label": "tokensWithRewards",
            "offset": 0,
            "slot": "0",
            "type": "t_struct(AddressSet)2680_storage"
          },
          {
            "astId": 13344,
            "contract": "contracts/rewards/LPRewards/LPRewards.sol:LPRewards",
            "label": "rewardsFor",
            "offset": 0,
            "slot": "2",
            "type": "t_mapping(t_address,t_struct(UserTokenRewards)13338_storage)"
          },
          {
            "astId": 13346,
            "contract": "contracts/rewards/LPRewards/LPRewards.sol:LPRewards",
            "label": "staked",
            "offset": 0,
            "slot": "3",
            "type": "t_struct(AddressToUintMap)9330_storage"
          }
        ],
        "numberOfBytes": "160"
      },
      "t_struct(UserTokenRewards)13338_storage": {
        "encoding": "inplace",
        "label": "struct LPRewardsData.UserTokenRewards",
        "members": [
          {
            "astId": 13335,
            "contract": "contracts/rewards/LPRewards/LPRewards.sol:LPRewards",
            "label": "pending",
            "offset": 0,
            "slot": "0",
            "type": "t_uint256"
          },
          {
            "astId": 13337,
            "contract": "contracts/rewards/LPRewards/LPRewards.sol:LPRewards",
            "label": "arptLast",
            "offset": 0,
            "slot": "1",
            "type": "t_uint256"
          }
        ],
        "numberOfBytes": "64"
      },
      "t_uint256": {
        "encoding": "inplace",
        "label": "uint256",
        "numberOfBytes": "32"
      }
    }
  }
}